{
  "contractName": "AllowedSetters",
  "abi": [
    {
      "constant": true,
      "inputs": [],
      "name": "lockup",
      "outputs": [
        {
          "name": "",
          "type": "uint256"
        }
      ],
      "payable": false,
      "stateMutability": "view",
      "type": "function"
    },
    {
      "constant": true,
      "inputs": [],
      "name": "name",
      "outputs": [
        {
          "name": "",
          "type": "string"
        }
      ],
      "payable": false,
      "stateMutability": "view",
      "type": "function"
    },
    {
      "constant": true,
      "inputs": [],
      "name": "tokensMintedByEther",
      "outputs": [
        {
          "name": "",
          "type": "uint256"
        }
      ],
      "payable": false,
      "stateMutability": "view",
      "type": "function"
    },
    {
      "constant": true,
      "inputs": [
        {
          "name": "",
          "type": "address"
        }
      ],
      "name": "teamMap",
      "outputs": [
        {
          "name": "",
          "type": "bool"
        }
      ],
      "payable": false,
      "stateMutability": "view",
      "type": "function"
    },
    {
      "constant": true,
      "inputs": [
        {
          "name": "",
          "type": "address"
        }
      ],
      "name": "depositedWei",
      "outputs": [
        {
          "name": "",
          "type": "uint256"
        }
      ],
      "payable": false,
      "stateMutability": "view",
      "type": "function"
    },
    {
      "constant": true,
      "inputs": [
        {
          "name": "",
          "type": "uint256"
        }
      ],
      "name": "team",
      "outputs": [
        {
          "name": "",
          "type": "address"
        }
      ],
      "payable": false,
      "stateMutability": "view",
      "type": "function"
    },
    {
      "constant": true,
      "inputs": [],
      "name": "commissionRaised",
      "outputs": [
        {
          "name": "",
          "type": "uint256"
        }
      ],
      "payable": false,
      "stateMutability": "view",
      "type": "function"
    },
    {
      "constant": true,
      "inputs": [
        {
          "name": "",
          "type": "bytes32"
        }
      ],
      "name": "signatures",
      "outputs": [
        {
          "name": "",
          "type": "bytes32"
        }
      ],
      "payable": false,
      "stateMutability": "view",
      "type": "function"
    },
    {
      "constant": true,
      "inputs": [],
      "name": "refundableSoftCap",
      "outputs": [
        {
          "name": "",
          "type": "bool"
        }
      ],
      "payable": false,
      "stateMutability": "view",
      "type": "function"
    },
    {
      "constant": true,
      "inputs": [],
      "name": "votingPrice",
      "outputs": [
        {
          "name": "",
          "type": "uint256"
        }
      ],
      "payable": false,
      "stateMutability": "view",
      "type": "function"
    },
    {
      "constant": true,
      "inputs": [
        {
          "name": "",
          "type": "uint256"
        }
      ],
      "name": "teamBonusesArr",
      "outputs": [
        {
          "name": "",
          "type": "uint256"
        }
      ],
      "payable": false,
      "stateMutability": "view",
      "type": "function"
    },
    {
      "constant": true,
      "inputs": [
        {
          "name": "",
          "type": "uint256"
        }
      ],
      "name": "teamServiceMember",
      "outputs": [
        {
          "name": "",
          "type": "bool"
        }
      ],
      "payable": false,
      "stateMutability": "view",
      "type": "function"
    },
    {
      "constant": true,
      "inputs": [],
      "name": "endTime",
      "outputs": [
        {
          "name": "",
          "type": "uint256"
        }
      ],
      "payable": false,
      "stateMutability": "view",
      "type": "function"
    },
    {
      "constant": true,
      "inputs": [],
      "name": "serviceContract",
      "outputs": [
        {
          "name": "",
          "type": "address"
        }
      ],
      "payable": false,
      "stateMutability": "view",
      "type": "function"
    },
    {
      "constant": true,
      "inputs": [
        {
          "name": "",
          "type": "address"
        }
      ],
      "name": "votings",
      "outputs": [
        {
          "name": "",
          "type": "address"
        }
      ],
      "payable": false,
      "stateMutability": "view",
      "type": "function"
    },
    {
      "constant": true,
      "inputs": [
        {
          "name": "",
          "type": "address"
        }
      ],
      "name": "whiteList",
      "outputs": [
        {
          "name": "",
          "type": "bool"
        }
      ],
      "payable": false,
      "stateMutability": "view",
      "type": "function"
    },
    {
      "constant": true,
      "inputs": [],
      "name": "canInitStateParameters",
      "outputs": [
        {
          "name": "",
          "type": "bool"
        }
      ],
      "payable": false,
      "stateMutability": "view",
      "type": "function"
    },
    {
      "constant": true,
      "inputs": [
        {
          "name": "",
          "type": "uint256"
        }
      ],
      "name": "whiteListArr",
      "outputs": [
        {
          "name": "",
          "type": "address"
        }
      ],
      "payable": false,
      "stateMutability": "view",
      "type": "function"
    },
    {
      "constant": true,
      "inputs": [],
      "name": "weiRaised",
      "outputs": [
        {
          "name": "",
          "type": "uint256"
        }
      ],
      "payable": false,
      "stateMutability": "view",
      "type": "function"
    },
    {
      "constant": true,
      "inputs": [],
      "name": "DXCRaised",
      "outputs": [
        {
          "name": "",
          "type": "uint256"
        }
      ],
      "payable": false,
      "stateMutability": "view",
      "type": "function"
    },
    {
      "constant": true,
      "inputs": [],
      "name": "version",
      "outputs": [
        {
          "name": "",
          "type": "bytes32"
        }
      ],
      "payable": false,
      "stateMutability": "view",
      "type": "function"
    },
    {
      "constant": true,
      "inputs": [
        {
          "name": "",
          "type": "uint256"
        }
      ],
      "name": "bonusDXCRates",
      "outputs": [
        {
          "name": "",
          "type": "uint256"
        }
      ],
      "payable": false,
      "stateMutability": "view",
      "type": "function"
    },
    {
      "constant": true,
      "inputs": [],
      "name": "canSetWhiteList",
      "outputs": [
        {
          "name": "",
          "type": "bool"
        }
      ],
      "payable": false,
      "stateMutability": "view",
      "type": "function"
    },
    {
      "constant": true,
      "inputs": [],
      "name": "initialCapital",
      "outputs": [
        {
          "name": "",
          "type": "uint256"
        }
      ],
      "payable": false,
      "stateMutability": "view",
      "type": "function"
    },
    {
      "constant": true,
      "inputs": [],
      "name": "tokensMintedByDXC",
      "outputs": [
        {
          "name": "",
          "type": "uint256"
        }
      ],
      "payable": false,
      "stateMutability": "view",
      "type": "function"
    },
    {
      "constant": true,
      "inputs": [],
      "name": "fundsRaised",
      "outputs": [
        {
          "name": "",
          "type": "uint256"
        }
      ],
      "payable": false,
      "stateMutability": "view",
      "type": "function"
    },
    {
      "constant": true,
      "inputs": [
        {
          "name": "",
          "type": "uint256"
        }
      ],
      "name": "teamHold",
      "outputs": [
        {
          "name": "",
          "type": "uint256"
        }
      ],
      "payable": false,
      "stateMutability": "view",
      "type": "function"
    },
    {
      "constant": true,
      "inputs": [],
      "name": "description",
      "outputs": [
        {
          "name": "",
          "type": "string"
        }
      ],
      "payable": false,
      "stateMutability": "view",
      "type": "function"
    },
    {
      "constant": true,
      "inputs": [],
      "name": "startTime",
      "outputs": [
        {
          "name": "",
          "type": "uint256"
        }
      ],
      "payable": false,
      "stateMutability": "view",
      "type": "function"
    },
    {
      "constant": true,
      "inputs": [
        {
          "name": "",
          "type": "address"
        }
      ],
      "name": "depositedDXC",
      "outputs": [
        {
          "name": "",
          "type": "uint256"
        }
      ],
      "payable": false,
      "stateMutability": "view",
      "type": "function"
    },
    {
      "constant": true,
      "inputs": [],
      "name": "softCap",
      "outputs": [
        {
          "name": "",
          "type": "uint256"
        }
      ],
      "payable": false,
      "stateMutability": "view",
      "type": "function"
    },
    {
      "constant": true,
      "inputs": [],
      "name": "DXC",
      "outputs": [
        {
          "name": "",
          "type": "address"
        }
      ],
      "payable": false,
      "stateMutability": "view",
      "type": "function"
    },
    {
      "constant": true,
      "inputs": [],
      "name": "canInitCrowdsaleParameters",
      "outputs": [
        {
          "name": "",
          "type": "bool"
        }
      ],
      "payable": false,
      "stateMutability": "view",
      "type": "function"
    },
    {
      "constant": true,
      "inputs": [],
      "name": "created_at",
      "outputs": [
        {
          "name": "",
          "type": "uint256"
        }
      ],
      "payable": false,
      "stateMutability": "view",
      "type": "function"
    },
    {
      "constant": true,
      "inputs": [],
      "name": "DXCRate",
      "outputs": [
        {
          "name": "",
          "type": "uint256"
        }
      ],
      "payable": false,
      "stateMutability": "view",
      "type": "function"
    },
    {
      "constant": true,
      "inputs": [],
      "name": "lastWithdrawalTimestamp",
      "outputs": [
        {
          "name": "",
          "type": "uint256"
        }
      ],
      "payable": false,
      "stateMutability": "view",
      "type": "function"
    },
    {
      "constant": true,
      "inputs": [],
      "name": "teamTokensAmount",
      "outputs": [
        {
          "name": "",
          "type": "uint256"
        }
      ],
      "payable": false,
      "stateMutability": "view",
      "type": "function"
    },
    {
      "constant": true,
      "inputs": [],
      "name": "votingFactory",
      "outputs": [
        {
          "name": "",
          "type": "address"
        }
      ],
      "payable": false,
      "stateMutability": "view",
      "type": "function"
    },
    {
      "constant": true,
      "inputs": [],
      "name": "refundable",
      "outputs": [
        {
          "name": "",
          "type": "bool"
        }
      ],
      "payable": false,
      "stateMutability": "view",
      "type": "function"
    },
    {
      "constant": true,
      "inputs": [],
      "name": "canInitBonuses",
      "outputs": [
        {
          "name": "",
          "type": "bool"
        }
      ],
      "payable": false,
      "stateMutability": "view",
      "type": "function"
    },
    {
      "constant": true,
      "inputs": [],
      "name": "newDXCRate",
      "outputs": [
        {
          "name": "",
          "type": "uint256"
        }
      ],
      "payable": false,
      "stateMutability": "view",
      "type": "function"
    },
    {
      "constant": true,
      "inputs": [
        {
          "name": "",
          "type": "address"
        }
      ],
      "name": "initialCapitalIncr",
      "outputs": [
        {
          "name": "",
          "type": "uint256"
        }
      ],
      "payable": false,
      "stateMutability": "view",
      "type": "function"
    },
    {
      "constant": true,
      "inputs": [],
      "name": "etherRate",
      "outputs": [
        {
          "name": "",
          "type": "uint256"
        }
      ],
      "payable": false,
      "stateMutability": "view",
      "type": "function"
    },
    {
      "constant": true,
      "inputs": [
        {
          "name": "",
          "type": "uint256"
        }
      ],
      "name": "bonusEtherRates",
      "outputs": [
        {
          "name": "",
          "type": "uint256"
        }
      ],
      "payable": false,
      "stateMutability": "view",
      "type": "function"
    },
    {
      "constant": true,
      "inputs": [],
      "name": "commissionContract",
      "outputs": [
        {
          "name": "",
          "type": "address"
        }
      ],
      "payable": false,
      "stateMutability": "view",
      "type": "function"
    },
    {
      "constant": true,
      "inputs": [
        {
          "name": "",
          "type": "address"
        }
      ],
      "name": "teamBonuses",
      "outputs": [
        {
          "name": "",
          "type": "uint256"
        }
      ],
      "payable": false,
      "stateMutability": "view",
      "type": "function"
    },
    {
      "constant": true,
      "inputs": [],
      "name": "newEtherRate",
      "outputs": [
        {
          "name": "",
          "type": "uint256"
        }
      ],
      "payable": false,
      "stateMutability": "view",
      "type": "function"
    },
    {
      "constant": true,
      "inputs": [],
      "name": "proxyAPI",
      "outputs": [
        {
          "name": "",
          "type": "address"
        }
      ],
      "payable": false,
      "stateMutability": "view",
      "type": "function"
    },
    {
      "constant": true,
      "inputs": [],
      "name": "dxcPayments",
      "outputs": [
        {
          "name": "",
          "type": "bool"
        }
      ],
      "payable": false,
      "stateMutability": "view",
      "type": "function"
    },
    {
      "constant": true,
      "inputs": [
        {
          "name": "",
          "type": "uint256"
        }
      ],
      "name": "bonusPeriods",
      "outputs": [
        {
          "name": "",
          "type": "uint256"
        }
      ],
      "payable": false,
      "stateMutability": "view",
      "type": "function"
    },
    {
      "constant": true,
      "inputs": [],
      "name": "crowdsaleFinished",
      "outputs": [
        {
          "name": "",
          "type": "bool"
        }
      ],
      "payable": false,
      "stateMutability": "view",
      "type": "function"
    },
    {
      "constant": true,
      "inputs": [],
      "name": "hardCap",
      "outputs": [
        {
          "name": "",
          "type": "uint256"
        }
      ],
      "payable": false,
      "stateMutability": "view",
      "type": "function"
    },
    {
      "constant": true,
      "inputs": [],
      "name": "token",
      "outputs": [
        {
          "name": "",
          "type": "address"
        }
      ],
      "payable": false,
      "stateMutability": "view",
      "type": "function"
    },
    {
      "inputs": [],
      "payable": false,
      "stateMutability": "nonpayable",
      "type": "constructor"
    },
    {
      "anonymous": false,
      "inputs": [
        {
          "indexed": false,
          "name": "",
          "type": "bytes32"
        }
      ],
      "name": "Bytes32",
      "type": "event"
    },
    {
      "anonymous": false,
      "inputs": [
        {
          "indexed": false,
          "name": "",
          "type": "uint256"
        }
      ],
      "name": "Uint",
      "type": "event"
    },
    {
      "anonymous": false,
      "inputs": [
        {
          "indexed": false,
          "name": "",
          "type": "address"
        }
      ],
      "name": "Address",
      "type": "event"
    },
    {
      "constant": false,
      "inputs": [
        {
          "name": "_etherRate",
          "type": "bytes32"
        }
      ],
      "name": "setEtherRate",
      "outputs": [],
      "payable": false,
      "stateMutability": "nonpayable",
      "type": "function"
    },
    {
      "constant": false,
      "inputs": [
        {
          "name": "_DXCRate",
          "type": "bytes32"
        }
      ],
      "name": "setDXCRate",
      "outputs": [],
      "payable": false,
      "stateMutability": "nonpayable",
      "type": "function"
    },
    {
      "constant": false,
      "inputs": [
        {
          "name": "_softCap",
          "type": "bytes32"
        }
      ],
      "name": "setSoftCap",
      "outputs": [],
      "payable": false,
      "stateMutability": "nonpayable",
      "type": "function"
    },
    {
      "constant": false,
      "inputs": [
        {
          "name": "_hardCap",
          "type": "bytes32"
        }
      ],
      "name": "setHardCap",
      "outputs": [],
      "payable": false,
      "stateMutability": "nonpayable",
      "type": "function"
    },
    {
      "constant": false,
      "inputs": [
        {
          "name": "_startTime",
          "type": "bytes32"
        }
      ],
      "name": "setStartTime",
      "outputs": [],
      "payable": false,
      "stateMutability": "nonpayable",
      "type": "function"
    },
    {
      "constant": false,
      "inputs": [
        {
          "name": "_endTime",
          "type": "bytes32"
        }
      ],
      "name": "setEndTime",
      "outputs": [],
      "payable": false,
      "stateMutability": "nonpayable",
      "type": "function"
    },
    {
      "constant": false,
      "inputs": [
        {
          "name": "_canInitCrowdsaleParameters",
          "type": "bytes32"
        }
      ],
      "name": "setCanInitCrowdsale",
      "outputs": [],
      "payable": false,
      "stateMutability": "nonpayable",
      "type": "function"
    },
    {
      "constant": false,
      "inputs": [
        {
          "name": "_canInitStateParameters",
          "type": "bytes32"
        }
      ],
      "name": "setCanInitState",
      "outputs": [],
      "payable": false,
      "stateMutability": "nonpayable",
      "type": "function"
    },
    {
      "constant": false,
      "inputs": [
        {
          "name": "_canInitBonuses",
          "type": "bytes32"
        }
      ],
      "name": "setCanInitBonuses",
      "outputs": [],
      "payable": false,
      "stateMutability": "nonpayable",
      "type": "function"
    },
    {
      "constant": false,
      "inputs": [
        {
          "name": "_newEtherRate",
          "type": "bytes32"
        }
      ],
      "name": "setNewEtherRate",
      "outputs": [],
      "payable": false,
      "stateMutability": "nonpayable",
      "type": "function"
    },
    {
      "constant": false,
      "inputs": [
        {
          "name": "_newDXCRate",
          "type": "bytes32"
        }
      ],
      "name": "setNewDXCRate",
      "outputs": [],
      "payable": false,
      "stateMutability": "nonpayable",
      "type": "function"
    },
    {
      "constant": false,
      "inputs": [
        {
          "name": "_token",
          "type": "bytes32"
        }
      ],
      "name": "setToken",
      "outputs": [],
      "payable": false,
      "stateMutability": "nonpayable",
      "type": "function"
    },
    {
      "constant": false,
      "inputs": [
        {
          "name": "_name",
          "type": "bytes32"
        }
      ],
      "name": "setName",
      "outputs": [],
      "payable": false,
      "stateMutability": "nonpayable",
      "type": "function"
    },
    {
      "constant": false,
      "inputs": [
        {
          "name": "_description",
          "type": "bytes32"
        }
      ],
      "name": "setDescription",
      "outputs": [],
      "payable": false,
      "stateMutability": "nonpayable",
      "type": "function"
    },
    {
      "constant": false,
      "inputs": [
        {
          "name": "_dxcPayments",
          "type": "bytes32"
        }
      ],
      "name": "setDxcPayments",
      "outputs": [],
      "payable": false,
      "stateMutability": "nonpayable",
      "type": "function"
    },
    {
      "constant": false,
      "inputs": [
        {
          "name": "_lockup",
          "type": "bytes32"
        }
      ],
      "name": "setLockup",
      "outputs": [],
      "payable": false,
      "stateMutability": "nonpayable",
      "type": "function"
    },
    {
      "constant": false,
      "inputs": [
        {
          "name": "_votingPrice",
          "type": "bytes32"
        }
      ],
      "name": "setVotingPrice",
      "outputs": [],
      "payable": false,
      "stateMutability": "nonpayable",
      "type": "function"
    }
  ],
  "bytecode": "0x60806040526006805463ff0000001962ff00001961ff001960ff19938416600117811661010017919091166201000017919091166301000000179092556000600781905560088190556009819055600a819055600d8054909316909255600e829055600f82905542601b55601d80549091169055601e819055602a819055602b819055602c5534801561009157600080fd5b50602f6020527f73657445746865725261746528627974657333322900000000000000000000007fb68c40d229d899bdc2b7474fe8cce79100b244fbce031c7fca20e5c6fa97525a557f73657444584352617465286279746573333229000000000000000000000000007fbd112c0c3ccc9b482d983007c54a7a998aace92bcc0f596542b3d120b8d0dbfc557f736574536f6674436170286279746573333229000000000000000000000000007fd4f2d0458d3831b07c96b1b720dea4bbbb5e759a2309aef47aa3a4ddcab5a1e6557f73657448617264436170286279746573333229000000000000000000000000007fb3cdcb65def57e4e7b61ab30df47d8b3b5997ea88bd9d3c441706be870c74fe5557f736574537461727454696d6528627974657333322900000000000000000000007f02e2cc740b9920c19120e7a28bd7d66dc86535cde6d136f5cdf24caa8d2f2cb6557f736574456e6454696d65286279746573333229000000000000000000000000007f1c5fcb3e25c0fc7545aac20d780655f99794bb3c7e7c2bd4422d4986a30a4a26557f73657443616e496e697443726f776473616c65286279746573333229000000007fcfe6deafe4ae1868ffc36147f29a4412ef99843e570d9c489d7049748888c3f2557f73657443616e496e6974537461746528627974657333322900000000000000007f703cb0c37f091ea2acf47790eb831870cd3d222c3968c12520e9bda1b0901124557f73657443616e496e6974426f6e757365732862797465733332290000000000007f2e2b27aa05325c1cc41d1b674811bed0a681a8dd0caf3e459816bb75762a9428557f7365744e657745746865725261746528627974657333322900000000000000007fcac969bba17e09bf44c58a786edcf5dfa2db973273e012d1ce975de43988f862557f6e657744584352617465286279746573333229000000000000000000000000007f713b65af710f86687adf4a975247476169922d7072c0a1cf489b13462e77e43f557f736574546f6b656e2862797465733332290000000000000000000000000000007fe5f9ca7276d26544b98b533762900ded11eba5ad028217c1a296187a650d971b557f7365744e616d65286279746573333229000000000000000000000000000000007f903e9417b7c48c1fc1c53b950f1ba6a2ed66ef2503d8da3196edf9b1258c83af557f7365744465736372697074696f6e2862797465733332290000000000000000007fe54423b78fe584f144cf2a6267422459a30624ddba6495c9cefddd2c4837e284557f7365744478635061796d656e74732862797465733332290000000000000000007fed01f2a1977b2de208f7fdb9e2629b8b02daa55f3612db3aa9cb125cd40dda4e557f7365744c6f636b757028627974657333322900000000000000000000000000007fe5f216e073256b7fde9df1badf575cef436ada09439fa2549a362f516eb741d9557f736574566f74696e6750726963650000000000000000000000000000000000006000527f736574566f74696e6750726963652862797465733332290000000000000000007f0118f7ab0a37fbd27b702c9c2e25df86d7c5db43af374d86dddc61da61726bbb5561201b8061053d6000396000f3006080604052600436106103375763ffffffff7c010000000000000000000000000000000000000000000000000000000060003504166304220ea5811461033c57806306490f471461035657806306fdde031461037d5780630ce57c251461040757806310be8d121461041c5780631233799314610451578063197ebd53146104725780631e782df5146104a657806322548bf3146104bb5780632422224e146104d357806325e41777146104eb578063289a03b0146105035780632948b4e9146105185780632eeacc5f1461052d57806330c5a0f2146105455780633197cbb61461055d578063364dab1014610572578063369ef72214610587578063372c12b1146105a8578063379856fa146105c9578063395ad021146105e15780633b541bdb146105f65780634042b66f1461060e5780634f0653681461062357806354fd4d501461063857806356428fe51461064d5780635ac801fe146106655780635f30b6451461067d578063601e538b1461069257806362c64639146106a75780636681b9fd146106bc5780636922b214146106d15780637284e416146106e957806378e97925146106fe5780637d6d3b8c1461071357806389f5df5d14610734578063906a26e01461074c57806390836822146107615780639b35e635146107765780639b95a8351461078e5780639c6f0d85146107a35780639e58779e146107b8578063a62c4169146107cd578063a88f893a146107e2578063aa455be4146107f7578063ae0a46b01461080f578063bb24c54b14610827578063bf89662d1461083c578063c0ef7a6d14610851578063c18f18e814610866578063c4ba7f941461087b578063cc9e4fd414610893578063cdb1d41b146108b4578063d0f7a601146108cc578063da7801b3146108e1578063da8909e5146108f9578063db13c7251461090e578063dc976dbf1461092f578063dcd0f0f614610947578063e2278f2f1461095f578063e2a7937b14610974578063e3bd043a14610989578063e8ca57bd1461099e578063e9fdfb89146109b6578063eaf81f8f146109ce578063ece84fd5146109e6578063f1c69a65146109fb578063fa21fc2014610a13578063fb86a40414610a2b578063fc0c546a14610a40575b600080fd5b34801561034857600080fd5b50610354600435610a55565b005b34801561036257600080fd5b5061036b610b40565b60408051918252519081900360200190f35b34801561038957600080fd5b50610392610b46565b6040805160208082528351818301528351919283929083019185019080838360005b838110156103cc5781810151838201526020016103b4565b50505050905090810190601f1680156103f95780820380516001836020036101000a031916815260200191505b509250505060405180910390f35b34801561041357600080fd5b5061036b610bd4565b34801561042857600080fd5b5061043d600160a060020a0360043516610bda565b604080519115158252519081900360200190f35b34801561045d57600080fd5b5061036b600160a060020a0360043516610bef565b34801561047e57600080fd5b5061048a600435610c01565b60408051600160a060020a039092168252519081900360200190f35b3480156104b257600080fd5b5061036b610c29565b3480156104c757600080fd5b50610354600435610c2f565b3480156104df57600080fd5b5061036b600435610d1a565b3480156104f757600080fd5b50610354600435610d2c565b34801561050f57600080fd5b5061043d610e25565b34801561052457600080fd5b5061036b610e33565b34801561053957600080fd5b5061036b600435610e39565b34801561055157600080fd5b5061043d600435610e58565b34801561056957600080fd5b5061036b610e8a565b34801561057e57600080fd5b5061048a610e90565b34801561059357600080fd5b5061048a600160a060020a0360043516610e9f565b3480156105b457600080fd5b5061043d600160a060020a0360043516610eba565b3480156105d557600080fd5b50610354600435610ece565b3480156105ed57600080fd5b5061043d610fb9565b34801561060257600080fd5b5061048a600435610fc7565b34801561061a57600080fd5b5061036b610fd5565b34801561062f57600080fd5b5061036b610fdb565b34801561064457600080fd5b5061036b610fe1565b34801561065957600080fd5b5061036b600435611005565b34801561067157600080fd5b50610354600435611013565b34801561068957600080fd5b5061043d611181565b34801561069e57600080fd5b5061036b611191565b3480156106b357600080fd5b5061036b611197565b3480156106c857600080fd5b5061036b61119d565b3480156106dd57600080fd5b5061036b6004356111a3565b3480156106f557600080fd5b506103926111b1565b34801561070a57600080fd5b5061036b61120c565b34801561071f57600080fd5b5061036b600160a060020a0360043516611212565b34801561074057600080fd5b50610354600435611224565b34801561075857600080fd5b5061036b61138e565b34801561076d57600080fd5b5061048a611394565b34801561078257600080fd5b506103546004356113a3565b34801561079a57600080fd5b5061043d61148e565b3480156107af57600080fd5b5061036b611497565b3480156107c457600080fd5b5061036b61149d565b3480156107d957600080fd5b5061036b6114a3565b3480156107ee57600080fd5b5061036b6114a9565b34801561080357600080fd5b506103546004356114af565b34801561081b57600080fd5b5061035460043561159a565b34801561083357600080fd5b5061048a611685565b34801561084857600080fd5b5061043d611694565b34801561085d57600080fd5b5061043d61169d565b34801561087257600080fd5b5061036b6116ac565b34801561088757600080fd5b506103546004356116b2565b34801561089f57600080fd5b5061036b600160a060020a03600435166117ab565b3480156108c057600080fd5b506103546004356117bd565b3480156108d857600080fd5b5061036b6118bd565b3480156108ed57600080fd5b5061036b6004356118c3565b34801561090557600080fd5b5061048a6118d1565b34801561091a57600080fd5b5061036b600160a060020a03600435166118e0565b34801561093b57600080fd5b506103546004356118f2565b34801561095357600080fd5b50610354600435611a1c565b34801561096b57600080fd5b5061036b611b07565b34801561098057600080fd5b5061048a611b0d565b34801561099557600080fd5b5061043d611b1c565b3480156109aa57600080fd5b50610354600435611b25565b3480156109c257600080fd5b5061036b600435611c27565b3480156109da57600080fd5b50610354600435611c35565b3480156109f257600080fd5b5061043d611d20565b348015610a0757600080fd5b50610354600435611d29565b348015610a1f57600080fd5b50610354600435611e14565b348015610a3757600080fd5b5061036b611eff565b348015610a4c57600080fd5b5061048a611f05565b602e54600160a060020a03163314610ab9576040805160e560020a62461bcd0281526020600482015260248101829052600080516020611fb08339815191526044820152600080516020611fd0833981519152606482015290519081900360840190fd5b6040805160e260020a633982c50902815260048101839052905173__TypesConverter________________________9163e60b1424916024808301926020929190829003018186803b158015610b0e57600080fd5b505af4158015610b22573d6000803e3d6000fd5b505050506040513d6020811015610b3857600080fd5b505160015550565b602a5481565b6019805460408051602060026001851615610100026000190190941693909304601f81018490048402820184019092528181529291830182828015610bcc5780601f10610ba157610100808354040283529160200191610bcc565b820191906000526020600020905b815481529060010190602001808311610baf57829003601f168201915b505050505081565b60275481565b60136020526000908152604090205460ff1681565b600b6020526000908152604090205481565b6012805482908110610c0f57fe5b600091825260209091200154600160a060020a0316905081565b60075481565b602e54600160a060020a03163314610c93576040805160e560020a62461bcd0281526020600482015260248101829052600080516020611fb08339815191526044820152600080516020611fd0833981519152606482015290519081900360840190fd5b6040805160e260020a633982c50902815260048101839052905173__TypesConverter________________________9163e60b1424916024808301926020929190829003018186803b158015610ce857600080fd5b505af4158015610cfc573d6000803e3d6000fd5b505050506040513d6020811015610d1257600080fd5b505160045550565b602f6020526000908152604090205481565b602e54600160a060020a03163314610d90576040805160e560020a62461bcd0281526020600482015260248101829052600080516020611fb08339815191526044820152600080516020611fd0833981519152606482015290519081900360840190fd5b6040805160e060020a63f7302d7b02815260048101839052905173__TypesConverter________________________9163f7302d7b916024808301926020929190829003018186803b158015610de557600080fd5b505af4158015610df9573d6000803e3d6000fd5b505050506040513d6020811015610e0f57600080fd5b50516006805460ff191691151591909117905550565b600d54610100900460ff1681565b602c5481565b6011805482908110610e4757fe5b600091825260209091200154905081565b6015805482908110610e6657fe5b9060005260206000209060209182820401919006915054906101000a900460ff1681565b60055481565b601054600160a060020a031681565b601c60205260009081526040902054600160a060020a031681565b602080526000908152604090205460ff1681565b602e54600160a060020a03163314610f32576040805160e560020a62461bcd0281526020600482015260248101829052600080516020611fb08339815191526044820152600080516020611fd0833981519152606482015290519081900360840190fd5b6040805160e260020a633982c50902815260048101839052905173__TypesConverter________________________9163e60b1424916024808301926020929190829003018186803b158015610f8757600080fd5b505af4158015610f9b573d6000803e3d6000fd5b505050506040513d6020811015610fb157600080fd5b505160005550565b600654610100900460ff1681565b601f805482908110610c0f57fe5b60085481565b60095481565b7f312e302e3000000000000000000000000000000000000000000000000000000081565b6024805482908110610e4757fe5b602e54600160a060020a03163314611077576040805160e560020a62461bcd0281526020600482015260248101829052600080516020611fb08339815191526044820152600080516020611fd0833981519152606482015290519081900360840190fd5b604080517f9201de5500000000000000000000000000000000000000000000000000000000815260048101839052905173__TypesConverter________________________91639201de55916024808301926000929190829003018186803b1580156110e257600080fd5b505af41580156110f6573d6000803e3d6000fd5b505050506040513d6000823e601f3d908101601f19168201604052602081101561111f57600080fd5b81019080805164010000000081111561113757600080fd5b8201602081018481111561114a57600080fd5b815164010000000081118282018710171561116457600080fd5b5050805161117d94506019935060209091019150611f14565b5050565b6006546301000000900460ff1681565b602b5481565b60285481565b600a5481565b6014805482908110610e4757fe5b601a805460408051602060026001851615610100026000190190941693909304601f81018490048402820184019092528181529291830182828015610bcc5780601f10610ba157610100808354040283529160200191610bcc565b60045481565b600c6020526000908152604090205481565b602e54600160a060020a03163314611288576040805160e560020a62461bcd0281526020600482015260248101829052600080516020611fb08339815191526044820152600080516020611fd0833981519152606482015290519081900360840190fd5b604080517f9201de5500000000000000000000000000000000000000000000000000000000815260048101839052905173__TypesConverter________________________91639201de55916024808301926000929190829003018186803b1580156112f357600080fd5b505af4158015611307573d6000803e3d6000fd5b505050506040513d6000823e601f3d908101601f19168201604052602081101561133057600080fd5b81019080805164010000000081111561134857600080fd5b8201602081018481111561135b57600080fd5b815164010000000081118282018710171561137557600080fd5b5050805161117d9450601a935060209091019150611f14565b60025481565b602654600160a060020a031681565b602e54600160a060020a03163314611407576040805160e560020a62461bcd0281526020600482015260248101829052600080516020611fb08339815191526044820152600080516020611fd0833981519152606482015290519081900360840190fd5b6040805160e260020a633982c50902815260048101839052905173__TypesConverter________________________9163e60b1424916024808301926020929190829003018186803b15801561145c57600080fd5b505af4158015611470573d6000803e3d6000fd5b505050506040513d602081101561148657600080fd5b5051602c5550565b60065460ff1681565b601b5481565b60015481565b601e5481565b60255481565b602e54600160a060020a03163314611513576040805160e560020a62461bcd0281526020600482015260248101829052600080516020611fb08339815191526044820152600080516020611fd0833981519152606482015290519081900360840190fd5b6040805160e260020a633982c50902815260048101839052905173__TypesConverter________________________9163e60b1424916024808301926020929190829003018186803b15801561156857600080fd5b505af415801561157c573d6000803e3d6000fd5b505050506040513d602081101561159257600080fd5b5051602a5550565b602e54600160a060020a031633146115fe576040805160e560020a62461bcd0281526020600482015260248101829052600080516020611fb08339815191526044820152600080516020611fd0833981519152606482015290519081900360840190fd5b6040805160e260020a633982c50902815260048101839052905173__TypesConverter________________________9163e60b1424916024808301926020929190829003018186803b15801561165357600080fd5b505af4158015611667573d6000803e3d6000fd5b505050506040513d602081101561167d57600080fd5b5051600e5550565b601754600160a060020a031681565b601d5460ff1681565b60065462010000900460ff1681565b600f5481565b602e54600160a060020a03163314611716576040805160e560020a62461bcd0281526020600482015260248101829052600080516020611fb08339815191526044820152600080516020611fd0833981519152606482015290519081900360840190fd5b6040805160e060020a63f7302d7b02815260048101839052905173__TypesConverter________________________9163f7302d7b916024808301926020929190829003018186803b15801561176b57600080fd5b505af415801561177f573d6000803e3d6000fd5b505050506040513d602081101561179557600080fd5b50516029805460ff191691151591909117905550565b602d6020526000908152604090205481565b602e54600160a060020a03163314611821576040805160e560020a62461bcd0281526020600482015260248101829052600080516020611fb08339815191526044820152600080516020611fd0833981519152606482015290519081900360840190fd5b6040805160e060020a63f7302d7b02815260048101839052905173__TypesConverter________________________9163f7302d7b916024808301926020929190829003018186803b15801561187657600080fd5b505af415801561188a573d6000803e3d6000fd5b505050506040513d60208110156118a057600080fd5b5051600680549115156101000261ff001990921691909117905550565b60005481565b6023805482908110610e4757fe5b601854600160a060020a031681565b60216020526000908152604090205481565b602e54600160a060020a03163314611956576040805160e560020a62461bcd0281526020600482015260248101829052600080516020611fb08339815191526044820152600080516020611fd0833981519152606482015290519081900360840190fd5b604080517f5ced058e00000000000000000000000000000000000000000000000000000000815260048101839052905173__TypesConverter________________________91635ced058e916024808301926020929190829003018186803b1580156119c157600080fd5b505af41580156119d5573d6000803e3d6000fd5b505050506040513d60208110156119eb57600080fd5b50516016805473ffffffffffffffffffffffffffffffffffffffff1916600160a060020a0390921691909117905550565b602e54600160a060020a03163314611a80576040805160e560020a62461bcd0281526020600482015260248101829052600080516020611fb08339815191526044820152600080516020611fd0833981519152606482015290519081900360840190fd5b6040805160e260020a633982c50902815260048101839052905173__TypesConverter________________________9163e60b1424916024808301926020929190829003018186803b158015611ad557600080fd5b505af4158015611ae9573d6000803e3d6000fd5b505050506040513d6020811015611aff57600080fd5b5051600f5550565b600e5481565b602e54600160a060020a031681565b60295460ff1681565b602e54600160a060020a03163314611b89576040805160e560020a62461bcd0281526020600482015260248101829052600080516020611fb08339815191526044820152600080516020611fd0833981519152606482015290519081900360840190fd5b6040805160e060020a63f7302d7b02815260048101839052905173__TypesConverter________________________9163f7302d7b916024808301926020929190829003018186803b158015611bde57600080fd5b505af4158015611bf2573d6000803e3d6000fd5b505050506040513d6020811015611c0857600080fd5b505160068054911515620100000262ff00001990921691909117905550565b6022805482908110610e4757fe5b602e54600160a060020a03163314611c99576040805160e560020a62461bcd0281526020600482015260248101829052600080516020611fb08339815191526044820152600080516020611fd0833981519152606482015290519081900360840190fd5b6040805160e260020a633982c50902815260048101839052905173__TypesConverter________________________9163e60b1424916024808301926020929190829003018186803b158015611cee57600080fd5b505af4158015611d02573d6000803e3d6000fd5b505050506040513d6020811015611d1857600080fd5b505160025550565b600d5460ff1681565b602e54600160a060020a03163314611d8d576040805160e560020a62461bcd0281526020600482015260248101829052600080516020611fb08339815191526044820152600080516020611fd0833981519152606482015290519081900360840190fd5b6040805160e260020a633982c50902815260048101839052905173__TypesConverter________________________9163e60b1424916024808301926020929190829003018186803b158015611de257600080fd5b505af4158015611df6573d6000803e3d6000fd5b505050506040513d6020811015611e0c57600080fd5b505160055550565b602e54600160a060020a03163314611e78576040805160e560020a62461bcd0281526020600482015260248101829052600080516020611fb08339815191526044820152600080516020611fd0833981519152606482015290519081900360840190fd5b6040805160e260020a633982c50902815260048101839052905173__TypesConverter________________________9163e60b1424916024808301926020929190829003018186803b158015611ecd57600080fd5b505af4158015611ee1573d6000803e3d6000fd5b505050506040513d6020811015611ef757600080fd5b505160035550565b60035481565b601654600160a060020a031681565b828054600181600116156101000203166002900490600052602060002090601f016020900481019282601f10611f5557805160ff1916838001178555611f82565b82800160010185558215611f82579182015b82811115611f82578251825591602001919060010190611f67565b50611f8e929150611f92565b5090565b611fac91905b80821115611f8e5760008155600101611f98565b9056004d6574686f64732063616e206f6e6c792062652063616c6c65642062792070726f787920636f6e747261637420666f722072656d6f7465207365727669636573a165627a7a72305820d35e6db442b9c6f24be9cfe9a98f4e102abd55bf5a6bcf18c02f585078a2e5d20029",
  "source": "pragma solidity 0.4.24;\n\nimport \"./TypesConverter.sol\";\nimport \"../CrowdsaleDAOFields.sol\";\nimport \"../../Token/TokenInterface.sol\";\n\ncontract AllowedSetters is CrowdsaleDAOFields {\n        mapping(bytes32 => bytes32) public signatures;\n\n        constructor() {\n            signatures[\"setEtherRate\"] = \"setEtherRate(bytes32)\";\n            signatures[\"setDXCRate\"] = \"setDXCRate(bytes32)\";\n            signatures[\"setSoftCap\"] = \"setSoftCap(bytes32)\";\n            signatures[\"setHardCap\"] = \"setHardCap(bytes32)\";\n            signatures[\"setStartTime\"] = \"setStartTime(bytes32)\";\n            signatures[\"setEndTime\"] = \"setEndTime(bytes32)\";\n            signatures[\"setCanInitCrowdsale\"] = \"setCanInitCrowdsale(bytes32)\";\n            signatures[\"setCanInitState\"] = \"setCanInitState(bytes32)\";\n            signatures[\"setCanInitBonuses\"] = \"setCanInitBonuses(bytes32)\";\n            signatures[\"setNewEtherRate\"] = \"setNewEtherRate(bytes32)\";\n            signatures[\"newDXCRate\"] = \"newDXCRate(bytes32)\";\n            signatures[\"setToken\"] = \"setToken(bytes32)\";\n            signatures[\"setName\"] = \"setName(bytes32)\";\n            signatures[\"setDescription\"] = \"setDescription(bytes32)\";\n            signatures[\"setDxcPayments\"] = \"setDxcPayments(bytes32)\";\n            signatures[\"setLockup\"] = \"setLockup(bytes32)\";\n            signatures[\"setVotingPrice\"] = \"setVotingPrice(bytes32)\";\n        }\n\n        function setEtherRate(bytes32 _etherRate) external onlyServiceProxy {\n            etherRate = TypesConverter.bytes32ToUint(_etherRate);\n        }\n\n        function setDXCRate(bytes32 _DXCRate) external onlyServiceProxy {\n            DXCRate = TypesConverter.bytes32ToUint(_DXCRate);\n        }\n\n        function setSoftCap(bytes32 _softCap) external onlyServiceProxy {\n            softCap = TypesConverter.bytes32ToUint(_softCap);\n        }\n\n        function setHardCap(bytes32 _hardCap) external onlyServiceProxy {\n            hardCap = TypesConverter.bytes32ToUint(_hardCap);\n        }\n\n        function setStartTime(bytes32 _startTime) external onlyServiceProxy {\n            startTime = TypesConverter.bytes32ToUint(_startTime);\n        }\n\n        function setEndTime(bytes32 _endTime) external onlyServiceProxy {\n            endTime = TypesConverter.bytes32ToUint(_endTime);\n        }\n\n        function setCanInitCrowdsale(bytes32 _canInitCrowdsaleParameters) external onlyServiceProxy {\n            canInitCrowdsaleParameters = TypesConverter.bytes32ToBool(_canInitCrowdsaleParameters);\n        }\n\n        function setCanInitState(bytes32 _canInitStateParameters) external onlyServiceProxy {\n            canInitStateParameters = TypesConverter.bytes32ToBool(_canInitStateParameters);\n        }\n\n        function setCanInitBonuses(bytes32 _canInitBonuses) external onlyServiceProxy {\n            canInitBonuses = TypesConverter.bytes32ToBool(_canInitBonuses);\n        }\n\n        function setNewEtherRate(bytes32 _newEtherRate) external onlyServiceProxy {\n            newEtherRate = TypesConverter.bytes32ToUint(_newEtherRate);\n        }\n\n        function setNewDXCRate(bytes32 _newDXCRate) external onlyServiceProxy {\n            newDXCRate = TypesConverter.bytes32ToUint(_newDXCRate);\n        }\n\n        function setToken(bytes32 _token) external onlyServiceProxy {\n            token = TokenInterface(TypesConverter.bytes32ToAddress(_token));\n        }\n\n        function setName(bytes32 _name) external onlyServiceProxy {\n            name = TypesConverter.bytes32ToString(_name);\n        }\n\n        function setDescription(bytes32 _description) external onlyServiceProxy {\n            description = TypesConverter.bytes32ToString(_description);\n        }\n\n        function setDxcPayments(bytes32 _dxcPayments) external onlyServiceProxy {\n            dxcPayments = TypesConverter.bytes32ToBool(_dxcPayments);\n        }\n\n        function setLockup(bytes32 _lockup) external onlyServiceProxy {\n            lockup = TypesConverter.bytes32ToUint(_lockup);\n        }\n\n        event Bytes32(bytes32);\n        event Uint(uint);\n        event Address(address);\n        function setVotingPrice(bytes32 _votingPrice) external onlyServiceProxy {\n            votingPrice = TypesConverter.bytes32ToUint(_votingPrice);\n        }\n\n        modifier onlyServiceProxy() {\n            require(msg.sender == proxyAPI, \"Methods can only be called by proxy contract for remote services\");\n            _;\n        }\n}",
  "sourcePath": "/Users/giddeonwyeth/PhpstormProjects/dao/daox-contracts/contracts/DAO/API/AllowedSetters.sol",
  "compiler": {
    "name": "solc",
    "version": "0.4.24+commit.e67f0147.Emscripten.clang"
  },
  "schemaVersion": "2.0.1",
  "updatedAt": "2018-07-06T11:47:36.333Z"
}