{
  "contractName": "AllowedSetters",
  "abi": [
    {
      "constant": true,
      "inputs": [],
      "name": "lockup",
      "outputs": [
        {
          "name": "",
          "type": "uint256"
        }
      ],
      "payable": false,
      "stateMutability": "view",
      "type": "function"
    },
    {
      "constant": true,
      "inputs": [],
      "name": "name",
      "outputs": [
        {
          "name": "",
          "type": "string"
        }
      ],
      "payable": false,
      "stateMutability": "view",
      "type": "function"
    },
    {
      "constant": true,
      "inputs": [],
      "name": "tokensMintedByEther",
      "outputs": [
        {
          "name": "",
          "type": "uint256"
        }
      ],
      "payable": false,
      "stateMutability": "view",
      "type": "function"
    },
    {
      "constant": true,
      "inputs": [
        {
          "name": "",
          "type": "address"
        }
      ],
      "name": "teamMap",
      "outputs": [
        {
          "name": "",
          "type": "bool"
        }
      ],
      "payable": false,
      "stateMutability": "view",
      "type": "function"
    },
    {
      "constant": true,
      "inputs": [
        {
          "name": "",
          "type": "address"
        }
      ],
      "name": "depositedWei",
      "outputs": [
        {
          "name": "",
          "type": "uint256"
        }
      ],
      "payable": false,
      "stateMutability": "view",
      "type": "function"
    },
    {
      "constant": true,
      "inputs": [
        {
          "name": "",
          "type": "uint256"
        }
      ],
      "name": "team",
      "outputs": [
        {
          "name": "",
          "type": "address"
        }
      ],
      "payable": false,
      "stateMutability": "view",
      "type": "function"
    },
    {
      "constant": true,
      "inputs": [],
      "name": "commissionRaised",
      "outputs": [
        {
          "name": "",
          "type": "uint256"
        }
      ],
      "payable": false,
      "stateMutability": "view",
      "type": "function"
    },
    {
      "constant": true,
      "inputs": [
        {
          "name": "",
          "type": "bytes32"
        }
      ],
      "name": "signatures",
      "outputs": [
        {
          "name": "",
          "type": "bytes32"
        }
      ],
      "payable": false,
      "stateMutability": "view",
      "type": "function"
    },
    {
      "constant": true,
      "inputs": [],
      "name": "refundableSoftCap",
      "outputs": [
        {
          "name": "",
          "type": "bool"
        }
      ],
      "payable": false,
      "stateMutability": "view",
      "type": "function"
    },
    {
      "constant": true,
      "inputs": [],
      "name": "votingPrice",
      "outputs": [
        {
          "name": "",
          "type": "uint256"
        }
      ],
      "payable": false,
      "stateMutability": "view",
      "type": "function"
    },
    {
      "constant": true,
      "inputs": [
        {
          "name": "",
          "type": "uint256"
        }
      ],
      "name": "teamBonusesArr",
      "outputs": [
        {
          "name": "",
          "type": "uint256"
        }
      ],
      "payable": false,
      "stateMutability": "view",
      "type": "function"
    },
    {
      "constant": true,
      "inputs": [
        {
          "name": "",
          "type": "uint256"
        }
      ],
      "name": "teamServiceMember",
      "outputs": [
        {
          "name": "",
          "type": "bool"
        }
      ],
      "payable": false,
      "stateMutability": "view",
      "type": "function"
    },
    {
      "constant": true,
      "inputs": [],
      "name": "endTime",
      "outputs": [
        {
          "name": "",
          "type": "uint256"
        }
      ],
      "payable": false,
      "stateMutability": "view",
      "type": "function"
    },
    {
      "constant": true,
      "inputs": [],
      "name": "serviceContract",
      "outputs": [
        {
          "name": "",
          "type": "address"
        }
      ],
      "payable": false,
      "stateMutability": "view",
      "type": "function"
    },
    {
      "constant": true,
      "inputs": [
        {
          "name": "",
          "type": "address"
        }
      ],
      "name": "votings",
      "outputs": [
        {
          "name": "",
          "type": "address"
        }
      ],
      "payable": false,
      "stateMutability": "view",
      "type": "function"
    },
    {
      "constant": true,
      "inputs": [
        {
          "name": "",
          "type": "address"
        }
      ],
      "name": "whiteList",
      "outputs": [
        {
          "name": "",
          "type": "bool"
        }
      ],
      "payable": false,
      "stateMutability": "view",
      "type": "function"
    },
    {
      "constant": true,
      "inputs": [],
      "name": "canInitStateParameters",
      "outputs": [
        {
          "name": "",
          "type": "bool"
        }
      ],
      "payable": false,
      "stateMutability": "view",
      "type": "function"
    },
    {
      "constant": true,
      "inputs": [
        {
          "name": "",
          "type": "uint256"
        }
      ],
      "name": "whiteListArr",
      "outputs": [
        {
          "name": "",
          "type": "address"
        }
      ],
      "payable": false,
      "stateMutability": "view",
      "type": "function"
    },
    {
      "constant": true,
      "inputs": [],
      "name": "weiRaised",
      "outputs": [
        {
          "name": "",
          "type": "uint256"
        }
      ],
      "payable": false,
      "stateMutability": "view",
      "type": "function"
    },
    {
      "constant": true,
      "inputs": [],
      "name": "DXCRaised",
      "outputs": [
        {
          "name": "",
          "type": "uint256"
        }
      ],
      "payable": false,
      "stateMutability": "view",
      "type": "function"
    },
    {
      "constant": true,
      "inputs": [],
      "name": "version",
      "outputs": [
        {
          "name": "",
          "type": "bytes32"
        }
      ],
      "payable": false,
      "stateMutability": "view",
      "type": "function"
    },
    {
      "constant": true,
      "inputs": [
        {
          "name": "",
          "type": "uint256"
        }
      ],
      "name": "bonusDXCRates",
      "outputs": [
        {
          "name": "",
          "type": "uint256"
        }
      ],
      "payable": false,
      "stateMutability": "view",
      "type": "function"
    },
    {
      "constant": true,
      "inputs": [],
      "name": "canSetWhiteList",
      "outputs": [
        {
          "name": "",
          "type": "bool"
        }
      ],
      "payable": false,
      "stateMutability": "view",
      "type": "function"
    },
    {
      "constant": true,
      "inputs": [],
      "name": "initialCapital",
      "outputs": [
        {
          "name": "",
          "type": "uint256"
        }
      ],
      "payable": false,
      "stateMutability": "view",
      "type": "function"
    },
    {
      "constant": true,
      "inputs": [],
      "name": "serviceVotingFactory",
      "outputs": [
        {
          "name": "",
          "type": "address"
        }
      ],
      "payable": false,
      "stateMutability": "view",
      "type": "function"
    },
    {
      "constant": true,
      "inputs": [],
      "name": "tokensMintedByDXC",
      "outputs": [
        {
          "name": "",
          "type": "uint256"
        }
      ],
      "payable": false,
      "stateMutability": "view",
      "type": "function"
    },
    {
      "constant": true,
      "inputs": [],
      "name": "fundsRaised",
      "outputs": [
        {
          "name": "",
          "type": "uint256"
        }
      ],
      "payable": false,
      "stateMutability": "view",
      "type": "function"
    },
    {
      "constant": true,
      "inputs": [
        {
          "name": "",
          "type": "uint256"
        }
      ],
      "name": "teamHold",
      "outputs": [
        {
          "name": "",
          "type": "uint256"
        }
      ],
      "payable": false,
      "stateMutability": "view",
      "type": "function"
    },
    {
      "constant": true,
      "inputs": [
        {
          "name": "",
          "type": "address"
        }
      ],
      "name": "services",
      "outputs": [
        {
          "name": "",
          "type": "bool"
        }
      ],
      "payable": false,
      "stateMutability": "view",
      "type": "function"
    },
    {
      "constant": true,
      "inputs": [],
      "name": "description",
      "outputs": [
        {
          "name": "",
          "type": "string"
        }
      ],
      "payable": false,
      "stateMutability": "view",
      "type": "function"
    },
    {
      "constant": true,
      "inputs": [],
      "name": "startTime",
      "outputs": [
        {
          "name": "",
          "type": "uint256"
        }
      ],
      "payable": false,
      "stateMutability": "view",
      "type": "function"
    },
    {
      "constant": true,
      "inputs": [
        {
          "name": "",
          "type": "address"
        }
      ],
      "name": "depositedDXC",
      "outputs": [
        {
          "name": "",
          "type": "uint256"
        }
      ],
      "payable": false,
      "stateMutability": "view",
      "type": "function"
    },
    {
      "constant": true,
      "inputs": [],
      "name": "softCap",
      "outputs": [
        {
          "name": "",
          "type": "uint256"
        }
      ],
      "payable": false,
      "stateMutability": "view",
      "type": "function"
    },
    {
      "constant": true,
      "inputs": [],
      "name": "DXC",
      "outputs": [
        {
          "name": "",
          "type": "address"
        }
      ],
      "payable": false,
      "stateMutability": "view",
      "type": "function"
    },
    {
      "constant": true,
      "inputs": [],
      "name": "canInitCrowdsaleParameters",
      "outputs": [
        {
          "name": "",
          "type": "bool"
        }
      ],
      "payable": false,
      "stateMutability": "view",
      "type": "function"
    },
    {
      "constant": true,
      "inputs": [],
      "name": "created_at",
      "outputs": [
        {
          "name": "",
          "type": "uint256"
        }
      ],
      "payable": false,
      "stateMutability": "view",
      "type": "function"
    },
    {
      "constant": true,
      "inputs": [],
      "name": "DXCRate",
      "outputs": [
        {
          "name": "",
          "type": "uint256"
        }
      ],
      "payable": false,
      "stateMutability": "view",
      "type": "function"
    },
    {
      "constant": true,
      "inputs": [],
      "name": "lastWithdrawalTimestamp",
      "outputs": [
        {
          "name": "",
          "type": "uint256"
        }
      ],
      "payable": false,
      "stateMutability": "view",
      "type": "function"
    },
    {
      "constant": true,
      "inputs": [],
      "name": "teamTokensAmount",
      "outputs": [
        {
          "name": "",
          "type": "uint256"
        }
      ],
      "payable": false,
      "stateMutability": "view",
      "type": "function"
    },
    {
      "constant": true,
      "inputs": [],
      "name": "votingFactory",
      "outputs": [
        {
          "name": "",
          "type": "address"
        }
      ],
      "payable": false,
      "stateMutability": "view",
      "type": "function"
    },
    {
      "constant": true,
      "inputs": [],
      "name": "refundable",
      "outputs": [
        {
          "name": "",
          "type": "bool"
        }
      ],
      "payable": false,
      "stateMutability": "view",
      "type": "function"
    },
    {
      "constant": true,
      "inputs": [],
      "name": "canInitBonuses",
      "outputs": [
        {
          "name": "",
          "type": "bool"
        }
      ],
      "payable": false,
      "stateMutability": "view",
      "type": "function"
    },
    {
      "constant": true,
      "inputs": [],
      "name": "newDXCRate",
      "outputs": [
        {
          "name": "",
          "type": "uint256"
        }
      ],
      "payable": false,
      "stateMutability": "view",
      "type": "function"
    },
    {
      "constant": true,
      "inputs": [
        {
          "name": "",
          "type": "address"
        }
      ],
      "name": "initialCapitalIncr",
      "outputs": [
        {
          "name": "",
          "type": "uint256"
        }
      ],
      "payable": false,
      "stateMutability": "view",
      "type": "function"
    },
    {
      "constant": true,
      "inputs": [],
      "name": "etherRate",
      "outputs": [
        {
          "name": "",
          "type": "uint256"
        }
      ],
      "payable": false,
      "stateMutability": "view",
      "type": "function"
    },
    {
      "constant": true,
      "inputs": [
        {
          "name": "",
          "type": "uint256"
        }
      ],
      "name": "bonusEtherRates",
      "outputs": [
        {
          "name": "",
          "type": "uint256"
        }
      ],
      "payable": false,
      "stateMutability": "view",
      "type": "function"
    },
    {
      "constant": true,
      "inputs": [],
      "name": "commissionContract",
      "outputs": [
        {
          "name": "",
          "type": "address"
        }
      ],
      "payable": false,
      "stateMutability": "view",
      "type": "function"
    },
    {
      "constant": true,
      "inputs": [
        {
          "name": "",
          "type": "address"
        }
      ],
      "name": "teamBonuses",
      "outputs": [
        {
          "name": "",
          "type": "uint256"
        }
      ],
      "payable": false,
      "stateMutability": "view",
      "type": "function"
    },
    {
      "constant": true,
      "inputs": [],
      "name": "newEtherRate",
      "outputs": [
        {
          "name": "",
          "type": "uint256"
        }
      ],
      "payable": false,
      "stateMutability": "view",
      "type": "function"
    },
    {
      "constant": true,
      "inputs": [],
      "name": "proxyAPI",
      "outputs": [
        {
          "name": "",
          "type": "address"
        }
      ],
      "payable": false,
      "stateMutability": "view",
      "type": "function"
    },
    {
      "constant": true,
      "inputs": [],
      "name": "dxcPayments",
      "outputs": [
        {
          "name": "",
          "type": "bool"
        }
      ],
      "payable": false,
      "stateMutability": "view",
      "type": "function"
    },
    {
      "constant": true,
      "inputs": [
        {
          "name": "",
          "type": "uint256"
        }
      ],
      "name": "bonusPeriods",
      "outputs": [
        {
          "name": "",
          "type": "uint256"
        }
      ],
      "payable": false,
      "stateMutability": "view",
      "type": "function"
    },
    {
      "constant": true,
      "inputs": [],
      "name": "crowdsaleFinished",
      "outputs": [
        {
          "name": "",
          "type": "bool"
        }
      ],
      "payable": false,
      "stateMutability": "view",
      "type": "function"
    },
    {
      "constant": true,
      "inputs": [],
      "name": "hardCap",
      "outputs": [
        {
          "name": "",
          "type": "uint256"
        }
      ],
      "payable": false,
      "stateMutability": "view",
      "type": "function"
    },
    {
      "constant": true,
      "inputs": [],
      "name": "token",
      "outputs": [
        {
          "name": "",
          "type": "address"
        }
      ],
      "payable": false,
      "stateMutability": "view",
      "type": "function"
    },
    {
      "inputs": [],
      "payable": false,
      "stateMutability": "nonpayable",
      "type": "constructor"
    },
    {
      "constant": false,
      "inputs": [
        {
          "name": "_etherRate",
          "type": "bytes32"
        }
      ],
      "name": "setEtherRate",
      "outputs": [],
      "payable": false,
      "stateMutability": "nonpayable",
      "type": "function"
    },
    {
      "constant": false,
      "inputs": [
        {
          "name": "_DXCRate",
          "type": "bytes32"
        }
      ],
      "name": "setDXCRate",
      "outputs": [],
      "payable": false,
      "stateMutability": "nonpayable",
      "type": "function"
    },
    {
      "constant": false,
      "inputs": [
        {
          "name": "_softCap",
          "type": "bytes32"
        }
      ],
      "name": "setSoftCap",
      "outputs": [],
      "payable": false,
      "stateMutability": "nonpayable",
      "type": "function"
    },
    {
      "constant": false,
      "inputs": [
        {
          "name": "_hardCap",
          "type": "bytes32"
        }
      ],
      "name": "setHardCap",
      "outputs": [],
      "payable": false,
      "stateMutability": "nonpayable",
      "type": "function"
    },
    {
      "constant": false,
      "inputs": [
        {
          "name": "_startTime",
          "type": "bytes32"
        }
      ],
      "name": "setStartTime",
      "outputs": [],
      "payable": false,
      "stateMutability": "nonpayable",
      "type": "function"
    },
    {
      "constant": false,
      "inputs": [
        {
          "name": "_endTime",
          "type": "bytes32"
        }
      ],
      "name": "setEndTime",
      "outputs": [],
      "payable": false,
      "stateMutability": "nonpayable",
      "type": "function"
    },
    {
      "constant": false,
      "inputs": [
        {
          "name": "_canInitCrowdsaleParameters",
          "type": "bytes32"
        }
      ],
      "name": "setCanInitCrowdsale",
      "outputs": [],
      "payable": false,
      "stateMutability": "nonpayable",
      "type": "function"
    },
    {
      "constant": false,
      "inputs": [
        {
          "name": "_canInitStateParameters",
          "type": "bytes32"
        }
      ],
      "name": "setCanInitState",
      "outputs": [],
      "payable": false,
      "stateMutability": "nonpayable",
      "type": "function"
    },
    {
      "constant": false,
      "inputs": [
        {
          "name": "_canInitBonuses",
          "type": "bytes32"
        }
      ],
      "name": "setCanInitBonuses",
      "outputs": [],
      "payable": false,
      "stateMutability": "nonpayable",
      "type": "function"
    },
    {
      "constant": false,
      "inputs": [
        {
          "name": "_newEtherRate",
          "type": "bytes32"
        }
      ],
      "name": "setNewEtherRate",
      "outputs": [],
      "payable": false,
      "stateMutability": "nonpayable",
      "type": "function"
    },
    {
      "constant": false,
      "inputs": [
        {
          "name": "_newDXCRate",
          "type": "bytes32"
        }
      ],
      "name": "setNewDXCRate",
      "outputs": [],
      "payable": false,
      "stateMutability": "nonpayable",
      "type": "function"
    },
    {
      "constant": false,
      "inputs": [
        {
          "name": "_token",
          "type": "bytes32"
        }
      ],
      "name": "setToken",
      "outputs": [],
      "payable": false,
      "stateMutability": "nonpayable",
      "type": "function"
    },
    {
      "constant": false,
      "inputs": [
        {
          "name": "_name",
          "type": "bytes32"
        }
      ],
      "name": "setName",
      "outputs": [],
      "payable": false,
      "stateMutability": "nonpayable",
      "type": "function"
    },
    {
      "constant": false,
      "inputs": [
        {
          "name": "_description",
          "type": "bytes32"
        }
      ],
      "name": "setDescription",
      "outputs": [],
      "payable": false,
      "stateMutability": "nonpayable",
      "type": "function"
    },
    {
      "constant": false,
      "inputs": [
        {
          "name": "_dxcPayments",
          "type": "bytes32"
        }
      ],
      "name": "setDxcPayments",
      "outputs": [],
      "payable": false,
      "stateMutability": "nonpayable",
      "type": "function"
    },
    {
      "constant": false,
      "inputs": [
        {
          "name": "_lockup",
          "type": "bytes32"
        }
      ],
      "name": "setLockup",
      "outputs": [],
      "payable": false,
      "stateMutability": "nonpayable",
      "type": "function"
    },
    {
      "constant": false,
      "inputs": [
        {
          "name": "_votingPrice",
          "type": "bytes32"
        }
      ],
      "name": "setVotingPrice",
      "outputs": [],
      "payable": false,
      "stateMutability": "nonpayable",
      "type": "function"
    }
  ],
  "bytecode": "0x60806040526006805463ff0000001962ff00001961ff001960ff19938416600117811661010017919091166201000017919091166301000000179092556000600781905560088190556009819055600a819055600d8054909316909255600e829055600f82905542601c55601e80549091169055601f819055602b819055602c819055602d5534801561009157600080fd5b5060316020527f73657445746865725261746528627974657333322900000000000000000000007f779c011e625466e57bda13107dbaddab53da3459d200059237a1918e8e582355557f73657444584352617465286279746573333229000000000000000000000000007f937324e224f12f92462c5dc3d00cb177d33e69c95fcc54649c65906e982a7ae6557f736574536f6674436170286279746573333229000000000000000000000000007f5c0a7a5d5d38f99257d3e72c85eae26c0a9f428f73b70d0b27922e327e49de52557f73657448617264436170286279746573333229000000000000000000000000007f7e3fa9d19b3fcbad2d417692eba56728103cf5abecf238baeb4e025c987ab98b557f736574537461727454696d6528627974657333322900000000000000000000007f028cdf3eaf075e0d9005f8739b888243e8c1e9b2fb41fc5d9e3acf9e3003ec98557f736574456e6454696d65286279746573333229000000000000000000000000007fe26c9857f83ec3041ab4f3041414697c29188f79637612919ad667f0e50b68f8557f73657443616e496e697443726f776473616c65286279746573333229000000007f08a40a5b2160ad82f41ed92ddf8a44d32de2e78fdd84cb47d8090ffaaa803027557f73657443616e496e6974537461746528627974657333322900000000000000007f7b9bfb78f8bb66768b835ae9dd72e0cacdd486b4563098aef607f1e9b147313e557f73657443616e496e6974426f6e757365732862797465733332290000000000007fb93dbcbc08184f9d3b37c3ceb4405be52d52d04f4122d12e00f05bd693713b4c557f7365744e657745746865725261746528627974657333322900000000000000007fdf64cfbb4ab286cc604740c8ba569ee580568bd3134316df7c26b32105fe447b557f6e657744584352617465286279746573333229000000000000000000000000007fa418fb6d6163085f945d33fa31df97530ba605621a0ecdd522c7a639ad24ccc8557f736574546f6b656e2862797465733332290000000000000000000000000000007f748520ba550e2766e57fbce5aa359aed8f24619c0939f1f98f028c48a083e24d557f7365744e616d65286279746573333229000000000000000000000000000000007fb373fe6f66f6754bc204f773d1919ed6028961e4e71ae05f8a76a3463f0418a4557f7365744465736372697074696f6e2862797465733332290000000000000000007f604a6eb61740857aa04e1ee66b36c451aa5b70d6c3be817f7687c0982ac3a378557f7365744478635061796d656e74732862797465733332290000000000000000007f8150a3a452ce618ca3fb1badae3992ea854901510fefba2efe71cb919aefc199557f7365744c6f636b757028627974657333322900000000000000000000000000007f49530f5a8ca7d5e73c4087595054d2df65f5c76f4218317f8cef7256c8897b22557f736574566f74696e6750726963650000000000000000000000000000000000006000527f736574566f74696e6750726963652862797465733332290000000000000000007fcdfa17dbfe89b3002ff642be12e083e58b6124e97d527d7c9f6c58dd4111e7ad5561208c8061053d6000396000f30060806040526004361061034d5763ffffffff7c010000000000000000000000000000000000000000000000000000000060003504166304220ea5811461035257806306490f471461036c57806306fdde03146103935780630ce57c251461041d57806310be8d12146104325780631233799314610467578063197ebd53146104885780631e782df5146104bc57806322548bf3146104d15780632422224e146104e957806325e4177714610501578063289a03b0146105195780632948b4e91461052e5780632eeacc5f1461054357806330c5a0f21461055b5780633197cbb614610573578063364dab1014610588578063369ef7221461059d578063372c12b1146105be578063379856fa146105df578063395ad021146105f75780633b541bdb1461060c5780634042b66f146106245780634f0653681461063957806354fd4d501461064e57806356428fe5146106635780635ac801fe1461067b5780635f30b64514610693578063601e538b146106a857806362a2b372146106bd57806362c64639146106d25780636681b9fd146106e75780636922b214146106fc5780636d966d01146107145780637284e4161461073557806378e979251461074a5780637d6d3b8c1461075f57806389f5df5d14610780578063906a26e01461079857806390836822146107ad5780639b35e635146107c25780639b95a835146107da5780639c6f0d85146107ef5780639e58779e14610804578063a62c416914610819578063a88f893a1461082e578063aa455be414610843578063ae0a46b01461085b578063bb24c54b14610873578063bf89662d14610888578063c0ef7a6d1461089d578063c18f18e8146108b2578063c4ba7f94146108c7578063cc9e4fd4146108df578063cdb1d41b14610900578063d0f7a60114610918578063da7801b31461092d578063da8909e514610945578063db13c7251461095a578063dc976dbf1461097b578063dcd0f0f614610993578063e2278f2f146109ab578063e2a7937b146109c0578063e3bd043a146109d5578063e8ca57bd146109ea578063e9fdfb8914610a02578063eaf81f8f14610a1a578063ece84fd514610a32578063f1c69a6514610a47578063fa21fc2014610a5f578063fb86a40414610a77578063fc0c546a14610a8c575b600080fd5b34801561035e57600080fd5b5061036a600435610aa1565b005b34801561037857600080fd5b50610381610b8c565b60408051918252519081900360200190f35b34801561039f57600080fd5b506103a8610b92565b6040805160208082528351818301528351919283929083019185019080838360005b838110156103e25781810151838201526020016103ca565b50505050905090810190601f16801561040f5780820380516001836020036101000a031916815260200191505b509250505060405180910390f35b34801561042957600080fd5b50610381610c20565b34801561043e57600080fd5b50610453600160a060020a0360043516610c26565b604080519115158252519081900360200190f35b34801561047357600080fd5b50610381600160a060020a0360043516610c3b565b34801561049457600080fd5b506104a0600435610c4d565b60408051600160a060020a039092168252519081900360200190f35b3480156104c857600080fd5b50610381610c75565b3480156104dd57600080fd5b5061036a600435610c7b565b3480156104f557600080fd5b50610381600435610d66565b34801561050d57600080fd5b5061036a600435610d78565b34801561052557600080fd5b50610453610e71565b34801561053a57600080fd5b50610381610e7f565b34801561054f57600080fd5b50610381600435610e85565b34801561056757600080fd5b50610453600435610ea4565b34801561057f57600080fd5b50610381610ed6565b34801561059457600080fd5b506104a0610edc565b3480156105a957600080fd5b506104a0600160a060020a0360043516610eeb565b3480156105ca57600080fd5b50610453600160a060020a0360043516610f06565b3480156105eb57600080fd5b5061036a600435610f1b565b34801561060357600080fd5b50610453611006565b34801561061857600080fd5b506104a0600435611014565b34801561063057600080fd5b50610381611022565b34801561064557600080fd5b50610381611028565b34801561065a57600080fd5b5061038161102e565b34801561066f57600080fd5b50610381600435611052565b34801561068757600080fd5b5061036a600435611060565b34801561069f57600080fd5b506104536111ce565b3480156106b457600080fd5b506103816111de565b3480156106c957600080fd5b506104a06111e4565b3480156106de57600080fd5b506103816111f3565b3480156106f357600080fd5b506103816111f9565b34801561070857600080fd5b506103816004356111ff565b34801561072057600080fd5b50610453600160a060020a036004351661120d565b34801561074157600080fd5b506103a8611222565b34801561075657600080fd5b5061038161127d565b34801561076b57600080fd5b50610381600160a060020a0360043516611283565b34801561078c57600080fd5b5061036a600435611295565b3480156107a457600080fd5b506103816113ff565b3480156107b957600080fd5b506104a0611405565b3480156107ce57600080fd5b5061036a600435611414565b3480156107e657600080fd5b506104536114ff565b3480156107fb57600080fd5b50610381611508565b34801561081057600080fd5b5061038161150e565b34801561082557600080fd5b50610381611514565b34801561083a57600080fd5b5061038161151a565b34801561084f57600080fd5b5061036a600435611520565b34801561086757600080fd5b5061036a60043561160b565b34801561087f57600080fd5b506104a06116f6565b34801561089457600080fd5b50610453611705565b3480156108a957600080fd5b5061045361170e565b3480156108be57600080fd5b5061038161171d565b3480156108d357600080fd5b5061036a600435611723565b3480156108eb57600080fd5b50610381600160a060020a036004351661181c565b34801561090c57600080fd5b5061036a60043561182e565b34801561092457600080fd5b5061038161192e565b34801561093957600080fd5b50610381600435611934565b34801561095157600080fd5b506104a0611942565b34801561096657600080fd5b50610381600160a060020a0360043516611951565b34801561098757600080fd5b5061036a600435611963565b34801561099f57600080fd5b5061036a600435611a8d565b3480156109b757600080fd5b50610381611b78565b3480156109cc57600080fd5b506104a0611b7e565b3480156109e157600080fd5b50610453611b8d565b3480156109f657600080fd5b5061036a600435611b96565b348015610a0e57600080fd5b50610381600435611c98565b348015610a2657600080fd5b5061036a600435611ca6565b348015610a3e57600080fd5b50610453611d91565b348015610a5357600080fd5b5061036a600435611d9a565b348015610a6b57600080fd5b5061036a600435611e85565b348015610a8357600080fd5b50610381611f70565b348015610a9857600080fd5b506104a0611f76565b602f54600160a060020a03163314610b05576040805160e560020a62461bcd02815260206004820152602481018290526000805160206120218339815191526044820152600080516020612041833981519152606482015290519081900360840190fd5b6040805160e260020a633982c50902815260048101839052905173__TypesConverter________________________9163e60b1424916024808301926020929190829003018186803b158015610b5a57600080fd5b505af4158015610b6e573d6000803e3d6000fd5b505050506040513d6020811015610b8457600080fd5b505160015550565b602b5481565b601a805460408051602060026001851615610100026000190190941693909304601f81018490048402820184019092528181529291830182828015610c185780601f10610bed57610100808354040283529160200191610c18565b820191906000526020600020905b815481529060010190602001808311610bfb57829003601f168201915b505050505081565b60285481565b60136020526000908152604090205460ff1681565b600b6020526000908152604090205481565b6012805482908110610c5b57fe5b600091825260209091200154600160a060020a0316905081565b60075481565b602f54600160a060020a03163314610cdf576040805160e560020a62461bcd02815260206004820152602481018290526000805160206120218339815191526044820152600080516020612041833981519152606482015290519081900360840190fd5b6040805160e260020a633982c50902815260048101839052905173__TypesConverter________________________9163e60b1424916024808301926020929190829003018186803b158015610d3457600080fd5b505af4158015610d48573d6000803e3d6000fd5b505050506040513d6020811015610d5e57600080fd5b505160045550565b60316020526000908152604090205481565b602f54600160a060020a03163314610ddc576040805160e560020a62461bcd02815260206004820152602481018290526000805160206120218339815191526044820152600080516020612041833981519152606482015290519081900360840190fd5b6040805160e060020a63f7302d7b02815260048101839052905173__TypesConverter________________________9163f7302d7b916024808301926020929190829003018186803b158015610e3157600080fd5b505af4158015610e45573d6000803e3d6000fd5b505050506040513d6020811015610e5b57600080fd5b50516006805460ff191691151591909117905550565b600d54610100900460ff1681565b602d5481565b6011805482908110610e9357fe5b600091825260209091200154905081565b6015805482908110610eb257fe5b9060005260206000209060209182820401919006915054906101000a900460ff1681565b60055481565b601054600160a060020a031681565b601d60205260009081526040902054600160a060020a031681565b60216020526000908152604090205460ff1681565b602f54600160a060020a03163314610f7f576040805160e560020a62461bcd02815260206004820152602481018290526000805160206120218339815191526044820152600080516020612041833981519152606482015290519081900360840190fd5b6040805160e260020a633982c50902815260048101839052905173__TypesConverter________________________9163e60b1424916024808301926020929190829003018186803b158015610fd457600080fd5b505af4158015610fe8573d6000803e3d6000fd5b505050506040513d6020811015610ffe57600080fd5b505160005550565b600654610100900460ff1681565b6020805482908110610c5b57fe5b60085481565b60095481565b7f312e302e3000000000000000000000000000000000000000000000000000000081565b6025805482908110610e9357fe5b602f54600160a060020a031633146110c4576040805160e560020a62461bcd02815260206004820152602481018290526000805160206120218339815191526044820152600080516020612041833981519152606482015290519081900360840190fd5b604080517f9201de5500000000000000000000000000000000000000000000000000000000815260048101839052905173__TypesConverter________________________91639201de55916024808301926000929190829003018186803b15801561112f57600080fd5b505af4158015611143573d6000803e3d6000fd5b505050506040513d6000823e601f3d908101601f19168201604052602081101561116c57600080fd5b81019080805164010000000081111561118457600080fd5b8201602081018481111561119757600080fd5b81516401000000008111828201871017156111b157600080fd5b505080516111ca9450601a935060209091019150611f85565b5050565b6006546301000000900460ff1681565b602c5481565b601854600160a060020a031681565b60295481565b600a5481565b6014805482908110610e9357fe5b60306020526000908152604090205460ff1681565b601b805460408051602060026001851615610100026000190190941693909304601f81018490048402820184019092528181529291830182828015610c185780601f10610bed57610100808354040283529160200191610c18565b60045481565b600c6020526000908152604090205481565b602f54600160a060020a031633146112f9576040805160e560020a62461bcd02815260206004820152602481018290526000805160206120218339815191526044820152600080516020612041833981519152606482015290519081900360840190fd5b604080517f9201de5500000000000000000000000000000000000000000000000000000000815260048101839052905173__TypesConverter________________________91639201de55916024808301926000929190829003018186803b15801561136457600080fd5b505af4158015611378573d6000803e3d6000fd5b505050506040513d6000823e601f3d908101601f1916820160405260208110156113a157600080fd5b8101908080516401000000008111156113b957600080fd5b820160208101848111156113cc57600080fd5b81516401000000008111828201871017156113e657600080fd5b505080516111ca9450601b935060209091019150611f85565b60025481565b602754600160a060020a031681565b602f54600160a060020a03163314611478576040805160e560020a62461bcd02815260206004820152602481018290526000805160206120218339815191526044820152600080516020612041833981519152606482015290519081900360840190fd5b6040805160e260020a633982c50902815260048101839052905173__TypesConverter________________________9163e60b1424916024808301926020929190829003018186803b1580156114cd57600080fd5b505af41580156114e1573d6000803e3d6000fd5b505050506040513d60208110156114f757600080fd5b5051602d5550565b60065460ff1681565b601c5481565b60015481565b601f5481565b60265481565b602f54600160a060020a03163314611584576040805160e560020a62461bcd02815260206004820152602481018290526000805160206120218339815191526044820152600080516020612041833981519152606482015290519081900360840190fd5b6040805160e260020a633982c50902815260048101839052905173__TypesConverter________________________9163e60b1424916024808301926020929190829003018186803b1580156115d957600080fd5b505af41580156115ed573d6000803e3d6000fd5b505050506040513d602081101561160357600080fd5b5051602b5550565b602f54600160a060020a0316331461166f576040805160e560020a62461bcd02815260206004820152602481018290526000805160206120218339815191526044820152600080516020612041833981519152606482015290519081900360840190fd5b6040805160e260020a633982c50902815260048101839052905173__TypesConverter________________________9163e60b1424916024808301926020929190829003018186803b1580156116c457600080fd5b505af41580156116d8573d6000803e3d6000fd5b505050506040513d60208110156116ee57600080fd5b5051600e5550565b601754600160a060020a031681565b601e5460ff1681565b60065462010000900460ff1681565b600f5481565b602f54600160a060020a03163314611787576040805160e560020a62461bcd02815260206004820152602481018290526000805160206120218339815191526044820152600080516020612041833981519152606482015290519081900360840190fd5b6040805160e060020a63f7302d7b02815260048101839052905173__TypesConverter________________________9163f7302d7b916024808301926020929190829003018186803b1580156117dc57600080fd5b505af41580156117f0573d6000803e3d6000fd5b505050506040513d602081101561180657600080fd5b5051602a805460ff191691151591909117905550565b602e6020526000908152604090205481565b602f54600160a060020a03163314611892576040805160e560020a62461bcd02815260206004820152602481018290526000805160206120218339815191526044820152600080516020612041833981519152606482015290519081900360840190fd5b6040805160e060020a63f7302d7b02815260048101839052905173__TypesConverter________________________9163f7302d7b916024808301926020929190829003018186803b1580156118e757600080fd5b505af41580156118fb573d6000803e3d6000fd5b505050506040513d602081101561191157600080fd5b5051600680549115156101000261ff001990921691909117905550565b60005481565b6024805482908110610e9357fe5b601954600160a060020a031681565b60226020526000908152604090205481565b602f54600160a060020a031633146119c7576040805160e560020a62461bcd02815260206004820152602481018290526000805160206120218339815191526044820152600080516020612041833981519152606482015290519081900360840190fd5b604080517f5ced058e00000000000000000000000000000000000000000000000000000000815260048101839052905173__TypesConverter________________________91635ced058e916024808301926020929190829003018186803b158015611a3257600080fd5b505af4158015611a46573d6000803e3d6000fd5b505050506040513d6020811015611a5c57600080fd5b50516016805473ffffffffffffffffffffffffffffffffffffffff1916600160a060020a0390921691909117905550565b602f54600160a060020a03163314611af1576040805160e560020a62461bcd02815260206004820152602481018290526000805160206120218339815191526044820152600080516020612041833981519152606482015290519081900360840190fd5b6040805160e260020a633982c50902815260048101839052905173__TypesConverter________________________9163e60b1424916024808301926020929190829003018186803b158015611b4657600080fd5b505af4158015611b5a573d6000803e3d6000fd5b505050506040513d6020811015611b7057600080fd5b5051600f5550565b600e5481565b602f54600160a060020a031681565b602a5460ff1681565b602f54600160a060020a03163314611bfa576040805160e560020a62461bcd02815260206004820152602481018290526000805160206120218339815191526044820152600080516020612041833981519152606482015290519081900360840190fd5b6040805160e060020a63f7302d7b02815260048101839052905173__TypesConverter________________________9163f7302d7b916024808301926020929190829003018186803b158015611c4f57600080fd5b505af4158015611c63573d6000803e3d6000fd5b505050506040513d6020811015611c7957600080fd5b505160068054911515620100000262ff00001990921691909117905550565b6023805482908110610e9357fe5b602f54600160a060020a03163314611d0a576040805160e560020a62461bcd02815260206004820152602481018290526000805160206120218339815191526044820152600080516020612041833981519152606482015290519081900360840190fd5b6040805160e260020a633982c50902815260048101839052905173__TypesConverter________________________9163e60b1424916024808301926020929190829003018186803b158015611d5f57600080fd5b505af4158015611d73573d6000803e3d6000fd5b505050506040513d6020811015611d8957600080fd5b505160025550565b600d5460ff1681565b602f54600160a060020a03163314611dfe576040805160e560020a62461bcd02815260206004820152602481018290526000805160206120218339815191526044820152600080516020612041833981519152606482015290519081900360840190fd5b6040805160e260020a633982c50902815260048101839052905173__TypesConverter________________________9163e60b1424916024808301926020929190829003018186803b158015611e5357600080fd5b505af4158015611e67573d6000803e3d6000fd5b505050506040513d6020811015611e7d57600080fd5b505160055550565b602f54600160a060020a03163314611ee9576040805160e560020a62461bcd02815260206004820152602481018290526000805160206120218339815191526044820152600080516020612041833981519152606482015290519081900360840190fd5b6040805160e260020a633982c50902815260048101839052905173__TypesConverter________________________9163e60b1424916024808301926020929190829003018186803b158015611f3e57600080fd5b505af4158015611f52573d6000803e3d6000fd5b505050506040513d6020811015611f6857600080fd5b505160035550565b60035481565b601654600160a060020a031681565b828054600181600116156101000203166002900490600052602060002090601f016020900481019282601f10611fc657805160ff1916838001178555611ff3565b82800160010185558215611ff3579182015b82811115611ff3578251825591602001919060010190611fd8565b50611fff929150612003565b5090565b61201d91905b80821115611fff5760008155600101612009565b9056004d6574686f64732063616e206f6e6c792062652063616c6c65642062792070726f787920636f6e747261637420666f722072656d6f7465207365727669636573a165627a7a72305820c8c738024738715adf8c614fc069196cf56408225a4dcc95c9e34f61bbced5730029",
  "source": "pragma solidity 0.4.24;\n\nimport \"./TypesConverter.sol\";\nimport \"../CrowdsaleDAOFields.sol\";\nimport \"../../Token/TokenInterface.sol\";\n\ncontract AllowedSetters is CrowdsaleDAOFields {\n        mapping(bytes32 => bytes32) public signatures;\n\n        constructor() {\n            signatures[\"setEtherRate\"] = \"setEtherRate(bytes32)\";\n            signatures[\"setDXCRate\"] = \"setDXCRate(bytes32)\";\n            signatures[\"setSoftCap\"] = \"setSoftCap(bytes32)\";\n            signatures[\"setHardCap\"] = \"setHardCap(bytes32)\";\n            signatures[\"setStartTime\"] = \"setStartTime(bytes32)\";\n            signatures[\"setEndTime\"] = \"setEndTime(bytes32)\";\n            signatures[\"setCanInitCrowdsale\"] = \"setCanInitCrowdsale(bytes32)\";\n            signatures[\"setCanInitState\"] = \"setCanInitState(bytes32)\";\n            signatures[\"setCanInitBonuses\"] = \"setCanInitBonuses(bytes32)\";\n            signatures[\"setNewEtherRate\"] = \"setNewEtherRate(bytes32)\";\n            signatures[\"newDXCRate\"] = \"newDXCRate(bytes32)\";\n            signatures[\"setToken\"] = \"setToken(bytes32)\";\n            signatures[\"setName\"] = \"setName(bytes32)\";\n            signatures[\"setDescription\"] = \"setDescription(bytes32)\";\n            signatures[\"setDxcPayments\"] = \"setDxcPayments(bytes32)\";\n            signatures[\"setLockup\"] = \"setLockup(bytes32)\";\n            signatures[\"setVotingPrice\"] = \"setVotingPrice(bytes32)\";\n        }\n\n        function setEtherRate(bytes32 _etherRate) external onlyServiceProxy {\n            etherRate = TypesConverter.bytes32ToUint(_etherRate);\n        }\n\n        function setDXCRate(bytes32 _DXCRate) external onlyServiceProxy {\n            DXCRate = TypesConverter.bytes32ToUint(_DXCRate);\n        }\n\n        function setSoftCap(bytes32 _softCap) external onlyServiceProxy {\n            softCap = TypesConverter.bytes32ToUint(_softCap);\n        }\n\n        function setHardCap(bytes32 _hardCap) external onlyServiceProxy {\n            hardCap = TypesConverter.bytes32ToUint(_hardCap);\n        }\n\n        function setStartTime(bytes32 _startTime) external onlyServiceProxy {\n            startTime = TypesConverter.bytes32ToUint(_startTime);\n        }\n\n        function setEndTime(bytes32 _endTime) external onlyServiceProxy {\n            endTime = TypesConverter.bytes32ToUint(_endTime);\n        }\n\n        function setCanInitCrowdsale(bytes32 _canInitCrowdsaleParameters) external onlyServiceProxy {\n            canInitCrowdsaleParameters = TypesConverter.bytes32ToBool(_canInitCrowdsaleParameters);\n        }\n\n        function setCanInitState(bytes32 _canInitStateParameters) external onlyServiceProxy {\n            canInitStateParameters = TypesConverter.bytes32ToBool(_canInitStateParameters);\n        }\n\n        function setCanInitBonuses(bytes32 _canInitBonuses) external onlyServiceProxy {\n            canInitBonuses = TypesConverter.bytes32ToBool(_canInitBonuses);\n        }\n\n        function setNewEtherRate(bytes32 _newEtherRate) external onlyServiceProxy {\n            newEtherRate = TypesConverter.bytes32ToUint(_newEtherRate);\n        }\n\n        function setNewDXCRate(bytes32 _newDXCRate) external onlyServiceProxy {\n            newDXCRate = TypesConverter.bytes32ToUint(_newDXCRate);\n        }\n\n        function setToken(bytes32 _token) external onlyServiceProxy {\n            token = TokenInterface(TypesConverter.bytes32ToAddress(_token));\n        }\n\n        function setName(bytes32 _name) external onlyServiceProxy {\n            name = TypesConverter.bytes32ToString(_name);\n        }\n\n        function setDescription(bytes32 _description) external onlyServiceProxy {\n            description = TypesConverter.bytes32ToString(_description);\n        }\n\n        function setDxcPayments(bytes32 _dxcPayments) external onlyServiceProxy {\n            dxcPayments = TypesConverter.bytes32ToBool(_dxcPayments);\n        }\n\n        function setLockup(bytes32 _lockup) external onlyServiceProxy {\n            lockup = TypesConverter.bytes32ToUint(_lockup);\n        }\n\n        function setVotingPrice(bytes32 _votingPrice) external onlyServiceProxy {\n            votingPrice = TypesConverter.bytes32ToUint(_votingPrice);\n        }\n\n        modifier onlyServiceProxy() {\n            require(msg.sender == proxyAPI, \"Methods can only be called by proxy contract for remote services\");\n            _;\n        }\n}",
  "sourcePath": "/Users/giddeonwyeth/PhpstormProjects/dao/daox-contracts/contracts/DAO/API/AllowedSetters.sol",
  "compiler": {
    "name": "solc",
    "version": "0.4.24+commit.e67f0147.Emscripten.clang"
  },
  "schemaVersion": "2.0.1",
  "updatedAt": "2018-07-18T15:32:46.147Z"
}