{
  "contractName": "BaseService",
  "abi": [
    {
      "constant": true,
      "inputs": [],
      "name": "owner",
      "outputs": [
        {
          "name": "",
          "type": "address"
        }
      ],
      "payable": false,
      "stateMutability": "view",
      "type": "function"
    },
    {
      "constant": true,
      "inputs": [],
      "name": "DXC",
      "outputs": [
        {
          "name": "",
          "type": "address"
        }
      ],
      "payable": false,
      "stateMutability": "view",
      "type": "function"
    },
    {
      "constant": true,
      "inputs": [],
      "name": "price",
      "outputs": [
        {
          "name": "",
          "type": "uint256"
        }
      ],
      "payable": false,
      "stateMutability": "view",
      "type": "function"
    },
    {
      "constant": true,
      "inputs": [
        {
          "name": "",
          "type": "address"
        }
      ],
      "name": "daos",
      "outputs": [
        {
          "name": "",
          "type": "bool"
        }
      ],
      "payable": false,
      "stateMutability": "view",
      "type": "function"
    },
    {
      "constant": true,
      "inputs": [],
      "name": "proxyAPI",
      "outputs": [
        {
          "name": "",
          "type": "address"
        }
      ],
      "payable": false,
      "stateMutability": "view",
      "type": "function"
    },
    {
      "inputs": [
        {
          "name": "_price",
          "type": "uint256"
        },
        {
          "name": "_DXC",
          "type": "address"
        },
        {
          "name": "_proxyAPI",
          "type": "address"
        }
      ],
      "payable": false,
      "stateMutability": "nonpayable",
      "type": "constructor"
    },
    {
      "constant": false,
      "inputs": [
        {
          "name": "_from",
          "type": "address"
        },
        {
          "name": "_amount",
          "type": "uint256"
        }
      ],
      "name": "handleDXCPayment",
      "outputs": [],
      "payable": false,
      "stateMutability": "nonpayable",
      "type": "function"
    },
    {
      "constant": false,
      "inputs": [
        {
          "name": "_amount",
          "type": "uint256"
        }
      ],
      "name": "withdrawDXC",
      "outputs": [],
      "payable": false,
      "stateMutability": "nonpayable",
      "type": "function"
    }
  ],
  "bytecode": "0x608060405234801561001057600080fd5b5060405160608061046783398101604090815281516020830151919092015160018054600160a060020a0319908116331790915560039390935560008054600160a060020a039384169085161790556002805492909116919092161790556103ea8061007d6000396000f3006080604052600436106100825763ffffffff7c010000000000000000000000000000000000000000000000000000000060003504166337b1b41e81146100875780638da5cb5b146100a157806390836822146100d2578063939eaf9f146100e7578063a035b1fe1461010b578063c25f3cf614610132578063e2a7937b14610167575b600080fd5b34801561009357600080fd5b5061009f60043561017c565b005b3480156100ad57600080fd5b506100b66102b8565b60408051600160a060020a039092168252519081900360200190f35b3480156100de57600080fd5b506100b66102c7565b3480156100f357600080fd5b5061009f600160a060020a03600435166024356102d6565b34801561011757600080fd5b50610120610394565b60408051918252519081900360200190f35b34801561013e57600080fd5b50610153600160a060020a036004351661039a565b604080519115158252519081900360200190f35b34801561017357600080fd5b506100b66103af565b600154600160a060020a0316331461021b57604080517f08c379a000000000000000000000000000000000000000000000000000000000815260206004820152602260248201527f4d6574686f642063616e2062652063616c6c6564206f6e6c79206279206f776e60448201527f6572000000000000000000000000000000000000000000000000000000000000606482015290519081900360840190fd5b60008054604080517fa9059cbb000000000000000000000000000000000000000000000000000000008152336004820152602481018590529051600160a060020a039092169263a9059cbb926044808401936020939083900390910190829087803b15801561028957600080fd5b505af115801561029d573d6000803e3d6000fd5b505050506040513d60208110156102b357600080fd5b505050565b600154600160a060020a031681565b600054600160a060020a031681565b6003548190811461036e57604080517f08c379a000000000000000000000000000000000000000000000000000000000815260206004820152602760248201527f496e636f7272656374206e756d626572206f662044584320776173207472616e60448201527f7366657272656400000000000000000000000000000000000000000000000000606482015290519081900360840190fd5b5050600160a060020a03166000908152600460205260409020805460ff19166001179055565b60035481565b60046020526000908152604090205460ff1681565b600254600160a060020a0316815600a165627a7a723058205b57a8f3800aeb2b51fda7514354aaf0a35419d1467ab476725f6b5d4b1896cc0029",
  "source": "pragma solidity 0.4.24;\n\nimport \"./IService.sol\";\n\ninterface IDXC {\n    function transfer(address to, uint256 value) public returns (bool);\n}\n\ncontract BaseService {\n    address public DXC;\n    address public owner;\n    address public proxyAPI;\n    uint public price;\n    mapping(address => bool) public daos;\n\n    constructor(uint _price, address _DXC, address _proxyAPI) public {\n        owner = msg.sender;\n        price = _price;\n        DXC = _DXC;\n        proxyAPI = _proxyAPI;\n    }\n\n    function handleDXCPayment(address _from, uint _amount) correctPayment(_amount) {\n        daos[_from] = true;\n    }\n\n    function withdrawDXC(uint _amount) onlyOwner {\n        IDXC(DXC).transfer(msg.sender, _amount);\n    }\n\n    modifier correctPayment(uint _amount) {\n        require(_amount == price, \"Incorrect number of DXC was transferred\");\n        _;\n    }\n\n    modifier onlyOwner {\n        require(msg.sender == owner, \"Method can be called only by owner\");\n        _;\n    }\n}\n",
  "sourcePath": "/Users/giddeonwyeth/PhpstormProjects/dao/daox-contracts/contracts/DAO/API/BaseService.sol",
  "compiler": {
    "name": "solc",
    "version": "0.4.24+commit.e67f0147.Emscripten.clang"
  },
  "schemaVersion": "2.0.1",
  "updatedAt": "2018-07-10T13:42:04.551Z"
}