{
  "contractName": "BaseVotingFactory",
  "abi": [
    {
      "constant": true,
      "inputs": [],
      "name": "daoFactory",
      "outputs": [
        {
          "name": "",
          "type": "address"
        }
      ],
      "payable": false,
      "stateMutability": "view",
      "type": "function"
    },
    {
      "inputs": [
        {
          "name": "_baseVoting",
          "type": "address"
        }
      ],
      "payable": false,
      "stateMutability": "nonpayable",
      "type": "constructor"
    },
    {
      "constant": false,
      "inputs": [
        {
          "name": "_dao",
          "type": "address"
        }
      ],
      "name": "setDaoFactory",
      "outputs": [],
      "payable": false,
      "stateMutability": "nonpayable",
      "type": "function"
    }
  ],
  "bytecode": "0x608060405234801561001057600080fd5b506040516020806101da833981016040525160008054600160a060020a03909216600160a060020a0319909216919091179055610188806100526000396000f30060806040526004361061004b5763ffffffff7c010000000000000000000000000000000000000000000000000000000060003504166348f7f2a38114610050578063dfc061f01461008e575b600080fd5b34801561005c57600080fd5b506100656100be565b6040805173ffffffffffffffffffffffffffffffffffffffff9092168252519081900360200190f35b34801561009a57600080fd5b506100bc73ffffffffffffffffffffffffffffffffffffffff600435166100da565b005b60015473ffffffffffffffffffffffffffffffffffffffff1681565b60015473ffffffffffffffffffffffffffffffffffffffff16158015610115575073ffffffffffffffffffffffffffffffffffffffff811615155b151561012057600080fd5b6001805473ffffffffffffffffffffffffffffffffffffffff191673ffffffffffffffffffffffffffffffffffffffff929092169190911790555600a165627a7a72305820c1da200d96606e907e238a807bf375de7232cc00d7a5dc6f670110599f1044bd0029",
  "source": "pragma solidity ^0.4.0;\n\nimport \"../DAO/DAOFactoryInterface.sol\";\nimport \"../DAO/IDAO.sol\";\n\ncontract BaseVotingFactory {\n    address baseVoting;\n    DAOFactoryInterface public daoFactory;\n\n    constructor(address _baseVoting) public {\n        baseVoting = _baseVoting;\n    }\n\n    /*\n    * @dev Set dao factory address. Calls ones from just deployed DAO\n    * @param _dao Address of dao factory\n    */\n    function setDaoFactory(address _dao) external {\n        require(address(daoFactory) == 0x0 && _dao != 0x0);\n        daoFactory = DAOFactoryInterface(_dao);\n    }\n\n    /*\n    * @dev Throws if caller is not correct DAO\n    */\n    modifier onlyDAO() {\n        require(daoFactory.exists(msg.sender));\n        _;\n    }\n\n    /*\n    * @dev Throws if creator is not participant of passed DAO\n    */\n    modifier onlyParticipantWithEnoughDXC(address creator) {\n        require(IDAO(msg.sender).isParticipant(creator), \"You need to be a participant to call this method\");\n        require(IDAO(msg.sender).initialCapitalIncr(creator) >= IDAO(msg.sender).votingPrice(), \"You don't have enough DXC to call this method.\");\n        _;\n    }\n}\n",
  "sourcePath": "/Users/giddeonwyeth/PhpstormProjects/dao/daox-contracts/contracts/Votings/BaseVotingFactory.sol",
  "compiler": {
    "name": "solc",
    "version": "0.4.24+commit.e67f0147.Emscripten.clang"
  },
  "schemaVersion": "2.0.1",
  "updatedAt": "2018-07-19T15:51:04.680Z"
}