{
  "contractName": "BaseProposal",
  "abi": [
    {
      "constant": true,
      "inputs": [],
      "name": "name",
      "outputs": [
        {
          "name": "",
          "type": "string"
        }
      ],
      "payable": false,
      "stateMutability": "view",
      "type": "function"
    },
    {
      "constant": true,
      "inputs": [],
      "name": "duration",
      "outputs": [
        {
          "name": "",
          "type": "uint256"
        }
      ],
      "payable": false,
      "stateMutability": "view",
      "type": "function"
    },
    {
      "constant": true,
      "inputs": [],
      "name": "quorum",
      "outputs": [
        {
          "name": "",
          "type": "uint256"
        }
      ],
      "payable": false,
      "stateMutability": "view",
      "type": "function"
    },
    {
      "constant": true,
      "inputs": [],
      "name": "minimalDuration",
      "outputs": [
        {
          "name": "",
          "type": "uint256"
        }
      ],
      "payable": false,
      "stateMutability": "view",
      "type": "function"
    },
    {
      "constant": true,
      "inputs": [
        {
          "name": "",
          "type": "uint256"
        }
      ],
      "name": "options",
      "outputs": [
        {
          "name": "votes",
          "type": "uint256"
        },
        {
          "name": "description",
          "type": "bytes32"
        }
      ],
      "payable": false,
      "stateMutability": "view",
      "type": "function"
    },
    {
      "constant": true,
      "inputs": [],
      "name": "result",
      "outputs": [
        {
          "name": "votes",
          "type": "uint256"
        },
        {
          "name": "description",
          "type": "bytes32"
        }
      ],
      "payable": false,
      "stateMutability": "view",
      "type": "function"
    },
    {
      "constant": true,
      "inputs": [],
      "name": "description",
      "outputs": [
        {
          "name": "",
          "type": "string"
        }
      ],
      "payable": false,
      "stateMutability": "view",
      "type": "function"
    },
    {
      "constant": true,
      "inputs": [],
      "name": "votesCount",
      "outputs": [
        {
          "name": "",
          "type": "uint256"
        }
      ],
      "payable": false,
      "stateMutability": "view",
      "type": "function"
    },
    {
      "constant": true,
      "inputs": [],
      "name": "created_at",
      "outputs": [
        {
          "name": "",
          "type": "uint256"
        }
      ],
      "payable": false,
      "stateMutability": "view",
      "type": "function"
    },
    {
      "constant": true,
      "inputs": [],
      "name": "votingType",
      "outputs": [
        {
          "name": "",
          "type": "string"
        }
      ],
      "payable": false,
      "stateMutability": "view",
      "type": "function"
    },
    {
      "constant": true,
      "inputs": [
        {
          "name": "",
          "type": "address"
        }
      ],
      "name": "voted",
      "outputs": [
        {
          "name": "",
          "type": "uint256"
        }
      ],
      "payable": false,
      "stateMutability": "view",
      "type": "function"
    },
    {
      "constant": true,
      "inputs": [],
      "name": "finished",
      "outputs": [
        {
          "name": "",
          "type": "bool"
        }
      ],
      "payable": false,
      "stateMutability": "view",
      "type": "function"
    },
    {
      "constant": true,
      "inputs": [],
      "name": "getOptions",
      "outputs": [
        {
          "name": "",
          "type": "uint256[2]"
        }
      ],
      "payable": false,
      "stateMutability": "view",
      "type": "function"
    },
    {
      "constant": false,
      "inputs": [
        {
          "name": "_optionID",
          "type": "uint256"
        }
      ],
      "name": "addVote",
      "outputs": [],
      "payable": false,
      "stateMutability": "nonpayable",
      "type": "function"
    }
  ],
  "bytecode": "0x608060405242601e55601f805460ff1916905562093a8060225534801561002557600080fd5b506105ba806100356000396000f3006080604052600436106100cf5763ffffffff7c01000000000000000000000000000000000000000000000000000000006000350416630383badc81146100d457806306fdde03146100ee5780630fb5a6b4146101785780631703a0181461019f5780632f572336146101b4578063409e2205146101c957806365372147146101fa5780637284e4161461020f5780638778b27d146102245780639c6f0d8514610239578063a9aa6a9b1461024e578063aec2ccae14610263578063bef4876b14610291578063cc2ee196146102ba575b600080fd5b3480156100e057600080fd5b506100ec60043561030a565b005b3480156100fa57600080fd5b506101036103af565b6040805160208082528351818301528351919283929083019185019080838360005b8381101561013d578181015183820152602001610125565b50505050905090810190601f16801561016a5780820380516001836020036101000a031916815260200191505b509250505060405180910390f35b34801561018457600080fd5b5061018d61043c565b60408051918252519081900360200190f35b3480156101ab57600080fd5b5061018d610442565b3480156101c057600080fd5b5061018d610448565b3480156101d557600080fd5b506101e160043561044e565b6040805192835260208301919091528051918290030190f35b34801561020657600080fd5b506101e161046d565b34801561021b57600080fd5b50610103610476565b34801561023057600080fd5b5061018d6104ce565b34801561024557600080fd5b5061018d6104d4565b34801561025a57600080fd5b506101036104da565b34801561026f57600080fd5b5061018d73ffffffffffffffffffffffffffffffffffffffff60043516610535565b34801561029d57600080fd5b506102a6610547565b604080519115158252519081900360200190f35b3480156102c657600080fd5b506102cf610550565b6040518082600260200280838360005b838110156102f75781810151838201526020016102df565b5050505090500191505060405180910390f35b602354604080517f4adcade400000000000000000000000000000000000000000000000000000000815273ffffffffffffffffffffffffffffffffffffffff9092166004830152602482018390525173__VotingLib_____________________________91634adcade4916044808301926000929190829003018186803b15801561039457600080fd5b505af41580156103a8573d6000803e3d6000fd5b5050505050565b60018054604080516020600284861615610100026000190190941693909304601f810184900484028201840190925281815292918301828280156104345780601f1061040957610100808354040283529160200191610434565b820191906000526020600020905b81548152906001019060200180831161041757829003601f168201915b505050505081565b601d5481565b60205481565b60225481565b600381600b811061045b57fe5b60020201805460019091015490915082565b601a54601b5482565b6002805460408051602060018416156101000260001901909316849004601f810184900484028201840190925281815292918301828280156104345780601f1061040957610100808354040283529160200191610434565b601c5481565b601e5481565b6021805460408051602060026001851615610100026000190190941693909304601f810184900484028201840190925281815292918301828280156104345780601f1061040957610100808354040283529160200191610434565b60196020526000908152604090205481565b601f5460ff1681565b610558610573565b50604080518082019091526005548152600754602082015290565b604080518082018252906002908290803883395091929150505600a165627a7a72305820ba0201720ad5908b46883f781da87ad3e894a84a53b5cea3c645d6b78b9e9a980029",
  "source": "pragma solidity ^0.4.0;\n\nimport \"./VotingLib.sol\";\nimport \"./VotingFields.sol\";\n\ncontract BaseProposal is VotingFields {\n    address baseVoting;\n\n    /*\n    * @dev Returns amount of votes for `yes` and `no` options\n    */\n    function getOptions() public constant returns(uint[2]) {\n        return [options[1].votes, options[2].votes];\n    }\n\n    /*\n    * @dev Delegates request of adding vote to the Voting base contract\n    * @param _optionID ID of option which will be added as vote\n    */\n    function addVote(uint _optionID) public {\n        VotingLib.delegatecallAddVote(baseVoting, _optionID);\n    }\n\n    /*\n    * @dev Initiates options `yes` and `no`\n    */\n    function createOptions() internal {\n        options[1] = VotingLib.Option(0, \"yes\");\n        options[2] = VotingLib.Option(0, \"no\");\n    }\n}\n",
  "sourcePath": "/Users/giddeonwyeth/PhpstormProjects/dao/daox-contracts/contracts/Votings/BaseProposal.sol",
  "compiler": {
    "name": "solc",
    "version": "0.4.24+commit.e67f0147.Emscripten.clang"
  },
  "schemaVersion": "2.0.1",
  "updatedAt": "2018-07-19T15:51:04.680Z"
}