{
  "contractName": "BaseService",
  "abi": [
    {
      "constant": true,
      "inputs": [],
      "name": "priceToCall",
      "outputs": [
        {
          "name": "",
          "type": "uint256"
        }
      ],
      "payable": false,
      "stateMutability": "view",
      "type": "function"
    },
    {
      "constant": true,
      "inputs": [
        {
          "name": "",
          "type": "address"
        }
      ],
      "name": "callDeposit",
      "outputs": [
        {
          "name": "",
          "type": "uint256"
        }
      ],
      "payable": false,
      "stateMutability": "view",
      "type": "function"
    },
    {
      "constant": true,
      "inputs": [],
      "name": "owner",
      "outputs": [
        {
          "name": "",
          "type": "address"
        }
      ],
      "payable": false,
      "stateMutability": "view",
      "type": "function"
    },
    {
      "constant": true,
      "inputs": [],
      "name": "DXC",
      "outputs": [
        {
          "name": "",
          "type": "address"
        }
      ],
      "payable": false,
      "stateMutability": "view",
      "type": "function"
    },
    {
      "constant": true,
      "inputs": [],
      "name": "priceToConnect",
      "outputs": [
        {
          "name": "",
          "type": "uint256"
        }
      ],
      "payable": false,
      "stateMutability": "view",
      "type": "function"
    },
    {
      "constant": true,
      "inputs": [
        {
          "name": "",
          "type": "address"
        }
      ],
      "name": "daos",
      "outputs": [
        {
          "name": "",
          "type": "bool"
        }
      ],
      "payable": false,
      "stateMutability": "view",
      "type": "function"
    },
    {
      "constant": true,
      "inputs": [],
      "name": "proxyAPI",
      "outputs": [
        {
          "name": "",
          "type": "address"
        }
      ],
      "payable": false,
      "stateMutability": "view",
      "type": "function"
    },
    {
      "inputs": [
        {
          "name": "_priceToConnect",
          "type": "uint256"
        },
        {
          "name": "_priceToCall",
          "type": "uint256"
        },
        {
          "name": "_DXC",
          "type": "address"
        },
        {
          "name": "_proxyAPI",
          "type": "address"
        }
      ],
      "payable": false,
      "stateMutability": "nonpayable",
      "type": "constructor"
    },
    {
      "constant": false,
      "inputs": [
        {
          "name": "_from",
          "type": "address"
        },
        {
          "name": "_amount",
          "type": "uint256"
        }
      ],
      "name": "handleDXCPayment",
      "outputs": [],
      "payable": false,
      "stateMutability": "nonpayable",
      "type": "function"
    },
    {
      "constant": false,
      "inputs": [
        {
          "name": "_amount",
          "type": "uint256"
        }
      ],
      "name": "withdrawDXC",
      "outputs": [],
      "payable": false,
      "stateMutability": "nonpayable",
      "type": "function"
    }
  ],
  "bytecode": "0x608060405234801561001057600080fd5b506040516080806105f0833981016040908152815160208301519183015160609093015160018054600160a060020a0319908116331790915560039290925560049290925560008054600160a060020a0394851690831617905560028054939092169216919091179055610567806100896000396000f3006080604052600436106100985763ffffffff7c010000000000000000000000000000000000000000000000000000000060003504166337b1b41e811461009d57806344b19818146100b75780635d3f13b9146100de5780638da5cb5b146100ff5780639083682214610130578063921cac7e14610145578063939eaf9f1461015a578063c25f3cf61461017e578063e2a7937b146101b3575b600080fd5b3480156100a957600080fd5b506100b56004356101c8565b005b3480156100c357600080fd5b506100cc610304565b60408051918252519081900360200190f35b3480156100ea57600080fd5b506100cc600160a060020a036004351661030a565b34801561010b57600080fd5b5061011461031c565b60408051600160a060020a039092168252519081900360200190f35b34801561013c57600080fd5b5061011461032b565b34801561015157600080fd5b506100cc61033a565b34801561016657600080fd5b506100b5600160a060020a0360043516602435610340565b34801561018a57600080fd5b5061019f600160a060020a0360043516610517565b604080519115158252519081900360200190f35b3480156101bf57600080fd5b5061011461052c565b600154600160a060020a0316331461026757604080517f08c379a000000000000000000000000000000000000000000000000000000000815260206004820152602260248201527f4d6574686f642063616e2062652063616c6c6564206f6e6c79206279206f776e60448201527f6572000000000000000000000000000000000000000000000000000000000000606482015290519081900360840190fd5b60008054604080517fa9059cbb000000000000000000000000000000000000000000000000000000008152336004820152602481018590529051600160a060020a039092169263a9059cbb926044808401936020939083900390910190829087803b1580156102d557600080fd5b505af11580156102e9573d6000803e3d6000fd5b505050506040513d60208110156102ff57600080fd5b505050565b60045481565b60066020526000908152604090205481565b600154600160a060020a031681565b600054600160a060020a031681565b60035481565b600160a060020a038216600090815260056020526040812054829160ff909116908161036e57600354610372565b6004545b905082811461040857604080517f08c379a000000000000000000000000000000000000000000000000000000000815260206004820152602760248201527f496e636f7272656374206e756d626572206f662044584320776173207472616e60448201527f7366657272656400000000000000000000000000000000000000000000000000606482015290519081900360840190fd5b600054600160a060020a031633146104a757604080517f08c379a000000000000000000000000000000000000000000000000000000000815260206004820152602960248201527f4d6574686f642063616e2062652063616c6c6564206f6e6c792062792044584360448201527f20636f6e74726163740000000000000000000000000000000000000000000000606482015290519081900360840190fd5b600160a060020a03851660009081526005602052604090205460ff1615156104f157600160a060020a0385166000908152600560205260409020805460ff19166001179055610510565b600160a060020a03851660009081526006602052604090208054850190555b5050505050565b60056020526000908152604090205460ff1681565b600254600160a060020a0316815600a165627a7a7230582091b64bce550e4e31f27346ea47e3120d1c2e3ea7092dea418e710a56fee56f1c0029",
  "source": "pragma solidity 0.4.24;\n\nimport \"./IService.sol\";\nimport \"./IProxyAPI.sol\";\n\ninterface IDXC {\n    function transfer(address to, uint256 value) public returns (bool);\n}\n\ncontract BaseService {\n    address public DXC;\n    address public owner;\n    address public proxyAPI;\n    uint public priceToConnect;\n    uint public priceToCall;\n    mapping(address => bool) public daos;\n    mapping(address => uint) public callDeposit;\n\n    constructor(uint _priceToConnect, uint _priceToCall, address _DXC, address _proxyAPI) public {\n        owner = msg.sender;\n        priceToConnect = _priceToConnect;\n        priceToCall = _priceToCall;\n        DXC = _DXC;\n        proxyAPI = _proxyAPI;\n    }\n\n    function handleDXCPayment(address _from, uint _amount) correctPayment(_amount, daos[_from]) onlyDXC {\n        if(!daos[_from]) daos[_from] = true;\n        else callDeposit[_from] += _amount;\n    }\n\n    function withdrawDXC(uint _amount) onlyOwner {\n        IDXC(DXC).transfer(msg.sender, _amount);\n    }\n\n    modifier correctPayment(uint _amount, bool _connected) {\n        uint price = _connected ? priceToCall : priceToConnect;\n        require(_amount == price, \"Incorrect number of DXC was transferred\");\n        _;\n    }\n\n    modifier onlyOwner {\n        require(msg.sender == owner, \"Method can be called only by owner\");\n        _;\n    }\n\n    modifier onlyDXC {\n        require(msg.sender == DXC, \"Method can be called only by DXC contract\");\n        _;\n    }\n\n    modifier onlyProxyAPI() {\n        require(msg.sender == proxyAPI, \"Method can be call only from Daox API proxy contract\");\n        _;\n    }\n\n    modifier onlyConnected {\n        address dao = IProxyAPI(msg.sender).availableCalls(this);\n        require(daos[dao], \"Service is not connected\");\n        _;\n    }\n    modifier canCall {\n        address dao = IProxyAPI(msg.sender).availableCalls(this);\n        require(callDeposit[dao] >= priceToCall, \"Not enough funds deposited to make a call\");\n        _;\n    }\n}\n",
  "sourcePath": "/Users/giddeonwyeth/PhpstormProjects/dao/daox-contracts/contracts/DAO/API/BaseService.sol",
  "compiler": {
    "name": "solc",
    "version": "0.4.24+commit.e67f0147.Emscripten.clang"
  },
  "schemaVersion": "2.0.1",
  "updatedAt": "2018-07-11T16:06:33.281Z"
}