{
  "contractName": "BaseProposal",
  "abi": [
    {
      "constant": false,
      "inputs": [
        {
          "name": "_optionID",
          "type": "uint256"
        }
      ],
      "name": "addVote",
      "outputs": [],
      "payable": false,
      "stateMutability": "nonpayable",
      "type": "function"
    },
    {
      "constant": true,
      "inputs": [],
      "name": "name",
      "outputs": [
        {
          "name": "",
          "type": "string"
        }
      ],
      "payable": false,
      "stateMutability": "view",
      "type": "function"
    },
    {
      "constant": true,
      "inputs": [],
      "name": "duration",
      "outputs": [
        {
          "name": "",
          "type": "uint256"
        }
      ],
      "payable": false,
      "stateMutability": "view",
      "type": "function"
    },
    {
      "constant": true,
      "inputs": [],
      "name": "quorum",
      "outputs": [
        {
          "name": "",
          "type": "uint256"
        }
      ],
      "payable": false,
      "stateMutability": "view",
      "type": "function"
    },
    {
      "constant": true,
      "inputs": [],
      "name": "minimalDuration",
      "outputs": [
        {
          "name": "",
          "type": "uint256"
        }
      ],
      "payable": false,
      "stateMutability": "view",
      "type": "function"
    },
    {
      "constant": true,
      "inputs": [
        {
          "name": "",
          "type": "uint256"
        }
      ],
      "name": "options",
      "outputs": [
        {
          "name": "votes",
          "type": "uint256"
        },
        {
          "name": "description",
          "type": "bytes32"
        }
      ],
      "payable": false,
      "stateMutability": "view",
      "type": "function"
    },
    {
      "constant": true,
      "inputs": [],
      "name": "result",
      "outputs": [
        {
          "name": "votes",
          "type": "uint256"
        },
        {
          "name": "description",
          "type": "bytes32"
        }
      ],
      "payable": false,
      "stateMutability": "view",
      "type": "function"
    },
    {
      "constant": true,
      "inputs": [],
      "name": "description",
      "outputs": [
        {
          "name": "",
          "type": "string"
        }
      ],
      "payable": false,
      "stateMutability": "view",
      "type": "function"
    },
    {
      "constant": true,
      "inputs": [],
      "name": "votesCount",
      "outputs": [
        {
          "name": "",
          "type": "uint256"
        }
      ],
      "payable": false,
      "stateMutability": "view",
      "type": "function"
    },
    {
      "constant": true,
      "inputs": [],
      "name": "created_at",
      "outputs": [
        {
          "name": "",
          "type": "uint256"
        }
      ],
      "payable": false,
      "stateMutability": "view",
      "type": "function"
    },
    {
      "constant": true,
      "inputs": [],
      "name": "votingType",
      "outputs": [
        {
          "name": "",
          "type": "string"
        }
      ],
      "payable": false,
      "stateMutability": "view",
      "type": "function"
    },
    {
      "constant": true,
      "inputs": [
        {
          "name": "",
          "type": "address"
        }
      ],
      "name": "voted",
      "outputs": [
        {
          "name": "",
          "type": "uint256"
        }
      ],
      "payable": false,
      "stateMutability": "view",
      "type": "function"
    },
    {
      "constant": true,
      "inputs": [],
      "name": "finished",
      "outputs": [
        {
          "name": "",
          "type": "bool"
        }
      ],
      "payable": false,
      "stateMutability": "view",
      "type": "function"
    },
    {
      "constant": true,
      "inputs": [],
      "name": "getOptions",
      "outputs": [
        {
          "name": "",
          "type": "uint256[2]"
        }
      ],
      "payable": false,
      "stateMutability": "view",
      "type": "function"
    }
  ],
  "bytecode": "0x606060405242601e55601f805460ff1916905562093a80602255341561002457600080fd5b6105eb806100336000396000f3006060604052600436106100cf5763ffffffff7c01000000000000000000000000000000000000000000000000000000006000350416630383badc81146100d457806306fdde03146100ec5780630fb5a6b4146101765780631703a0181461019b5780632f572336146101ae578063409e2205146101c157806365372147146101ef5780637284e416146102025780638778b27d146102155780639c6f0d8514610228578063a9aa6a9b1461023b578063aec2ccae1461024e578063bef4876b1461027a578063cc2ee196146102a1575b600080fd5b34156100df57600080fd5b6100ea6004356102ec565b005b34156100f757600080fd5b6100ff6103a0565b60405160208082528190810183818151815260200191508051906020019080838360005b8381101561013b578082015183820152602001610123565b50505050905090810190601f1680156101685780820380516001836020036101000a031916815260200191505b509250505060405180910390f35b341561018157600080fd5b61018961043e565b60405190815260200160405180910390f35b34156101a657600080fd5b610189610444565b34156101b957600080fd5b61018961044a565b34156101cc57600080fd5b6101d7600435610450565b60405191825260208201526040908101905180910390f35b34156101fa57600080fd5b6101d761046f565b341561020d57600080fd5b6100ff610478565b341561022057600080fd5b6101896104e3565b341561023357600080fd5b6101896104e9565b341561024657600080fd5b6100ff6104ef565b341561025957600080fd5b61018973ffffffffffffffffffffffffffffffffffffffff6004351661055a565b341561028557600080fd5b61028d61056c565b604051901515815260200160405180910390f35b34156102ac57600080fd5b6102b4610575565b6040518082604080838360005b838110156102d95780820151838201526020016102c1565b5050505090500191505060405180910390f35b60235473__VotingLib_____________________________90634adcade49073ffffffffffffffffffffffffffffffffffffffff16836040517c010000000000000000000000000000000000000000000000000000000063ffffffff851602815273ffffffffffffffffffffffffffffffffffffffff9092166004830152602482015260440160006040518083038186803b151561038957600080fd5b6102c65a03f4151561039a57600080fd5b50505050565b60018054600181600116156101000203166002900480601f0160208091040260200160405190810160405280929190818152602001828054600181600116156101000203166002900480156104365780601f1061040b57610100808354040283529160200191610436565b820191906000526020600020905b81548152906001019060200180831161041957829003601f168201915b505050505081565b601d5481565b60205481565b60225481565b600381600b811061045d57fe5b60020201805460019091015490915082565b601a54601b5482565b60028054600181600116156101000203166002900480601f0160208091040260200160405190810160405280929190818152602001828054600181600116156101000203166002900480156104365780601f1061040b57610100808354040283529160200191610436565b601c5481565b601e5481565b60218054600181600116156101000203166002900480601f0160208091040260200160405190810160405280929190818152602001828054600181600116156101000203166002900480156104365780601f1061040b57610100808354040283529160200191610436565b60196020526000908152604090205481565b601f5460ff1681565b61057d610599565b6040805190810160405260055481526007546020820152919050565b604080519081016040526002815b60008152602001906001900390816105a757905050905600a165627a7a72305820163ed4dcf9e3348146c0e7878d9634a95142e6119bf46cb55db65014c3b4a8360029",
  "source": "pragma solidity ^0.4.0;\n\nimport \"./VotingLib.sol\";\nimport \"./VotingFields.sol\";\n\ncontract BaseProposal is VotingFields {\n    address baseVoting;\n\n    /*\n    * @dev Returns amount of votes for `yes` and `no` options\n    */\n    function getOptions() public constant returns(uint[2]) {\n        return [options[1].votes, options[2].votes];\n    }\n\n    /*\n    * @dev Delegates request of adding vote to the Voting base contract\n    * @param _optionID ID of option which will be added as vote\n    */\n    function addVote(uint _optionID) public {\n        VotingLib.delegatecallAddVote(baseVoting, _optionID);\n    }\n\n    /*\n    * @dev Initiates options `yes` and `no`\n    */\n    function createOptions() internal {\n        options[1] = VotingLib.Option(0, \"yes\");\n        options[2] = VotingLib.Option(0, \"no\");\n    }\n}\n",
  "sourcePath": "/Users/kirill/projects/daox-contracts/contracts/Votings/BaseProposal.sol",
  "compiler": {
    "name": "solc",
    "version": "0.4.18+commit.9cf6e910.Emscripten.clang"
  },
  "schemaVersion": "1.0.1",
  "updatedAt": "2018-06-04T09:15:52.755Z"
}