{
  "contractName": "BasicToken",
  "abi": [
    {
      "constant": true,
      "inputs": [],
      "name": "totalSupply",
      "outputs": [
        {
          "name": "",
          "type": "uint256"
        }
      ],
      "payable": false,
      "stateMutability": "view",
      "type": "function"
    },
    {
      "anonymous": false,
      "inputs": [
        {
          "indexed": true,
          "name": "from",
          "type": "address"
        },
        {
          "indexed": true,
          "name": "to",
          "type": "address"
        },
        {
          "indexed": false,
          "name": "value",
          "type": "uint256"
        }
      ],
      "name": "Transfer",
      "type": "event"
    },
    {
      "constant": false,
      "inputs": [
        {
          "name": "_to",
          "type": "address"
        },
        {
          "name": "_value",
          "type": "uint256"
        }
      ],
      "name": "transfer",
      "outputs": [
        {
          "name": "",
          "type": "bool"
        }
      ],
      "payable": false,
      "stateMutability": "nonpayable",
      "type": "function"
    },
    {
      "constant": true,
      "inputs": [
        {
          "name": "_owner",
          "type": "address"
        }
      ],
      "name": "balanceOf",
      "outputs": [
        {
          "name": "balance",
          "type": "uint256"
        }
      ],
      "payable": false,
      "stateMutability": "view",
      "type": "function"
    }
  ],
  "bytecode": "0x608060405234801561001057600080fd5b50610265806100206000396000f3006080604052600436106100565763ffffffff7c010000000000000000000000000000000000000000000000000000000060003504166318160ddd811461005b57806370a0823114610082578063a9059cbb146100b0575b600080fd5b34801561006757600080fd5b506100706100f5565b60408051918252519081900360200190f35b34801561008e57600080fd5b5061007073ffffffffffffffffffffffffffffffffffffffff600435166100fb565b3480156100bc57600080fd5b506100e173ffffffffffffffffffffffffffffffffffffffff60043516602435610123565b604080519115158252519081900360200190f35b60005481565b73ffffffffffffffffffffffffffffffffffffffff1660009081526001602052604090205490565b600073ffffffffffffffffffffffffffffffffffffffff8316151561014757600080fd5b33600090815260016020526040902054610167908363ffffffff61021116565b336000908152600160205260408082209290925573ffffffffffffffffffffffffffffffffffffffff8516815220546101a6908363ffffffff61022316565b73ffffffffffffffffffffffffffffffffffffffff84166000818152600160209081526040918290209390935580518581529051919233927fddf252ad1be2c89b69c2b068fc378daa952ba7f163c4a11628f55a4df523b3ef9281900390910190a350600192915050565b60008282111561021d57fe5b50900390565b60008282018381101561023257fe5b93925050505600a165627a7a723058204a04f948276cfc3afa2d8a95b235071ad827886412c43b3d101c5f210826b2ff0029",
  "source": "pragma solidity ^0.4.11;\n\n\nimport './ERC20Basic.sol';\nimport '../math/SafeMath.sol';\n\n\n/**\n * @title Basic token\n * @dev Basic version of StandardToken, with no allowances.\n */\ncontract BasicToken is ERC20Basic {\n  using SafeMath for uint256;\n\n  mapping(address => uint256) balances;\n\n  /**\n  * @dev transfer token for a specified address\n  * @param _to The address to transfer to.\n  * @param _value The amount to be transferred.\n  */\n  function transfer(address _to, uint256 _value) public returns (bool) {\n    require(_to != address(0));\n\n    // SafeMath.sub will throw if there is not enough balance.\n    balances[msg.sender] = balances[msg.sender].sub(_value);\n    balances[_to] = balances[_to].add(_value);\n    Transfer(msg.sender, _to, _value);\n    return true;\n  }\n\n  /**\n  * @dev Gets the balance of the specified address.\n  * @param _owner The address to query the the balance of.\n  * @return An uint256 representing the amount owned by the passed address.\n  */\n  function balanceOf(address _owner) public constant returns (uint256 balance) {\n    return balances[_owner];\n  }\n\n}\n",
  "sourcePath": "/Users/giddeonwyeth/PhpstormProjects/dao/daox-contracts/node_modules/zeppelin-solidity/contracts/token/BasicToken.sol",
  "compiler": {
    "name": "solc",
    "version": "0.4.24+commit.e67f0147.Emscripten.clang"
  },
  "schemaVersion": "2.0.1",
  "updatedAt": "2018-07-18T15:32:46.179Z"
}