{
  "contractName": "CallService",
  "abi": [
    {
      "constant": false,
      "inputs": [
        {
          "name": "_optionID",
          "type": "uint256"
        }
      ],
      "name": "addVote",
      "outputs": [],
      "payable": false,
      "stateMutability": "nonpayable",
      "type": "function"
    },
    {
      "constant": true,
      "inputs": [],
      "name": "name",
      "outputs": [
        {
          "name": "",
          "type": "string"
        }
      ],
      "payable": false,
      "stateMutability": "view",
      "type": "function"
    },
    {
      "constant": true,
      "inputs": [],
      "name": "duration",
      "outputs": [
        {
          "name": "",
          "type": "uint256"
        }
      ],
      "payable": false,
      "stateMutability": "view",
      "type": "function"
    },
    {
      "constant": true,
      "inputs": [],
      "name": "quorum",
      "outputs": [
        {
          "name": "",
          "type": "uint256"
        }
      ],
      "payable": false,
      "stateMutability": "view",
      "type": "function"
    },
    {
      "constant": true,
      "inputs": [],
      "name": "method",
      "outputs": [
        {
          "name": "",
          "type": "bytes32"
        }
      ],
      "payable": false,
      "stateMutability": "view",
      "type": "function"
    },
    {
      "constant": true,
      "inputs": [],
      "name": "minimalDuration",
      "outputs": [
        {
          "name": "",
          "type": "uint256"
        }
      ],
      "payable": false,
      "stateMutability": "view",
      "type": "function"
    },
    {
      "constant": true,
      "inputs": [
        {
          "name": "",
          "type": "uint256"
        }
      ],
      "name": "options",
      "outputs": [
        {
          "name": "votes",
          "type": "uint256"
        },
        {
          "name": "description",
          "type": "bytes32"
        }
      ],
      "payable": false,
      "stateMutability": "view",
      "type": "function"
    },
    {
      "constant": true,
      "inputs": [],
      "name": "result",
      "outputs": [
        {
          "name": "votes",
          "type": "uint256"
        },
        {
          "name": "description",
          "type": "bytes32"
        }
      ],
      "payable": false,
      "stateMutability": "view",
      "type": "function"
    },
    {
      "constant": true,
      "inputs": [],
      "name": "description",
      "outputs": [
        {
          "name": "",
          "type": "string"
        }
      ],
      "payable": false,
      "stateMutability": "view",
      "type": "function"
    },
    {
      "constant": true,
      "inputs": [],
      "name": "votesCount",
      "outputs": [
        {
          "name": "",
          "type": "uint256"
        }
      ],
      "payable": false,
      "stateMutability": "view",
      "type": "function"
    },
    {
      "constant": true,
      "inputs": [
        {
          "name": "",
          "type": "uint256"
        }
      ],
      "name": "args",
      "outputs": [
        {
          "name": "",
          "type": "bytes32"
        }
      ],
      "payable": false,
      "stateMutability": "view",
      "type": "function"
    },
    {
      "constant": true,
      "inputs": [],
      "name": "created_at",
      "outputs": [
        {
          "name": "",
          "type": "uint256"
        }
      ],
      "payable": false,
      "stateMutability": "view",
      "type": "function"
    },
    {
      "constant": true,
      "inputs": [],
      "name": "votingType",
      "outputs": [
        {
          "name": "",
          "type": "string"
        }
      ],
      "payable": false,
      "stateMutability": "view",
      "type": "function"
    },
    {
      "constant": true,
      "inputs": [
        {
          "name": "",
          "type": "address"
        }
      ],
      "name": "voted",
      "outputs": [
        {
          "name": "",
          "type": "uint256"
        }
      ],
      "payable": false,
      "stateMutability": "view",
      "type": "function"
    },
    {
      "constant": true,
      "inputs": [],
      "name": "finished",
      "outputs": [
        {
          "name": "",
          "type": "bool"
        }
      ],
      "payable": false,
      "stateMutability": "view",
      "type": "function"
    },
    {
      "constant": true,
      "inputs": [],
      "name": "getOptions",
      "outputs": [
        {
          "name": "",
          "type": "uint256[2]"
        }
      ],
      "payable": false,
      "stateMutability": "view",
      "type": "function"
    },
    {
      "constant": true,
      "inputs": [],
      "name": "service",
      "outputs": [
        {
          "name": "",
          "type": "address"
        }
      ],
      "payable": false,
      "stateMutability": "view",
      "type": "function"
    },
    {
      "inputs": [
        {
          "name": "_baseVoting",
          "type": "address"
        },
        {
          "name": "_dao",
          "type": "address"
        },
        {
          "name": "_name",
          "type": "string"
        },
        {
          "name": "_description",
          "type": "string"
        },
        {
          "name": "_duration",
          "type": "uint256"
        },
        {
          "name": "_service",
          "type": "address"
        },
        {
          "name": "_method",
          "type": "bytes32"
        },
        {
          "name": "_args",
          "type": "bytes32[10]"
        }
      ],
      "payable": false,
      "stateMutability": "nonpayable",
      "type": "constructor"
    },
    {
      "constant": false,
      "inputs": [],
      "name": "finish",
      "outputs": [],
      "payable": false,
      "stateMutability": "nonpayable",
      "type": "function"
    }
  ],
  "bytecode": "0x608060405242601e55601f805460ff1916905562093a806022553480156200002657600080fd5b50604051620011e0380380620011e08339810160408181528251602080850151838601516060870151608088015160a089015160c08a01517f5b7f0df6000000000000000000000000000000000000000000000000000000008a52600160a060020a0380871660048c0152821660248b0152975196999498938501979285019691959094929360e09093019273__VotingLib_____________________________92635b7f0df692604480840193919291829003018186803b158015620000ec57600080fd5b505af415801562000101573d6000803e3d6000fd5b505050506040513d60208110156200011857600080fd5b50511515620001ad57604080517f08c379a0000000000000000000000000000000000000000000000000000000008152602060048201526024808201527f53657276696365206d75737420626520636f6e6e656374656420746f2063616c60448201527f6c20697400000000000000000000000000000000000000000000000000000000606482015290519081900360840190fd5b60408051808201909152600481527f63616c6c000000000000000000000000000000000000000000000000000000006020820152620001fc9088856401000000006200078f620003f182021704565b60238054600160a060020a03808b16600160a060020a0319928316179092556024805492861692909116919091179055602582905562000240602682600a6200073d565b506023546040517f120dce48000000000000000000000000000000000000000000000000000000008152600160a060020a0391821660048201818152928a16602483015260848201879052605060a4830181905260c0604484019081528a5160c48501528a5173__VotingLib_____________________________9563120dce48958e948e948e948e949293606481019160e490910190602089019080838360005b83811015620002fc578181015183820152602001620002e2565b50505050905090810190601f1680156200032a5780820380516001836020036101000a031916815260200191505b50838103825286518152865160209182019188019080838360005b838110156200035f57818101518382015260200162000345565b50505050905090810190601f1680156200038d5780820380516001836020036101000a031916815260200191505b509850505050505050505060006040518083038186803b158015620003b157600080fd5b505af4158015620003c6573d6000803e3d6000fd5b50505050620003e3620006c3640100000000026401000000009004565b5050505050505050620007a2565b604080517f63616c6c000000000000000000000000000000000000000000000000000000008152905190819003600401812084516000928691819060208401908083835b60208310620004565780518252601f19909201916020918201910162000435565b6001836020036101000a03801982511681845116808217855250505050505090500191505060405180910390206000191614620005195781600160a060020a031663921cac7e6040518163ffffffff167c0100000000000000000000000000000000000000000000000000000000028152600401602060405180830381600087803b158015620004e557600080fd5b505af1158015620004fa573d6000803e3d6000fd5b505050506040513d60208110156200051157600080fd5b5051620005a0565b81600160a060020a03166344b198186040518163ffffffff167c0100000000000000000000000000000000000000000000000000000000028152600401602060405180830381600087803b1580156200057157600080fd5b505af115801562000586573d6000803e3d6000fd5b505050506040513d60208110156200059d57600080fd5b50515b905082600160a060020a031663601e538b6040518163ffffffff167c0100000000000000000000000000000000000000000000000000000000028152600401602060405180830381600087803b158015620005fa57600080fd5b505af11580156200060f573d6000803e3d6000fd5b505050506040513d60208110156200062657600080fd5b5051811115620006bd57604080517f08c379a000000000000000000000000000000000000000000000000000000000815260206004820152603960248201527f4e6f7420656e6f7567682044584320696e20696e697469616c2063617069746160448201527f6c20746f20636f6e6e6563742074686973207365727669636500000000000000606482015290519081900360840190fd5b50505050565b60408051808201825260008082527f79657300000000000000000000000000000000000000000000000000000000006020928301819052600582905560065582518084019093528083527f6e6f00000000000000000000000000000000000000000000000000000000000092909101829052600755600855565b82600a810192821562000770579160200282015b8281111562000770578251825560209092019160019091019062000751565b506200077e92915062000782565b5090565b6200079f91905b808211156200077e576000815560010162000789565b90565b610a2e80620007b26000396000f3006080604052600436106100e25763ffffffff60e060020a6000350416630383badc81146100e757806306fdde03146101015780630fb5a6b41461018b5780631703a018146101b25780632c383a9f146101c75780632f572336146101dc578063409e2205146101f157806365372147146102225780637284e416146102375780638778b27d1461024c57806393cd5755146102615780639c6f0d8514610279578063a9aa6a9b1461028e578063aec2ccae146102a3578063bef4876b146102c4578063cc2ee196146102ed578063d56b28891461033d578063d598d4c914610352575b600080fd5b3480156100f357600080fd5b506100ff600435610383565b005b34801561010d57600080fd5b5061011661041b565b6040805160208082528351818301528351919283929083019185019080838360005b83811015610150578181015183820152602001610138565b50505050905090810190601f16801561017d5780820380516001836020036101000a031916815260200191505b509250505060405180910390f35b34801561019757600080fd5b506101a06104a8565b60408051918252519081900360200190f35b3480156101be57600080fd5b506101a06104ae565b3480156101d357600080fd5b506101a06104b4565b3480156101e857600080fd5b506101a06104ba565b3480156101fd57600080fd5b506102096004356104c0565b6040805192835260208301919091528051918290030190f35b34801561022e57600080fd5b506102096104df565b34801561024357600080fd5b506101166104e8565b34801561025857600080fd5b506101a0610540565b34801561026d57600080fd5b506101a0600435610546565b34801561028557600080fd5b506101a061055a565b34801561029a57600080fd5b50610116610560565b3480156102af57600080fd5b506101a0600160a060020a03600435166105bb565b3480156102d057600080fd5b506102d96105cd565b604080519115158252519081900360200190f35b3480156102f957600080fd5b506103026105d6565b6040518082600260200280838360005b8381101561032a578181015183820152602001610312565b5050505090500191505060405180910390f35b34801561034957600080fd5b506100ff6105f9565b34801561035e57600080fd5b50610367610765565b60408051600160a060020a039092168252519081900360200190f35b602354604080517f4adcade4000000000000000000000000000000000000000000000000000000008152600160a060020a039092166004830152602482018390525173__VotingLib_____________________________91634adcade4916044808301926000929190829003018186803b15801561040057600080fd5b505af4158015610414573d6000803e3d6000fd5b5050505050565b60018054604080516020600284861615610100026000190190941693909304601f810184900484028201840190925281815292918301828280156104a05780601f10610475576101008083540402835291602001916104a0565b820191906000526020600020905b81548152906001019060200180831161048357829003601f168201915b505050505081565b601d5481565b60205481565b60255481565b60225481565b600381600b81106104cd57fe5b60020201805460019091015490915082565b601a54601b5482565b6002805460408051602060018416156101000260001901909316849004601f810184900484028201840190925281815292918301828280156104a05780601f10610475576101008083540402835291602001916104a0565b601c5481565b602681600a811061055357fe5b0154905081565b601e5481565b6021805460408051602060026001851615610100026000190190941693909304601f810184900484028201840190925281815292918301828280156104a05780601f10610475576101008083540402835291602001916104a0565b60196020526000908152604090205481565b601f5460ff1681565b6105de610774565b50604080518082019091526005548152600754602082015290565b602354604080517f1901910b000000000000000000000000000000000000000000000000000000008152600160a060020a0390921660048301525173__VotingLib_____________________________91631901910b916024808301926000929190829003018186803b15801561066f57600080fd5b505af4158015610683573d6000803e3d6000fd5b5050601b547f796573000000000000000000000000000000000000000000000000000000000014159150610763905057600054602480546025546040517fd411fffc000000000000000000000000000000000000000000000000000000008152600160a060020a0392831660048201818152948201839052929094169363d411fffc9360269161018481019083906044015b815481526001909101906020018083116107155750509350505050600060405180830381600087803b15801561074a57600080fd5b505af115801561075e573d6000803e3d6000fd5b505050505b565b602454600160a060020a031681565b60408051808201825290600290829080388339509192915050565b604080517f63616c6c000000000000000000000000000000000000000000000000000000008152905190819003600401812084516000928691819060208401908083835b602083106107f25780518252601f1990920191602091820191016107d3565b6001836020036101000a038019825116818451168082178552505050505050905001915050604051809103902060001916146108975781600160a060020a031663921cac7e6040518163ffffffff1660e060020a028152600401602060405180830381600087803b15801561086657600080fd5b505af115801561087a573d6000803e3d6000fd5b505050506040513d602081101561089057600080fd5b5051610902565b81600160a060020a03166344b198186040518163ffffffff1660e060020a028152600401602060405180830381600087803b1580156108d557600080fd5b505af11580156108e9573d6000803e3d6000fd5b505050506040513d60208110156108ff57600080fd5b50515b905082600160a060020a031663601e538b6040518163ffffffff1660e060020a028152600401602060405180830381600087803b15801561094257600080fd5b505af1158015610956573d6000803e3d6000fd5b505050506040513d602081101561096c57600080fd5b505181111561075e57604080517f08c379a000000000000000000000000000000000000000000000000000000000815260206004820152603960248201527f4e6f7420656e6f7567682044584320696e20696e697469616c2063617069746160448201527f6c20746f20636f6e6e6563742074686973207365727669636500000000000000606482015290519081900360840190fd00a165627a7a72305820f0f285c8be500a609680036c92f939d5c16ceed34b646e25a0eef5b16668876e0029",
  "source": "pragma solidity 0.4.24;\n\nimport \"../VotingLib.sol\";\nimport \"../../Common.sol\";\nimport \"../BaseProposal.sol\";\n\ncontract CallService is BaseProposal {\n    address public service;\n    bytes32 public method;\n    bytes32[10] public args;\n\n    function CallService(address _baseVoting, address _dao, string _name, string _description, uint _duration, address _service, bytes32 _method, bytes32[10] _args) {\n        require(VotingLib.serviceConnected(_dao, _service), \"Service must be connected to call it\");\n        VotingLib.checkServicePrice(\"call\", _dao, _service);\n        baseVoting = _baseVoting;\n        service = _service;\n        method = _method;\n        args = _args;\n        VotingLib.delegatecallCreate(baseVoting, _dao, _name, _description, _duration, 80);\n        createOptions();\n    }\n\n    /*\n    * @dev Delegates request of finishing to the Voting base contract\n    */\n    function finish() public {\n        VotingLib.delegatecallFinish(baseVoting);\n        if(result.description == \"yes\") dao.callService(service, method, args);\n    }\n}",
  "sourcePath": "/Users/giddeonwyeth/PhpstormProjects/dao/daox-contracts/contracts/Votings/Service/CallService.sol",
  "compiler": {
    "name": "solc",
    "version": "0.4.24+commit.e67f0147.Emscripten.clang"
  },
  "schemaVersion": "2.0.1",
  "updatedAt": "2018-07-19T15:51:04.681Z"
}