{
  "contractName": "Common",
  "abi": [
    {
      "constant": true,
      "inputs": [
        {
          "name": "source",
          "type": "string"
        }
      ],
      "name": "stringToBytes32",
      "outputs": [
        {
          "name": "result",
          "type": "bytes32"
        }
      ],
      "payable": false,
      "stateMutability": "view",
      "type": "function"
    },
    {
      "constant": true,
      "inputs": [
        {
          "name": "numerator",
          "type": "uint256"
        },
        {
          "name": "denominator",
          "type": "uint256"
        },
        {
          "name": "precision",
          "type": "uint256"
        }
      ],
      "name": "percent",
      "outputs": [
        {
          "name": "quotient",
          "type": "uint256"
        }
      ],
      "payable": false,
      "stateMutability": "view",
      "type": "function"
    }
  ],
  "bytecode": "0x610138610030600b82828239805160001a6073146000811461002057610022565bfe5b5030600052607381538281f30073000000000000000000000000000000000000000030146080604052600436106100615763ffffffff7c01000000000000000000000000000000000000000000000000000000006000350416622c1a9e8114610066578063cfb5192814610089575b600080fd5b6100776004356024356044356100d5565b60408051918252519081900360200190f35b6040805160206004803580820135601f81018490048402850184019095528484526100779436949293602493928401919081908401838280828437509497506101059650505050505050565b600060018201600a90810a85029084828115156100ee57fe5b046005018115156100fb57fe5b0495945050505050565b60200151905600a165627a7a72305820b6e5579519423fe2c7be250aec64d4d8bce66b8f35f1464ef2d8a4c1c10e7dcc0029",
  "source": "pragma solidity ^0.4.11;\n\nlibrary Common {\n    function stringToBytes32(string memory source) constant returns (bytes32 result) {\n        assembly {\n            result := mload(add(source, 32))\n        }\n    }\n\n    function percent(uint numerator, uint denominator, uint precision) constant returns(uint quotient) {\n        uint _numerator  = numerator * 10 ** (precision+1);\n        quotient =  ((_numerator / denominator) + 5) / 10;\n    }\n\n    function toString(bytes32 _bytes) internal constant returns(string) {\n        bytes memory arrayTemp = new bytes(32);\n        uint currentLength = 0;\n\n        for (uint i = 0; i < 32; i++) {\n            arrayTemp[i] = _bytes[i];\n            if (arrayTemp[i] != 0) currentLength+=1;\n        }\n\n        bytes memory arrayRes = new bytes(currentLength);\n        for (i = 0; i < currentLength; i++) {\n            arrayRes[i] = arrayTemp[i];\n        }\n\n        return string(arrayRes);\n    }\n}\n",
  "sourcePath": "/Users/giddeonwyeth/PhpstormProjects/dao/daox-contracts/contracts/Common.sol",
  "compiler": {
    "name": "solc",
    "version": "0.4.24+commit.e67f0147.Emscripten.clang"
  },
  "schemaVersion": "2.0.1",
  "updatedAt": "2018-07-10T13:42:04.549Z"
}