{
  "contractName": "CrowdsaleDAO",
  "abi": [
    {
      "constant": true,
      "inputs": [],
      "name": "lockup",
      "outputs": [
        {
          "name": "",
          "type": "uint256"
        }
      ],
      "payable": false,
      "stateMutability": "view",
      "type": "function"
    },
    {
      "constant": true,
      "inputs": [],
      "name": "name",
      "outputs": [
        {
          "name": "",
          "type": "string"
        }
      ],
      "payable": false,
      "stateMutability": "view",
      "type": "function"
    },
    {
      "constant": true,
      "inputs": [],
      "name": "tokensMintedByEther",
      "outputs": [
        {
          "name": "",
          "type": "uint256"
        }
      ],
      "payable": false,
      "stateMutability": "view",
      "type": "function"
    },
    {
      "constant": true,
      "inputs": [
        {
          "name": "",
          "type": "address"
        }
      ],
      "name": "teamMap",
      "outputs": [
        {
          "name": "",
          "type": "bool"
        }
      ],
      "payable": false,
      "stateMutability": "view",
      "type": "function"
    },
    {
      "constant": true,
      "inputs": [
        {
          "name": "",
          "type": "address"
        }
      ],
      "name": "depositedWei",
      "outputs": [
        {
          "name": "",
          "type": "uint256"
        }
      ],
      "payable": false,
      "stateMutability": "view",
      "type": "function"
    },
    {
      "constant": true,
      "inputs": [
        {
          "name": "",
          "type": "uint256"
        }
      ],
      "name": "team",
      "outputs": [
        {
          "name": "",
          "type": "address"
        }
      ],
      "payable": false,
      "stateMutability": "view",
      "type": "function"
    },
    {
      "constant": true,
      "inputs": [],
      "name": "commissionRaised",
      "outputs": [
        {
          "name": "",
          "type": "uint256"
        }
      ],
      "payable": false,
      "stateMutability": "view",
      "type": "function"
    },
    {
      "constant": true,
      "inputs": [],
      "name": "refundableSoftCap",
      "outputs": [
        {
          "name": "",
          "type": "bool"
        }
      ],
      "payable": false,
      "stateMutability": "view",
      "type": "function"
    },
    {
      "constant": true,
      "inputs": [],
      "name": "votingPrice",
      "outputs": [
        {
          "name": "",
          "type": "uint256"
        }
      ],
      "payable": false,
      "stateMutability": "view",
      "type": "function"
    },
    {
      "constant": true,
      "inputs": [],
      "name": "apiSettersModule",
      "outputs": [
        {
          "name": "",
          "type": "address"
        }
      ],
      "payable": false,
      "stateMutability": "view",
      "type": "function"
    },
    {
      "constant": true,
      "inputs": [
        {
          "name": "",
          "type": "uint256"
        }
      ],
      "name": "teamBonusesArr",
      "outputs": [
        {
          "name": "",
          "type": "uint256"
        }
      ],
      "payable": false,
      "stateMutability": "view",
      "type": "function"
    },
    {
      "constant": true,
      "inputs": [],
      "name": "paymentModule",
      "outputs": [
        {
          "name": "",
          "type": "address"
        }
      ],
      "payable": false,
      "stateMutability": "view",
      "type": "function"
    },
    {
      "constant": true,
      "inputs": [
        {
          "name": "",
          "type": "uint256"
        }
      ],
      "name": "teamServiceMember",
      "outputs": [
        {
          "name": "",
          "type": "bool"
        }
      ],
      "payable": false,
      "stateMutability": "view",
      "type": "function"
    },
    {
      "constant": true,
      "inputs": [],
      "name": "endTime",
      "outputs": [
        {
          "name": "",
          "type": "uint256"
        }
      ],
      "payable": false,
      "stateMutability": "view",
      "type": "function"
    },
    {
      "constant": true,
      "inputs": [],
      "name": "serviceContract",
      "outputs": [
        {
          "name": "",
          "type": "address"
        }
      ],
      "payable": false,
      "stateMutability": "view",
      "type": "function"
    },
    {
      "constant": true,
      "inputs": [
        {
          "name": "",
          "type": "address"
        }
      ],
      "name": "votings",
      "outputs": [
        {
          "name": "",
          "type": "address"
        }
      ],
      "payable": false,
      "stateMutability": "view",
      "type": "function"
    },
    {
      "constant": true,
      "inputs": [
        {
          "name": "",
          "type": "address"
        }
      ],
      "name": "whiteList",
      "outputs": [
        {
          "name": "",
          "type": "bool"
        }
      ],
      "payable": false,
      "stateMutability": "view",
      "type": "function"
    },
    {
      "constant": true,
      "inputs": [],
      "name": "canInitStateParameters",
      "outputs": [
        {
          "name": "",
          "type": "bool"
        }
      ],
      "payable": false,
      "stateMutability": "view",
      "type": "function"
    },
    {
      "constant": true,
      "inputs": [
        {
          "name": "",
          "type": "uint256"
        }
      ],
      "name": "whiteListArr",
      "outputs": [
        {
          "name": "",
          "type": "address"
        }
      ],
      "payable": false,
      "stateMutability": "view",
      "type": "function"
    },
    {
      "constant": true,
      "inputs": [],
      "name": "weiRaised",
      "outputs": [
        {
          "name": "",
          "type": "uint256"
        }
      ],
      "payable": false,
      "stateMutability": "view",
      "type": "function"
    },
    {
      "constant": true,
      "inputs": [],
      "name": "DXCRaised",
      "outputs": [
        {
          "name": "",
          "type": "uint256"
        }
      ],
      "payable": false,
      "stateMutability": "view",
      "type": "function"
    },
    {
      "constant": true,
      "inputs": [],
      "name": "version",
      "outputs": [
        {
          "name": "",
          "type": "bytes32"
        }
      ],
      "payable": false,
      "stateMutability": "view",
      "type": "function"
    },
    {
      "constant": true,
      "inputs": [
        {
          "name": "",
          "type": "uint256"
        }
      ],
      "name": "bonusDXCRates",
      "outputs": [
        {
          "name": "",
          "type": "uint256"
        }
      ],
      "payable": false,
      "stateMutability": "view",
      "type": "function"
    },
    {
      "constant": true,
      "inputs": [],
      "name": "canSetWhiteList",
      "outputs": [
        {
          "name": "",
          "type": "bool"
        }
      ],
      "payable": false,
      "stateMutability": "view",
      "type": "function"
    },
    {
      "constant": true,
      "inputs": [],
      "name": "initialCapital",
      "outputs": [
        {
          "name": "",
          "type": "uint256"
        }
      ],
      "payable": false,
      "stateMutability": "view",
      "type": "function"
    },
    {
      "constant": true,
      "inputs": [],
      "name": "serviceVotingFactory",
      "outputs": [
        {
          "name": "",
          "type": "address"
        }
      ],
      "payable": false,
      "stateMutability": "view",
      "type": "function"
    },
    {
      "constant": true,
      "inputs": [],
      "name": "tokensMintedByDXC",
      "outputs": [
        {
          "name": "",
          "type": "uint256"
        }
      ],
      "payable": false,
      "stateMutability": "view",
      "type": "function"
    },
    {
      "constant": true,
      "inputs": [],
      "name": "fundsRaised",
      "outputs": [
        {
          "name": "",
          "type": "uint256"
        }
      ],
      "payable": false,
      "stateMutability": "view",
      "type": "function"
    },
    {
      "constant": true,
      "inputs": [
        {
          "name": "",
          "type": "uint256"
        }
      ],
      "name": "teamHold",
      "outputs": [
        {
          "name": "",
          "type": "uint256"
        }
      ],
      "payable": false,
      "stateMutability": "view",
      "type": "function"
    },
    {
      "constant": true,
      "inputs": [
        {
          "name": "",
          "type": "address"
        }
      ],
      "name": "services",
      "outputs": [
        {
          "name": "",
          "type": "bool"
        }
      ],
      "payable": false,
      "stateMutability": "view",
      "type": "function"
    },
    {
      "constant": true,
      "inputs": [],
      "name": "description",
      "outputs": [
        {
          "name": "",
          "type": "string"
        }
      ],
      "payable": false,
      "stateMutability": "view",
      "type": "function"
    },
    {
      "constant": true,
      "inputs": [],
      "name": "startTime",
      "outputs": [
        {
          "name": "",
          "type": "uint256"
        }
      ],
      "payable": false,
      "stateMutability": "view",
      "type": "function"
    },
    {
      "constant": true,
      "inputs": [
        {
          "name": "",
          "type": "address"
        }
      ],
      "name": "depositedDXC",
      "outputs": [
        {
          "name": "",
          "type": "uint256"
        }
      ],
      "payable": false,
      "stateMutability": "view",
      "type": "function"
    },
    {
      "constant": true,
      "inputs": [],
      "name": "stateModule",
      "outputs": [
        {
          "name": "",
          "type": "address"
        }
      ],
      "payable": false,
      "stateMutability": "view",
      "type": "function"
    },
    {
      "constant": true,
      "inputs": [],
      "name": "owner",
      "outputs": [
        {
          "name": "",
          "type": "address"
        }
      ],
      "payable": false,
      "stateMutability": "view",
      "type": "function"
    },
    {
      "constant": true,
      "inputs": [],
      "name": "softCap",
      "outputs": [
        {
          "name": "",
          "type": "uint256"
        }
      ],
      "payable": false,
      "stateMutability": "view",
      "type": "function"
    },
    {
      "constant": true,
      "inputs": [],
      "name": "DXC",
      "outputs": [
        {
          "name": "",
          "type": "address"
        }
      ],
      "payable": false,
      "stateMutability": "view",
      "type": "function"
    },
    {
      "constant": true,
      "inputs": [],
      "name": "canInitCrowdsaleParameters",
      "outputs": [
        {
          "name": "",
          "type": "bool"
        }
      ],
      "payable": false,
      "stateMutability": "view",
      "type": "function"
    },
    {
      "constant": true,
      "inputs": [],
      "name": "created_at",
      "outputs": [
        {
          "name": "",
          "type": "uint256"
        }
      ],
      "payable": false,
      "stateMutability": "view",
      "type": "function"
    },
    {
      "constant": true,
      "inputs": [],
      "name": "DXCRate",
      "outputs": [
        {
          "name": "",
          "type": "uint256"
        }
      ],
      "payable": false,
      "stateMutability": "view",
      "type": "function"
    },
    {
      "constant": true,
      "inputs": [],
      "name": "lastWithdrawalTimestamp",
      "outputs": [
        {
          "name": "",
          "type": "uint256"
        }
      ],
      "payable": false,
      "stateMutability": "view",
      "type": "function"
    },
    {
      "constant": true,
      "inputs": [],
      "name": "teamTokensAmount",
      "outputs": [
        {
          "name": "",
          "type": "uint256"
        }
      ],
      "payable": false,
      "stateMutability": "view",
      "type": "function"
    },
    {
      "constant": true,
      "inputs": [],
      "name": "crowdsaleModule",
      "outputs": [
        {
          "name": "",
          "type": "address"
        }
      ],
      "payable": false,
      "stateMutability": "view",
      "type": "function"
    },
    {
      "constant": true,
      "inputs": [],
      "name": "votingFactory",
      "outputs": [
        {
          "name": "",
          "type": "address"
        }
      ],
      "payable": false,
      "stateMutability": "view",
      "type": "function"
    },
    {
      "constant": true,
      "inputs": [],
      "name": "refundable",
      "outputs": [
        {
          "name": "",
          "type": "bool"
        }
      ],
      "payable": false,
      "stateMutability": "view",
      "type": "function"
    },
    {
      "constant": true,
      "inputs": [],
      "name": "canInitBonuses",
      "outputs": [
        {
          "name": "",
          "type": "bool"
        }
      ],
      "payable": false,
      "stateMutability": "view",
      "type": "function"
    },
    {
      "constant": true,
      "inputs": [],
      "name": "newDXCRate",
      "outputs": [
        {
          "name": "",
          "type": "uint256"
        }
      ],
      "payable": false,
      "stateMutability": "view",
      "type": "function"
    },
    {
      "constant": true,
      "inputs": [
        {
          "name": "",
          "type": "address"
        }
      ],
      "name": "initialCapitalIncr",
      "outputs": [
        {
          "name": "",
          "type": "uint256"
        }
      ],
      "payable": false,
      "stateMutability": "view",
      "type": "function"
    },
    {
      "constant": true,
      "inputs": [],
      "name": "etherRate",
      "outputs": [
        {
          "name": "",
          "type": "uint256"
        }
      ],
      "payable": false,
      "stateMutability": "view",
      "type": "function"
    },
    {
      "constant": true,
      "inputs": [
        {
          "name": "",
          "type": "uint256"
        }
      ],
      "name": "bonusEtherRates",
      "outputs": [
        {
          "name": "",
          "type": "uint256"
        }
      ],
      "payable": false,
      "stateMutability": "view",
      "type": "function"
    },
    {
      "constant": true,
      "inputs": [],
      "name": "commissionContract",
      "outputs": [
        {
          "name": "",
          "type": "address"
        }
      ],
      "payable": false,
      "stateMutability": "view",
      "type": "function"
    },
    {
      "constant": true,
      "inputs": [
        {
          "name": "",
          "type": "address"
        }
      ],
      "name": "teamBonuses",
      "outputs": [
        {
          "name": "",
          "type": "uint256"
        }
      ],
      "payable": false,
      "stateMutability": "view",
      "type": "function"
    },
    {
      "constant": true,
      "inputs": [],
      "name": "newEtherRate",
      "outputs": [
        {
          "name": "",
          "type": "uint256"
        }
      ],
      "payable": false,
      "stateMutability": "view",
      "type": "function"
    },
    {
      "constant": true,
      "inputs": [],
      "name": "proxyAPI",
      "outputs": [
        {
          "name": "",
          "type": "address"
        }
      ],
      "payable": false,
      "stateMutability": "view",
      "type": "function"
    },
    {
      "constant": true,
      "inputs": [],
      "name": "dxcPayments",
      "outputs": [
        {
          "name": "",
          "type": "bool"
        }
      ],
      "payable": false,
      "stateMutability": "view",
      "type": "function"
    },
    {
      "constant": true,
      "inputs": [],
      "name": "votingDecisionModule",
      "outputs": [
        {
          "name": "",
          "type": "address"
        }
      ],
      "payable": false,
      "stateMutability": "view",
      "type": "function"
    },
    {
      "constant": true,
      "inputs": [
        {
          "name": "",
          "type": "uint256"
        }
      ],
      "name": "bonusPeriods",
      "outputs": [
        {
          "name": "",
          "type": "uint256"
        }
      ],
      "payable": false,
      "stateMutability": "view",
      "type": "function"
    },
    {
      "constant": true,
      "inputs": [],
      "name": "crowdsaleFinished",
      "outputs": [
        {
          "name": "",
          "type": "bool"
        }
      ],
      "payable": false,
      "stateMutability": "view",
      "type": "function"
    },
    {
      "constant": false,
      "inputs": [
        {
          "name": "newOwner",
          "type": "address"
        }
      ],
      "name": "transferOwnership",
      "outputs": [],
      "payable": false,
      "stateMutability": "nonpayable",
      "type": "function"
    },
    {
      "constant": true,
      "inputs": [],
      "name": "hardCap",
      "outputs": [
        {
          "name": "",
          "type": "uint256"
        }
      ],
      "payable": false,
      "stateMutability": "view",
      "type": "function"
    },
    {
      "constant": true,
      "inputs": [],
      "name": "token",
      "outputs": [
        {
          "name": "",
          "type": "address"
        }
      ],
      "payable": false,
      "stateMutability": "view",
      "type": "function"
    },
    {
      "inputs": [
        {
          "name": "_name",
          "type": "string"
        },
        {
          "name": "_description",
          "type": "string"
        },
        {
          "name": "_serviceContract",
          "type": "address"
        },
        {
          "name": "_votingFactory",
          "type": "address"
        },
        {
          "name": "_serviceVotingFactory",
          "type": "address"
        },
        {
          "name": "_DXC",
          "type": "address"
        },
        {
          "name": "_initialCapital",
          "type": "uint256"
        }
      ],
      "payable": false,
      "stateMutability": "nonpayable",
      "type": "constructor"
    },
    {
      "payable": true,
      "stateMutability": "payable",
      "type": "fallback"
    },
    {
      "constant": false,
      "inputs": [
        {
          "name": "_sender",
          "type": "address"
        }
      ],
      "name": "handleCommissionPayment",
      "outputs": [],
      "payable": true,
      "stateMutability": "payable",
      "type": "function"
    },
    {
      "constant": false,
      "inputs": [
        {
          "name": "_from",
          "type": "address"
        },
        {
          "name": "_amount",
          "type": "uint256"
        }
      ],
      "name": "handleDXCPayment",
      "outputs": [],
      "payable": false,
      "stateMutability": "nonpayable",
      "type": "function"
    },
    {
      "constant": false,
      "inputs": [
        {
          "name": "_address",
          "type": "address"
        },
        {
          "name": "_withdrawalSum",
          "type": "uint256"
        },
        {
          "name": "_dxc",
          "type": "bool"
        }
      ],
      "name": "withdrawal",
      "outputs": [],
      "payable": false,
      "stateMutability": "nonpayable",
      "type": "function"
    },
    {
      "constant": false,
      "inputs": [],
      "name": "makeRefundableByVotingDecision",
      "outputs": [],
      "payable": false,
      "stateMutability": "nonpayable",
      "type": "function"
    },
    {
      "constant": false,
      "inputs": [
        {
          "name": "_service",
          "type": "address"
        }
      ],
      "name": "connectService",
      "outputs": [],
      "payable": false,
      "stateMutability": "nonpayable",
      "type": "function"
    },
    {
      "constant": false,
      "inputs": [
        {
          "name": "_service",
          "type": "address"
        },
        {
          "name": "_method",
          "type": "bytes32"
        },
        {
          "name": "_args",
          "type": "bytes32[10]"
        }
      ],
      "name": "callService",
      "outputs": [],
      "payable": false,
      "stateMutability": "nonpayable",
      "type": "function"
    },
    {
      "constant": false,
      "inputs": [
        {
          "name": "_address",
          "type": "address"
        },
        {
          "name": "_duration",
          "type": "uint256"
        }
      ],
      "name": "holdTokens",
      "outputs": [],
      "payable": false,
      "stateMutability": "nonpayable",
      "type": "function"
    },
    {
      "constant": false,
      "inputs": [
        {
          "name": "_stateModule",
          "type": "address"
        }
      ],
      "name": "setStateModule",
      "outputs": [],
      "payable": false,
      "stateMutability": "nonpayable",
      "type": "function"
    },
    {
      "constant": false,
      "inputs": [
        {
          "name": "_paymentModule",
          "type": "address"
        }
      ],
      "name": "setPaymentModule",
      "outputs": [],
      "payable": false,
      "stateMutability": "nonpayable",
      "type": "function"
    },
    {
      "constant": false,
      "inputs": [
        {
          "name": "_votingDecisionModule",
          "type": "address"
        }
      ],
      "name": "setVotingDecisionModule",
      "outputs": [],
      "payable": false,
      "stateMutability": "nonpayable",
      "type": "function"
    },
    {
      "constant": false,
      "inputs": [
        {
          "name": "_crowdsaleModule",
          "type": "address"
        }
      ],
      "name": "setCrowdsaleModule",
      "outputs": [],
      "payable": false,
      "stateMutability": "nonpayable",
      "type": "function"
    },
    {
      "constant": false,
      "inputs": [
        {
          "name": "_votingFactory",
          "type": "address"
        }
      ],
      "name": "setVotingFactoryAddress",
      "outputs": [],
      "payable": false,
      "stateMutability": "nonpayable",
      "type": "function"
    },
    {
      "constant": false,
      "inputs": [
        {
          "name": "_proxyAPI",
          "type": "address"
        }
      ],
      "name": "setProxyAPI",
      "outputs": [],
      "payable": false,
      "stateMutability": "nonpayable",
      "type": "function"
    },
    {
      "constant": false,
      "inputs": [
        {
          "name": "_apiSettersModule",
          "type": "address"
        }
      ],
      "name": "setApiSettersModule",
      "outputs": [],
      "payable": false,
      "stateMutability": "nonpayable",
      "type": "function"
    },
    {
      "constant": false,
      "inputs": [
        {
          "name": "_serviceVotingFactory",
          "type": "address"
        }
      ],
      "name": "setServiceVotingFactory",
      "outputs": [],
      "payable": false,
      "stateMutability": "nonpayable",
      "type": "function"
    },
    {
      "constant": true,
      "inputs": [
        {
          "name": "_participantAddress",
          "type": "address"
        }
      ],
      "name": "isParticipant",
      "outputs": [
        {
          "name": "",
          "type": "bool"
        }
      ],
      "payable": false,
      "stateMutability": "view",
      "type": "function"
    },
    {
      "constant": false,
      "inputs": [
        {
          "name": "_tokenAddress",
          "type": "address"
        }
      ],
      "name": "initState",
      "outputs": [],
      "payable": false,
      "stateMutability": "nonpayable",
      "type": "function"
    },
    {
      "constant": false,
      "inputs": [
        {
          "name": "_softCap",
          "type": "uint256"
        },
        {
          "name": "_hardCap",
          "type": "uint256"
        },
        {
          "name": "_etherRate",
          "type": "uint256"
        },
        {
          "name": "_DXCRate",
          "type": "uint256"
        },
        {
          "name": "_startTime",
          "type": "uint256"
        },
        {
          "name": "_endTime",
          "type": "uint256"
        },
        {
          "name": "_dxcPayments",
          "type": "bool"
        },
        {
          "name": "_lockup",
          "type": "uint256"
        }
      ],
      "name": "initCrowdsaleParameters",
      "outputs": [],
      "payable": false,
      "stateMutability": "nonpayable",
      "type": "function"
    },
    {
      "constant": false,
      "inputs": [
        {
          "name": "_name",
          "type": "string"
        },
        {
          "name": "_description",
          "type": "string"
        },
        {
          "name": "_duration",
          "type": "uint256"
        },
        {
          "name": "_options",
          "type": "bytes32[]"
        }
      ],
      "name": "addRegular",
      "outputs": [],
      "payable": false,
      "stateMutability": "nonpayable",
      "type": "function"
    },
    {
      "constant": false,
      "inputs": [
        {
          "name": "_name",
          "type": "string"
        },
        {
          "name": "_description",
          "type": "string"
        },
        {
          "name": "_duration",
          "type": "uint256"
        },
        {
          "name": "_sum",
          "type": "uint256"
        },
        {
          "name": "_withdrawalWallet",
          "type": "address"
        },
        {
          "name": "_dxc",
          "type": "bool"
        }
      ],
      "name": "addWithdrawal",
      "outputs": [],
      "payable": false,
      "stateMutability": "nonpayable",
      "type": "function"
    },
    {
      "constant": false,
      "inputs": [
        {
          "name": "_name",
          "type": "string"
        },
        {
          "name": "_description",
          "type": "string"
        },
        {
          "name": "_duration",
          "type": "uint256"
        }
      ],
      "name": "addRefund",
      "outputs": [],
      "payable": false,
      "stateMutability": "nonpayable",
      "type": "function"
    },
    {
      "constant": false,
      "inputs": [
        {
          "name": "_name",
          "type": "string"
        },
        {
          "name": "_description",
          "type": "string"
        },
        {
          "name": "_duration",
          "type": "uint256"
        },
        {
          "name": "_module",
          "type": "uint256"
        },
        {
          "name": "_newAddress",
          "type": "address"
        }
      ],
      "name": "addModule",
      "outputs": [],
      "payable": false,
      "stateMutability": "nonpayable",
      "type": "function"
    },
    {
      "constant": false,
      "inputs": [
        {
          "name": "_name",
          "type": "string"
        },
        {
          "name": "_description",
          "type": "string"
        },
        {
          "name": "_duration",
          "type": "uint256"
        },
        {
          "name": "_service",
          "type": "address"
        }
      ],
      "name": "addNewService",
      "outputs": [],
      "payable": false,
      "stateMutability": "nonpayable",
      "type": "function"
    },
    {
      "constant": false,
      "inputs": [
        {
          "name": "_name",
          "type": "string"
        },
        {
          "name": "_description",
          "type": "string"
        },
        {
          "name": "_duration",
          "type": "uint256"
        },
        {
          "name": "_service",
          "type": "address"
        },
        {
          "name": "_method",
          "type": "bytes32"
        },
        {
          "name": "_args",
          "type": "bytes32[10]"
        }
      ],
      "name": "addCallService",
      "outputs": [],
      "payable": false,
      "stateMutability": "nonpayable",
      "type": "function"
    },
    {
      "constant": false,
      "inputs": [],
      "name": "makeRefundableByUser",
      "outputs": [],
      "payable": false,
      "stateMutability": "nonpayable",
      "type": "function"
    },
    {
      "constant": false,
      "inputs": [],
      "name": "refund",
      "outputs": [],
      "payable": false,
      "stateMutability": "nonpayable",
      "type": "function"
    },
    {
      "constant": false,
      "inputs": [],
      "name": "refundSoftCap",
      "outputs": [],
      "payable": false,
      "stateMutability": "nonpayable",
      "type": "function"
    },
    {
      "constant": false,
      "inputs": [],
      "name": "finish",
      "outputs": [],
      "payable": false,
      "stateMutability": "nonpayable",
      "type": "function"
    },
    {
      "constant": false,
      "inputs": [
        {
          "name": "_team",
          "type": "address[]"
        },
        {
          "name": "_tokenPercents",
          "type": "uint256[]"
        },
        {
          "name": "_bonusPeriods",
          "type": "uint256[]"
        },
        {
          "name": "_bonusEtherRates",
          "type": "uint256[]"
        },
        {
          "name": "_bonusDXCRates",
          "type": "uint256[]"
        },
        {
          "name": "_teamHold",
          "type": "uint256[]"
        },
        {
          "name": "_service",
          "type": "bool[]"
        }
      ],
      "name": "initBonuses",
      "outputs": [],
      "payable": false,
      "stateMutability": "nonpayable",
      "type": "function"
    },
    {
      "constant": false,
      "inputs": [
        {
          "name": "_addresses",
          "type": "address[]"
        }
      ],
      "name": "setWhiteList",
      "outputs": [],
      "payable": false,
      "stateMutability": "nonpayable",
      "type": "function"
    },
    {
      "constant": false,
      "inputs": [
        {
          "name": "signature",
          "type": "string"
        },
        {
          "name": "value",
          "type": "bytes32"
        }
      ],
      "name": "handleAPICall",
      "outputs": [],
      "payable": false,
      "stateMutability": "nonpayable",
      "type": "function"
    }
  ],
  "bytecode": "0x60806040526006805463ff0000001962ff00001961ff001960ff19938416600117811661010017919091166201000017919091166301000000179092556000600781905560088190556009819055600a819055600d8054909316909255600e829055600f82905542601c55601e80549091169055601f819055602b819055602c819055602d553480156200009257600080fd5b50604051620037ea380380620037ea8339810160409081528151602080840151928401516060850151608086015160a087015160c088015160318054600160a060020a031916331790559588018051909897909701969395929491939092916200010291601a918a019062000191565b5085516200011890601b90602089019062000191565b5060108054600160a060020a03808816600160a060020a03199283161790925560178054878416908316179055601880548684169083161790556027805492851692909116919091179055602c819055600a810415156200017b57600162000180565b600a81045b602d55506200023695505050505050565b828054600181600116156101000203166002900490600052602060002090601f016020900481019282601f10620001d457805160ff191683800117855562000204565b8280016001018555821562000204579182015b8281111562000204578251825591602001919060010190620001e7565b506200021292915062000216565b5090565b6200023391905b808211156200021257600081556001016200021d565b90565b6135a480620002466000396000f3006080604052600436106104105763ffffffff60e060020a60003504166306490f4781146104ad57806306fdde03146104d45780630ce57c251461055e5780630eed6e8d1461057357806310be8d121461059657806312337993146105cb578063197ebd53146105ec5780631a15b206146106205780631e782df514610644578063264b723814610659578063289a03b01461067a5780632948b4e91461068f5780632d9d4b53146106a45780632eeacc5f146106b957806330a1cc96146106d157806330c5a0f2146106e65780633197cbb6146106fe578063364dab1014610713578063369ef72214610728578063372c12b114610749578063395ad0211461076a5780633b541bdb1461077f5780633f4bbe6a146107975780634042b66f146108305780634f06536814610845578063544213811461085a57806354fd4d501461090257806356428fe514610917578063590e1ae31461092f5780635c602aee146109445780635f30b64514610959578063601e538b1461096e578063620958411461098357806362a2b372146109a457806362c64639146109b95780636681b9fd146109ce5780636922b214146109e35780636d966d01146109fb5780637196a31a14610a1c5780637284e41614610af3578063775b9c1314610b0857806378e9792514610b5d5780637d6d3b8c14610b7257806381bb60de14610b9357806386114fcf14610bb45780638cfc5a5014610bd55780638da5cb5b14610bea578063906a26e014610bff5780639083682214610c14578063929066f514610c29578063939eaf9f14610c4a5780639b95a83514610c6e5780639c6f0d8514610c835780639e58779e14610c98578063a62c416914610cad578063a88f893a14610cc2578063a97e788c14610cd7578063aaf793c614610cec578063b3c7aee714610d0d578063bb24c54b14610d3c578063bef24bb414610d51578063bf89662d14610d75578063c0ef7a6d14610d8a578063c18f18e814610d9f578063c2bf7aef14610db4578063c6610c4214610ddd578063c8e56b0e14610e91578063cb6d099e14610f6e578063cc9e4fd414611119578063d00e22181461113a578063d0f7a601146111e7578063d3da6628146111fc578063d411fffc14611211578063d56b288914611237578063da7801b31461124c578063da8909e514611264578063db13c72514611279578063dbae9a701461129a578063e2278f2f146112ae578063e2a7937b146112c3578063e39c3301146112d8578063e3bd043a146112f9578063e70e37371461130e578063e90d4fb81461132f578063e9fdfb8914611344578063ece84fd51461135c578063ee5e758c14611371578063f00300a314611392578063f2fde38b146113a7578063fb86a404146113c8578063fc0c546a146113dd578063fc4f89aa146113f2575b603554604080517f36a82087000000000000000000000000000000000000000000000000000000008152600160a060020a039092166004830152336024830152600060448301819052905173__DAOProxy______________________________926336a82087926064808301939192829003018186803b15801561049357600080fd5b505af41580156104a7573d6000803e3d6000fd5b50505050005b3480156104b957600080fd5b506104c2611413565b60408051918252519081900360200190f35b3480156104e057600080fd5b506104e9611419565b6040805160208082528351818301528351919283929083019185019080838360005b8381101561052357818101518382015260200161050b565b50505050905090810190601f1680156105505780820380516001836020036101000a031916815260200191505b509250505060405180910390f35b34801561056a57600080fd5b506104c26114a7565b34801561057f57600080fd5b50610594600160a060020a03600435166114ad565b005b3480156105a257600080fd5b506105b7600160a060020a0360043516611524565b604080519115158252519081900360200190f35b3480156105d757600080fd5b506104c2600160a060020a0360043516611539565b3480156105f857600080fd5b5061060460043561154b565b60408051600160a060020a039092168252519081900360200190f35b34801561062c57600080fd5b50610594600160a060020a0360043516602435611573565b34801561065057600080fd5b506104c2611614565b34801561066557600080fd5b50610594600160a060020a036004351661161a565b34801561068657600080fd5b506105b7611691565b34801561069b57600080fd5b506104c261169f565b3480156106b057600080fd5b506106046116a5565b3480156106c557600080fd5b506104c26004356116b4565b3480156106dd57600080fd5b506106046116d3565b3480156106f257600080fd5b506105b76004356116e2565b34801561070a57600080fd5b506104c2611714565b34801561071f57600080fd5b5061060461171a565b34801561073457600080fd5b50610604600160a060020a0360043516611729565b34801561075557600080fd5b506105b7600160a060020a0360043516611744565b34801561077657600080fd5b506105b7611759565b34801561078b57600080fd5b50610604600435611767565b3480156107a357600080fd5b506040805160206004803580820135601f810184900484028501840190955284845261059494369492936024939284019190819084018382808284375050604080516020601f89358b018035918201839004830284018301909452808352979a99988101979196509182019450925082915084018382808284375094975050933594506117759350505050565b34801561083c57600080fd5b506104c2611920565b34801561085157600080fd5b506104c2611926565b34801561086657600080fd5b506040805160206004803580820135601f810184900484028501840190955284845261059494369492936024939284019190819084018382808284375050604080516020601f89358b018035918201839004830284018301909452808352979a9998810197919650918201945092508291508401838280828437509497505084359550505050602090910135600160a060020a0316905061192c565b34801561090e57600080fd5b506104c2611af2565b34801561092357600080fd5b506104c2600435611b16565b34801561093b57600080fd5b50610594611b24565b34801561095057600080fd5b50610594611bae565b34801561096557600080fd5b506105b7611c24565b34801561097a57600080fd5b506104c2611c34565b34801561098f57600080fd5b50610594600160a060020a0360043516611c3a565b3480156109b057600080fd5b50610604611cb1565b3480156109c557600080fd5b506104c2611cc0565b3480156109da57600080fd5b506104c2611cc6565b3480156109ef57600080fd5b506104c2600435611ccc565b348015610a0757600080fd5b506105b7600160a060020a0360043516611cda565b348015610a2857600080fd5b506040805160206004803580820135601f810184900484028501840190955284845261059494369492936024939284019190819084018382808284375050604080516020601f89358b018035918201839004830284018301909452808352979a99988101979196509182019450925082915084018382808284375050604080516020808901358a01803580830284810184018652818552999c8b359c909b909a950198509296508101945090925082919085019084908082843750949750611cef9650505050505050565b348015610aff57600080fd5b506104e9611e9f565b348015610b1457600080fd5b506040805160206004803580820135838102808601850190965280855261059495369593946024949385019291829185019084908082843750949750611efa9650505050505050565b348015610b6957600080fd5b506104c2611fb3565b348015610b7e57600080fd5b506104c2600160a060020a0360043516611fb9565b348015610b9f57600080fd5b50610594600160a060020a0360043516611fcb565b348015610bc057600080fd5b50610594600160a060020a0360043516612042565b348015610be157600080fd5b506106046120d4565b348015610bf657600080fd5b506106046120e3565b348015610c0b57600080fd5b506104c26120f2565b348015610c2057600080fd5b506106046120f8565b348015610c3557600080fd5b506105b7600160a060020a0360043516612107565b348015610c5657600080fd5b50610594600160a060020a03600435166024356121a3565b348015610c7a57600080fd5b506105b761232d565b348015610c8f57600080fd5b506104c2612336565b348015610ca457600080fd5b506104c261233c565b348015610cb957600080fd5b506104c2612342565b348015610cce57600080fd5b506104c2612348565b348015610ce357600080fd5b5061060461234e565b348015610cf857600080fd5b50610594600160a060020a036004351661235d565b348015610d1957600080fd5b5061059460043560243560443560643560843560a43560c435151560e4356123d4565b348015610d4857600080fd5b506106046124a7565b348015610d5d57600080fd5b506105946024600480358281019291013590356124b6565b348015610d8157600080fd5b506105b76125d2565b348015610d9657600080fd5b506105b76125db565b348015610dab57600080fd5b506104c26125ea565b348015610dc057600080fd5b50610594600160a060020a036004351660243560443515156125f0565b348015610de957600080fd5b506040805160206004803580820135601f810184900484028501840190955284845261059494369492936024939284019190819084018382808284375050604080516020601f89358b018035918201839004830284018301909452808352979a99988101979196509182019450925082915084018382808284375094975050843595505050602083013592600160a060020a036040820135169250606001351515905061269a565b348015610e9d57600080fd5b506040805160206004803580820135601f810184900484028501840190955284845261059494369492936024939284019190819084018382808284375050604080516020601f89358b018035918201839004830284018301909452808352979a999881019791965091820194509250829150840183828082843750506040805161014081810183529699883599600160a060020a0360208b01351699938401359891975095506101a083019450909250606090910190600a9083908390808284375093965061289e95505050505050565b348015610f7a57600080fd5b506040805160206004803580820135838102808601850190965280855261059495369593946024949385019291829185019084908082843750506040805187358901803560208181028481018201909552818452989b9a998901989297509082019550935083925085019084908082843750506040805187358901803560208181028481018201909552818452989b9a998901989297509082019550935083925085019084908082843750506040805187358901803560208181028481018201909552818452989b9a998901989297509082019550935083925085019084908082843750506040805187358901803560208181028481018201909552818452989b9a998901989297509082019550935083925085019084908082843750506040805187358901803560208181028481018201909552818452989b9a998901989297509082019550935083925085019084908082843750506040805187358901803560208181028481018201909552818452989b9a998901989297509082019550935083925085019084908082843750949750612a9a9650505050505050565b34801561112557600080fd5b506104c2600160a060020a0360043516612c7f565b34801561114657600080fd5b506040805160206004803580820135601f810184900484028501840190955284845261059494369492936024939284019190819084018382808284375050604080516020601f89358b018035918201839004830284018301909452808352979a9998810197919650918201945092508291508401838280828437509497505084359550505060208301359260400135600160a060020a03169150612c919050565b3480156111f357600080fd5b506104c2612e58565b34801561120857600080fd5b50610594612e5e565b34801561121d57600080fd5b50610594600160a060020a03600435166024356044612ed4565b34801561124357600080fd5b50610594612f6f565b34801561125857600080fd5b506104c2600435612fe5565b34801561127057600080fd5b50610604612ff3565b34801561128557600080fd5b506104c2600160a060020a0360043516613002565b610594600160a060020a0360043516613014565b3480156112ba57600080fd5b506104c2613099565b3480156112cf57600080fd5b5061060461309f565b3480156112e457600080fd5b50610594600160a060020a03600435166130ae565b34801561130557600080fd5b506105b7613125565b34801561131a57600080fd5b50610594600160a060020a036004351661312e565b34801561133b57600080fd5b506106046131a5565b34801561135057600080fd5b506104c26004356131b4565b34801561136857600080fd5b506105b76131c2565b34801561137d57600080fd5b50610594600160a060020a03600435166131cb565b34801561139e57600080fd5b50610594613249565b3480156113b357600080fd5b50610594600160a060020a03600435166132bf565b3480156113d457600080fd5b506104c26132fb565b3480156113e957600080fd5b50610604613301565b3480156113fe57600080fd5b50610594600160a060020a0360043516613310565b602b5481565b601a805460408051602060026001851615610100026000190190941693909304601f8101849004840282018401909252818152929183018282801561149f5780601f106114745761010080835404028352916020019161149f565b820191906000526020600020905b81548152906001019060200180831161148257829003601f168201915b505050505081565b60285481565b603254336000908152601d6020526040902054600160a060020a0391821691161515806114f65750600160a060020a0381161580156114f65750603154600160a060020a031633145b151561150157600080fd5b5060328054600160a060020a031916600160a060020a0392909216919091179055565b60136020526000908152604090205460ff1681565b600b6020526000908152604090205481565b601280548290811061155957fe5b600091825260209091200154600160a060020a0316905081565b603454604080517fe1ed075f000000000000000000000000000000000000000000000000000000008152600160a060020a0392831660048201529184166024830152604482018390525173__DAOProxy______________________________9163e1ed075f916064808301926000929190829003018186803b1580156115f857600080fd5b505af415801561160c573d6000803e3d6000fd5b505050505050565b60075481565b601854336000908152601d6020526040902054600160a060020a0391821691161515806116635750600160a060020a0381161580156116635750603154600160a060020a031633145b151561166e57600080fd5b5060188054600160a060020a031916600160a060020a0392909216919091179055565b600d54610100900460ff1681565b602d5481565b603654600160a060020a031681565b60118054829081106116c257fe5b600091825260209091200154905081565b603354600160a060020a031681565b60158054829081106116f057fe5b9060005260206000209060209182820401919006915054906101000a900460ff1681565b60055481565b601054600160a060020a031681565b601d60205260009081526040902054600160a060020a031681565b60216020526000908152604090205460ff1681565b600654610100900460ff1681565b602080548290811061155957fe5b600073__DAOLib________________________________635a3a1008601760009054906101000a9004600160a060020a0316868686306040518663ffffffff1660e060020a0281526004018086600160a060020a0316600160a060020a03168152602001806020018060200185815260200184600160a060020a0316600160a060020a03168152602001838103835287818151815260200191508051906020019080838360005b8381101561183457818101518382015260200161181c565b50505050905090810190601f1680156118615780820380516001836020036101000a031916815260200191505b50838103825286518152865160209182019188019080838360005b8381101561189457818101518382015260200161187c565b50505050905090810190601f1680156118c15780820380516001836020036101000a031916815260200191505b5097505050505050505060206040518083038186803b1580156118e357600080fd5b505af41580156118f7573d6000803e3d6000fd5b505050506040513d602081101561190d57600080fd5b5051905061191a81613387565b50505050565b60085481565b60095481565b600073__DAOLib________________________________633110ff33601860009054906101000a9004600160a060020a031687878787306040518763ffffffff1660e060020a0281526004018087600160a060020a0316600160a060020a03168152602001806020018060200186815260200185600160a060020a0316600160a060020a0316815260200184600160a060020a0316600160a060020a03168152602001838103835288818151815260200191508051906020019080838360005b83811015611a045781810151838201526020016119ec565b50505050905090810190601f168015611a315780820380516001836020036101000a031916815260200191505b50838103825287518152875160209182019189019080838360005b83811015611a64578181015183820152602001611a4c565b50505050905090810190601f168015611a915780820380516001836020036101000a031916815260200191505b509850505050505050505060206040518083038186803b158015611ab457600080fd5b505af4158015611ac8573d6000803e3d6000fd5b505050506040513d6020811015611ade57600080fd5b50519050611aeb81613387565b5050505050565b7f312e302e3000000000000000000000000000000000000000000000000000000081565b60258054829081106116c257fe5b603354604080517ffbcebd02000000000000000000000000000000000000000000000000000000008152600160a060020a0390921660048301525173__DAOProxy______________________________9163fbcebd02916024808301926000929190829003018186803b158015611b9a57600080fd5b505af415801561191a573d6000803e3d6000fd5b603454604080517fffb2cc41000000000000000000000000000000000000000000000000000000008152600160a060020a0390921660048301525173__DAOProxy______________________________9163ffb2cc41916024808301926000929190829003018186803b158015611b9a57600080fd5b6006546301000000900460ff1681565b602c5481565b603554336000908152601d6020526040902054600160a060020a039182169116151580611c835750600160a060020a038116158015611c835750603154600160a060020a031633145b1515611c8e57600080fd5b5060358054600160a060020a031916600160a060020a0392909216919091179055565b601854600160a060020a031681565b60295481565b600a5481565b60148054829081106116c257fe5b60306020526000908152604090205460ff1681565b600073__DAOLib________________________________63cb093842601760009054906101000a9004600160a060020a031687878787306040518763ffffffff1660e060020a0281526004018087600160a060020a0316600160a060020a0316815260200180602001806020018681526020018060200185600160a060020a0316600160a060020a03168152602001848103845289818151815260200191508051906020019080838360005b83811015611db3578181015183820152602001611d9b565b50505050905090810190601f168015611de05780820380516001836020036101000a031916815260200191505b5084810383528851815288516020918201918a019080838360005b83811015611e13578181015183820152602001611dfb565b50505050905090810190601f168015611e405780820380516001836020036101000a031916815260200191505b508481038252865181528651602091820191808901910280838360005b83811015611e75578181015183820152602001611e5d565b50505050905001995050505050505050505060206040518083038186803b158015611ab457600080fd5b601b805460408051602060026001851615610100026000190190941693909304601f8101849004840282018401909252818152929183018282801561149f5780601f106114745761010080835404028352916020019161149f565b6031546000903390600160a060020a03168114611f1657600080fd5b6006546301000000900460ff161515611f2e57600080fd5b8251611f4090602090818601906133cc565b50600091505b8251821015611fa1576001602160008585815181101515611f6357fe5b602090810291909101810151600160a060020a03168252810191909152604001600020805460ff191691151591909117905560019190910190611f46565b50506006805463ff0000001916905550565b60045481565b600c6020526000908152604090205481565b603354336000908152601d6020526040902054600160a060020a0391821691161515806120145750600160a060020a0381161580156120145750603154600160a060020a031633145b151561201f57600080fd5b5060338054600160a060020a031916600160a060020a0392909216919091179055565b603454604080517fd14e3a61000000000000000000000000000000000000000000000000000000008152600160a060020a03928316600482015291831660248301525173__DAOProxy______________________________9163d14e3a61916044808301926000929190829003018186803b1580156120c057600080fd5b505af4158015611aeb573d6000803e3d6000fd5b603254600160a060020a031681565b603154600160a060020a031681565b60025481565b602754600160a060020a031681565b601654604080517f70a08231000000000000000000000000000000000000000000000000000000008152600160a060020a0384811660048301529151600093849316916370a0823191602480830192602092919082900301818787803b15801561217057600080fd5b505af1158015612184573d6000803e3d6000fd5b505050506040513d602081101561219a57600080fd5b50511192915050565b60065460ff16806121b5575060045442105b806121d55750600d5460ff1680156121d55750600d54610100900460ff16155b1561227c57603354604080517fedf4d0f6000000000000000000000000000000000000000000000000000000008152600160a060020a0392831660048201529184166024830152604482018390525173__DAOProxy______________________________9163edf4d0f6916064808301926000929190829003018186803b15801561225f57600080fd5b505af4158015612273573d6000803e3d6000fd5b50505050612329565b600454421015801561229057506005544211155b801561229f5750600d5460ff16155b1561232957603554604080517fedf4d0f6000000000000000000000000000000000000000000000000000000008152600160a060020a0392831660048201529184166024830152604482018390525173__DAOProxy______________________________9163edf4d0f6916064808301926000929190829003018186803b1580156115f857600080fd5b5050565b60065460ff1681565b601c5481565b60015481565b601f5481565b60265481565b603554600160a060020a031681565b601754336000908152601d6020526040902054600160a060020a0391821691161515806123a65750600160a060020a0381161580156123a65750603154600160a060020a031633145b15156123b157600080fd5b5060178054600160a060020a031916600160a060020a0392909216919091179055565b603554604080517fa7fd1217000000000000000000000000000000000000000000000000000000008152600160a060020a039092166004830152602482018a905260448201899052606482018890526084820187905260a4820186905260c4820185905283151560e483015261010482018390525173__DAOProxy______________________________9163a7fd121791610124808301926000929190829003018186803b15801561248557600080fd5b505af4158015612499573d6000803e3d6000fd5b505050505050505050505050565b601754600160a060020a031681565b602f54600160a060020a0316331461255557604080517f08c379a000000000000000000000000000000000000000000000000000000000815260206004820152602e60248201527f4d6574686f642063616e2062652063616c6c6564206f6e6c792062792050726f60448201527f787941504920636f6e7472616374000000000000000000000000000000000000606482015290519081900360840190fd5b603654604051600160a060020a03909116908490849080838380828437820191505092505050604051809103902060e060020a9004826040518263ffffffff1660e060020a028152600401808260001916600019168152602001915050600060405180830381865af49250505015156125cd57600080fd5b505050565b601e5460ff1681565b60065462010000900460ff1681565b600f5481565b603454604080517fca7d9004000000000000000000000000000000000000000000000000000000008152600160a060020a03928316600482015291851660248301526044820184905282151560648301525173__DAOProxy______________________________9163ca7d9004916084808301926000929190829003018186803b15801561267d57600080fd5b505af4158015612691573d6000803e3d6000fd5b50505050505050565b33601d600073__DAOLib________________________________639bc19f84601760009054906101000a9004600160a060020a03168b8b8b8b8b8b306040518963ffffffff1660e060020a0281526004018089600160a060020a0316600160a060020a03168152602001806020018060200188815260200187815260200186600160a060020a0316600160a060020a031681526020018515151515815260200184600160a060020a0316600160a060020a0316815260200183810383528a818151815260200191508051906020019080838360005b8381101561278757818101518382015260200161276f565b50505050905090810190601f1680156127b45780820380516001836020036101000a031916815260200191505b5083810382528951815289516020918201918b019080838360005b838110156127e75781810151838201526020016127cf565b50505050905090810190601f1680156128145780820380516001836020036101000a031916815260200191505b509a505050505050505050505060206040518083038186803b15801561283957600080fd5b505af415801561284d573d6000803e3d6000fd5b505050506040513d602081101561286357600080fd5b5051600160a060020a03908116825260208201929092526040016000208054600160a060020a03191692909116919091179055505050505050565b600073__DAOLib________________________________634d68b07f601860009054906101000a9004600160a060020a0316898989898989306040518963ffffffff1660e060020a0281526004018089600160a060020a0316600160a060020a03168152602001806020018060200188815260200187600160a060020a0316600160a060020a03168152602001866000191660001916815260200185600a60200280838360005b8381101561295d578181015183820152602001612945565b5050505090500184600160a060020a0316600160a060020a0316815260200183810383528a818151815260200191508051906020019080838360005b838110156129b1578181015183820152602001612999565b50505050905090810190601f1680156129de5780820380516001836020036101000a031916815260200191505b5083810382528951815289516020918201918b019080838360005b83811015612a115781810151838201526020016129f9565b50505050905090810190601f168015612a3e5780820380516001836020036101000a031916815260200191505b509a505050505050505050505060206040518083038186803b158015612a6357600080fd5b505af4158015612a77573d6000803e3d6000fd5b505050506040513d6020811015612a8d57600080fd5b5051905061269181613387565b6031546000903390600160a060020a03168114612ab657600080fd5b87518951148015612ac8575083518951145b8015612ad5575082518951145b8015612ae2575085518751145b8015612af8575084511580612af8575084518751145b8015612b0c575060065462010000900460ff165b8015612b255750600454421080612b25575060065460ff165b1515612b3057600080fd5b8851612b439060129060208c01906133cc565b508351612b57906014906020870190613431565b508751612b6b9060119060208b0190613431565b508251612b7f906015906020860190613478565b50600091505b8851821015612c2c576001601360008b85815181101515612ba257fe5b602090810291909101810151600160a060020a03168252810191909152604001600020805460ff19169115159190911790558751889083908110612be257fe5b90602001906020020151602260008b85815181101515612bfe57fe5b6020908102909101810151600160a060020a0316825281019190915260400160002055600190910190612b85565b8651612c3f9060239060208a0190613431565b508551612c53906024906020890190613431565b508451612c67906025906020880190613431565b50506006805462ff0000191690555050505050505050565b602e6020526000908152604090205481565b600073__DAOLib________________________________636ddec623601860009054906101000a9004600160a060020a03168888888888306040518863ffffffff1660e060020a0281526004018088600160a060020a0316600160a060020a03168152602001806020018060200187815260200186815260200185600160a060020a0316600160a060020a0316815260200184600160a060020a0316600160a060020a03168152602001838103835289818151815260200191508051906020019080838360005b83811015612d70578181015183820152602001612d58565b50505050905090810190601f168015612d9d5780820380516001836020036101000a031916815260200191505b5083810382528851815288516020918201918a019080838360005b83811015612dd0578181015183820152602001612db8565b50505050905090810190601f168015612dfd5780820380516001836020036101000a031916815260200191505b50995050505050505050505060206040518083038186803b158015612e2157600080fd5b505af4158015612e35573d6000803e3d6000fd5b505050506040513d6020811015612e4b57600080fd5b5051905061160c81613387565b60005481565b603354604080517ffa9e93b1000000000000000000000000000000000000000000000000000000008152600160a060020a0390921660048301525173__DAOProxy______________________________9163fa9e93b1916024808301926000929190829003018186803b158015611b9a57600080fd5b6034546040517fa6452ccc000000000000000000000000000000000000000000000000000000008152600160a060020a039182166004820181815292861660248301526044820185905273__DAOProxy______________________________9263a6452ccc92879187918791906064018261014080828437820191505094505050505060006040518083038186803b15801561267d57600080fd5b603554604080517f49e0e327000000000000000000000000000000000000000000000000000000008152600160a060020a0390921660048301525173__DAOProxy______________________________916349e0e327916024808301926000929190829003018186803b158015611b9a57600080fd5b60248054829081106116c257fe5b601954600160a060020a031681565b60226020526000908152604090205481565b603554604080517f36a82087000000000000000000000000000000000000000000000000000000008152600160a060020a0392831660048201529183166024830152600160448301525173__DAOProxy______________________________916336a82087916064808301926000929190829003018186803b1580156120c057600080fd5b600e5481565b602f54600160a060020a031681565b602f54336000908152601d6020526040902054600160a060020a0391821691161515806130f75750600160a060020a0381161580156130f75750603154600160a060020a031633145b151561310257600080fd5b50602f8054600160a060020a031916600160a060020a0392909216919091179055565b602a5460ff1681565b603454336000908152601d6020526040902054600160a060020a0391821691161515806131775750600160a060020a0381161580156131775750603154600160a060020a031633145b151561318257600080fd5b5060348054600160a060020a031916600160a060020a0392909216919091179055565b603454600160a060020a031681565b60238054829081106116c257fe5b600d5460ff1681565b603254604080517f40966ef3000000000000000000000000000000000000000000000000000000008152600160a060020a03928316600482015291831660248301525173__DAOProxy______________________________916340966ef3916044808301926000929190829003018186803b1580156120c057600080fd5b603454604080517fbf38adb3000000000000000000000000000000000000000000000000000000008152600160a060020a0390921660048301525173__DAOProxy______________________________9163bf38adb3916024808301926000929190829003018186803b158015611b9a57600080fd5b6031543390600160a060020a031681146132d857600080fd5b5060318054600160a060020a031916600160a060020a0392909216919091179055565b60035481565b601654600160a060020a031681565b603654336000908152601d6020526040902054600160a060020a0391821691161515806133595750600160a060020a0381161580156133595750603154600160a060020a031633145b151561336457600080fd5b5060368054600160a060020a031916600160a060020a0392909216919091179055565b600160a060020a03166000908152601d602090815260408083208054600160a060020a03191633908117909155602d54908452602e9092529091208054919091039055565b828054828255906000526020600020908101928215613421579160200282015b828111156134215782518254600160a060020a031916600160a060020a039091161782556020909201916001909101906133ec565b5061342d929150613519565b5090565b82805482825590600052602060002090810192821561346c579160200282015b8281111561346c578251825591602001919060010190613451565b5061342d929150613540565b82805482825590600052602060002090601f0160209004810192821561350d5791602002820160005b838211156134de57835183826101000a81548160ff02191690831515021790555092602001926001016020816000010492830192600103026134a1565b801561350b5782816101000a81549060ff02191690556001016020816000010492830192600103026134de565b505b5061342d92915061355a565b61353d91905b8082111561342d578054600160a060020a031916815560010161351f565b90565b61353d91905b8082111561342d5760008155600101613546565b61353d91905b8082111561342d57805460ff191681556001016135605600a165627a7a72305820e6f2516d02e1f700879942218e016c829224f1a669c77b9fce3e3497ae0caece0029",
  "source": "pragma solidity 0.4.24;\n\nimport \"./DAOLib.sol\";\nimport \"./CrowdsaleDAOFields.sol\";\nimport \"../Common.sol\";\nimport \"./Owned.sol\";\nimport \"./DAOProxy.sol\";\n\ncontract CrowdsaleDAO is CrowdsaleDAOFields, Owned {\n    address public stateModule;\n    address public paymentModule;\n    address public votingDecisionModule;\n    address public crowdsaleModule;\n    address public apiSettersModule;\n\n    function CrowdsaleDAO(string _name, string _description, address _serviceContract, address _votingFactory, address _serviceVotingFactory, address _DXC, uint _initialCapital)\n    Owned(msg.sender) {\n        name = _name;\n        description = _description;\n        serviceContract = _serviceContract;\n        votingFactory = VotingFactoryInterface(_votingFactory);\n        serviceVotingFactory = IServiceVotingFactory(_serviceVotingFactory);\n        DXC = TokenInterface(_DXC);\n        initialCapital = _initialCapital;\n        votingPrice = _initialCapital/10 != 0 ? _initialCapital/10 : 1;\n    }\n\n    /*\n    * @dev Receives ether and forwards to the crowdsale module via a delegatecall with commission flag equal to false\n    */\n    function() payable {\n        DAOProxy.delegatedHandlePayment(crowdsaleModule, msg.sender, false);\n    }\n\n    /*\n    * @dev Receives ether from commission contract and forwards to the crowdsale module\n    *       via a delegatecall with commission flag equal to true\n    * @param _sender Address which sent ether to commission contract\n    */\n    function handleCommissionPayment(address _sender) payable {\n        DAOProxy.delegatedHandlePayment(crowdsaleModule, _sender, true);\n    }\n\n    /*\n    * @dev Receives info about address which sent DXC tokens to current contract and about amount of sent tokens from\n    *       DXC token contract and then forwards this data to the crowdsale/payment module\n    * @param _from Address which sent DXC tokens\n    * @param _amount Amount of tokens which were sent\n    */\n    function handleDXCPayment(address _from, uint _amount) {\n        if(canInitCrowdsaleParameters || now < startTime || (crowdsaleFinished && !refundableSoftCap)) DAOProxy.delegatedHandleDXCPayment(paymentModule, _from, _amount);\n        else if(now >= startTime && now <= endTime && !crowdsaleFinished) DAOProxy.delegatedHandleDXCPayment(crowdsaleModule, _from, _amount);\n    }\n\n    /*\n    * @dev Receives decision from withdrawal voting and forwards it to the voting decisions module\n    * @param _address Address for withdrawal\n    * @param _withdrawalSum Amount of ether/DXC tokens which must be sent to withdrawal address\n    * @param _dxc boolean indicating whether withdrawal should be made through DXC tokens or not\n    */\n    function withdrawal(address _address, uint _withdrawalSum, bool _dxc) external {\n        DAOProxy.delegatedWithdrawal(votingDecisionModule, _address, _withdrawalSum, _dxc);\n    }\n\n    /*\n    * @dev Receives decision from refund voting and forwards it to the voting decisions module\n    */\n    function makeRefundableByVotingDecision() external {\n        DAOProxy.delegatedMakeRefundableByVotingDecision(votingDecisionModule);\n    }\n\n    function connectService(address _service) external {\n        DAOProxy.delegatedConnectService(votingDecisionModule, _service);\n    }\n\n    function callService(address _service, bytes32 _method, bytes32[10] _args) external {\n        DAOProxy.delegatedCallService(votingDecisionModule, _service, _method, _args);\n    }\n\n    /*\n    * @dev Called by voting contract to hold tokens of voted address.\n    *      It is needed to prevent multiple votes with same tokens\n    * @param _address Voted address\n    * @param _duration Amount of time left for voting to be finished\n    */\n    function holdTokens(address _address, uint _duration) external {\n        DAOProxy.delegatedHoldTokens(votingDecisionModule, _address, _duration);\n    }\n\n    function setStateModule(address _stateModule) external canSetAddress(stateModule) {\n        stateModule = _stateModule;\n    }\n\n    function setPaymentModule(address _paymentModule) external canSetAddress(paymentModule) {\n        paymentModule = _paymentModule;\n    }\n\n    function setVotingDecisionModule(address _votingDecisionModule) external canSetAddress(votingDecisionModule) {\n        votingDecisionModule = _votingDecisionModule;\n    }\n\n    function setCrowdsaleModule(address _crowdsaleModule) external canSetAddress(crowdsaleModule) {\n        crowdsaleModule = _crowdsaleModule;\n    }\n\n    function setVotingFactoryAddress(address _votingFactory) external canSetAddress(votingFactory) {\n        votingFactory = VotingFactoryInterface(_votingFactory);\n    }\n\n    function setProxyAPI(address _proxyAPI) external canSetAddress(proxyAPI) {\n        proxyAPI = _proxyAPI;\n    }\n\n    function setApiSettersModule(address _apiSettersModule) external canSetAddress(apiSettersModule) {\n        apiSettersModule = _apiSettersModule;\n    }\n\n    function setServiceVotingFactory(address _serviceVotingFactory) external canSetAddress(serviceVotingFactory) {\n        serviceVotingFactory = IServiceVotingFactory(_serviceVotingFactory);\n    }\n\n    /*\n    * @dev Checks if provided address has tokens of current DAO\n    * @param _participantAddress Address of potential participant\n    * @return boolean indicating if the address has at least one token\n    */\n    function isParticipant(address _participantAddress) external constant returns (bool) {\n        return token.balanceOf(_participantAddress) > 0;\n    }\n\n    /*\n    * @dev Function which is used to set address of token which will be distributed by DAO during the crowdsale and\n    *      address of DXC token contract to use it for handling payment operations with DXC. Delegates call to state module\n    * @param _tokenAddress Address of token which will be distributed during the crowdsale\n    * @param _DXC Address of DXC contract\n    */\n    function initState(address _tokenAddress) public {\n        DAOProxy.delegatedInitState(stateModule, _tokenAddress);\n    }\n\n    /*\n    * @dev Delegates parameters which describe conditions of crowdsale to the crowdsale module.\n    * @param _softCap The minimal amount of funds that must be collected by DAO for crowdsale to be considered successful\n    * @param _hardCap The maximal amount of funds that can be raised during the crowdsale\n    * @param _etherRate Amount of tokens that will be minted per one ether\n    * @param _DXCRate Amount of tokens that will be minted per one DXC\n    * @param _startTime Unix timestamp that indicates the moment when crowdsale will start\n    * @param _endTime Unix timestamp that indicates the moment when crowdsale will end\n    * @param _dxcPayments Boolean indicating whether it is possible to invest via DXC token or not\n    */\n    function initCrowdsaleParameters(uint _softCap, uint _hardCap, uint _etherRate, uint _DXCRate, uint _startTime, uint _endTime, bool _dxcPayments, uint _lockup) public {\n        DAOProxy.delegatedInitCrowdsaleParameters(crowdsaleModule, _softCap, _hardCap, _etherRate, _DXCRate, _startTime, _endTime, _dxcPayments, _lockup);\n    }\n\n    /*\n    * @dev Delegates request of creating \"regular\" voting and saves the address of created voting contract to votings list\n    * @param _name Name for voting\n    * @param _description Description for voting that will be created\n    * @param _duration Time in seconds from current moment until voting will be finished\n    * @param _options List of options\n    */\n    function addRegular(string _name, string _description, uint _duration, bytes32[] _options) public {\n        address voting = DAOLib.delegatedCreateRegular(votingFactory, _name, _description, _duration, _options, this);\n        handleCreatedVoting(voting);\n    }\n\n    /*\n    * @dev Delegates request of creating \"withdrawal\" voting and saves the address of created voting contract to votings list\n    * @param _name Name for voting\n    * @param _description Description for voting that will be created\n    * @param _duration Time in seconds from current moment until voting will be finished\n    * @param _sum Amount of funds that is supposed to be withdrawn\n    * @param _withdrawalWallet Address for withdrawal\n    * @param _dxc Boolean indicating whether withdrawal must be in DXC tokens or in ether\n    */\n    function addWithdrawal(string _name, string _description, uint _duration, uint _sum, address _withdrawalWallet, bool _dxc) public {\n        votings[DAOLib.delegatedCreateWithdrawal(votingFactory, _name, _description, _duration, _sum, _withdrawalWallet, _dxc, this)] = msg.sender;\n    }\n\n    /*\n    * @dev Delegates request of creating \"refund\" voting and saves the address of created voting contract to votings list\n    * @param _name Name for voting\n    * @param _description Description for voting that will be created\n    * @param _duration Time in seconds from current moment until voting will be finished\n    */\n    function addRefund(string _name, string _description, uint _duration) public {\n        address voting = DAOLib.delegatedCreateRefund(votingFactory, _name, _description, _duration, this);\n        handleCreatedVoting(voting);\n    }\n\n    /*\n    * @dev Delegates request of creating \"module\" voting and saves the address of created voting contract to votings list\n    * @param _name Name for voting\n    * @param _description Description for voting that will be created\n    * @param _duration Time in seconds from current moment until voting will be finished\n    * @param _module Number of module which must be replaced\n    * @param _newAddress Address of new module\n    */\n    function addModule(string _name, string _description, uint _duration, uint _module, address _newAddress) public {\n        address voting = DAOLib.delegatedCreateModule(serviceVotingFactory, _name, _description, _duration, _module, _newAddress, this);\n        handleCreatedVoting(voting);\n    }\n\n    /*\n    * @dev Delegates request of creating \"new service\" voting and saves the address of created voting contract to votings list\n    * @param _name Name for voting\n    * @param _description Description for voting that will be created\n    * @param _duration Time in seconds from current moment until voting will be finished\n    * @param _service Address of service that needs to be connected to DAO\n    */\n    function addNewService(string _name, string _description, uint _duration, address _service) public {\n        address voting = DAOLib.delegatedCreateNewService(serviceVotingFactory, _name, _description, _duration, _service, this);\n        handleCreatedVoting(voting);\n    }\n\n    /*\n    * @dev Delegates request of creating \"call service\" voting and saves the address of created voting contract to votings list\n    * @param _name Name for voting\n    * @param _description Description for voting that will be created\n    * @param _duration Time in seconds from current moment until voting will be finished\n    * @param _service Address of service that needs to be called\n    * @param _method Method that must be called in service\n    * @param _args Arguments that will be provided to called method\n    */\n    function addCallService(string _name, string _description, uint _duration, address _service, bytes32 _method, bytes32[10] _args) public {\n        address voting = DAOLib.delegatedCreateCallService(serviceVotingFactory, _name, _description, _duration, _service, _method, _args, this);\n        handleCreatedVoting(voting);\n    }\n\n    /*\n    * @dev Delegates request for going into refundable state to voting decisions module\n    */\n    function makeRefundableByUser() public {\n        DAOProxy.delegatedMakeRefundableByUser(votingDecisionModule);\n    }\n\n    /*\n    * @dev Delegates request for refund to payment module\n    */\n    function refund() public {\n        DAOProxy.delegatedRefund(paymentModule);\n    }\n\n    /*\n    * @dev Delegates request for refund of soft cap to payment module\n    */\n    function refundSoftCap() public {\n        DAOProxy.delegatedRefundSoftCap(paymentModule);\n    }\n\n    /*\n    * @dev Delegates request for finish of crowdsale to crowdsale module\n    */\n    function finish() public {\n        DAOProxy.delegatedFinish(crowdsaleModule);\n    }\n\n    /*\n    * @dev Sets team addresses and bonuses for crowdsale\n    * @param _team The addresses that will be defined as team members\n    * @param _tokenPercents Array of bonuses in percents which will go te every member in case of successful crowdsale\n    * @param _bonusPeriods Array of timestamps which show when tokens will be minted with higher rate\n    * @param _bonusEtherRates Array of ether rates for every bonus period\n    * @param _bonusDXCRates Array of DXC rates for every bonus period\n    * @param _teamHold Array of timestamps which show the hold duration of tokens for every team member\n    * @param service Array of booleans which show whether member is a service address or not\n    */\n    function initBonuses(address[] _team, uint[] _tokenPercents, uint[] _bonusPeriods, uint[] _bonusEtherRates, uint[] _bonusDXCRates, uint[] _teamHold, bool[] _service) public onlyOwner(msg.sender) {\n        require(\n            _team.length == _tokenPercents.length &&\n            _team.length == _teamHold.length &&\n            _team.length == _service.length &&\n            _bonusPeriods.length == _bonusEtherRates.length &&\n        (_bonusDXCRates.length == 0 || _bonusPeriods.length == _bonusDXCRates.length) &&\n        canInitBonuses &&\n        (block.timestamp < startTime || canInitCrowdsaleParameters)\n        );\n\n        team = _team;\n        teamHold = _teamHold;\n        teamBonusesArr = _tokenPercents;\n        teamServiceMember = _service;\n\n        for(uint i = 0; i < _team.length; i++) {\n            teamMap[_team[i]] = true;\n            teamBonuses[_team[i]] = _tokenPercents[i];\n        }\n\n        bonusPeriods = _bonusPeriods;\n        bonusEtherRates = _bonusEtherRates;\n        bonusDXCRates = _bonusDXCRates;\n\n        canInitBonuses = false;\n    }\n\n    /*\n    * @dev Sets addresses which can be used to get funds via withdrawal votings\n    * @param _addresses Array of addresses which will be used for withdrawals\n    */\n    function setWhiteList(address[] _addresses) public onlyOwner(msg.sender) {\n        require(canSetWhiteList);\n\n        whiteListArr = _addresses;\n        for(uint i = 0; i < _addresses.length; i++) {\n            whiteList[_addresses[i]] = true;\n        }\n\n        canSetWhiteList = false;\n    }\n\n    function handleAPICall(string signature, bytes32 value) external onlyProxyAPI {\n        require(apiSettersModule.delegatecall(bytes4(keccak256(signature)), value));\n    }\n\n    function handleCreatedVoting(address _voting) private {\n        votings[_voting] = msg.sender;\n        initialCapitalIncr[msg.sender] -= votingPrice;\n    }\n\n    /*\n    Modifiers\n    */\n\n    modifier canSetAddress(address module) {\n        require(votings[msg.sender] != 0x0 || (module == 0x0 && msg.sender == owner));\n        _;\n    }\n\n    modifier onlyProxyAPI() {\n        require(msg.sender == proxyAPI, \"Method can be called only by ProxyAPI contract\");\n        _;\n    }\n}",
  "sourcePath": "/Users/giddeonwyeth/PhpstormProjects/dao/daox-contracts/contracts/DAO/CrowdsaleDAO.sol",
  "compiler": {
    "name": "solc",
    "version": "0.4.24+commit.e67f0147.Emscripten.clang"
  },
  "schemaVersion": "2.0.1",
  "updatedAt": "2018-07-11T16:06:33.288Z"
}