{
  "contractName": "Crowdsale",
  "abi": [
    {
      "constant": true,
      "inputs": [],
      "name": "lockup",
      "outputs": [
        {
          "name": "",
          "type": "uint256"
        }
      ],
      "payable": false,
      "stateMutability": "view",
      "type": "function"
    },
    {
      "constant": true,
      "inputs": [],
      "name": "name",
      "outputs": [
        {
          "name": "",
          "type": "string"
        }
      ],
      "payable": false,
      "stateMutability": "view",
      "type": "function"
    },
    {
      "constant": true,
      "inputs": [],
      "name": "tokensMintedByEther",
      "outputs": [
        {
          "name": "",
          "type": "uint256"
        }
      ],
      "payable": false,
      "stateMutability": "view",
      "type": "function"
    },
    {
      "constant": true,
      "inputs": [
        {
          "name": "",
          "type": "address"
        }
      ],
      "name": "teamMap",
      "outputs": [
        {
          "name": "",
          "type": "bool"
        }
      ],
      "payable": false,
      "stateMutability": "view",
      "type": "function"
    },
    {
      "constant": true,
      "inputs": [
        {
          "name": "",
          "type": "address"
        }
      ],
      "name": "depositedWei",
      "outputs": [
        {
          "name": "",
          "type": "uint256"
        }
      ],
      "payable": false,
      "stateMutability": "view",
      "type": "function"
    },
    {
      "constant": true,
      "inputs": [
        {
          "name": "",
          "type": "uint256"
        }
      ],
      "name": "team",
      "outputs": [
        {
          "name": "",
          "type": "address"
        }
      ],
      "payable": false,
      "stateMutability": "view",
      "type": "function"
    },
    {
      "constant": true,
      "inputs": [],
      "name": "commissionRaised",
      "outputs": [
        {
          "name": "",
          "type": "uint256"
        }
      ],
      "payable": false,
      "stateMutability": "view",
      "type": "function"
    },
    {
      "constant": true,
      "inputs": [],
      "name": "refundableSoftCap",
      "outputs": [
        {
          "name": "",
          "type": "bool"
        }
      ],
      "payable": false,
      "stateMutability": "view",
      "type": "function"
    },
    {
      "constant": true,
      "inputs": [],
      "name": "votingPrice",
      "outputs": [
        {
          "name": "",
          "type": "uint256"
        }
      ],
      "payable": false,
      "stateMutability": "view",
      "type": "function"
    },
    {
      "constant": true,
      "inputs": [
        {
          "name": "",
          "type": "uint256"
        }
      ],
      "name": "teamBonusesArr",
      "outputs": [
        {
          "name": "",
          "type": "uint256"
        }
      ],
      "payable": false,
      "stateMutability": "view",
      "type": "function"
    },
    {
      "constant": true,
      "inputs": [
        {
          "name": "",
          "type": "uint256"
        }
      ],
      "name": "teamServiceMember",
      "outputs": [
        {
          "name": "",
          "type": "bool"
        }
      ],
      "payable": false,
      "stateMutability": "view",
      "type": "function"
    },
    {
      "constant": true,
      "inputs": [],
      "name": "endTime",
      "outputs": [
        {
          "name": "",
          "type": "uint256"
        }
      ],
      "payable": false,
      "stateMutability": "view",
      "type": "function"
    },
    {
      "constant": true,
      "inputs": [],
      "name": "serviceContract",
      "outputs": [
        {
          "name": "",
          "type": "address"
        }
      ],
      "payable": false,
      "stateMutability": "view",
      "type": "function"
    },
    {
      "constant": true,
      "inputs": [
        {
          "name": "",
          "type": "address"
        }
      ],
      "name": "votings",
      "outputs": [
        {
          "name": "",
          "type": "address"
        }
      ],
      "payable": false,
      "stateMutability": "view",
      "type": "function"
    },
    {
      "constant": true,
      "inputs": [
        {
          "name": "",
          "type": "address"
        }
      ],
      "name": "whiteList",
      "outputs": [
        {
          "name": "",
          "type": "bool"
        }
      ],
      "payable": false,
      "stateMutability": "view",
      "type": "function"
    },
    {
      "constant": true,
      "inputs": [],
      "name": "canInitStateParameters",
      "outputs": [
        {
          "name": "",
          "type": "bool"
        }
      ],
      "payable": false,
      "stateMutability": "view",
      "type": "function"
    },
    {
      "constant": true,
      "inputs": [
        {
          "name": "",
          "type": "uint256"
        }
      ],
      "name": "whiteListArr",
      "outputs": [
        {
          "name": "",
          "type": "address"
        }
      ],
      "payable": false,
      "stateMutability": "view",
      "type": "function"
    },
    {
      "constant": true,
      "inputs": [],
      "name": "weiRaised",
      "outputs": [
        {
          "name": "",
          "type": "uint256"
        }
      ],
      "payable": false,
      "stateMutability": "view",
      "type": "function"
    },
    {
      "constant": true,
      "inputs": [],
      "name": "DXCRaised",
      "outputs": [
        {
          "name": "",
          "type": "uint256"
        }
      ],
      "payable": false,
      "stateMutability": "view",
      "type": "function"
    },
    {
      "constant": true,
      "inputs": [],
      "name": "version",
      "outputs": [
        {
          "name": "",
          "type": "bytes32"
        }
      ],
      "payable": false,
      "stateMutability": "view",
      "type": "function"
    },
    {
      "constant": true,
      "inputs": [
        {
          "name": "",
          "type": "uint256"
        }
      ],
      "name": "bonusDXCRates",
      "outputs": [
        {
          "name": "",
          "type": "uint256"
        }
      ],
      "payable": false,
      "stateMutability": "view",
      "type": "function"
    },
    {
      "constant": true,
      "inputs": [],
      "name": "canSetWhiteList",
      "outputs": [
        {
          "name": "",
          "type": "bool"
        }
      ],
      "payable": false,
      "stateMutability": "view",
      "type": "function"
    },
    {
      "constant": true,
      "inputs": [],
      "name": "initialCapital",
      "outputs": [
        {
          "name": "",
          "type": "uint256"
        }
      ],
      "payable": false,
      "stateMutability": "view",
      "type": "function"
    },
    {
      "constant": true,
      "inputs": [],
      "name": "serviceVotingFactory",
      "outputs": [
        {
          "name": "",
          "type": "address"
        }
      ],
      "payable": false,
      "stateMutability": "view",
      "type": "function"
    },
    {
      "constant": true,
      "inputs": [],
      "name": "tokensMintedByDXC",
      "outputs": [
        {
          "name": "",
          "type": "uint256"
        }
      ],
      "payable": false,
      "stateMutability": "view",
      "type": "function"
    },
    {
      "constant": true,
      "inputs": [],
      "name": "fundsRaised",
      "outputs": [
        {
          "name": "",
          "type": "uint256"
        }
      ],
      "payable": false,
      "stateMutability": "view",
      "type": "function"
    },
    {
      "constant": true,
      "inputs": [
        {
          "name": "",
          "type": "uint256"
        }
      ],
      "name": "teamHold",
      "outputs": [
        {
          "name": "",
          "type": "uint256"
        }
      ],
      "payable": false,
      "stateMutability": "view",
      "type": "function"
    },
    {
      "constant": true,
      "inputs": [
        {
          "name": "",
          "type": "address"
        }
      ],
      "name": "services",
      "outputs": [
        {
          "name": "",
          "type": "bool"
        }
      ],
      "payable": false,
      "stateMutability": "view",
      "type": "function"
    },
    {
      "constant": true,
      "inputs": [],
      "name": "description",
      "outputs": [
        {
          "name": "",
          "type": "string"
        }
      ],
      "payable": false,
      "stateMutability": "view",
      "type": "function"
    },
    {
      "constant": true,
      "inputs": [],
      "name": "startTime",
      "outputs": [
        {
          "name": "",
          "type": "uint256"
        }
      ],
      "payable": false,
      "stateMutability": "view",
      "type": "function"
    },
    {
      "constant": true,
      "inputs": [
        {
          "name": "",
          "type": "address"
        }
      ],
      "name": "depositedDXC",
      "outputs": [
        {
          "name": "",
          "type": "uint256"
        }
      ],
      "payable": false,
      "stateMutability": "view",
      "type": "function"
    },
    {
      "constant": true,
      "inputs": [],
      "name": "owner",
      "outputs": [
        {
          "name": "",
          "type": "address"
        }
      ],
      "payable": false,
      "stateMutability": "view",
      "type": "function"
    },
    {
      "constant": true,
      "inputs": [],
      "name": "softCap",
      "outputs": [
        {
          "name": "",
          "type": "uint256"
        }
      ],
      "payable": false,
      "stateMutability": "view",
      "type": "function"
    },
    {
      "constant": true,
      "inputs": [],
      "name": "DXC",
      "outputs": [
        {
          "name": "",
          "type": "address"
        }
      ],
      "payable": false,
      "stateMutability": "view",
      "type": "function"
    },
    {
      "constant": true,
      "inputs": [],
      "name": "canInitCrowdsaleParameters",
      "outputs": [
        {
          "name": "",
          "type": "bool"
        }
      ],
      "payable": false,
      "stateMutability": "view",
      "type": "function"
    },
    {
      "constant": true,
      "inputs": [],
      "name": "created_at",
      "outputs": [
        {
          "name": "",
          "type": "uint256"
        }
      ],
      "payable": false,
      "stateMutability": "view",
      "type": "function"
    },
    {
      "constant": true,
      "inputs": [],
      "name": "DXCRate",
      "outputs": [
        {
          "name": "",
          "type": "uint256"
        }
      ],
      "payable": false,
      "stateMutability": "view",
      "type": "function"
    },
    {
      "constant": true,
      "inputs": [],
      "name": "lastWithdrawalTimestamp",
      "outputs": [
        {
          "name": "",
          "type": "uint256"
        }
      ],
      "payable": false,
      "stateMutability": "view",
      "type": "function"
    },
    {
      "constant": true,
      "inputs": [],
      "name": "teamTokensAmount",
      "outputs": [
        {
          "name": "",
          "type": "uint256"
        }
      ],
      "payable": false,
      "stateMutability": "view",
      "type": "function"
    },
    {
      "constant": true,
      "inputs": [],
      "name": "votingFactory",
      "outputs": [
        {
          "name": "",
          "type": "address"
        }
      ],
      "payable": false,
      "stateMutability": "view",
      "type": "function"
    },
    {
      "constant": true,
      "inputs": [],
      "name": "refundable",
      "outputs": [
        {
          "name": "",
          "type": "bool"
        }
      ],
      "payable": false,
      "stateMutability": "view",
      "type": "function"
    },
    {
      "constant": true,
      "inputs": [],
      "name": "canInitBonuses",
      "outputs": [
        {
          "name": "",
          "type": "bool"
        }
      ],
      "payable": false,
      "stateMutability": "view",
      "type": "function"
    },
    {
      "constant": true,
      "inputs": [],
      "name": "newDXCRate",
      "outputs": [
        {
          "name": "",
          "type": "uint256"
        }
      ],
      "payable": false,
      "stateMutability": "view",
      "type": "function"
    },
    {
      "constant": true,
      "inputs": [
        {
          "name": "",
          "type": "address"
        }
      ],
      "name": "initialCapitalIncr",
      "outputs": [
        {
          "name": "",
          "type": "uint256"
        }
      ],
      "payable": false,
      "stateMutability": "view",
      "type": "function"
    },
    {
      "constant": true,
      "inputs": [],
      "name": "etherRate",
      "outputs": [
        {
          "name": "",
          "type": "uint256"
        }
      ],
      "payable": false,
      "stateMutability": "view",
      "type": "function"
    },
    {
      "constant": true,
      "inputs": [
        {
          "name": "",
          "type": "uint256"
        }
      ],
      "name": "bonusEtherRates",
      "outputs": [
        {
          "name": "",
          "type": "uint256"
        }
      ],
      "payable": false,
      "stateMutability": "view",
      "type": "function"
    },
    {
      "constant": true,
      "inputs": [],
      "name": "commissionContract",
      "outputs": [
        {
          "name": "",
          "type": "address"
        }
      ],
      "payable": false,
      "stateMutability": "view",
      "type": "function"
    },
    {
      "constant": true,
      "inputs": [
        {
          "name": "",
          "type": "address"
        }
      ],
      "name": "teamBonuses",
      "outputs": [
        {
          "name": "",
          "type": "uint256"
        }
      ],
      "payable": false,
      "stateMutability": "view",
      "type": "function"
    },
    {
      "constant": true,
      "inputs": [],
      "name": "newEtherRate",
      "outputs": [
        {
          "name": "",
          "type": "uint256"
        }
      ],
      "payable": false,
      "stateMutability": "view",
      "type": "function"
    },
    {
      "constant": true,
      "inputs": [],
      "name": "proxyAPI",
      "outputs": [
        {
          "name": "",
          "type": "address"
        }
      ],
      "payable": false,
      "stateMutability": "view",
      "type": "function"
    },
    {
      "constant": true,
      "inputs": [],
      "name": "dxcPayments",
      "outputs": [
        {
          "name": "",
          "type": "bool"
        }
      ],
      "payable": false,
      "stateMutability": "view",
      "type": "function"
    },
    {
      "constant": true,
      "inputs": [
        {
          "name": "",
          "type": "uint256"
        }
      ],
      "name": "bonusPeriods",
      "outputs": [
        {
          "name": "",
          "type": "uint256"
        }
      ],
      "payable": false,
      "stateMutability": "view",
      "type": "function"
    },
    {
      "constant": true,
      "inputs": [],
      "name": "crowdsaleFinished",
      "outputs": [
        {
          "name": "",
          "type": "bool"
        }
      ],
      "payable": false,
      "stateMutability": "view",
      "type": "function"
    },
    {
      "constant": true,
      "inputs": [],
      "name": "hardCap",
      "outputs": [
        {
          "name": "",
          "type": "uint256"
        }
      ],
      "payable": false,
      "stateMutability": "view",
      "type": "function"
    },
    {
      "constant": true,
      "inputs": [],
      "name": "token",
      "outputs": [
        {
          "name": "",
          "type": "address"
        }
      ],
      "payable": false,
      "stateMutability": "view",
      "type": "function"
    },
    {
      "constant": false,
      "inputs": [
        {
          "name": "_sender",
          "type": "address"
        },
        {
          "name": "_commission",
          "type": "bool"
        }
      ],
      "name": "handlePayment",
      "outputs": [],
      "payable": true,
      "stateMutability": "payable",
      "type": "function"
    },
    {
      "constant": false,
      "inputs": [
        {
          "name": "_from",
          "type": "address"
        },
        {
          "name": "_dxcAmount",
          "type": "uint256"
        }
      ],
      "name": "handleDXCPayment",
      "outputs": [],
      "payable": false,
      "stateMutability": "nonpayable",
      "type": "function"
    },
    {
      "constant": false,
      "inputs": [
        {
          "name": "_softCap",
          "type": "uint256"
        },
        {
          "name": "_hardCap",
          "type": "uint256"
        },
        {
          "name": "_etherRate",
          "type": "uint256"
        },
        {
          "name": "_DXCRate",
          "type": "uint256"
        },
        {
          "name": "_startTime",
          "type": "uint256"
        },
        {
          "name": "_endTime",
          "type": "uint256"
        },
        {
          "name": "_dxcPayments",
          "type": "bool"
        },
        {
          "name": "_lockup",
          "type": "uint256"
        }
      ],
      "name": "initCrowdsaleParameters",
      "outputs": [],
      "payable": false,
      "stateMutability": "nonpayable",
      "type": "function"
    },
    {
      "constant": false,
      "inputs": [],
      "name": "finish",
      "outputs": [],
      "payable": false,
      "stateMutability": "nonpayable",
      "type": "function"
    }
  ],
  "bytecode": "0x60806040526006805463ff0000001962ff00001961ff001960ff19938416600117811661010017919091166201000017919091166301000000179092556000600781905560088190556009819055600a819055600d8054909316909255600e829055600f82905542601c55601e80549091169055601f819055602b819055602c819055602d5534801561009157600080fd5b5061172e806100a16000396000f3006080604052600436106102be5763ffffffff7c010000000000000000000000000000000000000000000000000000000060003504166306490f4781146102c357806306fdde03146102ea5780630ce57c251461037457806310be8d121461038957806312337993146103be578063197ebd53146103df5780631e782df514610413578063289a03b0146104285780632948b4e91461043d5780632eeacc5f1461045257806330c5a0f21461046a5780633197cbb614610482578063364dab1014610497578063369ef722146104ac578063372c12b1146104cd578063395ad021146104ee5780633b541bdb146105035780634042b66f1461051b5780634f0653681461053057806354fd4d501461054557806356428fe51461055a5780635e1c2570146105725780635f30b6451461058d578063601e538b146105a257806362a2b372146105b757806362c64639146105cc5780636681b9fd146105e15780636922b214146105f65780636d966d011461060e5780637284e4161461062f57806378e97925146106445780637d6d3b8c146106595780638da5cb5b1461067a578063906a26e01461068f57806390836822146106a4578063939eaf9f146106b95780639b95a835146106dd5780639c6f0d85146106f25780639e58779e14610707578063a62c41691461071c578063a88f893a14610731578063b3c7aee714610746578063bb24c54b14610775578063bf89662d1461078a578063c0ef7a6d1461079f578063c18f18e8146107b4578063cc9e4fd4146107c9578063d0f7a601146107ea578063d56b2889146107ff578063da7801b314610814578063da8909e51461082c578063db13c72514610841578063e2278f2f14610862578063e2a7937b14610877578063e3bd043a1461088c578063e9fdfb89146108a1578063ece84fd5146108b9578063fb86a404146108ce578063fc0c546a146108e3575b600080fd5b3480156102cf57600080fd5b506102d86108f8565b60408051918252519081900360200190f35b3480156102f657600080fd5b506102ff6108fe565b6040805160208082528351818301528351919283929083019185019080838360005b83811015610339578181015183820152602001610321565b50505050905090810190601f1680156103665780820380516001836020036101000a031916815260200191505b509250505060405180910390f35b34801561038057600080fd5b506102d861098c565b34801561039557600080fd5b506103aa600160a060020a0360043516610992565b604080519115158252519081900360200190f35b3480156103ca57600080fd5b506102d8600160a060020a03600435166109a7565b3480156103eb57600080fd5b506103f76004356109b9565b60408051600160a060020a039092168252519081900360200190f35b34801561041f57600080fd5b506102d86109e1565b34801561043457600080fd5b506103aa6109e7565b34801561044957600080fd5b506102d86109f5565b34801561045e57600080fd5b506102d86004356109fb565b34801561047657600080fd5b506103aa600435610a1a565b34801561048e57600080fd5b506102d8610a4c565b3480156104a357600080fd5b506103f7610a52565b3480156104b857600080fd5b506103f7600160a060020a0360043516610a61565b3480156104d957600080fd5b506103aa600160a060020a0360043516610a7c565b3480156104fa57600080fd5b506103aa610a91565b34801561050f57600080fd5b506103f7600435610a9f565b34801561052757600080fd5b506102d8610aad565b34801561053c57600080fd5b506102d8610ab3565b34801561055157600080fd5b506102d8610ab9565b34801561056657600080fd5b506102d8600435610add565b61058b600160a060020a03600435166024351515610aeb565b005b34801561059957600080fd5b506103aa610e34565b3480156105ae57600080fd5b506102d8610e44565b3480156105c357600080fd5b506103f7610e4a565b3480156105d857600080fd5b506102d8610e59565b3480156105ed57600080fd5b506102d8610e5f565b34801561060257600080fd5b506102d8600435610e65565b34801561061a57600080fd5b506103aa600160a060020a0360043516610e73565b34801561063b57600080fd5b506102ff610e88565b34801561065057600080fd5b506102d8610ee3565b34801561066557600080fd5b506102d8600160a060020a0360043516610ee9565b34801561068657600080fd5b506103f7610efb565b34801561069b57600080fd5b506102d8610f0a565b3480156106b057600080fd5b506103f7610f10565b3480156106c557600080fd5b5061058b600160a060020a0360043516602435610f1f565b3480156106e957600080fd5b506103aa611251565b3480156106fe57600080fd5b506102d861125a565b34801561071357600080fd5b506102d8611260565b34801561072857600080fd5b506102d8611266565b34801561073d57600080fd5b506102d861126c565b34801561075257600080fd5b5061058b60043560243560443560643560843560a43560c435151560e435611272565b34801561078157600080fd5b506103f761135e565b34801561079657600080fd5b506103aa61136d565b3480156107ab57600080fd5b506103aa611376565b3480156107c057600080fd5b506102d8611385565b3480156107d557600080fd5b506102d8600160a060020a036004351661138b565b3480156107f657600080fd5b506102d861139d565b34801561080b57600080fd5b5061058b6113a3565b34801561082057600080fd5b506102d8600435611673565b34801561083857600080fd5b506103f7611681565b34801561084d57600080fd5b506102d8600160a060020a0360043516611690565b34801561086e57600080fd5b506102d86116a2565b34801561088357600080fd5b506103f76116a8565b34801561089857600080fd5b506103aa6116b7565b3480156108ad57600080fd5b506102d86004356116c0565b3480156108c557600080fd5b506103aa6116ce565b3480156108da57600080fd5b506102d86116d7565b3480156108ef57600080fd5b506103f76116dd565b602b5481565b601a805460408051602060026001851615610100026000190190941693909304601f810184900484028201840190925281815292918301828280156109845780601f1061095957610100808354040283529160200191610984565b820191906000526020600020905b81548152906001019060200180831161096757829003601f168201915b505050505081565b60285481565b60136020526000908152604090205460ff1681565b600b6020526000908152604090205481565b60128054829081106109c757fe5b600091825260209091200154600160a060020a0316905081565b60075481565b600d54610100900460ff1681565b602d5481565b6011805482908110610a0957fe5b600091825260209091200154905081565b6015805482908110610a2857fe5b9060005260206000209060209182820401919006915054906101000a900460ff1681565b60055481565b601054600160a060020a031681565b601d60205260009081526040902054600160a060020a031681565b60216020526000908152604090205460ff1681565b600654610100900460ff1681565b60208054829081106109c757fe5b60085481565b60095481565b7f312e302e3000000000000000000000000000000000000000000000000000000081565b6025805482908110610a0957fe5b6000806004544210158015610b01575060055442105b8015610b105750600d5460ff16155b1515610b1b57600080fd5b3460015460001415610b365780600854016003541015610b5f565b8060085401600154600054811515610b4a57fe5b04600954811515610b5757fe5b046003540310155b1515610b6a57600080fd5b600160a060020a0385161515610b7f57600080fd5b3492508315610b915760078054840190555b6008805484019055600160a060020a0385166000908152600b6020526040808220805486019055905490517f635fc0fb000000000000000000000000000000000000000000000000000000008152600481018581526064820183905260806024838101918252602380546084860181905273__DAOLib________________________________9663635fc0fb968b969395919392604482019160a4019087908015610c5b57602002820191906000526020600020905b815481526020019060010190808311610c47575b50508381038252858181548152602001915080548015610c9a57602002820191906000526020600020905b815481526020019060010190808311610c86575b5050965050505050505060206040518083038186803b158015610cbc57600080fd5b505af4158015610cd0573d6000803e3d6000fd5b505050506040513d6020811015610ce657600080fd5b5051602854909250610cf890836116ec565b602855601654604080517f40c10f19000000000000000000000000000000000000000000000000000000008152600160a060020a03888116600483015260248201869052915191909216916340c10f199160448083019260209291908290030181600087803b158015610d6a57600080fd5b505af1158015610d7e573d6000803e3d6000fd5b505050506040513d6020811015610d9457600080fd5b5050602b5460001015610e2d57601654602b54604080517f977a5ec5000000000000000000000000000000000000000000000000000000008152600160a060020a0389811660048301524290930360248201529051919092169163977a5ec591604480830192600092919082900301818387803b158015610e1457600080fd5b505af1158015610e28573d6000803e3d6000fd5b505050505b5050505050565b6006546301000000900460ff1681565b602c5481565b601854600160a060020a031681565b60295481565b600a5481565b6014805482908110610a0957fe5b60306020526000908152604090205460ff1681565b601b805460408051602060026001851615610100026000190190941693909304601f810184900484028201840190925281815292918301828280156109845780601f1061095957610100808354040283529160200191610984565b60045481565b600c6020526000908152604090205481565b603154600160a060020a031681565b60025481565b602754600160a060020a031681565b60006004544210158015610f34575060055442105b8015610f435750600d5460ff16155b1515610f4e57600080fd5b602a54829060ff168015610f865750600154600054811515610f6c57fe5b046009548201811515610f7b57fe5b046008546003540310155b1515610f9157600080fd5b602754600160a060020a03163314610fa857600080fd5b6009805484019055600160a060020a0384166000908152600c60205260409081902080548501905560015490517f635fc0fb0000000000000000000000000000000000000000000000000000000081526004810185815260648201839052608060248301908152602380546084850181905273__DAOLib________________________________9563635fc0fb958a95939460259492939091604481019160a4909101908790801561107957602002820191906000526020600020905b815481526020019060010190808311611065575b505083810382528581815481526020019150805480156110b857602002820191906000526020600020905b8154815260200190600101908083116110a4575b5050965050505050505060206040518083038186803b1580156110da57600080fd5b505af41580156110ee573d6000803e3d6000fd5b505050506040513d602081101561110457600080fd5b505160295490925061111690836116ec565b602955601654604080517f40c10f19000000000000000000000000000000000000000000000000000000008152600160a060020a03878116600483015260248201869052915191909216916340c10f199160448083019260209291908290030181600087803b15801561118857600080fd5b505af115801561119c573d6000803e3d6000fd5b505050506040513d60208110156111b257600080fd5b5050602b546000101561124b57601654602b54604080517f977a5ec5000000000000000000000000000000000000000000000000000000008152600160a060020a0388811660048301524290930360248201529051919092169163977a5ec591604480830192600092919082900301818387803b15801561123257600080fd5b505af1158015611246573d6000803e3d6000fd5b505050505b50505050565b60065460ff1681565b601c5481565b60015481565b601f5481565b60265481565b6031543390600160a060020a0316811461128b57600080fd5b60065460ff16151561129c57600080fd5b88158015906112aa57508715155b80156112b557508615155b80156112c057508515155b80156112cb57508415155b80156112d657508315155b15156112e157600080fd5b87891080156112ef57504285115b15156112fa57600080fd5b81158061130657508382115b151561131157600080fd5b50670de0b6b3a764000097880260025595909602600355602b94909455600593909355600492909255600191909155600055602a805491151560ff19928316179055600680549091169055565b601754600160a060020a031681565b601e5460ff1681565b60065462010000900460ff1681565b600f5481565b602e6020526000908152604090205481565b60005481565b60015415156113b4576008546113d6565b6001546000548115156113c357fe5b046009548115156113d057fe5b04600854015b600a55600554421015806113ed5750600354600a54145b80156113fc5750600d5460ff16155b151561140757600080fd5b600d805460ff19166001179055600254600a54106115c9576016546007546010546040517ff37c3941000000000000000000000000000000000000000000000000000000008152600160a060020a039384166004820181815260248301859052949092166044820181905260c0606483019081526011805460c4850181905273__DAOLib________________________________9763f37c394197959293601293601493608482019160a481019160e490910190889080156114e857602002820191906000526020600020905b8154815260200190600101908083116114d4575b5050848103835286818154815260200191508054801561153157602002820191906000526020600020905b8154600160a060020a03168152600190910190602001808311611513575b5050848103825285818154815260200191508054801561157057602002820191906000526020600020905b81548152602001906001019080831161155c575b5050995050505050505050505060206040518083038186803b15801561159557600080fd5b505af41580156115a9573d6000803e3d6000fd5b505050506040513d60208110156115bf57600080fd5b50516026556115d9565b600d805461ff0019166101001790555b601660009054906101000a9004600160a060020a0316600160a060020a0316637d64bcb46040518163ffffffff167c0100000000000000000000000000000000000000000000000000000000028152600401602060405180830381600087803b15801561164557600080fd5b505af1158015611659573d6000803e3d6000fd5b505050506040513d602081101561166f57600080fd5b5050565b6024805482908110610a0957fe5b601954600160a060020a031681565b60226020526000908152604090205481565b600e5481565b602f54600160a060020a031681565b602a5460ff1681565b6023805482908110610a0957fe5b600d5460ff1681565b60035481565b601654600160a060020a031681565b6000828201838110156116fb57fe5b93925050505600a165627a7a7230582015a2af22fcd770400b3d121ff089a1d7840b7afb66d488fd6333c92986b4ddb10029",
  "source": "pragma solidity ^0.4.0;\n\nimport '../../../node_modules/zeppelin-solidity/contracts/math/SafeMath.sol';\nimport \"../DAOLib.sol\";\nimport \"../CrowdsaleDAOFields.sol\";\nimport \"../../Commission.sol\";\nimport \"../Owned.sol\";\n\ncontract Crowdsale is CrowdsaleDAOFields {\n\taddress public owner;\n\n\t/*\n    * @dev Receives info about ether payment from CrowdsaleDAO contract then mints tokens for sender and saves info about\n    *      sent funds to either return it in case of refund or get commission from them in case of successful crowdsale\n    * @param _sender Address of sender\n    * @param _commission Boolean indicating whether it is needed to take commission from sent funds or not\n    */\n\tfunction handlePayment(address _sender, bool _commission) external payable CrowdsaleIsOngoing validEtherPurchase(msg.value) {\n\t\trequire(_sender != 0x0);\n\n\t\tuint weiAmount = msg.value;\n\t\tif (_commission) {\n\t\t\tcommissionRaised = commissionRaised + weiAmount;\n\t\t}\n\n\t\tweiRaised += weiAmount;\n\t\tdepositedWei[_sender] += weiAmount;\n\n\t\tuint tokensAmount = DAOLib.countTokens(weiAmount, bonusPeriods, bonusEtherRates, etherRate);\n\t\ttokensMintedByEther = SafeMath.add(tokensMintedByEther, tokensAmount);\n\t\ttoken.mint(_sender, tokensAmount);\n\n\t\tif(lockup > 0) token.hold(_sender, lockup - now);\n\t}\n\n\t/*\n    * @dev Receives info about DXC payment from CrowdsaleDAO contract then mints tokens for sender and saves info about\n    *      sent funds to return it in case of refund\n    * @param _from Address of sender\n    * @param _dxcAmount Amount of DXC token which were sent to DAO\n    */\n\tfunction handleDXCPayment(address _from, uint _dxcAmount) external CrowdsaleIsOngoing validDXCPurchase(_dxcAmount) onlyDXC {\n\t\tDXCRaised += _dxcAmount;\n\t\tdepositedDXC[_from] += _dxcAmount;\n\n\t\tuint tokensAmount = DAOLib.countTokens(_dxcAmount, bonusPeriods, bonusDXCRates, DXCRate);\n\t\ttokensMintedByDXC = SafeMath.add(tokensMintedByDXC, tokensAmount);\n\t\ttoken.mint(_from, tokensAmount);\n\n\t\tif(lockup > 0) token.hold(_from, lockup - now);\n\t}\n\n\t/*\n    * @dev Sets main parameters for upcoming crowdsale\n    * @param _softCap The minimal amount of funds that must be collected by DAO for crowdsale to be considered successful\n    * @param _hardCap The maximal amount of funds that can be raised during the crowdsale\n    * @param _etherRate Amount of tokens that will be minted per one ether\n    * @param _DXCRate Amount of tokens that will be minted per one DXC\n    * @param _startTime Unix timestamp that indicates the moment when crowdsale will start\n    * @param _endTime Unix timestamp which indicates the moment when crowdsale will end\n    * @param _dxcPayments Boolean indicating whether it is possible to invest via DXC token or not\n    */\n\tfunction initCrowdsaleParameters(uint _softCap, uint _hardCap, uint _etherRate, uint _DXCRate, uint _startTime, uint _endTime, bool _dxcPayments, uint _lockup)\n\t\texternal\n\t\tonlyOwner(msg.sender)\n\t\tcanInit\n\t{\n\t\trequire(_softCap != 0 && _hardCap != 0 && _etherRate != 0 && _DXCRate != 0 && _startTime != 0 && _endTime != 0);\n\t\trequire(_softCap < _hardCap && _startTime > block.timestamp);\n\t\trequire(_lockup == 0 || _lockup > _endTime);\n\n\t\tsoftCap = _softCap * 1 ether;\n\t\thardCap = _hardCap * 1 ether;\n\n\t\t(startTime, endTime, lockup) = (_startTime, _endTime, _lockup);\n\n\t\t(dxcPayments, etherRate, DXCRate) = (_dxcPayments, _etherRate, _DXCRate);\n\n\t\tcanInitCrowdsaleParameters = false;\n\t}\n\n\t/*\n    * @dev Finishes the crowdsale and analyzes whether it is successful or not. If it is not then DAO goes to refundableSoftCap\n    *      state otherwise it counts and mints tokens for team members and holds them for certain period of time according to\n    *      parameters which were set for every member via initBonuses function. In addition function sends commission to service contract\n    */\n\tfunction finish() external {\n\t\tfundsRaised = DXCRate != 0 ? weiRaised + (DXCRaised) / (etherRate / DXCRate) : weiRaised;\n\n\t\trequire((block.timestamp >= endTime || fundsRaised == hardCap) && !crowdsaleFinished);\n\n\t\tcrowdsaleFinished = true;\n\n\t\tif (fundsRaised >= softCap) {\n\t\t\tteamTokensAmount = DAOLib.handleFinishedCrowdsale(token, commissionRaised, serviceContract, teamBonusesArr, team, teamHold);\n\t\t} else {\n\t\t\trefundableSoftCap = true;\n\t\t}\n\n\t\ttoken.finishMinting();\n\t}\n\n\tmodifier canInit() {\n\t\trequire(canInitCrowdsaleParameters);\n\t\t_;\n\t}\n\n\tmodifier onlyCommission() {\n\t\trequire(commissionContract == msg.sender);\n\t\t_;\n\t}\n\n\tmodifier CrowdsaleIsOngoing() {\n\t\trequire(block.timestamp >= startTime && block.timestamp < endTime && !crowdsaleFinished);\n\t\t_;\n\t}\n\n\tmodifier validEtherPurchase(uint value) {\n\t\trequire(DXCRate != 0 ?\n\t\t\thardCap - DXCRaised / (etherRate / DXCRate) >= weiRaised + value :\n\t\t\thardCap >= weiRaised + value);\n\t\t_;\n\t}\n\n\tmodifier validDXCPurchase(uint value) {\n\t\trequire(dxcPayments && (hardCap - weiRaised >= (value + DXCRaised) / (etherRate / DXCRate)));\n\t\t_;\n\t}\n\n\tmodifier onlyDXC() {\n\t\trequire(msg.sender == address(DXC));\n\t\t_;\n\t}\n\n\tmodifier onlyOwner(address _sender) {\n\t\trequire(_sender == owner);\n\t\t_;\n\t}\n}",
  "sourcePath": "/Users/giddeonwyeth/PhpstormProjects/dao/daox-contracts/contracts/DAO/Modules/Crowdsale.sol",
  "compiler": {
    "name": "solc",
    "version": "0.4.24+commit.e67f0147.Emscripten.clang"
  },
  "schemaVersion": "2.0.1",
  "updatedAt": "2018-07-18T15:32:46.171Z"
}