{
  "contractName": "CrowdsaleDAOFactory",
  "abi": [
    {
      "constant": true,
      "inputs": [],
      "name": "serviceVotingFactory",
      "outputs": [
        {
          "name": "",
          "type": "address"
        }
      ],
      "payable": false,
      "stateMutability": "view",
      "type": "function"
    },
    {
      "constant": true,
      "inputs": [],
      "name": "DXC",
      "outputs": [
        {
          "name": "",
          "type": "address"
        }
      ],
      "payable": false,
      "stateMutability": "view",
      "type": "function"
    },
    {
      "constant": true,
      "inputs": [],
      "name": "votingFactory",
      "outputs": [
        {
          "name": "",
          "type": "address"
        }
      ],
      "payable": false,
      "stateMutability": "view",
      "type": "function"
    },
    {
      "constant": true,
      "inputs": [],
      "name": "serviceContractAddress",
      "outputs": [
        {
          "name": "",
          "type": "address"
        }
      ],
      "payable": false,
      "stateMutability": "view",
      "type": "function"
    },
    {
      "inputs": [
        {
          "name": "_serviceContract",
          "type": "address"
        },
        {
          "name": "_votingFactory",
          "type": "address"
        },
        {
          "name": "_serviceVotingFactory",
          "type": "address"
        },
        {
          "name": "_DXC",
          "type": "address"
        },
        {
          "name": "_modules",
          "type": "address[6]"
        }
      ],
      "payable": false,
      "stateMutability": "nonpayable",
      "type": "constructor"
    },
    {
      "anonymous": false,
      "inputs": [
        {
          "indexed": false,
          "name": "_address",
          "type": "address"
        },
        {
          "indexed": false,
          "name": "_name",
          "type": "string"
        }
      ],
      "name": "CrowdsaleDAOCreated",
      "type": "event"
    },
    {
      "constant": true,
      "inputs": [
        {
          "name": "_address",
          "type": "address"
        }
      ],
      "name": "exists",
      "outputs": [
        {
          "name": "",
          "type": "bool"
        }
      ],
      "payable": false,
      "stateMutability": "view",
      "type": "function"
    },
    {
      "constant": false,
      "inputs": [
        {
          "name": "_from",
          "type": "address"
        },
        {
          "name": "_dxcAmount",
          "type": "uint256"
        }
      ],
      "name": "handleDXCPayment",
      "outputs": [],
      "payable": false,
      "stateMutability": "nonpayable",
      "type": "function"
    },
    {
      "constant": false,
      "inputs": [
        {
          "name": "_name",
          "type": "string"
        },
        {
          "name": "_description",
          "type": "string"
        },
        {
          "name": "_initialCapital",
          "type": "uint256"
        }
      ],
      "name": "createCrowdsaleDAO",
      "outputs": [],
      "payable": false,
      "stateMutability": "nonpayable",
      "type": "function"
    }
  ],
  "bytecode": "0x60806040523480156200001157600080fd5b506040516101408062001143833981016040908152815160208301519183015160608401519193909190608001600160a060020a038516158015906200005f5750600160a060020a03841615155b8015620000745750600160a060020a03831615155b8015620000895750600160a060020a03821615155b15156200009557600080fd5b60008054600160a060020a03808816600160a060020a03199283161790925560038054858416908316179055600180548784169083161790556002805492861692909116919091179055620000ed60068281620002cc565b50600154604080517f73657444616f466163746f7279286164647265737329000000000000000000008152815190819003601601812063ffffffff7c01000000000000000000000000000000000000000000000000000000009182900490811690910282523060048301529151600160a060020a03909316926024808301926000929190829003018183875af19250505015156200018a57600080fd5b600254604080517f73657444616f466163746f7279286164647265737329000000000000000000008152815190819003601601812063ffffffff7c01000000000000000000000000000000000000000000000000000000009182900490811690910282523060048301529151600160a060020a03909316926024808301926000929190829003018183875af19250505015156200022657600080fd5b60008054604080517f73657444616f466163746f7279286164647265737329000000000000000000008152815190819003601601812063ffffffff7c01000000000000000000000000000000000000000000000000000000009182900490811690910282523060048301529151600160a060020a0390931693919260248083019392829003018183875af1925050501515620002c157600080fd5b505050505062000353565b826006810192821562000317579160200282015b82811115620003175782518254600160a060020a031916600160a060020a03909116178255602090920191600190910190620002e0565b506200032592915062000329565b5090565b6200035091905b8082111562000325578054600160a060020a031916815560010162000330565b90565b610de080620003636000396000f3006080604052600436106100825763ffffffff7c01000000000000000000000000000000000000000000000000000000006000350416632892ae7b811461008757806362a2b372146101225780639083682214610153578063939eaf9f14610168578063bb24c54b1461018c578063d4e804ab146101a1578063f6a3d24e146101b6575b600080fd5b34801561009357600080fd5b506040805160206004803580820135601f810184900484028501840190955284845261012094369492936024939284019190819084018382808284375050604080516020601f89358b018035918201839004830284018301909452808352979a99988101979196509182019450925082915084018382808284375094975050933594506101eb9350505050565b005b34801561012e57600080fd5b50610137610ad5565b60408051600160a060020a039092168252519081900360200190f35b34801561015f57600080fd5b50610137610ae4565b34801561017457600080fd5b50610120600160a060020a0360043516602435610af3565b34801561019857600080fd5b50610137610c49565b3480156101ad57600080fd5b50610137610c58565b3480156101c257600080fd5b506101d7600160a060020a0360043516610c67565b604080519115158252519081900360200190f35b600081670de0b6b3a7640000811015610274576040805160e560020a62461bcd02815260206004820152602e60248201527f496e697469616c206361706974616c2073686f756c6420626520657175616c2060448201527f6174206c65617374203120445843000000000000000000000000000000000000606482015290519081900360840190fd5b600354604080517f70a0823100000000000000000000000000000000000000000000000000000000815230600482015290518592600160a060020a0316916370a082319160248083019260209291908290030181600087803b1580156102d957600080fd5b505af11580156102ed573d6000803e3d6000fd5b505050506040513d602081101561030357600080fd5b5051811115610382576040805160e560020a62461bcd02815260206004820152603f60248201527f4e6f7420656e6f7567682044584320746f6b656e732077657265207472616e7360448201527f66657272656420666f72207375636820696e697469616c206361706974616c00606482015290519081900360840190fd5b3360009081526004602052604090205481111561040f576040805160e560020a62461bcd02815260206004820152602f60248201527f4e6f7420656e6f756768204458432077657265207472616e736665727265642060448201527f627920796f757220616464726573730000000000000000000000000000000000606482015290519081900360840190fd5b600080546001546002546003546040517f1eca7ddd000000000000000000000000000000000000000000000000000000008152600160a060020a039485166044820181905293851660648201819052928516608482018190529490911660a4820181905260c482018a905260e0600483019081528c5160e48401528c5173__DAODeployer___________________________97631eca7ddd978f978f9790969095919491938f93839260248101926101049091019160208d0191908190849084905b838110156104e95781810151838201526020016104d1565b50505050905090810190601f1680156105165780820380516001836020036101000a031916815260200191505b5083810382528951815289516020918201918b019080838360005b83811015610549578181015183820152602001610531565b50505050905090810190601f1680156105765780820380516001836020036101000a031916815260200191505b50995050505050505050505060206040518083038186803b15801561059a57600080fd5b505af41580156105ae573d6000803e3d6000fd5b505050506040513d60208110156105c457600080fd5b50513360009081526004602081905260408083208054899003905560035481517fa9059cbb000000000000000000000000000000000000000000000000000000008152600160a060020a0380871694820194909452602481018a905291519497509091169263a9059cbb9260448084019391929182900301818387803b15801561064d57600080fd5b505af1158015610661573d6000803e3d6000fd5b5050600654604080517f0eed6e8d000000000000000000000000000000000000000000000000000000008152600160a060020a03928316600482015290519187169350630eed6e8d925060248082019260009290919082900301818387803b1580156106cc57600080fd5b505af11580156106e0573d6000803e3d6000fd5b5050600754604080517f81bb60de000000000000000000000000000000000000000000000000000000008152600160a060020a039283166004820152905191871693506381bb60de925060248082019260009290919082900301818387803b15801561074b57600080fd5b505af115801561075f573d6000803e3d6000fd5b5050600854604080517fe70e3737000000000000000000000000000000000000000000000000000000008152600160a060020a0392831660048201529051918716935063e70e3737925060248082019260009290919082900301818387803b1580156107ca57600080fd5b505af11580156107de573d6000803e3d6000fd5b5050600954604080517f62095841000000000000000000000000000000000000000000000000000000008152600160a060020a039283166004820152905191871693506362095841925060248082019260009290919082900301818387803b15801561084957600080fd5b505af115801561085d573d6000803e3d6000fd5b5050600a54604080517fe39c3301000000000000000000000000000000000000000000000000000000008152600160a060020a0392831660048201529051918716935063e39c3301925060248082019260009290919082900301818387803b1580156108c857600080fd5b505af11580156108dc573d6000803e3d6000fd5b5050600b54604080517ffc4f89aa000000000000000000000000000000000000000000000000000000008152600160a060020a0392831660048201529051918716935063fc4f89aa925060248082019260009290919082900301818387803b15801561094757600080fd5b505af115801561095b573d6000803e3d6000fd5b5050604080517f6d435421000000000000000000000000000000000000000000000000000000008152600160a060020a0387166004820152336024820152905173__DAODeployer___________________________9350636d43542192506044808301926000929190829003018186803b1580156109d857600080fd5b505af41580156109ec573d6000803e3d6000fd5b50505050600160a060020a03831660009081526005602090815260409091208751610a1992890190610d19565b507f8bdd5b2ef14125c4b75d90d6eaff35e09e1014c9ebe5376dffe0c88fd9da656d83876040518083600160a060020a0316600160a060020a0316815260200180602001828103825283818151815260200191508051906020019080838360005b83811015610a92578181015183820152602001610a7a565b50505050905090810190601f168015610abf5780820380516001836020036101000a031916815260200191505b50935050505060405180910390a1505050505050565b600254600160a060020a031681565b600354600160a060020a031681565b600354600160a060020a03163314610b7b576040805160e560020a62461bcd02815260206004820152602b60248201527f4d6574686f642063616e2062652063616c6c6564206f6e6c792066726f6d204460448201527f584320636f6e7472616374000000000000000000000000000000000000000000606482015290519081900360840190fd5b670de0b6b3a7640000811015610c27576040805160e560020a62461bcd02815260206004820152604560248201527f416d6f756e74206f662044584320666f7220696e697469616c206465706f736960448201527f74206d75737420626520657175616c206f722067726561746572207468616e2060648201527f3120445843000000000000000000000000000000000000000000000000000000608482015290519081900360a40190fd5b600160a060020a03909116600090815260046020526040902080549091019055565b600154600160a060020a031681565b600054600160a060020a031681565b60408051600160a060020a0383166000908152600560205291822080547fc5d2460186f7233c927e7db2dcc703c0e500b653ca82273b7bfad8045d85a470929081908390600261010060018316150260001901909116048015610d015780601f10610cdf576101008083540402835291820191610d01565b820191906000526020600020905b815481529060010190602001808311610ced575b50506040519081900390209290921415949350505050565b828054600181600116156101000203166002900490600052602060002090601f016020900481019282601f10610d5a57805160ff1916838001178555610d87565b82800160010185558215610d87579182015b82811115610d87578251825591602001919060010190610d6c565b50610d93929150610d97565b5090565b610db191905b80821115610d935760008155600101610d9d565b905600a165627a7a723058205f10b69b7ed3497dd264d9333af9d4c2144ed950613a236d3d60afe1f558f01f0029",
  "source": "pragma solidity ^0.4.0;\n\nimport \"./DAOFactoryInterface.sol\";\nimport \"./DAODeployer.sol\";\nimport \"../Common.sol\";\nimport \"../Token/TokenInterface.sol\";\n\ninterface IDAOModules {\n    function setStateModule(address _stateModule) external;\n    function setPaymentModule(address _paymentModule) external;\n    function setVotingDecisionModule(address _votingDecisionModule) external;\n    function setCrowdsaleModule(address _crowdsaleModule) external;\n    function setProxyAPI(address _proxyAPI) external;\n    function setApiSettersModule(address _allowedSetters) external;\n}\n\ncontract CrowdsaleDAOFactory is DAOFactoryInterface {\n    event CrowdsaleDAOCreated(\n        address _address,\n        string _name\n    );\n\n    address public serviceContractAddress;\n    address public votingFactory;\n    address public serviceVotingFactory;\n    address public DXC;\n    mapping(address => uint) DXCDeposit;\n    // DAOs created by factory\n    mapping(address => string) DAOs;\n    // Functional modules which will be used by DAOs to delegate calls\n    address[6] modules;\n\n    function CrowdsaleDAOFactory(address _serviceContract, address _votingFactory, address _serviceVotingFactory, address _DXC, address[6] _modules) {\n        require(_serviceContract != 0x0 && _votingFactory != 0x0 && _serviceVotingFactory != 0x0 && _DXC != 0x0);\n        serviceContractAddress = _serviceContract;\n        DXC = _DXC;\n        votingFactory = _votingFactory;\n        serviceVotingFactory = _serviceVotingFactory;\n        modules = _modules;\n\n        require(votingFactory.call(bytes4(keccak256(\"setDaoFactory(address)\")), this));\n        require(serviceVotingFactory.call(bytes4(keccak256(\"setDaoFactory(address)\")), this));\n        require(serviceContractAddress.call(bytes4(keccak256(\"setDaoFactory(address)\")), this));\n    }\n\n    /*\n    * @dev Checks if provided address is an address of some DAO contract created by this factory\n    * @param _address Address of contract\n    * @return boolean indicating whether the contract was created by this factory or not\n    */\n    function exists(address _address) external constant returns (bool) {\n        return keccak256(DAOs[_address]) != keccak256(\"\");\n    }\n\n    /*\n    * @dev Receives info about address which sent DXC tokens to current contract and about amount of sent tokens from\n    *       DXC token contract and then saves this information to DXCDeposit mapping\n    * @param _from Address which sent DXC tokens\n    * @param _amount Amount of tokens which were sent\n    */\n    function handleDXCPayment(address _from, uint _dxcAmount) external onlyDXC {\n        require(_dxcAmount >= 10**18, \"Amount of DXC for initial deposit must be equal or greater than 1 DXC\");\n\n        DXCDeposit[_from] += _dxcAmount;\n    }\n\n    /*\n    * @dev Creates new CrowdsaleDAO contract, provides it with addresses of modules, transfers ownership to tx sender\n    *      and saves address of created contract to DAOs mapping\n    * @param _name Name of the DAO\n    * @param _name Description for the DAO\n    * @param _initialCapital initial capital for DAO that will be created\n    */\n    function createCrowdsaleDAO(string _name, string _description, uint _initialCapital) public correctInitialCapital(_initialCapital) enoughDXC(_initialCapital) {\n        address dao = DAODeployer.deployCrowdsaleDAO(_name, _description, serviceContractAddress, votingFactory, serviceVotingFactory, DXC, _initialCapital);\n        DXCDeposit[msg.sender] -= _initialCapital;\n        TokenInterface(DXC).transfer(dao, _initialCapital);\n\n        IDAOModules(dao).setStateModule(modules[0]);\n        IDAOModules(dao).setPaymentModule(modules[1]);\n        IDAOModules(dao).setVotingDecisionModule(modules[2]);\n        IDAOModules(dao).setCrowdsaleModule(modules[3]);\n        IDAOModules(dao).setProxyAPI(modules[4]);\n        IDAOModules(dao).setApiSettersModule(modules[5]);\n        DAODeployer.transferOwnership(dao, msg.sender);\n\n        DAOs[dao] = _name;\n        CrowdsaleDAOCreated(dao, _name);\n    }\n\n    modifier onlyDXC() {\n        require(msg.sender == address(DXC), \"Method can be called only from DXC contract\");\n        _;\n    }\n\n    modifier correctInitialCapital(uint value) {\n        require(value >= 10**18, \"Initial capital should be equal at least 1 DXC\");\n        _;\n    }\n\n    modifier enoughDXC(uint value) {\n        require(value <= TokenInterface(DXC).balanceOf(this), \"Not enough DXC tokens were transferred for such initial capital\");\n        require(DXCDeposit[msg.sender] >= value, \"Not enough DXC were transferred by your address\");\n        _;\n    }\n}",
  "sourcePath": "/Users/giddeonwyeth/PhpstormProjects/dao/daox-contracts/contracts/DAO/CrowdsaleDAOFactory.sol",
  "compiler": {
    "name": "solc",
    "version": "0.4.24+commit.e67f0147.Emscripten.clang"
  },
  "schemaVersion": "2.0.1",
  "updatedAt": "2018-07-10T08:45:13.447Z"
}