{
  "contractName": "CrowdsaleDAOFields",
  "abi": [
    {
      "constant": true,
      "inputs": [],
      "name": "lockup",
      "outputs": [
        {
          "name": "",
          "type": "uint256"
        }
      ],
      "payable": false,
      "stateMutability": "view",
      "type": "function"
    },
    {
      "constant": true,
      "inputs": [],
      "name": "name",
      "outputs": [
        {
          "name": "",
          "type": "string"
        }
      ],
      "payable": false,
      "stateMutability": "view",
      "type": "function"
    },
    {
      "constant": true,
      "inputs": [],
      "name": "tokensMintedByEther",
      "outputs": [
        {
          "name": "",
          "type": "uint256"
        }
      ],
      "payable": false,
      "stateMutability": "view",
      "type": "function"
    },
    {
      "constant": true,
      "inputs": [
        {
          "name": "",
          "type": "address"
        }
      ],
      "name": "teamMap",
      "outputs": [
        {
          "name": "",
          "type": "bool"
        }
      ],
      "payable": false,
      "stateMutability": "view",
      "type": "function"
    },
    {
      "constant": true,
      "inputs": [
        {
          "name": "",
          "type": "address"
        }
      ],
      "name": "depositedWei",
      "outputs": [
        {
          "name": "",
          "type": "uint256"
        }
      ],
      "payable": false,
      "stateMutability": "view",
      "type": "function"
    },
    {
      "constant": true,
      "inputs": [
        {
          "name": "",
          "type": "uint256"
        }
      ],
      "name": "team",
      "outputs": [
        {
          "name": "",
          "type": "address"
        }
      ],
      "payable": false,
      "stateMutability": "view",
      "type": "function"
    },
    {
      "constant": true,
      "inputs": [],
      "name": "commissionRaised",
      "outputs": [
        {
          "name": "",
          "type": "uint256"
        }
      ],
      "payable": false,
      "stateMutability": "view",
      "type": "function"
    },
    {
      "constant": true,
      "inputs": [],
      "name": "refundableSoftCap",
      "outputs": [
        {
          "name": "",
          "type": "bool"
        }
      ],
      "payable": false,
      "stateMutability": "view",
      "type": "function"
    },
    {
      "constant": true,
      "inputs": [],
      "name": "votingPrice",
      "outputs": [
        {
          "name": "",
          "type": "uint256"
        }
      ],
      "payable": false,
      "stateMutability": "view",
      "type": "function"
    },
    {
      "constant": true,
      "inputs": [
        {
          "name": "",
          "type": "uint256"
        }
      ],
      "name": "teamBonusesArr",
      "outputs": [
        {
          "name": "",
          "type": "uint256"
        }
      ],
      "payable": false,
      "stateMutability": "view",
      "type": "function"
    },
    {
      "constant": true,
      "inputs": [
        {
          "name": "",
          "type": "uint256"
        }
      ],
      "name": "teamServiceMember",
      "outputs": [
        {
          "name": "",
          "type": "bool"
        }
      ],
      "payable": false,
      "stateMutability": "view",
      "type": "function"
    },
    {
      "constant": true,
      "inputs": [],
      "name": "endTime",
      "outputs": [
        {
          "name": "",
          "type": "uint256"
        }
      ],
      "payable": false,
      "stateMutability": "view",
      "type": "function"
    },
    {
      "constant": true,
      "inputs": [],
      "name": "serviceContract",
      "outputs": [
        {
          "name": "",
          "type": "address"
        }
      ],
      "payable": false,
      "stateMutability": "view",
      "type": "function"
    },
    {
      "constant": true,
      "inputs": [
        {
          "name": "",
          "type": "address"
        }
      ],
      "name": "votings",
      "outputs": [
        {
          "name": "",
          "type": "address"
        }
      ],
      "payable": false,
      "stateMutability": "view",
      "type": "function"
    },
    {
      "constant": true,
      "inputs": [
        {
          "name": "",
          "type": "address"
        }
      ],
      "name": "whiteList",
      "outputs": [
        {
          "name": "",
          "type": "bool"
        }
      ],
      "payable": false,
      "stateMutability": "view",
      "type": "function"
    },
    {
      "constant": true,
      "inputs": [],
      "name": "canInitStateParameters",
      "outputs": [
        {
          "name": "",
          "type": "bool"
        }
      ],
      "payable": false,
      "stateMutability": "view",
      "type": "function"
    },
    {
      "constant": true,
      "inputs": [
        {
          "name": "",
          "type": "uint256"
        }
      ],
      "name": "whiteListArr",
      "outputs": [
        {
          "name": "",
          "type": "address"
        }
      ],
      "payable": false,
      "stateMutability": "view",
      "type": "function"
    },
    {
      "constant": true,
      "inputs": [],
      "name": "weiRaised",
      "outputs": [
        {
          "name": "",
          "type": "uint256"
        }
      ],
      "payable": false,
      "stateMutability": "view",
      "type": "function"
    },
    {
      "constant": true,
      "inputs": [],
      "name": "DXCRaised",
      "outputs": [
        {
          "name": "",
          "type": "uint256"
        }
      ],
      "payable": false,
      "stateMutability": "view",
      "type": "function"
    },
    {
      "constant": true,
      "inputs": [],
      "name": "version",
      "outputs": [
        {
          "name": "",
          "type": "bytes32"
        }
      ],
      "payable": false,
      "stateMutability": "view",
      "type": "function"
    },
    {
      "constant": true,
      "inputs": [
        {
          "name": "",
          "type": "uint256"
        }
      ],
      "name": "bonusDXCRates",
      "outputs": [
        {
          "name": "",
          "type": "uint256"
        }
      ],
      "payable": false,
      "stateMutability": "view",
      "type": "function"
    },
    {
      "constant": true,
      "inputs": [],
      "name": "canSetWhiteList",
      "outputs": [
        {
          "name": "",
          "type": "bool"
        }
      ],
      "payable": false,
      "stateMutability": "view",
      "type": "function"
    },
    {
      "constant": true,
      "inputs": [],
      "name": "initialCapital",
      "outputs": [
        {
          "name": "",
          "type": "uint256"
        }
      ],
      "payable": false,
      "stateMutability": "view",
      "type": "function"
    },
    {
      "constant": true,
      "inputs": [],
      "name": "serviceVotingFactory",
      "outputs": [
        {
          "name": "",
          "type": "address"
        }
      ],
      "payable": false,
      "stateMutability": "view",
      "type": "function"
    },
    {
      "constant": true,
      "inputs": [],
      "name": "tokensMintedByDXC",
      "outputs": [
        {
          "name": "",
          "type": "uint256"
        }
      ],
      "payable": false,
      "stateMutability": "view",
      "type": "function"
    },
    {
      "constant": true,
      "inputs": [],
      "name": "fundsRaised",
      "outputs": [
        {
          "name": "",
          "type": "uint256"
        }
      ],
      "payable": false,
      "stateMutability": "view",
      "type": "function"
    },
    {
      "constant": true,
      "inputs": [
        {
          "name": "",
          "type": "uint256"
        }
      ],
      "name": "teamHold",
      "outputs": [
        {
          "name": "",
          "type": "uint256"
        }
      ],
      "payable": false,
      "stateMutability": "view",
      "type": "function"
    },
    {
      "constant": true,
      "inputs": [
        {
          "name": "",
          "type": "address"
        }
      ],
      "name": "services",
      "outputs": [
        {
          "name": "",
          "type": "bool"
        }
      ],
      "payable": false,
      "stateMutability": "view",
      "type": "function"
    },
    {
      "constant": true,
      "inputs": [],
      "name": "description",
      "outputs": [
        {
          "name": "",
          "type": "string"
        }
      ],
      "payable": false,
      "stateMutability": "view",
      "type": "function"
    },
    {
      "constant": true,
      "inputs": [],
      "name": "startTime",
      "outputs": [
        {
          "name": "",
          "type": "uint256"
        }
      ],
      "payable": false,
      "stateMutability": "view",
      "type": "function"
    },
    {
      "constant": true,
      "inputs": [
        {
          "name": "",
          "type": "address"
        }
      ],
      "name": "depositedDXC",
      "outputs": [
        {
          "name": "",
          "type": "uint256"
        }
      ],
      "payable": false,
      "stateMutability": "view",
      "type": "function"
    },
    {
      "constant": true,
      "inputs": [],
      "name": "softCap",
      "outputs": [
        {
          "name": "",
          "type": "uint256"
        }
      ],
      "payable": false,
      "stateMutability": "view",
      "type": "function"
    },
    {
      "constant": true,
      "inputs": [],
      "name": "DXC",
      "outputs": [
        {
          "name": "",
          "type": "address"
        }
      ],
      "payable": false,
      "stateMutability": "view",
      "type": "function"
    },
    {
      "constant": true,
      "inputs": [],
      "name": "canInitCrowdsaleParameters",
      "outputs": [
        {
          "name": "",
          "type": "bool"
        }
      ],
      "payable": false,
      "stateMutability": "view",
      "type": "function"
    },
    {
      "constant": true,
      "inputs": [],
      "name": "created_at",
      "outputs": [
        {
          "name": "",
          "type": "uint256"
        }
      ],
      "payable": false,
      "stateMutability": "view",
      "type": "function"
    },
    {
      "constant": true,
      "inputs": [],
      "name": "DXCRate",
      "outputs": [
        {
          "name": "",
          "type": "uint256"
        }
      ],
      "payable": false,
      "stateMutability": "view",
      "type": "function"
    },
    {
      "constant": true,
      "inputs": [],
      "name": "lastWithdrawalTimestamp",
      "outputs": [
        {
          "name": "",
          "type": "uint256"
        }
      ],
      "payable": false,
      "stateMutability": "view",
      "type": "function"
    },
    {
      "constant": true,
      "inputs": [],
      "name": "teamTokensAmount",
      "outputs": [
        {
          "name": "",
          "type": "uint256"
        }
      ],
      "payable": false,
      "stateMutability": "view",
      "type": "function"
    },
    {
      "constant": true,
      "inputs": [],
      "name": "votingFactory",
      "outputs": [
        {
          "name": "",
          "type": "address"
        }
      ],
      "payable": false,
      "stateMutability": "view",
      "type": "function"
    },
    {
      "constant": true,
      "inputs": [],
      "name": "refundable",
      "outputs": [
        {
          "name": "",
          "type": "bool"
        }
      ],
      "payable": false,
      "stateMutability": "view",
      "type": "function"
    },
    {
      "constant": true,
      "inputs": [],
      "name": "canInitBonuses",
      "outputs": [
        {
          "name": "",
          "type": "bool"
        }
      ],
      "payable": false,
      "stateMutability": "view",
      "type": "function"
    },
    {
      "constant": true,
      "inputs": [],
      "name": "newDXCRate",
      "outputs": [
        {
          "name": "",
          "type": "uint256"
        }
      ],
      "payable": false,
      "stateMutability": "view",
      "type": "function"
    },
    {
      "constant": true,
      "inputs": [
        {
          "name": "",
          "type": "address"
        }
      ],
      "name": "initialCapitalIncr",
      "outputs": [
        {
          "name": "",
          "type": "uint256"
        }
      ],
      "payable": false,
      "stateMutability": "view",
      "type": "function"
    },
    {
      "constant": true,
      "inputs": [],
      "name": "etherRate",
      "outputs": [
        {
          "name": "",
          "type": "uint256"
        }
      ],
      "payable": false,
      "stateMutability": "view",
      "type": "function"
    },
    {
      "constant": true,
      "inputs": [
        {
          "name": "",
          "type": "uint256"
        }
      ],
      "name": "bonusEtherRates",
      "outputs": [
        {
          "name": "",
          "type": "uint256"
        }
      ],
      "payable": false,
      "stateMutability": "view",
      "type": "function"
    },
    {
      "constant": true,
      "inputs": [],
      "name": "commissionContract",
      "outputs": [
        {
          "name": "",
          "type": "address"
        }
      ],
      "payable": false,
      "stateMutability": "view",
      "type": "function"
    },
    {
      "constant": true,
      "inputs": [
        {
          "name": "",
          "type": "address"
        }
      ],
      "name": "teamBonuses",
      "outputs": [
        {
          "name": "",
          "type": "uint256"
        }
      ],
      "payable": false,
      "stateMutability": "view",
      "type": "function"
    },
    {
      "constant": true,
      "inputs": [],
      "name": "newEtherRate",
      "outputs": [
        {
          "name": "",
          "type": "uint256"
        }
      ],
      "payable": false,
      "stateMutability": "view",
      "type": "function"
    },
    {
      "constant": true,
      "inputs": [],
      "name": "proxyAPI",
      "outputs": [
        {
          "name": "",
          "type": "address"
        }
      ],
      "payable": false,
      "stateMutability": "view",
      "type": "function"
    },
    {
      "constant": true,
      "inputs": [],
      "name": "dxcPayments",
      "outputs": [
        {
          "name": "",
          "type": "bool"
        }
      ],
      "payable": false,
      "stateMutability": "view",
      "type": "function"
    },
    {
      "constant": true,
      "inputs": [
        {
          "name": "",
          "type": "uint256"
        }
      ],
      "name": "bonusPeriods",
      "outputs": [
        {
          "name": "",
          "type": "uint256"
        }
      ],
      "payable": false,
      "stateMutability": "view",
      "type": "function"
    },
    {
      "constant": true,
      "inputs": [],
      "name": "crowdsaleFinished",
      "outputs": [
        {
          "name": "",
          "type": "bool"
        }
      ],
      "payable": false,
      "stateMutability": "view",
      "type": "function"
    },
    {
      "constant": true,
      "inputs": [],
      "name": "hardCap",
      "outputs": [
        {
          "name": "",
          "type": "uint256"
        }
      ],
      "payable": false,
      "stateMutability": "view",
      "type": "function"
    },
    {
      "constant": true,
      "inputs": [],
      "name": "token",
      "outputs": [
        {
          "name": "",
          "type": "address"
        }
      ],
      "payable": false,
      "stateMutability": "view",
      "type": "function"
    }
  ],
  "bytecode": "0x60806040526006805463ff0000001962ff00001961ff001960ff19938416600117811661010017919091166201000017919091166301000000179092556000600781905560088190556009819055600a819055600d8054909316909255600e829055600f82905542601c55601e80549091169055601f819055602b819055602c819055602d5534801561009157600080fd5b50610c03806100a16000396000f3006080604052600436106102875763ffffffff7c010000000000000000000000000000000000000000000000000000000060003504166306490f47811461028c57806306fdde03146102b35780630ce57c251461033d57806310be8d12146103525780631233799314610387578063197ebd53146103a85780631e782df5146103dc578063289a03b0146103f15780632948b4e9146104065780632eeacc5f1461041b57806330c5a0f2146104335780633197cbb61461044b578063364dab1014610460578063369ef72214610475578063372c12b114610496578063395ad021146104b75780633b541bdb146104cc5780634042b66f146104e45780634f065368146104f957806354fd4d501461050e57806356428fe5146105235780635f30b6451461053b578063601e538b1461055057806362a2b3721461056557806362c646391461057a5780636681b9fd1461058f5780636922b214146105a45780636d966d01146105bc5780637284e416146105dd57806378e97925146105f25780637d6d3b8c14610607578063906a26e014610628578063908368221461063d5780639b95a835146106525780639c6f0d85146106675780639e58779e1461067c578063a62c416914610691578063a88f893a146106a6578063bb24c54b146106bb578063bf89662d146106d0578063c0ef7a6d146106e5578063c18f18e8146106fa578063cc9e4fd41461070f578063d0f7a60114610730578063da7801b314610745578063da8909e51461075d578063db13c72514610772578063e2278f2f14610793578063e2a7937b146107a8578063e3bd043a146107bd578063e9fdfb89146107d2578063ece84fd5146107ea578063fb86a404146107ff578063fc0c546a14610814575b600080fd5b34801561029857600080fd5b506102a1610829565b60408051918252519081900360200190f35b3480156102bf57600080fd5b506102c861082f565b6040805160208082528351818301528351919283929083019185019080838360005b838110156103025781810151838201526020016102ea565b50505050905090810190601f16801561032f5780820380516001836020036101000a031916815260200191505b509250505060405180910390f35b34801561034957600080fd5b506102a16108bd565b34801561035e57600080fd5b50610373600160a060020a03600435166108c3565b604080519115158252519081900360200190f35b34801561039357600080fd5b506102a1600160a060020a03600435166108d8565b3480156103b457600080fd5b506103c06004356108ea565b60408051600160a060020a039092168252519081900360200190f35b3480156103e857600080fd5b506102a1610912565b3480156103fd57600080fd5b50610373610918565b34801561041257600080fd5b506102a1610926565b34801561042757600080fd5b506102a160043561092c565b34801561043f57600080fd5b5061037360043561094b565b34801561045757600080fd5b506102a161097d565b34801561046c57600080fd5b506103c0610983565b34801561048157600080fd5b506103c0600160a060020a0360043516610992565b3480156104a257600080fd5b50610373600160a060020a03600435166109ad565b3480156104c357600080fd5b506103736109c2565b3480156104d857600080fd5b506103c06004356109d0565b3480156104f057600080fd5b506102a16109de565b34801561050557600080fd5b506102a16109e4565b34801561051a57600080fd5b506102a16109ea565b34801561052f57600080fd5b506102a1600435610a0e565b34801561054757600080fd5b50610373610a1c565b34801561055c57600080fd5b506102a1610a2c565b34801561057157600080fd5b506103c0610a32565b34801561058657600080fd5b506102a1610a41565b34801561059b57600080fd5b506102a1610a47565b3480156105b057600080fd5b506102a1600435610a4d565b3480156105c857600080fd5b50610373600160a060020a0360043516610a5b565b3480156105e957600080fd5b506102c8610a70565b3480156105fe57600080fd5b506102a1610acb565b34801561061357600080fd5b506102a1600160a060020a0360043516610ad1565b34801561063457600080fd5b506102a1610ae3565b34801561064957600080fd5b506103c0610ae9565b34801561065e57600080fd5b50610373610af8565b34801561067357600080fd5b506102a1610b01565b34801561068857600080fd5b506102a1610b07565b34801561069d57600080fd5b506102a1610b0d565b3480156106b257600080fd5b506102a1610b13565b3480156106c757600080fd5b506103c0610b19565b3480156106dc57600080fd5b50610373610b28565b3480156106f157600080fd5b50610373610b31565b34801561070657600080fd5b506102a1610b40565b34801561071b57600080fd5b506102a1600160a060020a0360043516610b46565b34801561073c57600080fd5b506102a1610b58565b34801561075157600080fd5b506102a1600435610b5e565b34801561076957600080fd5b506103c0610b6c565b34801561077e57600080fd5b506102a1600160a060020a0360043516610b7b565b34801561079f57600080fd5b506102a1610b8d565b3480156107b457600080fd5b506103c0610b93565b3480156107c957600080fd5b50610373610ba2565b3480156107de57600080fd5b506102a1600435610bab565b3480156107f657600080fd5b50610373610bb9565b34801561080b57600080fd5b506102a1610bc2565b34801561082057600080fd5b506103c0610bc8565b602b5481565b601a805460408051602060026001851615610100026000190190941693909304601f810184900484028201840190925281815292918301828280156108b55780601f1061088a576101008083540402835291602001916108b5565b820191906000526020600020905b81548152906001019060200180831161089857829003601f168201915b505050505081565b60285481565b60136020526000908152604090205460ff1681565b600b6020526000908152604090205481565b60128054829081106108f857fe5b600091825260209091200154600160a060020a0316905081565b60075481565b600d54610100900460ff1681565b602d5481565b601180548290811061093a57fe5b600091825260209091200154905081565b601580548290811061095957fe5b9060005260206000209060209182820401919006915054906101000a900460ff1681565b60055481565b601054600160a060020a031681565b601d60205260009081526040902054600160a060020a031681565b60216020526000908152604090205460ff1681565b600654610100900460ff1681565b60208054829081106108f857fe5b60085481565b60095481565b7f312e302e3000000000000000000000000000000000000000000000000000000081565b602580548290811061093a57fe5b6006546301000000900460ff1681565b602c5481565b601854600160a060020a031681565b60295481565b600a5481565b601480548290811061093a57fe5b60306020526000908152604090205460ff1681565b601b805460408051602060026001851615610100026000190190941693909304601f810184900484028201840190925281815292918301828280156108b55780601f1061088a576101008083540402835291602001916108b5565b60045481565b600c6020526000908152604090205481565b60025481565b602754600160a060020a031681565b60065460ff1681565b601c5481565b60015481565b601f5481565b60265481565b601754600160a060020a031681565b601e5460ff1681565b60065462010000900460ff1681565b600f5481565b602e6020526000908152604090205481565b60005481565b602480548290811061093a57fe5b601954600160a060020a031681565b60226020526000908152604090205481565b600e5481565b602f54600160a060020a031681565b602a5460ff1681565b602380548290811061093a57fe5b600d5460ff1681565b60035481565b601654600160a060020a0316815600a165627a7a72305820d7f9979dc840f39ad356ebb713de5e40dba41bbe837765ddc4f94006c60023050029",
  "source": "pragma solidity ^0.4.0;\n\nimport \"../Token/TokenInterface.sol\";\nimport \"../Votings/Common/VotingFactoryInterface.sol\";\nimport \"../Votings/Service/IServiceVotingFactory.sol\";\n\ncontract CrowdsaleDAOFields {\n    bytes32 constant public version = \"1.0.0\";\n    uint public etherRate;\n    uint public DXCRate;\n    uint public softCap;\n    uint public hardCap;\n    uint public startTime;\n    uint public endTime;\n    bool public canInitCrowdsaleParameters = true;\n    bool public canInitStateParameters = true;\n    bool public canInitBonuses = true;\n    bool public canSetWhiteList = true;\n    uint public commissionRaised = 0; // Funds which were provided via commission contract\n    uint public weiRaised = 0;\n    uint public DXCRaised = 0;\n    uint public fundsRaised = 0;\n    mapping(address => uint) public depositedWei; // Used for refund in case of not reached soft cap\n    mapping(address => uint) public depositedDXC; // Used for refund in case of not reached soft cap\n    bool public crowdsaleFinished;\n    bool public refundableSoftCap = false;\n    uint public newEtherRate = 0; // Used for refund after accept of Refund proposal\n    uint public newDXCRate = 0; // Used for refund after accept of Refund proposal\n    address public serviceContract; //Contract which gets commission funds if soft cap was reached during the crowdsale\n    uint[] public teamBonusesArr;\n    address[] public team;\n    mapping(address => bool) public teamMap;\n    uint[] public teamHold;\n    bool[] public teamServiceMember;\n    TokenInterface public token;\n    VotingFactoryInterface public votingFactory;\n    IServiceVotingFactory public serviceVotingFactory;\n    address public commissionContract; //Contract that is used to mark funds which were provided through daox.org platform\n    string public name;\n\tstring public description;\n    uint public created_at = now; // UNIX time\n    mapping(address => address) public votings;\n    bool public refundable = false;\n    uint public lastWithdrawalTimestamp = 0;\n    address[] public whiteListArr;\n    mapping(address => bool) public whiteList;\n    mapping(address => uint) public teamBonuses;\n    uint[] public bonusPeriods;\n    uint[] public bonusEtherRates;\n    uint[] public bonusDXCRates;\n    uint public teamTokensAmount;\n    uint constant internal withdrawalPeriod = 60 * 60 * 24 * 90;\n    TokenInterface public DXC;\n    uint public tokensMintedByEther;\n    uint public tokensMintedByDXC;\n    bool public dxcPayments; //Flag indicating whether it is possible to invest via DXC token or not\n    uint public lockup = 0; // UNIX time\n    uint public initialCapital = 0;\n    uint public votingPrice = 0; // Amount of DXC needed to create voting\n    mapping(address => uint) public initialCapitalIncr; // Amount of DXC that user transferred to DAO\n    address public proxyAPI;\n    mapping(address => bool) public services;\n    uint internal constant multiplier = 100000;\n    uint internal constant percentMultiplier = 100;\n}\n",
  "sourcePath": "/Users/giddeonwyeth/PhpstormProjects/dao/daox-contracts/contracts/DAO/CrowdsaleDAOFields.sol",
  "compiler": {
    "name": "solc",
    "version": "0.4.24+commit.e67f0147.Emscripten.clang"
  },
  "schemaVersion": "2.0.1",
  "updatedAt": "2018-07-11T16:06:33.296Z"
}