{
  "contractName": "DAODeployer",
  "abi": [
    {
      "constant": false,
      "inputs": [
        {
          "name": "_name",
          "type": "string"
        },
        {
          "name": "_description",
          "type": "string"
        },
        {
          "name": "_serviceContractAddress",
          "type": "address"
        },
        {
          "name": "_votingFactory",
          "type": "address"
        },
        {
          "name": "_serviceVotingFactory",
          "type": "address"
        },
        {
          "name": "_DXC",
          "type": "address"
        },
        {
          "name": "_initialCapital",
          "type": "uint256"
        }
      ],
      "name": "deployCrowdsaleDAO",
      "outputs": [
        {
          "name": "dao",
          "type": "CrowdsaleDAO"
        }
      ],
      "payable": false,
      "stateMutability": "nonpayable",
      "type": "function"
    },
    {
      "constant": false,
      "inputs": [
        {
          "name": "_dao",
          "type": "address"
        },
        {
          "name": "_newOwner",
          "type": "address"
        }
      ],
      "name": "transferOwnership",
      "outputs": [],
      "payable": false,
      "stateMutability": "nonpayable",
      "type": "function"
    }
  ],
  "bytecode": "0x613876610030600b82828239805160001a6073146000811461002057610022565bfe5b5030600052607381538281f30073000000000000000000000000000000000000000030146080604052600436106100625763ffffffff7c01000000000000000000000000000000000000000000000000000000006000350416631eca7ddd81146100675780636d43542114610144575b600080fd5b81801561007357600080fd5b506040805160206004803580820135601f810184900484028501840190955284845261012894369492936024939284019190819084018382808284375050604080516020601f89358b018035918201839004830284018301909452808352979a99988101979196509182019450925082915084018382808284375094975050600160a060020a0385358116965060208601358116956040810135821695506060810135909116935060800135915061016d9050565b60408051600160a060020a039092168252519081900360200190f35b81801561015057600080fd5b5061016b600160a060020a03600435811690602435166102aa565b005b60008787878787878761017e61033a565b600160a060020a03808716604083015285811660608301528481166080830152831660a082015260c0810182905260e0808252885190820152875181906020808301916101008401918c019080838360005b838110156101e85781810151838201526020016101d0565b50505050905090810190601f1680156102155780820380516001836020036101000a031916815260200191505b5083810382528951815289516020918201918b019080838360005b83811015610248578181015183820152602001610230565b50505050905090810190601f1680156102755780820380516001836020036101000a031916815260200191505b509950505050505050505050604051809103906000f08015801561029d573d6000803e3d6000fd5b5098975050505050505050565b81600160a060020a031663f2fde38b826040518263ffffffff167c01000000000000000000000000000000000000000000000000000000000281526004018082600160a060020a0316600160a060020a03168152602001915050600060405180830381600087803b15801561031e57600080fd5b505af1158015610332573d6000803e3d6000fd5b505050505050565b6040516135008061034b83390190560060806040526006805463ff0000001962ff00001961ff001960ff19938416600117811661010017919091166201000017919091166301000000179092556000600781905560088190556009819055600a819055600d8054909316909255600e829055600f82905542601c55601e80549091169055601f819055602b819055602c819055602d553480156200009257600080fd5b5060405162003500380380620035008339810160409081528151602080840151928401516060850151608086015160a087015160c088015160318054600160a060020a031916331790559588018051909897909701969395929491939092916200010291601a918a019062000191565b5085516200011890601b90602089019062000191565b5060108054600160a060020a03808816600160a060020a03199283161790925560178054878416908316179055601880548684169083161790556027805492851692909116919091179055602c819055600a810415156200017b57600162000180565b600a81045b602d55506200023695505050505050565b828054600181600116156101000203166002900490600052602060002090601f016020900481019282601f10620001d457805160ff191683800117855562000204565b8280016001018555821562000204579182015b8281111562000204578251825591602001919060010190620001e7565b506200021292915062000216565b5090565b6200023391905b808211156200021257600081556001016200021d565b90565b6132ba80620002466000396000f3006080604052600436106104055763ffffffff60e060020a60003504166306490f4781146104a257806306fdde03146104c95780630ce57c25146105535780630eed6e8d1461056857806310be8d121461058b57806312337993146105c0578063197ebd53146105e15780631a15b206146106155780631e782df514610639578063264b72381461064e578063289a03b01461066f5780632948b4e9146106845780632d9d4b53146106995780632eeacc5f146106ae57806330a1cc96146106c657806330c5a0f2146106db5780633197cbb6146106f3578063364dab1014610708578063369ef7221461071d578063372c12b11461073e578063395ad0211461075f5780633b541bdb146107745780633f4bbe6a1461078c5780634042b66f146108255780634f0653681461083a578063544213811461084f57806354fd4d50146108f757806356428fe51461090c578063590e1ae3146109245780635c602aee146109395780635f30b6451461094e578063601e538b14610963578063620958411461097857806362a2b3721461099957806362c64639146109ae5780636681b9fd146109c35780636922b214146109d85780637196a31a146109f05780637284e41614610ac7578063775b9c1314610adc57806378e9792514610b315780637d6d3b8c14610b4657806381bb60de14610b6757806386114fcf14610b885780638cfc5a5014610ba95780638da5cb5b14610bbe578063906a26e014610bd35780639083682214610be8578063929066f514610bfd578063939eaf9f14610c1e5780639b95a83514610c425780639c6f0d8514610c575780639e58779e14610c6c578063a62c416914610c81578063a88f893a14610c96578063a8ee49fe14610cab578063a97e788c14610ccc578063aaf793c614610ce1578063b3c7aee714610d02578063bb24c54b14610d31578063bef24bb414610d46578063bf89662d14610d6a578063c0ef7a6d14610d7f578063c18f18e814610d94578063c2bf7aef14610da9578063c6610c4214610dd2578063cb6d099e14610e86578063cc9e4fd414611031578063d00e221814611052578063d0f7a601146110ff578063d3da662814611114578063d411fffc14611129578063d56b28891461114f578063da7801b314611164578063da8909e51461117c578063db13c72514611191578063dbae9a70146111b2578063e2278f2f146111c6578063e2a7937b146111db578063e39c3301146111f0578063e3bd043a14611211578063e70e373714611226578063e90d4fb814611247578063e9fdfb891461125c578063ece84fd514611274578063ee5e758c14611289578063f00300a3146112aa578063f2fde38b146112bf578063fb86a404146112e0578063fc0c546a146112f5578063fc4f89aa1461130a575b603554604080517f36a82087000000000000000000000000000000000000000000000000000000008152600160a060020a039092166004830152336024830152600060448301819052905173__DAOProxy______________________________926336a82087926064808301939192829003018186803b15801561048857600080fd5b505af415801561049c573d6000803e3d6000fd5b50505050005b3480156104ae57600080fd5b506104b761132b565b60408051918252519081900360200190f35b3480156104d557600080fd5b506104de611331565b6040805160208082528351818301528351919283929083019185019080838360005b83811015610518578181015183820152602001610500565b50505050905090810190601f1680156105455780820380516001836020036101000a031916815260200191505b509250505060405180910390f35b34801561055f57600080fd5b506104b76113bf565b34801561057457600080fd5b50610589600160a060020a03600435166113c5565b005b34801561059757600080fd5b506105ac600160a060020a036004351661143c565b604080519115158252519081900360200190f35b3480156105cc57600080fd5b506104b7600160a060020a0360043516611451565b3480156105ed57600080fd5b506105f9600435611463565b60408051600160a060020a039092168252519081900360200190f35b34801561062157600080fd5b50610589600160a060020a036004351660243561148b565b34801561064557600080fd5b506104b761152c565b34801561065a57600080fd5b50610589600160a060020a0360043516611532565b34801561067b57600080fd5b506105ac6115a9565b34801561069057600080fd5b506104b76115b7565b3480156106a557600080fd5b506105f96115bd565b3480156106ba57600080fd5b506104b76004356115cc565b3480156106d257600080fd5b506105f96115eb565b3480156106e757600080fd5b506105ac6004356115fa565b3480156106ff57600080fd5b506104b761162c565b34801561071457600080fd5b506105f9611632565b34801561072957600080fd5b506105f9600160a060020a0360043516611641565b34801561074a57600080fd5b506105ac600160a060020a036004351661165c565b34801561076b57600080fd5b506105ac611671565b34801561078057600080fd5b506105f960043561167f565b34801561079857600080fd5b506040805160206004803580820135601f810184900484028501840190955284845261058994369492936024939284019190819084018382808284375050604080516020601f89358b018035918201839004830284018301909452808352979a999881019791965091820194509250829150840183828082843750949750509335945061168d9350505050565b34801561083157600080fd5b506104b7611838565b34801561084657600080fd5b506104b761183e565b34801561085b57600080fd5b506040805160206004803580820135601f810184900484028501840190955284845261058994369492936024939284019190819084018382808284375050604080516020601f89358b018035918201839004830284018301909452808352979a9998810197919650918201945092508291508401838280828437509497505084359550505050602090910135600160a060020a03169050611844565b34801561090357600080fd5b506104b7611a0a565b34801561091857600080fd5b506104b7600435611a2e565b34801561093057600080fd5b50610589611a3c565b34801561094557600080fd5b50610589611ac6565b34801561095a57600080fd5b506105ac611b3c565b34801561096f57600080fd5b506104b7611b4c565b34801561098457600080fd5b50610589600160a060020a0360043516611b52565b3480156109a557600080fd5b506105f9611bc9565b3480156109ba57600080fd5b506104b7611bd8565b3480156109cf57600080fd5b506104b7611bde565b3480156109e457600080fd5b506104b7600435611be4565b3480156109fc57600080fd5b506040805160206004803580820135601f810184900484028501840190955284845261058994369492936024939284019190819084018382808284375050604080516020601f89358b018035918201839004830284018301909452808352979a99988101979196509182019450925082915084018382808284375050604080516020808901358a01803580830284810184018652818552999c8b359c909b909a950198509296508101945090925082919085019084908082843750949750611bf29650505050505050565b348015610ad357600080fd5b506104de611da2565b348015610ae857600080fd5b506040805160206004803580820135838102808601850190965280855261058995369593946024949385019291829185019084908082843750949750611dfd9650505050505050565b348015610b3d57600080fd5b506104b7611eb6565b348015610b5257600080fd5b506104b7600160a060020a0360043516611ebc565b348015610b7357600080fd5b50610589600160a060020a0360043516611ece565b348015610b9457600080fd5b50610589600160a060020a0360043516611f45565b348015610bb557600080fd5b506105f9611fd7565b348015610bca57600080fd5b506105f9611fe6565b348015610bdf57600080fd5b506104b7611ff5565b348015610bf457600080fd5b506105f9611ffb565b348015610c0957600080fd5b506105ac600160a060020a036004351661200a565b348015610c2a57600080fd5b50610589600160a060020a03600435166024356120a6565b348015610c4e57600080fd5b506105ac612230565b348015610c6357600080fd5b506104b7612239565b348015610c7857600080fd5b506104b761223f565b348015610c8d57600080fd5b506104b7612245565b348015610ca257600080fd5b506104b761224b565b348015610cb757600080fd5b506105ac600160a060020a0360043516612251565b348015610cd857600080fd5b506105f9612266565b348015610ced57600080fd5b50610589600160a060020a0360043516612275565b348015610d0e57600080fd5b5061058960043560243560443560643560843560a43560c435151560e4356122ec565b348015610d3d57600080fd5b506105f96123bf565b348015610d5257600080fd5b506105896024600480358281019291013590356123ce565b348015610d7657600080fd5b506105ac6124ea565b348015610d8b57600080fd5b506105ac6124f3565b348015610da057600080fd5b506104b7612502565b348015610db557600080fd5b50610589600160a060020a03600435166024356044351515612508565b348015610dde57600080fd5b506040805160206004803580820135601f810184900484028501840190955284845261058994369492936024939284019190819084018382808284375050604080516020601f89358b018035918201839004830284018301909452808352979a99988101979196509182019450925082915084018382808284375094975050843595505050602083013592600160a060020a03604082013516925060600135151590506125b2565b348015610e9257600080fd5b506040805160206004803580820135838102808601850190965280855261058995369593946024949385019291829185019084908082843750506040805187358901803560208181028481018201909552818452989b9a998901989297509082019550935083925085019084908082843750506040805187358901803560208181028481018201909552818452989b9a998901989297509082019550935083925085019084908082843750506040805187358901803560208181028481018201909552818452989b9a998901989297509082019550935083925085019084908082843750506040805187358901803560208181028481018201909552818452989b9a998901989297509082019550935083925085019084908082843750506040805187358901803560208181028481018201909552818452989b9a998901989297509082019550935083925085019084908082843750506040805187358901803560208181028481018201909552818452989b9a9989019892975090820195509350839250850190849080828437509497506127b69650505050505050565b34801561103d57600080fd5b506104b7600160a060020a036004351661299b565b34801561105e57600080fd5b506040805160206004803580820135601f810184900484028501840190955284845261058994369492936024939284019190819084018382808284375050604080516020601f89358b018035918201839004830284018301909452808352979a9998810197919650918201945092508291508401838280828437509497505084359550505060208301359260400135600160a060020a031691506129ad9050565b34801561110b57600080fd5b506104b7612b74565b34801561112057600080fd5b50610589612b7a565b34801561113557600080fd5b50610589600160a060020a03600435166024356044612bf0565b34801561115b57600080fd5b50610589612c85565b34801561117057600080fd5b506104b7600435612cfb565b34801561118857600080fd5b506105f9612d09565b34801561119d57600080fd5b506104b7600160a060020a0360043516612d18565b610589600160a060020a0360043516612d2a565b3480156111d257600080fd5b506104b7612daf565b3480156111e757600080fd5b506105f9612db5565b3480156111fc57600080fd5b50610589600160a060020a0360043516612dc4565b34801561121d57600080fd5b506105ac612e3b565b34801561123257600080fd5b50610589600160a060020a0360043516612e44565b34801561125357600080fd5b506105f9612ebb565b34801561126857600080fd5b506104b7600435612eca565b34801561128057600080fd5b506105ac612ed8565b34801561129557600080fd5b50610589600160a060020a0360043516612ee1565b3480156112b657600080fd5b50610589612f5f565b3480156112cb57600080fd5b50610589600160a060020a0360043516612fd5565b3480156112ec57600080fd5b506104b7613011565b34801561130157600080fd5b506105f9613017565b34801561131657600080fd5b50610589600160a060020a0360043516613026565b602b5481565b601a805460408051602060026001851615610100026000190190941693909304601f810184900484028201840190925281815292918301828280156113b75780601f1061138c576101008083540402835291602001916113b7565b820191906000526020600020905b81548152906001019060200180831161139a57829003601f168201915b505050505081565b60285481565b603254336000908152601d6020526040902054600160a060020a03918216911615158061140e5750600160a060020a03811615801561140e5750603154600160a060020a031633145b151561141957600080fd5b5060328054600160a060020a031916600160a060020a0392909216919091179055565b60136020526000908152604090205460ff1681565b600b6020526000908152604090205481565b601280548290811061147157fe5b600091825260209091200154600160a060020a0316905081565b603454604080517fe1ed075f000000000000000000000000000000000000000000000000000000008152600160a060020a0392831660048201529184166024830152604482018390525173__DAOProxy______________________________9163e1ed075f916064808301926000929190829003018186803b15801561151057600080fd5b505af4158015611524573d6000803e3d6000fd5b505050505050565b60075481565b601854336000908152601d6020526040902054600160a060020a03918216911615158061157b5750600160a060020a03811615801561157b5750603154600160a060020a031633145b151561158657600080fd5b5060188054600160a060020a031916600160a060020a0392909216919091179055565b600d54610100900460ff1681565b602d5481565b603654600160a060020a031681565b60118054829081106115da57fe5b600091825260209091200154905081565b603354600160a060020a031681565b601580548290811061160857fe5b9060005260206000209060209182820401919006915054906101000a900460ff1681565b60055481565b601054600160a060020a031681565b601d60205260009081526040902054600160a060020a031681565b60216020526000908152604090205460ff1681565b600654610100900460ff1681565b602080548290811061147157fe5b600073__DAOLib________________________________635a3a1008601760009054906101000a9004600160a060020a0316868686306040518663ffffffff1660e060020a0281526004018086600160a060020a0316600160a060020a03168152602001806020018060200185815260200184600160a060020a0316600160a060020a03168152602001838103835287818151815260200191508051906020019080838360005b8381101561174c578181015183820152602001611734565b50505050905090810190601f1680156117795780820380516001836020036101000a031916815260200191505b50838103825286518152865160209182019188019080838360005b838110156117ac578181015183820152602001611794565b50505050905090810190601f1680156117d95780820380516001836020036101000a031916815260200191505b5097505050505050505060206040518083038186803b1580156117fb57600080fd5b505af415801561180f573d6000803e3d6000fd5b505050506040513d602081101561182557600080fd5b505190506118328161309d565b50505050565b60085481565b60095481565b600073__DAOLib________________________________633110ff33601860009054906101000a9004600160a060020a031687878787306040518763ffffffff1660e060020a0281526004018087600160a060020a0316600160a060020a03168152602001806020018060200186815260200185600160a060020a0316600160a060020a0316815260200184600160a060020a0316600160a060020a03168152602001838103835288818151815260200191508051906020019080838360005b8381101561191c578181015183820152602001611904565b50505050905090810190601f1680156119495780820380516001836020036101000a031916815260200191505b50838103825287518152875160209182019189019080838360005b8381101561197c578181015183820152602001611964565b50505050905090810190601f1680156119a95780820380516001836020036101000a031916815260200191505b509850505050505050505060206040518083038186803b1580156119cc57600080fd5b505af41580156119e0573d6000803e3d6000fd5b505050506040513d60208110156119f657600080fd5b50519050611a038161309d565b5050505050565b7f312e302e3000000000000000000000000000000000000000000000000000000081565b60258054829081106115da57fe5b603354604080517ffbcebd02000000000000000000000000000000000000000000000000000000008152600160a060020a0390921660048301525173__DAOProxy______________________________9163fbcebd02916024808301926000929190829003018186803b158015611ab257600080fd5b505af4158015611832573d6000803e3d6000fd5b603454604080517fffb2cc41000000000000000000000000000000000000000000000000000000008152600160a060020a0390921660048301525173__DAOProxy______________________________9163ffb2cc41916024808301926000929190829003018186803b158015611ab257600080fd5b6006546301000000900460ff1681565b602c5481565b603554336000908152601d6020526040902054600160a060020a039182169116151580611b9b5750600160a060020a038116158015611b9b5750603154600160a060020a031633145b1515611ba657600080fd5b5060358054600160a060020a031916600160a060020a0392909216919091179055565b601854600160a060020a031681565b60295481565b600a5481565b60148054829081106115da57fe5b600073__DAOLib________________________________63cb093842601760009054906101000a9004600160a060020a031687878787306040518763ffffffff1660e060020a0281526004018087600160a060020a0316600160a060020a0316815260200180602001806020018681526020018060200185600160a060020a0316600160a060020a03168152602001848103845289818151815260200191508051906020019080838360005b83811015611cb6578181015183820152602001611c9e565b50505050905090810190601f168015611ce35780820380516001836020036101000a031916815260200191505b5084810383528851815288516020918201918a019080838360005b83811015611d16578181015183820152602001611cfe565b50505050905090810190601f168015611d435780820380516001836020036101000a031916815260200191505b508481038252865181528651602091820191808901910280838360005b83811015611d78578181015183820152602001611d60565b50505050905001995050505050505050505060206040518083038186803b1580156119cc57600080fd5b601b805460408051602060026001851615610100026000190190941693909304601f810184900484028201840190925281815292918301828280156113b75780601f1061138c576101008083540402835291602001916113b7565b6031546000903390600160a060020a03168114611e1957600080fd5b6006546301000000900460ff161515611e3157600080fd5b8251611e4390602090818601906130e2565b50600091505b8251821015611ea4576001602160008585815181101515611e6657fe5b602090810291909101810151600160a060020a03168252810191909152604001600020805460ff191691151591909117905560019190910190611e49565b50506006805463ff0000001916905550565b60045481565b600c6020526000908152604090205481565b603354336000908152601d6020526040902054600160a060020a039182169116151580611f175750600160a060020a038116158015611f175750603154600160a060020a031633145b1515611f2257600080fd5b5060338054600160a060020a031916600160a060020a0392909216919091179055565b603454604080517fd14e3a61000000000000000000000000000000000000000000000000000000008152600160a060020a03928316600482015291831660248301525173__DAOProxy______________________________9163d14e3a61916044808301926000929190829003018186803b158015611fc357600080fd5b505af4158015611a03573d6000803e3d6000fd5b603254600160a060020a031681565b603154600160a060020a031681565b60025481565b602754600160a060020a031681565b601654604080517f70a08231000000000000000000000000000000000000000000000000000000008152600160a060020a0384811660048301529151600093849316916370a0823191602480830192602092919082900301818787803b15801561207357600080fd5b505af1158015612087573d6000803e3d6000fd5b505050506040513d602081101561209d57600080fd5b50511192915050565b60065460ff16806120b8575060045442105b806120d85750600d5460ff1680156120d85750600d54610100900460ff16155b1561217f57603354604080517fedf4d0f6000000000000000000000000000000000000000000000000000000008152600160a060020a0392831660048201529184166024830152604482018390525173__DAOProxy______________________________9163edf4d0f6916064808301926000929190829003018186803b15801561216257600080fd5b505af4158015612176573d6000803e3d6000fd5b5050505061222c565b600454421015801561219357506005544211155b80156121a25750600d5460ff16155b1561222c57603554604080517fedf4d0f6000000000000000000000000000000000000000000000000000000008152600160a060020a0392831660048201529184166024830152604482018390525173__DAOProxy______________________________9163edf4d0f6916064808301926000929190829003018186803b15801561151057600080fd5b5050565b60065460ff1681565b601c5481565b60015481565b601f5481565b60265481565b60306020526000908152604090205460ff1681565b603554600160a060020a031681565b601754336000908152601d6020526040902054600160a060020a0391821691161515806122be5750600160a060020a0381161580156122be5750603154600160a060020a031633145b15156122c957600080fd5b5060178054600160a060020a031916600160a060020a0392909216919091179055565b603554604080517fa7fd1217000000000000000000000000000000000000000000000000000000008152600160a060020a039092166004830152602482018a905260448201899052606482018890526084820187905260a4820186905260c4820185905283151560e483015261010482018390525173__DAOProxy______________________________9163a7fd121791610124808301926000929190829003018186803b15801561239d57600080fd5b505af41580156123b1573d6000803e3d6000fd5b505050505050505050505050565b601754600160a060020a031681565b602f54600160a060020a0316331461246d57604080517f08c379a000000000000000000000000000000000000000000000000000000000815260206004820152602e60248201527f4d6574686f642063616e2062652063616c6c6564206f6e6c792062792050726f60448201527f787941504920636f6e7472616374000000000000000000000000000000000000606482015290519081900360840190fd5b603654604051600160a060020a03909116908490849080838380828437820191505092505050604051809103902060e060020a9004826040518263ffffffff1660e060020a028152600401808260001916600019168152602001915050600060405180830381865af49250505015156124e557600080fd5b505050565b601e5460ff1681565b60065462010000900460ff1681565b600f5481565b603454604080517fca7d9004000000000000000000000000000000000000000000000000000000008152600160a060020a03928316600482015291851660248301526044820184905282151560648301525173__DAOProxy______________________________9163ca7d9004916084808301926000929190829003018186803b15801561259557600080fd5b505af41580156125a9573d6000803e3d6000fd5b50505050505050565b33601d600073__DAOLib________________________________639bc19f84601760009054906101000a9004600160a060020a03168b8b8b8b8b8b306040518963ffffffff1660e060020a0281526004018089600160a060020a0316600160a060020a03168152602001806020018060200188815260200187815260200186600160a060020a0316600160a060020a031681526020018515151515815260200184600160a060020a0316600160a060020a0316815260200183810383528a818151815260200191508051906020019080838360005b8381101561269f578181015183820152602001612687565b50505050905090810190601f1680156126cc5780820380516001836020036101000a031916815260200191505b5083810382528951815289516020918201918b019080838360005b838110156126ff5781810151838201526020016126e7565b50505050905090810190601f16801561272c5780820380516001836020036101000a031916815260200191505b509a505050505050505050505060206040518083038186803b15801561275157600080fd5b505af4158015612765573d6000803e3d6000fd5b505050506040513d602081101561277b57600080fd5b5051600160a060020a03908116825260208201929092526040016000208054600160a060020a03191692909116919091179055505050505050565b6031546000903390600160a060020a031681146127d257600080fd5b875189511480156127e4575083518951145b80156127f1575082518951145b80156127fe575085518751145b8015612814575084511580612814575084518751145b8015612828575060065462010000900460ff165b80156128415750600454421080612841575060065460ff165b151561284c57600080fd5b885161285f9060129060208c01906130e2565b508351612873906014906020870190613147565b5087516128879060119060208b0190613147565b50825161289b90601590602086019061318e565b50600091505b8851821015612948576001601360008b858151811015156128be57fe5b602090810291909101810151600160a060020a03168252810191909152604001600020805460ff191691151591909117905587518890839081106128fe57fe5b90602001906020020151602260008b8581518110151561291a57fe5b6020908102909101810151600160a060020a03168252810191909152604001600020556001909101906128a1565b865161295b9060239060208a0190613147565b50855161296f906024906020890190613147565b508451612983906025906020880190613147565b50506006805462ff0000191690555050505050505050565b602e6020526000908152604090205481565b600073__DAOLib________________________________636ddec623601860009054906101000a9004600160a060020a03168888888888306040518863ffffffff1660e060020a0281526004018088600160a060020a0316600160a060020a03168152602001806020018060200187815260200186815260200185600160a060020a0316600160a060020a0316815260200184600160a060020a0316600160a060020a03168152602001838103835289818151815260200191508051906020019080838360005b83811015612a8c578181015183820152602001612a74565b50505050905090810190601f168015612ab95780820380516001836020036101000a031916815260200191505b5083810382528851815288516020918201918a019080838360005b83811015612aec578181015183820152602001612ad4565b50505050905090810190601f168015612b195780820380516001836020036101000a031916815260200191505b50995050505050505050505060206040518083038186803b158015612b3d57600080fd5b505af4158015612b51573d6000803e3d6000fd5b505050506040513d6020811015612b6757600080fd5b505190506115248161309d565b60005481565b603354604080517ffa9e93b1000000000000000000000000000000000000000000000000000000008152600160a060020a0390921660048301525173__DAOProxy______________________________9163fa9e93b1916024808301926000929190829003018186803b158015611ab257600080fd5b602f546040517fd411fffc000000000000000000000000000000000000000000000000000000008152600160a060020a03858116600483019081526024830186905292169163d411fffc9186918691869190604401826101408082843782019150509350505050600060405180830381600087803b158015612c7157600080fd5b505af11580156125a9573d6000803e3d6000fd5b603554604080517f49e0e327000000000000000000000000000000000000000000000000000000008152600160a060020a0390921660048301525173__DAOProxy______________________________916349e0e327916024808301926000929190829003018186803b158015611ab257600080fd5b60248054829081106115da57fe5b601954600160a060020a031681565b60226020526000908152604090205481565b603554604080517f36a82087000000000000000000000000000000000000000000000000000000008152600160a060020a0392831660048201529183166024830152600160448301525173__DAOProxy______________________________916336a82087916064808301926000929190829003018186803b158015611fc357600080fd5b600e5481565b602f54600160a060020a031681565b602f54336000908152601d6020526040902054600160a060020a039182169116151580612e0d5750600160a060020a038116158015612e0d5750603154600160a060020a031633145b1515612e1857600080fd5b50602f8054600160a060020a031916600160a060020a0392909216919091179055565b602a5460ff1681565b603454336000908152601d6020526040902054600160a060020a039182169116151580612e8d5750600160a060020a038116158015612e8d5750603154600160a060020a031633145b1515612e9857600080fd5b5060348054600160a060020a031916600160a060020a0392909216919091179055565b603454600160a060020a031681565b60238054829081106115da57fe5b600d5460ff1681565b603254604080517f40966ef3000000000000000000000000000000000000000000000000000000008152600160a060020a03928316600482015291831660248301525173__DAOProxy______________________________916340966ef3916044808301926000929190829003018186803b158015611fc357600080fd5b603454604080517fbf38adb3000000000000000000000000000000000000000000000000000000008152600160a060020a0390921660048301525173__DAOProxy______________________________9163bf38adb3916024808301926000929190829003018186803b158015611ab257600080fd5b6031543390600160a060020a03168114612fee57600080fd5b5060318054600160a060020a031916600160a060020a0392909216919091179055565b60035481565b601654600160a060020a031681565b603654336000908152601d6020526040902054600160a060020a03918216911615158061306f5750600160a060020a03811615801561306f5750603154600160a060020a031633145b151561307a57600080fd5b5060368054600160a060020a031916600160a060020a0392909216919091179055565b600160a060020a03166000908152601d602090815260408083208054600160a060020a03191633908117909155602d54908452602e9092529091208054919091039055565b828054828255906000526020600020908101928215613137579160200282015b828111156131375782518254600160a060020a031916600160a060020a03909116178255602090920191600190910190613102565b5061314392915061322f565b5090565b828054828255906000526020600020908101928215613182579160200282015b82811115613182578251825591602001919060010190613167565b50613143929150613256565b82805482825590600052602060002090601f016020900481019282156132235791602002820160005b838211156131f457835183826101000a81548160ff02191690831515021790555092602001926001016020816000010492830192600103026131b7565b80156132215782816101000a81549060ff02191690556001016020816000010492830192600103026131f4565b505b50613143929150613270565b61325391905b80821115613143578054600160a060020a0319168155600101613235565b90565b61325391905b80821115613143576000815560010161325c565b61325391905b8082111561314357805460ff191681556001016132765600a165627a7a72305820a86bcac31781e1217ca561f6eaf36d0b89f1215f6e377f43d125541d52e81ef80029a165627a7a72305820a935b6fff41604c88e21899b090edc7c4e7f6e49a50104e718a104410b9a7eb50029",
  "source": "pragma solidity ^0.4.0;\n\nimport \"./CrowdsaleDAO.sol\";\n\nlibrary DAODeployer {\n    function deployCrowdsaleDAO(\n        string _name,\n        string _description,\n        address _serviceContractAddress,\n        address _votingFactory,\n        address _serviceVotingFactory,\n        address _DXC,\n        uint _initialCapital\n    ) returns(CrowdsaleDAO dao) {\n        dao = new CrowdsaleDAO(_name, _description, _serviceContractAddress, _votingFactory, _serviceVotingFactory, _DXC, _initialCapital);\n    }\n\n    function transferOwnership(address _dao, address _newOwner) {\n        CrowdsaleDAO(_dao).transferOwnership(_newOwner);\n    }\n}\n",
  "sourcePath": "/Users/giddeonwyeth/PhpstormProjects/dao/daox-contracts/contracts/DAO/DAODeployer.sol",
  "compiler": {
    "name": "solc",
    "version": "0.4.24+commit.e67f0147.Emscripten.clang"
  },
  "schemaVersion": "2.0.1",
  "updatedAt": "2018-07-10T08:45:13.452Z"
}