{
  "contractName": "DAOLib",
  "abi": [
    {
      "anonymous": false,
      "inputs": [
        {
          "indexed": false,
          "name": "voting",
          "type": "address"
        },
        {
          "indexed": false,
          "name": "votingType",
          "type": "string"
        },
        {
          "indexed": false,
          "name": "dao",
          "type": "address"
        },
        {
          "indexed": false,
          "name": "name",
          "type": "string"
        },
        {
          "indexed": false,
          "name": "description",
          "type": "string"
        },
        {
          "indexed": false,
          "name": "duration",
          "type": "uint256"
        },
        {
          "indexed": false,
          "name": "sender",
          "type": "address"
        }
      ],
      "name": "VotingCreated",
      "type": "event"
    },
    {
      "constant": false,
      "inputs": [
        {
          "name": "token",
          "type": "TokenInterface"
        },
        {
          "name": "commissionRaised",
          "type": "uint256"
        },
        {
          "name": "serviceContract",
          "type": "address"
        },
        {
          "name": "teamBonuses",
          "type": "uint256[]"
        },
        {
          "name": "team",
          "type": "address[]"
        },
        {
          "name": "teamHold",
          "type": "uint256[]"
        }
      ],
      "name": "handleFinishedCrowdsale",
      "outputs": [
        {
          "name": "",
          "type": "uint256"
        }
      ],
      "payable": false,
      "stateMutability": "nonpayable",
      "type": "function"
    },
    {
      "constant": false,
      "inputs": [
        {
          "name": "_votingFactory",
          "type": "VotingFactoryInterface"
        },
        {
          "name": "_name",
          "type": "string"
        },
        {
          "name": "_description",
          "type": "string"
        },
        {
          "name": "_duration",
          "type": "uint256"
        },
        {
          "name": "_options",
          "type": "bytes32[]"
        },
        {
          "name": "_dao",
          "type": "address"
        }
      ],
      "name": "delegatedCreateRegular",
      "outputs": [
        {
          "name": "",
          "type": "address"
        }
      ],
      "payable": false,
      "stateMutability": "nonpayable",
      "type": "function"
    },
    {
      "constant": false,
      "inputs": [
        {
          "name": "_votingFactory",
          "type": "VotingFactoryInterface"
        },
        {
          "name": "_name",
          "type": "string"
        },
        {
          "name": "_description",
          "type": "string"
        },
        {
          "name": "_duration",
          "type": "uint256"
        },
        {
          "name": "_sum",
          "type": "uint256"
        },
        {
          "name": "withdrawalWallet",
          "type": "address"
        },
        {
          "name": "_dxc",
          "type": "bool"
        },
        {
          "name": "_dao",
          "type": "address"
        }
      ],
      "name": "delegatedCreateWithdrawal",
      "outputs": [
        {
          "name": "",
          "type": "address"
        }
      ],
      "payable": false,
      "stateMutability": "nonpayable",
      "type": "function"
    },
    {
      "constant": false,
      "inputs": [
        {
          "name": "_votingFactory",
          "type": "VotingFactoryInterface"
        },
        {
          "name": "_name",
          "type": "string"
        },
        {
          "name": "_description",
          "type": "string"
        },
        {
          "name": "_duration",
          "type": "uint256"
        },
        {
          "name": "_dao",
          "type": "address"
        }
      ],
      "name": "delegatedCreateRefund",
      "outputs": [
        {
          "name": "",
          "type": "address"
        }
      ],
      "payable": false,
      "stateMutability": "nonpayable",
      "type": "function"
    },
    {
      "constant": false,
      "inputs": [
        {
          "name": "_votingFactory",
          "type": "IServiceVotingFactory"
        },
        {
          "name": "_name",
          "type": "string"
        },
        {
          "name": "_description",
          "type": "string"
        },
        {
          "name": "_duration",
          "type": "uint256"
        },
        {
          "name": "_module",
          "type": "uint256"
        },
        {
          "name": "_newAddress",
          "type": "address"
        },
        {
          "name": "_dao",
          "type": "address"
        }
      ],
      "name": "delegatedCreateModule",
      "outputs": [
        {
          "name": "",
          "type": "address"
        }
      ],
      "payable": false,
      "stateMutability": "nonpayable",
      "type": "function"
    },
    {
      "constant": false,
      "inputs": [
        {
          "name": "_votingFactory",
          "type": "IServiceVotingFactory"
        },
        {
          "name": "_name",
          "type": "string"
        },
        {
          "name": "_description",
          "type": "string"
        },
        {
          "name": "_duration",
          "type": "uint256"
        },
        {
          "name": "_service",
          "type": "address"
        },
        {
          "name": "_dao",
          "type": "address"
        }
      ],
      "name": "delegatedCreateNewService",
      "outputs": [
        {
          "name": "",
          "type": "address"
        }
      ],
      "payable": false,
      "stateMutability": "nonpayable",
      "type": "function"
    },
    {
      "constant": true,
      "inputs": [
        {
          "name": "value",
          "type": "uint256"
        },
        {
          "name": "bonusPeriods",
          "type": "uint256[]"
        },
        {
          "name": "bonusRates",
          "type": "uint256[]"
        },
        {
          "name": "rate",
          "type": "uint256"
        }
      ],
      "name": "countTokens",
      "outputs": [
        {
          "name": "",
          "type": "uint256"
        }
      ],
      "payable": false,
      "stateMutability": "view",
      "type": "function"
    },
    {
      "constant": true,
      "inputs": [
        {
          "name": "tokensAmount",
          "type": "uint256"
        },
        {
          "name": "etherRate",
          "type": "uint256"
        },
        {
          "name": "newRate",
          "type": "uint256"
        },
        {
          "name": "multiplier",
          "type": "uint256"
        }
      ],
      "name": "countRefundSum",
      "outputs": [
        {
          "name": "",
          "type": "uint256"
        }
      ],
      "payable": false,
      "stateMutability": "view",
      "type": "function"
    }
  ],
  "bytecode": "0x6117f3610030600b82828239805160001a6073146000811461002057610022565bfe5b5030600052607381538281f300730000000000000000000000000000000000000000301460806040526004361061008b5763ffffffff60e060020a6000350416633110ff338114610090578063331aefa0146101695780635a3a10081461018f578063635fc0fb146102455780636ddec623146102cd5780639bc19f8414610391578063cb0938421461045c578063f37c39411461054c575b600080fd5b81801561009c57600080fd5b5060408051602060046024803582810135601f810185900485028601850190965285855261014d958335600160a060020a031695369560449491939091019190819084018382808284375050604080516020601f89358b018035918201839004830284018301909452808352979a999881019791965091820194509250829150840183828082843750949750508435955050600160a060020a03602085013581169460400135169250610631915050565b60408051600160a060020a039092168252519081900360200190f35b61017d600435602435604435606435610921565b60408051918252519081900360200190f35b81801561019b57600080fd5b5060408051602060046024803582810135601f810185900485028601850190965285855261014d958335600160a060020a031695369560449491939091019190819084018382808284375050604080516020601f89358b018035918201839004830284018301909452808352979a9998810197919650918201945092508291508401838280828437509497505084359550505050602090910135600160a060020a03169050610941565b60408051602060046024803582810135848102808701860190975280865261017d96843596369660449591949091019291829185019084908082843750506040805187358901803560208181028481018201909552818452989b9a9989019892975090820195509350839250850190849080828437509497505093359450610c169350505050565b8180156102d957600080fd5b5060408051602060046024803582810135601f810185900485028601850190965285855261014d958335600160a060020a031695369560449491939091019190819084018382808284375050604080516020601f89358b018035918201839004830284018301909452808352979a99988101979196509182019450925082915084018382808284375094975050843595505050602083013592600160a060020a03604082013581169350606090910135169050610ca0565b81801561039d57600080fd5b5060408051602060046024803582810135601f810185900485028601850190965285855261014d958335600160a060020a031695369560449491939091019190819084018382808284375050604080516020601f89358b018035918201839004830284018301909452808352979a99988101979196509182019450925082915084018382808284375094975050843595505050602083013592600160a060020a0360408201358116935060608201351515925060809091013516610fbf565b81801561046857600080fd5b5060408051602060046024803582810135601f810185900485028601850190965285855261014d958335600160a060020a031695369560449491939091019190819084018382808284375050604080516020601f89358b018035918201839004830284018301909452808352979a99988101979196509182019450925082915084018382808284375050604080516020808901358a01803580830284810184018652818552999c8b359c909b909a95019850929650810194509092508291908501908490808284375094975050509235600160a060020a031693506112eb92505050565b81801561055857600080fd5b50604080516064356004818101356020818102858101820190965281855261017d95600160a060020a03843581169660248035976044359093169636969095608495939490920192909182919085019084908082843750506040805187358901803560208181028481018201909552818452989b9a998901989297509082019550935083925085019084908082843750506040805187358901803560208181028481018201909552818452989b9a9989019892975090820195509350839250850190849080828437509497506115569650505050505050565b60008087600160a060020a0316637ab34cb533898989896040518663ffffffff1660e060020a0281526004018086600160a060020a0316600160a060020a03168152602001806020018060200185815260200184600160a060020a0316600160a060020a03168152602001838103835287818151815260200191508051906020019080838360005b838110156106d15781810151838201526020016106b9565b50505050905090810190601f1680156106fe5780820380516001836020036101000a031916815260200191505b50838103825286518152865160209182019188019080838360005b83811015610731578181015183820152602001610719565b50505050905090810190601f16801561075e5780820380516001836020036101000a031916815260200191505b50975050505050505050602060405180830381600087803b15801561078257600080fd5b505af1158015610796573d6000803e3d6000fd5b505050506040513d60208110156107ac57600080fd5b505160408051600160a060020a03808416825286169181019190915260a081018790523360c0820181905260e06020838101828152600b928501929092527f4e65772053657276696365000000000000000000000000000000000000000000610100850152610120606085018181528d51918601919091528c519596506000805160206117a88339815191529587958a958f958f958f9592949192916080850191610140860191908a019080838360005b8381101561087557818101518382015260200161085d565b50505050905090810190601f1680156108a25780820380516001836020036101000a031916815260200191505b50848103825287518152875160209182019189019080838360005b838110156108d55781810151838201526020016108bd565b50505050905090810190601f1680156109025780820380516001836020036101000a031916815260200191505b50995050505050505050505060405180910390a1979650505050505050565b60006064828502818786020481151561093657fe5b049695505050505050565b60008086600160a060020a031663eb946694338888886040518563ffffffff1660e060020a0281526004018085600160a060020a0316600160a060020a031681526020018060200180602001848152602001838103835286818151815260200191508051906020019080838360005b838110156109c85781810151838201526020016109b0565b50505050905090810190601f1680156109f55780820380516001836020036101000a031916815260200191505b50838103825285518152855160209182019187019080838360005b83811015610a28578181015183820152602001610a10565b50505050905090810190601f168015610a555780820380516001836020036101000a031916815260200191505b509650505050505050602060405180830381600087803b158015610a7857600080fd5b505af1158015610a8c573d6000803e3d6000fd5b505050506040513d6020811015610aa257600080fd5b505160408051600160a060020a03808416825286169181019190915260a081018690523360c0820181905260e060208381018281526006928501929092527f526566756e640000000000000000000000000000000000000000000000000000610100850152610120606085018181528c51918601919091528b519596506000805160206117a88339815191529587958a958e958e958e9592949192916080850191610140860191908a019080838360005b83811015610b6b578181015183820152602001610b53565b50505050905090810190601f168015610b985780820380516001836020036101000a031916815260200191505b50848103825287518152875160209182019189019080838360005b83811015610bcb578181015183820152602001610bb3565b50505050905090810190601f168015610bf85780820380516001836020036101000a031916815260200191505b50995050505050505050505060405180910390a19695505050505050565b6000806000845160001415610c2f578387029250610c96565b600091505b8551821015610c86578582815181101515610c4b57fe5b90602001906020020151421015610c7b578482815181101515610c6a57fe5b906020019060200201519350610c86565b600190910190610c34565b610c90878561177c565b90508092505b5050949350505050565b60008088600160a060020a031663d6560dab338a8a8a8a8a6040518763ffffffff1660e060020a0281526004018087600160a060020a0316600160a060020a03168152602001806020018060200186815260200185815260200184600160a060020a0316600160a060020a03168152602001838103835288818151815260200191508051906020019080838360005b83811015610d47578181015183820152602001610d2f565b50505050905090810190601f168015610d745780820380516001836020036101000a031916815260200191505b50838103825287518152875160209182019189019080838360005b83811015610da7578181015183820152602001610d8f565b50505050905090810190601f168015610dd45780820380516001836020036101000a031916815260200191505b5098505050505050505050602060405180830381600087803b158015610df957600080fd5b505af1158015610e0d573d6000803e3d6000fd5b505050506040513d6020811015610e2357600080fd5b810190808051906020019092919050505090506000805160206117a883398151915281848a8a8a336040518087600160a060020a0316600160a060020a031681526020018060200187600160a060020a0316600160a060020a03168152602001806020018060200186815260200185600160a060020a0316600160a060020a03168152602001848103845260068152602001807f4d6f64756c650000000000000000000000000000000000000000000000000000815250602001848103835288818151815260200191508051906020019080838360005b83811015610f12578181015183820152602001610efa565b50505050905090810190601f168015610f3f5780820380516001836020036101000a031916815260200191505b50848103825287518152875160209182019189019080838360005b83811015610f72578181015183820152602001610f5a565b50505050905090810190601f168015610f9f5780820380516001836020036101000a031916815260200191505b50995050505050505050505060405180910390a198975050505050505050565b60008089600160a060020a03166332474245338b8b8b8b8b8b6040518863ffffffff1660e060020a0281526004018088600160a060020a0316600160a060020a03168152602001806020018060200187815260200186815260200185600160a060020a0316600160a060020a0316815260200184151515158152602001838103835289818151815260200191508051906020019080838360005b83811015611071578181015183820152602001611059565b50505050905090810190601f16801561109e5780820380516001836020036101000a031916815260200191505b5083810382528851815288516020918201918a019080838360005b838110156110d15781810151838201526020016110b9565b50505050905090810190601f1680156110fe5780820380516001836020036101000a031916815260200191505b509950505050505050505050602060405180830381600087803b15801561112457600080fd5b505af1158015611138573d6000803e3d6000fd5b505050506040513d602081101561114e57600080fd5b810190808051906020019092919050505090506000805160206117a883398151915281848b8b8b336040518087600160a060020a0316600160a060020a031681526020018060200187600160a060020a0316600160a060020a03168152602001806020018060200186815260200185600160a060020a0316600160a060020a031681526020018481038452600a8152602001807f5769746864726177616c00000000000000000000000000000000000000000000815250602001848103835288818151815260200191508051906020019080838360005b8381101561123d578181015183820152602001611225565b50505050905090810190601f16801561126a5780820380516001836020036101000a031916815260200191505b50848103825287518152875160209182019189019080838360005b8381101561129d578181015183820152602001611285565b50505050905090810190601f1680156112ca5780820380516001836020036101000a031916815260200191505b50995050505050505050505060405180910390a19998505050505050505050565b60008087600160a060020a031663b775592433898989896040518663ffffffff1660e060020a0281526004018086600160a060020a0316600160a060020a03168152602001806020018060200185815260200180602001848103845288818151815260200191508051906020019080838360005b8381101561137757818101518382015260200161135f565b50505050905090810190601f1680156113a45780820380516001836020036101000a031916815260200191505b50848103835287518152875160209182019189019080838360005b838110156113d75781810151838201526020016113bf565b50505050905090810190601f1680156114045780820380516001836020036101000a031916815260200191505b508481038252855181528551602091820191808801910280838360005b83811015611439578181015183820152602001611421565b5050505090500198505050505050505050602060405180830381600087803b15801561146457600080fd5b505af1158015611478573d6000803e3d6000fd5b505050506040513d602081101561148e57600080fd5b505160408051600160a060020a03808416825286169181019190915260a081018790523360c0820181905260e060208381018281526007928501929092527f526567756c617200000000000000000000000000000000000000000000000000610100850152610120606085018181528d51918601919091528c519596506000805160206117a88339815191529587958a958f958f958f9592949192916080850191610140860191908a019080838360008381101561087557818101518382015260200161085d565b600080600080600060648b600160a060020a03166318160ddd6040518163ffffffff1660e060020a028152600401602060405180830381600087803b15801561159e57600080fd5b505af11580156115b2573d6000803e3d6000fd5b505050506040513d60208110156115c857600080fd5b50518115156115d357fe5b04935060009250600091505b865182101561176d576116098489848151811015156115fa57fe5b9060200190602002015161177c565b905080830192508a600160a060020a03166340c10f19888481518110151561162d57fe5b90602001906020020151836040518363ffffffff1660e060020a0281526004018083600160a060020a0316600160a060020a0316815260200182815260200192505050602060405180830381600087803b15801561168a57600080fd5b505af115801561169e573d6000803e3d6000fd5b505050506040513d60208110156116b457600080fd5b50508651600160a060020a038c169063977a5ec5908990859081106116d557fe5b9060200190602002015188858151811015156116ed57fe5b906020019060200201516040518363ffffffff1660e060020a0281526004018083600160a060020a0316600160a060020a0316815260200182815260200192505050600060405180830381600087803b15801561174957600080fd5b505af115801561175d573d6000803e3d6000fd5b5050600190930192506115df9050565b50909998505050505050505050565b6000828202831580611798575082848281151561179557fe5b04145b15156117a057fe5b939250505056004f8e1ff7ebe060a72299955372ef30990756aaf06f2a0674f664455aed796a00a165627a7a723058206ca4915d947cdc28fa9648f95eb2eca3221bff8cdd0efb08b2527dc17e1102240029",
  "source": "pragma solidity ^0.4.0;\n\nimport \"../Token/TokenInterface.sol\";\nimport \"../Votings/Common/VotingFactoryInterface.sol\";\nimport \"../Votings/Service/IServiceVotingFactory.sol\";\nimport '../../node_modules/zeppelin-solidity/contracts/math/SafeMath.sol';\n\nlibrary DAOLib {\n    event VotingCreated(\n        address voting,\n        string votingType,\n        address dao,\n\t\tstring name,\n        string description,\n        uint duration,\n        address sender\n    );\n\n    /*\n    * @dev Receives parameters from crowdsale module in case of successful crowdsale and processes them\n    * @param token Instance of token contract\n    * @param commissionRaised Amount of funds which were sent via commission contract\n    * @param serviceContract Address of contract which receives commission\n    * @param teamBonuses Array of percents which indicates the number of token for every team member\n    * @param team Array of team members' addresses\n    * @param teamHold Array of timestamp until which the tokens will be held for every team member\n    * @return uint Amount of tokens minted for team\n    */\n    function handleFinishedCrowdsale(TokenInterface token, uint commissionRaised, address serviceContract, uint[] teamBonuses, address[] team, uint[] teamHold) returns (uint) {\n        uint totalSupply = token.totalSupply() / 100;\n        uint teamTokensAmount = 0;\n        for (uint i = 0; i < team.length; i++) {\n            uint teamMemberTokensAmount = SafeMath.mul(totalSupply, teamBonuses[i]);\n            teamTokensAmount += teamMemberTokensAmount;\n            token.mint(team[i], teamMemberTokensAmount);\n            token.hold(team[i], teamHold[i]);\n        }\n\n        return teamTokensAmount;\n    }\n\n    function delegatedCreateRegular(VotingFactoryInterface _votingFactory, string _name, string _description, uint _duration, bytes32[] _options, address _dao) returns (address) {\n        address _votingAddress = _votingFactory.createRegular(msg.sender, _name, _description, _duration, _options);\n        VotingCreated(_votingAddress, \"Regular\", _dao, _name, _description, _duration, msg.sender);\n\n        return _votingAddress;\n    }\n\n    function delegatedCreateWithdrawal(VotingFactoryInterface _votingFactory, string _name, string _description, uint _duration, uint _sum, address withdrawalWallet, bool _dxc, address _dao)\n\treturns (address)\n\t{\n        address _votingAddress = _votingFactory.createWithdrawal(msg.sender, _name, _description, _duration, _sum, withdrawalWallet, _dxc);\n        VotingCreated(_votingAddress, \"Withdrawal\", _dao, _name, _description, _duration, msg.sender);\n\n        return _votingAddress;\n    }\n\n    function delegatedCreateRefund(VotingFactoryInterface _votingFactory, string _name, string _description, uint _duration, address _dao) returns (address) {\n        address _votingAddress = _votingFactory.createRefund(msg.sender, _name, _description, _duration);\n        VotingCreated(_votingAddress, \"Refund\", _dao, _name, _description, _duration, msg.sender);\n\n        return _votingAddress;\n    }\n\n    function delegatedCreateModule(IServiceVotingFactory _votingFactory, string _name, string _description, uint _duration, uint _module, address _newAddress, address _dao) returns (address) {\n        address _votingAddress = _votingFactory.createModule(msg.sender, _name, _description, _duration, _module, _newAddress);\n        VotingCreated(_votingAddress, \"Module\", _dao, _name, _description, _duration, msg.sender);\n\n        return _votingAddress;\n    }\n\n    function delegatedCreateNewService(IServiceVotingFactory _votingFactory, string _name, string _description, uint _duration, address _service, address _dao) returns (address) {\n        address _votingAddress = _votingFactory.createNewService(msg.sender, _name, _description, _duration, _service);\n        VotingCreated(_votingAddress, \"New Service\", _dao, _name, _description, _duration, msg.sender);\n\n        return _votingAddress;\n    }\n\n    /*\n    * @dev Counts the number of tokens that should be minted according to amount of sent funds and current rate\n    * @param value Amount of sent funds\n    * @param bonusPeriods Array of timestamps indicating bonus periods\n    * @param bonusRates Array of rates for every bonus period\n    * @param rate Default rate\n    * @return uint Amount of tokens that should be minted\n    */\n    function countTokens(uint value, uint[] bonusPeriods, uint[] bonusRates, uint rate) constant returns (uint) {\n        if (bonusRates.length == 0) return value * rate; // DXC bonus rates could be empty\n\n        for (uint i = 0; i < bonusPeriods.length; i++) {\n            if (now < bonusPeriods[i]) {\n                rate = bonusRates[i];\n                break;\n            }\n        }\n        uint tokensAmount = SafeMath.mul(value, rate);\n\n        return tokensAmount;\n    }\n\n    /*\n    * @dev Counts the amount of funds that must be returned to participant\n    * @param tokensAmount Amount of tokens on participant's balance\n    * @param etherRate Rate for ether during the crowdsale\n    * @param newRate Current rate according to left funds and total supply of tokens\n    * @param multiplier Multiplier that was used in previous calculations to avoid issues with float numbers\n    * @return uint Amount of funds that must be returned to participant\n    */\n    function countRefundSum(uint tokensAmount, uint etherRate, uint newRate, uint multiplier) constant returns (uint) {\n        uint fromPercentDivider = 100;\n\n        return (tokensAmount * newRate / fromPercentDivider) / (multiplier * etherRate);\n    }\n}\n",
  "sourcePath": "/Users/giddeonwyeth/PhpstormProjects/dao/daox-contracts/contracts/DAO/DAOLib.sol",
  "compiler": {
    "name": "solc",
    "version": "0.4.24+commit.e67f0147.Emscripten.clang"
  },
  "schemaVersion": "2.0.1",
  "updatedAt": "2018-07-10T13:42:04.570Z"
}