{
  "contractName": "DAOProxy",
  "abi": [
    {
      "constant": false,
      "inputs": [
        {
          "name": "stateModule",
          "type": "address"
        },
        {
          "name": "_tokenAddress",
          "type": "address"
        }
      ],
      "name": "delegatedInitState",
      "outputs": [],
      "payable": false,
      "stateMutability": "nonpayable",
      "type": "function"
    },
    {
      "constant": false,
      "inputs": [
        {
          "name": "stateModule",
          "type": "address"
        },
        {
          "name": "_tokenHoldTime",
          "type": "uint256"
        }
      ],
      "name": "delegatedHoldState",
      "outputs": [],
      "payable": false,
      "stateMutability": "nonpayable",
      "type": "function"
    },
    {
      "constant": false,
      "inputs": [
        {
          "name": "paymentModule",
          "type": "address"
        }
      ],
      "name": "delegatedGetCommissionTokens",
      "outputs": [],
      "payable": false,
      "stateMutability": "nonpayable",
      "type": "function"
    },
    {
      "constant": false,
      "inputs": [
        {
          "name": "paymentModule",
          "type": "address"
        }
      ],
      "name": "delegatedRefund",
      "outputs": [],
      "payable": false,
      "stateMutability": "nonpayable",
      "type": "function"
    },
    {
      "constant": false,
      "inputs": [
        {
          "name": "paymentModule",
          "type": "address"
        }
      ],
      "name": "delegatedRefundSoftCap",
      "outputs": [],
      "payable": false,
      "stateMutability": "nonpayable",
      "type": "function"
    },
    {
      "constant": false,
      "inputs": [
        {
          "name": "votingDecisionModule",
          "type": "address"
        },
        {
          "name": "_address",
          "type": "address"
        },
        {
          "name": "withdrawalSum",
          "type": "uint256"
        },
        {
          "name": "dxc",
          "type": "bool"
        }
      ],
      "name": "delegatedWithdrawal",
      "outputs": [],
      "payable": false,
      "stateMutability": "nonpayable",
      "type": "function"
    },
    {
      "constant": false,
      "inputs": [
        {
          "name": "votingDecisionModule",
          "type": "address"
        }
      ],
      "name": "delegatedMakeRefundableByUser",
      "outputs": [],
      "payable": false,
      "stateMutability": "nonpayable",
      "type": "function"
    },
    {
      "constant": false,
      "inputs": [
        {
          "name": "votingDecisionModule",
          "type": "address"
        }
      ],
      "name": "delegatedMakeRefundableByVotingDecision",
      "outputs": [],
      "payable": false,
      "stateMutability": "nonpayable",
      "type": "function"
    },
    {
      "constant": false,
      "inputs": [
        {
          "name": "votingDecisionModule",
          "type": "address"
        },
        {
          "name": "_address",
          "type": "address"
        },
        {
          "name": "duration",
          "type": "uint256"
        }
      ],
      "name": "delegatedHoldTokens",
      "outputs": [],
      "payable": false,
      "stateMutability": "nonpayable",
      "type": "function"
    },
    {
      "constant": false,
      "inputs": [
        {
          "name": "crowdsaleModule",
          "type": "address"
        },
        {
          "name": "_softCap",
          "type": "uint256"
        },
        {
          "name": "_hardCap",
          "type": "uint256"
        },
        {
          "name": "_etherRate",
          "type": "uint256"
        },
        {
          "name": "_DXCRate",
          "type": "uint256"
        },
        {
          "name": "_startTime",
          "type": "uint256"
        },
        {
          "name": "_endTime",
          "type": "uint256"
        },
        {
          "name": "_dxcPayments",
          "type": "bool"
        },
        {
          "name": "_lockup",
          "type": "uint256"
        }
      ],
      "name": "delegatedInitCrowdsaleParameters",
      "outputs": [],
      "payable": false,
      "stateMutability": "nonpayable",
      "type": "function"
    },
    {
      "constant": false,
      "inputs": [
        {
          "name": "crowdsaleModule",
          "type": "address"
        }
      ],
      "name": "delegatedFinish",
      "outputs": [],
      "payable": false,
      "stateMutability": "nonpayable",
      "type": "function"
    },
    {
      "constant": false,
      "inputs": [
        {
          "name": "crowdsaleModule",
          "type": "address"
        },
        {
          "name": "_sender",
          "type": "address"
        },
        {
          "name": "_commission",
          "type": "bool"
        }
      ],
      "name": "delegatedHandlePayment",
      "outputs": [],
      "payable": false,
      "stateMutability": "nonpayable",
      "type": "function"
    },
    {
      "constant": false,
      "inputs": [
        {
          "name": "module",
          "type": "address"
        },
        {
          "name": "_from",
          "type": "address"
        },
        {
          "name": "_amount",
          "type": "uint256"
        }
      ],
      "name": "delegatedHandleDXCPayment",
      "outputs": [],
      "payable": false,
      "stateMutability": "nonpayable",
      "type": "function"
    },
    {
      "constant": false,
      "inputs": [
        {
          "name": "module",
          "type": "address"
        },
        {
          "name": "_service",
          "type": "address"
        }
      ],
      "name": "delegatedConnectService",
      "outputs": [],
      "payable": false,
      "stateMutability": "nonpayable",
      "type": "function"
    },
    {
      "constant": false,
      "inputs": [
        {
          "name": "module",
          "type": "address"
        },
        {
          "name": "_service",
          "type": "address"
        },
        {
          "name": "_method",
          "type": "bytes32"
        },
        {
          "name": "_args",
          "type": "bytes32[10]"
        }
      ],
      "name": "delegatedCallService",
      "outputs": [],
      "payable": false,
      "stateMutability": "nonpayable",
      "type": "function"
    }
  ],
  "bytecode": "0x610c89610030600b82828239805160001a6073146000811461002057610022565bfe5b5030600052607381538281f30073000000000000000000000000000000000000000030146080604052600436106100d85763ffffffff60e060020a60003504166336a8208781146100dd57806340966ef31461010b57806349e0e327146101325780639cea242014610153578063a6452ccc14610177578063a7fd1217146101d5578063aa3d31d814610211578063bf38adb314610232578063ca7d900414610253578063d14e3a6114610282578063e1ed075f146102a9578063edf4d0f6146102d3578063fa9e93b1146102fd578063fbcebd021461031e578063ffb2cc411461033f575b600080fd5b8180156100e957600080fd5b50610109600160a060020a03600435811690602435166044351515610360565b005b81801561011757600080fd5b50610109600160a060020a0360043581169060243516610405565b81801561013e57600080fd5b50610109600160a060020a036004351661049d565b81801561015f57600080fd5b50610109600160a060020a0360043516602435610517565b81801561018357600080fd5b506040805161014081810190925261010991600160a060020a036004803582169360243590921692604435923692916101a49190606490600a9083908390808284375093965061059995505050505050565b8180156101e157600080fd5b50610109600160a060020a036004351660243560443560643560843560a43560c43560e43515156101043561067d565b81801561021d57600080fd5b50610109600160a060020a0360043516610786565b81801561023e57600080fd5b50610109600160a060020a03600435166107fd565b81801561025f57600080fd5b50610109600160a060020a03600435811690602435166044356064351515610874565b81801561028e57600080fd5b50610109600160a060020a0360043581169060243516610906565b8180156102b557600080fd5b50610109600160a060020a036004358116906024351660443561099a565b8180156102df57600080fd5b50610109600160a060020a0360043581169060243516604435610a36565b81801561030957600080fd5b50610109600160a060020a0360043516610af8565b81801561032a57600080fd5b50610109600160a060020a0360043516610b6f565b81801561034b57600080fd5b50610109600160a060020a0360043516610be6565b82600160a060020a031660405180807f68616e646c655061796d656e7428616464726573732c626f6f6c290000000000815250601b019050604051809103902060e060020a900483836040518363ffffffff1660e060020a0281526004018083600160a060020a0316600160a060020a031681526020018215151515815260200192505050600060405180830381865af492505050151561040057600080fd5b505050565b81600160a060020a031660405180807f696e6974537461746528616464726573732900000000000000000000000000008152506012019050604051809103902060e060020a9004826040518263ffffffff1660e060020a0281526004018082600160a060020a0316600160a060020a03168152602001915050600060405180830381865af492505050151561049957600080fd5b5050565b80600160a060020a031660405180807f66696e69736828290000000000000000000000000000000000000000000000008152506008019050604051809103902060e060020a90046040518163ffffffff1660e060020a028152600401600060405180830381865af492505050151561051457600080fd5b50565b81600160a060020a031660405180807f696e6974486f6c642875696e74323536290000000000000000000000000000008152506011019050604051809103902060e060020a9004826040518263ffffffff1660e060020a02815260040180828152602001915050600060405180830381865af492505050151561049957600080fd5b604080517f63616c6c5365727669636528616464726573732c627974657333322c6279746581527f7333325b31305d290000000000000000000000000000000000000000000000006020820152905190819003602801812063ffffffff60e060020a918290049081169091028252600160a060020a03858116600484019081526024840186905290871692869186918691906044018261014080838360005b83811015610650578181015183820152602001610638565b505050509050019350505050600060405180830381865af492505050151561067757600080fd5b50505050565b604080517f696e697443726f776473616c65506172616d65746572732875696e743235362c81527f75696e743235362c75696e743235362c75696e743235362c75696e743235362c60208201527f75696e743235362c626f6f6c2c75696e7432353629000000000000000000000081830152815190819003605501812063ffffffff60e060020a918290049081169091028252600482018b9052602482018a905260448201899052606482018890526084820187905260a4820186905284151560c483015260e482018490529151600160a060020a038c169291610104808201926000929091908290030181865af492505050151561077b57600080fd5b505050505050505050565b80600160a060020a031660405180807f676574436f6d6d697373696f6e546f6b656e73282900000000000000000000008152506015019050604051809103902060e060020a90046040518163ffffffff1660e060020a028152600401600060405180830381865af492505050151561051457600080fd5b80600160a060020a031660405180807f6d616b65526566756e6461626c654279566f74696e674465636973696f6e28298152506020019050604051809103902060e060020a90046040518163ffffffff1660e060020a028152600401600060405180830381865af492505050151561051457600080fd5b604080517f7769746864726177616c28616464726573732c75696e743235362c626f6f6c298152815190819003602001812063ffffffff60e060020a918290049081169091028252600160a060020a03868116600484015260248301869052841515604484015292519287169290916064808201926000929091908290030181865af492505050151561067757600080fd5b81600160a060020a031660405180807f636f6e6e656374536572766963652861646472657373290000000000000000008152506017019050604051809103902060e060020a9004826040518263ffffffff1660e060020a0281526004018082600160a060020a0316600160a060020a03168152602001915050600060405180830381865af492505050151561049957600080fd5b82600160a060020a031660405180807f686f6c64546f6b656e7328616464726573732c75696e74323536290000000000815250601b019050604051809103902060e060020a900483836040518363ffffffff1660e060020a0281526004018083600160a060020a0316600160a060020a0316815260200182815260200192505050600060405180830381865af492505050151561040057600080fd5b82600160a060020a031660405180807f68616e646c654458435061796d656e7428616464726573732c75696e7432353681526020017f29000000000000000000000000000000000000000000000000000000000000008152506021019050604051809103902060e060020a900483836040518363ffffffff1660e060020a0281526004018083600160a060020a0316600160a060020a0316815260200182815260200192505050600060405180830381865af492505050151561040057600080fd5b80600160a060020a031660405180807f726566756e64536f667443617028290000000000000000000000000000000000815250600f019050604051809103902060e060020a90046040518163ffffffff1660e060020a028152600401600060405180830381865af492505050151561051457600080fd5b80600160a060020a031660405180807f726566756e6428290000000000000000000000000000000000000000000000008152506008019050604051809103902060e060020a90046040518163ffffffff1660e060020a028152600401600060405180830381865af492505050151561051457600080fd5b80600160a060020a031660405180807f6d616b65526566756e6461626c654279557365722829000000000000000000008152506016019050604051809103902060e060020a90046040518163ffffffff1660e060020a028152600401600060405180830381865af492505050151561051457600080fd00a165627a7a72305820183d2764917a03694a2fdeffea0a1f79a134c540f6deba0fe6b9e4cee2de03400029",
  "source": "pragma solidity ^0.4.0;\n\nlibrary DAOProxy {\n    function delegatedInitState(address stateModule, address _tokenAddress) {\n        require(stateModule.delegatecall(bytes4(keccak256(\"initState(address)\")), _tokenAddress));\n    }\n\n    function delegatedHoldState(address stateModule, uint _tokenHoldTime) {\n        require(stateModule.delegatecall(bytes4(keccak256(\"initHold(uint256)\")), _tokenHoldTime));\n    }\n\n    function delegatedGetCommissionTokens(address paymentModule) {\n        require(paymentModule.delegatecall(bytes4(keccak256(\"getCommissionTokens()\"))));\n    }\n\n    function delegatedRefund(address paymentModule) {\n        require(paymentModule.delegatecall(bytes4(keccak256(\"refund()\"))));\n    }\n\n    function delegatedRefundSoftCap(address paymentModule) {\n        require(paymentModule.delegatecall(bytes4(keccak256(\"refundSoftCap()\"))));\n    }\n\n    function delegatedWithdrawal(address votingDecisionModule, address _address, uint withdrawalSum, bool dxc) {\n        require(votingDecisionModule.delegatecall(bytes4(keccak256(\"withdrawal(address,uint256,bool)\")), _address, withdrawalSum, dxc));\n    }\n\n    function delegatedMakeRefundableByUser(address votingDecisionModule) {\n        require(votingDecisionModule.delegatecall(bytes4(keccak256(\"makeRefundableByUser()\"))));\n    }\n\n    function delegatedMakeRefundableByVotingDecision(address votingDecisionModule) {\n        require(votingDecisionModule.delegatecall(bytes4(keccak256(\"makeRefundableByVotingDecision()\"))));\n    }\n\n    function delegatedHoldTokens(address votingDecisionModule, address _address, uint duration) {\n        require(votingDecisionModule.delegatecall(bytes4(keccak256(\"holdTokens(address,uint256)\")), _address, duration));\n    }\n\n    function delegatedInitCrowdsaleParameters(\n        address crowdsaleModule,\n        uint _softCap,\n        uint _hardCap,\n        uint _etherRate,\n        uint _DXCRate,\n        uint _startTime,\n        uint _endTime,\n        bool _dxcPayments,\n        uint _lockup\n    ) {\n        require(crowdsaleModule.delegatecall(bytes4(keccak256(\"initCrowdsaleParameters(uint256,uint256,uint256,uint256,uint256,uint256,bool,uint256)\"))\n        , _softCap, _hardCap, _etherRate, _DXCRate, _startTime, _endTime, _dxcPayments, _lockup));\n    }\n\n    function delegatedFinish(address crowdsaleModule) {\n        require(crowdsaleModule.delegatecall(bytes4(keccak256(\"finish()\"))));\n    }\n\n    function delegatedHandlePayment(address crowdsaleModule, address _sender, bool _commission) {\n        require(crowdsaleModule.delegatecall(bytes4(keccak256(\"handlePayment(address,bool)\")), _sender, _commission));\n    }\n\n    function delegatedHandleDXCPayment(address module, address _from, uint _amount) {\n        require(module.delegatecall(bytes4(keccak256(\"handleDXCPayment(address,uint256)\")), _from, _amount));\n    }\n\n    function delegatedConnectService(address module, address _service) {\n        require(module.delegatecall(bytes4(keccak256(\"connectService(address)\")), _service));\n    }\n\n    function delegatedCallService(address module, address _service, bytes32 _method, bytes32[10] _args) {\n        require(module.delegatecall(bytes4(keccak256(\"callService(address,bytes32,bytes32[10])\")), _service, _method, _args));\n    }\n}\n",
  "sourcePath": "/Users/giddeonwyeth/PhpstormProjects/dao/daox-contracts/contracts/DAO/DAOProxy.sol",
  "compiler": {
    "name": "solc",
    "version": "0.4.24+commit.e67f0147.Emscripten.clang"
  },
  "schemaVersion": "2.0.1",
  "updatedAt": "2018-07-11T16:06:33.299Z"
}