{
  "contractName": "DAOProxy",
  "abi": [
    {
      "constant": false,
      "inputs": [
        {
          "name": "stateModule",
          "type": "address"
        },
        {
          "name": "_tokenAddress",
          "type": "address"
        }
      ],
      "name": "delegatedInitState",
      "outputs": [],
      "payable": false,
      "stateMutability": "nonpayable",
      "type": "function"
    },
    {
      "constant": false,
      "inputs": [
        {
          "name": "stateModule",
          "type": "address"
        },
        {
          "name": "_tokenHoldTime",
          "type": "uint256"
        }
      ],
      "name": "delegatedHoldState",
      "outputs": [],
      "payable": false,
      "stateMutability": "nonpayable",
      "type": "function"
    },
    {
      "constant": false,
      "inputs": [
        {
          "name": "paymentModule",
          "type": "address"
        }
      ],
      "name": "delegatedGetCommissionTokens",
      "outputs": [],
      "payable": false,
      "stateMutability": "nonpayable",
      "type": "function"
    },
    {
      "constant": false,
      "inputs": [
        {
          "name": "paymentModule",
          "type": "address"
        }
      ],
      "name": "delegatedRefund",
      "outputs": [],
      "payable": false,
      "stateMutability": "nonpayable",
      "type": "function"
    },
    {
      "constant": false,
      "inputs": [
        {
          "name": "paymentModule",
          "type": "address"
        }
      ],
      "name": "delegatedRefundSoftCap",
      "outputs": [],
      "payable": false,
      "stateMutability": "nonpayable",
      "type": "function"
    },
    {
      "constant": false,
      "inputs": [
        {
          "name": "votingDecisionModule",
          "type": "address"
        },
        {
          "name": "_address",
          "type": "address"
        },
        {
          "name": "withdrawalSum",
          "type": "uint256"
        },
        {
          "name": "dxc",
          "type": "bool"
        }
      ],
      "name": "delegatedWithdrawal",
      "outputs": [],
      "payable": false,
      "stateMutability": "nonpayable",
      "type": "function"
    },
    {
      "constant": false,
      "inputs": [
        {
          "name": "votingDecisionModule",
          "type": "address"
        }
      ],
      "name": "delegatedMakeRefundableByUser",
      "outputs": [],
      "payable": false,
      "stateMutability": "nonpayable",
      "type": "function"
    },
    {
      "constant": false,
      "inputs": [
        {
          "name": "votingDecisionModule",
          "type": "address"
        }
      ],
      "name": "delegatedMakeRefundableByVotingDecision",
      "outputs": [],
      "payable": false,
      "stateMutability": "nonpayable",
      "type": "function"
    },
    {
      "constant": false,
      "inputs": [
        {
          "name": "votingDecisionModule",
          "type": "address"
        },
        {
          "name": "_address",
          "type": "address"
        },
        {
          "name": "duration",
          "type": "uint256"
        }
      ],
      "name": "delegatedHoldTokens",
      "outputs": [],
      "payable": false,
      "stateMutability": "nonpayable",
      "type": "function"
    },
    {
      "constant": false,
      "inputs": [
        {
          "name": "crowdsaleModule",
          "type": "address"
        },
        {
          "name": "_softCap",
          "type": "uint256"
        },
        {
          "name": "_hardCap",
          "type": "uint256"
        },
        {
          "name": "_etherRate",
          "type": "uint256"
        },
        {
          "name": "_DXCRate",
          "type": "uint256"
        },
        {
          "name": "_startTime",
          "type": "uint256"
        },
        {
          "name": "_endTime",
          "type": "uint256"
        },
        {
          "name": "_dxcPayments",
          "type": "bool"
        },
        {
          "name": "_lockup",
          "type": "uint256"
        }
      ],
      "name": "delegatedInitCrowdsaleParameters",
      "outputs": [],
      "payable": false,
      "stateMutability": "nonpayable",
      "type": "function"
    },
    {
      "constant": false,
      "inputs": [
        {
          "name": "crowdsaleModule",
          "type": "address"
        }
      ],
      "name": "delegatedFinish",
      "outputs": [],
      "payable": false,
      "stateMutability": "nonpayable",
      "type": "function"
    },
    {
      "constant": false,
      "inputs": [
        {
          "name": "crowdsaleModule",
          "type": "address"
        },
        {
          "name": "_sender",
          "type": "address"
        },
        {
          "name": "_commission",
          "type": "bool"
        }
      ],
      "name": "delegatedHandlePayment",
      "outputs": [],
      "payable": false,
      "stateMutability": "nonpayable",
      "type": "function"
    },
    {
      "constant": false,
      "inputs": [
        {
          "name": "module",
          "type": "address"
        },
        {
          "name": "_from",
          "type": "address"
        },
        {
          "name": "_amount",
          "type": "uint256"
        }
      ],
      "name": "delegatedHandleDXCPayment",
      "outputs": [],
      "payable": false,
      "stateMutability": "nonpayable",
      "type": "function"
    },
    {
      "constant": false,
      "inputs": [
        {
          "name": "module",
          "type": "address"
        },
        {
          "name": "_service",
          "type": "address"
        }
      ],
      "name": "delegatedConnectService",
      "outputs": [],
      "payable": false,
      "stateMutability": "nonpayable",
      "type": "function"
    }
  ],
  "bytecode": "0x610b42610030600b82828239805160001a6073146000811461002057610022565bfe5b5030600052607381538281f30073000000000000000000000000000000000000000030146080604052600436106100cd5763ffffffff60e060020a60003504166336a8208781146100d257806340966ef31461010057806349e0e327146101275780639cea242014610148578063a7fd12171461016c578063aa3d31d8146101a8578063bf38adb3146101c9578063ca7d9004146101ea578063d14e3a6114610219578063e1ed075f14610240578063edf4d0f61461026a578063fa9e93b114610294578063fbcebd02146102b5578063ffb2cc41146102d6575b600080fd5b8180156100de57600080fd5b506100fe600160a060020a036004358116906024351660443515156102f7565b005b81801561010c57600080fd5b506100fe600160a060020a036004358116906024351661039c565b81801561013357600080fd5b506100fe600160a060020a0360043516610434565b81801561015457600080fd5b506100fe600160a060020a03600435166024356104ae565b81801561017857600080fd5b506100fe600160a060020a036004351660243560443560643560843560a43560c43560e435151561010435610530565b8180156101b457600080fd5b506100fe600160a060020a0360043516610639565b8180156101d557600080fd5b506100fe600160a060020a03600435166106b0565b8180156101f657600080fd5b506100fe600160a060020a03600435811690602435166044356064351515610727565b81801561022557600080fd5b506100fe600160a060020a03600435811690602435166107bf565b81801561024c57600080fd5b506100fe600160a060020a0360043581169060243516604435610853565b81801561027657600080fd5b506100fe600160a060020a03600435811690602435166044356108ef565b8180156102a057600080fd5b506100fe600160a060020a03600435166109b1565b8180156102c157600080fd5b506100fe600160a060020a0360043516610a28565b8180156102e257600080fd5b506100fe600160a060020a0360043516610a9f565b82600160a060020a031660405180807f68616e646c655061796d656e7428616464726573732c626f6f6c290000000000815250601b019050604051809103902060e060020a900483836040518363ffffffff1660e060020a0281526004018083600160a060020a0316600160a060020a031681526020018215151515815260200192505050600060405180830381865af492505050151561039757600080fd5b505050565b81600160a060020a031660405180807f696e6974537461746528616464726573732900000000000000000000000000008152506012019050604051809103902060e060020a9004826040518263ffffffff1660e060020a0281526004018082600160a060020a0316600160a060020a03168152602001915050600060405180830381865af492505050151561043057600080fd5b5050565b80600160a060020a031660405180807f66696e69736828290000000000000000000000000000000000000000000000008152506008019050604051809103902060e060020a90046040518163ffffffff1660e060020a028152600401600060405180830381865af49250505015156104ab57600080fd5b50565b81600160a060020a031660405180807f696e6974486f6c642875696e74323536290000000000000000000000000000008152506011019050604051809103902060e060020a9004826040518263ffffffff1660e060020a02815260040180828152602001915050600060405180830381865af492505050151561043057600080fd5b604080517f696e697443726f776473616c65506172616d65746572732875696e743235362c81527f75696e743235362c75696e743235362c75696e743235362c75696e743235362c60208201527f75696e743235362c626f6f6c2c75696e7432353629000000000000000000000081830152815190819003605501812063ffffffff60e060020a918290049081169091028252600482018b9052602482018a905260448201899052606482018890526084820187905260a4820186905284151560c483015260e482018490529151600160a060020a038c169291610104808201926000929091908290030181865af492505050151561062e57600080fd5b505050505050505050565b80600160a060020a031660405180807f676574436f6d6d697373696f6e546f6b656e73282900000000000000000000008152506015019050604051809103902060e060020a90046040518163ffffffff1660e060020a028152600401600060405180830381865af49250505015156104ab57600080fd5b80600160a060020a031660405180807f6d616b65526566756e6461626c654279566f74696e674465636973696f6e28298152506020019050604051809103902060e060020a90046040518163ffffffff1660e060020a028152600401600060405180830381865af49250505015156104ab57600080fd5b604080517f7769746864726177616c28616464726573732c75696e743235362c626f6f6c298152815190819003602001812063ffffffff60e060020a918290049081169091028252600160a060020a03868116600484015260248301869052841515604484015292519287169290916064808201926000929091908290030181865af49250505015156107b957600080fd5b50505050565b81600160a060020a031660405180807f636f6e6e656374536572766963652861646472657373290000000000000000008152506017019050604051809103902060e060020a9004826040518263ffffffff1660e060020a0281526004018082600160a060020a0316600160a060020a03168152602001915050600060405180830381865af492505050151561043057600080fd5b82600160a060020a031660405180807f686f6c64546f6b656e7328616464726573732c75696e74323536290000000000815250601b019050604051809103902060e060020a900483836040518363ffffffff1660e060020a0281526004018083600160a060020a0316600160a060020a0316815260200182815260200192505050600060405180830381865af492505050151561039757600080fd5b82600160a060020a031660405180807f68616e646c654458435061796d656e7428616464726573732c75696e7432353681526020017f29000000000000000000000000000000000000000000000000000000000000008152506021019050604051809103902060e060020a900483836040518363ffffffff1660e060020a0281526004018083600160a060020a0316600160a060020a0316815260200182815260200192505050600060405180830381865af492505050151561039757600080fd5b80600160a060020a031660405180807f726566756e64536f667443617028290000000000000000000000000000000000815250600f019050604051809103902060e060020a90046040518163ffffffff1660e060020a028152600401600060405180830381865af49250505015156104ab57600080fd5b80600160a060020a031660405180807f726566756e6428290000000000000000000000000000000000000000000000008152506008019050604051809103902060e060020a90046040518163ffffffff1660e060020a028152600401600060405180830381865af49250505015156104ab57600080fd5b80600160a060020a031660405180807f6d616b65526566756e6461626c654279557365722829000000000000000000008152506016019050604051809103902060e060020a90046040518163ffffffff1660e060020a028152600401600060405180830381865af49250505015156104ab57600080fd00a165627a7a72305820621340c1144a138ed5e9ec0328fa91339f6b606bbe033e23825ffba32527b5e40029",
  "source": "pragma solidity ^0.4.0;\n\nlibrary DAOProxy {\n    function delegatedInitState(address stateModule, address _tokenAddress) {\n        require(stateModule.delegatecall(bytes4(keccak256(\"initState(address)\")), _tokenAddress));\n    }\n\n    function delegatedHoldState(address stateModule, uint _tokenHoldTime) {\n        require(stateModule.delegatecall(bytes4(keccak256(\"initHold(uint256)\")), _tokenHoldTime));\n    }\n\n    function delegatedGetCommissionTokens(address paymentModule) {\n        require(paymentModule.delegatecall(bytes4(keccak256(\"getCommissionTokens()\"))));\n    }\n\n    function delegatedRefund(address paymentModule) {\n        require(paymentModule.delegatecall(bytes4(keccak256(\"refund()\"))));\n    }\n\n    function delegatedRefundSoftCap(address paymentModule) {\n        require(paymentModule.delegatecall(bytes4(keccak256(\"refundSoftCap()\"))));\n    }\n\n    function delegatedWithdrawal(address votingDecisionModule, address _address, uint withdrawalSum, bool dxc) {\n        require(votingDecisionModule.delegatecall(bytes4(keccak256(\"withdrawal(address,uint256,bool)\")), _address, withdrawalSum, dxc));\n    }\n\n    function delegatedMakeRefundableByUser(address votingDecisionModule) {\n        require(votingDecisionModule.delegatecall(bytes4(keccak256(\"makeRefundableByUser()\"))));\n    }\n\n    function delegatedMakeRefundableByVotingDecision(address votingDecisionModule) {\n        require(votingDecisionModule.delegatecall(bytes4(keccak256(\"makeRefundableByVotingDecision()\"))));\n    }\n\n    function delegatedHoldTokens(address votingDecisionModule, address _address, uint duration) {\n        require(votingDecisionModule.delegatecall(bytes4(keccak256(\"holdTokens(address,uint256)\")), _address, duration));\n    }\n\n    function delegatedInitCrowdsaleParameters(\n        address crowdsaleModule,\n        uint _softCap,\n        uint _hardCap,\n        uint _etherRate,\n        uint _DXCRate,\n        uint _startTime,\n        uint _endTime,\n        bool _dxcPayments,\n        uint _lockup\n    ) {\n        require(crowdsaleModule.delegatecall(bytes4(keccak256(\"initCrowdsaleParameters(uint256,uint256,uint256,uint256,uint256,uint256,bool,uint256)\"))\n        , _softCap, _hardCap, _etherRate, _DXCRate, _startTime, _endTime, _dxcPayments, _lockup));\n    }\n\n    function delegatedFinish(address crowdsaleModule) {\n        require(crowdsaleModule.delegatecall(bytes4(keccak256(\"finish()\"))));\n    }\n\n    function delegatedHandlePayment(address crowdsaleModule, address _sender, bool _commission) {\n        require(crowdsaleModule.delegatecall(bytes4(keccak256(\"handlePayment(address,bool)\")), _sender, _commission));\n    }\n\n    function delegatedHandleDXCPayment(address module, address _from, uint _amount) {\n        require(module.delegatecall(bytes4(keccak256(\"handleDXCPayment(address,uint256)\")), _from, _amount));\n    }\n\n    function delegatedConnectService(address module, address _service) {\n        require(module.delegatecall(bytes4(keccak256(\"connectService(address)\")), _service));\n    }\n}\n",
  "sourcePath": "/Users/giddeonwyeth/PhpstormProjects/dao/daox-contracts/contracts/DAO/DAOProxy.sol",
  "compiler": {
    "name": "solc",
    "version": "0.4.24+commit.e67f0147.Emscripten.clang"
  },
  "schemaVersion": "2.0.1",
  "updatedAt": "2018-07-10T13:42:04.572Z"
}