{
  "contractName": "DAOx",
  "abi": [
    {
      "constant": true,
      "inputs": [],
      "name": "daoFactory",
      "outputs": [
        {
          "name": "",
          "type": "address"
        }
      ],
      "payable": false,
      "stateMutability": "view",
      "type": "function"
    },
    {
      "constant": true,
      "inputs": [],
      "name": "owner",
      "outputs": [
        {
          "name": "",
          "type": "address"
        }
      ],
      "payable": false,
      "stateMutability": "view",
      "type": "function"
    },
    {
      "constant": true,
      "inputs": [],
      "name": "balance",
      "outputs": [
        {
          "name": "",
          "type": "uint256"
        }
      ],
      "payable": false,
      "stateMutability": "view",
      "type": "function"
    },
    {
      "constant": false,
      "inputs": [
        {
          "name": "newOwner",
          "type": "address"
        }
      ],
      "name": "transferOwnership",
      "outputs": [],
      "payable": false,
      "stateMutability": "nonpayable",
      "type": "function"
    },
    {
      "inputs": [],
      "payable": false,
      "stateMutability": "nonpayable",
      "type": "constructor"
    },
    {
      "payable": true,
      "stateMutability": "payable",
      "type": "fallback"
    },
    {
      "anonymous": false,
      "inputs": [
        {
          "indexed": true,
          "name": "previousOwner",
          "type": "address"
        },
        {
          "indexed": true,
          "name": "newOwner",
          "type": "address"
        }
      ],
      "name": "OwnershipTransferred",
      "type": "event"
    },
    {
      "constant": false,
      "inputs": [
        {
          "name": "_dao",
          "type": "address"
        }
      ],
      "name": "setDaoFactory",
      "outputs": [],
      "payable": false,
      "stateMutability": "nonpayable",
      "type": "function"
    },
    {
      "constant": false,
      "inputs": [
        {
          "name": "_weiToWithdraw",
          "type": "uint256"
        }
      ],
      "name": "withdraw",
      "outputs": [],
      "payable": false,
      "stateMutability": "nonpayable",
      "type": "function"
    }
  ],
  "bytecode": "0x608060405234801561001057600080fd5b5060008054600160a060020a03191633179055610377806100326000396000f3006080604052600436106100775763ffffffff7c01000000000000000000000000000000000000000000000000000000006000350416632e1a7d4d811461011e57806348f7f2a3146101385780638da5cb5b14610169578063b69ef8a81461017e578063dfc061f0146101a5578063f2fde38b146101c6575b600254604080517ff6a3d24e0000000000000000000000000000000000000000000000000000000081523360048201529051600160a060020a039092169163f6a3d24e916024808201926020929091908290030181600087803b1580156100dd57600080fd5b505af11580156100f1573d6000803e3d6000fd5b505050506040513d602081101561010757600080fd5b5051151561011457600080fd5b6001805434019055005b34801561012a57600080fd5b506101366004356101e7565b005b34801561014457600080fd5b5061014d610238565b60408051600160a060020a039092168252519081900360200190f35b34801561017557600080fd5b5061014d610247565b34801561018a57600080fd5b50610193610256565b60408051918252519081900360200190f35b3480156101b157600080fd5b50610136600160a060020a036004351661025c565b3480156101d257600080fd5b50610136600160a060020a03600435166102b7565b600054600160a060020a031633146101fe57600080fd5b600180548290039055604051339082156108fc029083906000818181858888f19350505050158015610234573d6000803e3d6000fd5b5050565b600254600160a060020a031681565b600054600160a060020a031681565b60015481565b600254600160a060020a031615801561027d5750600160a060020a03811615155b151561028857600080fd5b6002805473ffffffffffffffffffffffffffffffffffffffff1916600160a060020a0392909216919091179055565b600054600160a060020a031633146102ce57600080fd5b600160a060020a03811615156102e357600080fd5b60008054604051600160a060020a03808516939216917f8be0079c531659141344cd1fd0a4f28419497f9722a3daafe3b4186f6b6457e091a36000805473ffffffffffffffffffffffffffffffffffffffff1916600160a060020a03929092169190911790555600a165627a7a72305820c74d84f0c23a9753c859c4cc33cdbac37202fcb36ac4940da8939fdcc1ca9c270029",
  "source": "pragma solidity ^0.4.11;\n\nimport \"./Token/Token.sol\";\nimport \"./DAO/DAOFactoryInterface.sol\";\nimport \"../node_modules/zeppelin-solidity/contracts/ownership/Ownable.sol\";\n\ncontract DAOx is Ownable {\n    uint public balance;\n    DAOFactoryInterface public daoFactory;\n\n    function DAOx() {\n\n    }\n\n    function() payable onlyDAO {\n        balance += msg.value;\n    }\n\n    function setDaoFactory(address _dao) external {\n        require(address(daoFactory) == 0x0 && _dao != 0x0);\n        daoFactory = DAOFactoryInterface(_dao);\n    }\n\n    function withdraw(uint _weiToWithdraw) public onlyOwner {\n        balance -= _weiToWithdraw;\n        msg.sender.transfer(_weiToWithdraw);\n    }\n\n    modifier onlyDAO() {\n        require(daoFactory.exists(msg.sender));\n        _;\n    }\n}\n\n\n",
  "sourcePath": "/Users/giddeonwyeth/PhpstormProjects/dao/daox-contracts/contracts/DAOx.sol",
  "compiler": {
    "name": "solc",
    "version": "0.4.24+commit.e67f0147.Emscripten.clang"
  },
  "schemaVersion": "2.0.1",
  "updatedAt": "2018-07-11T16:06:33.307Z"
}