{
  "contractName": "DXC",
  "abi": [
    {
      "constant": true,
      "inputs": [],
      "name": "maximumSupply",
      "outputs": [
        {
          "name": "",
          "type": "uint256"
        }
      ],
      "payable": false,
      "stateMutability": "view",
      "type": "function"
    },
    {
      "constant": true,
      "inputs": [],
      "name": "mintingFinished",
      "outputs": [
        {
          "name": "",
          "type": "bool"
        }
      ],
      "payable": false,
      "stateMutability": "view",
      "type": "function"
    },
    {
      "constant": true,
      "inputs": [],
      "name": "name",
      "outputs": [
        {
          "name": "",
          "type": "string"
        }
      ],
      "payable": false,
      "stateMutability": "view",
      "type": "function"
    },
    {
      "constant": false,
      "inputs": [
        {
          "name": "_spender",
          "type": "address"
        },
        {
          "name": "_value",
          "type": "uint256"
        }
      ],
      "name": "approve",
      "outputs": [
        {
          "name": "",
          "type": "bool"
        }
      ],
      "payable": false,
      "stateMutability": "nonpayable",
      "type": "function"
    },
    {
      "constant": true,
      "inputs": [],
      "name": "totalSupply",
      "outputs": [
        {
          "name": "",
          "type": "uint256"
        }
      ],
      "payable": false,
      "stateMutability": "view",
      "type": "function"
    },
    {
      "constant": false,
      "inputs": [
        {
          "name": "_from",
          "type": "address"
        },
        {
          "name": "_to",
          "type": "address"
        },
        {
          "name": "_value",
          "type": "uint256"
        }
      ],
      "name": "transferFrom",
      "outputs": [
        {
          "name": "",
          "type": "bool"
        }
      ],
      "payable": false,
      "stateMutability": "nonpayable",
      "type": "function"
    },
    {
      "constant": true,
      "inputs": [],
      "name": "decimals",
      "outputs": [
        {
          "name": "",
          "type": "uint256"
        }
      ],
      "payable": false,
      "stateMutability": "view",
      "type": "function"
    },
    {
      "constant": false,
      "inputs": [
        {
          "name": "_spender",
          "type": "address"
        },
        {
          "name": "_subtractedValue",
          "type": "uint256"
        }
      ],
      "name": "decreaseApproval",
      "outputs": [
        {
          "name": "success",
          "type": "bool"
        }
      ],
      "payable": false,
      "stateMutability": "nonpayable",
      "type": "function"
    },
    {
      "constant": true,
      "inputs": [
        {
          "name": "_owner",
          "type": "address"
        }
      ],
      "name": "balanceOf",
      "outputs": [
        {
          "name": "balance",
          "type": "uint256"
        }
      ],
      "payable": false,
      "stateMutability": "view",
      "type": "function"
    },
    {
      "constant": false,
      "inputs": [],
      "name": "finishMinting",
      "outputs": [
        {
          "name": "",
          "type": "bool"
        }
      ],
      "payable": false,
      "stateMutability": "nonpayable",
      "type": "function"
    },
    {
      "constant": true,
      "inputs": [
        {
          "name": "",
          "type": "uint256"
        }
      ],
      "name": "additionalOwnersList",
      "outputs": [
        {
          "name": "",
          "type": "address"
        }
      ],
      "payable": false,
      "stateMutability": "view",
      "type": "function"
    },
    {
      "constant": true,
      "inputs": [],
      "name": "owner",
      "outputs": [
        {
          "name": "",
          "type": "address"
        }
      ],
      "payable": false,
      "stateMutability": "view",
      "type": "function"
    },
    {
      "constant": true,
      "inputs": [],
      "name": "symbol",
      "outputs": [
        {
          "name": "",
          "type": "string"
        }
      ],
      "payable": false,
      "stateMutability": "view",
      "type": "function"
    },
    {
      "constant": true,
      "inputs": [
        {
          "name": "",
          "type": "address"
        }
      ],
      "name": "additionalOwners",
      "outputs": [
        {
          "name": "",
          "type": "bool"
        }
      ],
      "payable": false,
      "stateMutability": "view",
      "type": "function"
    },
    {
      "constant": false,
      "inputs": [
        {
          "name": "_to",
          "type": "address"
        },
        {
          "name": "_value",
          "type": "uint256"
        }
      ],
      "name": "transfer",
      "outputs": [
        {
          "name": "",
          "type": "bool"
        }
      ],
      "payable": false,
      "stateMutability": "nonpayable",
      "type": "function"
    },
    {
      "constant": false,
      "inputs": [
        {
          "name": "_spender",
          "type": "address"
        },
        {
          "name": "_addedValue",
          "type": "uint256"
        }
      ],
      "name": "increaseApproval",
      "outputs": [
        {
          "name": "success",
          "type": "bool"
        }
      ],
      "payable": false,
      "stateMutability": "nonpayable",
      "type": "function"
    },
    {
      "constant": true,
      "inputs": [
        {
          "name": "_owner",
          "type": "address"
        },
        {
          "name": "_spender",
          "type": "address"
        }
      ],
      "name": "allowance",
      "outputs": [
        {
          "name": "remaining",
          "type": "uint256"
        }
      ],
      "payable": false,
      "stateMutability": "view",
      "type": "function"
    },
    {
      "constant": false,
      "inputs": [
        {
          "name": "newOwner",
          "type": "address"
        }
      ],
      "name": "transferOwnership",
      "outputs": [],
      "payable": false,
      "stateMutability": "nonpayable",
      "type": "function"
    },
    {
      "anonymous": false,
      "inputs": [
        {
          "indexed": false,
          "name": "_address",
          "type": "address"
        }
      ],
      "name": "TokenCreation",
      "type": "event"
    },
    {
      "anonymous": false,
      "inputs": [
        {
          "indexed": false,
          "name": "oldOwners",
          "type": "address[]"
        },
        {
          "indexed": false,
          "name": "newOwners",
          "type": "address[]"
        }
      ],
      "name": "SetAdditionalOwners",
      "type": "event"
    },
    {
      "anonymous": false,
      "inputs": [
        {
          "indexed": true,
          "name": "to",
          "type": "address"
        },
        {
          "indexed": false,
          "name": "amount",
          "type": "uint256"
        }
      ],
      "name": "Mint",
      "type": "event"
    },
    {
      "anonymous": false,
      "inputs": [],
      "name": "MintFinished",
      "type": "event"
    },
    {
      "anonymous": false,
      "inputs": [
        {
          "indexed": true,
          "name": "previousOwner",
          "type": "address"
        },
        {
          "indexed": true,
          "name": "newOwner",
          "type": "address"
        }
      ],
      "name": "OwnershipTransferred",
      "type": "event"
    },
    {
      "anonymous": false,
      "inputs": [
        {
          "indexed": true,
          "name": "owner",
          "type": "address"
        },
        {
          "indexed": true,
          "name": "spender",
          "type": "address"
        },
        {
          "indexed": false,
          "name": "value",
          "type": "uint256"
        }
      ],
      "name": "Approval",
      "type": "event"
    },
    {
      "anonymous": false,
      "inputs": [
        {
          "indexed": true,
          "name": "from",
          "type": "address"
        },
        {
          "indexed": true,
          "name": "to",
          "type": "address"
        },
        {
          "indexed": false,
          "name": "value",
          "type": "uint256"
        }
      ],
      "name": "Transfer",
      "type": "event"
    },
    {
      "constant": false,
      "inputs": [
        {
          "name": "_to",
          "type": "address"
        },
        {
          "name": "_amount",
          "type": "uint256"
        }
      ],
      "name": "contributeTo",
      "outputs": [],
      "payable": false,
      "stateMutability": "nonpayable",
      "type": "function"
    },
    {
      "constant": false,
      "inputs": [
        {
          "name": "_to",
          "type": "address"
        },
        {
          "name": "_amount",
          "type": "uint256"
        }
      ],
      "name": "mint",
      "outputs": [
        {
          "name": "",
          "type": "bool"
        }
      ],
      "payable": false,
      "stateMutability": "nonpayable",
      "type": "function"
    },
    {
      "constant": false,
      "inputs": [
        {
          "name": "_to",
          "type": "address[]"
        },
        {
          "name": "_amount",
          "type": "uint256[]"
        }
      ],
      "name": "transferTokens",
      "outputs": [
        {
          "name": "",
          "type": "bool"
        }
      ],
      "payable": false,
      "stateMutability": "nonpayable",
      "type": "function"
    },
    {
      "constant": false,
      "inputs": [
        {
          "name": "_owners",
          "type": "address[]"
        }
      ],
      "name": "setAdditionalOwners",
      "outputs": [],
      "payable": false,
      "stateMutability": "nonpayable",
      "type": "function"
    }
  ],
  "bytecode": "0x6080604052600380546af8277896582678ac000000600655600160a860020a03191633600160a060020a03161790556110df8061003d6000396000f30060806040526004361061010e5763ffffffff60e060020a6000350416630480e58b811461011357806305d2035b1461013a57806306fdde0314610163578063095ea7b3146101ed57806318160ddd1461021157806323b872dd14610226578063313ce5671461025057806340c10f1914610265578063543e10b41461028957806365620283146102af578063661884631461033d57806370a08231146103615780637d64bcb414610382578063841016d0146103975780638a627be8146103ec5780638da5cb5b1461042057806395d89b4114610435578063a055f7071461044a578063a9059cbb1461046b578063d73dd6231461048f578063dd62ed3e146104b3578063f2fde38b146104da575b600080fd5b34801561011f57600080fd5b506101286104fb565b60408051918252519081900360200190f35b34801561014657600080fd5b5061014f610501565b604080519115158252519081900360200190f35b34801561016f57600080fd5b50610178610522565b6040805160208082528351818301528351919283929083019185019080838360005b838110156101b257818101518382015260200161019a565b50505050905090810190601f1680156101df5780820380516001836020036101000a031916815260200191505b509250505060405180910390f35b3480156101f957600080fd5b5061014f600160a060020a0360043516602435610559565b34801561021d57600080fd5b506101286105c3565b34801561023257600080fd5b5061014f600160a060020a03600435811690602435166044356105c9565b34801561025c57600080fd5b506101286106f3565b34801561027157600080fd5b5061014f600160a060020a03600435166024356106f8565b34801561029557600080fd5b506102ad600160a060020a0360043516602435610862565b005b3480156102bb57600080fd5b506040805160206004803580820135838102808601850190965280855261014f95369593946024949385019291829185019084908082843750506040805187358901803560208181028481018201909552818452989b9a9989019892975090820195509350839250850190849080828437509497506109359650505050505050565b34801561034957600080fd5b5061014f600160a060020a03600435166024356109e0565b34801561036d57600080fd5b50610128600160a060020a0360043516610ad9565b34801561038e57600080fd5b5061014f610af4565b3480156103a357600080fd5b50604080516020600480358082013583810280860185019096528085526102ad95369593946024949385019291829185019084908082843750949750610b779650505050505050565b3480156103f857600080fd5b50610404600435610d29565b60408051600160a060020a039092168252519081900360200190f35b34801561042c57600080fd5b50610404610d51565b34801561044157600080fd5b50610178610d60565b34801561045657600080fd5b5061014f600160a060020a0360043516610d97565b34801561047757600080fd5b5061014f600160a060020a0360043516602435610dac565b34801561049b57600080fd5b5061014f600160a060020a0360043516602435610e82565b3480156104bf57600080fd5b50610128600160a060020a0360043581169060243516610f24565b3480156104e657600080fd5b506102ad600160a060020a0360043516610f4f565b60065481565b60035474010000000000000000000000000000000000000000900460ff1681565b60408051808201909152600981527f44616f7820436f696e0000000000000000000000000000000000000000000000602082015281565b600160a060020a03338116600081815260026020908152604080832094871680845294825280832086905580518681529051929493927f8c5be1e5ebec7d5bd14f71427d1e84f3dd0314c0f7b2291e5b200ac8c7c3b925929181900390910190a350600192915050565b60005481565b600080600160a060020a03841615156105e157600080fd5b50600160a060020a03808516600081815260026020908152604080832033909516835293815283822054928252600190529190912054610627908463ffffffff610fe816565b600160a060020a03808716600090815260016020526040808220939093559086168152205461065c908463ffffffff610ffa16565b600160a060020a038516600090815260016020526040902055610685818463ffffffff610fe816565b600160a060020a038087166000818152600260209081526040808320338616845282529182902094909455805187815290519288169391927fddf252ad1be2c89b69c2b068fc378daa952ba7f163c4a11628f55a4df523b3ef929181900390910190a3506001949350505050565b601281565b60035460009033600160a060020a03908116911614806107305750600160a060020a03331660009081526005602052604090205460ff165b151561073b57600080fd5b60035474010000000000000000000000000000000000000000900460ff161561076357600080fd5b8160065461077c82600054610ffa90919063ffffffff16565b111561078757600080fd5b60005461079a908463ffffffff610ffa16565b6000908155600160a060020a0385168152600160205260409020546107c5908463ffffffff610ffa16565b600160a060020a038516600081815260016020908152604091829020939093558051868152905191927f0f6798a560793a54c3bcfe86a93cde1e73087d944c0ea20544137d412139688592918290030190a2604080518481529051600160a060020a038616916000917fddf252ad1be2c89b69c2b068fc378daa952ba7f163c4a11628f55a4df523b3ef9181900360200190a35060019392505050565b61086c8282610dac565b5081600160a060020a031660405180807f68616e646c654458435061796d656e7428616464726573732c75696e7432353681526020017f29000000000000000000000000000000000000000000000000000000000000008152506021019050604051809103902060e060020a900433836040518363ffffffff1660e060020a0281526004018083600160a060020a0316600160a060020a03168152602001828152602001925050506000604051808303816000875af192505050151561093157600080fd5b5050565b600354600090819033600160a060020a039081169116148061096f5750600160a060020a03331660009081526005602052604090205460ff165b151561097a57600080fd5b825184511461098857600080fd5b5060005b83518110156109d6576109cd84828151811015156109a657fe5b9060200190602002015184838151811015156109be57fe5b90602001906020020151610dac565b5060010161098c565b5060019392505050565b600160a060020a03338116600090815260026020908152604080832093861683529290529081205480831115610a3d57600160a060020a033381166000908152600260209081526040808320938816835292905290812055610a74565b610a4d818463ffffffff610fe816565b600160a060020a033381166000908152600260209081526040808320938916835292905220555b600160a060020a0333811660008181526002602090815260408083209489168084529482529182902054825190815291517f8c5be1e5ebec7d5bd14f71427d1e84f3dd0314c0f7b2291e5b200ac8c7c3b9259281900390910190a35060019392505050565b600160a060020a031660009081526001602052604090205490565b60035460009033600160a060020a03908116911614610b1257600080fd5b6003805474ff00000000000000000000000000000000000000001916740100000000000000000000000000000000000000001790556040517fae5184fba832cb2b1f702aca6117b8d265eaf03ad33eb133f19dde0f5920fa0890600090a15060015b90565b60035460009033600160a060020a03908116911614610b9557600080fd5b7fa6064a51a61252a13c041900cff62faa41b62e914a0c2fe58e7620be2a1fc8436004836040518080602001806020018381038352858181548152602001915080548015610c0c57602002820191906000526020600020905b8154600160a060020a03168152600190910190602001808311610bee575b50508381038252845181528451602091820191808701910280838360005b83811015610c42578181015183820152602001610c2a565b5050505090500194505050505060405180910390a15060005b600454811015610cb657600060056000600484815481101515610c7a57fe5b600091825260208083209190910154600160a060020a031683528201929092526040019020805460ff1916911515919091179055600101610c5b565b5060005b8151811015610d11576001600560008484815181101515610cd757fe5b602090810291909101810151600160a060020a03168252810191909152604001600020805460ff1916911515919091179055600101610cba565b8151610d24906004906020850190611010565b505050565b6004805482908110610d3757fe5b600091825260209091200154600160a060020a0316905081565b600354600160a060020a031681565b60408051808201909152600381527f4458430000000000000000000000000000000000000000000000000000000000602082015281565b60056020526000908152604090205460ff1681565b6000600160a060020a0383161515610dc357600080fd5b600160a060020a033316600090815260016020526040902054610dec908363ffffffff610fe816565b600160a060020a033381166000908152600160205260408082209390935590851681522054610e21908363ffffffff610ffa16565b600160a060020a038085166000818152600160209081526040918290209490945580518681529051919333909316927fddf252ad1be2c89b69c2b068fc378daa952ba7f163c4a11628f55a4df523b3ef92918290030190a350600192915050565b600160a060020a033381166000908152600260209081526040808320938616835292905290812054610eba908363ffffffff610ffa16565b600160a060020a0333811660008181526002602090815260408083209489168084529482529182902085905581519485529051929391927f8c5be1e5ebec7d5bd14f71427d1e84f3dd0314c0f7b2291e5b200ac8c7c3b9259281900390910190a350600192915050565b600160a060020a03918216600090815260026020908152604080832093909416825291909152205490565b60035433600160a060020a03908116911614610f6a57600080fd5b600160a060020a0381161515610f7f57600080fd5b600354604051600160a060020a038084169216907f8be0079c531659141344cd1fd0a4f28419497f9722a3daafe3b4186f6b6457e090600090a36003805473ffffffffffffffffffffffffffffffffffffffff1916600160a060020a0392909216919091179055565b600082821115610ff457fe5b50900390565b60008282018381101561100957fe5b9392505050565b828054828255906000526020600020908101928215611072579160200282015b82811115611072578251825473ffffffffffffffffffffffffffffffffffffffff1916600160a060020a03909116178255602090920191600190910190611030565b5061107e929150611082565b5090565b610b7491905b8082111561107e57805473ffffffffffffffffffffffffffffffffffffffff191681556001016110885600a165627a7a7230582046e7b0eaf0d385b80ac245134656b500b11eba02357e5a00533d326b6f60d84d0029",
  "source": "pragma solidity ^0.4.11;\n\nimport '../../node_modules/zeppelin-solidity/contracts/token/BasicToken.sol';\nimport '../../node_modules/zeppelin-solidity/contracts/token/MintableToken.sol';\n\ncontract DXC is MintableToken {\n    address[] public additionalOwnersList; // List of addresses which are able to call `mint` function\n    mapping(address => bool) public additionalOwners;  // Mapping of addresses which are able to call `mint` function\n    uint public maximumSupply = 300000000 * 10**18; // Maximum supply of DXC tokens equals 300 millions\n\n    event TokenCreation(address _address);\n    event SetAdditionalOwners(address[] oldOwners, address[] newOwners);\n\n    string public constant name = \"Daox Coin\";\n    string public constant symbol = \"DXC\";\n    uint public constant decimals = 18;\n\n    /**\n     * @dev Transfer specified amount of tokens to the specified address and call\n     * standard `handleDXCPayment` method of Crowdsale DAO\n     * @param _to The address of Crowdsale DAO\n     * @param _amount The amount of tokens to send\n    */\n    function contributeTo(address _to, uint256 _amount) public {\n        super.transfer(_to, _amount);\n        require(_to.call(bytes4(keccak256(\"handleDXCPayment(address,uint256)\")), msg.sender, _amount));\n    }\n\n    /**\n     * @dev Overrides function to mint tokens from `MintableToken` contract with new modifier\n     * @param _to The address that will receive the minted tokens.\n     * @param _amount The amount of tokens to mint.\n     * @return A boolean that indicates if the operation was successful.\n    */\n    function mint(address _to, uint256 _amount) isOwnerOrAdditionalOwner canMint maximumSupplyWasNotReached(_amount) public returns (bool) {\n        totalSupply = totalSupply.add(_amount);\n        balances[_to] = balances[_to].add(_amount);\n        Mint(_to, _amount);\n        Transfer(0x0, _to, _amount);\n        return true;\n    }\n\n    /**\n     * @dev Transfer specified amount of tokens to the specified list of addresses\n     * @param _to The array of addresses that will receive tokens\n     * @param _amount The array of uint values indicates how much tokens will receive corresponding address\n     * @return True if all transfers were completed successfully\n    */\n    function transferTokens(address[] _to, uint256[] _amount) isOwnerOrAdditionalOwner public returns (bool) {\n        require(_to.length == _amount.length);\n        for (uint i = 0; i < _to.length; i++) {\n            transfer(_to[i], _amount[i]);\n        }\n\n        return true;\n    }\n\n    /**\n     * @dev Define array and mapping of addresses that will be additional owners\n     * @param _owners The addresses that will be defined as additional owners\n    */\n    function setAdditionalOwners(address[] _owners) onlyOwner {\n        SetAdditionalOwners(additionalOwnersList, _owners);\n\n        for (uint i = 0; i < additionalOwnersList.length; i++) {\n            additionalOwners[additionalOwnersList[i]] = false;\n        }\n\n        for (i = 0; i < _owners.length; i++) {\n            additionalOwners[_owners[i]] = true;\n        }\n\n        additionalOwnersList = _owners;\n    }\n\n    /**\n     * @dev Throws an exception if called not by owner or additional owner\n     */\n    modifier isOwnerOrAdditionalOwner() {\n        require(msg.sender == owner || additionalOwners[msg.sender]);\n        _;\n    }\n\n    /**\n     * @dev Throws an exception if maximumSupply will be exceeded after minting\n     * @param _amount The amount of tokens to mint\n     */\n    modifier maximumSupplyWasNotReached(uint256 _amount) {\n        require(totalSupply.add(_amount) <= maximumSupply);\n        _;\n    }\n}\n",
  "sourcePath": "/Users/kirill/projects/daox-contracts/contracts/Token/DXC.sol",
  "compiler": {
    "name": "solc",
    "version": "0.4.23+commit.124ca40d.Emscripten.clang"
  },
  "schemaVersion": "2.0.0",
  "updatedAt": "2018-06-04T15:34:31.694Z"
}