{
  "contractName": "DXC",
  "abi": [
    {
      "constant": true,
      "inputs": [],
      "name": "maximumSupply",
      "outputs": [
        {
          "name": "",
          "type": "uint256"
        }
      ],
      "payable": false,
      "stateMutability": "view",
      "type": "function"
    },
    {
      "constant": true,
      "inputs": [],
      "name": "mintingFinished",
      "outputs": [
        {
          "name": "",
          "type": "bool"
        }
      ],
      "payable": false,
      "stateMutability": "view",
      "type": "function"
    },
    {
      "constant": true,
      "inputs": [],
      "name": "name",
      "outputs": [
        {
          "name": "",
          "type": "string"
        }
      ],
      "payable": false,
      "stateMutability": "view",
      "type": "function"
    },
    {
      "constant": false,
      "inputs": [
        {
          "name": "_spender",
          "type": "address"
        },
        {
          "name": "_value",
          "type": "uint256"
        }
      ],
      "name": "approve",
      "outputs": [
        {
          "name": "",
          "type": "bool"
        }
      ],
      "payable": false,
      "stateMutability": "nonpayable",
      "type": "function"
    },
    {
      "constant": true,
      "inputs": [],
      "name": "totalSupply",
      "outputs": [
        {
          "name": "",
          "type": "uint256"
        }
      ],
      "payable": false,
      "stateMutability": "view",
      "type": "function"
    },
    {
      "constant": false,
      "inputs": [
        {
          "name": "_from",
          "type": "address"
        },
        {
          "name": "_to",
          "type": "address"
        },
        {
          "name": "_value",
          "type": "uint256"
        }
      ],
      "name": "transferFrom",
      "outputs": [
        {
          "name": "",
          "type": "bool"
        }
      ],
      "payable": false,
      "stateMutability": "nonpayable",
      "type": "function"
    },
    {
      "constant": true,
      "inputs": [],
      "name": "decimals",
      "outputs": [
        {
          "name": "",
          "type": "uint256"
        }
      ],
      "payable": false,
      "stateMutability": "view",
      "type": "function"
    },
    {
      "constant": false,
      "inputs": [
        {
          "name": "_spender",
          "type": "address"
        },
        {
          "name": "_subtractedValue",
          "type": "uint256"
        }
      ],
      "name": "decreaseApproval",
      "outputs": [
        {
          "name": "success",
          "type": "bool"
        }
      ],
      "payable": false,
      "stateMutability": "nonpayable",
      "type": "function"
    },
    {
      "constant": true,
      "inputs": [
        {
          "name": "_owner",
          "type": "address"
        }
      ],
      "name": "balanceOf",
      "outputs": [
        {
          "name": "balance",
          "type": "uint256"
        }
      ],
      "payable": false,
      "stateMutability": "view",
      "type": "function"
    },
    {
      "constant": false,
      "inputs": [],
      "name": "finishMinting",
      "outputs": [
        {
          "name": "",
          "type": "bool"
        }
      ],
      "payable": false,
      "stateMutability": "nonpayable",
      "type": "function"
    },
    {
      "constant": true,
      "inputs": [
        {
          "name": "",
          "type": "uint256"
        }
      ],
      "name": "additionalOwnersList",
      "outputs": [
        {
          "name": "",
          "type": "address"
        }
      ],
      "payable": false,
      "stateMutability": "view",
      "type": "function"
    },
    {
      "constant": true,
      "inputs": [],
      "name": "owner",
      "outputs": [
        {
          "name": "",
          "type": "address"
        }
      ],
      "payable": false,
      "stateMutability": "view",
      "type": "function"
    },
    {
      "constant": true,
      "inputs": [],
      "name": "symbol",
      "outputs": [
        {
          "name": "",
          "type": "string"
        }
      ],
      "payable": false,
      "stateMutability": "view",
      "type": "function"
    },
    {
      "constant": true,
      "inputs": [
        {
          "name": "",
          "type": "address"
        }
      ],
      "name": "additionalOwners",
      "outputs": [
        {
          "name": "",
          "type": "bool"
        }
      ],
      "payable": false,
      "stateMutability": "view",
      "type": "function"
    },
    {
      "constant": false,
      "inputs": [
        {
          "name": "_to",
          "type": "address"
        },
        {
          "name": "_value",
          "type": "uint256"
        }
      ],
      "name": "transfer",
      "outputs": [
        {
          "name": "",
          "type": "bool"
        }
      ],
      "payable": false,
      "stateMutability": "nonpayable",
      "type": "function"
    },
    {
      "constant": false,
      "inputs": [
        {
          "name": "_spender",
          "type": "address"
        },
        {
          "name": "_addedValue",
          "type": "uint256"
        }
      ],
      "name": "increaseApproval",
      "outputs": [
        {
          "name": "success",
          "type": "bool"
        }
      ],
      "payable": false,
      "stateMutability": "nonpayable",
      "type": "function"
    },
    {
      "constant": true,
      "inputs": [
        {
          "name": "_owner",
          "type": "address"
        },
        {
          "name": "_spender",
          "type": "address"
        }
      ],
      "name": "allowance",
      "outputs": [
        {
          "name": "remaining",
          "type": "uint256"
        }
      ],
      "payable": false,
      "stateMutability": "view",
      "type": "function"
    },
    {
      "constant": false,
      "inputs": [
        {
          "name": "newOwner",
          "type": "address"
        }
      ],
      "name": "transferOwnership",
      "outputs": [],
      "payable": false,
      "stateMutability": "nonpayable",
      "type": "function"
    },
    {
      "anonymous": false,
      "inputs": [
        {
          "indexed": false,
          "name": "_address",
          "type": "address"
        }
      ],
      "name": "TokenCreation",
      "type": "event"
    },
    {
      "anonymous": false,
      "inputs": [
        {
          "indexed": false,
          "name": "oldOwners",
          "type": "address[]"
        },
        {
          "indexed": false,
          "name": "newOwners",
          "type": "address[]"
        }
      ],
      "name": "SetAdditionalOwners",
      "type": "event"
    },
    {
      "anonymous": false,
      "inputs": [
        {
          "indexed": true,
          "name": "to",
          "type": "address"
        },
        {
          "indexed": false,
          "name": "amount",
          "type": "uint256"
        }
      ],
      "name": "Mint",
      "type": "event"
    },
    {
      "anonymous": false,
      "inputs": [],
      "name": "MintFinished",
      "type": "event"
    },
    {
      "anonymous": false,
      "inputs": [
        {
          "indexed": true,
          "name": "previousOwner",
          "type": "address"
        },
        {
          "indexed": true,
          "name": "newOwner",
          "type": "address"
        }
      ],
      "name": "OwnershipTransferred",
      "type": "event"
    },
    {
      "anonymous": false,
      "inputs": [
        {
          "indexed": true,
          "name": "owner",
          "type": "address"
        },
        {
          "indexed": true,
          "name": "spender",
          "type": "address"
        },
        {
          "indexed": false,
          "name": "value",
          "type": "uint256"
        }
      ],
      "name": "Approval",
      "type": "event"
    },
    {
      "anonymous": false,
      "inputs": [
        {
          "indexed": true,
          "name": "from",
          "type": "address"
        },
        {
          "indexed": true,
          "name": "to",
          "type": "address"
        },
        {
          "indexed": false,
          "name": "value",
          "type": "uint256"
        }
      ],
      "name": "Transfer",
      "type": "event"
    },
    {
      "constant": false,
      "inputs": [
        {
          "name": "_to",
          "type": "address"
        },
        {
          "name": "_amount",
          "type": "uint256"
        }
      ],
      "name": "contributeTo",
      "outputs": [],
      "payable": false,
      "stateMutability": "nonpayable",
      "type": "function"
    },
    {
      "constant": false,
      "inputs": [
        {
          "name": "_to",
          "type": "address"
        },
        {
          "name": "_amount",
          "type": "uint256"
        }
      ],
      "name": "mint",
      "outputs": [
        {
          "name": "",
          "type": "bool"
        }
      ],
      "payable": false,
      "stateMutability": "nonpayable",
      "type": "function"
    },
    {
      "constant": false,
      "inputs": [
        {
          "name": "_owners",
          "type": "address[]"
        }
      ],
      "name": "setAdditionalOwners",
      "outputs": [],
      "payable": false,
      "stateMutability": "nonpayable",
      "type": "function"
    }
  ],
  "bytecode": "0x6060604052600380546af8277896582678ac000000600655600160a860020a03191633600160a060020a0316179055610f5f8061003d6000396000f3006060604052600436106101035763ffffffff60e060020a6000350416630480e58b811461010857806305d2035b1461012d57806306fdde0314610154578063095ea7b3146101de57806318160ddd1461020057806323b872dd14610213578063313ce5671461023b57806340c10f191461024e578063543e10b414610270578063661884631461029457806370a08231146102b65780637d64bcb4146102d5578063841016d0146102e85780638a627be8146103375780638da5cb5b1461036957806395d89b411461037c578063a055f7071461038f578063a9059cbb146103ae578063d73dd623146103d0578063dd62ed3e146103f2578063f2fde38b14610417575b600080fd5b341561011357600080fd5b61011b610436565b60405190815260200160405180910390f35b341561013857600080fd5b61014061043c565b604051901515815260200160405180910390f35b341561015f57600080fd5b61016761045d565b60405160208082528190810183818151815260200191508051906020019080838360005b838110156101a357808201518382015260200161018b565b50505050905090810190601f1680156101d05780820380516001836020036101000a031916815260200191505b509250505060405180910390f35b34156101e957600080fd5b610140600160a060020a0360043516602435610494565b341561020b57600080fd5b61011b610500565b341561021e57600080fd5b610140600160a060020a0360043581169060243516604435610506565b341561024657600080fd5b61011b610630565b341561025957600080fd5b610140600160a060020a0360043516602435610635565b341561027b57600080fd5b610292600160a060020a0360043516602435610794565b005b341561029f57600080fd5b610140600160a060020a0360043516602435610854565b34156102c157600080fd5b61011b600160a060020a036004351661094e565b34156102e057600080fd5b610140610969565b34156102f357600080fd5b61029260046024813581810190830135806020818102016040519081016040528093929190818152602001838360200280828437509496506109ef95505050505050565b341561034257600080fd5b61034d600435610ba3565b604051600160a060020a03909116815260200160405180910390f35b341561037457600080fd5b61034d610bcb565b341561038757600080fd5b610167610bda565b341561039a57600080fd5b610140600160a060020a0360043516610c11565b34156103b957600080fd5b610140600160a060020a0360043516602435610c26565b34156103db57600080fd5b610140600160a060020a0360043516602435610cfc565b34156103fd57600080fd5b61011b600160a060020a0360043581169060243516610da0565b341561042257600080fd5b610292600160a060020a0360043516610dcb565b60065481565b60035474010000000000000000000000000000000000000000900460ff1681565b60408051908101604052600981527f44616f7820436f696e0000000000000000000000000000000000000000000000602082015281565b600160a060020a03338116600081815260026020908152604080832094871680845294909152808220859055909291907f8c5be1e5ebec7d5bd14f71427d1e84f3dd0314c0f7b2291e5b200ac8c7c3b9259085905190815260200160405180910390a350600192915050565b60005481565b600080600160a060020a038416151561051e57600080fd5b50600160a060020a03808516600081815260026020908152604080832033909516835293815283822054928252600190529190912054610564908463ffffffff610e6616565b600160a060020a038087166000908152600160205260408082209390935590861681522054610599908463ffffffff610e7816565b600160a060020a0385166000908152600160205260409020556105c2818463ffffffff610e6616565b600160a060020a03808716600081815260026020908152604080832033861684529091529081902093909355908616917fddf252ad1be2c89b69c2b068fc378daa952ba7f163c4a11628f55a4df523b3ef9086905190815260200160405180910390a3506001949350505050565b601281565b60035460009033600160a060020a039081169116148061066d5750600160a060020a03331660009081526005602052604090205460ff165b151561067857600080fd5b60035474010000000000000000000000000000000000000000900460ff16156106a057600080fd5b816006546106b060005483610e78565b11156106bb57600080fd5b6000546106ce908463ffffffff610e7816565b6000908155600160a060020a0385168152600160205260409020546106f9908463ffffffff610e7816565b600160a060020a0385166000818152600160205260409081902092909255907f0f6798a560793a54c3bcfe86a93cde1e73087d944c0ea20544137d41213968859085905190815260200160405180910390a283600160a060020a031660007fddf252ad1be2c89b69c2b068fc378daa952ba7f163c4a11628f55a4df523b3ef8560405190815260200160405180910390a35060019392505050565b61079e8282610c26565b5081600160a060020a03166040517f68616e646c654458435061796d656e7428616464726573732c75696e7432353681527f29000000000000000000000000000000000000000000000000000000000000006020820152602101604051809103902060e060020a9004338360405160e060020a63ffffffff8516028152600160a060020a03909216600483015260248201526044016000604051808303816000875af192505050151561085057600080fd5b5050565b600160a060020a033381166000908152600260209081526040808320938616835292905290812054808311156108b157600160a060020a0333811660009081526002602090815260408083209388168352929052908120556108e8565b6108c1818463ffffffff610e6616565b600160a060020a033381166000908152600260209081526040808320938916835292905220555b600160a060020a0333811660008181526002602090815260408083209489168084529490915290819020547f8c5be1e5ebec7d5bd14f71427d1e84f3dd0314c0f7b2291e5b200ac8c7c3b925915190815260200160405180910390a35060019392505050565b600160a060020a031660009081526001602052604090205490565b60035460009033600160a060020a0390811691161461098757600080fd5b6003805474ff00000000000000000000000000000000000000001916740100000000000000000000000000000000000000001790557fae5184fba832cb2b1f702aca6117b8d265eaf03ad33eb133f19dde0f5920fa0860405160405180910390a15060015b90565b60035460009033600160a060020a03908116911614610a0d57600080fd5b7fa6064a51a61252a13c041900cff62faa41b62e914a0c2fe58e7620be2a1fc8436004836040518080602001806020018381038352858181548152602001915080548015610a8457602002820191906000526020600020905b8154600160a060020a03168152600190910190602001808311610a66575b5050838103825284818151815260200191508051906020019060200280838360005b83811015610abe578082015183820152602001610aa6565b5050505090500194505050505060405180910390a15060005b600454811015610b3257600060056000600484815481101515610af657fe5b600091825260208083209190910154600160a060020a031683528201929092526040019020805460ff1916911515919091179055600101610ad7565b5060005b8151811015610b8b57600160056000848481518110610b5157fe5b90602001906020020151600160a060020a031681526020810191909152604001600020805460ff1916911515919091179055600101610b36565b6004828051610b9e929160200190610e8e565b505050565b6004805482908110610bb157fe5b600091825260209091200154600160a060020a0316905081565b600354600160a060020a031681565b60408051908101604052600381527f4458430000000000000000000000000000000000000000000000000000000000602082015281565b60056020526000908152604090205460ff1681565b6000600160a060020a0383161515610c3d57600080fd5b600160a060020a033316600090815260016020526040902054610c66908363ffffffff610e6616565b600160a060020a033381166000908152600160205260408082209390935590851681522054610c9b908363ffffffff610e7816565b600160a060020a0380851660008181526001602052604090819020939093559133909116907fddf252ad1be2c89b69c2b068fc378daa952ba7f163c4a11628f55a4df523b3ef9085905190815260200160405180910390a350600192915050565b600160a060020a033381166000908152600260209081526040808320938616835292905290812054610d34908363ffffffff610e7816565b600160a060020a0333811660008181526002602090815260408083209489168084529490915290819020849055919290917f8c5be1e5ebec7d5bd14f71427d1e84f3dd0314c0f7b2291e5b200ac8c7c3b92591905190815260200160405180910390a350600192915050565b600160a060020a03918216600090815260026020908152604080832093909416825291909152205490565b60035433600160a060020a03908116911614610de657600080fd5b600160a060020a0381161515610dfb57600080fd5b600354600160a060020a0380831691167f8be0079c531659141344cd1fd0a4f28419497f9722a3daafe3b4186f6b6457e060405160405180910390a36003805473ffffffffffffffffffffffffffffffffffffffff1916600160a060020a0392909216919091179055565b600082821115610e7257fe5b50900390565b600082820183811015610e8757fe5b9392505050565b828054828255906000526020600020908101928215610ef2579160200282015b82811115610ef2578251825473ffffffffffffffffffffffffffffffffffffffff1916600160a060020a039190911617825560209290920191600190910190610eae565b50610efe929150610f02565b5090565b6109ec91905b80821115610efe57805473ffffffffffffffffffffffffffffffffffffffff19168155600101610f085600a165627a7a72305820f7d0b9c39ce1c00db7e1196b605a57694957298dbef2e5d824d3551f0ac124510029",
  "source": "pragma solidity ^0.4.11;\n\nimport '../../node_modules/zeppelin-solidity/contracts/token/BasicToken.sol';\nimport '../../node_modules/zeppelin-solidity/contracts/token/MintableToken.sol';\nimport '../../node_modules/zeppelin-solidity/contracts/math/SafeMath.sol';\n\ncontract DXC is MintableToken {\n    address[] public additionalOwnersList; // List of addresses which are able to call `mint` function\n    mapping(address => bool) public additionalOwners;  // Mapping of addresses which are able to call `mint` function\n    uint public maximumSupply = 300000000 * 10**18; // Maximum supply of DXC tokens equals 300 millions\n\n    event TokenCreation(address _address);\n    event SetAdditionalOwners(address[] oldOwners, address[] newOwners);\n\n    string public constant name = \"Daox Coin\";\n    string public constant symbol = \"DXC\";\n    uint public constant decimals = 18;\n\n\n    function contributeTo(address _to, uint256 _amount) public {\n        super.transfer(_to, _amount);\n        require(_to.call(bytes4(keccak256(\"handleDXCPayment(address,uint256)\")), msg.sender, _amount));\n    }\n\n    /**\n     * @dev Overrides function to mint tokens from `MintableToken` contract with new modifier\n     * @param _to The address that will receive the minted tokens.\n     * @param _amount The amount of tokens to mint.\n     * @return A boolean that indicates if the operation was successful.\n    */\n    function mint(address _to, uint256 _amount) isOwnerOrAdditionalOwner canMint maximumSupplyWasNotReached(_amount) public returns (bool) {\n        totalSupply = totalSupply.add(_amount);\n        balances[_to] = balances[_to].add(_amount);\n        Mint(_to, _amount);\n        Transfer(0x0, _to, _amount);\n        return true;\n    }\n\n    /**\n     * @dev Define array and mapping of addresses that will be additional owners\n     * @param _owners The addresses that will be defined as additional owners\n    */\n    function setAdditionalOwners(address[] _owners) onlyOwner {\n        SetAdditionalOwners(additionalOwnersList, _owners);\n\n        for (uint i = 0; i < additionalOwnersList.length; i++) {\n            additionalOwners[additionalOwnersList[i]] = false;\n        }\n\n        for (i = 0; i < _owners.length; i++) {\n            additionalOwners[_owners[i]] = true;\n        }\n\n        additionalOwnersList = _owners;\n    }\n\n    /**\n     * @dev Throws an exception if called not by owner or additional owner\n     */\n    modifier isOwnerOrAdditionalOwner() {\n        require(msg.sender == owner || additionalOwners[msg.sender]);\n        _;\n    }\n\n    /**\n     * @dev Throws an exception if maximumSupply will be exceeded after minting\n     * @param _amount The amount of tokens to mint\n     */\n    modifier maximumSupplyWasNotReached(uint256 _amount) {\n        require(SafeMath.add(totalSupply, _amount) <= maximumSupply);\n        _;\n    }\n}\n",
  "sourcePath": "/Users/kirill/projects/daox-contracts/contracts/Token/DXC.sol",
  "compiler": {
    "name": "solc",
    "version": "0.4.21+commit.dfe3193c.Emscripten.clang"
  },
  "schemaVersion": "2.0.0",
  "updatedAt": "2018-05-02T12:13:10.657Z"
}