{
  "contractName": "DXC",
  "abi": [
    {
      "constant": true,
      "inputs": [],
      "name": "maximumSupply",
      "outputs": [
        {
          "name": "",
          "type": "uint256"
        }
      ],
      "payable": false,
      "stateMutability": "view",
      "type": "function"
    },
    {
      "constant": true,
      "inputs": [],
      "name": "mintingFinished",
      "outputs": [
        {
          "name": "",
          "type": "bool"
        }
      ],
      "payable": false,
      "stateMutability": "view",
      "type": "function"
    },
    {
      "constant": true,
      "inputs": [],
      "name": "name",
      "outputs": [
        {
          "name": "",
          "type": "string"
        }
      ],
      "payable": false,
      "stateMutability": "view",
      "type": "function"
    },
    {
      "constant": false,
      "inputs": [
        {
          "name": "_spender",
          "type": "address"
        },
        {
          "name": "_value",
          "type": "uint256"
        }
      ],
      "name": "approve",
      "outputs": [
        {
          "name": "",
          "type": "bool"
        }
      ],
      "payable": false,
      "stateMutability": "nonpayable",
      "type": "function"
    },
    {
      "constant": true,
      "inputs": [],
      "name": "totalSupply",
      "outputs": [
        {
          "name": "",
          "type": "uint256"
        }
      ],
      "payable": false,
      "stateMutability": "view",
      "type": "function"
    },
    {
      "constant": false,
      "inputs": [
        {
          "name": "_from",
          "type": "address"
        },
        {
          "name": "_to",
          "type": "address"
        },
        {
          "name": "_value",
          "type": "uint256"
        }
      ],
      "name": "transferFrom",
      "outputs": [
        {
          "name": "",
          "type": "bool"
        }
      ],
      "payable": false,
      "stateMutability": "nonpayable",
      "type": "function"
    },
    {
      "constant": true,
      "inputs": [],
      "name": "decimals",
      "outputs": [
        {
          "name": "",
          "type": "uint256"
        }
      ],
      "payable": false,
      "stateMutability": "view",
      "type": "function"
    },
    {
      "constant": false,
      "inputs": [
        {
          "name": "_spender",
          "type": "address"
        },
        {
          "name": "_subtractedValue",
          "type": "uint256"
        }
      ],
      "name": "decreaseApproval",
      "outputs": [
        {
          "name": "success",
          "type": "bool"
        }
      ],
      "payable": false,
      "stateMutability": "nonpayable",
      "type": "function"
    },
    {
      "constant": true,
      "inputs": [
        {
          "name": "_owner",
          "type": "address"
        }
      ],
      "name": "balanceOf",
      "outputs": [
        {
          "name": "balance",
          "type": "uint256"
        }
      ],
      "payable": false,
      "stateMutability": "view",
      "type": "function"
    },
    {
      "constant": false,
      "inputs": [],
      "name": "finishMinting",
      "outputs": [
        {
          "name": "",
          "type": "bool"
        }
      ],
      "payable": false,
      "stateMutability": "nonpayable",
      "type": "function"
    },
    {
      "constant": true,
      "inputs": [
        {
          "name": "",
          "type": "uint256"
        }
      ],
      "name": "additionalOwnersList",
      "outputs": [
        {
          "name": "",
          "type": "address"
        }
      ],
      "payable": false,
      "stateMutability": "view",
      "type": "function"
    },
    {
      "constant": true,
      "inputs": [],
      "name": "owner",
      "outputs": [
        {
          "name": "",
          "type": "address"
        }
      ],
      "payable": false,
      "stateMutability": "view",
      "type": "function"
    },
    {
      "constant": true,
      "inputs": [],
      "name": "symbol",
      "outputs": [
        {
          "name": "",
          "type": "string"
        }
      ],
      "payable": false,
      "stateMutability": "view",
      "type": "function"
    },
    {
      "constant": true,
      "inputs": [
        {
          "name": "",
          "type": "address"
        }
      ],
      "name": "additionalOwners",
      "outputs": [
        {
          "name": "",
          "type": "bool"
        }
      ],
      "payable": false,
      "stateMutability": "view",
      "type": "function"
    },
    {
      "constant": false,
      "inputs": [
        {
          "name": "_to",
          "type": "address"
        },
        {
          "name": "_value",
          "type": "uint256"
        }
      ],
      "name": "transfer",
      "outputs": [
        {
          "name": "",
          "type": "bool"
        }
      ],
      "payable": false,
      "stateMutability": "nonpayable",
      "type": "function"
    },
    {
      "constant": false,
      "inputs": [
        {
          "name": "_spender",
          "type": "address"
        },
        {
          "name": "_addedValue",
          "type": "uint256"
        }
      ],
      "name": "increaseApproval",
      "outputs": [
        {
          "name": "success",
          "type": "bool"
        }
      ],
      "payable": false,
      "stateMutability": "nonpayable",
      "type": "function"
    },
    {
      "constant": true,
      "inputs": [
        {
          "name": "_owner",
          "type": "address"
        },
        {
          "name": "_spender",
          "type": "address"
        }
      ],
      "name": "allowance",
      "outputs": [
        {
          "name": "remaining",
          "type": "uint256"
        }
      ],
      "payable": false,
      "stateMutability": "view",
      "type": "function"
    },
    {
      "constant": false,
      "inputs": [
        {
          "name": "newOwner",
          "type": "address"
        }
      ],
      "name": "transferOwnership",
      "outputs": [],
      "payable": false,
      "stateMutability": "nonpayable",
      "type": "function"
    },
    {
      "anonymous": false,
      "inputs": [
        {
          "indexed": false,
          "name": "_address",
          "type": "address"
        }
      ],
      "name": "TokenCreation",
      "type": "event"
    },
    {
      "anonymous": false,
      "inputs": [
        {
          "indexed": false,
          "name": "oldOwners",
          "type": "address[]"
        },
        {
          "indexed": false,
          "name": "newOwners",
          "type": "address[]"
        }
      ],
      "name": "SetAdditionalOwners",
      "type": "event"
    },
    {
      "anonymous": false,
      "inputs": [
        {
          "indexed": true,
          "name": "to",
          "type": "address"
        },
        {
          "indexed": false,
          "name": "amount",
          "type": "uint256"
        }
      ],
      "name": "Mint",
      "type": "event"
    },
    {
      "anonymous": false,
      "inputs": [],
      "name": "MintFinished",
      "type": "event"
    },
    {
      "anonymous": false,
      "inputs": [
        {
          "indexed": true,
          "name": "previousOwner",
          "type": "address"
        },
        {
          "indexed": true,
          "name": "newOwner",
          "type": "address"
        }
      ],
      "name": "OwnershipTransferred",
      "type": "event"
    },
    {
      "anonymous": false,
      "inputs": [
        {
          "indexed": true,
          "name": "owner",
          "type": "address"
        },
        {
          "indexed": true,
          "name": "spender",
          "type": "address"
        },
        {
          "indexed": false,
          "name": "value",
          "type": "uint256"
        }
      ],
      "name": "Approval",
      "type": "event"
    },
    {
      "anonymous": false,
      "inputs": [
        {
          "indexed": true,
          "name": "from",
          "type": "address"
        },
        {
          "indexed": true,
          "name": "to",
          "type": "address"
        },
        {
          "indexed": false,
          "name": "value",
          "type": "uint256"
        }
      ],
      "name": "Transfer",
      "type": "event"
    },
    {
      "constant": false,
      "inputs": [
        {
          "name": "_to",
          "type": "address"
        },
        {
          "name": "_amount",
          "type": "uint256"
        }
      ],
      "name": "contributeTo",
      "outputs": [],
      "payable": false,
      "stateMutability": "nonpayable",
      "type": "function"
    },
    {
      "constant": false,
      "inputs": [
        {
          "name": "_to",
          "type": "address"
        },
        {
          "name": "_amount",
          "type": "uint256"
        }
      ],
      "name": "mint",
      "outputs": [
        {
          "name": "",
          "type": "bool"
        }
      ],
      "payable": false,
      "stateMutability": "nonpayable",
      "type": "function"
    },
    {
      "constant": false,
      "inputs": [
        {
          "name": "_to",
          "type": "address[]"
        },
        {
          "name": "_amount",
          "type": "uint256[]"
        }
      ],
      "name": "transferTokens",
      "outputs": [
        {
          "name": "",
          "type": "bool"
        }
      ],
      "payable": false,
      "stateMutability": "nonpayable",
      "type": "function"
    },
    {
      "constant": false,
      "inputs": [
        {
          "name": "_owners",
          "type": "address[]"
        }
      ],
      "name": "setAdditionalOwners",
      "outputs": [],
      "payable": false,
      "stateMutability": "nonpayable",
      "type": "function"
    }
  ],
  "bytecode": "0x6080604052600380546af8277896582678ac000000600655600160a860020a031916331790556110a7806100346000396000f3006080604052600436106101275763ffffffff7c01000000000000000000000000000000000000000000000000000000006000350416630480e58b811461012c57806305d2035b1461015357806306fdde031461017c578063095ea7b31461020657806318160ddd1461022a57806323b872dd1461023f578063313ce5671461026957806340c10f191461027e578063543e10b4146102a257806365620283146102c8578063661884631461035657806370a082311461037a5780637d64bcb41461039b578063841016d0146103b05780638a627be8146104055780638da5cb5b1461043957806395d89b411461044e578063a055f70714610463578063a9059cbb14610484578063d73dd623146104a8578063dd62ed3e146104cc578063f2fde38b146104f3575b600080fd5b34801561013857600080fd5b50610141610514565b60408051918252519081900360200190f35b34801561015f57600080fd5b5061016861051a565b604080519115158252519081900360200190f35b34801561018857600080fd5b5061019161053b565b6040805160208082528351818301528351919283929083019185019080838360005b838110156101cb5781810151838201526020016101b3565b50505050905090810190601f1680156101f85780820380516001836020036101000a031916815260200191505b509250505060405180910390f35b34801561021257600080fd5b50610168600160a060020a0360043516602435610572565b34801561023657600080fd5b506101416105d8565b34801561024b57600080fd5b50610168600160a060020a03600435811690602435166044356105de565b34801561027557600080fd5b50610141610700565b34801561028a57600080fd5b50610168600160a060020a0360043516602435610705565b3480156102ae57600080fd5b506102c6600160a060020a0360043516602435610862565b005b3480156102d457600080fd5b506040805160206004803580820135838102808601850190965280855261016895369593946024949385019291829185019084908082843750506040805187358901803560208181028481018201909552818452989b9a9989019892975090820195509350839250850190849080828437509497506109379650505050505050565b34801561036257600080fd5b50610168600160a060020a03600435166024356109d5565b34801561038657600080fd5b50610141600160a060020a0360043516610ac5565b3480156103a757600080fd5b50610168610ae0565b3480156103bc57600080fd5b50604080516020600480358082013583810280860185019096528085526102c695369593946024949385019291829185019084908082843750949750610b5f9650505050505050565b34801561041157600080fd5b5061041d600435610d0d565b60408051600160a060020a039092168252519081900360200190f35b34801561044557600080fd5b5061041d610d35565b34801561045a57600080fd5b50610191610d44565b34801561046f57600080fd5b50610168600160a060020a0360043516610d7b565b34801561049057600080fd5b50610168600160a060020a0360043516602435610d90565b3480156104b457600080fd5b50610168600160a060020a0360043516602435610e57565b3480156104d857600080fd5b50610141600160a060020a0360043581169060243516610ef0565b3480156104ff57600080fd5b506102c6600160a060020a0360043516610f1b565b60065481565b60035474010000000000000000000000000000000000000000900460ff1681565b60408051808201909152600981527f44616f7820436f696e0000000000000000000000000000000000000000000000602082015281565b336000818152600260209081526040808320600160a060020a038716808552908352818420869055815186815291519394909390927f8c5be1e5ebec7d5bd14f71427d1e84f3dd0314c0f7b2291e5b200ac8c7c3b925928290030190a350600192915050565b60005481565b600080600160a060020a03841615156105f657600080fd5b50600160a060020a03841660008181526002602090815260408083203384528252808320549383526001909152902054610636908463ffffffff610fb016565b600160a060020a03808716600090815260016020526040808220939093559086168152205461066b908463ffffffff610fc216565b600160a060020a038516600090815260016020526040902055610694818463ffffffff610fb016565b600160a060020a03808716600081815260026020908152604080832033845282529182902094909455805187815290519288169391927fddf252ad1be2c89b69c2b068fc378daa952ba7f163c4a11628f55a4df523b3ef929181900390910190a3506001949350505050565b601281565b600354600090600160a060020a031633148061073057503360009081526005602052604090205460ff165b151561073b57600080fd5b60035474010000000000000000000000000000000000000000900460ff161561076357600080fd5b8160065461077c82600054610fc290919063ffffffff16565b111561078757600080fd5b60005461079a908463ffffffff610fc216565b6000908155600160a060020a0385168152600160205260409020546107c5908463ffffffff610fc216565b600160a060020a038516600081815260016020908152604091829020939093558051868152905191927f0f6798a560793a54c3bcfe86a93cde1e73087d944c0ea20544137d412139688592918290030190a2604080518481529051600160a060020a038616916000917fddf252ad1be2c89b69c2b068fc378daa952ba7f163c4a11628f55a4df523b3ef9181900360200190a35060019392505050565b61086c8282610d90565b50604080517f68616e646c654458435061796d656e7428616464726573732c75696e7432353681527f29000000000000000000000000000000000000000000000000000000000000006020820152815190819003602101812063ffffffff7c0100000000000000000000000000000000000000000000000000000000918290049081169091028252336004830152602482018490529151600160a060020a0385169291604480820192600092909190829003018183875af192505050151561093357600080fd5b5050565b6003546000908190600160a060020a031633148061096457503360009081526005602052604090205460ff165b151561096f57600080fd5b825184511461097d57600080fd5b5060005b83518110156109cb576109c2848281518110151561099b57fe5b9060200190602002015184838151811015156109b357fe5b90602001906020020151610d90565b50600101610981565b5060019392505050565b336000908152600260209081526040808320600160a060020a038616845290915281205480831115610a2a57336000908152600260209081526040808320600160a060020a0388168452909152812055610a5f565b610a3a818463ffffffff610fb016565b336000908152600260209081526040808320600160a060020a03891684529091529020555b336000818152600260209081526040808320600160a060020a0389168085529083529281902054815190815290519293927f8c5be1e5ebec7d5bd14f71427d1e84f3dd0314c0f7b2291e5b200ac8c7c3b925929181900390910190a35060019392505050565b600160a060020a031660009081526001602052604090205490565b600354600090600160a060020a03163314610afa57600080fd5b6003805474ff00000000000000000000000000000000000000001916740100000000000000000000000000000000000000001790556040517fae5184fba832cb2b1f702aca6117b8d265eaf03ad33eb133f19dde0f5920fa0890600090a15060015b90565b600354600090600160a060020a03163314610b7957600080fd5b7fa6064a51a61252a13c041900cff62faa41b62e914a0c2fe58e7620be2a1fc8436004836040518080602001806020018381038352858181548152602001915080548015610bf057602002820191906000526020600020905b8154600160a060020a03168152600190910190602001808311610bd2575b50508381038252845181528451602091820191808701910280838360005b83811015610c26578181015183820152602001610c0e565b5050505090500194505050505060405180910390a15060005b600454811015610c9a57600060056000600484815481101515610c5e57fe5b600091825260208083209190910154600160a060020a031683528201929092526040019020805460ff1916911515919091179055600101610c3f565b5060005b8151811015610cf5576001600560008484815181101515610cbb57fe5b602090810291909101810151600160a060020a03168252810191909152604001600020805460ff1916911515919091179055600101610c9e565b8151610d08906004906020850190610fd8565b505050565b6004805482908110610d1b57fe5b600091825260209091200154600160a060020a0316905081565b600354600160a060020a031681565b60408051808201909152600381527f4458430000000000000000000000000000000000000000000000000000000000602082015281565b60056020526000908152604090205460ff1681565b6000600160a060020a0383161515610da757600080fd5b33600090815260016020526040902054610dc7908363ffffffff610fb016565b3360009081526001602052604080822092909255600160a060020a03851681522054610df9908363ffffffff610fc216565b600160a060020a0384166000818152600160209081526040918290209390935580518581529051919233927fddf252ad1be2c89b69c2b068fc378daa952ba7f163c4a11628f55a4df523b3ef9281900390910190a350600192915050565b336000908152600260209081526040808320600160a060020a0386168452909152812054610e8b908363ffffffff610fc216565b336000818152600260209081526040808320600160a060020a0389168085529083529281902085905580519485525191937f8c5be1e5ebec7d5bd14f71427d1e84f3dd0314c0f7b2291e5b200ac8c7c3b925929081900390910190a350600192915050565b600160a060020a03918216600090815260026020908152604080832093909416825291909152205490565b600354600160a060020a03163314610f3257600080fd5b600160a060020a0381161515610f4757600080fd5b600354604051600160a060020a038084169216907f8be0079c531659141344cd1fd0a4f28419497f9722a3daafe3b4186f6b6457e090600090a36003805473ffffffffffffffffffffffffffffffffffffffff1916600160a060020a0392909216919091179055565b600082821115610fbc57fe5b50900390565b600082820183811015610fd157fe5b9392505050565b82805482825590600052602060002090810192821561103a579160200282015b8281111561103a578251825473ffffffffffffffffffffffffffffffffffffffff1916600160a060020a03909116178255602090920191600190910190610ff8565b5061104692915061104a565b5090565b610b5c91905b8082111561104657805473ffffffffffffffffffffffffffffffffffffffff191681556001016110505600a165627a7a72305820c0069cbf50e31e1be6f6b9dae7afca6e83e514770a519e1328e41df21d5ed16b0029",
  "source": "pragma solidity ^0.4.11;\n\nimport '../../node_modules/zeppelin-solidity/contracts/token/BasicToken.sol';\nimport '../../node_modules/zeppelin-solidity/contracts/token/MintableToken.sol';\n\ncontract DXC is MintableToken {\n    address[] public additionalOwnersList; // List of addresses which are able to call `mint` function\n    mapping(address => bool) public additionalOwners;  // Mapping of addresses which are able to call `mint` function\n    uint public maximumSupply = 300000000 * 10**18; // Maximum supply of DXC tokens equals 300 millions\n\n    event TokenCreation(address _address);\n    event SetAdditionalOwners(address[] oldOwners, address[] newOwners);\n\n    string public constant name = \"Daox Coin\";\n    string public constant symbol = \"DXC\";\n    uint public constant decimals = 18;\n\n    /**\n     * @dev Transfer specified amount of tokens to the specified address and call\n     * standard `handleDXCPayment` method of Crowdsale DAO\n     * @param _to The address of Crowdsale DAO\n     * @param _amount The amount of tokens to send\n    */\n    function contributeTo(address _to, uint256 _amount) public {\n        super.transfer(_to, _amount);\n        require(_to.call(bytes4(keccak256(\"handleDXCPayment(address,uint256)\")), msg.sender, _amount));\n    }\n\n    /**\n     * @dev Overrides function to mint tokens from `MintableToken` contract with new modifier\n     * @param _to The address that will receive the minted tokens.\n     * @param _amount The amount of tokens to mint.\n     * @return A boolean that indicates if the operation was successful.\n    */\n    function mint(address _to, uint256 _amount) isOwnerOrAdditionalOwner canMint maximumSupplyWasNotReached(_amount) public returns (bool) {\n        totalSupply = totalSupply.add(_amount);\n        balances[_to] = balances[_to].add(_amount);\n        Mint(_to, _amount);\n        Transfer(0x0, _to, _amount);\n        return true;\n    }\n\n    /**\n     * @dev Transfer specified amount of tokens to the specified list of addresses\n     * @param _to The array of addresses that will receive tokens\n     * @param _amount The array of uint values indicates how much tokens will receive corresponding address\n     * @return True if all transfers were completed successfully\n    */\n    function transferTokens(address[] _to, uint256[] _amount) isOwnerOrAdditionalOwner public returns (bool) {\n        require(_to.length == _amount.length);\n        for (uint i = 0; i < _to.length; i++) {\n            transfer(_to[i], _amount[i]);\n        }\n\n        return true;\n    }\n\n    /**\n     * @dev Define array and mapping of addresses that will be additional owners\n     * @param _owners The addresses that will be defined as additional owners\n    */\n    function setAdditionalOwners(address[] _owners) onlyOwner {\n        SetAdditionalOwners(additionalOwnersList, _owners);\n\n        for (uint i = 0; i < additionalOwnersList.length; i++) {\n            additionalOwners[additionalOwnersList[i]] = false;\n        }\n\n        for (i = 0; i < _owners.length; i++) {\n            additionalOwners[_owners[i]] = true;\n        }\n\n        additionalOwnersList = _owners;\n    }\n\n    /**\n     * @dev Throws an exception if called not by owner or additional owner\n     */\n    modifier isOwnerOrAdditionalOwner() {\n        require(msg.sender == owner || additionalOwners[msg.sender]);\n        _;\n    }\n\n    /**\n     * @dev Throws an exception if maximumSupply will be exceeded after minting\n     * @param _amount The amount of tokens to mint\n     */\n    modifier maximumSupplyWasNotReached(uint256 _amount) {\n        require(totalSupply.add(_amount) <= maximumSupply);\n        _;\n    }\n}\n",
  "sourcePath": "/Users/giddeonwyeth/PhpstormProjects/dao/daox-contracts/contracts/Token/DXC.sol",
  "compiler": {
    "name": "solc",
    "version": "0.4.24+commit.e67f0147.Emscripten.clang"
  },
  "schemaVersion": "2.0.1",
  "updatedAt": "2018-07-06T11:47:36.367Z"
}