{
  "contractName": "DXC",
  "abi": [
    {
      "constant": true,
      "inputs": [],
      "name": "mintingFinished",
      "outputs": [
        {
          "name": "",
          "type": "bool"
        }
      ],
      "payable": false,
      "stateMutability": "view",
      "type": "function"
    },
    {
      "constant": true,
      "inputs": [],
      "name": "name",
      "outputs": [
        {
          "name": "",
          "type": "string"
        }
      ],
      "payable": false,
      "stateMutability": "view",
      "type": "function"
    },
    {
      "constant": false,
      "inputs": [
        {
          "name": "_spender",
          "type": "address"
        },
        {
          "name": "_value",
          "type": "uint256"
        }
      ],
      "name": "approve",
      "outputs": [
        {
          "name": "",
          "type": "bool"
        }
      ],
      "payable": false,
      "stateMutability": "nonpayable",
      "type": "function"
    },
    {
      "constant": true,
      "inputs": [],
      "name": "totalSupply",
      "outputs": [
        {
          "name": "",
          "type": "uint256"
        }
      ],
      "payable": false,
      "stateMutability": "view",
      "type": "function"
    },
    {
      "constant": false,
      "inputs": [
        {
          "name": "_from",
          "type": "address"
        },
        {
          "name": "_to",
          "type": "address"
        },
        {
          "name": "_value",
          "type": "uint256"
        }
      ],
      "name": "transferFrom",
      "outputs": [
        {
          "name": "",
          "type": "bool"
        }
      ],
      "payable": false,
      "stateMutability": "nonpayable",
      "type": "function"
    },
    {
      "constant": true,
      "inputs": [],
      "name": "decimals",
      "outputs": [
        {
          "name": "",
          "type": "uint256"
        }
      ],
      "payable": false,
      "stateMutability": "view",
      "type": "function"
    },
    {
      "constant": false,
      "inputs": [
        {
          "name": "_to",
          "type": "address"
        },
        {
          "name": "_amount",
          "type": "uint256"
        }
      ],
      "name": "mint",
      "outputs": [
        {
          "name": "",
          "type": "bool"
        }
      ],
      "payable": false,
      "stateMutability": "nonpayable",
      "type": "function"
    },
    {
      "constant": false,
      "inputs": [
        {
          "name": "_spender",
          "type": "address"
        },
        {
          "name": "_subtractedValue",
          "type": "uint256"
        }
      ],
      "name": "decreaseApproval",
      "outputs": [
        {
          "name": "success",
          "type": "bool"
        }
      ],
      "payable": false,
      "stateMutability": "nonpayable",
      "type": "function"
    },
    {
      "constant": true,
      "inputs": [
        {
          "name": "_owner",
          "type": "address"
        }
      ],
      "name": "balanceOf",
      "outputs": [
        {
          "name": "balance",
          "type": "uint256"
        }
      ],
      "payable": false,
      "stateMutability": "view",
      "type": "function"
    },
    {
      "constant": false,
      "inputs": [],
      "name": "finishMinting",
      "outputs": [
        {
          "name": "",
          "type": "bool"
        }
      ],
      "payable": false,
      "stateMutability": "nonpayable",
      "type": "function"
    },
    {
      "constant": true,
      "inputs": [],
      "name": "owner",
      "outputs": [
        {
          "name": "",
          "type": "address"
        }
      ],
      "payable": false,
      "stateMutability": "view",
      "type": "function"
    },
    {
      "constant": true,
      "inputs": [],
      "name": "symbol",
      "outputs": [
        {
          "name": "",
          "type": "string"
        }
      ],
      "payable": false,
      "stateMutability": "view",
      "type": "function"
    },
    {
      "constant": false,
      "inputs": [
        {
          "name": "_to",
          "type": "address"
        },
        {
          "name": "_value",
          "type": "uint256"
        }
      ],
      "name": "transfer",
      "outputs": [
        {
          "name": "",
          "type": "bool"
        }
      ],
      "payable": false,
      "stateMutability": "nonpayable",
      "type": "function"
    },
    {
      "constant": false,
      "inputs": [
        {
          "name": "_spender",
          "type": "address"
        },
        {
          "name": "_addedValue",
          "type": "uint256"
        }
      ],
      "name": "increaseApproval",
      "outputs": [
        {
          "name": "success",
          "type": "bool"
        }
      ],
      "payable": false,
      "stateMutability": "nonpayable",
      "type": "function"
    },
    {
      "constant": true,
      "inputs": [
        {
          "name": "_owner",
          "type": "address"
        },
        {
          "name": "_spender",
          "type": "address"
        }
      ],
      "name": "allowance",
      "outputs": [
        {
          "name": "remaining",
          "type": "uint256"
        }
      ],
      "payable": false,
      "stateMutability": "view",
      "type": "function"
    },
    {
      "constant": false,
      "inputs": [
        {
          "name": "newOwner",
          "type": "address"
        }
      ],
      "name": "transferOwnership",
      "outputs": [],
      "payable": false,
      "stateMutability": "nonpayable",
      "type": "function"
    },
    {
      "anonymous": false,
      "inputs": [
        {
          "indexed": false,
          "name": "_address",
          "type": "address"
        }
      ],
      "name": "TokenCreation",
      "type": "event"
    },
    {
      "anonymous": false,
      "inputs": [
        {
          "indexed": true,
          "name": "to",
          "type": "address"
        },
        {
          "indexed": false,
          "name": "amount",
          "type": "uint256"
        }
      ],
      "name": "Mint",
      "type": "event"
    },
    {
      "anonymous": false,
      "inputs": [],
      "name": "MintFinished",
      "type": "event"
    },
    {
      "anonymous": false,
      "inputs": [
        {
          "indexed": true,
          "name": "previousOwner",
          "type": "address"
        },
        {
          "indexed": true,
          "name": "newOwner",
          "type": "address"
        }
      ],
      "name": "OwnershipTransferred",
      "type": "event"
    },
    {
      "anonymous": false,
      "inputs": [
        {
          "indexed": true,
          "name": "owner",
          "type": "address"
        },
        {
          "indexed": true,
          "name": "spender",
          "type": "address"
        },
        {
          "indexed": false,
          "name": "value",
          "type": "uint256"
        }
      ],
      "name": "Approval",
      "type": "event"
    },
    {
      "anonymous": false,
      "inputs": [
        {
          "indexed": true,
          "name": "from",
          "type": "address"
        },
        {
          "indexed": true,
          "name": "to",
          "type": "address"
        },
        {
          "indexed": false,
          "name": "value",
          "type": "uint256"
        }
      ],
      "name": "Transfer",
      "type": "event"
    },
    {
      "constant": false,
      "inputs": [
        {
          "name": "_to",
          "type": "address"
        },
        {
          "name": "_amount",
          "type": "uint256"
        }
      ],
      "name": "contributeTo",
      "outputs": [],
      "payable": false,
      "stateMutability": "nonpayable",
      "type": "function"
    }
  ],
  "bytecode": "0x606060405260038054600160a860020a03191633600160a060020a0316179055610bbe8061002e6000396000f3006060604052600436106100d75763ffffffff60e060020a60003504166305d2035b81146100dc57806306fdde0314610103578063095ea7b31461018d57806318160ddd146101af57806323b872dd146101d4578063313ce567146101fc57806340c10f191461020f578063543e10b414610231578063661884631461025557806370a08231146102775780637d64bcb4146102965780638da5cb5b146102a957806395d89b41146102d8578063a9059cbb146102eb578063d73dd6231461030d578063dd62ed3e1461032f578063f2fde38b14610354575b600080fd5b34156100e757600080fd5b6100ef610373565b604051901515815260200160405180910390f35b341561010e57600080fd5b610116610394565b60405160208082528190810183818151815260200191508051906020019080838360005b8381101561015257808201518382015260200161013a565b50505050905090810190601f16801561017f5780820380516001836020036101000a031916815260200191505b509250505060405180910390f35b341561019857600080fd5b6100ef600160a060020a03600435166024356103cb565b34156101ba57600080fd5b6101c2610437565b60405190815260200160405180910390f35b34156101df57600080fd5b6100ef600160a060020a036004358116906024351660443561043d565b341561020757600080fd5b6101c2610567565b341561021a57600080fd5b6100ef600160a060020a036004351660243561056c565b341561023c57600080fd5b610253600160a060020a036004351660243561068a565b005b341561026057600080fd5b6100ef600160a060020a036004351660243561074a565b341561028257600080fd5b6101c2600160a060020a0360043516610844565b34156102a157600080fd5b6100ef61085f565b34156102b457600080fd5b6102bc6108e4565b604051600160a060020a03909116815260200160405180910390f35b34156102e357600080fd5b6101166108f3565b34156102f657600080fd5b6100ef600160a060020a036004351660243561092a565b341561031857600080fd5b6100ef600160a060020a0360043516602435610a00565b341561033a57600080fd5b6101c2600160a060020a0360043581169060243516610aa4565b341561035f57600080fd5b610253600160a060020a0360043516610acf565b60035474010000000000000000000000000000000000000000900460ff1681565b60408051908101604052600981527f44414f5820436f696e0000000000000000000000000000000000000000000000602082015281565b600160a060020a03338116600081815260026020908152604080832094871680845294909152808220859055909291907f8c5be1e5ebec7d5bd14f71427d1e84f3dd0314c0f7b2291e5b200ac8c7c3b9259085905190815260200160405180910390a350600192915050565b60005481565b600080600160a060020a038416151561045557600080fd5b50600160a060020a0380851660008181526002602090815260408083203390951683529381528382205492825260019052919091205461049b908463ffffffff610b6a16565b600160a060020a0380871660009081526001602052604080822093909355908616815220546104d0908463ffffffff610b7c16565b600160a060020a0385166000908152600160205260409020556104f9818463ffffffff610b6a16565b600160a060020a03808716600081815260026020908152604080832033861684529091529081902093909355908616917fddf252ad1be2c89b69c2b068fc378daa952ba7f163c4a11628f55a4df523b3ef9086905190815260200160405180910390a3506001949350505050565b601281565b60035460009033600160a060020a0390811691161461058a57600080fd5b60035474010000000000000000000000000000000000000000900460ff16156105b257600080fd5b6000546105c5908363ffffffff610b7c16565b6000908155600160a060020a0384168152600160205260409020546105f0908363ffffffff610b7c16565b600160a060020a0384166000818152600160205260409081902092909255907f0f6798a560793a54c3bcfe86a93cde1e73087d944c0ea20544137d41213968859084905190815260200160405180910390a282600160a060020a031660007fddf252ad1be2c89b69c2b068fc378daa952ba7f163c4a11628f55a4df523b3ef8460405190815260200160405180910390a350600192915050565b610694828261092a565b5081600160a060020a03166040517f68616e646c654458435061796d656e7428616464726573732c75696e7432353681527f29000000000000000000000000000000000000000000000000000000000000006020820152602101604051809103902060e060020a9004338360405160e060020a63ffffffff8516028152600160a060020a03909216600483015260248201526044016000604051808303816000875af192505050151561074657600080fd5b5050565b600160a060020a033381166000908152600260209081526040808320938616835292905290812054808311156107a757600160a060020a0333811660009081526002602090815260408083209388168352929052908120556107de565b6107b7818463ffffffff610b6a16565b600160a060020a033381166000908152600260209081526040808320938916835292905220555b600160a060020a0333811660008181526002602090815260408083209489168084529490915290819020547f8c5be1e5ebec7d5bd14f71427d1e84f3dd0314c0f7b2291e5b200ac8c7c3b925915190815260200160405180910390a35060019392505050565b600160a060020a031660009081526001602052604090205490565b60035460009033600160a060020a0390811691161461087d57600080fd5b6003805474ff00000000000000000000000000000000000000001916740100000000000000000000000000000000000000001790557fae5184fba832cb2b1f702aca6117b8d265eaf03ad33eb133f19dde0f5920fa0860405160405180910390a150600190565b600354600160a060020a031681565b60408051908101604052600381527f4458430000000000000000000000000000000000000000000000000000000000602082015281565b6000600160a060020a038316151561094157600080fd5b600160a060020a03331660009081526001602052604090205461096a908363ffffffff610b6a16565b600160a060020a03338116600090815260016020526040808220939093559085168152205461099f908363ffffffff610b7c16565b600160a060020a0380851660008181526001602052604090819020939093559133909116907fddf252ad1be2c89b69c2b068fc378daa952ba7f163c4a11628f55a4df523b3ef9085905190815260200160405180910390a350600192915050565b600160a060020a033381166000908152600260209081526040808320938616835292905290812054610a38908363ffffffff610b7c16565b600160a060020a0333811660008181526002602090815260408083209489168084529490915290819020849055919290917f8c5be1e5ebec7d5bd14f71427d1e84f3dd0314c0f7b2291e5b200ac8c7c3b92591905190815260200160405180910390a350600192915050565b600160a060020a03918216600090815260026020908152604080832093909416825291909152205490565b60035433600160a060020a03908116911614610aea57600080fd5b600160a060020a0381161515610aff57600080fd5b600354600160a060020a0380831691167f8be0079c531659141344cd1fd0a4f28419497f9722a3daafe3b4186f6b6457e060405160405180910390a36003805473ffffffffffffffffffffffffffffffffffffffff1916600160a060020a0392909216919091179055565b600082821115610b7657fe5b50900390565b600082820183811015610b8b57fe5b93925050505600a165627a7a72305820fae849253b5edf48a242e2e920b36c92753c54fca093d810d83bbf7756aa96c50029",
  "source": "pragma solidity ^0.4.11;\n\nimport '../../node_modules/zeppelin-solidity/contracts/token/BasicToken.sol';\nimport '../../node_modules/zeppelin-solidity/contracts/token/MintableToken.sol';\n\ncontract DXC is MintableToken {\n    event TokenCreation(address _address);\n\n    string public constant name = \"DAOX Coin\";\n    string public constant symbol = \"DXC\";\n    uint public constant decimals = 18;\n\n    function contributeTo(address _to, uint256 _amount) public {\n        super.transfer(_to, _amount);\n        require(_to.call(bytes4(keccak256(\"handleDXCPayment(address,uint256)\")), msg.sender, _amount));\n    }\n}\n",
  "sourcePath": "/Users/kirill/projects/daox-contracts/contracts/Token/DXC.sol",
  "compiler": {
    "name": "solc",
    "version": "0.4.21+commit.dfe3193c.Emscripten.clang"
  },
  "schemaVersion": "2.0.0",
  "updatedAt": "2018-04-11T18:14:29.134Z"
}