{
  "contractName": "ExampleService",
  "abi": [
    {
      "constant": false,
      "inputs": [
        {
          "name": "_amount",
          "type": "uint256"
        }
      ],
      "name": "withdrawDXC",
      "outputs": [],
      "payable": false,
      "stateMutability": "nonpayable",
      "type": "function"
    },
    {
      "constant": true,
      "inputs": [],
      "name": "priceToCall",
      "outputs": [
        {
          "name": "",
          "type": "uint256"
        }
      ],
      "payable": false,
      "stateMutability": "view",
      "type": "function"
    },
    {
      "constant": true,
      "inputs": [
        {
          "name": "",
          "type": "address"
        }
      ],
      "name": "callDeposit",
      "outputs": [
        {
          "name": "",
          "type": "uint256"
        }
      ],
      "payable": false,
      "stateMutability": "view",
      "type": "function"
    },
    {
      "constant": true,
      "inputs": [],
      "name": "owner",
      "outputs": [
        {
          "name": "",
          "type": "address"
        }
      ],
      "payable": false,
      "stateMutability": "view",
      "type": "function"
    },
    {
      "constant": true,
      "inputs": [],
      "name": "DXC",
      "outputs": [
        {
          "name": "",
          "type": "address"
        }
      ],
      "payable": false,
      "stateMutability": "view",
      "type": "function"
    },
    {
      "constant": true,
      "inputs": [],
      "name": "priceToConnect",
      "outputs": [
        {
          "name": "",
          "type": "uint256"
        }
      ],
      "payable": false,
      "stateMutability": "view",
      "type": "function"
    },
    {
      "constant": false,
      "inputs": [
        {
          "name": "_from",
          "type": "address"
        },
        {
          "name": "_amount",
          "type": "uint256"
        }
      ],
      "name": "handleDXCPayment",
      "outputs": [],
      "payable": false,
      "stateMutability": "nonpayable",
      "type": "function"
    },
    {
      "constant": true,
      "inputs": [
        {
          "name": "",
          "type": "bytes32"
        }
      ],
      "name": "calledWithVoting",
      "outputs": [
        {
          "name": "",
          "type": "bool"
        }
      ],
      "payable": false,
      "stateMutability": "view",
      "type": "function"
    },
    {
      "constant": true,
      "inputs": [
        {
          "name": "",
          "type": "address"
        }
      ],
      "name": "daos",
      "outputs": [
        {
          "name": "",
          "type": "bool"
        }
      ],
      "payable": false,
      "stateMutability": "view",
      "type": "function"
    },
    {
      "constant": true,
      "inputs": [],
      "name": "proxyAPI",
      "outputs": [
        {
          "name": "",
          "type": "address"
        }
      ],
      "payable": false,
      "stateMutability": "view",
      "type": "function"
    },
    {
      "inputs": [
        {
          "name": "_priceToConnect",
          "type": "uint256"
        },
        {
          "name": "_priceToCall",
          "type": "uint256"
        },
        {
          "name": "_DXC",
          "type": "address"
        },
        {
          "name": "_proxyAPI",
          "type": "address"
        }
      ],
      "payable": false,
      "stateMutability": "nonpayable",
      "type": "constructor"
    },
    {
      "constant": false,
      "inputs": [
        {
          "name": "args",
          "type": "bytes32[10]"
        }
      ],
      "name": "changeVotingPrice",
      "outputs": [],
      "payable": false,
      "stateMutability": "nonpayable",
      "type": "function"
    },
    {
      "constant": false,
      "inputs": [
        {
          "name": "args",
          "type": "bytes32[10]"
        }
      ],
      "name": "changeName",
      "outputs": [],
      "payable": false,
      "stateMutability": "nonpayable",
      "type": "function"
    }
  ],
  "bytecode": "0x608060405234801561001057600080fd5b50604051608080610f9583398101604090815281516020808401519284015160609094015160018054600160a060020a03199081163317825560039490945560049490945560008054600160a060020a039687169085161781556002805496909216959093169490941790935560079092527f3e671d84828cfbdd77c6e44a736b140c63517eda3a6106f3f629f6b51ff2debe805460ff1990811683179091557f6368616e6765566f74696e6750726963650000000000000000000000000000009092527fa8076b500caf9702a3bb9a6aae0a855b07a8f634bb66835890425f1135e7c84f8054909216179055610e898061010c6000396000f3006080604052600436106100b95763ffffffff7c010000000000000000000000000000000000000000000000000000000060003504166337b1b41e81146100be57806344b19818146100d8578063561209bb146100ff5780635d3f13b9146101445780638da5cb5b146101655780639083682214610196578063921cac7e146101ab578063939eaf9f146101c0578063a44bacb2146101e4578063c25f3cf614610210578063d0131a4314610231578063e2a7937b14610276575b600080fd5b3480156100ca57600080fd5b506100d660043561028b565b005b3480156100e457600080fd5b506100ed6103b0565b60408051918252519081900360200190f35b34801561010b57600080fd5b50604080516101408181019092526100d691369160049161014491908390600a908390839080828437509396506103b695505050505050565b34801561015057600080fd5b506100ed600160a060020a03600435166106cd565b34801561017157600080fd5b5061017a6106df565b60408051600160a060020a039092168252519081900360200190f35b3480156101a257600080fd5b5061017a6106ee565b3480156101b757600080fd5b506100ed6106fd565b3480156101cc57600080fd5b506100d6600160a060020a0360043516602435610703565b3480156101f057600080fd5b506101fc6004356108ac565b604080519115158252519081900360200190f35b34801561021c57600080fd5b506101fc600160a060020a03600435166108c1565b34801561023d57600080fd5b50604080516101408181019092526100d691369160049161014491908390600a908390839080828437509396506108d695505050505050565b34801561028257600080fd5b5061017a610e4e565b600154600160a060020a03163314610313576040805160e560020a62461bcd02815260206004820152602260248201527f4d6574686f642063616e2062652063616c6c6564206f6e6c79206279206f776e60448201527f6572000000000000000000000000000000000000000000000000000000000000606482015290519081900360840190fd5b60008054604080517fa9059cbb000000000000000000000000000000000000000000000000000000008152336004820152602481018590529051600160a060020a039092169263a9059cbb926044808401936020939083900390910190829087803b15801561038157600080fd5b505af1158015610395573d6000803e3d6000fd5b505050506040513d60208110156103ab57600080fd5b505050565b60045481565b600254600160a060020a0316331461043e576040805160e560020a62461bcd02815260206004820152603460248201527f4d6574686f642063616e2062652063616c6c206f6e6c792066726f6d2044616f60448201527f78204150492070726f787920636f6e7472616374000000000000000000000000606482015290519081900360840190fd5b6040805160e060020a63b31916ab0281523060048201529051600091339163b31916ab9160248082019260209290919082900301818787803b15801561048357600080fd5b505af1158015610497573d6000803e3d6000fd5b505050506040513d60208110156104ad57600080fd5b5051600160a060020a03811660009081526005602052604090205490915060ff161515610524576040805160e560020a62461bcd02815260206004820152601860248201527f53657276696365206973206e6f7420636f6e6e65637465640000000000000000604482015290519081900360640190fd5b6040805160e060020a63b31916ab0281523060048201529051600091339163b31916ab9160248082019260209290919082900301818787803b15801561056957600080fd5b505af115801561057d573d6000803e3d6000fd5b505050506040513d602081101561059357600080fd5b5051600454600160a060020a0382166000908152600660205260409020549192501115610630576040805160e560020a62461bcd02815260206004820152602960248201527f4e6f7420656e6f7567682066756e6473206465706f736974656420746f206d6160448201527f6b6520612063616c6c0000000000000000000000000000000000000000000000606482015290519081900360840190fd5b8251604080517f80a8cb0a0000000000000000000000000000000000000000000000000000000081527f7365744e616d6500000000000000000000000000000000000000000000000000600482015260248101929092525133916380a8cb0a91604480830192600092919082900301818387803b1580156106b057600080fd5b505af11580156106c4573d6000803e3d6000fd5b50505050505050565b60066020526000908152604090205481565b600154600160a060020a031681565b600054600160a060020a031681565b60035481565b600160a060020a038216600090815260056020526040812054829160ff909116908161073157600354610735565b6004545b90508281146107b4576040805160e560020a62461bcd02815260206004820152602760248201527f496e636f7272656374206e756d626572206f662044584320776173207472616e60448201527f7366657272656400000000000000000000000000000000000000000000000000606482015290519081900360840190fd5b600054600160a060020a0316331461083c576040805160e560020a62461bcd02815260206004820152602960248201527f4d6574686f642063616e2062652063616c6c6564206f6e6c792062792044584360448201527f20636f6e74726163740000000000000000000000000000000000000000000000606482015290519081900360840190fd5b600160a060020a03851660009081526005602052604090205460ff16151561088657600160a060020a0385166000908152600560205260409020805460ff191660011790556108a5565b600160a060020a03851660009081526006602052604090208054850190555b5050505050565b60076020526000908152604090205460ff1681565b60056020526000908152604090205460ff1681565b60025460009081908190600160a060020a03163314610965576040805160e560020a62461bcd02815260206004820152603460248201527f4d6574686f642063616e2062652063616c6c206f6e6c792066726f6d2044616f60448201527f78204150492070726f787920636f6e7472616374000000000000000000000000606482015290519081900360840190fd5b6040805160e060020a63b31916ab0281523060048201529051600091339163b31916ab9160248082019260209290919082900301818787803b1580156109aa57600080fd5b505af11580156109be573d6000803e3d6000fd5b505050506040513d60208110156109d457600080fd5b5051600160a060020a03811660009081526005602052604090205490915060ff161515610a4b576040805160e560020a62461bcd02815260206004820152601860248201527f53657276696365206973206e6f7420636f6e6e65637465640000000000000000604482015290519081900360640190fd5b6040805160e060020a63b31916ab0281523060048201529051600091339163b31916ab9160248082019260209290919082900301818787803b158015610a9057600080fd5b505af1158015610aa4573d6000803e3d6000fd5b505050506040513d6020811015610aba57600080fd5b5051600454600160a060020a0382166000908152600660205260409020549192501115610b57576040805160e560020a62461bcd02815260206004820152602960248201527f4e6f7420656e6f7567682066756e6473206465706f736974656420746f206d6160448201527f6b6520612063616c6c0000000000000000000000000000000000000000000000606482015290519081900360840190fd5b6040805160e060020a63b31916ab0281523060048201529051339163b31916ab9160248083019260209291908290030181600087803b158015610b9957600080fd5b505af1158015610bad573d6000803e3d6000fd5b505050506040513d6020811015610bc357600080fd5b505160048054600160a060020a038316600090815260066020908152604091829020805493909303909255895181517fe60b1424000000000000000000000000000000000000000000000000000000008152938401525192975073__TypesConverter________________________9263e60b1424926024808201939291829003018186803b158015610c5557600080fd5b505af4158015610c69573d6000803e3d6000fd5b505050506040513d6020811015610c7f57600080fd5b5051604080517f2948b4e900000000000000000000000000000000000000000000000000000000815290519195508591600160a060020a03881691632948b4e99160048083019260209291908290030181600087803b158015610ce157600080fd5b505af1158015610cf5573d6000803e3d6000fd5b505050506040513d6020811015610d0b57600080fd5b5051604080517f886d3db90000000000000000000000000000000000000000000000000000000081529290910260048301819052905190945033916380a8cb0a9173__TypesConverter________________________9163886d3db9916024808301926020929190829003018186803b158015610d8757600080fd5b505af4158015610d9b573d6000803e3d6000fd5b505050506040513d6020811015610db157600080fd5b5051604080517c010000000000000000000000000000000000000000000000000000000063ffffffff85160281527f736574566f74696e6750726963650000000000000000000000000000000000006004820152602481019290925251604480830192600092919082900301818387803b158015610e2e57600080fd5b505af1158015610e42573d6000803e3d6000fd5b50505050505050505050565b600254600160a060020a0316815600a165627a7a72305820a2699400a4cda329edc5693ce297f22c5e481e13abffd38cba3260f5a9cf24480029",
  "source": "pragma solidity 0.4.24;\n\nimport \"./TypesConverter.sol\";\nimport \"./BaseService.sol\";\nimport \"./IProxyAPI.sol\";\nimport \"./IDAO.sol\";\n\ncontract ExampleService is BaseService {\n    constructor(uint _priceToConnect, uint _priceToCall, address _DXC, address _proxyAPI) BaseService(_priceToConnect, _priceToCall, _DXC, _proxyAPI) {\n        calledWithVoting[\"changeVotingPrice\"] = true;\n    }\n\n    function changeVotingPrice(bytes32[10] args) onlyProxyAPI onlyConnected canCall {\n        address dao = IProxyAPI(msg.sender).availableCalls(this);\n        callDeposit[dao] -= priceToCall;\n        uint multiplier = TypesConverter.bytes32ToUint(args[0]);\n        uint newVotingPrice = IDAO(dao).votingPrice() * multiplier;\n        IProxyAPI(msg.sender).callDAOSetter(\"setVotingPrice\", TypesConverter.uintToBytes32(newVotingPrice));\n    }\n\n    function changeName(bytes32[10] args) onlyProxyAPI onlyConnected canCall {\n        IProxyAPI(msg.sender).callDAOSetter(\"setName\", args[0]);\n    }\n}\n",
  "sourcePath": "/Users/giddeonwyeth/PhpstormProjects/dao/daox-contracts/contracts/DAO/API/ExampleService.sol",
  "compiler": {
    "name": "solc",
    "version": "0.4.24+commit.e67f0147.Emscripten.clang"
  },
  "schemaVersion": "2.0.1",
  "updatedAt": "2018-07-18T15:32:46.151Z"
}