{
  "contractName": "ExampleService",
  "abi": [
    {
      "constant": false,
      "inputs": [
        {
          "name": "_amount",
          "type": "uint256"
        }
      ],
      "name": "withdrawDXC",
      "outputs": [],
      "payable": false,
      "stateMutability": "nonpayable",
      "type": "function"
    },
    {
      "constant": true,
      "inputs": [],
      "name": "owner",
      "outputs": [
        {
          "name": "",
          "type": "address"
        }
      ],
      "payable": false,
      "stateMutability": "view",
      "type": "function"
    },
    {
      "constant": true,
      "inputs": [],
      "name": "DXC",
      "outputs": [
        {
          "name": "",
          "type": "address"
        }
      ],
      "payable": false,
      "stateMutability": "view",
      "type": "function"
    },
    {
      "constant": false,
      "inputs": [
        {
          "name": "_from",
          "type": "address"
        },
        {
          "name": "_amount",
          "type": "uint256"
        }
      ],
      "name": "handleDXCPayment",
      "outputs": [],
      "payable": false,
      "stateMutability": "nonpayable",
      "type": "function"
    },
    {
      "constant": true,
      "inputs": [],
      "name": "price",
      "outputs": [
        {
          "name": "",
          "type": "uint256"
        }
      ],
      "payable": false,
      "stateMutability": "view",
      "type": "function"
    },
    {
      "constant": true,
      "inputs": [
        {
          "name": "",
          "type": "address"
        }
      ],
      "name": "daos",
      "outputs": [
        {
          "name": "",
          "type": "bool"
        }
      ],
      "payable": false,
      "stateMutability": "view",
      "type": "function"
    },
    {
      "constant": true,
      "inputs": [],
      "name": "proxyAPI",
      "outputs": [
        {
          "name": "",
          "type": "address"
        }
      ],
      "payable": false,
      "stateMutability": "view",
      "type": "function"
    },
    {
      "inputs": [
        {
          "name": "_price",
          "type": "uint256"
        },
        {
          "name": "_DXC",
          "type": "address"
        },
        {
          "name": "_proxyAPI",
          "type": "address"
        }
      ],
      "payable": false,
      "stateMutability": "nonpayable",
      "type": "constructor"
    },
    {
      "constant": false,
      "inputs": [
        {
          "name": "args",
          "type": "bytes32[10]"
        }
      ],
      "name": "changeVotingPrice",
      "outputs": [],
      "payable": false,
      "stateMutability": "nonpayable",
      "type": "function"
    }
  ],
  "bytecode": "0x608060405234801561001057600080fd5b5060405160608061084483398101604090815281516020830151919092015160018054600160a060020a0319908116331790915560039390935560008054600160a060020a039384169085161790556002805492909116919092161790556107c78061007d6000396000f30060806040526004361061008d5763ffffffff7c010000000000000000000000000000000000000000000000000000000060003504166337b1b41e81146100925780638da5cb5b146100ac57806390836822146100dd578063939eaf9f146100f2578063a035b1fe14610116578063c25f3cf61461013d578063d0131a4314610172578063e2a7937b146101b7575b600080fd5b34801561009e57600080fd5b506100aa6004356101cc565b005b3480156100b857600080fd5b506100c1610308565b60408051600160a060020a039092168252519081900360200190f35b3480156100e957600080fd5b506100c1610317565b3480156100fe57600080fd5b506100aa600160a060020a0360043516602435610326565b34801561012257600080fd5b5061012b6103e4565b60408051918252519081900360200190f35b34801561014957600080fd5b5061015e600160a060020a03600435166103ea565b604080519115158252519081900360200190f35b34801561017e57600080fd5b50604080516101408181019092526100aa91369160049161014491908390600a908390839080828437509396506103ff95505050505050565b3480156101c357600080fd5b506100c161078c565b600154600160a060020a0316331461026b57604080517f08c379a000000000000000000000000000000000000000000000000000000000815260206004820152602260248201527f4d6574686f642063616e2062652063616c6c6564206f6e6c79206279206f776e60448201527f6572000000000000000000000000000000000000000000000000000000000000606482015290519081900360840190fd5b60008054604080517fa9059cbb000000000000000000000000000000000000000000000000000000008152336004820152602481018590529051600160a060020a039092169263a9059cbb926044808401936020939083900390910190829087803b1580156102d957600080fd5b505af11580156102ed573d6000803e3d6000fd5b505050506040513d602081101561030357600080fd5b505050565b600154600160a060020a031681565b600054600160a060020a031681565b600354819081146103be57604080517f08c379a000000000000000000000000000000000000000000000000000000000815260206004820152602760248201527f496e636f7272656374206e756d626572206f662044584320776173207472616e60448201527f7366657272656400000000000000000000000000000000000000000000000000606482015290519081900360840190fd5b5050600160a060020a03166000908152600460205260409020805460ff19166001179055565b60035481565b60046020526000908152604090205460ff1681565b6002546000908190600160a060020a031633146104a357604080517f08c379a000000000000000000000000000000000000000000000000000000000815260206004820152603460248201527f4d6574686f642063616e2062652063616c6c206f6e6c792066726f6d2044616f60448201527f78204150492070726f787920636f6e7472616374000000000000000000000000606482015290519081900360840190fd5b8251604080517fe60b142400000000000000000000000000000000000000000000000000000000815260048101929092525173__TypesConverter________________________9163e60b1424916024808301926020929190829003018186803b15801561051057600080fd5b505af4158015610524573d6000803e3d6000fd5b505050506040513d602081101561053a57600080fd5b5051604080517fb31916ab00000000000000000000000000000000000000000000000000000000815230600482015290519193508391339163b31916ab9160248083019260209291908290030181600087803b15801561059957600080fd5b505af11580156105ad573d6000803e3d6000fd5b505050506040513d60208110156105c357600080fd5b5051604080517f2948b4e90000000000000000000000000000000000000000000000000000000081529051600160a060020a0390921691632948b4e9916004808201926020929091908290030181600087803b15801561062257600080fd5b505af1158015610636573d6000803e3d6000fd5b505050506040513d602081101561064c57600080fd5b5051604080517f886d3db90000000000000000000000000000000000000000000000000000000081529290910260048301819052905190925033916380a8cb0a9173__TypesConverter________________________9163886d3db9916024808301926020929190829003018186803b1580156106c857600080fd5b505af41580156106dc573d6000803e3d6000fd5b505050506040513d60208110156106f257600080fd5b5051604080517c010000000000000000000000000000000000000000000000000000000063ffffffff85160281527f736574566f74696e6750726963650000000000000000000000000000000000006004820152602481019290925251604480830192600092919082900301818387803b15801561076f57600080fd5b505af1158015610783573d6000803e3d6000fd5b50505050505050565b600254600160a060020a0316815600a165627a7a72305820cf9a4359b2d0c903c0e8514af03c19bc3c27e37e5ef96418145d035a11f18f6b0029",
  "source": "pragma solidity 0.4.24;\n\nimport \"./TypesConverter.sol\";\nimport \"./BaseService.sol\";\n\ninterface IProxyAPI {\n    function availableCalls(address _this) constant returns(address);\n    function callDAOSetter(bytes32 method, bytes32 value) external;\n}\n\ninterface IDAO {\n    function votingPrice() view returns (uint);\n}\n\ncontract ExampleService is BaseService {\n    constructor(uint _price, address _DXC, address _proxyAPI) BaseService(_price, _DXC, _proxyAPI) {}\n\n    function changeVotingPrice(bytes32[10] args) onlyProxyAPI {\n        uint multiplier = TypesConverter.bytes32ToUint(args[0]);\n        uint newVotingPrice = IDAO(IProxyAPI(msg.sender).availableCalls(this)).votingPrice() * multiplier;\n        IProxyAPI(msg.sender).callDAOSetter(\"setVotingPrice\", TypesConverter.uintToBytes32(newVotingPrice));\n    }\n\n    modifier onlyProxyAPI() {\n        require(msg.sender == proxyAPI, \"Method can be call only from Daox API proxy contract\");\n        _;\n    }\n}\n",
  "sourcePath": "/Users/giddeonwyeth/PhpstormProjects/dao/daox-contracts/contracts/DAO/API/ExampleService.sol",
  "compiler": {
    "name": "solc",
    "version": "0.4.24+commit.e67f0147.Emscripten.clang"
  },
  "schemaVersion": "2.0.1",
  "updatedAt": "2018-07-10T13:42:04.552Z"
}