{
  "contractName": "ExampleService",
  "abi": [
    {
      "constant": false,
      "inputs": [
        {
          "name": "_amount",
          "type": "uint256"
        }
      ],
      "name": "withdrawDXC",
      "outputs": [],
      "payable": false,
      "stateMutability": "nonpayable",
      "type": "function"
    },
    {
      "constant": true,
      "inputs": [],
      "name": "priceToCall",
      "outputs": [
        {
          "name": "",
          "type": "uint256"
        }
      ],
      "payable": false,
      "stateMutability": "view",
      "type": "function"
    },
    {
      "constant": true,
      "inputs": [
        {
          "name": "",
          "type": "address"
        }
      ],
      "name": "callDeposit",
      "outputs": [
        {
          "name": "",
          "type": "uint256"
        }
      ],
      "payable": false,
      "stateMutability": "view",
      "type": "function"
    },
    {
      "constant": true,
      "inputs": [],
      "name": "owner",
      "outputs": [
        {
          "name": "",
          "type": "address"
        }
      ],
      "payable": false,
      "stateMutability": "view",
      "type": "function"
    },
    {
      "constant": true,
      "inputs": [],
      "name": "DXC",
      "outputs": [
        {
          "name": "",
          "type": "address"
        }
      ],
      "payable": false,
      "stateMutability": "view",
      "type": "function"
    },
    {
      "constant": true,
      "inputs": [],
      "name": "priceToConnect",
      "outputs": [
        {
          "name": "",
          "type": "uint256"
        }
      ],
      "payable": false,
      "stateMutability": "view",
      "type": "function"
    },
    {
      "constant": false,
      "inputs": [
        {
          "name": "_from",
          "type": "address"
        },
        {
          "name": "_amount",
          "type": "uint256"
        }
      ],
      "name": "handleDXCPayment",
      "outputs": [],
      "payable": false,
      "stateMutability": "nonpayable",
      "type": "function"
    },
    {
      "constant": true,
      "inputs": [
        {
          "name": "",
          "type": "address"
        }
      ],
      "name": "daos",
      "outputs": [
        {
          "name": "",
          "type": "bool"
        }
      ],
      "payable": false,
      "stateMutability": "view",
      "type": "function"
    },
    {
      "constant": true,
      "inputs": [],
      "name": "proxyAPI",
      "outputs": [
        {
          "name": "",
          "type": "address"
        }
      ],
      "payable": false,
      "stateMutability": "view",
      "type": "function"
    },
    {
      "inputs": [
        {
          "name": "_priceToConnect",
          "type": "uint256"
        },
        {
          "name": "_priceToCall",
          "type": "uint256"
        },
        {
          "name": "_DXC",
          "type": "address"
        },
        {
          "name": "_proxyAPI",
          "type": "address"
        }
      ],
      "payable": false,
      "stateMutability": "nonpayable",
      "type": "constructor"
    },
    {
      "constant": false,
      "inputs": [
        {
          "name": "args",
          "type": "bytes32[10]"
        }
      ],
      "name": "changeVotingPrice",
      "outputs": [],
      "payable": false,
      "stateMutability": "nonpayable",
      "type": "function"
    }
  ],
  "bytecode": "0x608060405234801561001057600080fd5b50604051608080610bb5833981016040908152815160208301519183015160609093015160018054600160a060020a0319908116331790915560039290925560049290925560008054600160a060020a0394851690831617905560028054939092169216919091179055610b2c806100896000396000f3006080604052600436106100a35763ffffffff7c010000000000000000000000000000000000000000000000000000000060003504166337b1b41e81146100a857806344b19818146100c25780635d3f13b9146100e95780638da5cb5b1461010a578063908368221461013b578063921cac7e14610150578063939eaf9f14610165578063c25f3cf614610189578063d0131a43146101be578063e2a7937b14610203575b600080fd5b3480156100b457600080fd5b506100c0600435610218565b005b3480156100ce57600080fd5b506100d761033d565b60408051918252519081900360200190f35b3480156100f557600080fd5b506100d7600160a060020a0360043516610343565b34801561011657600080fd5b5061011f610355565b60408051600160a060020a039092168252519081900360200190f35b34801561014757600080fd5b5061011f610364565b34801561015c57600080fd5b506100d7610373565b34801561017157600080fd5b506100c0600160a060020a0360043516602435610379565b34801561019557600080fd5b506101aa600160a060020a0360043516610522565b604080519115158252519081900360200190f35b3480156101ca57600080fd5b50604080516101408181019092526100c091369160049161014491908390600a9083908390808284375093965061053795505050505050565b34801561020f57600080fd5b5061011f610af1565b600154600160a060020a031633146102a0576040805160e560020a62461bcd02815260206004820152602260248201527f4d6574686f642063616e2062652063616c6c6564206f6e6c79206279206f776e60448201527f6572000000000000000000000000000000000000000000000000000000000000606482015290519081900360840190fd5b60008054604080517fa9059cbb000000000000000000000000000000000000000000000000000000008152336004820152602481018590529051600160a060020a039092169263a9059cbb926044808401936020939083900390910190829087803b15801561030e57600080fd5b505af1158015610322573d6000803e3d6000fd5b505050506040513d602081101561033857600080fd5b505050565b60045481565b60066020526000908152604090205481565b600154600160a060020a031681565b600054600160a060020a031681565b60035481565b600160a060020a038216600090815260056020526040812054829160ff90911690816103a7576003546103ab565b6004545b905082811461042a576040805160e560020a62461bcd02815260206004820152602760248201527f496e636f7272656374206e756d626572206f662044584320776173207472616e60448201527f7366657272656400000000000000000000000000000000000000000000000000606482015290519081900360840190fd5b600054600160a060020a031633146104b2576040805160e560020a62461bcd02815260206004820152602960248201527f4d6574686f642063616e2062652063616c6c6564206f6e6c792062792044584360448201527f20636f6e74726163740000000000000000000000000000000000000000000000606482015290519081900360840190fd5b600160a060020a03851660009081526005602052604090205460ff1615156104fc57600160a060020a0385166000908152600560205260409020805460ff1916600117905561051b565b600160a060020a03851660009081526006602052604090208054850190555b5050505050565b60056020526000908152604090205460ff1681565b60025460009081908190600160a060020a031633146105c6576040805160e560020a62461bcd02815260206004820152603460248201527f4d6574686f642063616e2062652063616c6c206f6e6c792066726f6d2044616f60448201527f78204150492070726f787920636f6e7472616374000000000000000000000000606482015290519081900360840190fd5b604080517fb31916ab0000000000000000000000000000000000000000000000000000000081523060048201529051600091339163b31916ab9160248082019260209290919082900301818787803b15801561062157600080fd5b505af1158015610635573d6000803e3d6000fd5b505050506040513d602081101561064b57600080fd5b5051600160a060020a03811660009081526005602052604090205490915060ff1615156106c2576040805160e560020a62461bcd02815260206004820152601860248201527f53657276696365206973206e6f7420636f6e6e65637465640000000000000000604482015290519081900360640190fd5b604080517fb31916ab0000000000000000000000000000000000000000000000000000000081523060048201529051600091339163b31916ab9160248082019260209290919082900301818787803b15801561071d57600080fd5b505af1158015610731573d6000803e3d6000fd5b505050506040513d602081101561074757600080fd5b5051600454600160a060020a03821660009081526006602052604090205491925011156107e4576040805160e560020a62461bcd02815260206004820152602960248201527f4e6f7420656e6f7567682066756e6473206465706f736974656420746f206d6160448201527f6b6520612063616c6c0000000000000000000000000000000000000000000000606482015290519081900360840190fd5b604080517fb31916ab0000000000000000000000000000000000000000000000000000000081523060048201529051339163b31916ab9160248083019260209291908290030181600087803b15801561083c57600080fd5b505af1158015610850573d6000803e3d6000fd5b505050506040513d602081101561086657600080fd5b505160048054600160a060020a038316600090815260066020908152604091829020805493909303909255895181517fe60b1424000000000000000000000000000000000000000000000000000000008152938401525192975073__TypesConverter________________________9263e60b1424926024808201939291829003018186803b1580156108f857600080fd5b505af415801561090c573d6000803e3d6000fd5b505050506040513d602081101561092257600080fd5b5051604080517f2948b4e900000000000000000000000000000000000000000000000000000000815290519195508591600160a060020a03881691632948b4e99160048083019260209291908290030181600087803b15801561098457600080fd5b505af1158015610998573d6000803e3d6000fd5b505050506040513d60208110156109ae57600080fd5b5051604080517f886d3db90000000000000000000000000000000000000000000000000000000081529290910260048301819052905190945033916380a8cb0a9173__TypesConverter________________________9163886d3db9916024808301926020929190829003018186803b158015610a2a57600080fd5b505af4158015610a3e573d6000803e3d6000fd5b505050506040513d6020811015610a5457600080fd5b5051604080517c010000000000000000000000000000000000000000000000000000000063ffffffff85160281527f736574566f74696e6750726963650000000000000000000000000000000000006004820152602481019290925251604480830192600092919082900301818387803b158015610ad157600080fd5b505af1158015610ae5573d6000803e3d6000fd5b50505050505050505050565b600254600160a060020a0316815600a165627a7a72305820dfa46c9ec51676cd5b8254550f0e21c76310f6524cc0a44afde91f2919eb05af0029",
  "source": "pragma solidity 0.4.24;\n\nimport \"./TypesConverter.sol\";\nimport \"./BaseService.sol\";\nimport \"./IProxyAPI.sol\";\nimport \"./IDAO.sol\";\n\ncontract ExampleService is BaseService {\n    constructor(uint _priceToConnect, uint _priceToCall, address _DXC, address _proxyAPI) BaseService(_priceToConnect, _priceToCall, _DXC, _proxyAPI) {}\n\n    function changeVotingPrice(bytes32[10] args) onlyProxyAPI onlyConnected canCall {\n        address dao = IProxyAPI(msg.sender).availableCalls(this);\n        callDeposit[dao] -= priceToCall;\n        uint multiplier = TypesConverter.bytes32ToUint(args[0]);\n        uint newVotingPrice = IDAO(dao).votingPrice() * multiplier;\n        IProxyAPI(msg.sender).callDAOSetter(\"setVotingPrice\", TypesConverter.uintToBytes32(newVotingPrice));\n    }\n}\n",
  "sourcePath": "/Users/giddeonwyeth/PhpstormProjects/dao/daox-contracts/contracts/DAO/API/ExampleService.sol",
  "compiler": {
    "name": "solc",
    "version": "0.4.24+commit.e67f0147.Emscripten.clang"
  },
  "schemaVersion": "2.0.1",
  "updatedAt": "2018-07-11T16:06:33.282Z"
}