{
  "contractName": "ExampleModule",
  "abi": [
    {
      "constant": true,
      "inputs": [],
      "name": "proxyAPI",
      "outputs": [
        {
          "name": "",
          "type": "address"
        }
      ],
      "payable": false,
      "stateMutability": "view",
      "type": "function"
    },
    {
      "inputs": [
        {
          "name": "_proxyAPI",
          "type": "address"
        }
      ],
      "payable": false,
      "stateMutability": "nonpayable",
      "type": "constructor"
    },
    {
      "constant": false,
      "inputs": [
        {
          "name": "args",
          "type": "bytes32[10]"
        }
      ],
      "name": "changeVotingPrice",
      "outputs": [],
      "payable": false,
      "stateMutability": "nonpayable",
      "type": "function"
    }
  ],
  "bytecode": "0x608060405234801561001057600080fd5b50604051602080610514833981016040525160008054600160a060020a03909216600160a060020a03199092169190911790556104c2806100526000396000f30060806040526004361061004b5763ffffffff7c0100000000000000000000000000000000000000000000000000000000600035041663d0131a438114610050578063e2a7937b14610097575b600080fd5b34801561005c57600080fd5b506040805161014081810190925261009591369160049161014491908390600a908390839080828437509396506100d595505050505050565b005b3480156100a357600080fd5b506100ac61047a565b6040805173ffffffffffffffffffffffffffffffffffffffff9092168252519081900360200190f35b60008054819073ffffffffffffffffffffffffffffffffffffffff16331461018457604080517f08c379a000000000000000000000000000000000000000000000000000000000815260206004820152603460248201527f4d6574686f642063616e2062652063616c6c206f6e6c792066726f6d2044616f60448201527f78204150492070726f787920636f6e7472616374000000000000000000000000606482015290519081900360840190fd5b8251604080517fe60b142400000000000000000000000000000000000000000000000000000000815260048101929092525173__TypesConverter________________________9163e60b1424916024808301926020929190829003018186803b1580156101f157600080fd5b505af4158015610205573d6000803e3d6000fd5b505050506040513d602081101561021b57600080fd5b5051604080517fb31916ab00000000000000000000000000000000000000000000000000000000815230600482015290519193508391339163b31916ab9160248083019260209291908290030181600087803b15801561027a57600080fd5b505af115801561028e573d6000803e3d6000fd5b505050506040513d60208110156102a457600080fd5b5051604080517f2948b4e9000000000000000000000000000000000000000000000000000000008152905173ffffffffffffffffffffffffffffffffffffffff90921691632948b4e9916004808201926020929091908290030181600087803b15801561031057600080fd5b505af1158015610324573d6000803e3d6000fd5b505050506040513d602081101561033a57600080fd5b5051604080517f886d3db90000000000000000000000000000000000000000000000000000000081529290910260048301819052905190925033916380a8cb0a9173__TypesConverter________________________9163886d3db9916024808301926020929190829003018186803b1580156103b657600080fd5b505af41580156103ca573d6000803e3d6000fd5b505050506040513d60208110156103e057600080fd5b5051604080517c010000000000000000000000000000000000000000000000000000000063ffffffff85160281527f736574566f74696e6750726963650000000000000000000000000000000000006004820152602481019290925251604480830192600092919082900301818387803b15801561045d57600080fd5b505af1158015610471573d6000803e3d6000fd5b50505050505050565b60005473ffffffffffffffffffffffffffffffffffffffff16815600a165627a7a72305820e82b7c5fbe94be4c70fd4152afb833fd22fd4ad64728975ba7919c0c4e4c4cfb0029",
  "source": "pragma solidity 0.4.24;\n\nimport \"./TypesConverter.sol\";\n\ninterface IProxyAPI {\n    function availableCalls(address _this) constant returns(address);\n    function callDAOSetter(bytes32 method, bytes32 value) external;\n}\n\ninterface IDAO {\n    function votingPrice() view returns (uint);\n}\n\ncontract ExampleModule {\n    address public proxyAPI;\n\n    constructor(address _proxyAPI) {\n        proxyAPI = _proxyAPI;\n    }\n\n    function changeVotingPrice(bytes32[10] args) onlyProxyAPI {\n        uint multiplier = TypesConverter.bytes32ToUint(args[0]);\n        uint newVotingPrice = IDAO(IProxyAPI(msg.sender).availableCalls(this)).votingPrice() * multiplier;\n        IProxyAPI(msg.sender).callDAOSetter(\"setVotingPrice\", TypesConverter.uintToBytes32(newVotingPrice));\n    }\n\n    modifier onlyProxyAPI() {\n        require(msg.sender == proxyAPI, \"Method can be call only from Daox API proxy contract\");\n        _;\n    }\n}\n",
  "sourcePath": "/Users/giddeonwyeth/PhpstormProjects/dao/daox-contracts/contracts/DAO/API/ExampleModule.sol",
  "compiler": {
    "name": "solc",
    "version": "0.4.24+commit.e67f0147.Emscripten.clang"
  },
  "schemaVersion": "2.0.1",
  "updatedAt": "2018-07-06T11:47:36.335Z"
}