{
  "contractName": "Module",
  "abi": [
    {
      "constant": true,
      "inputs": [],
      "name": "name",
      "outputs": [
        {
          "name": "",
          "type": "string"
        }
      ],
      "payable": false,
      "stateMutability": "view",
      "type": "function"
    },
    {
      "constant": true,
      "inputs": [],
      "name": "duration",
      "outputs": [
        {
          "name": "",
          "type": "uint256"
        }
      ],
      "payable": false,
      "stateMutability": "view",
      "type": "function"
    },
    {
      "constant": true,
      "inputs": [],
      "name": "quorum",
      "outputs": [
        {
          "name": "",
          "type": "uint256"
        }
      ],
      "payable": false,
      "stateMutability": "view",
      "type": "function"
    },
    {
      "constant": true,
      "inputs": [],
      "name": "minimalDuration",
      "outputs": [
        {
          "name": "",
          "type": "uint256"
        }
      ],
      "payable": false,
      "stateMutability": "view",
      "type": "function"
    },
    {
      "constant": true,
      "inputs": [
        {
          "name": "",
          "type": "uint256"
        }
      ],
      "name": "options",
      "outputs": [
        {
          "name": "votes",
          "type": "uint256"
        },
        {
          "name": "description",
          "type": "bytes32"
        }
      ],
      "payable": false,
      "stateMutability": "view",
      "type": "function"
    },
    {
      "constant": true,
      "inputs": [],
      "name": "result",
      "outputs": [
        {
          "name": "votes",
          "type": "uint256"
        },
        {
          "name": "description",
          "type": "bytes32"
        }
      ],
      "payable": false,
      "stateMutability": "view",
      "type": "function"
    },
    {
      "constant": true,
      "inputs": [],
      "name": "description",
      "outputs": [
        {
          "name": "",
          "type": "string"
        }
      ],
      "payable": false,
      "stateMutability": "view",
      "type": "function"
    },
    {
      "constant": true,
      "inputs": [],
      "name": "votesCount",
      "outputs": [
        {
          "name": "",
          "type": "uint256"
        }
      ],
      "payable": false,
      "stateMutability": "view",
      "type": "function"
    },
    {
      "constant": true,
      "inputs": [],
      "name": "created_at",
      "outputs": [
        {
          "name": "",
          "type": "uint256"
        }
      ],
      "payable": false,
      "stateMutability": "view",
      "type": "function"
    },
    {
      "constant": true,
      "inputs": [],
      "name": "newModuleAddress",
      "outputs": [
        {
          "name": "",
          "type": "address"
        }
      ],
      "payable": false,
      "stateMutability": "view",
      "type": "function"
    },
    {
      "constant": true,
      "inputs": [],
      "name": "votingType",
      "outputs": [
        {
          "name": "",
          "type": "string"
        }
      ],
      "payable": false,
      "stateMutability": "view",
      "type": "function"
    },
    {
      "constant": true,
      "inputs": [
        {
          "name": "",
          "type": "address"
        }
      ],
      "name": "voted",
      "outputs": [
        {
          "name": "",
          "type": "uint256"
        }
      ],
      "payable": false,
      "stateMutability": "view",
      "type": "function"
    },
    {
      "constant": true,
      "inputs": [],
      "name": "module",
      "outputs": [
        {
          "name": "",
          "type": "uint8"
        }
      ],
      "payable": false,
      "stateMutability": "view",
      "type": "function"
    },
    {
      "constant": true,
      "inputs": [],
      "name": "finished",
      "outputs": [
        {
          "name": "",
          "type": "bool"
        }
      ],
      "payable": false,
      "stateMutability": "view",
      "type": "function"
    },
    {
      "inputs": [
        {
          "name": "_baseVoting",
          "type": "address"
        },
        {
          "name": "_dao",
          "type": "address"
        },
        {
          "name": "_name",
          "type": "string"
        },
        {
          "name": "_description",
          "type": "string"
        },
        {
          "name": "_duration",
          "type": "uint256"
        },
        {
          "name": "_module",
          "type": "uint256"
        },
        {
          "name": "_newAddress",
          "type": "address"
        }
      ],
      "payable": false,
      "stateMutability": "nonpayable",
      "type": "constructor"
    },
    {
      "constant": true,
      "inputs": [],
      "name": "getOptions",
      "outputs": [
        {
          "name": "",
          "type": "uint256[2]"
        }
      ],
      "payable": false,
      "stateMutability": "view",
      "type": "function"
    },
    {
      "constant": false,
      "inputs": [
        {
          "name": "optionID",
          "type": "uint256"
        }
      ],
      "name": "addVote",
      "outputs": [],
      "payable": false,
      "stateMutability": "nonpayable",
      "type": "function"
    },
    {
      "constant": false,
      "inputs": [],
      "name": "finish",
      "outputs": [],
      "payable": false,
      "stateMutability": "nonpayable",
      "type": "function"
    }
  ],
  "bytecode": "0x606060405242601e55601f805460ff1916905562093a8060225534156200002557600080fd5b60405162000e5f38038062000e5f83398101604052808051919060200180519190602001805182019190602001805182019190602001805191906020018051919060200180519150506000821080159062000081575060048211155b15156200008d57600080fd5b60248054600160a060020a031916600160a060020a03891617905560408051908101604052600681527f4d6f64756c65000000000000000000000000000000000000000000000000000060208201526021908051620000f192916020019062000393565b50816004811115620000ff57fe5b6023805460ff191660018360048111156200011657fe5b021790555060238054600160a060020a038084166101000261010060a860020a03199092169190911790915560245473__VotingLib_____________________________9163120dce4891168888888860506040518763ffffffff167c01000000000000000000000000000000000000000000000000000000000281526004018087600160a060020a0316600160a060020a0316815260200186600160a060020a0316600160a060020a031681526020018060200180602001858152602001848152602001838103835287818151815260200191508051906020019080838360005b8381101562000212578082015183820152602001620001f8565b50505050905090810190601f168015620002405780820380516001836020036101000a031916815260200191505b50838103825286818151815260200191508051906020019080838360005b83811015620002785780820151838201526020016200025e565b50505050905090810190601f168015620002a65780820380516001836020036101000a031916815260200191505b509850505050505050505060006040518083038186803b1515620002c957600080fd5b5af41515620002d757600080fd5b505050620002f862000305640100000000026200095d176401000000009004565b5050505050505062000438565b60408051908101604052600081527f7965730000000000000000000000000000000000000000000000000000000000602082015260058151815560208201516001909101555060408051908101604052600081527f6e6f0000000000000000000000000000000000000000000000000000000000006020820152600781518155602082015160019091015550565b828054600181600116156101000203166002900490600052602060002090601f016020900481019282601f10620003d657805160ff191683800117855562000406565b8280016001018555821562000406579182015b8281111562000406578251825591602001919060010190620003e9565b506200041492915062000418565b5090565b6200043591905b808211156200041457600081556001016200041f565b90565b610a1780620004486000396000f3006060604052600436106100d75763ffffffff60e060020a6000350416630383badc81146100dc57806306fdde03146100f45780630fb5a6b41461017e5780631703a018146101a35780632f572336146101b6578063409e2205146101c957806365372147146101f75780637284e4161461020a5780638778b27d1461021d5780639c6f0d8514610230578063a5a60e6914610243578063a9aa6a9b14610272578063aec2ccae14610285578063b86d5298146102a4578063bef4876b146102db578063cc2ee19614610302578063d56b28891461034d575b600080fd5b34156100e757600080fd5b6100f2600435610360565b005b34156100ff57600080fd5b6101076103dd565b60405160208082528190810183818151815260200191508051906020019080838360005b8381101561014357808201518382015260200161012b565b50505050905090810190601f1680156101705780820380516001836020036101000a031916815260200191505b509250505060405180910390f35b341561018957600080fd5b61019161047b565b60405190815260200160405180910390f35b34156101ae57600080fd5b610191610481565b34156101c157600080fd5b610191610487565b34156101d457600080fd5b6101df60043561048d565b60405191825260208201526040908101905180910390f35b341561020257600080fd5b6101df6104ac565b341561021557600080fd5b6101076104b5565b341561022857600080fd5b610191610520565b341561023b57600080fd5b610191610526565b341561024e57600080fd5b61025661052c565b604051600160a060020a03909116815260200160405180910390f35b341561027d57600080fd5b610107610540565b341561029057600080fd5b610191600160a060020a03600435166105ab565b34156102af57600080fd5b6102b76105bd565b604051808260048111156102c757fe5b60ff16815260200191505060405180910390f35b34156102e657600080fd5b6102ee6105c6565b604051901515815260200160405180910390f35b341561030d57600080fd5b6103156105cf565b6040518082604080838360005b8381101561033a578082015183820152602001610322565b5050505090500191505060405180910390f35b341561035857600080fd5b6100f26105f3565b60245473__VotingLib_____________________________90634adcade490600160a060020a03168360405160e060020a63ffffffff8516028152600160a060020a039092166004830152602482015260440160006040518083038186803b15156103ca57600080fd5b5af415156103d757600080fd5b50505050565b60018054600181600116156101000203166002900480601f0160208091040260200160405190810160405280929190818152602001828054600181600116156101000203166002900480156104735780601f1061044857610100808354040283529160200191610473565b820191906000526020600020905b81548152906001019060200180831161045657829003601f168201915b505050505081565b601d5481565b60205481565b60225481565b600381600b811061049a57fe5b60020201805460019091015490915082565b601a54601b5482565b60028054600181600116156101000203166002900480601f0160208091040260200160405190810160405280929190818152602001828054600181600116156101000203166002900480156104735780601f1061044857610100808354040283529160200191610473565b601c5481565b601e5481565b6023546101009004600160a060020a031681565b60218054600181600116156101000203166002900480601f0160208091040260200160405190810160405280929190818152602001828054600181600116156101000203166002900480156104735780601f1061044857610100808354040283529160200191610473565b60196020526000908152604090205481565b60235460ff1681565b601f5460ff1681565b6105d7610937565b6040805190810160405260055481526007546020820152919050565b60245473__VotingLib_____________________________90631901910b90600160a060020a031660405160e060020a63ffffffff8416028152600160a060020a03909116600482015260240160006040518083038186803b151561065757600080fd5b5af4151561066457600080fd5b5050601b547f6e6f0000000000000000000000000000000000000000000000000000000000001415905061069757610935565b600060235460ff1660048111156106aa57fe5b141561071d57600054602354600160a060020a0391821691630eed6e8d9161010090041660405160e060020a63ffffffff8416028152600160a060020a039091166004820152602401600060405180830381600087803b151561070c57600080fd5b5af1151561071957600080fd5b5050505b600160235460ff16600481111561073057fe5b14156107a357600054602354600160a060020a03918216916381bb60de9161010090041660405160e060020a63ffffffff8416028152600160a060020a039091166004820152602401600060405180830381600087803b151561079257600080fd5b5af1151561079f57600080fd5b5050505b600260235460ff1660048111156107b657fe5b141561082957600054602354600160a060020a039182169163e70e37379161010090041660405160e060020a63ffffffff8416028152600160a060020a039091166004820152602401600060405180830381600087803b151561081857600080fd5b5af1151561082557600080fd5b5050505b600360235460ff16600481111561083c57fe5b14156108af57600054602354600160a060020a039182169163620958419161010090041660405160e060020a63ffffffff8416028152600160a060020a039091166004820152602401600060405180830381600087803b151561089e57600080fd5b5af115156108ab57600080fd5b5050505b600460235460ff1660048111156108c257fe5b141561093557600054602354600160a060020a039182169163aaf793c69161010090041660405160e060020a63ffffffff8416028152600160a060020a039091166004820152602401600060405180830381600087803b151561092457600080fd5b5af1151561093157600080fd5b5050505b565b604080519081016040526002815b60008152602001906001900390816109455790505090565b60408051908101604052600081527f7965730000000000000000000000000000000000000000000000000000000000602082015260058151815560208201516001909101555060408051908101604052600081527f6e6f00000000000000000000000000000000000000000000000000000000000060208201526007815181556020820151600190910155505600a165627a7a7230582027bf43feb030f061f3756e342af1a4915e5ae65e42f7e58695604df7e7e9ebb30029",
  "source": "pragma solidity ^0.4.0;\n\nimport \"./VotingLib.sol\";\nimport \"./VotingFields.sol\";\nimport \"../Common.sol\";\n\ncontract Module is VotingFields {\n    enum Modules{State, Payment, VotingDecisions, Crowdsale, VotingFactory}\n    Modules public module;\n    address public newModuleAddress;\n    address baseVoting;\n\n    function Module(address _baseVoting, address _dao, string _name, string _description, uint _duration, uint _module, address _newAddress) {\n        require(_module >= 0 && _module <= 4);\n        baseVoting = _baseVoting;\n        votingType = \"Module\";\n        module = Modules(_module);\n        newModuleAddress = _newAddress;\n        VotingLib.delegatecallCreate(baseVoting, _dao, _name, _description, _duration, 80);\n        createOptions();\n    }\n\n    function getOptions() public constant returns(uint[2]) {\n        return [options[1].votes, options[2].votes];\n    }\n\n    function addVote(uint optionID) public {\n        VotingLib.delegatecallAddVote(baseVoting, optionID);\n    }\n\n    function finish() public {\n        VotingLib.delegatecallFinish(baseVoting);\n        if(result.description == \"no\") return;\n\n        //Sorry but solidity doesn't support `switch` keyword\n        if (uint(module) == uint(Modules.State)) dao.setStateModule(newModuleAddress);\n        if (uint(module) == uint(Modules.Payment)) dao.setPaymentModule(newModuleAddress);\n        if (uint(module) == uint(Modules.VotingDecisions)) dao.setVotingDecisionModule(newModuleAddress);\n        if (uint(module) == uint(Modules.Crowdsale)) dao.setCrowdsaleModule(newModuleAddress);\n        if (uint(module) == uint(Modules.VotingFactory)) dao.setVotingFactoryAddress(newModuleAddress);\n    }\n\n    function createOptions() private {\n        options[1] = VotingLib.Option(0, \"yes\");\n        options[2] = VotingLib.Option(0, \"no\");\n    }\n}",
  "sourcePath": "/Users/kirill/projects/daox-contracts/contracts/Votings/Module.sol",
  "compiler": {
    "name": "solc",
    "version": "0.4.21+commit.dfe3193c.Emscripten.clang"
  },
  "schemaVersion": "2.0.0",
  "updatedAt": "2018-04-12T10:48:23.319Z"
}