{
  "contractName": "Module",
  "abi": [
    {
      "constant": false,
      "inputs": [
        {
          "name": "_optionID",
          "type": "uint256"
        }
      ],
      "name": "addVote",
      "outputs": [],
      "payable": false,
      "stateMutability": "nonpayable",
      "type": "function"
    },
    {
      "constant": true,
      "inputs": [],
      "name": "name",
      "outputs": [
        {
          "name": "",
          "type": "string"
        }
      ],
      "payable": false,
      "stateMutability": "view",
      "type": "function"
    },
    {
      "constant": true,
      "inputs": [],
      "name": "duration",
      "outputs": [
        {
          "name": "",
          "type": "uint256"
        }
      ],
      "payable": false,
      "stateMutability": "view",
      "type": "function"
    },
    {
      "constant": true,
      "inputs": [],
      "name": "quorum",
      "outputs": [
        {
          "name": "",
          "type": "uint256"
        }
      ],
      "payable": false,
      "stateMutability": "view",
      "type": "function"
    },
    {
      "constant": true,
      "inputs": [],
      "name": "minimalDuration",
      "outputs": [
        {
          "name": "",
          "type": "uint256"
        }
      ],
      "payable": false,
      "stateMutability": "view",
      "type": "function"
    },
    {
      "constant": true,
      "inputs": [
        {
          "name": "",
          "type": "uint256"
        }
      ],
      "name": "options",
      "outputs": [
        {
          "name": "votes",
          "type": "uint256"
        },
        {
          "name": "description",
          "type": "bytes32"
        }
      ],
      "payable": false,
      "stateMutability": "view",
      "type": "function"
    },
    {
      "constant": true,
      "inputs": [],
      "name": "result",
      "outputs": [
        {
          "name": "votes",
          "type": "uint256"
        },
        {
          "name": "description",
          "type": "bytes32"
        }
      ],
      "payable": false,
      "stateMutability": "view",
      "type": "function"
    },
    {
      "constant": true,
      "inputs": [],
      "name": "description",
      "outputs": [
        {
          "name": "",
          "type": "string"
        }
      ],
      "payable": false,
      "stateMutability": "view",
      "type": "function"
    },
    {
      "constant": true,
      "inputs": [],
      "name": "votesCount",
      "outputs": [
        {
          "name": "",
          "type": "uint256"
        }
      ],
      "payable": false,
      "stateMutability": "view",
      "type": "function"
    },
    {
      "constant": true,
      "inputs": [],
      "name": "created_at",
      "outputs": [
        {
          "name": "",
          "type": "uint256"
        }
      ],
      "payable": false,
      "stateMutability": "view",
      "type": "function"
    },
    {
      "constant": true,
      "inputs": [],
      "name": "newModuleAddress",
      "outputs": [
        {
          "name": "",
          "type": "address"
        }
      ],
      "payable": false,
      "stateMutability": "view",
      "type": "function"
    },
    {
      "constant": true,
      "inputs": [],
      "name": "votingType",
      "outputs": [
        {
          "name": "",
          "type": "string"
        }
      ],
      "payable": false,
      "stateMutability": "view",
      "type": "function"
    },
    {
      "constant": true,
      "inputs": [
        {
          "name": "",
          "type": "address"
        }
      ],
      "name": "voted",
      "outputs": [
        {
          "name": "",
          "type": "uint256"
        }
      ],
      "payable": false,
      "stateMutability": "view",
      "type": "function"
    },
    {
      "constant": true,
      "inputs": [],
      "name": "module",
      "outputs": [
        {
          "name": "",
          "type": "uint8"
        }
      ],
      "payable": false,
      "stateMutability": "view",
      "type": "function"
    },
    {
      "constant": true,
      "inputs": [],
      "name": "finished",
      "outputs": [
        {
          "name": "",
          "type": "bool"
        }
      ],
      "payable": false,
      "stateMutability": "view",
      "type": "function"
    },
    {
      "constant": true,
      "inputs": [],
      "name": "getOptions",
      "outputs": [
        {
          "name": "",
          "type": "uint256[2]"
        }
      ],
      "payable": false,
      "stateMutability": "view",
      "type": "function"
    },
    {
      "inputs": [
        {
          "name": "_baseVoting",
          "type": "address"
        },
        {
          "name": "_dao",
          "type": "address"
        },
        {
          "name": "_name",
          "type": "string"
        },
        {
          "name": "_description",
          "type": "string"
        },
        {
          "name": "_duration",
          "type": "uint256"
        },
        {
          "name": "_module",
          "type": "uint256"
        },
        {
          "name": "_newAddress",
          "type": "address"
        }
      ],
      "payable": false,
      "stateMutability": "nonpayable",
      "type": "constructor"
    },
    {
      "constant": false,
      "inputs": [],
      "name": "finish",
      "outputs": [],
      "payable": false,
      "stateMutability": "nonpayable",
      "type": "function"
    }
  ],
  "bytecode": "0x608060405242601e55601f805460ff1916905562093a806022553480156200002657600080fd5b5060405162000e7138038062000e7183398101604090815281516020830151918301516060840151608085015160a086015160c087015194969384019492909301929091600082108015906200007d575060048211155b15156200008957600080fd5b60238054600160a060020a031916600160a060020a0389161790556040805180820190915260068082527f4d6f64756c6500000000000000000000000000000000000000000000000000006020909201918252620000ea9160219162000372565b50816004811115620000f857fe5b6023805460a060020a60ff021916740100000000000000000000000000000000000000008360048111156200012957fe5b021790555060248054600160a060020a031916600160a060020a038381169190911782556023546040517f120dce4800000000000000000000000000000000000000000000000000000000815290821660048201818152928a169382019390935260848101869052605060a4820181905260c060448301908152895160c4840152895173__VotingLib_____________________________9563120dce489590948d948d948d948d949293606481019160e490910190602089019080838360005b8381101562000204578181015183820152602001620001ea565b50505050905090810190601f168015620002325780820380516001836020036101000a031916815260200191505b50838103825286518152865160209182019188019080838360005b83811015620002675781810151838201526020016200024d565b50505050905090810190601f168015620002955780820380516001836020036101000a031916815260200191505b509850505050505050505060006040518083038186803b158015620002b957600080fd5b505af4158015620002ce573d6000803e3d6000fd5b50505050620002eb620002f8640100000000026401000000009004565b5050505050505062000417565b60408051808201825260008082527f79657300000000000000000000000000000000000000000000000000000000006020928301819052600582905560065582518084019093528083527f6e6f00000000000000000000000000000000000000000000000000000000000092909101829052600755600855565b828054600181600116156101000203166002900490600052602060002090601f016020900481019282601f10620003b557805160ff1916838001178555620003e5565b82800160010185558215620003e5579182015b82811115620003e5578251825591602001919060010190620003c8565b50620003f3929150620003f7565b5090565b6200041491905b80821115620003f35760008155600101620003fe565b90565b610a4a80620004276000396000f3006080604052600436106100f05763ffffffff7c01000000000000000000000000000000000000000000000000000000006000350416630383badc81146100f557806306fdde031461010f5780630fb5a6b4146101995780631703a018146101c05780632f572336146101d5578063409e2205146101ea578063653721471461021b5780637284e416146102305780638778b27d146102455780639c6f0d851461025a578063a5a60e691461026f578063a9aa6a9b146102a0578063aec2ccae146102b5578063b86d5298146102d6578063bef4876b1461030f578063cc2ee19614610338578063d56b288914610388575b600080fd5b34801561010157600080fd5b5061010d60043561039d565b005b34801561011b57600080fd5b50610124610435565b6040805160208082528351818301528351919283929083019185019080838360005b8381101561015e578181015183820152602001610146565b50505050905090810190601f16801561018b5780820380516001836020036101000a031916815260200191505b509250505060405180910390f35b3480156101a557600080fd5b506101ae6104c2565b60408051918252519081900360200190f35b3480156101cc57600080fd5b506101ae6104c8565b3480156101e157600080fd5b506101ae6104ce565b3480156101f657600080fd5b506102026004356104d4565b6040805192835260208301919091528051918290030190f35b34801561022757600080fd5b506102026104f3565b34801561023c57600080fd5b506101246104fc565b34801561025157600080fd5b506101ae610554565b34801561026657600080fd5b506101ae61055a565b34801561027b57600080fd5b50610284610560565b60408051600160a060020a039092168252519081900360200190f35b3480156102ac57600080fd5b5061012461056f565b3480156102c157600080fd5b506101ae600160a060020a03600435166105ca565b3480156102e257600080fd5b506102eb6105dc565b604051808260048111156102fb57fe5b60ff16815260200191505060405180910390f35b34801561031b57600080fd5b506103246105ec565b604080519115158252519081900360200190f35b34801561034457600080fd5b5061034d6105f5565b6040518082600260200280838360005b8381101561037557818101518382015260200161035d565b5050505090500191505060405180910390f35b34801561039457600080fd5b5061010d610618565b602354604080517f4adcade4000000000000000000000000000000000000000000000000000000008152600160a060020a039092166004830152602482018390525173__VotingLib_____________________________91634adcade4916044808301926000929190829003018186803b15801561041a57600080fd5b505af415801561042e573d6000803e3d6000fd5b5050505050565b60018054604080516020600284861615610100026000190190941693909304601f810184900484028201840190925281815292918301828280156104ba5780601f1061048f576101008083540402835291602001916104ba565b820191906000526020600020905b81548152906001019060200180831161049d57829003601f168201915b505050505081565b601d5481565b60205481565b60225481565b600381600b81106104e157fe5b60020201805460019091015490915082565b601a54601b5482565b6002805460408051602060018416156101000260001901909316849004601f810184900484028201840190925281815292918301828280156104ba5780601f1061048f576101008083540402835291602001916104ba565b601c5481565b601e5481565b602454600160a060020a031681565b6021805460408051602060026001851615610100026000190190941693909304601f810184900484028201840190925281815292918301828280156104ba5780601f1061048f576101008083540402835291602001916104ba565b60196020526000908152604090205481565b60235460a060020a900460ff1681565b601f5460ff1681565b6105fd610a03565b50604080518082019091526005548152600754602082015290565b602354604080517f1901910b000000000000000000000000000000000000000000000000000000008152600160a060020a0390921660048301525173__VotingLib_____________________________91631901910b916024808301926000929190829003018186803b15801561068e57600080fd5b505af41580156106a2573d6000803e3d6000fd5b5050601b547f6e6f000000000000000000000000000000000000000000000000000000000000141591506106d7905057610a01565b600060235460a060020a900460ff1660048111156106f157fe5b1415610779576000805460248054604080517f0eed6e8d000000000000000000000000000000000000000000000000000000008152600160a060020a03928316600482015290519190931693630eed6e8d93808401939192919082900301818387803b15801561076057600080fd5b505af1158015610774573d6000803e3d6000fd5b505050505b600160235460a060020a900460ff16600481111561079357fe5b141561081b576000805460248054604080517f81bb60de000000000000000000000000000000000000000000000000000000008152600160a060020a039283166004820152905191909316936381bb60de93808401939192919082900301818387803b15801561080257600080fd5b505af1158015610816573d6000803e3d6000fd5b505050505b600260235460a060020a900460ff16600481111561083557fe5b14156108bd576000805460248054604080517fe70e3737000000000000000000000000000000000000000000000000000000008152600160a060020a0392831660048201529051919093169363e70e373793808401939192919082900301818387803b1580156108a457600080fd5b505af11580156108b8573d6000803e3d6000fd5b505050505b600360235460a060020a900460ff1660048111156108d757fe5b141561095f576000805460248054604080517f62095841000000000000000000000000000000000000000000000000000000008152600160a060020a03928316600482015290519190931693636209584193808401939192919082900301818387803b15801561094657600080fd5b505af115801561095a573d6000803e3d6000fd5b505050505b600460235460a060020a900460ff16600481111561097957fe5b1415610a01576000805460248054604080517faaf793c6000000000000000000000000000000000000000000000000000000008152600160a060020a0392831660048201529051919093169363aaf793c693808401939192919082900301818387803b1580156109e857600080fd5b505af11580156109fc573d6000803e3d6000fd5b505050505b565b604080518082018252906002908290803883395091929150505600a165627a7a72305820c4f3d5ae05987d7062a64a2cd640d01dff803577614050344ddec281f2c628d50029",
  "source": "pragma solidity ^0.4.0;\n\nimport \"./VotingLib.sol\";\nimport \"../Common.sol\";\nimport \"./BaseProposal.sol\";\n\ncontract Module is BaseProposal {\n    enum Modules{State, Payment, VotingDecisions, Crowdsale, VotingFactory}\n    Modules public module;\n    address public newModuleAddress;\n\n    function Module(address _baseVoting, address _dao, string _name, string _description, uint _duration, uint _module, address _newAddress) {\n        require(_module >= 0 && _module <= 4);\n        baseVoting = _baseVoting;\n        votingType = \"Module\";\n        module = Modules(_module);\n        newModuleAddress = _newAddress;\n        VotingLib.delegatecallCreate(baseVoting, _dao, _name, _description, _duration, 80);\n        createOptions();\n    }\n\n    /*\n    * @dev Delegates request of finishing to the Voting base contract\n    */\n    function finish() public {\n        VotingLib.delegatecallFinish(baseVoting);\n        if(result.description == \"no\") return;\n\n        //Sorry but solidity doesn't support `switch` keyword\n        if (uint(module) == uint(Modules.State)) dao.setStateModule(newModuleAddress);\n        if (uint(module) == uint(Modules.Payment)) dao.setPaymentModule(newModuleAddress);\n        if (uint(module) == uint(Modules.VotingDecisions)) dao.setVotingDecisionModule(newModuleAddress);\n        if (uint(module) == uint(Modules.Crowdsale)) dao.setCrowdsaleModule(newModuleAddress);\n        if (uint(module) == uint(Modules.VotingFactory)) dao.setVotingFactoryAddress(newModuleAddress);\n    }\n}",
  "sourcePath": "/Users/giddeonwyeth/PhpstormProjects/dao/daox-contracts/contracts/Votings/Module.sol",
  "compiler": {
    "name": "solc",
    "version": "0.4.24+commit.e67f0147.Emscripten.clang"
  },
  "schemaVersion": "2.0.1",
  "updatedAt": "2018-07-04T11:04:25.470Z"
}