{
  "contractName": "NewService",
  "abi": [
    {
      "constant": false,
      "inputs": [
        {
          "name": "_optionID",
          "type": "uint256"
        }
      ],
      "name": "addVote",
      "outputs": [],
      "payable": false,
      "stateMutability": "nonpayable",
      "type": "function"
    },
    {
      "constant": true,
      "inputs": [],
      "name": "name",
      "outputs": [
        {
          "name": "",
          "type": "string"
        }
      ],
      "payable": false,
      "stateMutability": "view",
      "type": "function"
    },
    {
      "constant": true,
      "inputs": [],
      "name": "duration",
      "outputs": [
        {
          "name": "",
          "type": "uint256"
        }
      ],
      "payable": false,
      "stateMutability": "view",
      "type": "function"
    },
    {
      "constant": true,
      "inputs": [],
      "name": "quorum",
      "outputs": [
        {
          "name": "",
          "type": "uint256"
        }
      ],
      "payable": false,
      "stateMutability": "view",
      "type": "function"
    },
    {
      "constant": true,
      "inputs": [],
      "name": "minimalDuration",
      "outputs": [
        {
          "name": "",
          "type": "uint256"
        }
      ],
      "payable": false,
      "stateMutability": "view",
      "type": "function"
    },
    {
      "constant": true,
      "inputs": [
        {
          "name": "",
          "type": "uint256"
        }
      ],
      "name": "options",
      "outputs": [
        {
          "name": "votes",
          "type": "uint256"
        },
        {
          "name": "description",
          "type": "bytes32"
        }
      ],
      "payable": false,
      "stateMutability": "view",
      "type": "function"
    },
    {
      "constant": true,
      "inputs": [],
      "name": "result",
      "outputs": [
        {
          "name": "votes",
          "type": "uint256"
        },
        {
          "name": "description",
          "type": "bytes32"
        }
      ],
      "payable": false,
      "stateMutability": "view",
      "type": "function"
    },
    {
      "constant": true,
      "inputs": [],
      "name": "description",
      "outputs": [
        {
          "name": "",
          "type": "string"
        }
      ],
      "payable": false,
      "stateMutability": "view",
      "type": "function"
    },
    {
      "constant": true,
      "inputs": [],
      "name": "votesCount",
      "outputs": [
        {
          "name": "",
          "type": "uint256"
        }
      ],
      "payable": false,
      "stateMutability": "view",
      "type": "function"
    },
    {
      "constant": true,
      "inputs": [],
      "name": "created_at",
      "outputs": [
        {
          "name": "",
          "type": "uint256"
        }
      ],
      "payable": false,
      "stateMutability": "view",
      "type": "function"
    },
    {
      "constant": true,
      "inputs": [],
      "name": "votingType",
      "outputs": [
        {
          "name": "",
          "type": "string"
        }
      ],
      "payable": false,
      "stateMutability": "view",
      "type": "function"
    },
    {
      "constant": true,
      "inputs": [
        {
          "name": "",
          "type": "address"
        }
      ],
      "name": "voted",
      "outputs": [
        {
          "name": "",
          "type": "uint256"
        }
      ],
      "payable": false,
      "stateMutability": "view",
      "type": "function"
    },
    {
      "constant": true,
      "inputs": [],
      "name": "finished",
      "outputs": [
        {
          "name": "",
          "type": "bool"
        }
      ],
      "payable": false,
      "stateMutability": "view",
      "type": "function"
    },
    {
      "constant": true,
      "inputs": [],
      "name": "getOptions",
      "outputs": [
        {
          "name": "",
          "type": "uint256[2]"
        }
      ],
      "payable": false,
      "stateMutability": "view",
      "type": "function"
    },
    {
      "constant": true,
      "inputs": [],
      "name": "service",
      "outputs": [
        {
          "name": "",
          "type": "address"
        }
      ],
      "payable": false,
      "stateMutability": "view",
      "type": "function"
    },
    {
      "inputs": [
        {
          "name": "_baseVoting",
          "type": "address"
        },
        {
          "name": "_dao",
          "type": "address"
        },
        {
          "name": "_name",
          "type": "string"
        },
        {
          "name": "_description",
          "type": "string"
        },
        {
          "name": "_duration",
          "type": "uint256"
        },
        {
          "name": "_service",
          "type": "address"
        }
      ],
      "payable": false,
      "stateMutability": "nonpayable",
      "type": "constructor"
    },
    {
      "constant": false,
      "inputs": [],
      "name": "finish",
      "outputs": [],
      "payable": false,
      "stateMutability": "nonpayable",
      "type": "function"
    }
  ],
  "bytecode": "0x608060405242601e55601f805460ff1916905562093a806022553480156200002657600080fd5b5060405162000f8938038062000f898339810160408181528251602080850151838601516060870151608088015160a0890151878901909752600788527f636f6e6e65637400000000000000000000000000000000000000000000000000948801949094529396919590820194939091019290620000b4908683640100000000620007046200028a82021704565b60238054600160a060020a03808916600160a060020a031992831617928390556024805485831693169290921782556040517f120dce48000000000000000000000000000000000000000000000000000000008152928116600484018181529189169284019290925260848301859052605060a4840181905260c060448501908152885160c4860152885173__VotingLib_____________________________9563120dce4895948c948c948c948c94929392606481019160e490910190602089019080838360005b83811015620001975781810151838201526020016200017d565b50505050905090810190601f168015620001c55780820380516001836020036101000a031916815260200191505b50838103825286518152865160209182019188019080838360005b83811015620001fa578181015183820152602001620001e0565b50505050905090810190601f168015620002285780820380516001836020036101000a031916815260200191505b509850505050505050505060006040518083038186803b1580156200024c57600080fd5b505af415801562000261573d6000803e3d6000fd5b505050506200027e6200055c640100000000026401000000009004565b505050505050620005d6565b604080517f63616c6c000000000000000000000000000000000000000000000000000000008152905190819003600401812084516000928691819060208401908083835b60208310620002ef5780518252601f199092019160209182019101620002ce565b6001836020036101000a03801982511681845116808217855250505050505090500191505060405180910390206000191614620003b25781600160a060020a031663921cac7e6040518163ffffffff167c0100000000000000000000000000000000000000000000000000000000028152600401602060405180830381600087803b1580156200037e57600080fd5b505af115801562000393573d6000803e3d6000fd5b505050506040513d6020811015620003aa57600080fd5b505162000439565b81600160a060020a03166344b198186040518163ffffffff167c0100000000000000000000000000000000000000000000000000000000028152600401602060405180830381600087803b1580156200040a57600080fd5b505af11580156200041f573d6000803e3d6000fd5b505050506040513d60208110156200043657600080fd5b50515b905082600160a060020a031663601e538b6040518163ffffffff167c0100000000000000000000000000000000000000000000000000000000028152600401602060405180830381600087803b1580156200049357600080fd5b505af1158015620004a8573d6000803e3d6000fd5b505050506040513d6020811015620004bf57600080fd5b50518111156200055657604080517f08c379a000000000000000000000000000000000000000000000000000000000815260206004820152603960248201527f4e6f7420656e6f7567682044584320696e20696e697469616c2063617069746160448201527f6c20746f20636f6e6e6563742074686973207365727669636500000000000000606482015290519081900360840190fd5b50505050565b60408051808201825260008082527f79657300000000000000000000000000000000000000000000000000000000006020928301819052600582905560065582518084019093528083527f6e6f00000000000000000000000000000000000000000000000000000000000092909101829052600755600855565b6109a380620005e66000396000f3006080604052600436106100cc5763ffffffff60e060020a6000350416630383badc81146100d157806306fdde03146100eb5780630fb5a6b4146101755780631703a0181461019c5780632f572336146101b1578063409e2205146101c657806365372147146101f75780637284e4161461020c5780638778b27d146102215780639c6f0d8514610236578063a9aa6a9b1461024b578063aec2ccae14610260578063bef4876b14610281578063cc2ee196146102aa578063d56b2889146102fa578063d598d4c91461030f575b600080fd5b3480156100dd57600080fd5b506100e9600435610340565b005b3480156100f757600080fd5b506101006103d8565b6040805160208082528351818301528351919283929083019185019080838360005b8381101561013a578181015183820152602001610122565b50505050905090810190601f1680156101675780820380516001836020036101000a031916815260200191505b509250505060405180910390f35b34801561018157600080fd5b5061018a610465565b60408051918252519081900360200190f35b3480156101a857600080fd5b5061018a61046b565b3480156101bd57600080fd5b5061018a610471565b3480156101d257600080fd5b506101de600435610477565b6040805192835260208301919091528051918290030190f35b34801561020357600080fd5b506101de610496565b34801561021857600080fd5b5061010061049f565b34801561022d57600080fd5b5061018a6104f7565b34801561024257600080fd5b5061018a6104fd565b34801561025757600080fd5b50610100610503565b34801561026c57600080fd5b5061018a600160a060020a036004351661055e565b34801561028d57600080fd5b50610296610570565b604080519115158252519081900360200190f35b3480156102b657600080fd5b506102bf610579565b6040518082600260200280838360005b838110156102e75781810151838201526020016102cf565b5050505090500191505060405180910390f35b34801561030657600080fd5b506100e961059c565b34801561031b57600080fd5b506103246106da565b60408051600160a060020a039092168252519081900360200190f35b602354604080517f4adcade4000000000000000000000000000000000000000000000000000000008152600160a060020a039092166004830152602482018390525173__VotingLib_____________________________91634adcade4916044808301926000929190829003018186803b1580156103bd57600080fd5b505af41580156103d1573d6000803e3d6000fd5b5050505050565b60018054604080516020600284861615610100026000190190941693909304601f8101849004840282018401909252818152929183018282801561045d5780601f106104325761010080835404028352916020019161045d565b820191906000526020600020905b81548152906001019060200180831161044057829003601f168201915b505050505081565b601d5481565b60205481565b60225481565b600381600b811061048457fe5b60020201805460019091015490915082565b601a54601b5482565b6002805460408051602060018416156101000260001901909316849004601f8101849004840282018401909252818152929183018282801561045d5780601f106104325761010080835404028352916020019161045d565b601c5481565b601e5481565b6021805460408051602060026001851615610100026000190190941693909304601f8101849004840282018401909252818152929183018282801561045d5780601f106104325761010080835404028352916020019161045d565b60196020526000908152604090205481565b601f5460ff1681565b6105816106e9565b50604080518082019091526005548152600754602082015290565b602354604080517f1901910b000000000000000000000000000000000000000000000000000000008152600160a060020a0390921660048301525173__VotingLib_____________________________91631901910b916024808301926000929190829003018186803b15801561061257600080fd5b505af4158015610626573d6000803e3d6000fd5b5050601b547f7965730000000000000000000000000000000000000000000000000000000000141591506106d89050576000805460248054604080517f86114fcf000000000000000000000000000000000000000000000000000000008152600160a060020a039283166004820152905191909316936386114fcf93808401939192919082900301818387803b1580156106bf57600080fd5b505af11580156106d3573d6000803e3d6000fd5b505050505b565b602454600160a060020a031681565b60408051808201825290600290829080388339509192915050565b604080517f63616c6c000000000000000000000000000000000000000000000000000000008152905190819003600401812084516000928691819060208401908083835b602083106107675780518252601f199092019160209182019101610748565b6001836020036101000a0380198251168184511680821785525050505050509050019150506040518091039020600019161461080c5781600160a060020a031663921cac7e6040518163ffffffff1660e060020a028152600401602060405180830381600087803b1580156107db57600080fd5b505af11580156107ef573d6000803e3d6000fd5b505050506040513d602081101561080557600080fd5b5051610877565b81600160a060020a03166344b198186040518163ffffffff1660e060020a028152600401602060405180830381600087803b15801561084a57600080fd5b505af115801561085e573d6000803e3d6000fd5b505050506040513d602081101561087457600080fd5b50515b905082600160a060020a031663601e538b6040518163ffffffff1660e060020a028152600401602060405180830381600087803b1580156108b757600080fd5b505af11580156108cb573d6000803e3d6000fd5b505050506040513d60208110156108e157600080fd5b50518111156106d357604080517f08c379a000000000000000000000000000000000000000000000000000000000815260206004820152603960248201527f4e6f7420656e6f7567682044584320696e20696e697469616c2063617069746160448201527f6c20746f20636f6e6e6563742074686973207365727669636500000000000000606482015290519081900360840190fd00a165627a7a7230582054fb1c4859749342a6cd147581457527ee603f2b27297a906229f951d430d0860029",
  "source": "pragma solidity ^0.4.0;\n\nimport \"../VotingLib.sol\";\nimport \"../../Common.sol\";\nimport \"../BaseProposal.sol\";\n\ncontract NewService is BaseProposal {\n    address public service;\n\n    function NewService(address _baseVoting, address _dao, string _name, string _description, uint _duration, address _service) {\n        VotingLib.checkServicePrice(\"connect\", _dao, _service);\n        baseVoting = _baseVoting;\n        service = _service;\n        VotingLib.delegatecallCreate(baseVoting, _dao, _name, _description, _duration, 80);\n        createOptions();\n    }\n\n    /*\n    * @dev Delegates request of finishing to the Voting base contract\n    */\n    function finish() public {\n        VotingLib.delegatecallFinish(baseVoting);\n        if(result.description == \"yes\") dao.connectService(service);\n    }\n}",
  "sourcePath": "/Users/giddeonwyeth/PhpstormProjects/dao/daox-contracts/contracts/Votings/Service/NewService.sol",
  "compiler": {
    "name": "solc",
    "version": "0.4.24+commit.e67f0147.Emscripten.clang"
  },
  "schemaVersion": "2.0.1",
  "updatedAt": "2018-07-19T15:51:04.685Z"
}