{
  "contractName": "Payment",
  "abi": [
    {
      "constant": true,
      "inputs": [],
      "name": "lockup",
      "outputs": [
        {
          "name": "",
          "type": "uint256"
        }
      ],
      "payable": false,
      "stateMutability": "view",
      "type": "function"
    },
    {
      "constant": true,
      "inputs": [],
      "name": "name",
      "outputs": [
        {
          "name": "",
          "type": "string"
        }
      ],
      "payable": false,
      "stateMutability": "view",
      "type": "function"
    },
    {
      "constant": true,
      "inputs": [],
      "name": "tokensMintedByEther",
      "outputs": [
        {
          "name": "",
          "type": "uint256"
        }
      ],
      "payable": false,
      "stateMutability": "view",
      "type": "function"
    },
    {
      "constant": true,
      "inputs": [
        {
          "name": "",
          "type": "address"
        }
      ],
      "name": "teamMap",
      "outputs": [
        {
          "name": "",
          "type": "bool"
        }
      ],
      "payable": false,
      "stateMutability": "view",
      "type": "function"
    },
    {
      "constant": true,
      "inputs": [
        {
          "name": "",
          "type": "address"
        }
      ],
      "name": "depositedWei",
      "outputs": [
        {
          "name": "",
          "type": "uint256"
        }
      ],
      "payable": false,
      "stateMutability": "view",
      "type": "function"
    },
    {
      "constant": true,
      "inputs": [
        {
          "name": "",
          "type": "uint256"
        }
      ],
      "name": "team",
      "outputs": [
        {
          "name": "",
          "type": "address"
        }
      ],
      "payable": false,
      "stateMutability": "view",
      "type": "function"
    },
    {
      "constant": true,
      "inputs": [],
      "name": "commissionRaised",
      "outputs": [
        {
          "name": "",
          "type": "uint256"
        }
      ],
      "payable": false,
      "stateMutability": "view",
      "type": "function"
    },
    {
      "constant": true,
      "inputs": [],
      "name": "refundableSoftCap",
      "outputs": [
        {
          "name": "",
          "type": "bool"
        }
      ],
      "payable": false,
      "stateMutability": "view",
      "type": "function"
    },
    {
      "constant": true,
      "inputs": [],
      "name": "votingPrice",
      "outputs": [
        {
          "name": "",
          "type": "uint256"
        }
      ],
      "payable": false,
      "stateMutability": "view",
      "type": "function"
    },
    {
      "constant": true,
      "inputs": [
        {
          "name": "",
          "type": "uint256"
        }
      ],
      "name": "teamBonusesArr",
      "outputs": [
        {
          "name": "",
          "type": "uint256"
        }
      ],
      "payable": false,
      "stateMutability": "view",
      "type": "function"
    },
    {
      "constant": true,
      "inputs": [
        {
          "name": "",
          "type": "uint256"
        }
      ],
      "name": "teamServiceMember",
      "outputs": [
        {
          "name": "",
          "type": "bool"
        }
      ],
      "payable": false,
      "stateMutability": "view",
      "type": "function"
    },
    {
      "constant": true,
      "inputs": [],
      "name": "endTime",
      "outputs": [
        {
          "name": "",
          "type": "uint256"
        }
      ],
      "payable": false,
      "stateMutability": "view",
      "type": "function"
    },
    {
      "constant": true,
      "inputs": [],
      "name": "serviceContract",
      "outputs": [
        {
          "name": "",
          "type": "address"
        }
      ],
      "payable": false,
      "stateMutability": "view",
      "type": "function"
    },
    {
      "constant": true,
      "inputs": [
        {
          "name": "",
          "type": "address"
        }
      ],
      "name": "votings",
      "outputs": [
        {
          "name": "",
          "type": "address"
        }
      ],
      "payable": false,
      "stateMutability": "view",
      "type": "function"
    },
    {
      "constant": true,
      "inputs": [
        {
          "name": "",
          "type": "address"
        }
      ],
      "name": "whiteList",
      "outputs": [
        {
          "name": "",
          "type": "bool"
        }
      ],
      "payable": false,
      "stateMutability": "view",
      "type": "function"
    },
    {
      "constant": true,
      "inputs": [],
      "name": "canInitStateParameters",
      "outputs": [
        {
          "name": "",
          "type": "bool"
        }
      ],
      "payable": false,
      "stateMutability": "view",
      "type": "function"
    },
    {
      "constant": true,
      "inputs": [
        {
          "name": "",
          "type": "uint256"
        }
      ],
      "name": "whiteListArr",
      "outputs": [
        {
          "name": "",
          "type": "address"
        }
      ],
      "payable": false,
      "stateMutability": "view",
      "type": "function"
    },
    {
      "constant": true,
      "inputs": [],
      "name": "weiRaised",
      "outputs": [
        {
          "name": "",
          "type": "uint256"
        }
      ],
      "payable": false,
      "stateMutability": "view",
      "type": "function"
    },
    {
      "constant": true,
      "inputs": [],
      "name": "DXCRaised",
      "outputs": [
        {
          "name": "",
          "type": "uint256"
        }
      ],
      "payable": false,
      "stateMutability": "view",
      "type": "function"
    },
    {
      "constant": true,
      "inputs": [],
      "name": "version",
      "outputs": [
        {
          "name": "",
          "type": "bytes32"
        }
      ],
      "payable": false,
      "stateMutability": "view",
      "type": "function"
    },
    {
      "constant": true,
      "inputs": [
        {
          "name": "",
          "type": "uint256"
        }
      ],
      "name": "bonusDXCRates",
      "outputs": [
        {
          "name": "",
          "type": "uint256"
        }
      ],
      "payable": false,
      "stateMutability": "view",
      "type": "function"
    },
    {
      "constant": true,
      "inputs": [],
      "name": "canSetWhiteList",
      "outputs": [
        {
          "name": "",
          "type": "bool"
        }
      ],
      "payable": false,
      "stateMutability": "view",
      "type": "function"
    },
    {
      "constant": true,
      "inputs": [],
      "name": "initialCapital",
      "outputs": [
        {
          "name": "",
          "type": "uint256"
        }
      ],
      "payable": false,
      "stateMutability": "view",
      "type": "function"
    },
    {
      "constant": true,
      "inputs": [],
      "name": "serviceVotingFactory",
      "outputs": [
        {
          "name": "",
          "type": "address"
        }
      ],
      "payable": false,
      "stateMutability": "view",
      "type": "function"
    },
    {
      "constant": true,
      "inputs": [],
      "name": "tokensMintedByDXC",
      "outputs": [
        {
          "name": "",
          "type": "uint256"
        }
      ],
      "payable": false,
      "stateMutability": "view",
      "type": "function"
    },
    {
      "constant": true,
      "inputs": [],
      "name": "fundsRaised",
      "outputs": [
        {
          "name": "",
          "type": "uint256"
        }
      ],
      "payable": false,
      "stateMutability": "view",
      "type": "function"
    },
    {
      "constant": true,
      "inputs": [
        {
          "name": "",
          "type": "uint256"
        }
      ],
      "name": "teamHold",
      "outputs": [
        {
          "name": "",
          "type": "uint256"
        }
      ],
      "payable": false,
      "stateMutability": "view",
      "type": "function"
    },
    {
      "constant": true,
      "inputs": [
        {
          "name": "",
          "type": "address"
        }
      ],
      "name": "services",
      "outputs": [
        {
          "name": "",
          "type": "bool"
        }
      ],
      "payable": false,
      "stateMutability": "view",
      "type": "function"
    },
    {
      "constant": true,
      "inputs": [],
      "name": "description",
      "outputs": [
        {
          "name": "",
          "type": "string"
        }
      ],
      "payable": false,
      "stateMutability": "view",
      "type": "function"
    },
    {
      "constant": true,
      "inputs": [],
      "name": "startTime",
      "outputs": [
        {
          "name": "",
          "type": "uint256"
        }
      ],
      "payable": false,
      "stateMutability": "view",
      "type": "function"
    },
    {
      "constant": true,
      "inputs": [
        {
          "name": "",
          "type": "address"
        }
      ],
      "name": "depositedDXC",
      "outputs": [
        {
          "name": "",
          "type": "uint256"
        }
      ],
      "payable": false,
      "stateMutability": "view",
      "type": "function"
    },
    {
      "constant": true,
      "inputs": [],
      "name": "softCap",
      "outputs": [
        {
          "name": "",
          "type": "uint256"
        }
      ],
      "payable": false,
      "stateMutability": "view",
      "type": "function"
    },
    {
      "constant": true,
      "inputs": [],
      "name": "DXC",
      "outputs": [
        {
          "name": "",
          "type": "address"
        }
      ],
      "payable": false,
      "stateMutability": "view",
      "type": "function"
    },
    {
      "constant": true,
      "inputs": [],
      "name": "canInitCrowdsaleParameters",
      "outputs": [
        {
          "name": "",
          "type": "bool"
        }
      ],
      "payable": false,
      "stateMutability": "view",
      "type": "function"
    },
    {
      "constant": true,
      "inputs": [],
      "name": "created_at",
      "outputs": [
        {
          "name": "",
          "type": "uint256"
        }
      ],
      "payable": false,
      "stateMutability": "view",
      "type": "function"
    },
    {
      "constant": true,
      "inputs": [],
      "name": "DXCRate",
      "outputs": [
        {
          "name": "",
          "type": "uint256"
        }
      ],
      "payable": false,
      "stateMutability": "view",
      "type": "function"
    },
    {
      "constant": true,
      "inputs": [],
      "name": "lastWithdrawalTimestamp",
      "outputs": [
        {
          "name": "",
          "type": "uint256"
        }
      ],
      "payable": false,
      "stateMutability": "view",
      "type": "function"
    },
    {
      "constant": true,
      "inputs": [],
      "name": "teamTokensAmount",
      "outputs": [
        {
          "name": "",
          "type": "uint256"
        }
      ],
      "payable": false,
      "stateMutability": "view",
      "type": "function"
    },
    {
      "constant": true,
      "inputs": [],
      "name": "votingFactory",
      "outputs": [
        {
          "name": "",
          "type": "address"
        }
      ],
      "payable": false,
      "stateMutability": "view",
      "type": "function"
    },
    {
      "constant": true,
      "inputs": [],
      "name": "refundable",
      "outputs": [
        {
          "name": "",
          "type": "bool"
        }
      ],
      "payable": false,
      "stateMutability": "view",
      "type": "function"
    },
    {
      "constant": true,
      "inputs": [],
      "name": "canInitBonuses",
      "outputs": [
        {
          "name": "",
          "type": "bool"
        }
      ],
      "payable": false,
      "stateMutability": "view",
      "type": "function"
    },
    {
      "constant": true,
      "inputs": [],
      "name": "newDXCRate",
      "outputs": [
        {
          "name": "",
          "type": "uint256"
        }
      ],
      "payable": false,
      "stateMutability": "view",
      "type": "function"
    },
    {
      "constant": true,
      "inputs": [
        {
          "name": "",
          "type": "address"
        }
      ],
      "name": "initialCapitalIncr",
      "outputs": [
        {
          "name": "",
          "type": "uint256"
        }
      ],
      "payable": false,
      "stateMutability": "view",
      "type": "function"
    },
    {
      "constant": true,
      "inputs": [],
      "name": "etherRate",
      "outputs": [
        {
          "name": "",
          "type": "uint256"
        }
      ],
      "payable": false,
      "stateMutability": "view",
      "type": "function"
    },
    {
      "constant": true,
      "inputs": [
        {
          "name": "",
          "type": "uint256"
        }
      ],
      "name": "bonusEtherRates",
      "outputs": [
        {
          "name": "",
          "type": "uint256"
        }
      ],
      "payable": false,
      "stateMutability": "view",
      "type": "function"
    },
    {
      "constant": true,
      "inputs": [],
      "name": "commissionContract",
      "outputs": [
        {
          "name": "",
          "type": "address"
        }
      ],
      "payable": false,
      "stateMutability": "view",
      "type": "function"
    },
    {
      "constant": true,
      "inputs": [
        {
          "name": "",
          "type": "address"
        }
      ],
      "name": "teamBonuses",
      "outputs": [
        {
          "name": "",
          "type": "uint256"
        }
      ],
      "payable": false,
      "stateMutability": "view",
      "type": "function"
    },
    {
      "constant": true,
      "inputs": [],
      "name": "newEtherRate",
      "outputs": [
        {
          "name": "",
          "type": "uint256"
        }
      ],
      "payable": false,
      "stateMutability": "view",
      "type": "function"
    },
    {
      "constant": true,
      "inputs": [],
      "name": "proxyAPI",
      "outputs": [
        {
          "name": "",
          "type": "address"
        }
      ],
      "payable": false,
      "stateMutability": "view",
      "type": "function"
    },
    {
      "constant": true,
      "inputs": [],
      "name": "dxcPayments",
      "outputs": [
        {
          "name": "",
          "type": "bool"
        }
      ],
      "payable": false,
      "stateMutability": "view",
      "type": "function"
    },
    {
      "constant": true,
      "inputs": [
        {
          "name": "",
          "type": "uint256"
        }
      ],
      "name": "bonusPeriods",
      "outputs": [
        {
          "name": "",
          "type": "uint256"
        }
      ],
      "payable": false,
      "stateMutability": "view",
      "type": "function"
    },
    {
      "constant": true,
      "inputs": [],
      "name": "crowdsaleFinished",
      "outputs": [
        {
          "name": "",
          "type": "bool"
        }
      ],
      "payable": false,
      "stateMutability": "view",
      "type": "function"
    },
    {
      "constant": true,
      "inputs": [],
      "name": "hardCap",
      "outputs": [
        {
          "name": "",
          "type": "uint256"
        }
      ],
      "payable": false,
      "stateMutability": "view",
      "type": "function"
    },
    {
      "constant": true,
      "inputs": [],
      "name": "token",
      "outputs": [
        {
          "name": "",
          "type": "address"
        }
      ],
      "payable": false,
      "stateMutability": "view",
      "type": "function"
    },
    {
      "constant": false,
      "inputs": [],
      "name": "refund",
      "outputs": [],
      "payable": false,
      "stateMutability": "nonpayable",
      "type": "function"
    },
    {
      "constant": false,
      "inputs": [],
      "name": "refundSoftCap",
      "outputs": [],
      "payable": false,
      "stateMutability": "nonpayable",
      "type": "function"
    },
    {
      "constant": false,
      "inputs": [
        {
          "name": "_from",
          "type": "address"
        },
        {
          "name": "_dxcAmount",
          "type": "uint256"
        }
      ],
      "name": "handleDXCPayment",
      "outputs": [],
      "payable": false,
      "stateMutability": "nonpayable",
      "type": "function"
    }
  ],
  "bytecode": "0x60806040526006805463ff0000001962ff00001961ff001960ff19938416600117811661010017919091166201000017919091166301000000179092556000600781905560088190556009819055600a819055600d8054909316909255600e829055600f82905542601c55601e80549091169055601f819055602b819055602c819055602d5534801561009157600080fd5b50611399806100a16000396000f30060806040526004361061028f5763ffffffff60e060020a60003504166306490f47811461029457806306fdde03146102bb5780630ce57c251461034557806310be8d121461035a578063123379931461038f578063197ebd53146103b05780631e782df5146103e4578063289a03b0146103f95780632948b4e91461040e5780632eeacc5f1461042357806330c5a0f21461043b5780633197cbb614610453578063364dab1014610468578063369ef7221461047d578063372c12b11461049e578063395ad021146104bf5780633b541bdb146104d45780634042b66f146104ec5780634f0653681461050157806354fd4d501461051657806356428fe51461052b578063590e1ae3146105435780635f30b6451461055a578063601e538b1461056f57806362a2b3721461058457806362c64639146105995780636681b9fd146105ae5780636922b214146105c35780636d966d01146105db5780637284e416146105fc57806378e97925146106115780637d6d3b8c14610626578063906a26e014610647578063908368221461065c578063939eaf9f146106715780639b95a835146106955780639c6f0d85146106aa5780639e58779e146106bf578063a62c4169146106d4578063a88f893a146106e9578063bb24c54b146106fe578063bf89662d14610713578063c0ef7a6d14610728578063c18f18e81461073d578063cc9e4fd414610752578063d0f7a60114610773578063d3da662814610788578063da7801b31461079d578063da8909e5146107b5578063db13c725146107ca578063e2278f2f146107eb578063e2a7937b14610800578063e3bd043a14610815578063e9fdfb891461082a578063ece84fd514610842578063fb86a40414610857578063fc0c546a1461086c575b600080fd5b3480156102a057600080fd5b506102a9610881565b60408051918252519081900360200190f35b3480156102c757600080fd5b506102d0610887565b6040805160208082528351818301528351919283929083019185019080838360005b8381101561030a5781810151838201526020016102f2565b50505050905090810190601f1680156103375780820380516001836020036101000a031916815260200191505b509250505060405180910390f35b34801561035157600080fd5b506102a9610915565b34801561036657600080fd5b5061037b600160a060020a036004351661091b565b604080519115158252519081900360200190f35b34801561039b57600080fd5b506102a9600160a060020a0360043516610930565b3480156103bc57600080fd5b506103c8600435610942565b60408051600160a060020a039092168252519081900360200190f35b3480156103f057600080fd5b506102a961096a565b34801561040557600080fd5b5061037b610970565b34801561041a57600080fd5b506102a961097e565b34801561042f57600080fd5b506102a9600435610984565b34801561044757600080fd5b5061037b6004356109a3565b34801561045f57600080fd5b506102a96109d5565b34801561047457600080fd5b506103c86109db565b34801561048957600080fd5b506103c8600160a060020a03600435166109ea565b3480156104aa57600080fd5b5061037b600160a060020a0360043516610a05565b3480156104cb57600080fd5b5061037b610a1a565b3480156104e057600080fd5b506103c8600435610a28565b3480156104f857600080fd5b506102a9610a36565b34801561050d57600080fd5b506102a9610a3c565b34801561052257600080fd5b506102a9610a42565b34801561053757600080fd5b506102a9600435610a66565b34801561054f57600080fd5b50610558610a74565b005b34801561056657600080fd5b5061037b610e1e565b34801561057b57600080fd5b506102a9610e2e565b34801561059057600080fd5b506103c8610e34565b3480156105a557600080fd5b506102a9610e43565b3480156105ba57600080fd5b506102a9610e49565b3480156105cf57600080fd5b506102a9600435610e4f565b3480156105e757600080fd5b5061037b600160a060020a0360043516610e5d565b34801561060857600080fd5b506102d0610e72565b34801561061d57600080fd5b506102a9610ecd565b34801561063257600080fd5b506102a9600160a060020a0360043516610ed3565b34801561065357600080fd5b506102a9610ee5565b34801561066857600080fd5b506103c8610eeb565b34801561067d57600080fd5b50610558600160a060020a0360043516602435610efa565b3480156106a157600080fd5b5061037b6110ae565b3480156106b657600080fd5b506102a96110b7565b3480156106cb57600080fd5b506102a96110bd565b3480156106e057600080fd5b506102a96110c3565b3480156106f557600080fd5b506102a96110c9565b34801561070a57600080fd5b506103c86110cf565b34801561071f57600080fd5b5061037b6110de565b34801561073457600080fd5b5061037b6110e7565b34801561074957600080fd5b506102a96110f6565b34801561075e57600080fd5b506102a9600160a060020a03600435166110fc565b34801561077f57600080fd5b506102a961110e565b34801561079457600080fd5b50610558611114565b3480156107a957600080fd5b506102a96004356112ba565b3480156107c157600080fd5b506103c86112c8565b3480156107d657600080fd5b506102a9600160a060020a03600435166112d7565b3480156107f757600080fd5b506102a96112e9565b34801561080c57600080fd5b506103c86112ef565b34801561082157600080fd5b5061037b6112fe565b34801561083657600080fd5b506102a9600435611307565b34801561084e57600080fd5b5061037b611315565b34801561086357600080fd5b506102a961131e565b34801561087857600080fd5b506103c8611324565b602b5481565b601a805460408051602060026001851615610100026000190190941693909304601f8101849004840282018401909252818152929183018282801561090d5780601f106108e25761010080835404028352916020019161090d565b820191906000526020600020905b8154815290600101906020018083116108f057829003601f168201915b505050505081565b60285481565b60136020526000908152604090205460ff1681565b600b6020526000908152604090205481565b601280548290811061095057fe5b600091825260209091200154600160a060020a0316905081565b60075481565b600d54610100900460ff1681565b602d5481565b601180548290811061099257fe5b600091825260209091200154905081565b60158054829081106109b157fe5b9060005260206000209060209182820401919006915054906101000a900460ff1681565b60055481565b601054600160a060020a031681565b601d60205260009081526040902054600160a060020a031681565b60216020526000908152604090205460ff1681565b600654610100900460ff1681565b602080548290811061095057fe5b60085481565b60095481565b7f312e302e3000000000000000000000000000000000000000000000000000000081565b602580548290811061099257fe5b601e5460009081908190819060ff161515610a8e57600080fd5b3360009081526013602052604090205460ff1615610aab57600080fd5b610ab9602854602954611333565b935083610ac96028546064611349565b811515610ad257fe5b04925083610ae36029546064611349565b811515610aec57fe5b601654604080517f70a082310000000000000000000000000000000000000000000000000000000081523360048201529051939092049450600160a060020a0316916370a08231916024808201926020929091908290030181600087803b158015610b5657600080fd5b505af1158015610b6a573d6000803e3d6000fd5b505050506040513d6020811015610b8057600080fd5b5051601654604080517f89afcb440000000000000000000000000000000000000000000000000000000081523360048201529051929350600160a060020a03909116916389afcb449160248082019260009290919082900301818387803b158015610bea57600080fd5b505af1158015610bfe573d6000803e3d6000fd5b505084159150610ce090505733600160a060020a03166108fc73__DAOLib________________________________63331aefa0848702600054600e54620186a06040518563ffffffff1660e060020a0281526004018085815260200184815260200183815260200182815260200194505050505060206040518083038186803b158015610c8a57600080fd5b505af4158015610c9e573d6000803e3d6000fd5b505050506040513d6020811015610cb457600080fd5b50516040518115909202916000818181858888f19350505050158015610cde573d6000803e3d6000fd5b505b8115610e1857602754600154600f54604080517f331aefa0000000000000000000000000000000000000000000000000000000008152868602600482015260248101939093526044830191909152620186a0606483015251600160a060020a039092169163a9059cbb91339173__DAOLib________________________________9163331aefa0916084808301926020929190829003018186803b158015610d8757600080fd5b505af4158015610d9b573d6000803e3d6000fd5b505050506040513d6020811015610db157600080fd5b50516040805160e060020a63ffffffff8616028152600160a060020a039093166004840152602483019190915251604480830192600092919082900301818387803b158015610dff57600080fd5b505af1158015610e13573d6000803e3d6000fd5b505050505b50505050565b6006546301000000900460ff1681565b602c5481565b601854600160a060020a031681565b60295481565b600a5481565b601480548290811061099257fe5b60306020526000908152604090205460ff1681565b601b805460408051602060026001851615610100026000190190941693909304601f8101849004840282018401909252818152929183018282801561090d5780601f106108e25761010080835404028352916020019161090d565b60045481565b600c6020526000908152604090205481565b60025481565b602754600160a060020a031681565b60065460ff1680610f0c575042600454115b80610f2c5750600d5460ff168015610f2c5750600d54610100900460ff16155b1515610fe557604080517f08c379a000000000000000000000000000000000000000000000000000000000815260206004820152604160248201527f4d6574686f642063616e2062652063616c6c6564206f6e6c792061667465722060448201527f7375636365737366756c2063726f776473616c65206f72206265666f7265206960648201527f7400000000000000000000000000000000000000000000000000000000000000608482015290519081900360a40190fd5b602754600160a060020a0316331461108457604080517f08c379a000000000000000000000000000000000000000000000000000000000815260206004820152602b60248201527f4d6574686f642063616e2062652063616c6c6564206f6e6c792066726f6d204460448201527f584320636f6e7472616374000000000000000000000000000000000000000000606482015290519081900360840190fd5b602c805482019055600160a060020a039091166000908152602e6020526040902080549091019055565b60065460ff1681565b601c5481565b60015481565b601f5481565b60265481565b601754600160a060020a031681565b601e5460ff1681565b60065462010000900460ff1681565b600f5481565b602e6020526000908152604090205481565b60005481565b600d546000908190610100900460ff16151561112f57600080fd5b336000908152600b602052604090205415158061115a5750336000908152600c602052604090205415155b151561116557600080fd5b601654604080517f89afcb440000000000000000000000000000000000000000000000000000000081523360048201529051600160a060020a03909216916389afcb449160248082019260009290919082900301818387803b1580156111ca57600080fd5b505af11580156111de573d6000803e3d6000fd5b5050336000818152600b602090815260408083208054600c90935281842080549185905584905560275482517fa9059cbb00000000000000000000000000000000000000000000000000000000815260048101969096526024860182905291519298509650600160a060020a0316945063a9059cbb935060448084019382900301818387803b15801561127057600080fd5b505af1158015611284573d6000803e3d6000fd5b505060405133925084156108fc02915084906000818181858888f193505050501580156112b5573d6000803e3d6000fd5b505050565b602480548290811061099257fe5b601954600160a060020a031681565b60226020526000908152604090205481565b600e5481565b602f54600160a060020a031681565b602a5460ff1681565b602380548290811061099257fe5b600d5460ff1681565b60035481565b601654600160a060020a031681565b60008282018381101561134257fe5b9392505050565b6000828202831580611365575082848281151561136257fe5b04145b151561134257fe00a165627a7a72305820f95c1bc3d9127485ab77827f6d4b7554b3d1194fa0eee933cd55c9412c4f0c9f0029",
  "source": "pragma solidity 0.4.24;\n\nimport '../../../node_modules/zeppelin-solidity/contracts/math/SafeMath.sol';\nimport \"../DAOLib.sol\";\nimport \"../../Token/TokenInterface.sol\";\nimport \"../CrowdsaleDAOFields.sol\";\n\ncontract Payment is CrowdsaleDAOFields {\n    /*\n    * @dev Returns funds to participant according to amount of funds that left in DAO and amount of tokens for this participant\n    */\n    function refund() whenRefundable notTeamMember {\n        uint tokensMintedSum = SafeMath.add(tokensMintedByEther, tokensMintedByDXC);\n        uint etherPerDXCRate = SafeMath.mul(tokensMintedByEther, percentMultiplier) / tokensMintedSum;\n        uint dxcPerEtherRate = SafeMath.mul(tokensMintedByDXC, percentMultiplier) / tokensMintedSum;\n\n        uint tokensAmount = token.balanceOf(msg.sender);\n        token.burn(msg.sender);\n\n        if (etherPerDXCRate != 0)\n            msg.sender.transfer(DAOLib.countRefundSum(etherPerDXCRate * tokensAmount, etherRate, newEtherRate, multiplier));\n\n        if (dxcPerEtherRate != 0)\n            DXC.transfer(msg.sender, DAOLib.countRefundSum(dxcPerEtherRate * tokensAmount, DXCRate, newDXCRate, multiplier));\n    }\n\n    /*\n    * @dev Returns funds which were sent to crowdsale contract back to backer and burns tokens that were minted for him\n    */\n    function refundSoftCap() whenRefundableSoftCap {\n        require(depositedWei[msg.sender] != 0 || depositedDXC[msg.sender] != 0);\n\n        token.burn(msg.sender);\n        uint weiAmount = depositedWei[msg.sender];\n        uint tokensAmount = depositedDXC[msg.sender];\n\n        delete depositedWei[msg.sender];\n        delete depositedDXC[msg.sender];\n\n        DXC.transfer(msg.sender, tokensAmount);\n        msg.sender.transfer(weiAmount);\n    }\n\n    /*\n    * @dev Receives info about address which sent DXC tokens to current contract and about amount of sent tokens from\n    *       DXC token contract and then increases initial capital of DAO and amount of sent tokens for sender\n    * @param _from Address which sent DXC tokens\n    * @param _amount Amount of tokens which were sent\n    */\n    function handleDXCPayment(address _from, uint _dxcAmount) external crowdsaleNotOngoing onlyDXC {\n        initialCapital += _dxcAmount;\n        initialCapitalIncr[_from] += _dxcAmount;\n    }\n\n    modifier crowdsaleNotOngoing() {\n        require(\n            canInitCrowdsaleParameters || startTime > now || (crowdsaleFinished && !refundableSoftCap),\n            \"Method can be called only after successful crowdsale or before it\"\n        );\n        _;\n    }\n\n    modifier whenRefundable() {\n        require(refundable);\n        _;\n    }\n\n    modifier whenRefundableSoftCap() {\n        require(refundableSoftCap);\n        _;\n    }\n\n    modifier onlyParticipant {\n        require(token.balanceOf(msg.sender) > 0);\n        _;\n    }\n\n    modifier notTeamMember() {\n        require(!teamMap[msg.sender]);\n        _;\n    }\n\n    modifier onlyDXC() {\n        require(msg.sender == address(DXC), \"Method can be called only from DXC contract\");\n        _;\n    }\n}\n",
  "sourcePath": "/Users/giddeonwyeth/PhpstormProjects/dao/daox-contracts/contracts/DAO/Modules/Payment.sol",
  "compiler": {
    "name": "solc",
    "version": "0.4.24+commit.e67f0147.Emscripten.clang"
  },
  "schemaVersion": "2.0.1",
  "updatedAt": "2018-07-10T13:42:04.576Z"
}