{
  "contractName": "ProxyAPI",
  "abi": [
    {
      "constant": true,
      "inputs": [
        {
          "name": "",
          "type": "address"
        }
      ],
      "name": "availableCalls",
      "outputs": [
        {
          "name": "",
          "type": "address"
        }
      ],
      "payable": false,
      "stateMutability": "view",
      "type": "function"
    },
    {
      "constant": false,
      "inputs": [
        {
          "name": "_address",
          "type": "address"
        },
        {
          "name": "method",
          "type": "bytes32"
        },
        {
          "name": "args",
          "type": "bytes32[10]"
        }
      ],
      "name": "callService",
      "outputs": [],
      "payable": false,
      "stateMutability": "nonpayable",
      "type": "function"
    },
    {
      "constant": false,
      "inputs": [
        {
          "name": "method",
          "type": "bytes32"
        },
        {
          "name": "value",
          "type": "bytes32"
        }
      ],
      "name": "callDAOSetter",
      "outputs": [],
      "payable": false,
      "stateMutability": "nonpayable",
      "type": "function"
    }
  ],
  "bytecode": "0x608060405234801561001057600080fd5b506108c9806100206000396000f30060806040526004361061003d5763ffffffff60e060020a60003504166380a8cb0a8114610042578063b31916ab1461005f578063d411fffc1461009c575b600080fd5b34801561004e57600080fd5b5061005d6004356024356100c2565b005b34801561006b57600080fd5b50610080600160a060020a0360043516610290565b60408051600160a060020a039092168252519081900360200190f35b3480156100a857600080fd5b5061005d600160a060020a036004351660243560446102ab565b33600090815260208190526040902054606090600160a060020a0316151561017157604080517f08c379a000000000000000000000000000000000000000000000000000000000815260206004820152602860248201527f536574746572206973206e6f7420617661696c61626c6520666f72207468697360448201527f2061646472657373000000000000000000000000000000000000000000000000606482015290519081900360840190fd5b3360009081526020819052604090205461019490600160a060020a031684610438565b336000908152602081815260408083205481517fbef24bb40000000000000000000000000000000000000000000000000000000081526024810188905260048101928352855160448201528551959650600160a060020a039091169463bef24bb49487948994938493606490910192918701918190849084905b8381101561022657818101518382015260200161020e565b50505050905090810190601f1680156102535780820380516001836020036101000a031916815260200191505b509350505050600060405180830381600087803b15801561027357600080fd5b505af1158015610287573d6000803e3d6000fd5b50505050505050565b600060208190529081526040902054600160a060020a031681565b600160a060020a0383166000908152602081905260409020805473ffffffffffffffffffffffffffffffffffffffff19163317905560606102eb8361070f565b905083600160a060020a0316816040518082805190602001908083835b602083106103275780518252601f199092019160209182019101610308565b6001836020036101000a038019825116818451168082178552505050505050905001915050604051809103902060e060020a9004836040518263ffffffff1660e060020a0281526004018082600a602002808284376040519201935060009250508083038183875af192505050151561040157604080517f08c379a000000000000000000000000000000000000000000000000000000000815260206004820152601d60248201527f536572766963652063616c6c20656e6465642077697468206572726f72000000604482015290519081900360640190fd5b505050600160a060020a03166000908152602081905260409020805473ffffffffffffffffffffffffffffffffffffffff19169055565b60608073__TypesConverter________________________639201de5585600160a060020a0316632d9d4b536040518163ffffffff1660e060020a028152600401602060405180830381600087803b15801561049357600080fd5b505af11580156104a7573d6000803e3d6000fd5b505050506040513d60208110156104bd57600080fd5b5051604080517f2422224e000000000000000000000000000000000000000000000000000000008152600481018890529051600160a060020a0390921691632422224e916024808201926020929091908290030181600087803b15801561052357600080fd5b505af1158015610537573d6000803e3d6000fd5b505050506040513d602081101561054d57600080fd5b50516040805160e060020a63ffffffff85160281526004810192909252516024808301926000929190829003018186803b15801561058a57600080fd5b505af415801561059e573d6000803e3d6000fd5b505050506040513d6000823e601f3d908101601f1916820160405260208110156105c757600080fd5b8101908080516401000000008111156105df57600080fd5b820160208101848111156105f257600080fd5b815164010000000081118282018710171561060c57600080fd5b505060405181519195507fc5d2460186f7233c927e7db2dcc703c0e500b653ca82273b7bfad8045d85a47094508593509150819060208401908083835b602083106106685780518252601f199092019160209182019101610649565b6001836020036101000a0380198251168184511680821785525050505050509050019150506040518091039020600019161415151561070857604080517f08c379a000000000000000000000000000000000000000000000000000000000815260206004820152600e60248201527f4e6f207375636820736574746572000000000000000000000000000000000000604482015290519081900360640190fd5b9392505050565b604080517f9201de55000000000000000000000000000000000000000000000000000000008152600481018390529051606091829173__TypesConverter________________________91639201de55916024808301926000929190829003018186803b15801561077f57600080fd5b505af4158015610793573d6000803e3d6000fd5b505050506040513d6000823e601f3d908101601f1916820160405260208110156107bc57600080fd5b8101908080516401000000008111156107d457600080fd5b820160208101848111156107e757600080fd5b815164010000000081118282018710171561080157600080fd5b50509291905050506040516020018082805190602001908083835b6020831061083b5780518252601f19909201916020918201910161081c565b5181516020939093036101000a60001901801990911692169190911790527f28627974657333325b31305d290000000000000000000000000000000000000092019182525060408051808303601219018152600d9092019052959450505050505600a165627a7a72305820f48ba7c0cc0f0dc9b4fb3fa831671b74b4e14947e17d0cd07ce31cbb1a279d4f0029",
  "source": "pragma solidity 0.4.24;\n\nimport \"./TypesConverter.sol\";\n\ninterface IDaoAPI {\n    function apiSettersModule() view returns(address);\n\n    function handleAPICall(string signature, bytes32 value) external;\n}\n\ninterface IAllowedSetters {\n    function signatures(bytes32 method) view returns(bytes32);\n}\n\ncontract ProxyAPI {\n    mapping(address => address) public availableCalls;\n\n    function callService(address _address, bytes32 method, bytes32[10] args) external {\n        availableCalls[_address] = msg.sender;\n        string memory signature = getServiceSignature(method);\n        require(_address.call(bytes4(keccak256(signature)), args), \"Service call ended with error\");\n        availableCalls[_address] = 0x0;\n    }\n\n    function callDAOSetter(bytes32 method, bytes32 value) external {\n        require(availableCalls[msg.sender] != 0x0, \"Setter is not available for this address\");\n        string memory signature = getDAOSetterSignature(availableCalls[msg.sender], method);\n        IDaoAPI(availableCalls[msg.sender]).handleAPICall(signature, value);\n    }\n\n    function getServiceSignature(bytes32 method) private view returns(string){\n        bytes memory concatenatedBytes = abi.encodePacked(TypesConverter.bytes32ToString(method), \"(bytes32[10])\");\n        return string(concatenatedBytes);\n    }\n\n    function getDAOSetterSignature(address dao, bytes32 method) private view returns(string) {\n        string memory signature = TypesConverter.bytes32ToString(IAllowedSetters(IDaoAPI(dao).apiSettersModule()).signatures(method));\n        require(keccak256(signature) != keccak256(\"\"), \"No such setter\");\n\n        return signature;\n    }\n}\n",
  "sourcePath": "/Users/giddeonwyeth/PhpstormProjects/dao/daox-contracts/contracts/DAO/API/ProxyAPI.sol",
  "compiler": {
    "name": "solc",
    "version": "0.4.24+commit.e67f0147.Emscripten.clang"
  },
  "schemaVersion": "2.0.1",
  "updatedAt": "2018-07-06T11:47:36.340Z"
}