{
  "contractName": "Regular",
  "abi": [
    {
      "constant": false,
      "inputs": [
        {
          "name": "_optionID",
          "type": "uint256"
        }
      ],
      "name": "addVote",
      "outputs": [],
      "payable": false,
      "stateMutability": "nonpayable",
      "type": "function"
    },
    {
      "constant": true,
      "inputs": [],
      "name": "name",
      "outputs": [
        {
          "name": "",
          "type": "string"
        }
      ],
      "payable": false,
      "stateMutability": "view",
      "type": "function"
    },
    {
      "constant": true,
      "inputs": [],
      "name": "duration",
      "outputs": [
        {
          "name": "",
          "type": "uint256"
        }
      ],
      "payable": false,
      "stateMutability": "view",
      "type": "function"
    },
    {
      "constant": true,
      "inputs": [],
      "name": "quorum",
      "outputs": [
        {
          "name": "",
          "type": "uint256"
        }
      ],
      "payable": false,
      "stateMutability": "view",
      "type": "function"
    },
    {
      "constant": true,
      "inputs": [],
      "name": "minimalDuration",
      "outputs": [
        {
          "name": "",
          "type": "uint256"
        }
      ],
      "payable": false,
      "stateMutability": "view",
      "type": "function"
    },
    {
      "constant": true,
      "inputs": [
        {
          "name": "",
          "type": "uint256"
        }
      ],
      "name": "options",
      "outputs": [
        {
          "name": "votes",
          "type": "uint256"
        },
        {
          "name": "description",
          "type": "bytes32"
        }
      ],
      "payable": false,
      "stateMutability": "view",
      "type": "function"
    },
    {
      "constant": true,
      "inputs": [],
      "name": "result",
      "outputs": [
        {
          "name": "votes",
          "type": "uint256"
        },
        {
          "name": "description",
          "type": "bytes32"
        }
      ],
      "payable": false,
      "stateMutability": "view",
      "type": "function"
    },
    {
      "constant": true,
      "inputs": [],
      "name": "description",
      "outputs": [
        {
          "name": "",
          "type": "string"
        }
      ],
      "payable": false,
      "stateMutability": "view",
      "type": "function"
    },
    {
      "constant": true,
      "inputs": [],
      "name": "votesCount",
      "outputs": [
        {
          "name": "",
          "type": "uint256"
        }
      ],
      "payable": false,
      "stateMutability": "view",
      "type": "function"
    },
    {
      "constant": true,
      "inputs": [],
      "name": "created_at",
      "outputs": [
        {
          "name": "",
          "type": "uint256"
        }
      ],
      "payable": false,
      "stateMutability": "view",
      "type": "function"
    },
    {
      "constant": true,
      "inputs": [],
      "name": "votingType",
      "outputs": [
        {
          "name": "",
          "type": "string"
        }
      ],
      "payable": false,
      "stateMutability": "view",
      "type": "function"
    },
    {
      "constant": true,
      "inputs": [
        {
          "name": "",
          "type": "address"
        }
      ],
      "name": "voted",
      "outputs": [
        {
          "name": "",
          "type": "uint256"
        }
      ],
      "payable": false,
      "stateMutability": "view",
      "type": "function"
    },
    {
      "constant": true,
      "inputs": [],
      "name": "finished",
      "outputs": [
        {
          "name": "",
          "type": "bool"
        }
      ],
      "payable": false,
      "stateMutability": "view",
      "type": "function"
    },
    {
      "constant": true,
      "inputs": [],
      "name": "getOptions",
      "outputs": [
        {
          "name": "",
          "type": "uint256[10]"
        }
      ],
      "payable": false,
      "stateMutability": "view",
      "type": "function"
    },
    {
      "constant": false,
      "inputs": [],
      "name": "finish",
      "outputs": [],
      "payable": false,
      "stateMutability": "nonpayable",
      "type": "function"
    },
    {
      "inputs": [
        {
          "name": "_baseVoting",
          "type": "address"
        },
        {
          "name": "_dao",
          "type": "address"
        },
        {
          "name": "_name",
          "type": "string"
        },
        {
          "name": "_description",
          "type": "string"
        },
        {
          "name": "_duration",
          "type": "uint256"
        },
        {
          "name": "_options",
          "type": "bytes32[]"
        }
      ],
      "payable": false,
      "stateMutability": "nonpayable",
      "type": "constructor"
    }
  ],
  "bytecode": "0x606060405242601e55601f805460ff1916905562093a80602255341561002457600080fd5b604051610ad8380380610ad8833981016040528080519190602001805191906020018051820191906020018051820191906020018051919060200180519091019050600281511015801561007a5750600a815111155b151561008557600080fd5b60238054600160a060020a031916600160a060020a03881617905560408051908101604052600781527f526567756c617200000000000000000000000000000000000000000000000000602082015260219080516100e7929160200190610313565b5060235473__VotingLib_____________________________9063120dce4890600160a060020a03168787878760006040518763ffffffff167c01000000000000000000000000000000000000000000000000000000000281526004018087600160a060020a0316600160a060020a0316815260200186600160a060020a0316600160a060020a031681526020018060200180602001858152602001848152602001838103835287818151815260200191508051906020019080838360005b838110156101be5780820151838201526020016101a6565b50505050905090810190601f1680156101eb5780820380516001836020036101000a031916815260200191505b50838103825286818151815260200191508051906020019080838360005b83811015610221578082015183820152602001610209565b50505050905090810190601f16801561024e5780820380516001836020036101000a031916815260200191505b509850505050505050505060006040518083038186803b151561027057600080fd5b6102c65a03f4151561028157600080fd5b5050506102a0816102ab64010000000002610687176401000000009004565b5050505050506103ae565b60005b815181101561030f576040805190810160405280600081526020018383815181106102d557fe5b906020019060200201519052600360018301600b81106102f157fe5b600202018151815560208201516001918201559190910190506102ae565b5050565b828054600181600116156101000203166002900490600052602060002090601f016020900481019282601f1061035457805160ff1916838001178555610381565b82800160010185558215610381579182015b82811115610381578251825591602001919060010190610366565b5061038d929150610391565b5090565b6103ab91905b8082111561038d5760008155600101610397565b90565b61071b806103bd6000396000f3006060604052600436106100c15763ffffffff60e060020a6000350416630383badc81146100c657806306fdde03146100de5780630fb5a6b4146101685780631703a0181461018d5780632f572336146101a0578063409e2205146101b357806365372147146101e15780637284e416146101f45780638778b27d146102075780639c6f0d851461021a578063a9aa6a9b1461022d578063aec2ccae14610240578063bef4876b1461026c578063cc2ee19614610293578063d56b2889146102df575b600080fd5b34156100d157600080fd5b6100dc6004356102f2565b005b34156100e957600080fd5b6100f161038d565b60405160208082528190810183818151815260200191508051906020019080838360005b8381101561012d578082015183820152602001610115565b50505050905090810190601f16801561015a5780820380516001836020036101000a031916815260200191505b509250505060405180910390f35b341561017357600080fd5b61017b61042b565b60405190815260200160405180910390f35b341561019857600080fd5b61017b610431565b34156101ab57600080fd5b61017b610437565b34156101be57600080fd5b6101c960043561043d565b60405191825260208201526040908101905180910390f35b34156101ec57600080fd5b6101c961045c565b34156101ff57600080fd5b6100f1610465565b341561021257600080fd5b61017b6104d0565b341561022557600080fd5b61017b6104d6565b341561023857600080fd5b6100f16104dc565b341561024b57600080fd5b61017b73ffffffffffffffffffffffffffffffffffffffff60043516610547565b341561027757600080fd5b61027f610559565b604051901515815260200160405180910390f35b341561029e57600080fd5b6102a6610562565b604051808261014080838360005b838110156102cc5780820151838201526020016102b4565b5050505090500191505060405180910390f35b34156102ea57600080fd5b6100dc6105cb565b60235473__VotingLib_____________________________90634adcade49073ffffffffffffffffffffffffffffffffffffffff168360405160e060020a63ffffffff851602815273ffffffffffffffffffffffffffffffffffffffff9092166004830152602482015260440160006040518083038186803b151561037657600080fd5b6102c65a03f4151561038757600080fd5b50505050565b60018054600181600116156101000203166002900480601f0160208091040260200160405190810160405280929190818152602001828054600181600116156101000203166002900480156104235780601f106103f857610100808354040283529160200191610423565b820191906000526020600020905b81548152906001019060200180831161040657829003601f168201915b505050505081565b601d5481565b60205481565b60225481565b600381600b811061044a57fe5b60020201805460019091015490915082565b601a54601b5482565b60028054600181600116156101000203166002900480601f0160208091040260200160405190810160405280929190818152602001828054600181600116156101000203166002900480156104235780601f106103f857610100808354040283529160200191610423565b601c5481565b601e5481565b60218054600181600116156101000203166002900480601f0160208091040260200160405190810160405280929190818152602001828054600181600116156101000203166002900480156104235780601f106103f857610100808354040283529160200191610423565b60196020526000908152604090205481565b601f5460ff1681565b61056a61065f565b61014060405190810160409081526005548252600754602083015260095490820152600b546060820152600d546080820152600f5460a082015260115460c082015260135460e0820152601554610100820152601754610120820152919050565b60235473__VotingLib_____________________________90631901910b9073ffffffffffffffffffffffffffffffffffffffff1660405160e060020a63ffffffff841602815273ffffffffffffffffffffffffffffffffffffffff909116600482015260240160006040518083038186803b151561064957600080fd5b6102c65a03f4151561065a57600080fd5b505050565b610140604051908101604052600a815b600081526020019060019003908161066f5790505090565b60005b81518110156106eb576040805190810160405280600081526020018383815181106106b157fe5b906020019060200201519052600360018301600b81106106cd57fe5b6002020181518155602082015160019182015591909101905061068a565b50505600a165627a7a7230582040452cf139bcc2af502721a263ddd009fd73c4e7b5701203bd66232387a300c30029",
  "source": "pragma solidity ^0.4.0;\n\nimport \"./VotingLib.sol\";\nimport \"./VotingFields.sol\";\nimport \"../Common.sol\";\n\ncontract Regular is VotingFields {\n    address baseVoting;\n\n    function Regular(address _baseVoting, address _dao, string _name, string _description, uint _duration, bytes32[] _options){\n        require(_options.length >= 2 && _options.length <= 10);\n        baseVoting = _baseVoting;\n        votingType = \"Regular\";\n        VotingLib.delegatecallCreate(baseVoting, _dao, _name, _description, _duration, 0);\n        createOptions(_options);\n    }\n\n    /*\n    * @dev Returns amount of votes for all regular proposal's options\n    * @return Array[10] of int\n    */\n    function getOptions() external constant returns(uint[10]) {\n        return [options[1].votes, options[2].votes, options[3].votes, options[4].votes, options[5].votes,\n        options[6].votes, options[7].votes, options[8].votes, options[9].votes, options[10].votes];\n    }\n\n    /*\n    * @dev Delegates request of adding vote to the Voting base contract\n    * @param _optionID ID of option which will be added as vote\n    */\n    function addVote(uint _optionID) public {\n        VotingLib.delegatecallAddVote(baseVoting, _optionID);\n    }\n\n    /*\n    * @dev Delegates request of finishing to the Voting base contract\n    */\n    function finish() public {\n        VotingLib.delegatecallFinish(baseVoting);\n    }\n\n    /*\n    * @dev Creates up to 10 options of votes\n    * @param _options Array of votes options\n    */\n    function createOptions(bytes32[] _options) private {\n        for (uint i = 0; i < _options.length; i++) {\n            options[i + 1] = VotingLib.Option(0, _options[i]);\n        }\n    }\n}\n",
  "sourcePath": "/Users/kirill/projects/daox-contracts/contracts/Votings/Regular.sol",
  "compiler": {
    "name": "solc",
    "version": "0.4.18+commit.9cf6e910.Emscripten.clang"
  },
  "schemaVersion": "1.0.1",
  "updatedAt": "2018-06-04T09:15:52.758Z"
}