{
  "contractName": "Regular",
  "abi": [
    {
      "constant": true,
      "inputs": [],
      "name": "name",
      "outputs": [
        {
          "name": "",
          "type": "string"
        }
      ],
      "payable": false,
      "stateMutability": "view",
      "type": "function"
    },
    {
      "constant": true,
      "inputs": [],
      "name": "duration",
      "outputs": [
        {
          "name": "",
          "type": "uint256"
        }
      ],
      "payable": false,
      "stateMutability": "view",
      "type": "function"
    },
    {
      "constant": true,
      "inputs": [],
      "name": "quorum",
      "outputs": [
        {
          "name": "",
          "type": "uint256"
        }
      ],
      "payable": false,
      "stateMutability": "view",
      "type": "function"
    },
    {
      "constant": true,
      "inputs": [],
      "name": "minimalDuration",
      "outputs": [
        {
          "name": "",
          "type": "uint256"
        }
      ],
      "payable": false,
      "stateMutability": "view",
      "type": "function"
    },
    {
      "constant": true,
      "inputs": [
        {
          "name": "",
          "type": "uint256"
        }
      ],
      "name": "options",
      "outputs": [
        {
          "name": "votes",
          "type": "uint256"
        },
        {
          "name": "description",
          "type": "bytes32"
        }
      ],
      "payable": false,
      "stateMutability": "view",
      "type": "function"
    },
    {
      "constant": true,
      "inputs": [],
      "name": "result",
      "outputs": [
        {
          "name": "votes",
          "type": "uint256"
        },
        {
          "name": "description",
          "type": "bytes32"
        }
      ],
      "payable": false,
      "stateMutability": "view",
      "type": "function"
    },
    {
      "constant": true,
      "inputs": [],
      "name": "description",
      "outputs": [
        {
          "name": "",
          "type": "string"
        }
      ],
      "payable": false,
      "stateMutability": "view",
      "type": "function"
    },
    {
      "constant": true,
      "inputs": [],
      "name": "votesCount",
      "outputs": [
        {
          "name": "",
          "type": "uint256"
        }
      ],
      "payable": false,
      "stateMutability": "view",
      "type": "function"
    },
    {
      "constant": true,
      "inputs": [],
      "name": "created_at",
      "outputs": [
        {
          "name": "",
          "type": "uint256"
        }
      ],
      "payable": false,
      "stateMutability": "view",
      "type": "function"
    },
    {
      "constant": true,
      "inputs": [],
      "name": "votingType",
      "outputs": [
        {
          "name": "",
          "type": "string"
        }
      ],
      "payable": false,
      "stateMutability": "view",
      "type": "function"
    },
    {
      "constant": true,
      "inputs": [
        {
          "name": "",
          "type": "address"
        }
      ],
      "name": "voted",
      "outputs": [
        {
          "name": "",
          "type": "uint256"
        }
      ],
      "payable": false,
      "stateMutability": "view",
      "type": "function"
    },
    {
      "constant": true,
      "inputs": [],
      "name": "finished",
      "outputs": [
        {
          "name": "",
          "type": "bool"
        }
      ],
      "payable": false,
      "stateMutability": "view",
      "type": "function"
    },
    {
      "inputs": [
        {
          "name": "_baseVoting",
          "type": "address"
        },
        {
          "name": "_dao",
          "type": "address"
        },
        {
          "name": "_name",
          "type": "string"
        },
        {
          "name": "_description",
          "type": "string"
        },
        {
          "name": "_duration",
          "type": "uint256"
        },
        {
          "name": "_options",
          "type": "bytes32[]"
        }
      ],
      "payable": false,
      "stateMutability": "nonpayable",
      "type": "constructor"
    },
    {
      "constant": true,
      "inputs": [],
      "name": "getOptions",
      "outputs": [
        {
          "name": "",
          "type": "uint256[10]"
        }
      ],
      "payable": false,
      "stateMutability": "view",
      "type": "function"
    },
    {
      "constant": false,
      "inputs": [
        {
          "name": "_optionID",
          "type": "uint256"
        }
      ],
      "name": "addVote",
      "outputs": [],
      "payable": false,
      "stateMutability": "nonpayable",
      "type": "function"
    },
    {
      "constant": false,
      "inputs": [],
      "name": "finish",
      "outputs": [],
      "payable": false,
      "stateMutability": "nonpayable",
      "type": "function"
    }
  ],
  "bytecode": "0x608060405242601e55601f805460ff1916905562093a8060225534801561002557600080fd5b50604051610a5c380380610a5c83398101604090815281516020830151918301516060840151608085015160a086015186018051949693840194929093019290916002118015906100785750600a815111155b151561008357600080fd5b60238054600160a060020a031916600160a060020a0388161790556040805180820190915260078082527f526567756c61720000000000000000000000000000000000000000000000000060209092019182526100e2916021916102f3565b506023546040517f120dce48000000000000000000000000000000000000000000000000000000008152600160a060020a0391821660048201818152928816602483015260848201859052600060a4830181905260c060448401908152885160c4850152885173__VotingLib_____________________________9563120dce48958c948c948c948c949293606481019160e4909101906020890190808383895b8381101561019b578181015183820152602001610183565b50505050905090810190601f1680156101c85780820380516001836020036101000a031916815260200191505b50838103825286518152865160209182019188019080838360005b838110156101fb5781810151838201526020016101e3565b50505050905090810190601f1680156102285780820380516001836020036101000a031916815260200191505b509850505050505050505060006040518083038186803b15801561024b57600080fd5b505af415801561025f573d6000803e3d6000fd5b5050505061027b81610286640100000000026401000000009004565b50505050505061038e565b60005b81518110156102ef5760408051908101604052806000815260200183838151811015156102b257fe5b602090810290910101519052600360018301600b81106102ce57fe5b82516002919091029190910190815560209091015160019182015501610289565b5050565b828054600181600116156101000203166002900490600052602060002090601f016020900481019282601f1061033457805160ff1916838001178555610361565b82800160010185558215610361579182015b82811115610361578251825591602001919060010190610346565b5061036d929150610371565b5090565b61038b91905b8082111561036d5760008155600101610377565b90565b6106bf8061039d6000396000f3006080604052600436106100da5763ffffffff7c01000000000000000000000000000000000000000000000000000000006000350416630383badc81146100df57806306fdde03146100f95780630fb5a6b4146101835780631703a018146101aa5780632f572336146101bf578063409e2205146101d457806365372147146102055780637284e4161461021a5780638778b27d1461022f5780639c6f0d8514610244578063a9aa6a9b14610259578063aec2ccae1461026e578063bef4876b1461029c578063cc2ee196146102c5578063d56b288914610313575b600080fd5b3480156100eb57600080fd5b506100f7600435610328565b005b34801561010557600080fd5b5061010e6103cd565b6040805160208082528351818301528351919283929083019185019080838360005b83811015610148578181015183820152602001610130565b50505050905090810190601f1680156101755780820380516001836020036101000a031916815260200191505b509250505060405180910390f35b34801561018f57600080fd5b5061019861045a565b60408051918252519081900360200190f35b3480156101b657600080fd5b50610198610460565b3480156101cb57600080fd5b50610198610466565b3480156101e057600080fd5b506101ec60043561046c565b6040805192835260208301919091528051918290030190f35b34801561021157600080fd5b506101ec61048b565b34801561022657600080fd5b5061010e610494565b34801561023b57600080fd5b506101986104ec565b34801561025057600080fd5b506101986104f2565b34801561026557600080fd5b5061010e6104f8565b34801561027a57600080fd5b5061019873ffffffffffffffffffffffffffffffffffffffff60043516610553565b3480156102a857600080fd5b506102b1610565565b604080519115158252519081900360200190f35b3480156102d157600080fd5b506102da61056e565b604051808261014080838360005b838110156103005781810151838201526020016102e8565b5050505090500191505060405180910390f35b34801561031f57600080fd5b506100f76105d6565b602354604080517f4adcade400000000000000000000000000000000000000000000000000000000815273ffffffffffffffffffffffffffffffffffffffff9092166004830152602482018390525173__VotingLib_____________________________91634adcade4916044808301926000929190829003018186803b1580156103b257600080fd5b505af41580156103c6573d6000803e3d6000fd5b5050505050565b60018054604080516020600284861615610100026000190190941693909304601f810184900484028201840190925281815292918301828280156104525780601f1061042757610100808354040283529160200191610452565b820191906000526020600020905b81548152906001019060200180831161043557829003601f168201915b505050505081565b601d5481565b60205481565b60225481565b600381600b811061047957fe5b60020201805460019091015490915082565b601a54601b5482565b6002805460408051602060018416156101000260001901909316849004601f810184900484028201840190925281815292918301828280156104525780601f1061042757610100808354040283529160200191610452565b601c5481565b601e5481565b6021805460408051602060026001851615610100026000190190941693909304601f810184900484028201840190925281815292918301828280156104525780601f1061042757610100808354040283529160200191610452565b60196020526000908152604090205481565b601f5460ff1681565b610576610673565b5060408051610140810182526005548152600754602082015260095491810191909152600b546060820152600d546080820152600f5460a082015260115460c082015260135460e082015260155461010082015260175461012082015290565b602354604080517f1901910b00000000000000000000000000000000000000000000000000000000815273ffffffffffffffffffffffffffffffffffffffff90921660048301525173__VotingLib_____________________________91631901910b916024808301926000929190829003018186803b15801561065957600080fd5b505af415801561066d573d6000803e3d6000fd5b50505050565b61014060405190810160405280600a9060208202803883395091929150505600a165627a7a72305820f8f4f9a90c1c52780eecc6603a387fe520ec9e0e6ef1fe685cb78997984210d70029",
  "source": "pragma solidity ^0.4.0;\n\nimport \"./VotingLib.sol\";\nimport \"./VotingFields.sol\";\nimport \"../Common.sol\";\n\ncontract Regular is VotingFields {\n    address baseVoting;\n\n    function Regular(address _baseVoting, address _dao, string _name, string _description, uint _duration, bytes32[] _options){\n        require(_options.length >= 2 && _options.length <= 10);\n        baseVoting = _baseVoting;\n        votingType = \"Regular\";\n        VotingLib.delegatecallCreate(baseVoting, _dao, _name, _description, _duration, 0);\n        createOptions(_options);\n    }\n\n    /*\n    * @dev Returns amount of votes for all regular proposal's options\n    * @return Array[10] of int\n    */\n    function getOptions() external constant returns(uint[10]) {\n        return [options[1].votes, options[2].votes, options[3].votes, options[4].votes, options[5].votes,\n        options[6].votes, options[7].votes, options[8].votes, options[9].votes, options[10].votes];\n    }\n\n    /*\n    * @dev Delegates request of adding vote to the Voting base contract\n    * @param _optionID ID of option which will be added as vote\n    */\n    function addVote(uint _optionID) public {\n        VotingLib.delegatecallAddVote(baseVoting, _optionID);\n    }\n\n    /*\n    * @dev Delegates request of finishing to the Voting base contract\n    */\n    function finish() public {\n        VotingLib.delegatecallFinish(baseVoting);\n    }\n\n    /*\n    * @dev Creates up to 10 options of votes\n    * @param _options Array of votes options\n    */\n    function createOptions(bytes32[] _options) private {\n        for (uint i = 0; i < _options.length; i++) {\n            options[i + 1] = VotingLib.Option(0, _options[i]);\n        }\n    }\n}\n",
  "sourcePath": "/Users/kirill/projects/daox-contracts/contracts/Votings/Regular.sol",
  "compiler": {
    "name": "solc",
    "version": "0.4.23+commit.124ca40d.Emscripten.clang"
  },
  "schemaVersion": "2.0.0",
  "updatedAt": "2018-06-04T17:08:56.600Z"
}