{
  "contractName": "ServiceVotingFactory",
  "abi": [
    {
      "constant": true,
      "inputs": [],
      "name": "daoFactory",
      "outputs": [
        {
          "name": "",
          "type": "address"
        }
      ],
      "payable": false,
      "stateMutability": "view",
      "type": "function"
    },
    {
      "constant": false,
      "inputs": [
        {
          "name": "_dao",
          "type": "address"
        }
      ],
      "name": "setDaoFactory",
      "outputs": [],
      "payable": false,
      "stateMutability": "nonpayable",
      "type": "function"
    },
    {
      "inputs": [
        {
          "name": "_baseVoting",
          "type": "address"
        }
      ],
      "payable": false,
      "stateMutability": "nonpayable",
      "type": "constructor"
    },
    {
      "constant": false,
      "inputs": [
        {
          "name": "_creator",
          "type": "address"
        },
        {
          "name": "_name",
          "type": "string"
        },
        {
          "name": "_description",
          "type": "string"
        },
        {
          "name": "_duration",
          "type": "uint256"
        },
        {
          "name": "_module",
          "type": "uint256"
        },
        {
          "name": "_newAddress",
          "type": "address"
        }
      ],
      "name": "createModule",
      "outputs": [
        {
          "name": "",
          "type": "address"
        }
      ],
      "payable": false,
      "stateMutability": "nonpayable",
      "type": "function"
    },
    {
      "constant": false,
      "inputs": [
        {
          "name": "_creator",
          "type": "address"
        },
        {
          "name": "_name",
          "type": "string"
        },
        {
          "name": "_description",
          "type": "string"
        },
        {
          "name": "_duration",
          "type": "uint256"
        },
        {
          "name": "_service",
          "type": "address"
        }
      ],
      "name": "createNewService",
      "outputs": [
        {
          "name": "",
          "type": "address"
        }
      ],
      "payable": false,
      "stateMutability": "nonpayable",
      "type": "function"
    },
    {
      "constant": false,
      "inputs": [
        {
          "name": "_creator",
          "type": "address"
        },
        {
          "name": "_name",
          "type": "string"
        },
        {
          "name": "_description",
          "type": "string"
        },
        {
          "name": "_duration",
          "type": "uint256"
        },
        {
          "name": "_service",
          "type": "address"
        },
        {
          "name": "_method",
          "type": "bytes32"
        },
        {
          "name": "_args",
          "type": "bytes32[10]"
        }
      ],
      "name": "createCallService",
      "outputs": [
        {
          "name": "",
          "type": "address"
        }
      ],
      "payable": false,
      "stateMutability": "nonpayable",
      "type": "function"
    }
  ],
  "bytecode": "0x608060405234801561001057600080fd5b50604051602080613e3d833981016040525160008054600160a060020a03909216600160a060020a0319909216919091179055613deb806100526000396000f300608060405260043610620000595763ffffffff60e060020a6000350416631afc51fa81146200005e57806348f7f2a314620000c65780637ab34cb514620000de578063d6560dab1462000125578063dfc061f01462000170575b600080fd5b3480156200006b57600080fd5b50620000aa60048035600160a060020a03908116916024803580820193908301359260443592830192013590606435906084351660a43560c462000196565b60408051600160a060020a039092168252519081900360200190f35b348015620000d357600080fd5b50620000aa62000589565b348015620000eb57600080fd5b50620000aa60048035600160a060020a03908116916024803580820193908301359260443592830192013590606435906084351662000598565b3480156200013257600080fd5b50620000aa60048035600160a060020a03908116916024803580820193908301359260443592830192013590606435906084359060a4351662000971565b3480156200017d57600080fd5b5062000194600160a060020a036004351662000d55565b005b600154604080517ff6a3d24e0000000000000000000000000000000000000000000000000000000081523360048201529051600092600160a060020a03169163f6a3d24e91602480830192602092919082900301818787803b158015620001fc57600080fd5b505af115801562000211573d6000803e3d6000fd5b505050506040513d60208110156200022857600080fd5b505115156200023657600080fd5b604080517f929066f5000000000000000000000000000000000000000000000000000000008152600160a060020a038c16600482015290518b91339163929066f5916024808201926020929091908290030181600087803b1580156200029b57600080fd5b505af1158015620002b0573d6000803e3d6000fd5b505050506040513d6020811015620002c757600080fd5b5051151562000346576040805160e560020a62461bcd02815260206004820152603060248201527f596f75206e65656420746f2062652061207061727469636970616e7420746f2060448201527f63616c6c2074686973206d6574686f6400000000000000000000000000000000606482015290519081900360840190fd5b33600160a060020a0316632948b4e96040518163ffffffff1660e060020a028152600401602060405180830381600087803b1580156200038557600080fd5b505af11580156200039a573d6000803e3d6000fd5b505050506040513d6020811015620003b157600080fd5b5051604080517fcc9e4fd4000000000000000000000000000000000000000000000000000000008152600160a060020a03841660048201529051339163cc9e4fd49160248083019260209291908290030181600087803b1580156200041557600080fd5b505af11580156200042a573d6000803e3d6000fd5b505050506040513d60208110156200044157600080fd5b50511015620004c0576040805160e560020a62461bcd02815260206004820152602e60248201527f596f7520646f6e2774206861766520656e6f7567682044584320746f2063616c60448201527f6c2074686973206d6574686f642e000000000000000000000000000000000000606482015290519081900360840190fd5b600054600160a060020a0316338b8b8b8b8b8b8b8b620004df62000db2565b600160a060020a03808c1682528a8116602083015260808201869052841660a082015260c08101839052604081016060820160e08301846101408082843790910184810384528b815260200190508b8b808284379091018481038352898152602001905089898082843782019150509c50505050505050505050505050604051809103906000f08015801562000579573d6000803e3d6000fd5b509b9a5050505050505050505050565b600154600160a060020a031681565b600154604080517ff6a3d24e0000000000000000000000000000000000000000000000000000000081523360048201529051600092600160a060020a03169163f6a3d24e91602480830192602092919082900301818787803b158015620005fe57600080fd5b505af115801562000613573d6000803e3d6000fd5b505050506040513d60208110156200062a57600080fd5b505115156200063857600080fd5b604080517f929066f5000000000000000000000000000000000000000000000000000000008152600160a060020a038a16600482015290518991339163929066f5916024808201926020929091908290030181600087803b1580156200069d57600080fd5b505af1158015620006b2573d6000803e3d6000fd5b505050506040513d6020811015620006c957600080fd5b5051151562000748576040805160e560020a62461bcd02815260206004820152603060248201527f596f75206e65656420746f2062652061207061727469636970616e7420746f2060448201527f63616c6c2074686973206d6574686f6400000000000000000000000000000000606482015290519081900360840190fd5b33600160a060020a0316632948b4e96040518163ffffffff1660e060020a028152600401602060405180830381600087803b1580156200078757600080fd5b505af11580156200079c573d6000803e3d6000fd5b505050506040513d6020811015620007b357600080fd5b5051604080517fcc9e4fd4000000000000000000000000000000000000000000000000000000008152600160a060020a03841660048201529051339163cc9e4fd49160248083019260209291908290030181600087803b1580156200081757600080fd5b505af11580156200082c573d6000803e3d6000fd5b505050506040513d60208110156200084357600080fd5b50511015620008c2576040805160e560020a62461bcd02815260206004820152602e60248201527f596f7520646f6e2774206861766520656e6f7567682044584320746f2063616c60448201527f6c2074686973206d6574686f642e000000000000000000000000000000000000606482015290519081900360840190fd5b600054600160a060020a031633898989898989620008df62000dc3565b600160a060020a03808a168252888116602083015260808201849052821660a082015260c0604082018181529082018790526060820160e083018989808284379091018481038352878152602001905087878082843782019150509a5050505050505050505050604051809103906000f08015801562000963573d6000803e3d6000fd5b509998505050505050505050565b600154604080517ff6a3d24e0000000000000000000000000000000000000000000000000000000081523360048201529051600092600160a060020a03169163f6a3d24e91602480830192602092919082900301818787803b158015620009d757600080fd5b505af1158015620009ec573d6000803e3d6000fd5b505050506040513d602081101562000a0357600080fd5b5051151562000a1157600080fd5b604080517f929066f5000000000000000000000000000000000000000000000000000000008152600160a060020a038b16600482015290518a91339163929066f5916024808201926020929091908290030181600087803b15801562000a7657600080fd5b505af115801562000a8b573d6000803e3d6000fd5b505050506040513d602081101562000aa257600080fd5b5051151562000b21576040805160e560020a62461bcd02815260206004820152603060248201527f596f75206e65656420746f2062652061207061727469636970616e7420746f2060448201527f63616c6c2074686973206d6574686f6400000000000000000000000000000000606482015290519081900360840190fd5b33600160a060020a0316632948b4e96040518163ffffffff1660e060020a028152600401602060405180830381600087803b15801562000b6057600080fd5b505af115801562000b75573d6000803e3d6000fd5b505050506040513d602081101562000b8c57600080fd5b5051604080517fcc9e4fd4000000000000000000000000000000000000000000000000000000008152600160a060020a03841660048201529051339163cc9e4fd49160248083019260209291908290030181600087803b15801562000bf057600080fd5b505af115801562000c05573d6000803e3d6000fd5b505050506040513d602081101562000c1c57600080fd5b5051101562000c9b576040805160e560020a62461bcd02815260206004820152602e60248201527f596f7520646f6e2774206861766520656e6f7567682044584320746f2063616c60448201527f6c2074686973206d6574686f642e000000000000000000000000000000000000606482015290519081900360840190fd5b600054600160a060020a0316338a8a8a8a8a8a8a62000cb962000dd4565b600160a060020a03808b16825289811660208301526080820185905260a08201849052821660c082015260e0604082018181529082018890526060820161010083018a8a808284379091018481038352888152602001905088888082843782019150509b505050505050505050505050604051809103906000f08015801562000d46573d6000803e3d6000fd5b509a9950505050505050505050565b600154600160a060020a031615801562000d775750600160a060020a03811615155b151562000d8357600080fd5b6001805473ffffffffffffffffffffffffffffffffffffffff1916600160a060020a0392909216919091179055565b6040516111e08062000de683390190565b604051610f898062001fc683390190565b604051610e718062002f4f833901905600608060405242601e55601f805460ff1916905562093a806022553480156200002657600080fd5b50604051620011e0380380620011e08339810160408181528251602080850151838601516060870151608088015160a089015160c08a01517f5b7f0df6000000000000000000000000000000000000000000000000000000008a52600160a060020a0380871660048c0152821660248b0152975196999498938501979285019691959094929360e09093019273__VotingLib_____________________________92635b7f0df692604480840193919291829003018186803b158015620000ec57600080fd5b505af415801562000101573d6000803e3d6000fd5b505050506040513d60208110156200011857600080fd5b50511515620001ad57604080517f08c379a0000000000000000000000000000000000000000000000000000000008152602060048201526024808201527f53657276696365206d75737420626520636f6e6e656374656420746f2063616c60448201527f6c20697400000000000000000000000000000000000000000000000000000000606482015290519081900360840190fd5b60408051808201909152600481527f63616c6c000000000000000000000000000000000000000000000000000000006020820152620001fc9088856401000000006200078f620003f182021704565b60238054600160a060020a03808b16600160a060020a0319928316179092556024805492861692909116919091179055602582905562000240602682600a6200073d565b506023546040517f120dce48000000000000000000000000000000000000000000000000000000008152600160a060020a0391821660048201818152928a16602483015260848201879052605060a4830181905260c0604484019081528a5160c48501528a5173__VotingLib_____________________________9563120dce48958e948e948e948e949293606481019160e490910190602089019080838360005b83811015620002fc578181015183820152602001620002e2565b50505050905090810190601f1680156200032a5780820380516001836020036101000a031916815260200191505b50838103825286518152865160209182019188019080838360005b838110156200035f57818101518382015260200162000345565b50505050905090810190601f1680156200038d5780820380516001836020036101000a031916815260200191505b509850505050505050505060006040518083038186803b158015620003b157600080fd5b505af4158015620003c6573d6000803e3d6000fd5b50505050620003e3620006c3640100000000026401000000009004565b5050505050505050620007a2565b604080517f63616c6c000000000000000000000000000000000000000000000000000000008152905190819003600401812084516000928691819060208401908083835b60208310620004565780518252601f19909201916020918201910162000435565b6001836020036101000a03801982511681845116808217855250505050505090500191505060405180910390206000191614620005195781600160a060020a031663921cac7e6040518163ffffffff167c0100000000000000000000000000000000000000000000000000000000028152600401602060405180830381600087803b158015620004e557600080fd5b505af1158015620004fa573d6000803e3d6000fd5b505050506040513d60208110156200051157600080fd5b5051620005a0565b81600160a060020a03166344b198186040518163ffffffff167c0100000000000000000000000000000000000000000000000000000000028152600401602060405180830381600087803b1580156200057157600080fd5b505af115801562000586573d6000803e3d6000fd5b505050506040513d60208110156200059d57600080fd5b50515b905082600160a060020a031663601e538b6040518163ffffffff167c0100000000000000000000000000000000000000000000000000000000028152600401602060405180830381600087803b158015620005fa57600080fd5b505af11580156200060f573d6000803e3d6000fd5b505050506040513d60208110156200062657600080fd5b5051811115620006bd57604080517f08c379a000000000000000000000000000000000000000000000000000000000815260206004820152603960248201527f4e6f7420656e6f7567682044584320696e20696e697469616c2063617069746160448201527f6c20746f20636f6e6e6563742074686973207365727669636500000000000000606482015290519081900360840190fd5b50505050565b60408051808201825260008082527f79657300000000000000000000000000000000000000000000000000000000006020928301819052600582905560065582518084019093528083527f6e6f00000000000000000000000000000000000000000000000000000000000092909101829052600755600855565b82600a810192821562000770579160200282015b8281111562000770578251825560209092019160019091019062000751565b506200077e92915062000782565b5090565b6200079f91905b808211156200077e576000815560010162000789565b90565b610a2e80620007b26000396000f3006080604052600436106100e25763ffffffff60e060020a6000350416630383badc81146100e757806306fdde03146101015780630fb5a6b41461018b5780631703a018146101b25780632c383a9f146101c75780632f572336146101dc578063409e2205146101f157806365372147146102225780637284e416146102375780638778b27d1461024c57806393cd5755146102615780639c6f0d8514610279578063a9aa6a9b1461028e578063aec2ccae146102a3578063bef4876b146102c4578063cc2ee196146102ed578063d56b28891461033d578063d598d4c914610352575b600080fd5b3480156100f357600080fd5b506100ff600435610383565b005b34801561010d57600080fd5b5061011661041b565b6040805160208082528351818301528351919283929083019185019080838360005b83811015610150578181015183820152602001610138565b50505050905090810190601f16801561017d5780820380516001836020036101000a031916815260200191505b509250505060405180910390f35b34801561019757600080fd5b506101a06104a8565b60408051918252519081900360200190f35b3480156101be57600080fd5b506101a06104ae565b3480156101d357600080fd5b506101a06104b4565b3480156101e857600080fd5b506101a06104ba565b3480156101fd57600080fd5b506102096004356104c0565b6040805192835260208301919091528051918290030190f35b34801561022e57600080fd5b506102096104df565b34801561024357600080fd5b506101166104e8565b34801561025857600080fd5b506101a0610540565b34801561026d57600080fd5b506101a0600435610546565b34801561028557600080fd5b506101a061055a565b34801561029a57600080fd5b50610116610560565b3480156102af57600080fd5b506101a0600160a060020a03600435166105bb565b3480156102d057600080fd5b506102d96105cd565b604080519115158252519081900360200190f35b3480156102f957600080fd5b506103026105d6565b6040518082600260200280838360005b8381101561032a578181015183820152602001610312565b5050505090500191505060405180910390f35b34801561034957600080fd5b506100ff6105f9565b34801561035e57600080fd5b50610367610765565b60408051600160a060020a039092168252519081900360200190f35b602354604080517f4adcade4000000000000000000000000000000000000000000000000000000008152600160a060020a039092166004830152602482018390525173__VotingLib_____________________________91634adcade4916044808301926000929190829003018186803b15801561040057600080fd5b505af4158015610414573d6000803e3d6000fd5b5050505050565b60018054604080516020600284861615610100026000190190941693909304601f810184900484028201840190925281815292918301828280156104a05780601f10610475576101008083540402835291602001916104a0565b820191906000526020600020905b81548152906001019060200180831161048357829003601f168201915b505050505081565b601d5481565b60205481565b60255481565b60225481565b600381600b81106104cd57fe5b60020201805460019091015490915082565b601a54601b5482565b6002805460408051602060018416156101000260001901909316849004601f810184900484028201840190925281815292918301828280156104a05780601f10610475576101008083540402835291602001916104a0565b601c5481565b602681600a811061055357fe5b0154905081565b601e5481565b6021805460408051602060026001851615610100026000190190941693909304601f810184900484028201840190925281815292918301828280156104a05780601f10610475576101008083540402835291602001916104a0565b60196020526000908152604090205481565b601f5460ff1681565b6105de610774565b50604080518082019091526005548152600754602082015290565b602354604080517f1901910b000000000000000000000000000000000000000000000000000000008152600160a060020a0390921660048301525173__VotingLib_____________________________91631901910b916024808301926000929190829003018186803b15801561066f57600080fd5b505af4158015610683573d6000803e3d6000fd5b5050601b547f796573000000000000000000000000000000000000000000000000000000000014159150610763905057600054602480546025546040517fd411fffc000000000000000000000000000000000000000000000000000000008152600160a060020a0392831660048201818152948201839052929094169363d411fffc9360269161018481019083906044015b815481526001909101906020018083116107155750509350505050600060405180830381600087803b15801561074a57600080fd5b505af115801561075e573d6000803e3d6000fd5b505050505b565b602454600160a060020a031681565b60408051808201825290600290829080388339509192915050565b604080517f63616c6c000000000000000000000000000000000000000000000000000000008152905190819003600401812084516000928691819060208401908083835b602083106107f25780518252601f1990920191602091820191016107d3565b6001836020036101000a038019825116818451168082178552505050505050905001915050604051809103902060001916146108975781600160a060020a031663921cac7e6040518163ffffffff1660e060020a028152600401602060405180830381600087803b15801561086657600080fd5b505af115801561087a573d6000803e3d6000fd5b505050506040513d602081101561089057600080fd5b5051610902565b81600160a060020a03166344b198186040518163ffffffff1660e060020a028152600401602060405180830381600087803b1580156108d557600080fd5b505af11580156108e9573d6000803e3d6000fd5b505050506040513d60208110156108ff57600080fd5b50515b905082600160a060020a031663601e538b6040518163ffffffff1660e060020a028152600401602060405180830381600087803b15801561094257600080fd5b505af1158015610956573d6000803e3d6000fd5b505050506040513d602081101561096c57600080fd5b505181111561075e57604080517f08c379a000000000000000000000000000000000000000000000000000000000815260206004820152603960248201527f4e6f7420656e6f7567682044584320696e20696e697469616c2063617069746160448201527f6c20746f20636f6e6e6563742074686973207365727669636500000000000000606482015290519081900360840190fd00a165627a7a72305820f0f285c8be500a609680036c92f939d5c16ceed34b646e25a0eef5b16668876e0029608060405242601e55601f805460ff1916905562093a806022553480156200002657600080fd5b5060405162000f8938038062000f898339810160408181528251602080850151838601516060870151608088015160a0890151878901909752600788527f636f6e6e65637400000000000000000000000000000000000000000000000000948801949094529396919590820194939091019290620000b4908683640100000000620007046200028a82021704565b60238054600160a060020a03808916600160a060020a031992831617928390556024805485831693169290921782556040517f120dce48000000000000000000000000000000000000000000000000000000008152928116600484018181529189169284019290925260848301859052605060a4840181905260c060448501908152885160c4860152885173__VotingLib_____________________________9563120dce4895948c948c948c948c94929392606481019160e490910190602089019080838360005b83811015620001975781810151838201526020016200017d565b50505050905090810190601f168015620001c55780820380516001836020036101000a031916815260200191505b50838103825286518152865160209182019188019080838360005b83811015620001fa578181015183820152602001620001e0565b50505050905090810190601f168015620002285780820380516001836020036101000a031916815260200191505b509850505050505050505060006040518083038186803b1580156200024c57600080fd5b505af415801562000261573d6000803e3d6000fd5b505050506200027e6200055c640100000000026401000000009004565b505050505050620005d6565b604080517f63616c6c000000000000000000000000000000000000000000000000000000008152905190819003600401812084516000928691819060208401908083835b60208310620002ef5780518252601f199092019160209182019101620002ce565b6001836020036101000a03801982511681845116808217855250505050505090500191505060405180910390206000191614620003b25781600160a060020a031663921cac7e6040518163ffffffff167c0100000000000000000000000000000000000000000000000000000000028152600401602060405180830381600087803b1580156200037e57600080fd5b505af115801562000393573d6000803e3d6000fd5b505050506040513d6020811015620003aa57600080fd5b505162000439565b81600160a060020a03166344b198186040518163ffffffff167c0100000000000000000000000000000000000000000000000000000000028152600401602060405180830381600087803b1580156200040a57600080fd5b505af11580156200041f573d6000803e3d6000fd5b505050506040513d60208110156200043657600080fd5b50515b905082600160a060020a031663601e538b6040518163ffffffff167c0100000000000000000000000000000000000000000000000000000000028152600401602060405180830381600087803b1580156200049357600080fd5b505af1158015620004a8573d6000803e3d6000fd5b505050506040513d6020811015620004bf57600080fd5b50518111156200055657604080517f08c379a000000000000000000000000000000000000000000000000000000000815260206004820152603960248201527f4e6f7420656e6f7567682044584320696e20696e697469616c2063617069746160448201527f6c20746f20636f6e6e6563742074686973207365727669636500000000000000606482015290519081900360840190fd5b50505050565b60408051808201825260008082527f79657300000000000000000000000000000000000000000000000000000000006020928301819052600582905560065582518084019093528083527f6e6f00000000000000000000000000000000000000000000000000000000000092909101829052600755600855565b6109a380620005e66000396000f3006080604052600436106100cc5763ffffffff60e060020a6000350416630383badc81146100d157806306fdde03146100eb5780630fb5a6b4146101755780631703a0181461019c5780632f572336146101b1578063409e2205146101c657806365372147146101f75780637284e4161461020c5780638778b27d146102215780639c6f0d8514610236578063a9aa6a9b1461024b578063aec2ccae14610260578063bef4876b14610281578063cc2ee196146102aa578063d56b2889146102fa578063d598d4c91461030f575b600080fd5b3480156100dd57600080fd5b506100e9600435610340565b005b3480156100f757600080fd5b506101006103d8565b6040805160208082528351818301528351919283929083019185019080838360005b8381101561013a578181015183820152602001610122565b50505050905090810190601f1680156101675780820380516001836020036101000a031916815260200191505b509250505060405180910390f35b34801561018157600080fd5b5061018a610465565b60408051918252519081900360200190f35b3480156101a857600080fd5b5061018a61046b565b3480156101bd57600080fd5b5061018a610471565b3480156101d257600080fd5b506101de600435610477565b6040805192835260208301919091528051918290030190f35b34801561020357600080fd5b506101de610496565b34801561021857600080fd5b5061010061049f565b34801561022d57600080fd5b5061018a6104f7565b34801561024257600080fd5b5061018a6104fd565b34801561025757600080fd5b50610100610503565b34801561026c57600080fd5b5061018a600160a060020a036004351661055e565b34801561028d57600080fd5b50610296610570565b604080519115158252519081900360200190f35b3480156102b657600080fd5b506102bf610579565b6040518082600260200280838360005b838110156102e75781810151838201526020016102cf565b5050505090500191505060405180910390f35b34801561030657600080fd5b506100e961059c565b34801561031b57600080fd5b506103246106da565b60408051600160a060020a039092168252519081900360200190f35b602354604080517f4adcade4000000000000000000000000000000000000000000000000000000008152600160a060020a039092166004830152602482018390525173__VotingLib_____________________________91634adcade4916044808301926000929190829003018186803b1580156103bd57600080fd5b505af41580156103d1573d6000803e3d6000fd5b5050505050565b60018054604080516020600284861615610100026000190190941693909304601f8101849004840282018401909252818152929183018282801561045d5780601f106104325761010080835404028352916020019161045d565b820191906000526020600020905b81548152906001019060200180831161044057829003601f168201915b505050505081565b601d5481565b60205481565b60225481565b600381600b811061048457fe5b60020201805460019091015490915082565b601a54601b5482565b6002805460408051602060018416156101000260001901909316849004601f8101849004840282018401909252818152929183018282801561045d5780601f106104325761010080835404028352916020019161045d565b601c5481565b601e5481565b6021805460408051602060026001851615610100026000190190941693909304601f8101849004840282018401909252818152929183018282801561045d5780601f106104325761010080835404028352916020019161045d565b60196020526000908152604090205481565b601f5460ff1681565b6105816106e9565b50604080518082019091526005548152600754602082015290565b602354604080517f1901910b000000000000000000000000000000000000000000000000000000008152600160a060020a0390921660048301525173__VotingLib_____________________________91631901910b916024808301926000929190829003018186803b15801561061257600080fd5b505af4158015610626573d6000803e3d6000fd5b5050601b547f7965730000000000000000000000000000000000000000000000000000000000141591506106d89050576000805460248054604080517f86114fcf000000000000000000000000000000000000000000000000000000008152600160a060020a039283166004820152905191909316936386114fcf93808401939192919082900301818387803b1580156106bf57600080fd5b505af11580156106d3573d6000803e3d6000fd5b505050505b565b602454600160a060020a031681565b60408051808201825290600290829080388339509192915050565b604080517f63616c6c000000000000000000000000000000000000000000000000000000008152905190819003600401812084516000928691819060208401908083835b602083106107675780518252601f199092019160209182019101610748565b6001836020036101000a0380198251168184511680821785525050505050509050019150506040518091039020600019161461080c5781600160a060020a031663921cac7e6040518163ffffffff1660e060020a028152600401602060405180830381600087803b1580156107db57600080fd5b505af11580156107ef573d6000803e3d6000fd5b505050506040513d602081101561080557600080fd5b5051610877565b81600160a060020a03166344b198186040518163ffffffff1660e060020a028152600401602060405180830381600087803b15801561084a57600080fd5b505af115801561085e573d6000803e3d6000fd5b505050506040513d602081101561087457600080fd5b50515b905082600160a060020a031663601e538b6040518163ffffffff1660e060020a028152600401602060405180830381600087803b1580156108b757600080fd5b505af11580156108cb573d6000803e3d6000fd5b505050506040513d60208110156108e157600080fd5b50518111156106d357604080517f08c379a000000000000000000000000000000000000000000000000000000000815260206004820152603960248201527f4e6f7420656e6f7567682044584320696e20696e697469616c2063617069746160448201527f6c20746f20636f6e6e6563742074686973207365727669636500000000000000606482015290519081900360840190fd00a165627a7a7230582054fb1c4859749342a6cd147581457527ee603f2b27297a906229f951d430d0860029608060405242601e55601f805460ff1916905562093a806022553480156200002657600080fd5b5060405162000e7138038062000e7183398101604090815281516020830151918301516060840151608085015160a086015160c087015194969384019492909301929091600082108015906200007d575060048211155b15156200008957600080fd5b60238054600160a060020a031916600160a060020a0389161790556040805180820190915260068082527f4d6f64756c6500000000000000000000000000000000000000000000000000006020909201918252620000ea9160219162000372565b50816004811115620000f857fe5b6023805460a060020a60ff021916740100000000000000000000000000000000000000008360048111156200012957fe5b021790555060248054600160a060020a031916600160a060020a038381169190911782556023546040517f120dce4800000000000000000000000000000000000000000000000000000000815290821660048201818152928a169382019390935260848101869052605060a4820181905260c060448301908152895160c4840152895173__VotingLib_____________________________9563120dce489590948d948d948d948d949293606481019160e490910190602089019080838360005b8381101562000204578181015183820152602001620001ea565b50505050905090810190601f168015620002325780820380516001836020036101000a031916815260200191505b50838103825286518152865160209182019188019080838360005b83811015620002675781810151838201526020016200024d565b50505050905090810190601f168015620002955780820380516001836020036101000a031916815260200191505b509850505050505050505060006040518083038186803b158015620002b957600080fd5b505af4158015620002ce573d6000803e3d6000fd5b50505050620002eb620002f8640100000000026401000000009004565b5050505050505062000417565b60408051808201825260008082527f79657300000000000000000000000000000000000000000000000000000000006020928301819052600582905560065582518084019093528083527f6e6f00000000000000000000000000000000000000000000000000000000000092909101829052600755600855565b828054600181600116156101000203166002900490600052602060002090601f016020900481019282601f10620003b557805160ff1916838001178555620003e5565b82800160010185558215620003e5579182015b82811115620003e5578251825591602001919060010190620003c8565b50620003f3929150620003f7565b5090565b6200041491905b80821115620003f35760008155600101620003fe565b90565b610a4a80620004276000396000f3006080604052600436106100f05763ffffffff7c01000000000000000000000000000000000000000000000000000000006000350416630383badc81146100f557806306fdde031461010f5780630fb5a6b4146101995780631703a018146101c05780632f572336146101d5578063409e2205146101ea578063653721471461021b5780637284e416146102305780638778b27d146102455780639c6f0d851461025a578063a5a60e691461026f578063a9aa6a9b146102a0578063aec2ccae146102b5578063b86d5298146102d6578063bef4876b1461030f578063cc2ee19614610338578063d56b288914610388575b600080fd5b34801561010157600080fd5b5061010d60043561039d565b005b34801561011b57600080fd5b50610124610435565b6040805160208082528351818301528351919283929083019185019080838360005b8381101561015e578181015183820152602001610146565b50505050905090810190601f16801561018b5780820380516001836020036101000a031916815260200191505b509250505060405180910390f35b3480156101a557600080fd5b506101ae6104c2565b60408051918252519081900360200190f35b3480156101cc57600080fd5b506101ae6104c8565b3480156101e157600080fd5b506101ae6104ce565b3480156101f657600080fd5b506102026004356104d4565b6040805192835260208301919091528051918290030190f35b34801561022757600080fd5b506102026104f3565b34801561023c57600080fd5b506101246104fc565b34801561025157600080fd5b506101ae610554565b34801561026657600080fd5b506101ae61055a565b34801561027b57600080fd5b50610284610560565b60408051600160a060020a039092168252519081900360200190f35b3480156102ac57600080fd5b5061012461056f565b3480156102c157600080fd5b506101ae600160a060020a03600435166105ca565b3480156102e257600080fd5b506102eb6105dc565b604051808260048111156102fb57fe5b60ff16815260200191505060405180910390f35b34801561031b57600080fd5b506103246105ec565b604080519115158252519081900360200190f35b34801561034457600080fd5b5061034d6105f5565b6040518082600260200280838360005b8381101561037557818101518382015260200161035d565b5050505090500191505060405180910390f35b34801561039457600080fd5b5061010d610618565b602354604080517f4adcade4000000000000000000000000000000000000000000000000000000008152600160a060020a039092166004830152602482018390525173__VotingLib_____________________________91634adcade4916044808301926000929190829003018186803b15801561041a57600080fd5b505af415801561042e573d6000803e3d6000fd5b5050505050565b60018054604080516020600284861615610100026000190190941693909304601f810184900484028201840190925281815292918301828280156104ba5780601f1061048f576101008083540402835291602001916104ba565b820191906000526020600020905b81548152906001019060200180831161049d57829003601f168201915b505050505081565b601d5481565b60205481565b60225481565b600381600b81106104e157fe5b60020201805460019091015490915082565b601a54601b5482565b6002805460408051602060018416156101000260001901909316849004601f810184900484028201840190925281815292918301828280156104ba5780601f1061048f576101008083540402835291602001916104ba565b601c5481565b601e5481565b602454600160a060020a031681565b6021805460408051602060026001851615610100026000190190941693909304601f810184900484028201840190925281815292918301828280156104ba5780601f1061048f576101008083540402835291602001916104ba565b60196020526000908152604090205481565b60235460a060020a900460ff1681565b601f5460ff1681565b6105fd610a03565b50604080518082019091526005548152600754602082015290565b602354604080517f1901910b000000000000000000000000000000000000000000000000000000008152600160a060020a0390921660048301525173__VotingLib_____________________________91631901910b916024808301926000929190829003018186803b15801561068e57600080fd5b505af41580156106a2573d6000803e3d6000fd5b5050601b547f6e6f000000000000000000000000000000000000000000000000000000000000141591506106d7905057610a01565b600060235460a060020a900460ff1660048111156106f157fe5b1415610779576000805460248054604080517f0eed6e8d000000000000000000000000000000000000000000000000000000008152600160a060020a03928316600482015290519190931693630eed6e8d93808401939192919082900301818387803b15801561076057600080fd5b505af1158015610774573d6000803e3d6000fd5b505050505b600160235460a060020a900460ff16600481111561079357fe5b141561081b576000805460248054604080517f81bb60de000000000000000000000000000000000000000000000000000000008152600160a060020a039283166004820152905191909316936381bb60de93808401939192919082900301818387803b15801561080257600080fd5b505af1158015610816573d6000803e3d6000fd5b505050505b600260235460a060020a900460ff16600481111561083557fe5b14156108bd576000805460248054604080517fe70e3737000000000000000000000000000000000000000000000000000000008152600160a060020a0392831660048201529051919093169363e70e373793808401939192919082900301818387803b1580156108a457600080fd5b505af11580156108b8573d6000803e3d6000fd5b505050505b600360235460a060020a900460ff1660048111156108d757fe5b141561095f576000805460248054604080517f62095841000000000000000000000000000000000000000000000000000000008152600160a060020a03928316600482015290519190931693636209584193808401939192919082900301818387803b15801561094657600080fd5b505af115801561095a573d6000803e3d6000fd5b505050505b600460235460a060020a900460ff16600481111561097957fe5b1415610a01576000805460248054604080517faaf793c6000000000000000000000000000000000000000000000000000000008152600160a060020a0392831660048201529051919093169363aaf793c693808401939192919082900301818387803b1580156109e857600080fd5b505af11580156109fc573d6000803e3d6000fd5b505050505b565b604080518082018252906002908290803883395091929150505600a165627a7a723058200678c5014033c27a475ca22efaee17b20fcc256266c8a9187ce1c84429b954d00029a165627a7a72305820f7471112dd019e8d112eeb54ddd2a1f46a4e5971896670cbffb04cb0eb784a200029",
  "source": "pragma solidity 0.4.24;\n\nimport \"./Module.sol\";\nimport \"./NewService.sol\";\nimport \"./CallService.sol\";\nimport \"../BaseVotingFactory.sol\";\n\n\ncontract ServiceVotingFactory is BaseVotingFactory {\n\n    constructor(address _baseVoting) BaseVotingFactory(_baseVoting) {}\n\n    /*\n    * @dev Create module proposal with passed parameters. Calls from DAO contract\n    * @param _creator Address of caller of DAO's respectively function\n    * @param _name Voting's name\n    * @param _description Voting's description\n    * @param _duration Voting's duration\n    * @param _module Which module should be changed\n    * @param _newAddress Address of new module\n    */\n    function createModule(address _creator, string _name, string _description, uint _duration, uint _module, address _newAddress)\n        external\n        onlyDAO\n        onlyParticipantWithEnoughDXC(_creator)\n        returns (address)\n    {\n        return new Module(baseVoting, msg.sender, _name, _description, _duration, _module, _newAddress);\n    }\n\n    /*\n    * @dev Create new service proposal with passed parameters. Calls from DAO contract\n    * @param _creator Address of caller of DAO's respectively function\n    * @param _name Voting's name\n    * @param _description Voting's description\n    * @param _duration Voting's duration\n    * @param _service Address of new service\n    */\n    function createNewService(address _creator, string _name, string _description, uint _duration, address _service)\n        external\n        onlyDAO\n        onlyParticipantWithEnoughDXC(_creator)\n        returns (address)\n    {\n        return new NewService(baseVoting, msg.sender, _name, _description, _duration, _service);\n    }\n\n    /*\n    * @dev Create call service proposal with passed parameters. Calls from DAO contract\n    * @param _creator Address of caller of DAO's respectively function\n    * @param _name Voting's name\n    * @param _description Voting's description\n    * @param _duration Voting's duration\n    * @param _service Address of service\n    * @param _service Method inside service\n    * @param _service Arguments for provided method\n    */\n    function createCallService(address _creator, string _name, string _description, uint _duration, address _service, bytes32 _method, bytes32[10] _args)\n        external\n        onlyDAO\n        onlyParticipantWithEnoughDXC(_creator)\n        returns (address)\n    {\n        return new CallService(baseVoting, msg.sender, _name, _description, _duration, _service, _method, _args);\n    }\n}\n",
  "sourcePath": "/Users/giddeonwyeth/PhpstormProjects/dao/daox-contracts/contracts/Votings/Service/ServiceVotingFactory.sol",
  "compiler": {
    "name": "solc",
    "version": "0.4.24+commit.e67f0147.Emscripten.clang"
  },
  "schemaVersion": "2.0.1",
  "updatedAt": "2018-07-19T15:51:04.687Z"
}