{
  "contractName": "ServiceVotingFactory",
  "abi": [
    {
      "constant": true,
      "inputs": [],
      "name": "daoFactory",
      "outputs": [
        {
          "name": "",
          "type": "address"
        }
      ],
      "payable": false,
      "stateMutability": "view",
      "type": "function"
    },
    {
      "constant": false,
      "inputs": [
        {
          "name": "_dao",
          "type": "address"
        }
      ],
      "name": "setDaoFactory",
      "outputs": [],
      "payable": false,
      "stateMutability": "nonpayable",
      "type": "function"
    },
    {
      "inputs": [
        {
          "name": "_baseVoting",
          "type": "address"
        }
      ],
      "payable": false,
      "stateMutability": "nonpayable",
      "type": "constructor"
    },
    {
      "constant": false,
      "inputs": [
        {
          "name": "_creator",
          "type": "address"
        },
        {
          "name": "_name",
          "type": "string"
        },
        {
          "name": "_description",
          "type": "string"
        },
        {
          "name": "_duration",
          "type": "uint256"
        },
        {
          "name": "_module",
          "type": "uint256"
        },
        {
          "name": "_newAddress",
          "type": "address"
        }
      ],
      "name": "createModule",
      "outputs": [
        {
          "name": "",
          "type": "address"
        }
      ],
      "payable": false,
      "stateMutability": "nonpayable",
      "type": "function"
    },
    {
      "constant": false,
      "inputs": [
        {
          "name": "_creator",
          "type": "address"
        },
        {
          "name": "_name",
          "type": "string"
        },
        {
          "name": "_description",
          "type": "string"
        },
        {
          "name": "_duration",
          "type": "uint256"
        },
        {
          "name": "_service",
          "type": "address"
        }
      ],
      "name": "createNewService",
      "outputs": [
        {
          "name": "",
          "type": "address"
        }
      ],
      "payable": false,
      "stateMutability": "nonpayable",
      "type": "function"
    }
  ],
  "bytecode": "0x608060405234801561001057600080fd5b506040516020806127e1833981016040525160008054600160a060020a03909216600160a060020a031990921691909117905561278f806100526000396000f3006080604052600436106200004d5763ffffffff60e060020a60003504166348f7f2a38114620000525780637ab34cb51462000086578063d6560dab14620000cd578063dfc061f01462000118575b600080fd5b3480156200005f57600080fd5b506200006a6200013e565b60408051600160a060020a039092168252519081900360200190f35b3480156200009357600080fd5b506200006a60048035600160a060020a0390811691602480358082019390830135926044359283019201359060643590608435166200014d565b348015620000da57600080fd5b506200006a60048035600160a060020a03908116916024803580820193908301359260443592830192013590606435906084359060a4351662000526565b3480156200012557600080fd5b506200013c600160a060020a03600435166200090a565b005b600154600160a060020a031681565b600154604080517ff6a3d24e0000000000000000000000000000000000000000000000000000000081523360048201529051600092600160a060020a03169163f6a3d24e91602480830192602092919082900301818787803b158015620001b357600080fd5b505af1158015620001c8573d6000803e3d6000fd5b505050506040513d6020811015620001df57600080fd5b50511515620001ed57600080fd5b604080517f929066f5000000000000000000000000000000000000000000000000000000008152600160a060020a038a16600482015290518991339163929066f5916024808201926020929091908290030181600087803b1580156200025257600080fd5b505af115801562000267573d6000803e3d6000fd5b505050506040513d60208110156200027e57600080fd5b50511515620002fd576040805160e560020a62461bcd02815260206004820152603060248201527f596f75206e65656420746f2062652061207061727469636970616e7420746f2060448201527f63616c6c2074686973206d6574686f6400000000000000000000000000000000606482015290519081900360840190fd5b33600160a060020a0316632948b4e96040518163ffffffff1660e060020a028152600401602060405180830381600087803b1580156200033c57600080fd5b505af115801562000351573d6000803e3d6000fd5b505050506040513d60208110156200036857600080fd5b5051604080517fcc9e4fd4000000000000000000000000000000000000000000000000000000008152600160a060020a03841660048201529051339163cc9e4fd49160248083019260209291908290030181600087803b158015620003cc57600080fd5b505af1158015620003e1573d6000803e3d6000fd5b505050506040513d6020811015620003f857600080fd5b5051101562000477576040805160e560020a62461bcd02815260206004820152602e60248201527f596f7520646f6e2774206861766520656e6f7567682044584320746f2063616c60448201527f6c2074686973206d6574686f642e000000000000000000000000000000000000606482015290519081900360840190fd5b600054600160a060020a0316338989898989896200049462000967565b600160a060020a03808a168252888116602083015260808201849052821660a082015260c0604082018181529082018790526060820160e083018989808284379091018481038352878152602001905087878082843782019150509a5050505050505050505050604051809103906000f08015801562000518573d6000803e3d6000fd5b509998505050505050505050565b600154604080517ff6a3d24e0000000000000000000000000000000000000000000000000000000081523360048201529051600092600160a060020a03169163f6a3d24e91602480830192602092919082900301818787803b1580156200058c57600080fd5b505af1158015620005a1573d6000803e3d6000fd5b505050506040513d6020811015620005b857600080fd5b50511515620005c657600080fd5b604080517f929066f5000000000000000000000000000000000000000000000000000000008152600160a060020a038b16600482015290518a91339163929066f5916024808201926020929091908290030181600087803b1580156200062b57600080fd5b505af115801562000640573d6000803e3d6000fd5b505050506040513d60208110156200065757600080fd5b50511515620006d6576040805160e560020a62461bcd02815260206004820152603060248201527f596f75206e65656420746f2062652061207061727469636970616e7420746f2060448201527f63616c6c2074686973206d6574686f6400000000000000000000000000000000606482015290519081900360840190fd5b33600160a060020a0316632948b4e96040518163ffffffff1660e060020a028152600401602060405180830381600087803b1580156200071557600080fd5b505af11580156200072a573d6000803e3d6000fd5b505050506040513d60208110156200074157600080fd5b5051604080517fcc9e4fd4000000000000000000000000000000000000000000000000000000008152600160a060020a03841660048201529051339163cc9e4fd49160248083019260209291908290030181600087803b158015620007a557600080fd5b505af1158015620007ba573d6000803e3d6000fd5b505050506040513d6020811015620007d157600080fd5b5051101562000850576040805160e560020a62461bcd02815260206004820152602e60248201527f596f7520646f6e2774206861766520656e6f7567682044584320746f2063616c60448201527f6c2074686973206d6574686f642e000000000000000000000000000000000000606482015290519081900360840190fd5b600054600160a060020a0316338a8a8a8a8a8a8a6200086e62000978565b600160a060020a03808b16825289811660208301526080820185905260a08201849052821660c082015260e0604082018181529082018890526060820161010083018a8a808284379091018481038352888152602001905088888082843782019150509b505050505050505050505050604051809103906000f080158015620008fb573d6000803e3d6000fd5b509a9950505050505050505050565b600154600160a060020a03161580156200092c5750600160a060020a03811615155b15156200093857600080fd5b6001805473ffffffffffffffffffffffffffffffffffffffff1916600160a060020a0392909216919091179055565b604051610f69806200098a83390190565b604051610e7180620018f3833901905600608060405242601e55601f805460ff1916905562093a8060225534801561002557600080fd5b50604051610f69380380610f6983398101604090815281516020830151918301516060840151608085015160a0860151939592830193919092019190610078858264010000000061070461024382021704565b60238054600160a060020a03808916600160a060020a031992831617928390556024805485831693169290921782556040517f120dce48000000000000000000000000000000000000000000000000000000008152928116600484018181529189169284019290925260848301859052605060a4840181905260c060448501908152885160c4860152885173__VotingLib_____________________________9563120dce4895948c948c948c948c94929392606481019160e490910190602089019080838360005b83811015610159578181015183820152602001610141565b50505050905090810190601f1680156101865780820380516001836020036101000a031916815260200191505b50838103825286518152865160209182019188019080838360005b838110156101b95781810151838201526020016101a1565b50505050905090810190601f1680156101e65780820380516001836020036101000a031916815260200191505b509850505050505050505060006040518083038186803b15801561020957600080fd5b505af415801561021d573d6000803e3d6000fd5b5050505061023861051f640100000000026401000000009004565b505050505050610599565b600081600160a060020a031660405180807f7072696365282900000000000000000000000000000000000000000000000000815250600701905060405180910390207c010000000000000000000000000000000000000000000000000000000090046040518163ffffffff167c01000000000000000000000000000000000000000000000000000000000281526004016000604051808303816000875af192505050151561037857604080517f08c379a000000000000000000000000000000000000000000000000000000000815260206004820152602660248201527f4e6f2070726963652070726f706572747920696e2070726f766964656420636f60448201527f6e74726163740000000000000000000000000000000000000000000000000000606482015290519081900360840190fd5b81600160a060020a031663a035b1fe6040518163ffffffff167c0100000000000000000000000000000000000000000000000000000000028152600401602060405180830381600087803b1580156103cf57600080fd5b505af11580156103e3573d6000803e3d6000fd5b505050506040513d60208110156103f957600080fd5b5051604080517f601e538b0000000000000000000000000000000000000000000000000000000081529051919250600160a060020a0385169163601e538b916004808201926020929091908290030181600087803b15801561045a57600080fd5b505af115801561046e573d6000803e3d6000fd5b505050506040513d602081101561048457600080fd5b505181111561051a57604080517f08c379a000000000000000000000000000000000000000000000000000000000815260206004820152603960248201527f4e6f7420656e6f7567682044584320696e20696e697469616c2063617069746160448201527f6c20746f20636f6e6e6563742074686973207365727669636500000000000000606482015290519081900360840190fd5b505050565b60408051808201825260008082527f79657300000000000000000000000000000000000000000000000000000000006020928301819052600582905560065582518084019093528083527f6e6f00000000000000000000000000000000000000000000000000000000000092909101829052600755600855565b6109c1806105a86000396000f3006080604052600436106100cc5763ffffffff60e060020a6000350416630383badc81146100d157806306fdde03146100eb5780630fb5a6b4146101755780631703a0181461019c5780632f572336146101b1578063409e2205146101c657806365372147146101f75780637284e4161461020c5780638778b27d146102215780639c6f0d8514610236578063a9aa6a9b1461024b578063aec2ccae14610260578063bef4876b14610281578063cc2ee196146102aa578063d56b2889146102fa578063d598d4c91461030f575b600080fd5b3480156100dd57600080fd5b506100e9600435610340565b005b3480156100f757600080fd5b506101006103d8565b6040805160208082528351818301528351919283929083019185019080838360005b8381101561013a578181015183820152602001610122565b50505050905090810190601f1680156101675780820380516001836020036101000a031916815260200191505b509250505060405180910390f35b34801561018157600080fd5b5061018a610465565b60408051918252519081900360200190f35b3480156101a857600080fd5b5061018a61046b565b3480156101bd57600080fd5b5061018a610471565b3480156101d257600080fd5b506101de600435610477565b6040805192835260208301919091528051918290030190f35b34801561020357600080fd5b506101de610496565b34801561021857600080fd5b5061010061049f565b34801561022d57600080fd5b5061018a6104f7565b34801561024257600080fd5b5061018a6104fd565b34801561025757600080fd5b50610100610503565b34801561026c57600080fd5b5061018a600160a060020a036004351661055e565b34801561028d57600080fd5b50610296610570565b604080519115158252519081900360200190f35b3480156102b657600080fd5b506102bf610579565b6040518082600260200280838360005b838110156102e75781810151838201526020016102cf565b5050505090500191505060405180910390f35b34801561030657600080fd5b506100e961059c565b34801561031b57600080fd5b506103246106da565b60408051600160a060020a039092168252519081900360200190f35b602354604080517f4adcade4000000000000000000000000000000000000000000000000000000008152600160a060020a039092166004830152602482018390525173__VotingLib_____________________________91634adcade4916044808301926000929190829003018186803b1580156103bd57600080fd5b505af41580156103d1573d6000803e3d6000fd5b5050505050565b60018054604080516020600284861615610100026000190190941693909304601f8101849004840282018401909252818152929183018282801561045d5780601f106104325761010080835404028352916020019161045d565b820191906000526020600020905b81548152906001019060200180831161044057829003601f168201915b505050505081565b601d5481565b60205481565b60225481565b600381600b811061048457fe5b60020201805460019091015490915082565b601a54601b5482565b6002805460408051602060018416156101000260001901909316849004601f8101849004840282018401909252818152929183018282801561045d5780601f106104325761010080835404028352916020019161045d565b601c5481565b601e5481565b6021805460408051602060026001851615610100026000190190941693909304601f8101849004840282018401909252818152929183018282801561045d5780601f106104325761010080835404028352916020019161045d565b60196020526000908152604090205481565b601f5460ff1681565b6105816106e9565b50604080518082019091526005548152600754602082015290565b602354604080517f1901910b000000000000000000000000000000000000000000000000000000008152600160a060020a0390921660048301525173__VotingLib_____________________________91631901910b916024808301926000929190829003018186803b15801561061257600080fd5b505af4158015610626573d6000803e3d6000fd5b5050601b547f7965730000000000000000000000000000000000000000000000000000000000141591506106d89050576000805460248054604080517f86114fcf000000000000000000000000000000000000000000000000000000008152600160a060020a039283166004820152905191909316936386114fcf93808401939192919082900301818387803b1580156106bf57600080fd5b505af11580156106d3573d6000803e3d6000fd5b505050505b565b602454600160a060020a031681565b60408051808201825290600290829080388339509192915050565b600081600160a060020a031660405180807f70726963652829000000000000000000000000000000000000000000000000008152506007019050604051809103902060e060020a90046040518163ffffffff1660e060020a0281526004016000604051808303816000875af192505050151561080757604080517f08c379a000000000000000000000000000000000000000000000000000000000815260206004820152602660248201527f4e6f2070726963652070726f706572747920696e2070726f766964656420636f60448201527f6e74726163740000000000000000000000000000000000000000000000000000606482015290519081900360840190fd5b81600160a060020a031663a035b1fe6040518163ffffffff1660e060020a028152600401602060405180830381600087803b15801561084557600080fd5b505af1158015610859573d6000803e3d6000fd5b505050506040513d602081101561086f57600080fd5b5051604080517f601e538b0000000000000000000000000000000000000000000000000000000081529051919250600160a060020a0385169163601e538b916004808201926020929091908290030181600087803b1580156108d057600080fd5b505af11580156108e4573d6000803e3d6000fd5b505050506040513d60208110156108fa57600080fd5b505181111561099057604080517f08c379a000000000000000000000000000000000000000000000000000000000815260206004820152603960248201527f4e6f7420656e6f7567682044584320696e20696e697469616c2063617069746160448201527f6c20746f20636f6e6e6563742074686973207365727669636500000000000000606482015290519081900360840190fd5b5050505600a165627a7a7230582004e0fbf096a0f387bf5e7d3df18ae7669447d6b124154144477a6c500bcadcfa0029608060405242601e55601f805460ff1916905562093a806022553480156200002657600080fd5b5060405162000e7138038062000e7183398101604090815281516020830151918301516060840151608085015160a086015160c087015194969384019492909301929091600082108015906200007d575060048211155b15156200008957600080fd5b60238054600160a060020a031916600160a060020a0389161790556040805180820190915260068082527f4d6f64756c6500000000000000000000000000000000000000000000000000006020909201918252620000ea9160219162000372565b50816004811115620000f857fe5b6023805460a060020a60ff021916740100000000000000000000000000000000000000008360048111156200012957fe5b021790555060248054600160a060020a031916600160a060020a038381169190911782556023546040517f120dce4800000000000000000000000000000000000000000000000000000000815290821660048201818152928a169382019390935260848101869052605060a4820181905260c060448301908152895160c4840152895173__VotingLib_____________________________9563120dce489590948d948d948d948d949293606481019160e490910190602089019080838360005b8381101562000204578181015183820152602001620001ea565b50505050905090810190601f168015620002325780820380516001836020036101000a031916815260200191505b50838103825286518152865160209182019188019080838360005b83811015620002675781810151838201526020016200024d565b50505050905090810190601f168015620002955780820380516001836020036101000a031916815260200191505b509850505050505050505060006040518083038186803b158015620002b957600080fd5b505af4158015620002ce573d6000803e3d6000fd5b50505050620002eb620002f8640100000000026401000000009004565b5050505050505062000417565b60408051808201825260008082527f79657300000000000000000000000000000000000000000000000000000000006020928301819052600582905560065582518084019093528083527f6e6f00000000000000000000000000000000000000000000000000000000000092909101829052600755600855565b828054600181600116156101000203166002900490600052602060002090601f016020900481019282601f10620003b557805160ff1916838001178555620003e5565b82800160010185558215620003e5579182015b82811115620003e5578251825591602001919060010190620003c8565b50620003f3929150620003f7565b5090565b6200041491905b80821115620003f35760008155600101620003fe565b90565b610a4a80620004276000396000f3006080604052600436106100f05763ffffffff7c01000000000000000000000000000000000000000000000000000000006000350416630383badc81146100f557806306fdde031461010f5780630fb5a6b4146101995780631703a018146101c05780632f572336146101d5578063409e2205146101ea578063653721471461021b5780637284e416146102305780638778b27d146102455780639c6f0d851461025a578063a5a60e691461026f578063a9aa6a9b146102a0578063aec2ccae146102b5578063b86d5298146102d6578063bef4876b1461030f578063cc2ee19614610338578063d56b288914610388575b600080fd5b34801561010157600080fd5b5061010d60043561039d565b005b34801561011b57600080fd5b50610124610435565b6040805160208082528351818301528351919283929083019185019080838360005b8381101561015e578181015183820152602001610146565b50505050905090810190601f16801561018b5780820380516001836020036101000a031916815260200191505b509250505060405180910390f35b3480156101a557600080fd5b506101ae6104c2565b60408051918252519081900360200190f35b3480156101cc57600080fd5b506101ae6104c8565b3480156101e157600080fd5b506101ae6104ce565b3480156101f657600080fd5b506102026004356104d4565b6040805192835260208301919091528051918290030190f35b34801561022757600080fd5b506102026104f3565b34801561023c57600080fd5b506101246104fc565b34801561025157600080fd5b506101ae610554565b34801561026657600080fd5b506101ae61055a565b34801561027b57600080fd5b50610284610560565b60408051600160a060020a039092168252519081900360200190f35b3480156102ac57600080fd5b5061012461056f565b3480156102c157600080fd5b506101ae600160a060020a03600435166105ca565b3480156102e257600080fd5b506102eb6105dc565b604051808260048111156102fb57fe5b60ff16815260200191505060405180910390f35b34801561031b57600080fd5b506103246105ec565b604080519115158252519081900360200190f35b34801561034457600080fd5b5061034d6105f5565b6040518082600260200280838360005b8381101561037557818101518382015260200161035d565b5050505090500191505060405180910390f35b34801561039457600080fd5b5061010d610618565b602354604080517f4adcade4000000000000000000000000000000000000000000000000000000008152600160a060020a039092166004830152602482018390525173__VotingLib_____________________________91634adcade4916044808301926000929190829003018186803b15801561041a57600080fd5b505af415801561042e573d6000803e3d6000fd5b5050505050565b60018054604080516020600284861615610100026000190190941693909304601f810184900484028201840190925281815292918301828280156104ba5780601f1061048f576101008083540402835291602001916104ba565b820191906000526020600020905b81548152906001019060200180831161049d57829003601f168201915b505050505081565b601d5481565b60205481565b60225481565b600381600b81106104e157fe5b60020201805460019091015490915082565b601a54601b5482565b6002805460408051602060018416156101000260001901909316849004601f810184900484028201840190925281815292918301828280156104ba5780601f1061048f576101008083540402835291602001916104ba565b601c5481565b601e5481565b602454600160a060020a031681565b6021805460408051602060026001851615610100026000190190941693909304601f810184900484028201840190925281815292918301828280156104ba5780601f1061048f576101008083540402835291602001916104ba565b60196020526000908152604090205481565b60235460a060020a900460ff1681565b601f5460ff1681565b6105fd610a03565b50604080518082019091526005548152600754602082015290565b602354604080517f1901910b000000000000000000000000000000000000000000000000000000008152600160a060020a0390921660048301525173__VotingLib_____________________________91631901910b916024808301926000929190829003018186803b15801561068e57600080fd5b505af41580156106a2573d6000803e3d6000fd5b5050601b547f6e6f000000000000000000000000000000000000000000000000000000000000141591506106d7905057610a01565b600060235460a060020a900460ff1660048111156106f157fe5b1415610779576000805460248054604080517f0eed6e8d000000000000000000000000000000000000000000000000000000008152600160a060020a03928316600482015290519190931693630eed6e8d93808401939192919082900301818387803b15801561076057600080fd5b505af1158015610774573d6000803e3d6000fd5b505050505b600160235460a060020a900460ff16600481111561079357fe5b141561081b576000805460248054604080517f81bb60de000000000000000000000000000000000000000000000000000000008152600160a060020a039283166004820152905191909316936381bb60de93808401939192919082900301818387803b15801561080257600080fd5b505af1158015610816573d6000803e3d6000fd5b505050505b600260235460a060020a900460ff16600481111561083557fe5b14156108bd576000805460248054604080517fe70e3737000000000000000000000000000000000000000000000000000000008152600160a060020a0392831660048201529051919093169363e70e373793808401939192919082900301818387803b1580156108a457600080fd5b505af11580156108b8573d6000803e3d6000fd5b505050505b600360235460a060020a900460ff1660048111156108d757fe5b141561095f576000805460248054604080517f62095841000000000000000000000000000000000000000000000000000000008152600160a060020a03928316600482015290519190931693636209584193808401939192919082900301818387803b15801561094657600080fd5b505af115801561095a573d6000803e3d6000fd5b505050505b600460235460a060020a900460ff16600481111561097957fe5b1415610a01576000805460248054604080517faaf793c6000000000000000000000000000000000000000000000000000000008152600160a060020a0392831660048201529051919093169363aaf793c693808401939192919082900301818387803b1580156109e857600080fd5b505af11580156109fc573d6000803e3d6000fd5b505050505b565b604080518082018252906002908290803883395091929150505600a165627a7a723058207738dda285aea9e944466bc9b075768fc016bd1297ee5f789b9d49d605cf25dc0029a165627a7a72305820ddb1e838ef56ac54d224fcf7a6460265160e086648a8b7a7ce11395ceffd216a0029",
  "source": "pragma solidity 0.4.24;\n\nimport \"./Module.sol\";\nimport \"./NewService.sol\";\nimport \"../BaseVotingFactory.sol\";\n\n\ncontract ServiceVotingFactory is BaseVotingFactory {\n\n    constructor(address _baseVoting) BaseVotingFactory(_baseVoting) {}\n\n    /*\n    * @dev Create module proposal with passed parameters. Calls from DAO contract\n    * @param _creator Address of caller of DAO's respectively function\n    * @param _name Voting's name\n    * @param _description Voting's description\n    * @param _duration Voting's duration\n    * @param _module Which module should be changed\n    * @param _newAddress Address of new module\n    */\n    function createModule(address _creator, string _name, string _description, uint _duration, uint _module, address _newAddress)\n        external\n        onlyDAO\n        onlyParticipantWithEnoughDXC(_creator)\n        returns (address)\n    {\n        return new Module(baseVoting, msg.sender, _name, _description, _duration, _module, _newAddress);\n    }\n\n    /*\n    * @dev Create new service proposal with passed parameters. Calls from DAO contract\n    * @param _creator Address of caller of DAO's respectively function\n    * @param _name Voting's name\n    * @param _description Voting's description\n    * @param _duration Voting's duration\n    * @param _newAddress Address of new service\n    */\n    function createNewService(address _creator, string _name, string _description, uint _duration, address _service)\n        external\n        onlyDAO\n        onlyParticipantWithEnoughDXC(_creator)\n        returns (address)\n    {\n        return new NewService(baseVoting, msg.sender, _name, _description, _duration, _service);\n    }\n}\n",
  "sourcePath": "/Users/giddeonwyeth/PhpstormProjects/dao/daox-contracts/contracts/Votings/Service/ServiceVotingFactory.sol",
  "compiler": {
    "name": "solc",
    "version": "0.4.24+commit.e67f0147.Emscripten.clang"
  },
  "schemaVersion": "2.0.1",
  "updatedAt": "2018-07-10T13:42:04.590Z"
}