{
  "contractName": "State",
  "abi": [
    {
      "constant": true,
      "inputs": [],
      "name": "lockup",
      "outputs": [
        {
          "name": "",
          "type": "uint256"
        }
      ],
      "payable": false,
      "stateMutability": "view",
      "type": "function"
    },
    {
      "constant": true,
      "inputs": [],
      "name": "name",
      "outputs": [
        {
          "name": "",
          "type": "string"
        }
      ],
      "payable": false,
      "stateMutability": "view",
      "type": "function"
    },
    {
      "constant": true,
      "inputs": [],
      "name": "tokensMintedByEther",
      "outputs": [
        {
          "name": "",
          "type": "uint256"
        }
      ],
      "payable": false,
      "stateMutability": "view",
      "type": "function"
    },
    {
      "constant": true,
      "inputs": [
        {
          "name": "",
          "type": "address"
        }
      ],
      "name": "teamMap",
      "outputs": [
        {
          "name": "",
          "type": "bool"
        }
      ],
      "payable": false,
      "stateMutability": "view",
      "type": "function"
    },
    {
      "constant": true,
      "inputs": [
        {
          "name": "",
          "type": "address"
        }
      ],
      "name": "depositedWei",
      "outputs": [
        {
          "name": "",
          "type": "uint256"
        }
      ],
      "payable": false,
      "stateMutability": "view",
      "type": "function"
    },
    {
      "constant": true,
      "inputs": [
        {
          "name": "",
          "type": "uint256"
        }
      ],
      "name": "team",
      "outputs": [
        {
          "name": "",
          "type": "address"
        }
      ],
      "payable": false,
      "stateMutability": "view",
      "type": "function"
    },
    {
      "constant": true,
      "inputs": [],
      "name": "commissionRaised",
      "outputs": [
        {
          "name": "",
          "type": "uint256"
        }
      ],
      "payable": false,
      "stateMutability": "view",
      "type": "function"
    },
    {
      "constant": true,
      "inputs": [],
      "name": "refundableSoftCap",
      "outputs": [
        {
          "name": "",
          "type": "bool"
        }
      ],
      "payable": false,
      "stateMutability": "view",
      "type": "function"
    },
    {
      "constant": true,
      "inputs": [],
      "name": "votingPrice",
      "outputs": [
        {
          "name": "",
          "type": "uint256"
        }
      ],
      "payable": false,
      "stateMutability": "view",
      "type": "function"
    },
    {
      "constant": true,
      "inputs": [
        {
          "name": "",
          "type": "uint256"
        }
      ],
      "name": "teamBonusesArr",
      "outputs": [
        {
          "name": "",
          "type": "uint256"
        }
      ],
      "payable": false,
      "stateMutability": "view",
      "type": "function"
    },
    {
      "constant": true,
      "inputs": [
        {
          "name": "",
          "type": "uint256"
        }
      ],
      "name": "teamServiceMember",
      "outputs": [
        {
          "name": "",
          "type": "bool"
        }
      ],
      "payable": false,
      "stateMutability": "view",
      "type": "function"
    },
    {
      "constant": true,
      "inputs": [],
      "name": "endTime",
      "outputs": [
        {
          "name": "",
          "type": "uint256"
        }
      ],
      "payable": false,
      "stateMutability": "view",
      "type": "function"
    },
    {
      "constant": true,
      "inputs": [],
      "name": "serviceContract",
      "outputs": [
        {
          "name": "",
          "type": "address"
        }
      ],
      "payable": false,
      "stateMutability": "view",
      "type": "function"
    },
    {
      "constant": true,
      "inputs": [
        {
          "name": "",
          "type": "address"
        }
      ],
      "name": "votings",
      "outputs": [
        {
          "name": "",
          "type": "address"
        }
      ],
      "payable": false,
      "stateMutability": "view",
      "type": "function"
    },
    {
      "constant": true,
      "inputs": [
        {
          "name": "",
          "type": "address"
        }
      ],
      "name": "whiteList",
      "outputs": [
        {
          "name": "",
          "type": "bool"
        }
      ],
      "payable": false,
      "stateMutability": "view",
      "type": "function"
    },
    {
      "constant": true,
      "inputs": [],
      "name": "canInitStateParameters",
      "outputs": [
        {
          "name": "",
          "type": "bool"
        }
      ],
      "payable": false,
      "stateMutability": "view",
      "type": "function"
    },
    {
      "constant": true,
      "inputs": [
        {
          "name": "",
          "type": "uint256"
        }
      ],
      "name": "whiteListArr",
      "outputs": [
        {
          "name": "",
          "type": "address"
        }
      ],
      "payable": false,
      "stateMutability": "view",
      "type": "function"
    },
    {
      "constant": true,
      "inputs": [],
      "name": "weiRaised",
      "outputs": [
        {
          "name": "",
          "type": "uint256"
        }
      ],
      "payable": false,
      "stateMutability": "view",
      "type": "function"
    },
    {
      "constant": true,
      "inputs": [],
      "name": "DXCRaised",
      "outputs": [
        {
          "name": "",
          "type": "uint256"
        }
      ],
      "payable": false,
      "stateMutability": "view",
      "type": "function"
    },
    {
      "constant": true,
      "inputs": [],
      "name": "version",
      "outputs": [
        {
          "name": "",
          "type": "bytes32"
        }
      ],
      "payable": false,
      "stateMutability": "view",
      "type": "function"
    },
    {
      "constant": true,
      "inputs": [
        {
          "name": "",
          "type": "uint256"
        }
      ],
      "name": "bonusDXCRates",
      "outputs": [
        {
          "name": "",
          "type": "uint256"
        }
      ],
      "payable": false,
      "stateMutability": "view",
      "type": "function"
    },
    {
      "constant": true,
      "inputs": [],
      "name": "canSetWhiteList",
      "outputs": [
        {
          "name": "",
          "type": "bool"
        }
      ],
      "payable": false,
      "stateMutability": "view",
      "type": "function"
    },
    {
      "constant": true,
      "inputs": [],
      "name": "initialCapital",
      "outputs": [
        {
          "name": "",
          "type": "uint256"
        }
      ],
      "payable": false,
      "stateMutability": "view",
      "type": "function"
    },
    {
      "constant": true,
      "inputs": [],
      "name": "serviceVotingFactory",
      "outputs": [
        {
          "name": "",
          "type": "address"
        }
      ],
      "payable": false,
      "stateMutability": "view",
      "type": "function"
    },
    {
      "constant": true,
      "inputs": [],
      "name": "tokensMintedByDXC",
      "outputs": [
        {
          "name": "",
          "type": "uint256"
        }
      ],
      "payable": false,
      "stateMutability": "view",
      "type": "function"
    },
    {
      "constant": true,
      "inputs": [],
      "name": "fundsRaised",
      "outputs": [
        {
          "name": "",
          "type": "uint256"
        }
      ],
      "payable": false,
      "stateMutability": "view",
      "type": "function"
    },
    {
      "constant": true,
      "inputs": [
        {
          "name": "",
          "type": "uint256"
        }
      ],
      "name": "teamHold",
      "outputs": [
        {
          "name": "",
          "type": "uint256"
        }
      ],
      "payable": false,
      "stateMutability": "view",
      "type": "function"
    },
    {
      "constant": true,
      "inputs": [
        {
          "name": "",
          "type": "address"
        }
      ],
      "name": "services",
      "outputs": [
        {
          "name": "",
          "type": "bool"
        }
      ],
      "payable": false,
      "stateMutability": "view",
      "type": "function"
    },
    {
      "constant": true,
      "inputs": [],
      "name": "description",
      "outputs": [
        {
          "name": "",
          "type": "string"
        }
      ],
      "payable": false,
      "stateMutability": "view",
      "type": "function"
    },
    {
      "constant": true,
      "inputs": [],
      "name": "startTime",
      "outputs": [
        {
          "name": "",
          "type": "uint256"
        }
      ],
      "payable": false,
      "stateMutability": "view",
      "type": "function"
    },
    {
      "constant": true,
      "inputs": [
        {
          "name": "",
          "type": "address"
        }
      ],
      "name": "depositedDXC",
      "outputs": [
        {
          "name": "",
          "type": "uint256"
        }
      ],
      "payable": false,
      "stateMutability": "view",
      "type": "function"
    },
    {
      "constant": true,
      "inputs": [],
      "name": "owner",
      "outputs": [
        {
          "name": "",
          "type": "address"
        }
      ],
      "payable": false,
      "stateMutability": "view",
      "type": "function"
    },
    {
      "constant": true,
      "inputs": [],
      "name": "softCap",
      "outputs": [
        {
          "name": "",
          "type": "uint256"
        }
      ],
      "payable": false,
      "stateMutability": "view",
      "type": "function"
    },
    {
      "constant": true,
      "inputs": [],
      "name": "DXC",
      "outputs": [
        {
          "name": "",
          "type": "address"
        }
      ],
      "payable": false,
      "stateMutability": "view",
      "type": "function"
    },
    {
      "constant": true,
      "inputs": [],
      "name": "canInitCrowdsaleParameters",
      "outputs": [
        {
          "name": "",
          "type": "bool"
        }
      ],
      "payable": false,
      "stateMutability": "view",
      "type": "function"
    },
    {
      "constant": true,
      "inputs": [],
      "name": "created_at",
      "outputs": [
        {
          "name": "",
          "type": "uint256"
        }
      ],
      "payable": false,
      "stateMutability": "view",
      "type": "function"
    },
    {
      "constant": true,
      "inputs": [],
      "name": "DXCRate",
      "outputs": [
        {
          "name": "",
          "type": "uint256"
        }
      ],
      "payable": false,
      "stateMutability": "view",
      "type": "function"
    },
    {
      "constant": true,
      "inputs": [],
      "name": "lastWithdrawalTimestamp",
      "outputs": [
        {
          "name": "",
          "type": "uint256"
        }
      ],
      "payable": false,
      "stateMutability": "view",
      "type": "function"
    },
    {
      "constant": true,
      "inputs": [],
      "name": "teamTokensAmount",
      "outputs": [
        {
          "name": "",
          "type": "uint256"
        }
      ],
      "payable": false,
      "stateMutability": "view",
      "type": "function"
    },
    {
      "constant": true,
      "inputs": [],
      "name": "votingFactory",
      "outputs": [
        {
          "name": "",
          "type": "address"
        }
      ],
      "payable": false,
      "stateMutability": "view",
      "type": "function"
    },
    {
      "constant": true,
      "inputs": [],
      "name": "refundable",
      "outputs": [
        {
          "name": "",
          "type": "bool"
        }
      ],
      "payable": false,
      "stateMutability": "view",
      "type": "function"
    },
    {
      "constant": true,
      "inputs": [],
      "name": "canInitBonuses",
      "outputs": [
        {
          "name": "",
          "type": "bool"
        }
      ],
      "payable": false,
      "stateMutability": "view",
      "type": "function"
    },
    {
      "constant": true,
      "inputs": [],
      "name": "newDXCRate",
      "outputs": [
        {
          "name": "",
          "type": "uint256"
        }
      ],
      "payable": false,
      "stateMutability": "view",
      "type": "function"
    },
    {
      "constant": true,
      "inputs": [
        {
          "name": "",
          "type": "address"
        }
      ],
      "name": "initialCapitalIncr",
      "outputs": [
        {
          "name": "",
          "type": "uint256"
        }
      ],
      "payable": false,
      "stateMutability": "view",
      "type": "function"
    },
    {
      "constant": true,
      "inputs": [],
      "name": "etherRate",
      "outputs": [
        {
          "name": "",
          "type": "uint256"
        }
      ],
      "payable": false,
      "stateMutability": "view",
      "type": "function"
    },
    {
      "constant": true,
      "inputs": [
        {
          "name": "",
          "type": "uint256"
        }
      ],
      "name": "bonusEtherRates",
      "outputs": [
        {
          "name": "",
          "type": "uint256"
        }
      ],
      "payable": false,
      "stateMutability": "view",
      "type": "function"
    },
    {
      "constant": true,
      "inputs": [],
      "name": "commissionContract",
      "outputs": [
        {
          "name": "",
          "type": "address"
        }
      ],
      "payable": false,
      "stateMutability": "view",
      "type": "function"
    },
    {
      "constant": true,
      "inputs": [
        {
          "name": "",
          "type": "address"
        }
      ],
      "name": "teamBonuses",
      "outputs": [
        {
          "name": "",
          "type": "uint256"
        }
      ],
      "payable": false,
      "stateMutability": "view",
      "type": "function"
    },
    {
      "constant": true,
      "inputs": [],
      "name": "newEtherRate",
      "outputs": [
        {
          "name": "",
          "type": "uint256"
        }
      ],
      "payable": false,
      "stateMutability": "view",
      "type": "function"
    },
    {
      "constant": true,
      "inputs": [],
      "name": "proxyAPI",
      "outputs": [
        {
          "name": "",
          "type": "address"
        }
      ],
      "payable": false,
      "stateMutability": "view",
      "type": "function"
    },
    {
      "constant": true,
      "inputs": [],
      "name": "dxcPayments",
      "outputs": [
        {
          "name": "",
          "type": "bool"
        }
      ],
      "payable": false,
      "stateMutability": "view",
      "type": "function"
    },
    {
      "constant": true,
      "inputs": [
        {
          "name": "",
          "type": "uint256"
        }
      ],
      "name": "bonusPeriods",
      "outputs": [
        {
          "name": "",
          "type": "uint256"
        }
      ],
      "payable": false,
      "stateMutability": "view",
      "type": "function"
    },
    {
      "constant": true,
      "inputs": [],
      "name": "crowdsaleFinished",
      "outputs": [
        {
          "name": "",
          "type": "bool"
        }
      ],
      "payable": false,
      "stateMutability": "view",
      "type": "function"
    },
    {
      "constant": true,
      "inputs": [],
      "name": "hardCap",
      "outputs": [
        {
          "name": "",
          "type": "uint256"
        }
      ],
      "payable": false,
      "stateMutability": "view",
      "type": "function"
    },
    {
      "constant": true,
      "inputs": [],
      "name": "token",
      "outputs": [
        {
          "name": "",
          "type": "address"
        }
      ],
      "payable": false,
      "stateMutability": "view",
      "type": "function"
    },
    {
      "anonymous": false,
      "inputs": [
        {
          "indexed": false,
          "name": "_comission",
          "type": "address"
        }
      ],
      "name": "State",
      "type": "event"
    },
    {
      "constant": false,
      "inputs": [
        {
          "name": "_tokenAddress",
          "type": "address"
        }
      ],
      "name": "initState",
      "outputs": [],
      "payable": false,
      "stateMutability": "nonpayable",
      "type": "function"
    }
  ],
  "bytecode": "0x60806040526006805463ff0000001962ff00001961ff001960ff19938416600117811661010017919091166201000017919091166301000000179092556000600781905560088190556009819055600a819055600d8054909316909255600e829055600f82905542601c55601e80549091169055601f819055602b819055602c819055602d5534801561009157600080fd5b50610e9f806100a16000396000f30060806040526004361061029d5763ffffffff7c010000000000000000000000000000000000000000000000000000000060003504166306490f4781146102a257806306fdde03146102c95780630ce57c251461035357806310be8d1214610368578063123379931461039d578063197ebd53146103be5780631e782df5146103f2578063289a03b0146104075780632948b4e91461041c5780632eeacc5f1461043157806330c5a0f2146104495780633197cbb614610461578063364dab1014610476578063369ef7221461048b578063372c12b1146104ac578063395ad021146104cd5780633b541bdb146104e25780634042b66f146104fa5780634f0653681461050f57806354fd4d501461052457806356428fe5146105395780635f30b64514610551578063601e538b1461056657806362a2b3721461057b57806362c64639146105905780636681b9fd146105a55780636922b214146105ba5780636d966d01146105d25780637284e416146105f357806378e97925146106085780637d6d3b8c1461061d5780638da5cb5b1461063e578063906a26e01461065357806390836822146106685780639b95a8351461067d5780639c6f0d85146106925780639e58779e146106a7578063a62c4169146106bc578063a88f893a146106d1578063bb24c54b146106e6578063bf89662d146106fb578063c0ef7a6d14610710578063c18f18e814610725578063cc9e4fd41461073a578063d0f7a6011461075b578063da7801b314610770578063da8909e514610788578063db13c7251461079d578063e2278f2f146107be578063e2a7937b146107d3578063e3bd043a146107e8578063e9fdfb89146107fd578063ece84fd514610815578063ee5e758c1461082a578063fb86a4041461084d578063fc0c546a14610862575b600080fd5b3480156102ae57600080fd5b506102b7610877565b60408051918252519081900360200190f35b3480156102d557600080fd5b506102de61087d565b6040805160208082528351818301528351919283929083019185019080838360005b83811015610318578181015183820152602001610300565b50505050905090810190601f1680156103455780820380516001836020036101000a031916815260200191505b509250505060405180910390f35b34801561035f57600080fd5b506102b761090b565b34801561037457600080fd5b50610389600160a060020a0360043516610911565b604080519115158252519081900360200190f35b3480156103a957600080fd5b506102b7600160a060020a0360043516610926565b3480156103ca57600080fd5b506103d6600435610938565b60408051600160a060020a039092168252519081900360200190f35b3480156103fe57600080fd5b506102b7610960565b34801561041357600080fd5b50610389610966565b34801561042857600080fd5b506102b7610974565b34801561043d57600080fd5b506102b760043561097a565b34801561045557600080fd5b50610389600435610999565b34801561046d57600080fd5b506102b76109cb565b34801561048257600080fd5b506103d66109d1565b34801561049757600080fd5b506103d6600160a060020a03600435166109e0565b3480156104b857600080fd5b50610389600160a060020a03600435166109fb565b3480156104d957600080fd5b50610389610a10565b3480156104ee57600080fd5b506103d6600435610a1e565b34801561050657600080fd5b506102b7610a2c565b34801561051b57600080fd5b506102b7610a32565b34801561053057600080fd5b506102b7610a38565b34801561054557600080fd5b506102b7600435610a5c565b34801561055d57600080fd5b50610389610a6a565b34801561057257600080fd5b506102b7610a7a565b34801561058757600080fd5b506103d6610a80565b34801561059c57600080fd5b506102b7610a8f565b3480156105b157600080fd5b506102b7610a95565b3480156105c657600080fd5b506102b7600435610a9b565b3480156105de57600080fd5b50610389600160a060020a0360043516610aa9565b3480156105ff57600080fd5b506102de610abe565b34801561061457600080fd5b506102b7610b19565b34801561062957600080fd5b506102b7600160a060020a0360043516610b1f565b34801561064a57600080fd5b506103d6610b31565b34801561065f57600080fd5b506102b7610b40565b34801561067457600080fd5b506103d6610b46565b34801561068957600080fd5b50610389610b55565b34801561069e57600080fd5b506102b7610b5e565b3480156106b357600080fd5b506102b7610b64565b3480156106c857600080fd5b506102b7610b6a565b3480156106dd57600080fd5b506102b7610b70565b3480156106f257600080fd5b506103d6610b76565b34801561070757600080fd5b50610389610b85565b34801561071c57600080fd5b50610389610b8e565b34801561073157600080fd5b506102b7610b9d565b34801561074657600080fd5b506102b7600160a060020a0360043516610ba3565b34801561076757600080fd5b506102b7610bb5565b34801561077c57600080fd5b506102b7600435610bbb565b34801561079457600080fd5b506103d6610bc9565b3480156107a957600080fd5b506102b7600160a060020a0360043516610bd8565b3480156107ca57600080fd5b506102b7610bea565b3480156107df57600080fd5b506103d6610bf0565b3480156107f457600080fd5b50610389610bff565b34801561080957600080fd5b506102b7600435610c08565b34801561082157600080fd5b50610389610c16565b34801561083657600080fd5b5061084b600160a060020a0360043516610c1f565b005b34801561085957600080fd5b506102b7610d52565b34801561086e57600080fd5b506103d6610d58565b602b5481565b601a805460408051602060026001851615610100026000190190941693909304601f810184900484028201840190925281815292918301828280156109035780601f106108d857610100808354040283529160200191610903565b820191906000526020600020905b8154815290600101906020018083116108e657829003601f168201915b505050505081565b60285481565b60136020526000908152604090205460ff1681565b600b6020526000908152604090205481565b601280548290811061094657fe5b600091825260209091200154600160a060020a0316905081565b60075481565b600d54610100900460ff1681565b602d5481565b601180548290811061098857fe5b600091825260209091200154905081565b60158054829081106109a757fe5b9060005260206000209060209182820401919006915054906101000a900460ff1681565b60055481565b601054600160a060020a031681565b601d60205260009081526040902054600160a060020a031681565b60216020526000908152604090205460ff1681565b600654610100900460ff1681565b602080548290811061094657fe5b60085481565b60095481565b7f312e302e3000000000000000000000000000000000000000000000000000000081565b602580548290811061098857fe5b6006546301000000900460ff1681565b602c5481565b601854600160a060020a031681565b60295481565b600a5481565b601480548290811061098857fe5b60306020526000908152604090205460ff1681565b601b805460408051602060026001851615610100026000190190941693909304601f810184900484028201840190925281815292918301828280156109035780601f106108d857610100808354040283529160200191610903565b60045481565b600c6020526000908152604090205481565b603154600160a060020a031681565b60025481565b602754600160a060020a031681565b60065460ff1681565b601c5481565b60015481565b601f5481565b60265481565b601754600160a060020a031681565b601e5460ff1681565b60065462010000900460ff1681565b600f5481565b602e6020526000908152604090205481565b60005481565b602480548290811061098857fe5b601954600160a060020a031681565b60226020526000908152604090205481565b600e5481565b602f54600160a060020a031681565b602a5460ff1681565b602380548290811061098857fe5b600d5460ff1681565b6031543390600160a060020a03168114610c3857600080fd5b600654610100900460ff161515610c4e57600080fd5b6004541580610c5e575060045442105b1515610c6957600080fd5b600160a060020a0382161515610c7e57600080fd5b6016805473ffffffffffffffffffffffffffffffffffffffff1916600160a060020a03841617905542601c5530610cb3610d67565b600160a060020a03909116815260405190819003602001906000f080158015610ce0573d6000803e3d6000fd5b506019805473ffffffffffffffffffffffffffffffffffffffff1916600160a060020a0392831617908190556006805461ff00191690556040805191909216815290517f950567f94688704edec9b1229bc9aad0452c63356d16cc35c3f9c9648fb43ec6916020908290030190a15050565b60035481565b601654600160a060020a031681565b60405160fd80610d77833901905600608060405234801561001057600080fd5b506040516020806100fd833981016040525160008054600160a060020a03909216600160a060020a031990921691909117905560ac806100516000396000f30060806040819052600080547fdbae9a700000000000000000000000000000000000000000000000000000000083523360845273ffffffffffffffffffffffffffffffffffffffff169163dbae9a7091349160a491906024818588803b158015606657600080fd5b505af11580156079573d6000803e3d6000fd5b50505050500000a165627a7a72305820f2f044a48096c27fedc4d1b43afac3af1fcc6a64d58ab04f00ef04c2422480bf0029a165627a7a72305820ddbab4f619e8b9e8a0e41eb328eb08df956ed71b5971cdac492f3bf9356faba10029",
  "source": "pragma solidity 0.4.24;\n\nimport \"../../DAO/Owned.sol\";\nimport \"../CrowdsaleDAOFields.sol\";\nimport \"../../Commission.sol\";\n\ncontract State is CrowdsaleDAOFields {\n    address public owner;\n\n    event State(address _comission);\n\n    /*\n    * @dev Sets addresses of token which will be minted during the crowdsale and address of DXC token contract so that\n    *      DAO will be able to handle investments via DXC. Also function creates instance of Commission contract for this DAO\n    * @param value Amount of sent funds\n    */\n    function initState(address _tokenAddress)\n        external\n        onlyOwner(msg.sender)\n        canInit\n        crowdsaleNotStarted\n    {\n        require(_tokenAddress != 0x0);\n\n        token = TokenInterface(_tokenAddress);\n\n        created_at = block.timestamp;\n\n        commissionContract = new Commission(this);\n\n        canInitStateParameters = false;\n\n        State(commissionContract);\n    }\n\n    modifier canInit() {\n        require(canInitStateParameters);\n        _;\n    }\n\n    modifier crowdsaleNotStarted() {\n        require(startTime == 0 || block.timestamp < startTime);\n        _;\n    }\n\n    modifier onlyOwner(address _sender) {\n        require(_sender == owner);\n        _;\n    }\n}\n",
  "sourcePath": "/Users/giddeonwyeth/PhpstormProjects/dao/daox-contracts/contracts/DAO/Modules/State.sol",
  "compiler": {
    "name": "solc",
    "version": "0.4.24+commit.e67f0147.Emscripten.clang"
  },
  "schemaVersion": "2.0.1",
  "updatedAt": "2018-07-10T13:42:04.577Z"
}