{
  "contractName": "Token",
  "abi": [
    {
      "constant": true,
      "inputs": [],
      "name": "mintingFinished",
      "outputs": [
        {
          "name": "",
          "type": "bool"
        }
      ],
      "payable": false,
      "stateMutability": "view",
      "type": "function"
    },
    {
      "constant": true,
      "inputs": [],
      "name": "name",
      "outputs": [
        {
          "name": "",
          "type": "string"
        }
      ],
      "payable": false,
      "stateMutability": "view",
      "type": "function"
    },
    {
      "constant": false,
      "inputs": [
        {
          "name": "_spender",
          "type": "address"
        },
        {
          "name": "_value",
          "type": "uint256"
        }
      ],
      "name": "approve",
      "outputs": [
        {
          "name": "",
          "type": "bool"
        }
      ],
      "payable": false,
      "stateMutability": "nonpayable",
      "type": "function"
    },
    {
      "constant": true,
      "inputs": [],
      "name": "totalSupply",
      "outputs": [
        {
          "name": "",
          "type": "uint256"
        }
      ],
      "payable": false,
      "stateMutability": "view",
      "type": "function"
    },
    {
      "constant": true,
      "inputs": [],
      "name": "decimals",
      "outputs": [
        {
          "name": "",
          "type": "uint256"
        }
      ],
      "payable": false,
      "stateMutability": "view",
      "type": "function"
    },
    {
      "constant": true,
      "inputs": [
        {
          "name": "",
          "type": "address"
        }
      ],
      "name": "held",
      "outputs": [
        {
          "name": "",
          "type": "uint256"
        }
      ],
      "payable": false,
      "stateMutability": "view",
      "type": "function"
    },
    {
      "constant": false,
      "inputs": [
        {
          "name": "_to",
          "type": "address"
        },
        {
          "name": "_amount",
          "type": "uint256"
        }
      ],
      "name": "mint",
      "outputs": [
        {
          "name": "",
          "type": "bool"
        }
      ],
      "payable": false,
      "stateMutability": "nonpayable",
      "type": "function"
    },
    {
      "constant": false,
      "inputs": [
        {
          "name": "_spender",
          "type": "address"
        },
        {
          "name": "_subtractedValue",
          "type": "uint256"
        }
      ],
      "name": "decreaseApproval",
      "outputs": [
        {
          "name": "success",
          "type": "bool"
        }
      ],
      "payable": false,
      "stateMutability": "nonpayable",
      "type": "function"
    },
    {
      "constant": true,
      "inputs": [
        {
          "name": "_owner",
          "type": "address"
        }
      ],
      "name": "balanceOf",
      "outputs": [
        {
          "name": "balance",
          "type": "uint256"
        }
      ],
      "payable": false,
      "stateMutability": "view",
      "type": "function"
    },
    {
      "constant": false,
      "inputs": [],
      "name": "finishMinting",
      "outputs": [
        {
          "name": "",
          "type": "bool"
        }
      ],
      "payable": false,
      "stateMutability": "nonpayable",
      "type": "function"
    },
    {
      "constant": true,
      "inputs": [],
      "name": "owner",
      "outputs": [
        {
          "name": "",
          "type": "address"
        }
      ],
      "payable": false,
      "stateMutability": "view",
      "type": "function"
    },
    {
      "constant": true,
      "inputs": [],
      "name": "symbol",
      "outputs": [
        {
          "name": "",
          "type": "string"
        }
      ],
      "payable": false,
      "stateMutability": "view",
      "type": "function"
    },
    {
      "constant": false,
      "inputs": [
        {
          "name": "_spender",
          "type": "address"
        },
        {
          "name": "_addedValue",
          "type": "uint256"
        }
      ],
      "name": "increaseApproval",
      "outputs": [
        {
          "name": "success",
          "type": "bool"
        }
      ],
      "payable": false,
      "stateMutability": "nonpayable",
      "type": "function"
    },
    {
      "constant": true,
      "inputs": [
        {
          "name": "_owner",
          "type": "address"
        },
        {
          "name": "_spender",
          "type": "address"
        }
      ],
      "name": "allowance",
      "outputs": [
        {
          "name": "remaining",
          "type": "uint256"
        }
      ],
      "payable": false,
      "stateMutability": "view",
      "type": "function"
    },
    {
      "constant": false,
      "inputs": [
        {
          "name": "newOwner",
          "type": "address"
        }
      ],
      "name": "transferOwnership",
      "outputs": [],
      "payable": false,
      "stateMutability": "nonpayable",
      "type": "function"
    },
    {
      "inputs": [
        {
          "name": "_name",
          "type": "string"
        },
        {
          "name": "_symbol",
          "type": "string"
        }
      ],
      "payable": false,
      "stateMutability": "nonpayable",
      "type": "constructor"
    },
    {
      "anonymous": false,
      "inputs": [
        {
          "indexed": false,
          "name": "_address",
          "type": "address"
        }
      ],
      "name": "TokenCreation",
      "type": "event"
    },
    {
      "anonymous": false,
      "inputs": [
        {
          "indexed": true,
          "name": "to",
          "type": "address"
        },
        {
          "indexed": false,
          "name": "amount",
          "type": "uint256"
        }
      ],
      "name": "Mint",
      "type": "event"
    },
    {
      "anonymous": false,
      "inputs": [],
      "name": "MintFinished",
      "type": "event"
    },
    {
      "anonymous": false,
      "inputs": [
        {
          "indexed": true,
          "name": "previousOwner",
          "type": "address"
        },
        {
          "indexed": true,
          "name": "newOwner",
          "type": "address"
        }
      ],
      "name": "OwnershipTransferred",
      "type": "event"
    },
    {
      "anonymous": false,
      "inputs": [
        {
          "indexed": true,
          "name": "owner",
          "type": "address"
        },
        {
          "indexed": true,
          "name": "spender",
          "type": "address"
        },
        {
          "indexed": false,
          "name": "value",
          "type": "uint256"
        }
      ],
      "name": "Approval",
      "type": "event"
    },
    {
      "anonymous": false,
      "inputs": [
        {
          "indexed": true,
          "name": "from",
          "type": "address"
        },
        {
          "indexed": true,
          "name": "to",
          "type": "address"
        },
        {
          "indexed": false,
          "name": "value",
          "type": "uint256"
        }
      ],
      "name": "Transfer",
      "type": "event"
    },
    {
      "constant": false,
      "inputs": [
        {
          "name": "addr",
          "type": "address"
        },
        {
          "name": "duration",
          "type": "uint256"
        }
      ],
      "name": "hold",
      "outputs": [],
      "payable": false,
      "stateMutability": "nonpayable",
      "type": "function"
    },
    {
      "constant": false,
      "inputs": [
        {
          "name": "_burner",
          "type": "address"
        }
      ],
      "name": "burn",
      "outputs": [],
      "payable": false,
      "stateMutability": "nonpayable",
      "type": "function"
    },
    {
      "constant": false,
      "inputs": [
        {
          "name": "to",
          "type": "address"
        },
        {
          "name": "value",
          "type": "uint256"
        }
      ],
      "name": "transfer",
      "outputs": [
        {
          "name": "",
          "type": "bool"
        }
      ],
      "payable": false,
      "stateMutability": "nonpayable",
      "type": "function"
    },
    {
      "constant": false,
      "inputs": [
        {
          "name": "from",
          "type": "address"
        },
        {
          "name": "to",
          "type": "address"
        },
        {
          "name": "value",
          "type": "uint256"
        }
      ],
      "name": "transferFrom",
      "outputs": [
        {
          "name": "",
          "type": "bool"
        }
      ],
      "payable": false,
      "stateMutability": "nonpayable",
      "type": "function"
    }
  ],
  "bytecode": "0x60806040526003805460a060020a60ff021916905534801561002057600080fd5b50604051610f09380380610f0983398101604052805160208083015160038054600160a060020a0319163317905591830180519093929092019161006a91600491908501906100b9565b50805161007e9060059060208401906100b9565b506040805130815290517f39ada3ee6e3d97895aa55225cafacae1f4b5eaba27e248b42a0405a59e1139129181900360200190a15050610154565b828054600181600116156101000203166002900490600052602060002090601f016020900481019282601f106100fa57805160ff1916838001178555610127565b82800160010185558215610127579182015b8281111561012757825182559160200191906001019061010c565b50610133929150610137565b5090565b61015191905b80821115610133576000815560010161013d565b90565b610da6806101636000396000f3006080604052600436106101065763ffffffff7c010000000000000000000000000000000000000000000000000000000060003504166305d2035b811461010b57806306fdde0314610134578063095ea7b3146101be57806318160ddd146101e257806323b872dd14610209578063313ce5671461023357806332f750ff1461024857806340c10f1914610269578063661884631461028d57806370a08231146102b15780637d64bcb4146102d257806389afcb44146102e75780638da5cb5b1461030a57806395d89b411461033b578063977a5ec514610350578063a9059cbb14610374578063d73dd62314610398578063dd62ed3e146103bc578063f2fde38b146103e3575b600080fd5b34801561011757600080fd5b50610120610404565b604080519115158252519081900360200190f35b34801561014057600080fd5b50610149610425565b6040805160208082528351818301528351919283929083019185019080838360005b8381101561018357818101518382015260200161016b565b50505050905090810190601f1680156101b05780820380516001836020036101000a031916815260200191505b509250505060405180910390f35b3480156101ca57600080fd5b50610120600160a060020a03600435166024356104b3565b3480156101ee57600080fd5b506101f7610519565b60408051918252519081900360200190f35b34801561021557600080fd5b50610120600160a060020a036004358116906024351660443561051f565b34801561023f57600080fd5b506101f761057d565b34801561025457600080fd5b506101f7600160a060020a0360043516610582565b34801561027557600080fd5b50610120600160a060020a0360043516602435610594565b34801561029957600080fd5b50610120600160a060020a03600435166024356106b0565b3480156102bd57600080fd5b506101f7600160a060020a03600435166107a0565b3480156102de57600080fd5b506101206107bb565b3480156102f357600080fd5b50610308600160a060020a0360043516610839565b005b34801561031657600080fd5b5061031f6108d1565b60408051600160a060020a039092168252519081900360200190f35b34801561034757600080fd5b506101496108e0565b34801561035c57600080fd5b50610308600160a060020a036004351660243561093b565b34801561038057600080fd5b50610120600160a060020a03600435166024356109bc565b3480156103a457600080fd5b50610120600160a060020a0360043516602435610a10565b3480156103c857600080fd5b506101f7600160a060020a0360043581169060243516610aa9565b3480156103ef57600080fd5b50610308600160a060020a0360043516610ad4565b60035474010000000000000000000000000000000000000000900460ff1681565b6004805460408051602060026001851615610100026000190190941693909304601f810184900484028201840190925281815292918301828280156104ab5780601f10610480576101008083540402835291602001916104ab565b820191906000526020600020905b81548152906001019060200180831161048e57829003601f168201915b505050505081565b336000818152600260209081526040808320600160a060020a038716808552908352818420869055815186815291519394909390927f8c5be1e5ebec7d5bd14f71427d1e84f3dd0314c0f7b2291e5b200ac8c7c3b925928290030190a350600192915050565b60005481565b600160a060020a0383166000908152600660205260408120548490158061055e5750600160a060020a0381166000908152600660205260409020544210155b151561056957600080fd5b610574858585610b69565b95945050505050565b601281565b60066020526000908152604090205481565b600354600090600160a060020a031633146105ae57600080fd5b60035474010000000000000000000000000000000000000000900460ff16156105d657600080fd5b6000546105e9908363ffffffff610c8b16565b6000908155600160a060020a038416815260016020526040902054610614908363ffffffff610c8b16565b600160a060020a038416600081815260016020908152604091829020939093558051858152905191927f0f6798a560793a54c3bcfe86a93cde1e73087d944c0ea20544137d412139688592918290030190a2604080518381529051600160a060020a038516916000917fddf252ad1be2c89b69c2b068fc378daa952ba7f163c4a11628f55a4df523b3ef9181900360200190a350600192915050565b336000908152600260209081526040808320600160a060020a03861684529091528120548083111561070557336000908152600260209081526040808320600160a060020a038816845290915281205561073a565b610715818463ffffffff610ca116565b336000908152600260209081526040808320600160a060020a03891684529091529020555b336000818152600260209081526040808320600160a060020a0389168085529083529281902054815190815290519293927f8c5be1e5ebec7d5bd14f71427d1e84f3dd0314c0f7b2291e5b200ac8c7c3b925929181900390910190a35060019392505050565b600160a060020a031660009081526001602052604090205490565b600354600090600160a060020a031633146107d557600080fd5b6003805474ff00000000000000000000000000000000000000001916740100000000000000000000000000000000000000001790556040517fae5184fba832cb2b1f702aca6117b8d265eaf03ad33eb133f19dde0f5920fa0890600090a150600190565b600354600090600160a060020a0316331461085357600080fd5b600160a060020a038216151561086857600080fd5b610871826107a0565b600160a060020a03831660009081526001602052604090205490915061089d908263ffffffff610ca116565b600160a060020a038316600090815260016020526040812091909155546108ca908263ffffffff610ca116565b6000555050565b600354600160a060020a031681565b6005805460408051602060026001851615610100026000190190941693909304601f810184900484028201840190925281815292918301828280156104ab5780601f10610480576101008083540402835291602001916104ab565b600354600090600160a060020a0316331461095557600080fd5b50600160a060020a0382166000908152600660205260409020544282019015806109965750600160a060020a03831660009081526006602052604090205481115b156109b757600160a060020a03831660009081526006602052604090208190555b505050565b3360008181526006602052604081205490919015806109f35750600160a060020a0381166000908152600660205260409020544210155b15156109fe57600080fd5b610a088484610cb3565b949350505050565b336000908152600260209081526040808320600160a060020a0386168452909152812054610a44908363ffffffff610c8b16565b336000818152600260209081526040808320600160a060020a0389168085529083529281902085905580519485525191937f8c5be1e5ebec7d5bd14f71427d1e84f3dd0314c0f7b2291e5b200ac8c7c3b925929081900390910190a350600192915050565b600160a060020a03918216600090815260026020908152604080832093909416825291909152205490565b600354600160a060020a03163314610aeb57600080fd5b600160a060020a0381161515610b0057600080fd5b600354604051600160a060020a038084169216907f8be0079c531659141344cd1fd0a4f28419497f9722a3daafe3b4186f6b6457e090600090a36003805473ffffffffffffffffffffffffffffffffffffffff1916600160a060020a0392909216919091179055565b600080600160a060020a0384161515610b8157600080fd5b50600160a060020a03841660008181526002602090815260408083203384528252808320549383526001909152902054610bc1908463ffffffff610ca116565b600160a060020a038087166000908152600160205260408082209390935590861681522054610bf6908463ffffffff610c8b16565b600160a060020a038516600090815260016020526040902055610c1f818463ffffffff610ca116565b600160a060020a03808716600081815260026020908152604080832033845282529182902094909455805187815290519288169391927fddf252ad1be2c89b69c2b068fc378daa952ba7f163c4a11628f55a4df523b3ef929181900390910190a3506001949350505050565b600082820183811015610c9a57fe5b9392505050565b600082821115610cad57fe5b50900390565b6000600160a060020a0383161515610cca57600080fd5b33600090815260016020526040902054610cea908363ffffffff610ca116565b3360009081526001602052604080822092909255600160a060020a03851681522054610d1c908363ffffffff610c8b16565b600160a060020a0384166000818152600160209081526040918290209390935580518581529051919233927fddf252ad1be2c89b69c2b068fc378daa952ba7f163c4a11628f55a4df523b3ef9281900390910190a3506001929150505600a165627a7a72305820c344718595be4cd483ba64bffaaabbc779baaafb1b2d55f39b78446d63aadb330029",
  "source": "pragma solidity ^0.4.11;\n\nimport '../../node_modules/zeppelin-solidity/contracts/token/BasicToken.sol';\nimport '../../node_modules/zeppelin-solidity/contracts/token/MintableToken.sol';\n\ncontract Token is MintableToken {\n    event TokenCreation(address _address);\n\n    string public name;\n    string public symbol;\n    uint constant public decimals = 18;\n    mapping(address => uint) public held;\n\n    function Token(string _name, string _symbol) {\n        name = _name;\n        symbol = _symbol;\n        TokenCreation(this);\n    }\n\n    function hold(address addr, uint duration) external onlyOwner {\n        uint holdTime = now + duration;\n        if (held[addr] == 0 || holdTime > held[addr]) held[addr] = holdTime;\n    }\n\n    function burn(address _burner) external onlyOwner {\n        require(_burner != 0x0);\n\n        uint balance = balanceOf(_burner);\n        balances[_burner] = balances[_burner].sub(balance);\n        totalSupply = totalSupply.sub(balance);\n    }\n\n    function transfer(address to, uint256 value) public notHolded(msg.sender) returns (bool) {\n        return super.transfer(to, value);\n    }\n\n    function transferFrom(address from, address to, uint256 value) public notHolded(from) returns (bool) {\n        return super.transferFrom(from, to, value);\n    }\n\n    modifier notHolded(address _address) {\n        require(held[_address] == 0 || now >= held[_address]);\n        _;\n    }\n}\n",
  "sourcePath": "/Users/giddeonwyeth/PhpstormProjects/dao/daox-contracts/contracts/Token/Token.sol",
  "compiler": {
    "name": "solc",
    "version": "0.4.24+commit.e67f0147.Emscripten.clang"
  },
  "schemaVersion": "2.0.1",
  "updatedAt": "2018-07-11T16:06:33.313Z"
}