{
  "contractName": "TypesConverter",
  "abi": [
    {
      "constant": true,
      "inputs": [
        {
          "name": "input",
          "type": "bytes32"
        }
      ],
      "name": "bytes32ToAddress",
      "outputs": [
        {
          "name": "",
          "type": "address"
        }
      ],
      "payable": false,
      "stateMutability": "pure",
      "type": "function"
    },
    {
      "constant": true,
      "inputs": [
        {
          "name": "input",
          "type": "address"
        }
      ],
      "name": "addressToBytes32",
      "outputs": [
        {
          "name": "",
          "type": "bytes32"
        }
      ],
      "payable": false,
      "stateMutability": "pure",
      "type": "function"
    },
    {
      "constant": true,
      "inputs": [
        {
          "name": "input",
          "type": "bytes32"
        }
      ],
      "name": "bytes32ToUint",
      "outputs": [
        {
          "name": "ret",
          "type": "uint256"
        }
      ],
      "payable": false,
      "stateMutability": "pure",
      "type": "function"
    },
    {
      "constant": true,
      "inputs": [
        {
          "name": "input",
          "type": "uint256"
        }
      ],
      "name": "uintToBytes32",
      "outputs": [
        {
          "name": "ret",
          "type": "bytes32"
        }
      ],
      "payable": false,
      "stateMutability": "pure",
      "type": "function"
    },
    {
      "constant": true,
      "inputs": [
        {
          "name": "input",
          "type": "bytes32"
        }
      ],
      "name": "bytes32ToString",
      "outputs": [
        {
          "name": "",
          "type": "string"
        }
      ],
      "payable": false,
      "stateMutability": "pure",
      "type": "function"
    },
    {
      "constant": true,
      "inputs": [
        {
          "name": "source",
          "type": "string"
        }
      ],
      "name": "stringToBytes32",
      "outputs": [
        {
          "name": "result",
          "type": "bytes32"
        }
      ],
      "payable": false,
      "stateMutability": "pure",
      "type": "function"
    },
    {
      "constant": true,
      "inputs": [
        {
          "name": "input",
          "type": "bytes32"
        }
      ],
      "name": "bytes32ToBool",
      "outputs": [
        {
          "name": "",
          "type": "bool"
        }
      ],
      "payable": false,
      "stateMutability": "pure",
      "type": "function"
    },
    {
      "constant": true,
      "inputs": [
        {
          "name": "input",
          "type": "bool"
        }
      ],
      "name": "boolToBytes32",
      "outputs": [
        {
          "name": "",
          "type": "bytes32"
        }
      ],
      "payable": false,
      "stateMutability": "pure",
      "type": "function"
    }
  ],
  "bytecode": "0x61050a610030600b82828239805160001a6073146000811461002057610022565bfe5b5030600052607381538281f30073000000000000000000000000000000000000000030146080604052600436106100a45763ffffffff7c010000000000000000000000000000000000000000000000000000000060003504166332958fcb81146100a95780635ced058e146100c857806382c947b7146100fc578063886d3db91461011d5780639201de5514610128578063cfb51928146101a8578063e60b1424146101f4578063f7302d7b146101ff575b600080fd5b6100b6600435151561021e565b60408051918252519081900360200190f35b6100d3600435610235565b6040805173ffffffffffffffffffffffffffffffffffffffff9092168252519081900360200190f35b6100b673ffffffffffffffffffffffffffffffffffffffff60043516610238565b6100b6600435610251565b6101336004356102af565b6040805160208082528351818301528351919283929083019185019080838360005b8381101561016d578181015183820152602001610155565b50505050905090810190601f16801561019a5780820380516001836020036101000a031916815260200191505b509250505060405180910390f35b6040805160206004803580820135601f81018490048402850184019095528484526100b69436949293602493928401919081908401838280828437509497506104459650505050505050565b6100b660043561044c565b61020a6004356104c7565b604080519115158252519081900360200190f35b60008161022c57600061022f565b60015b92915050565b90565b73ffffffffffffffffffffffffffffffffffffffff1690565b600081151561028157507f30000000000000000000000000000000000000000000000000000000000000006102aa565b60008211156102aa5761010081049050600a820660300160f860020a0217600a82049150610281565b919050565b6040805160208082528183019092526060918291600091829184918082016104008038833901905050935060009250600091505b6020821015610394578582602081106102f857fe5b1a60f860020a02848381518110151561030d57fe5b9060200101907effffffffffffffffffffffffffffffffffffffffffffffffffffffffffffff1916908160001a905350838281518110151561034b57fe5b60209101015160f860020a90819004027fff000000000000000000000000000000000000000000000000000000000000001615610389576001830192505b6001909101906102e3565b826040519080825280601f01601f1916602001820160405280156103c2578160200160208202803883390190505b509050600091505b8282101561043c5783828151811015156103e057fe5b90602001015160f860020a900460f860020a02818381518110151561040157fe5b9060200101907effffffffffffffffffffffffffffffffffffffffffffffffffffffffffffff1916908160001a9053506001909101906103ca565b95945050505050565b6020015190565b6000808083151561045c57600080fd5b5060005b60208110156104c0576008601f8290030260020a8481151561047e57fe5b0460ff1691508160001415610492576104c0565b60308210806104a15750603982115b156104ab57600080fd5b600a929092028101602f190191600101610460565b5050919050565b600081156104d657600161022f565b5060009190505600a165627a7a72305820244f8c7b9aa4273e9042deb583289d3cdf62517b4e69c13f88ffd6a30309c4bc0029",
  "source": "pragma solidity 0.4.24;\n\nlibrary TypesConverter {\n    function bytes32ToAddress(bytes32 input) public pure returns(address){\n        return address(input);\n    }\n\n    function addressToBytes32(address input) public pure returns (bytes32){\n        return bytes32(input);\n    }\n\n    function bytes32ToUint(bytes32 input) public pure returns (uint ret) {\n        require(input != 0x0);\n\n        uint digit;\n        for (uint i = 0; i < 32; i++) {\n            digit = uint((uint(input) / (2 ** (8 * (31 - i)))) & 0xff);\n            if (digit == 0)  break;\n            else if (digit < 48 || digit > 57) revert();\n            ret *= 10;\n            ret += (digit - 48);\n        }\n\n        return ret;\n    }\n\n    function uintToBytes32(uint input) public pure returns (bytes32 ret) {\n        if (input == 0) ret = '0';\n        else {\n            while (input > 0) {\n                ret = bytes32(uint(ret) / (2 ** 8));\n                ret |= bytes32(((input % 10) + 48) * 2 ** (8 * 31));\n                input /= 10;\n            }\n        }\n        return ret;\n    }\n\n    function bytes32ToString(bytes32 input) public pure returns(string) {\n        bytes memory arrayTemp = new bytes(32);\n        uint currentLength = 0;\n\n        for (uint i = 0; i < 32; i++) {\n            arrayTemp[i] = input[i];\n            if (arrayTemp[i] != 0) currentLength+=1;\n        }\n\n        bytes memory arrayRes = new bytes(currentLength);\n        for (i = 0; i < currentLength; i++) {\n            arrayRes[i] = arrayTemp[i];\n        }\n\n        return string(arrayRes);\n    }\n\n    function stringToBytes32(string memory source) public pure returns (bytes32 result) {\n        assembly {\n            result := mload(add(source, 32))\n        }\n    }\n\n    function bytes32ToBool(bytes32 input) public pure returns(bool) {\n        return input == 0x0 ? false : true;\n    }\n\n    function boolToBytes32(bool input) public pure returns (bytes32) {\n        return input ? bytes32(0x1) : bytes32(0x0);\n    }\n}\n",
  "sourcePath": "/Users/giddeonwyeth/PhpstormProjects/dao/daox-contracts/contracts/DAO/API/TypesConverter.sol",
  "compiler": {
    "name": "solc",
    "version": "0.4.24+commit.e67f0147.Emscripten.clang"
  },
  "schemaVersion": "2.0.1",
  "updatedAt": "2018-07-18T15:32:46.157Z"
}