{
  "contractName": "VotingFields",
  "abi": [
    {
      "constant": true,
      "inputs": [],
      "name": "name",
      "outputs": [
        {
          "name": "",
          "type": "string"
        }
      ],
      "payable": false,
      "stateMutability": "view",
      "type": "function"
    },
    {
      "constant": true,
      "inputs": [],
      "name": "duration",
      "outputs": [
        {
          "name": "",
          "type": "uint256"
        }
      ],
      "payable": false,
      "stateMutability": "view",
      "type": "function"
    },
    {
      "constant": true,
      "inputs": [],
      "name": "quorum",
      "outputs": [
        {
          "name": "",
          "type": "uint256"
        }
      ],
      "payable": false,
      "stateMutability": "view",
      "type": "function"
    },
    {
      "constant": true,
      "inputs": [],
      "name": "minimalDuration",
      "outputs": [
        {
          "name": "",
          "type": "uint256"
        }
      ],
      "payable": false,
      "stateMutability": "view",
      "type": "function"
    },
    {
      "constant": true,
      "inputs": [
        {
          "name": "",
          "type": "uint256"
        }
      ],
      "name": "options",
      "outputs": [
        {
          "name": "votes",
          "type": "uint256"
        },
        {
          "name": "description",
          "type": "bytes32"
        }
      ],
      "payable": false,
      "stateMutability": "view",
      "type": "function"
    },
    {
      "constant": true,
      "inputs": [],
      "name": "result",
      "outputs": [
        {
          "name": "votes",
          "type": "uint256"
        },
        {
          "name": "description",
          "type": "bytes32"
        }
      ],
      "payable": false,
      "stateMutability": "view",
      "type": "function"
    },
    {
      "constant": true,
      "inputs": [],
      "name": "description",
      "outputs": [
        {
          "name": "",
          "type": "string"
        }
      ],
      "payable": false,
      "stateMutability": "view",
      "type": "function"
    },
    {
      "constant": true,
      "inputs": [],
      "name": "votesCount",
      "outputs": [
        {
          "name": "",
          "type": "uint256"
        }
      ],
      "payable": false,
      "stateMutability": "view",
      "type": "function"
    },
    {
      "constant": true,
      "inputs": [],
      "name": "created_at",
      "outputs": [
        {
          "name": "",
          "type": "uint256"
        }
      ],
      "payable": false,
      "stateMutability": "view",
      "type": "function"
    },
    {
      "constant": true,
      "inputs": [],
      "name": "votingType",
      "outputs": [
        {
          "name": "",
          "type": "string"
        }
      ],
      "payable": false,
      "stateMutability": "view",
      "type": "function"
    },
    {
      "constant": true,
      "inputs": [
        {
          "name": "",
          "type": "address"
        }
      ],
      "name": "voted",
      "outputs": [
        {
          "name": "",
          "type": "uint256"
        }
      ],
      "payable": false,
      "stateMutability": "view",
      "type": "function"
    },
    {
      "constant": true,
      "inputs": [],
      "name": "finished",
      "outputs": [
        {
          "name": "",
          "type": "bool"
        }
      ],
      "payable": false,
      "stateMutability": "view",
      "type": "function"
    }
  ],
  "bytecode": "0x606060405242601e55601f805460ff1916905562093a80602255341561002457600080fd5b610474806100336000396000f3006060604052600436106100b95763ffffffff7c010000000000000000000000000000000000000000000000000000000060003504166306fdde0381146100be5780630fb5a6b4146101485780631703a0181461016d5780632f57233614610180578063409e22051461019357806365372147146101c15780637284e416146101d45780638778b27d146101e75780639c6f0d85146101fa578063a9aa6a9b1461020d578063aec2ccae14610220578063bef4876b1461024c575b600080fd5b34156100c957600080fd5b6100d1610273565b60405160208082528190810183818151815260200191508051906020019080838360005b8381101561010d5780820151838201526020016100f5565b50505050905090810190601f16801561013a5780820380516001836020036101000a031916815260200191505b509250505060405180910390f35b341561015357600080fd5b61015b610311565b60405190815260200160405180910390f35b341561017857600080fd5b61015b610317565b341561018b57600080fd5b61015b61031d565b341561019e57600080fd5b6101a9600435610323565b60405191825260208201526040908101905180910390f35b34156101cc57600080fd5b6101a9610342565b34156101df57600080fd5b6100d161034b565b34156101f257600080fd5b61015b6103b6565b341561020557600080fd5b61015b6103bc565b341561021857600080fd5b6100d16103c2565b341561022b57600080fd5b61015b73ffffffffffffffffffffffffffffffffffffffff6004351661042d565b341561025757600080fd5b61025f61043f565b604051901515815260200160405180910390f35b60018054600181600116156101000203166002900480601f0160208091040260200160405190810160405280929190818152602001828054600181600116156101000203166002900480156103095780601f106102de57610100808354040283529160200191610309565b820191906000526020600020905b8154815290600101906020018083116102ec57829003601f168201915b505050505081565b601d5481565b60205481565b60225481565b600381600b811061033057fe5b60020201805460019091015490915082565b601a54601b5482565b60028054600181600116156101000203166002900480601f0160208091040260200160405190810160405280929190818152602001828054600181600116156101000203166002900480156103095780601f106102de57610100808354040283529160200191610309565b601c5481565b601e5481565b60218054600181600116156101000203166002900480601f0160208091040260200160405190810160405280929190818152602001828054600181600116156101000203166002900480156103095780601f106102de57610100808354040283529160200191610309565b60196020526000908152604090205481565b601f5460ff16815600a165627a7a72305820cb7e5a83a3007270105bedebe344c18afc3d7734ffee6b7fc088fd28fa8fb1280029",
  "source": "pragma solidity ^0.4.0;\n\nimport \"./VotingLib.sol\";\nimport \"../DAO/ICrowdsaleDAO.sol\";\n\ncontract VotingFields {\n    ICrowdsaleDAO dao;\n    string public name;\n    string public description;\n    VotingLib.Option[11] public options;\n    mapping (address => uint) public voted;\n    VotingLib.Option public result;\n    uint public votesCount;\n    uint public duration; // UNIX\n    uint public created_at = now;\n    bool public finished = false;\n    uint public quorum;\n    string public votingType;\n    uint public minimalDuration = 60 * 60 * 24 * 7; // 7 days\n}\n",
  "sourcePath": "/Users/giddeonwyeth/PhpstormProjects/dao/daox-contracts/contracts/Votings/VotingFields.sol",
  "compiler": {
    "name": "solc",
    "version": "0.4.21+commit.dfe3193c.Emscripten.clang"
  },
  "schemaVersion": "2.0.0",
  "updatedAt": "2018-05-10T12:49:50.735Z"
}