{
  "contractName": "VotingFactory",
  "abi": [
    {
      "constant": true,
      "inputs": [],
      "name": "daoFactory",
      "outputs": [
        {
          "name": "",
          "type": "address"
        }
      ],
      "payable": false,
      "stateMutability": "view",
      "type": "function"
    },
    {
      "inputs": [
        {
          "name": "_baseVoting",
          "type": "address"
        }
      ],
      "payable": false,
      "stateMutability": "nonpayable",
      "type": "constructor"
    },
    {
      "constant": false,
      "inputs": [
        {
          "name": "_creator",
          "type": "address"
        },
        {
          "name": "_name",
          "type": "string"
        },
        {
          "name": "_description",
          "type": "string"
        },
        {
          "name": "_duration",
          "type": "uint256"
        },
        {
          "name": "_options",
          "type": "bytes32[]"
        }
      ],
      "name": "createProposal",
      "outputs": [
        {
          "name": "",
          "type": "address"
        }
      ],
      "payable": false,
      "stateMutability": "nonpayable",
      "type": "function"
    },
    {
      "constant": false,
      "inputs": [
        {
          "name": "_creator",
          "type": "address"
        },
        {
          "name": "_name",
          "type": "string"
        },
        {
          "name": "_description",
          "type": "string"
        },
        {
          "name": "_duration",
          "type": "uint256"
        },
        {
          "name": "_sum",
          "type": "uint256"
        },
        {
          "name": "withdrawalWallet",
          "type": "address"
        },
        {
          "name": "_dxc",
          "type": "bool"
        }
      ],
      "name": "createWithdrawal",
      "outputs": [
        {
          "name": "",
          "type": "address"
        }
      ],
      "payable": false,
      "stateMutability": "nonpayable",
      "type": "function"
    },
    {
      "constant": false,
      "inputs": [
        {
          "name": "_creator",
          "type": "address"
        },
        {
          "name": "_name",
          "type": "string"
        },
        {
          "name": "_description",
          "type": "string"
        },
        {
          "name": "_duration",
          "type": "uint256"
        }
      ],
      "name": "createRefund",
      "outputs": [
        {
          "name": "",
          "type": "address"
        }
      ],
      "payable": false,
      "stateMutability": "nonpayable",
      "type": "function"
    },
    {
      "constant": false,
      "inputs": [
        {
          "name": "_creator",
          "type": "address"
        },
        {
          "name": "_name",
          "type": "string"
        },
        {
          "name": "_description",
          "type": "string"
        },
        {
          "name": "_duration",
          "type": "uint256"
        },
        {
          "name": "_module",
          "type": "uint256"
        },
        {
          "name": "_newAddress",
          "type": "address"
        }
      ],
      "name": "createModule",
      "outputs": [
        {
          "name": "",
          "type": "address"
        }
      ],
      "payable": false,
      "stateMutability": "nonpayable",
      "type": "function"
    },
    {
      "constant": false,
      "inputs": [
        {
          "name": "_dao",
          "type": "address"
        }
      ],
      "name": "setDaoFactory",
      "outputs": [],
      "payable": false,
      "stateMutability": "nonpayable",
      "type": "function"
    }
  ],
  "bytecode": "0x6060604052341561000f57600080fd5b604051602080613b2a8339810160405280805160008054600160a060020a03909216600160a060020a03199092169190911790555050613ad6806100546000396000f300606060405260043610620000655763ffffffff60e060020a6000350416633247424581146200006a57806348f7f2a314620000d4578063d342236e14620000ea578063d6560dab1462000134578063dfc061f0146200017d578063eb94669414620001a1575b600080fd5b34156200007657600080fd5b620000b860048035600160a060020a03908116916024803580820193908301359260443592830192013590606435906084359060a4351660c4351515620001de565b604051600160a060020a03909116815260200160405180910390f35b3415620000e057600080fd5b620000b8620003fd565b3415620000f657600080fd5b620000b860048035600160a060020a03169060248035808201929081013591604435808201929081013591606435916084359182019101356200040c565b34156200014057600080fd5b620000b860048035600160a060020a03908116916024803580820193908301359260443592830192013590606435906084359060a43516620005ba565b34156200018957600080fd5b6200019f600160a060020a03600435166200074b565b005b3415620001ad57600080fd5b620000b860048035600160a060020a03169060248035808201929081013591604435908101910135606435620007a8565b60008933600160a060020a031663929066f58260405160e060020a63ffffffff8416028152600160a060020a039091166004820152602401602060405180830381600087803b15156200023057600080fd5b5af115156200023e57600080fd5b5050506040518051905015156200025457600080fd5b600154600160a060020a031663f6a3d24e3360405160e060020a63ffffffff8416028152600160a060020a039091166004820152602401602060405180830381600087803b1515620002a557600080fd5b5af11515620002b357600080fd5b505050604051805190501515620002c957600080fd5b8333600160a060020a031663372c12b18260405160e060020a63ffffffff8416028152600160a060020a039091166004820152602401602060405180830381600087803b15156200031957600080fd5b5af115156200032757600080fd5b5050506040518051905015156200033d57600080fd5b600054600160a060020a0316338c8c8c8c8c8c8c8c6200035c62000931565b600160a060020a03808c1682528a811660208301526080820186905260a08201859052831660c082015281151560e0820152610100604082018181529082018990526060820161012083018b8b808284379091018481038352898152602001905089898082843782019150509c50505050505050505050505050604051809103906000f0801515620003ed57600080fd5b9c9b505050505050505050505050565b600154600160a060020a031681565b600154600090600160a060020a031663f6a3d24e3360405160e060020a63ffffffff8416028152600160a060020a039091166004820152602401602060405180830381600087803b15156200046057600080fd5b5af115156200046e57600080fd5b5050506040518051905015156200048457600080fd5b8833600160a060020a031663929066f58260405160e060020a63ffffffff8416028152600160a060020a039091166004820152602401602060405180830381600087803b1515620004d457600080fd5b5af11515620004e257600080fd5b505050604051805190501515620004f857600080fd5b600054600160a060020a0316338a8a8a8a8a8a8a6200051662000942565b600160a060020a03808b168252891660208201526080810184905260c0604082018181529082018890526060820160a0830160e084018b8b8082843790910185810384528981526020019050898980828437909101858103835286815260209081019150879087028082843782019150509c50505050505050505050505050604051809103906000f0801515620005ac57600080fd5b9a9950505050505050505050565b600154600090600160a060020a031663f6a3d24e3360405160e060020a63ffffffff8416028152600160a060020a039091166004820152602401602060405180830381600087803b15156200060e57600080fd5b5af115156200061c57600080fd5b5050506040518051905015156200063257600080fd5b8833600160a060020a031663929066f58260405160e060020a63ffffffff8416028152600160a060020a039091166004820152602401602060405180830381600087803b15156200068257600080fd5b5af115156200069057600080fd5b505050604051805190501515620006a657600080fd5b600054600160a060020a0316338a8a8a8a8a8a8a620006c462000953565b600160a060020a03808b16825289811660208301526080820185905260a08201849052821660c082015260e0604082018181529082018890526060820161010083018a8a808284379091018481038352888152602001905088888082843782019150509b505050505050505050505050604051809103906000f0801515620005ac57600080fd5b600154600160a060020a03161580156200076d5750600160a060020a03811615155b15156200077957600080fd5b6001805473ffffffffffffffffffffffffffffffffffffffff1916600160a060020a0392909216919091179055565b600154600090600160a060020a031663f6a3d24e3360405160e060020a63ffffffff8416028152600160a060020a039091166004820152602401602060405180830381600087803b1515620007fc57600080fd5b5af115156200080a57600080fd5b5050506040518051905015156200082057600080fd5b8633600160a060020a031663929066f58260405160e060020a63ffffffff8416028152600160a060020a039091166004820152602401602060405180830381600087803b15156200087057600080fd5b5af115156200087e57600080fd5b5050506040518051905015156200089457600080fd5b600054600160a060020a0316338888888888620008b062000964565b600160a060020a038089168252871660208201526080810182905260a0604082018181529082018690526060820160c083018888808284379091018481038352868152602001905086868082843782019150509950505050505050505050604051809103906000f08015156200092557600080fd5b98975050505050505050565b604051610cdb806200097683390190565b604051610acc806200165183390190565b604051610e5f806200211d83390190565b604051610b2f8062002f7c833901905600606060405242601e55601f805460ff1916905562093a80602255341561002457600080fd5b604051610cdb380380610cdb833981016040528080519190602001805191906020018051820191906020018051820191906020018051919060200180519190602001805191906020018051915050600083118015610116575073__VotingLib_____________________________636244817a8885846040517c010000000000000000000000000000000000000000000000000000000063ffffffff8616028152600160a060020a03909316600484015260248301919091521515604482015260640160206040518083038186803b15156100fe57600080fd5b5af4151561010b57600080fd5b505050604051805190505b151561012157600080fd5b60238054600160a060020a031916600160a060020a038a1617905560408051908101604052600a81527f5769746864726177616c0000000000000000000000000000000000000000000060208201526021908051610183929160200190610411565b5060235473__VotingLib_____________________________9063120dce4890600160a060020a03168989898960006040518763ffffffff167c01000000000000000000000000000000000000000000000000000000000281526004018087600160a060020a0316600160a060020a0316815260200186600160a060020a0316600160a060020a031681526020018060200180602001858152602001848152602001838103835287818151815260200191508051906020019080838360005b8381101561025a578082015183820152602001610242565b50505050905090810190601f1680156102875780820380516001836020036101000a031916815260200191505b50838103825286818151815260200191508051906020019080838360005b838110156102bd5780820151838201526020016102a5565b50505050905090810190601f1680156102ea5780820380516001836020036101000a031916815260200191505b509850505050505050505060006040518083038186803b151561030c57600080fd5b5af4151561031957600080fd5b505050602483905560258054600160a060020a031916600160a060020a0384161760a060020a60ff021916740100000000000000000000000000000000000000008315150217905561037664010000000061038381026107661704565b50505050505050506104ac565b60408051908101604052600081527f7965730000000000000000000000000000000000000000000000000000000000602082015260058151815560208201516001909101555060408051908101604052600081527f6e6f0000000000000000000000000000000000000000000000000000000000006020820152600781518155602082015160019091015550565b828054600181600116156101000203166002900490600052602060002090601f016020900481019282601f1061045257805160ff191683800117855561047f565b8280016001018555821561047f579182015b8281111561047f578251825591602001919060010190610464565b5061048b92915061048f565b5090565b6104a991905b8082111561048b5760008155600101610495565b90565b610820806104bb6000396000f3006060604052600436106100e25763ffffffff60e060020a6000350416630383badc81146100e757806306fdde03146100ff5780630fb5a6b4146101895780631703a018146101ae5780632f572336146101c1578063409e2205146101d45780634a7d80b31461020257806365372147146102315780637284e41614610244578063790746ef146102575780638778b27d1461026a5780639c6f0d851461027d578063a9aa6a9b14610290578063aec2ccae146102a3578063bef4876b146102c2578063cc2ee196146102e9578063d56b288914610334578063dbd085ac14610347575b600080fd5b34156100f257600080fd5b6100fd60043561035a565b005b341561010a57600080fd5b6101126103d7565b60405160208082528190810183818151815260200191508051906020019080838360005b8381101561014e578082015183820152602001610136565b50505050905090810190601f16801561017b5780820380516001836020036101000a031916815260200191505b509250505060405180910390f35b341561019457600080fd5b61019c610475565b60405190815260200160405180910390f35b34156101b957600080fd5b61019c61047b565b34156101cc57600080fd5b61019c610481565b34156101df57600080fd5b6101ea600435610487565b60405191825260208201526040908101905180910390f35b341561020d57600080fd5b6102156104a6565b604051600160a060020a03909116815260200160405180910390f35b341561023c57600080fd5b6101ea6104b5565b341561024f57600080fd5b6101126104be565b341561026257600080fd5b61019c610529565b341561027557600080fd5b61019c61052f565b341561028857600080fd5b61019c610535565b341561029b57600080fd5b61011261053b565b34156102ae57600080fd5b61019c600160a060020a03600435166105a6565b34156102cd57600080fd5b6102d56105b8565b604051901515815260200160405180910390f35b34156102f457600080fd5b6102fc6105c1565b6040518082604080838360005b83811015610321578082015183820152602001610309565b5050505090500191505060405180910390f35b341561033f57600080fd5b6100fd6105e5565b341561035257600080fd5b6102d561071f565b60235473__VotingLib_____________________________90634adcade490600160a060020a03168360405160e060020a63ffffffff8516028152600160a060020a039092166004830152602482015260440160006040518083038186803b15156103c457600080fd5b5af415156103d157600080fd5b50505050565b60018054600181600116156101000203166002900480601f01602080910402602001604051908101604052809291908181526020018280546001816001161561010002031660029004801561046d5780601f106104425761010080835404028352916020019161046d565b820191906000526020600020905b81548152906001019060200180831161045057829003601f168201915b505050505081565b601d5481565b60205481565b60225481565b600381600b811061049457fe5b60020201805460019091015490915082565b602554600160a060020a031681565b601a54601b5482565b60028054600181600116156101000203166002900480601f01602080910402602001604051908101604052809291908181526020018280546001816001161561010002031660029004801561046d5780601f106104425761010080835404028352916020019161046d565b60245481565b601c5481565b601e5481565b60218054600181600116156101000203166002900480601f01602080910402602001604051908101604052809291908181526020018280546001816001161561010002031660029004801561046d5780601f106104425761010080835404028352916020019161046d565b60196020526000908152604090205481565b601f5460ff1681565b6105c9610740565b6040805190810160405260055481526007546020820152919050565b60235473__VotingLib_____________________________90631901910b90600160a060020a031660405160e060020a63ffffffff8416028152600160a060020a03909116600482015260240160006040518083038186803b151561064957600080fd5b5af4151561065657600080fd5b5050601b547f79657300000000000000000000000000000000000000000000000000000000001415905061071d57600054602554602454600160a060020a039283169263c2bf7aef92908116919074010000000000000000000000000000000000000000900460ff1660405160e060020a63ffffffff8616028152600160a060020a039093166004840152602483019190915215156044820152606401600060405180830381600087803b151561070c57600080fd5b5af1151561071957600080fd5b5050505b565b60255474010000000000000000000000000000000000000000900460ff1681565b604080519081016040526002815b600081526020019060019003908161074e5790505090565b60408051908101604052600081527f7965730000000000000000000000000000000000000000000000000000000000602082015260058151815560208201516001909101555060408051908101604052600081527f6e6f00000000000000000000000000000000000000000000000000000000000060208201526007815181556020820151600190910155505600a165627a7a7230582076d6505143fcac44003c2c2d447f06b83d46d88489db5329784316b8e2c73ade0029606060405242601e55601f805460ff1916905562093a80602255341561002457600080fd5b604051610acc380380610acc833981016040528080519190602001805191906020018051820191906020018051820191906020018051919060200180519091019050600281511015801561007a5750600a815111155b151561008557600080fd5b60238054600160a060020a031916600160a060020a03881617905560408051908101604052600881527f50726f706f73616c000000000000000000000000000000000000000000000000602082015260219080516100e792916020019061030f565b5060235473__VotingLib_____________________________9063120dce4890600160a060020a03168787878760006040518763ffffffff167c01000000000000000000000000000000000000000000000000000000000281526004018087600160a060020a0316600160a060020a0316815260200186600160a060020a0316600160a060020a031681526020018060200180602001858152602001848152602001838103835287818151815260200191508051906020019080838360005b838110156101be5780820151838201526020016101a6565b50505050905090810190601f1680156101eb5780820380516001836020036101000a031916815260200191505b50838103825286818151815260200191508051906020019080838360005b83811015610221578082015183820152602001610209565b50505050905090810190601f16801561024e5780820380516001836020036101000a031916815260200191505b509850505050505050505060006040518083038186803b151561027057600080fd5b5af4151561027d57600080fd5b50505061029c816102a76401000000000261067f176401000000009004565b5050505050506103aa565b60005b815181101561030b576040805190810160405280600081526020018383815181106102d157fe5b906020019060200201519052600360018301600b81106102ed57fe5b600202018151815560208201516001918201559190910190506102aa565b5050565b828054600181600116156101000203166002900490600052602060002090601f016020900481019282601f1061035057805160ff191683800117855561037d565b8280016001018555821561037d579182015b8281111561037d578251825591602001919060010190610362565b5061038992915061038d565b5090565b6103a791905b808211156103895760008155600101610393565b90565b610713806103b96000396000f3006060604052600436106100c15763ffffffff60e060020a6000350416630383badc81146100c657806306fdde03146100de5780630fb5a6b4146101685780631703a0181461018d5780632f572336146101a0578063409e2205146101b357806365372147146101e15780637284e416146101f45780638778b27d146102075780639c6f0d851461021a578063a9aa6a9b1461022d578063aec2ccae14610240578063bef4876b1461026c578063cc2ee19614610293578063d56b2889146102df575b600080fd5b34156100d157600080fd5b6100dc6004356102f2565b005b34156100e957600080fd5b6100f1610389565b60405160208082528190810183818151815260200191508051906020019080838360005b8381101561012d578082015183820152602001610115565b50505050905090810190601f16801561015a5780820380516001836020036101000a031916815260200191505b509250505060405180910390f35b341561017357600080fd5b61017b610427565b60405190815260200160405180910390f35b341561019857600080fd5b61017b61042d565b34156101ab57600080fd5b61017b610433565b34156101be57600080fd5b6101c9600435610439565b60405191825260208201526040908101905180910390f35b34156101ec57600080fd5b6101c9610458565b34156101ff57600080fd5b6100f1610461565b341561021257600080fd5b61017b6104cc565b341561022557600080fd5b61017b6104d2565b341561023857600080fd5b6100f16104d8565b341561024b57600080fd5b61017b73ffffffffffffffffffffffffffffffffffffffff60043516610543565b341561027757600080fd5b61027f610555565b604051901515815260200160405180910390f35b341561029e57600080fd5b6102a661055e565b604051808261014080838360005b838110156102cc5780820151838201526020016102b4565b5050505090500191505060405180910390f35b34156102ea57600080fd5b6100dc6105c7565b60235473__VotingLib_____________________________90634adcade49073ffffffffffffffffffffffffffffffffffffffff168360405160e060020a63ffffffff851602815273ffffffffffffffffffffffffffffffffffffffff9092166004830152602482015260440160006040518083038186803b151561037657600080fd5b5af4151561038357600080fd5b50505050565b60018054600181600116156101000203166002900480601f01602080910402602001604051908101604052809291908181526020018280546001816001161561010002031660029004801561041f5780601f106103f45761010080835404028352916020019161041f565b820191906000526020600020905b81548152906001019060200180831161040257829003601f168201915b505050505081565b601d5481565b60205481565b60225481565b600381600b811061044657fe5b60020201805460019091015490915082565b601a54601b5482565b60028054600181600116156101000203166002900480601f01602080910402602001604051908101604052809291908181526020018280546001816001161561010002031660029004801561041f5780601f106103f45761010080835404028352916020019161041f565b601c5481565b601e5481565b60218054600181600116156101000203166002900480601f01602080910402602001604051908101604052809291908181526020018280546001816001161561010002031660029004801561041f5780601f106103f45761010080835404028352916020019161041f565b60196020526000908152604090205481565b601f5460ff1681565b610566610657565b61014060405190810160409081526005548252600754602083015260095490820152600b546060820152600d546080820152600f5460a082015260115460c082015260135460e0820152601554610100820152601754610120820152919050565b60235473__VotingLib_____________________________90631901910b9073ffffffffffffffffffffffffffffffffffffffff1660405160e060020a63ffffffff841602815273ffffffffffffffffffffffffffffffffffffffff909116600482015260240160006040518083038186803b151561064557600080fd5b5af4151561065257600080fd5b505050565b610140604051908101604052600a815b60008152602001906001900390816106675790505090565b60005b81518110156106e3576040805190810160405280600081526020018383815181106106a957fe5b906020019060200201519052600360018301600b81106106c557fe5b60020201815181556020820151600191820155919091019050610682565b50505600a165627a7a7230582062c84cecd23b2b1f833b90786ec845edb9ac50afcef63750f2238bcd31ff4cd00029606060405242601e55601f805460ff1916905562093a8060225534156200002557600080fd5b60405162000e5f38038062000e5f83398101604052808051919060200180519190602001805182019190602001805182019190602001805191906020018051919060200180519150506000821080159062000081575060048211155b15156200008d57600080fd5b60248054600160a060020a031916600160a060020a03891617905560408051908101604052600681527f4d6f64756c65000000000000000000000000000000000000000000000000000060208201526021908051620000f192916020019062000393565b50816004811115620000ff57fe5b6023805460ff191660018360048111156200011657fe5b021790555060238054600160a060020a038084166101000261010060a860020a03199092169190911790915560245473__VotingLib_____________________________9163120dce4891168888888860506040518763ffffffff167c01000000000000000000000000000000000000000000000000000000000281526004018087600160a060020a0316600160a060020a0316815260200186600160a060020a0316600160a060020a031681526020018060200180602001858152602001848152602001838103835287818151815260200191508051906020019080838360005b8381101562000212578082015183820152602001620001f8565b50505050905090810190601f168015620002405780820380516001836020036101000a031916815260200191505b50838103825286818151815260200191508051906020019080838360005b83811015620002785780820151838201526020016200025e565b50505050905090810190601f168015620002a65780820380516001836020036101000a031916815260200191505b509850505050505050505060006040518083038186803b1515620002c957600080fd5b5af41515620002d757600080fd5b505050620002f862000305640100000000026200095d176401000000009004565b5050505050505062000438565b60408051908101604052600081527f7965730000000000000000000000000000000000000000000000000000000000602082015260058151815560208201516001909101555060408051908101604052600081527f6e6f0000000000000000000000000000000000000000000000000000000000006020820152600781518155602082015160019091015550565b828054600181600116156101000203166002900490600052602060002090601f016020900481019282601f10620003d657805160ff191683800117855562000406565b8280016001018555821562000406579182015b8281111562000406578251825591602001919060010190620003e9565b506200041492915062000418565b5090565b6200043591905b808211156200041457600081556001016200041f565b90565b610a1780620004486000396000f3006060604052600436106100d75763ffffffff60e060020a6000350416630383badc81146100dc57806306fdde03146100f45780630fb5a6b41461017e5780631703a018146101a35780632f572336146101b6578063409e2205146101c957806365372147146101f75780637284e4161461020a5780638778b27d1461021d5780639c6f0d8514610230578063a5a60e6914610243578063a9aa6a9b14610272578063aec2ccae14610285578063b86d5298146102a4578063bef4876b146102db578063cc2ee19614610302578063d56b28891461034d575b600080fd5b34156100e757600080fd5b6100f2600435610360565b005b34156100ff57600080fd5b6101076103dd565b60405160208082528190810183818151815260200191508051906020019080838360005b8381101561014357808201518382015260200161012b565b50505050905090810190601f1680156101705780820380516001836020036101000a031916815260200191505b509250505060405180910390f35b341561018957600080fd5b61019161047b565b60405190815260200160405180910390f35b34156101ae57600080fd5b610191610481565b34156101c157600080fd5b610191610487565b34156101d457600080fd5b6101df60043561048d565b60405191825260208201526040908101905180910390f35b341561020257600080fd5b6101df6104ac565b341561021557600080fd5b6101076104b5565b341561022857600080fd5b610191610520565b341561023b57600080fd5b610191610526565b341561024e57600080fd5b61025661052c565b604051600160a060020a03909116815260200160405180910390f35b341561027d57600080fd5b610107610540565b341561029057600080fd5b610191600160a060020a03600435166105ab565b34156102af57600080fd5b6102b76105bd565b604051808260048111156102c757fe5b60ff16815260200191505060405180910390f35b34156102e657600080fd5b6102ee6105c6565b604051901515815260200160405180910390f35b341561030d57600080fd5b6103156105cf565b6040518082604080838360005b8381101561033a578082015183820152602001610322565b5050505090500191505060405180910390f35b341561035857600080fd5b6100f26105f3565b60245473__VotingLib_____________________________90634adcade490600160a060020a03168360405160e060020a63ffffffff8516028152600160a060020a039092166004830152602482015260440160006040518083038186803b15156103ca57600080fd5b5af415156103d757600080fd5b50505050565b60018054600181600116156101000203166002900480601f0160208091040260200160405190810160405280929190818152602001828054600181600116156101000203166002900480156104735780601f1061044857610100808354040283529160200191610473565b820191906000526020600020905b81548152906001019060200180831161045657829003601f168201915b505050505081565b601d5481565b60205481565b60225481565b600381600b811061049a57fe5b60020201805460019091015490915082565b601a54601b5482565b60028054600181600116156101000203166002900480601f0160208091040260200160405190810160405280929190818152602001828054600181600116156101000203166002900480156104735780601f1061044857610100808354040283529160200191610473565b601c5481565b601e5481565b6023546101009004600160a060020a031681565b60218054600181600116156101000203166002900480601f0160208091040260200160405190810160405280929190818152602001828054600181600116156101000203166002900480156104735780601f1061044857610100808354040283529160200191610473565b60196020526000908152604090205481565b60235460ff1681565b601f5460ff1681565b6105d7610937565b6040805190810160405260055481526007546020820152919050565b60245473__VotingLib_____________________________90631901910b90600160a060020a031660405160e060020a63ffffffff8416028152600160a060020a03909116600482015260240160006040518083038186803b151561065757600080fd5b5af4151561066457600080fd5b5050601b547f6e6f0000000000000000000000000000000000000000000000000000000000001415905061069757610935565b600060235460ff1660048111156106aa57fe5b141561071d57600054602354600160a060020a0391821691630eed6e8d9161010090041660405160e060020a63ffffffff8416028152600160a060020a039091166004820152602401600060405180830381600087803b151561070c57600080fd5b5af1151561071957600080fd5b5050505b600160235460ff16600481111561073057fe5b14156107a357600054602354600160a060020a03918216916381bb60de9161010090041660405160e060020a63ffffffff8416028152600160a060020a039091166004820152602401600060405180830381600087803b151561079257600080fd5b5af1151561079f57600080fd5b5050505b600260235460ff1660048111156107b657fe5b141561082957600054602354600160a060020a039182169163e70e37379161010090041660405160e060020a63ffffffff8416028152600160a060020a039091166004820152602401600060405180830381600087803b151561081857600080fd5b5af1151561082557600080fd5b5050505b600360235460ff16600481111561083c57fe5b14156108af57600054602354600160a060020a039182169163620958419161010090041660405160e060020a63ffffffff8416028152600160a060020a039091166004820152602401600060405180830381600087803b151561089e57600080fd5b5af115156108ab57600080fd5b5050505b600460235460ff1660048111156108c257fe5b141561093557600054602354600160a060020a039182169163aaf793c69161010090041660405160e060020a63ffffffff8416028152600160a060020a039091166004820152602401600060405180830381600087803b151561092457600080fd5b5af1151561093157600080fd5b5050505b565b604080519081016040526002815b60008152602001906001900390816109455790505090565b60408051908101604052600081527f7965730000000000000000000000000000000000000000000000000000000000602082015260058151815560208201516001909101555060408051908101604052600081527f6e6f00000000000000000000000000000000000000000000000000000000000060208201526007815181556020820151600190910155505600a165627a7a7230582027bf43feb030f061f3756e342af1a4915e5ae65e42f7e58695604df7e7e9ebb30029606060405242601e55601f805460ff1916905562093a80602255341561002457600080fd5b604051610b2f380380610b2f83398101604052808051919060200180519190602001805182019190602001805182019190602001805160238054600160a060020a031916600160a060020a0389161790559150604090508051908101604052600681527f526566756e640000000000000000000000000000000000000000000000000000602082015260219080516100c092916020019061030c565b5060235473__VotingLib_____________________________9063120dce4890600160a060020a031686868686605a6040518763ffffffff167c01000000000000000000000000000000000000000000000000000000000281526004018087600160a060020a0316600160a060020a0316815260200186600160a060020a0316600160a060020a031681526020018060200180602001858152602001848152602001838103835287818151815260200191508051906020019080838360005b8381101561019757808201518382015260200161017f565b50505050905090810190601f1680156101c45780820380516001836020036101000a031916815260200191505b50838103825286818151815260200191508051906020019080838360005b838110156101fa5780820151838201526020016101e2565b50505050905090810190601f1680156102275780820380516001836020036101000a031916815260200191505b509850505050505050505060006040518083038186803b151561024957600080fd5b5af4151561025657600080fd5b50505061027461027e640100000000026106bf176401000000009004565b50505050506103a7565b60408051908101604052600081527f7965730000000000000000000000000000000000000000000000000000000000602082015260058151815560208201516001909101555060408051908101604052600081527f6e6f0000000000000000000000000000000000000000000000000000000000006020820152600781518155602082015160019091015550565b828054600181600116156101000203166002900490600052602060002090601f016020900481019282601f1061034d57805160ff191683800117855561037a565b8280016001018555821561037a579182015b8281111561037a57825182559160200191906001019061035f565b5061038692915061038a565b5090565b6103a491905b808211156103865760008155600101610390565b90565b610779806103b66000396000f3006060604052600436106100c15763ffffffff60e060020a6000350416630383badc81146100c657806306fdde03146100de5780630fb5a6b4146101685780631703a0181461018d5780632f572336146101a0578063409e2205146101b357806365372147146101e15780637284e416146101f45780638778b27d146102075780639c6f0d851461021a578063a9aa6a9b1461022d578063aec2ccae14610240578063bef4876b1461026c578063cc2ee19614610293578063d56b2889146102de575b600080fd5b34156100d157600080fd5b6100dc6004356102f1565b005b34156100e957600080fd5b6100f1610388565b60405160208082528190810183818151815260200191508051906020019080838360005b8381101561012d578082015183820152602001610115565b50505050905090810190601f16801561015a5780820380516001836020036101000a031916815260200191505b509250505060405180910390f35b341561017357600080fd5b61017b610426565b60405190815260200160405180910390f35b341561019857600080fd5b61017b61042c565b34156101ab57600080fd5b61017b610432565b34156101be57600080fd5b6101c9600435610438565b60405191825260208201526040908101905180910390f35b34156101ec57600080fd5b6101c9610457565b34156101ff57600080fd5b6100f1610460565b341561021257600080fd5b61017b6104cb565b341561022557600080fd5b61017b6104d1565b341561023857600080fd5b6100f16104d7565b341561024b57600080fd5b61017b73ffffffffffffffffffffffffffffffffffffffff60043516610542565b341561027757600080fd5b61027f610554565b604051901515815260200160405180910390f35b341561029e57600080fd5b6102a661055d565b6040518082604080838360005b838110156102cb5780820151838201526020016102b3565b5050505090500191505060405180910390f35b34156102e957600080fd5b6100dc610581565b60235473__VotingLib_____________________________90634adcade49073ffffffffffffffffffffffffffffffffffffffff168360405160e060020a63ffffffff851602815273ffffffffffffffffffffffffffffffffffffffff9092166004830152602482015260440160006040518083038186803b151561037557600080fd5b5af4151561038257600080fd5b50505050565b60018054600181600116156101000203166002900480601f01602080910402602001604051908101604052809291908181526020018280546001816001161561010002031660029004801561041e5780601f106103f35761010080835404028352916020019161041e565b820191906000526020600020905b81548152906001019060200180831161040157829003601f168201915b505050505081565b601d5481565b60205481565b60225481565b600381600b811061044557fe5b60020201805460019091015490915082565b601a54601b5482565b60028054600181600116156101000203166002900480601f01602080910402602001604051908101604052809291908181526020018280546001816001161561010002031660029004801561041e5780601f106103f35761010080835404028352916020019161041e565b601c5481565b601e5481565b60218054600181600116156101000203166002900480601f01602080910402602001604051908101604052809291908181526020018280546001816001161561010002031660029004801561041e5780601f106103f35761010080835404028352916020019161041e565b60196020526000908152604090205481565b601f5460ff1681565b610565610699565b6040805190810160405260055481526007546020820152919050565b60235473__VotingLib_____________________________90631901910b9073ffffffffffffffffffffffffffffffffffffffff1660405160e060020a63ffffffff841602815273ffffffffffffffffffffffffffffffffffffffff909116600482015260240160006040518083038186803b15156105ff57600080fd5b5af4151561060c57600080fd5b5050601b547f7965730000000000000000000000000000000000000000000000000000000000141590506106975760005473ffffffffffffffffffffffffffffffffffffffff1663f00300a36040518163ffffffff1660e060020a028152600401600060405180830381600087803b151561068657600080fd5b5af1151561069357600080fd5b5050505b565b604080519081016040526002815b60008152602001906001900390816106a75790505090565b60408051908101604052600081527f7965730000000000000000000000000000000000000000000000000000000000602082015260058151815560208201516001909101555060408051908101604052600081527f6e6f00000000000000000000000000000000000000000000000000000000000060208201526007815181556020820151600190910155505600a165627a7a72305820ebd142ac4d45623507d7ead8a465dc55e79a8bd5dc97af9f43525f452346dc860029a165627a7a723058202fbe5d4eb4fe77f8498beca5ae7bcdb5ad73d5cba41b5e668ff531de0df985d10029",
  "source": "pragma solidity ^0.4.0;\n\nimport \"./VotingFactoryInterface.sol\";\nimport \"./Proposal.sol\";\nimport \"./Withdrawal.sol\";\nimport \"./Refund.sol\";\nimport \"./Module.sol\";\nimport \"../DAO/DAOFactoryInterface.sol\";\nimport \"../DAO/IDAO.sol\";\n\ncontract VotingFactory is VotingFactoryInterface {\n    address baseVoting;\n    DAOFactoryInterface public daoFactory;\n\n    function VotingFactory(address _baseVoting) {\n        baseVoting = _baseVoting;\n    }\n\n    function createProposal(address _creator, string _name, string _description, uint _duration, bytes32[] _options)\n        external\n        onlyDAO\n        onlyParticipant(_creator)\n        returns (address)\n    {\n        return new Proposal(baseVoting, msg.sender, _name, _description, _duration, _options);\n    }\n\n    function createWithdrawal(address _creator, string _name, string _description, uint _duration, uint _sum, address withdrawalWallet, bool _dxc)\n        external\n        onlyParticipant(_creator)\n        onlyDAO\n        onlyWhiteList(withdrawalWallet)\n        returns (address)\n    {\n        return new Withdrawal(baseVoting, msg.sender, _name, _description, _duration, _sum, withdrawalWallet, _dxc);\n    }\n\n    function createRefund(address _creator, string _name, string _description, uint _duration) external onlyDAO onlyParticipant(_creator) returns (address) {\n        return new Refund(baseVoting, msg.sender, _name, _description, _duration);\n    }\n\n    function createModule(address _creator, string _name, string _description, uint _duration, uint _module, address _newAddress)\n        external\n        onlyDAO\n        onlyParticipant(_creator)\n        returns (address)\n    {\n        return new Module(baseVoting, msg.sender, _name, _description, _duration, _module, _newAddress);\n    }\n\n    function setDaoFactory(address _dao) external {\n        require(address(daoFactory) == 0x0 && _dao != 0x0);\n        daoFactory = DAOFactoryInterface(_dao);\n    }\n\n    modifier onlyDAO() {\n        require(daoFactory.exists(msg.sender));\n        _;\n    }\n\n    modifier onlyParticipant(address creator) {\n        require(IDAO(msg.sender).isParticipant(creator));\n        _;\n    }\n\n    modifier onlyWhiteList(address creator) {\n        require(IDAO(msg.sender).whiteList(creator));\n        _;\n    }\n}\n",
  "sourcePath": "/Users/kirill/projects/daox-contracts/contracts/Votings/VotingFactory.sol",
  "compiler": {
    "name": "solc",
    "version": "0.4.21+commit.dfe3193c.Emscripten.clang"
  },
  "schemaVersion": "2.0.0",
  "updatedAt": "2018-04-12T10:48:23.341Z"
}