{
  "contractName": "VotingLib",
  "abi": [
    {
      "constant": false,
      "inputs": [
        {
          "name": "_v",
          "type": "address"
        },
        {
          "name": "_dao",
          "type": "address"
        },
        {
          "name": "_name",
          "type": "string"
        },
        {
          "name": "_description",
          "type": "string"
        },
        {
          "name": "_duration",
          "type": "uint256"
        },
        {
          "name": "_quorum",
          "type": "uint256"
        }
      ],
      "name": "delegatecallCreate",
      "outputs": [],
      "payable": false,
      "stateMutability": "nonpayable",
      "type": "function"
    },
    {
      "constant": false,
      "inputs": [
        {
          "name": "_v",
          "type": "address"
        },
        {
          "name": "optionID",
          "type": "uint256"
        }
      ],
      "name": "delegatecallAddVote",
      "outputs": [],
      "payable": false,
      "stateMutability": "nonpayable",
      "type": "function"
    },
    {
      "constant": false,
      "inputs": [
        {
          "name": "_v",
          "type": "address"
        }
      ],
      "name": "delegatecallFinish",
      "outputs": [],
      "payable": false,
      "stateMutability": "nonpayable",
      "type": "function"
    },
    {
      "constant": true,
      "inputs": [
        {
          "name": "_dao",
          "type": "address"
        },
        {
          "name": "_sum",
          "type": "uint256"
        },
        {
          "name": "_dxc",
          "type": "bool"
        }
      ],
      "name": "isValidWithdrawal",
      "outputs": [
        {
          "name": "",
          "type": "bool"
        }
      ],
      "payable": false,
      "stateMutability": "view",
      "type": "function"
    }
  ],
  "bytecode": "0x6105e9610030600b82828239805160001a6073146000811461002057610022565bfe5b5030600052607381538281f300730000000000000000000000000000000000000000301460606040526004361061005f5763ffffffff60e060020a600035041663120dce4881146100645780631901910b146101185780634adcade4146101375780636244817a14610159575b600080fd5b811561006f57600080fd5b610116600160a060020a036004803582169160248035909116919060649060443590810190830135806020601f8201819004810201604051908101604052818152929190602084018383808284378201915050505050509190803590602001908201803590602001908080601f0160208091040260200160405190810160405281815292919060208401838380828437509496505084359460200135935061018992505050565b005b811561012357600080fd5b610116600160a060020a03600435166103ea565b811561014257600080fd5b610116600160a060020a036004351660243561045f565b610175600160a060020a036004351660243560443515156104de565b604051901515815260200160405180910390f35b85600160a060020a03166040517f63726561746528616464726573732c627974657333322c627974657333322c7581527f696e743235362c75696e743235362900000000000000000000000000000000006020820152602f01604051809103902060e060020a90048673__Common________________________________63cfb51928886040518263ffffffff1660e060020a0281526004018080602001828103825283818151815260200191508051906020019080838360005b8381101561025c578082015183820152602001610244565b50505050905090810190601f1680156102895780820380516001836020036101000a031916815260200191505b509250505060206040518083038186803b15156102a557600080fd5b5af415156102b257600080fd5b5050506040518051905073__Common________________________________63cfb51928886040518263ffffffff1660e060020a0281526004018080602001828103825283818151815260200191508051906020019080838360005b8381101561032657808201518382015260200161030e565b50505050905090810190601f1680156103535780820380516001836020036101000a031916815260200191505b509250505060206040518083038186803b151561036f57600080fd5b5af4151561037c57600080fd5b50505060405180519050868660405160e060020a63ffffffff8816028152600160a060020a039095166004860152602485019390935260448401919091526064830152608482015260a401600060405180830381865af49250505015156103e257600080fd5b505050505050565b80600160a060020a03166040517f66696e69736828290000000000000000000000000000000000000000000000008152600801604051809103902060e060020a90046040518163ffffffff1660e060020a028152600401600060405180830381865af492505050151561045c57600080fd5b50565b81600160a060020a03166040517f616464566f74652875696e7432353629000000000000000000000000000000008152601001604051809103902060e060020a90048260405160e060020a63ffffffff84160281526004810191909152602401600060405180830381865af49250505015156104da57600080fd5b5050565b600081156105a6578284600160a060020a031663908368226040518163ffffffff1660e060020a028152600401602060405180830381600087803b151561052457600080fd5b5af1151561053157600080fd5b50505060405180519050600160a060020a03166370a082318660405160e060020a63ffffffff8416028152600160a060020a039091166004820152602401602060405180830381600087803b151561058857600080fd5b5af1151561059557600080fd5b5050506040518051905010156105b5565b8284600160a060020a03163110155b9493505050505600a165627a7a7230582005d29dfc1316808fe4a6d1ffc67a1f4331e6c9e937397d371baad1e00ddecb8a0029",
  "source": "pragma solidity ^0.4.11;\n\nimport \"../DAO/ICrowdsaleDAO.sol\";\nimport \"../Common.sol\";\n\nlibrary VotingLib {\n    struct Option {\n        uint votes;\n        bytes32 description;\n    }\n\n    function delegatecallCreate(address _v, address _dao, string _name, string _description, uint _duration, uint _quorum) {\n        require(_v.delegatecall(bytes4(keccak256(\"create(address,bytes32,bytes32,uint256,uint256)\")),\n            _dao,\n            Common.stringToBytes32(_name),\n            Common.stringToBytes32(_description),\n            _duration,\n            _quorum)\n        );\n    }\n\n    function delegatecallAddVote(address _v, uint optionID) {\n        require(_v.delegatecall(bytes4(keccak256(\"addVote(uint256)\")), optionID));\n    }\n\n    function delegatecallFinish(address _v) {\n        require(_v.delegatecall(bytes4(keccak256(\"finish()\"))));\n    }\n\n    function isValidWithdrawal(address _dao, uint _sum, bool _dxc) constant returns(bool) {\n        return !_dxc ? _dao.balance >= _sum  : ICrowdsaleDAO(_dao).DXC().balanceOf(_dao) >= _sum;\n    }\n}",
  "sourcePath": "/Users/kirill/projects/daox-contracts/contracts/Votings/VotingLib.sol",
  "compiler": {
    "name": "solc",
    "version": "0.4.21+commit.dfe3193c.Emscripten.clang"
  },
  "schemaVersion": "2.0.0",
  "updatedAt": "2018-04-30T12:59:51.258Z"
}