{
  "contractName": "VotingFields",
  "abi": [
    {
      "constant": true,
      "inputs": [],
      "name": "name",
      "outputs": [
        {
          "name": "",
          "type": "string"
        }
      ],
      "payable": false,
      "stateMutability": "view",
      "type": "function"
    },
    {
      "constant": true,
      "inputs": [],
      "name": "duration",
      "outputs": [
        {
          "name": "",
          "type": "uint256"
        }
      ],
      "payable": false,
      "stateMutability": "view",
      "type": "function"
    },
    {
      "constant": true,
      "inputs": [],
      "name": "quorum",
      "outputs": [
        {
          "name": "",
          "type": "uint256"
        }
      ],
      "payable": false,
      "stateMutability": "view",
      "type": "function"
    },
    {
      "constant": true,
      "inputs": [],
      "name": "minimalDuration",
      "outputs": [
        {
          "name": "",
          "type": "uint256"
        }
      ],
      "payable": false,
      "stateMutability": "view",
      "type": "function"
    },
    {
      "constant": true,
      "inputs": [
        {
          "name": "",
          "type": "uint256"
        }
      ],
      "name": "options",
      "outputs": [
        {
          "name": "votes",
          "type": "uint256"
        },
        {
          "name": "description",
          "type": "bytes32"
        }
      ],
      "payable": false,
      "stateMutability": "view",
      "type": "function"
    },
    {
      "constant": true,
      "inputs": [],
      "name": "result",
      "outputs": [
        {
          "name": "votes",
          "type": "uint256"
        },
        {
          "name": "description",
          "type": "bytes32"
        }
      ],
      "payable": false,
      "stateMutability": "view",
      "type": "function"
    },
    {
      "constant": true,
      "inputs": [],
      "name": "description",
      "outputs": [
        {
          "name": "",
          "type": "string"
        }
      ],
      "payable": false,
      "stateMutability": "view",
      "type": "function"
    },
    {
      "constant": true,
      "inputs": [],
      "name": "votesCount",
      "outputs": [
        {
          "name": "",
          "type": "uint256"
        }
      ],
      "payable": false,
      "stateMutability": "view",
      "type": "function"
    },
    {
      "constant": true,
      "inputs": [],
      "name": "created_at",
      "outputs": [
        {
          "name": "",
          "type": "uint256"
        }
      ],
      "payable": false,
      "stateMutability": "view",
      "type": "function"
    },
    {
      "constant": true,
      "inputs": [],
      "name": "votingType",
      "outputs": [
        {
          "name": "",
          "type": "string"
        }
      ],
      "payable": false,
      "stateMutability": "view",
      "type": "function"
    },
    {
      "constant": true,
      "inputs": [
        {
          "name": "",
          "type": "address"
        }
      ],
      "name": "voted",
      "outputs": [
        {
          "name": "",
          "type": "uint256"
        }
      ],
      "payable": false,
      "stateMutability": "view",
      "type": "function"
    },
    {
      "constant": true,
      "inputs": [],
      "name": "finished",
      "outputs": [
        {
          "name": "",
          "type": "bool"
        }
      ],
      "payable": false,
      "stateMutability": "view",
      "type": "function"
    }
  ],
  "bytecode": "0x608060405242601e55601f805460ff1916905562093a8060225534801561002557600080fd5b50610457806100356000396000f3006080604052600436106100b95763ffffffff7c010000000000000000000000000000000000000000000000000000000060003504166306fdde0381146100be5780630fb5a6b4146101485780631703a0181461016f5780632f57233614610184578063409e22051461019957806365372147146101ca5780637284e416146101df5780638778b27d146101f45780639c6f0d8514610209578063a9aa6a9b1461021e578063aec2ccae14610233578063bef4876b14610261575b600080fd5b3480156100ca57600080fd5b506100d361028a565b6040805160208082528351818301528351919283929083019185019080838360005b8381101561010d5781810151838201526020016100f5565b50505050905090810190601f16801561013a5780820380516001836020036101000a031916815260200191505b509250505060405180910390f35b34801561015457600080fd5b5061015d610317565b60408051918252519081900360200190f35b34801561017b57600080fd5b5061015d61031d565b34801561019057600080fd5b5061015d610323565b3480156101a557600080fd5b506101b1600435610329565b6040805192835260208301919091528051918290030190f35b3480156101d657600080fd5b506101b1610348565b3480156101eb57600080fd5b506100d3610351565b34801561020057600080fd5b5061015d6103a9565b34801561021557600080fd5b5061015d6103af565b34801561022a57600080fd5b506100d36103b5565b34801561023f57600080fd5b5061015d73ffffffffffffffffffffffffffffffffffffffff60043516610410565b34801561026d57600080fd5b50610276610422565b604080519115158252519081900360200190f35b60018054604080516020600284861615610100026000190190941693909304601f8101849004840282018401909252818152929183018282801561030f5780601f106102e45761010080835404028352916020019161030f565b820191906000526020600020905b8154815290600101906020018083116102f257829003601f168201915b505050505081565b601d5481565b60205481565b60225481565b600381600b811061033657fe5b60020201805460019091015490915082565b601a54601b5482565b6002805460408051602060018416156101000260001901909316849004601f8101849004840282018401909252818152929183018282801561030f5780601f106102e45761010080835404028352916020019161030f565b601c5481565b601e5481565b6021805460408051602060026001851615610100026000190190941693909304601f8101849004840282018401909252818152929183018282801561030f5780601f106102e45761010080835404028352916020019161030f565b60196020526000908152604090205481565b601f5460ff16815600a165627a7a72305820f18612714e9509c9db9afdb6aa7814294f0119721eec00130b954b02f4f56a970029",
  "source": "pragma solidity ^0.4.0;\n\nimport \"./VotingLib.sol\";\nimport \"../DAO/ICrowdsaleDAO.sol\";\n\ncontract VotingFields {\n    ICrowdsaleDAO dao;\n    string public name;\n    string public description;\n    VotingLib.Option[11] public options;\n    mapping (address => uint) public voted;\n    VotingLib.Option public result;\n    uint public votesCount;\n    uint public duration; // UNIX\n    uint public created_at = now;\n    bool public finished = false;\n    uint public quorum;\n    string public votingType;\n    uint public minimalDuration = 60 * 60 * 24 * 7; // 7 days\n}\n",
  "sourcePath": "/Users/giddeonwyeth/PhpstormProjects/dao/daox-contracts/contracts/Votings/VotingFields.sol",
  "compiler": {
    "name": "solc",
    "version": "0.4.24+commit.e67f0147.Emscripten.clang"
  },
  "schemaVersion": "2.0.1",
  "updatedAt": "2018-07-10T13:42:04.593Z"
}