{
  "contractName": "Voting",
  "abi": [
    {
      "constant": true,
      "inputs": [],
      "name": "name",
      "outputs": [
        {
          "name": "",
          "type": "string"
        }
      ],
      "payable": false,
      "stateMutability": "view",
      "type": "function"
    },
    {
      "constant": true,
      "inputs": [],
      "name": "duration",
      "outputs": [
        {
          "name": "",
          "type": "uint256"
        }
      ],
      "payable": false,
      "stateMutability": "view",
      "type": "function"
    },
    {
      "constant": true,
      "inputs": [],
      "name": "quorum",
      "outputs": [
        {
          "name": "",
          "type": "uint256"
        }
      ],
      "payable": false,
      "stateMutability": "view",
      "type": "function"
    },
    {
      "constant": true,
      "inputs": [],
      "name": "minimalDuration",
      "outputs": [
        {
          "name": "",
          "type": "uint256"
        }
      ],
      "payable": false,
      "stateMutability": "view",
      "type": "function"
    },
    {
      "constant": true,
      "inputs": [
        {
          "name": "",
          "type": "uint256"
        }
      ],
      "name": "options",
      "outputs": [
        {
          "name": "votes",
          "type": "uint256"
        },
        {
          "name": "description",
          "type": "bytes32"
        }
      ],
      "payable": false,
      "stateMutability": "view",
      "type": "function"
    },
    {
      "constant": true,
      "inputs": [],
      "name": "result",
      "outputs": [
        {
          "name": "votes",
          "type": "uint256"
        },
        {
          "name": "description",
          "type": "bytes32"
        }
      ],
      "payable": false,
      "stateMutability": "view",
      "type": "function"
    },
    {
      "constant": true,
      "inputs": [],
      "name": "description",
      "outputs": [
        {
          "name": "",
          "type": "string"
        }
      ],
      "payable": false,
      "stateMutability": "view",
      "type": "function"
    },
    {
      "constant": true,
      "inputs": [],
      "name": "votesCount",
      "outputs": [
        {
          "name": "",
          "type": "uint256"
        }
      ],
      "payable": false,
      "stateMutability": "view",
      "type": "function"
    },
    {
      "constant": true,
      "inputs": [],
      "name": "created_at",
      "outputs": [
        {
          "name": "",
          "type": "uint256"
        }
      ],
      "payable": false,
      "stateMutability": "view",
      "type": "function"
    },
    {
      "constant": true,
      "inputs": [],
      "name": "votingType",
      "outputs": [
        {
          "name": "",
          "type": "string"
        }
      ],
      "payable": false,
      "stateMutability": "view",
      "type": "function"
    },
    {
      "constant": true,
      "inputs": [
        {
          "name": "",
          "type": "address"
        }
      ],
      "name": "voted",
      "outputs": [
        {
          "name": "",
          "type": "uint256"
        }
      ],
      "payable": false,
      "stateMutability": "view",
      "type": "function"
    },
    {
      "constant": true,
      "inputs": [],
      "name": "finished",
      "outputs": [
        {
          "name": "",
          "type": "bool"
        }
      ],
      "payable": false,
      "stateMutability": "view",
      "type": "function"
    },
    {
      "constant": false,
      "inputs": [
        {
          "name": "_dao",
          "type": "address"
        },
        {
          "name": "_name",
          "type": "bytes32"
        },
        {
          "name": "_description",
          "type": "bytes32"
        },
        {
          "name": "_duration",
          "type": "uint256"
        },
        {
          "name": "_quorum",
          "type": "uint256"
        }
      ],
      "name": "create",
      "outputs": [],
      "payable": false,
      "stateMutability": "nonpayable",
      "type": "function"
    },
    {
      "constant": false,
      "inputs": [
        {
          "name": "optionID",
          "type": "uint256"
        }
      ],
      "name": "addVote",
      "outputs": [],
      "payable": false,
      "stateMutability": "nonpayable",
      "type": "function"
    },
    {
      "constant": false,
      "inputs": [],
      "name": "finish",
      "outputs": [],
      "payable": false,
      "stateMutability": "nonpayable",
      "type": "function"
    }
  ],
  "bytecode": "0x606060405242601e55601f805460ff1916905562093a80602255341561002457600080fd5b6110f0806100336000396000f3006060604052600436106100c15763ffffffff60e060020a6000350416630383badc81146100c657806306fdde03146100de5780630fb5a6b4146101685780631703a0181461018d5780632f572336146101a057806336e1c4f8146101b3578063409e2205146101de578063653721471461020c5780637284e4161461021f5780638778b27d146102325780639c6f0d8514610245578063a9aa6a9b14610258578063aec2ccae1461026b578063bef4876b1461028a578063d56b2889146102b1575b600080fd5b34156100d157600080fd5b6100dc6004356102c4565b005b34156100e957600080fd5b6100f161057d565b60405160208082528190810183818151815260200191508051906020019080838360005b8381101561012d578082015183820152602001610115565b50505050905090810190601f16801561015a5780820380516001836020036101000a031916815260200191505b509250505060405180910390f35b341561017357600080fd5b61017b61061b565b60405190815260200160405180910390f35b341561019857600080fd5b61017b610621565b34156101ab57600080fd5b61017b610627565b34156101be57600080fd5b6100dc600160a060020a036004351660243560443560643560843561062d565b34156101e957600080fd5b6101f4600435610868565b60405191825260208201526040908101905180910390f35b341561021757600080fd5b6101f4610887565b341561022a57600080fd5b6100f1610890565b341561023d57600080fd5b61017b6108fb565b341561025057600080fd5b61017b610901565b341561026357600080fd5b6100f1610907565b341561027657600080fd5b61017b600160a060020a0360043516610972565b341561029557600080fd5b61029d610984565b604051901515815260200160405180910390f35b34156102bc57600080fd5b6100dc61098d565b601f5460009060ff16156102d757600080fd5b600054600160a060020a03166310be8d123360405160e060020a63ffffffff8416028152600160a060020a039091166004820152602401602060405180830381600087803b151561032757600080fd5b5af1151561033457600080fd5b505050604051805190501580156103ae5750600054600160a060020a031663929066f53360405160e060020a63ffffffff8416028152600160a060020a039091166004820152602401602060405180830381600087803b151561039657600080fd5b5af115156103a357600080fd5b505050604051805190505b80156103d05750600160a060020a033316600090815260196020526040902054155b15156103db57600080fd5b81600381600b81106103e957fe5b600202016001015415156103fc57600080fd5b601e54601d5442031061040e57600080fd5b600054600160a060020a031663fc0c546a6040518163ffffffff1660e060020a028152600401602060405180830381600087803b151561044d57600080fd5b5af1151561045a57600080fd5b50505060405180519050600160a060020a03166370a082313360405160e060020a63ffffffff8416028152600160a060020a039091166004820152602401602060405180830381600087803b15156104b157600080fd5b5af115156104be57600080fd5b50505060405180519250829050600384600b81106104d857fe5b6002020180549091019055600160a060020a0333818116600090815260196020526040808220879055601c8054870190559054601e54601d549190941693631a15b2069392429290910191909103905160e060020a63ffffffff8516028152600160a060020a0390921660048301526024820152604401600060405180830381600087803b151561056857600080fd5b5af1151561057557600080fd5b505050505050565b60018054600181600116156101000203166002900480601f0160208091040260200160405190810160405280929190818152602001828054600181600116156101000203166002900480156106135780601f106105e857610100808354040283529160200191610613565b820191906000526020600020905b8154815290600101906020018083116105f657829003601f168201915b505050505081565b601d5481565b60205481565b60225481565b8480600160a060020a031663ece84fd56040518163ffffffff1660e060020a028152600401602060405180830381600087803b151561066b57600080fd5b5af1151561067857600080fd5b505050604051805190508015610734575080600160a060020a031663906a26e06040518163ffffffff1660e060020a028152600401602060405180830381600087803b15156106c657600080fd5b5af115156106d357600080fd5b5050506040518051905081600160a060020a0316636681b9fd6040518163ffffffff1660e060020a028152600401602060405180830381600087803b151561071a57600080fd5b5af1151561072757600080fd5b5050506040518051905010155b151561073f57600080fd5b82602254811015806107eb57506040517f4d6f64756c6500000000000000000000000000000000000000000000000000008152600601604051908190039020602160405180828054600181600116156101000203166002900480156107db5780601f106107b95761010080835404028352918201916107db565b820191906000526020600020905b8154815290600101906020018083116107c7575b5050915050604051908190039020145b15156107f657600080fd5b6000805473ffffffffffffffffffffffffffffffffffffffff1916600160a060020a03891617905561082786610d85565b600190805161083a929160200190611000565b5061084485610d85565b6002908051610857929160200190611000565b505050601d91909155602055505050565b600381600b811061087557fe5b60020201805460019091015490915082565b601a54601b5482565b60028054600181600116156101000203166002900480601f0160208091040260200160405190810160405280929190818152602001828054600181600116156101000203166002900480156106135780601f106105e857610100808354040283529160200191610613565b601c5481565b601e5481565b60218054600181600116156101000203166002900480601f0160208091040260200160405190810160405280929190818152602001828054600181600116156101000203166002900480156106135780601f106105e857610100808354040283529160200191610613565b60196020526000908152604090205481565b601f5460ff1681565b601f5460ff161561099d57600080fd5b601e54601d54420310156109b057600080fd5b601f805460ff191660011790556040517f5769746864726177616c000000000000000000000000000000000000000000008152600a0160405190819003902060216040518082805460018160011615610100020316600290048015610a4c5780601f10610a2a576101008083540402835291820191610a4c565b820191906000526020600020905b815481529060010190602001808311610a38575b50509150506040519081900390201415610b3f57600054600160a060020a031663289a03b06040518163ffffffff1660e060020a028152600401602060405180830381600087803b1515610a9f57600080fd5b5af11515610aac57600080fd5b5050506040518051905080610b135750600054600160a060020a031663bf89662d6040518163ffffffff1660e060020a028152600401602060405180830381600087803b1515610afb57600080fd5b5af11515610b0857600080fd5b505050604051805190505b15610b3257600360025b600202018054601a5560010154601b55610d83565b610b3a610f1b565b610d83565b6040517f50726f706f73616c000000000000000000000000000000000000000000000000815260080160405190819003902060216040518082805460018160011615610100020316600290048015610bce5780601f10610bac576101008083540402835291820191610bce565b820191906000526020600020905b815481529060010190602001808311610bba575b50509150506040519081900390201415610bea57610b3a610f30565b60205460055460005473__Common________________________________91622c1a9e91600160a060020a031663a88f893a6040518163ffffffff1660e060020a028152600401602060405180830381600087803b1515610c4a57600080fd5b5af11515610c5757600080fd5b5050506040518051600054909150600160a060020a031663fc0c546a6040518163ffffffff1660e060020a028152600401602060405180830381600087803b1515610ca157600080fd5b5af11515610cae57600080fd5b50505060405180519050600160a060020a03166318160ddd6040518163ffffffff1660e060020a028152600401602060405180830381600087803b1515610cf457600080fd5b5af11515610d0157600080fd5b5050506040518051905003600260405160e060020a63ffffffff861602815260048101939093526024830191909152604482015260640160206040518083038186803b1515610d4f57600080fd5b5af41515610d5c57600080fd5b50505060405180519050101515610d765760036001610b1d565b600754601a55600854601b555b565b610d8d61107e565b610d9561107e565b600080610da061107e565b6020604051805910610daf5750595b818152601f19601f83011681016020016040529050935060009250600091505b6020821015610e7b57858260208110610de457fe5b1a60f860020a02848381518110610df757fe5b9060200101907effffffffffffffffffffffffffffffffffffffffffffffffffffffffffffff1916908160001a905350838281518110610e3357fe5b016020015160f860020a90819004027fff000000000000000000000000000000000000000000000000000000000000001615610e70576001830192505b600190910190610dcf565b82604051805910610e895750595b818152601f19601f830116810160200160405290509050600091505b82821015610f1257838281518110610eb957fe5b016020015160f860020a900460f860020a02818381518110610ed757fe5b9060200101907effffffffffffffffffffffffffffffffffffffffffffffffffffffffffffff1916908160001a905350600190910190610ea5565b95945050505050565b6007546005541115610d765760036001610b1d565b610f38611090565b600080600560408051908101604052815481526001909101546020820152925060009150600290505b600b811015610fe057600381600b8110610f7757fe5b600202015483511415610f8d5760019150610fd8565b600381600b8110610f9a57fe5b600202015483511015610fd857600381600b8110610fb457fe5b60020201604080519081016040528154815260019091015460208201529250600091505b600101610f61565b811515610ffb5782601a815181556020820151600190910155505b505050565b828054600181600116156101000203166002900490600052602060002090601f016020900481019282601f1061104157805160ff191683800117855561106e565b8280016001018555821561106e579182015b8281111561106e578251825591602001919060010190611053565b5061107a9291506110a7565b5090565b60206040519081016040526000815290565b604080519081016040526000808252602082015290565b6110c191905b8082111561107a57600081556001016110ad565b905600a165627a7a7230582059c415a6230dd8f7a283058a5f1a0a9e706412db6f35112443e1f067933858e40029",
  "source": "pragma solidity ^0.4.11;\n\nimport \"./VotingLib.sol\";\nimport \"./VotingFields.sol\";\nimport \"../Common.sol\";\nimport \"../DAO/ICrowdsaleDAO.sol\";\n\ncontract Voting is VotingFields {\n\n    function create(address _dao, bytes32 _name, bytes32 _description, uint _duration, uint _quorum)\n    succeededCrowdsale(ICrowdsaleDAO(_dao))\n    correctDuration(_duration)\n    external\n    {\n        dao = ICrowdsaleDAO(_dao);\n        name = Common.toString(_name);\n        description = Common.toString(_description);\n        duration = _duration;\n        quorum = _quorum;\n    }\n\n    function addVote(uint optionID) external notFinished canVote correctOption(optionID) {\n        require(block.timestamp - duration < created_at);\n        uint tokensAmount = dao.token().balanceOf(msg.sender);\n        options[optionID].votes += tokensAmount;\n        voted[msg.sender] = optionID;\n        votesCount += tokensAmount;\n\n        dao.holdTokens(msg.sender, (duration + created_at) - now);\n    }\n\n    function finish() external notFinished {\n        require(block.timestamp - duration >= created_at);\n        finished = true;\n        if (keccak256(votingType) == keccak256(\"Withdrawal\")) {\n            if (dao.refundableSoftCap() || dao.refundable()) {\n                result = options[2];\n                return;\n            }\n\n            return finishNotProposal();\n        }\n        if (keccak256(votingType) == keccak256(\"Proposal\")) return finishProposal();\n\n        //Other two cases of votings (`Module` and `Refund`) requires quorum\n        if (Common.percent(options[1].votes, dao.token().totalSupply() - dao.teamTokensAmount(), 2) >= quorum) {\n            result = options[1];\n            return;\n        }\n\n        result = options[2];\n    }\n\n    function finishProposal() private {\n        VotingLib.Option memory _result = options[1];\n        bool equal = false;\n        for (uint i = 2; i < options.length; i++) {\n            if (_result.votes == options[i].votes) equal = true;\n            else if (_result.votes < options[i].votes) {\n                _result = options[i];\n                equal = false;\n            }\n        }\n        if (!equal) result = _result;\n    }\n\n    function finishNotProposal() private {\n        if (options[1].votes > options[2].votes) result = options[1];\n        else result = options[2];\n    }\n\n    modifier canVote() {\n        require(!dao.teamMap(msg.sender) && dao.isParticipant(msg.sender) && voted[msg.sender] == 0);\n        _;\n    }\n\n    modifier notFinished() {\n        require(!finished);\n        _;\n    }\n\n    modifier succeededCrowdsale(ICrowdsaleDAO dao) {\n        require(dao.crowdsaleFinished() && dao.fundsRaised() >= dao.softCap());\n        _;\n    }\n\n    modifier correctOption(uint optionID) {\n        require(options[optionID].description != 0x0);\n        _;\n    }\n\n    modifier correctDuration(uint _duration) {\n        require(_duration >= minimalDuration || keccak256(votingType) == keccak256(\"Module\"));\n        _;\n    }\n}\n",
  "sourcePath": "/Users/kirill/projects/daox-contracts/contracts/Votings/Voting.sol",
  "compiler": {
    "name": "solc",
    "version": "0.4.21+commit.dfe3193c.Emscripten.clang"
  },
  "schemaVersion": "2.0.0",
  "updatedAt": "2018-04-15T16:16:21.767Z"
}