{
  "contractName": "VotingLib",
  "abi": [
    {
      "constant": false,
      "inputs": [
        {
          "name": "_v",
          "type": "address"
        },
        {
          "name": "_dao",
          "type": "address"
        },
        {
          "name": "_name",
          "type": "string"
        },
        {
          "name": "_description",
          "type": "string"
        },
        {
          "name": "_duration",
          "type": "uint256"
        },
        {
          "name": "_quorum",
          "type": "uint256"
        }
      ],
      "name": "delegatecallCreate",
      "outputs": [],
      "payable": false,
      "stateMutability": "nonpayable",
      "type": "function"
    },
    {
      "constant": false,
      "inputs": [
        {
          "name": "_v",
          "type": "address"
        },
        {
          "name": "optionID",
          "type": "uint256"
        }
      ],
      "name": "delegatecallAddVote",
      "outputs": [],
      "payable": false,
      "stateMutability": "nonpayable",
      "type": "function"
    },
    {
      "constant": false,
      "inputs": [
        {
          "name": "_v",
          "type": "address"
        }
      ],
      "name": "delegatecallFinish",
      "outputs": [],
      "payable": false,
      "stateMutability": "nonpayable",
      "type": "function"
    },
    {
      "constant": true,
      "inputs": [
        {
          "name": "_dao",
          "type": "address"
        },
        {
          "name": "_sum",
          "type": "uint256"
        },
        {
          "name": "_dxc",
          "type": "bool"
        }
      ],
      "name": "isValidWithdrawal",
      "outputs": [
        {
          "name": "",
          "type": "bool"
        }
      ],
      "payable": false,
      "stateMutability": "view",
      "type": "function"
    },
    {
      "constant": true,
      "inputs": [
        {
          "name": "_dao",
          "type": "address"
        },
        {
          "name": "_service",
          "type": "address"
        }
      ],
      "name": "serviceConnected",
      "outputs": [
        {
          "name": "",
          "type": "bool"
        }
      ],
      "payable": false,
      "stateMutability": "view",
      "type": "function"
    }
  ],
  "bytecode": "0x6107c7610030600b82828239805160001a6073146000811461002057610022565bfe5b5030600052607381538281f300730000000000000000000000000000000000000000301460806040526004361061006a5763ffffffff60e060020a600035041663120dce48811461006f5780631901910b146101275780634adcade4146101485780635b7f0df61461016c5780636244817a1461019a575b600080fd5b81801561007b57600080fd5b50604080516020600460443581810135601f8101849004840285018401909552848452610125948235600160a060020a039081169560248035909216953695946064949293019190819084018382808284375050604080516020601f89358b018035918201839004830284018301909452808352979a9998810197919650918201945092508291508401838280828437509497505084359550505060209092013591506101b69050565b005b81801561013357600080fd5b50610125600160a060020a0360043516610461565b81801561015457600080fd5b50610125600160a060020a03600435166024356104db565b610186600160a060020a0360043581169060243516610561565b604080519115158252519081900360200190f35b610186600160a060020a036004351660243560443515156105f1565b85600160a060020a031660405180807f63726561746528616464726573732c627974657333322c627974657333322c7581526020017f696e743235362c75696e74323536290000000000000000000000000000000000815250602f019050604051809103902060e060020a90048673__Common________________________________63cfb51928886040518263ffffffff1660e060020a0281526004018080602001828103825283818151815260200191508051906020019080838360005b8381101561028e578181015183820152602001610276565b50505050905090810190601f1680156102bb5780820380516001836020036101000a031916815260200191505b509250505060206040518083038186803b1580156102d857600080fd5b505af41580156102ec573d6000803e3d6000fd5b505050506040513d602081101561030257600080fd5b50516040517fcfb5192800000000000000000000000000000000000000000000000000000000815260206004820181815289516024840152895173__Common________________________________9363cfb51928938c939283926044019185019080838360005b8381101561038257818101518382015260200161036a565b50505050905090810190601f1680156103af5780820380516001836020036101000a031916815260200191505b509250505060206040518083038186803b1580156103cc57600080fd5b505af41580156103e0573d6000803e3d6000fd5b505050506040513d60208110156103f657600080fd5b50516040805160e060020a63ffffffff8716028152600160a060020a0390941660048501526024840192909252604483015260648201869052608482018590525160a48083019260009291908290030181865af492505050151561045957600080fd5b505050505050565b80600160a060020a031660405180807f66696e69736828290000000000000000000000000000000000000000000000008152506008019050604051809103902060e060020a90046040518163ffffffff1660e060020a028152600401600060405180830381865af49250505015156104d857600080fd5b50565b81600160a060020a031660405180807f616464566f74652875696e7432353629000000000000000000000000000000008152506010019050604051809103902060e060020a9004826040518263ffffffff1660e060020a02815260040180828152602001915050600060405180830381865af492505050151561055d57600080fd5b5050565b600082600160a060020a0316636d966d01836040518263ffffffff1660e060020a0281526004018082600160a060020a0316600160a060020a03168152602001915050602060405180830381600087803b1580156105be57600080fd5b505af11580156105d2573d6000803e3d6000fd5b505050506040513d60208110156105e857600080fd5b50519392505050565b60008115610784578284600160a060020a031663601e538b6040518163ffffffff1660e060020a028152600401602060405180830381600087803b15801561063857600080fd5b505af115801561064c573d6000803e3d6000fd5b505050506040513d602081101561066257600080fd5b5051604080517f908368220000000000000000000000000000000000000000000000000000000081529051600160a060020a0388169163908368229160048083019260209291908290030181600087803b1580156106bf57600080fd5b505af11580156106d3573d6000803e3d6000fd5b505050506040513d60208110156106e957600080fd5b5051604080517f70a08231000000000000000000000000000000000000000000000000000000008152600160a060020a038981166004830152915191909216916370a082319160248083019260209291908290030181600087803b15801561075057600080fd5b505af1158015610764573d6000803e3d6000fd5b505050506040513d602081101561077a57600080fd5b5051031015610793565b8284600160a060020a03163110155b9493505050505600a165627a7a72305820ee7670125fbaf36123d340acc47045d31c4a51ffa7608a6c84b02391ffc695450029",
  "source": "pragma solidity 0.4.24;\n\nimport \"../DAO/ICrowdsaleDAO.sol\";\nimport \"../DAO/API/IService.sol\";\nimport \"../Common.sol\";\n\nlibrary VotingLib {\n    struct Option {\n        uint votes;\n        bytes32 description;\n    }\n\n    function delegatecallCreate(address _v, address _dao, string _name, string _description, uint _duration, uint _quorum) {\n        require(_v.delegatecall(bytes4(keccak256(\"create(address,bytes32,bytes32,uint256,uint256)\")),\n            _dao,\n            Common.stringToBytes32(_name),\n            Common.stringToBytes32(_description),\n            _duration,\n            _quorum)\n        );\n    }\n\n    function delegatecallAddVote(address _v, uint optionID) {\n        require(_v.delegatecall(bytes4(keccak256(\"addVote(uint256)\")), optionID));\n    }\n\n    function delegatecallFinish(address _v) {\n        require(_v.delegatecall(bytes4(keccak256(\"finish()\"))));\n    }\n\n    function isValidWithdrawal(address _dao, uint _sum, bool _dxc) constant returns(bool) {\n        return !_dxc ? _dao.balance >= _sum  : (ICrowdsaleDAO(_dao).DXC().balanceOf(_dao) - ICrowdsaleDAO(_dao).initialCapital()) >= _sum;\n    }\n\n    function checkServicePrice(string action, address _dao, address _service) internal {\n        uint price = keccak256(action) == keccak256(\"call\") ? IService(_service).priceToCall() : IService(_service).priceToConnect();\n        require(price <= ICrowdsaleDAO(_dao).initialCapital(), \"Not enough DXC in initial capital to connect this service\");\n    }\n\n    function serviceConnected(address _dao, address _service) view returns(bool) {\n        return ICrowdsaleDAO(_dao).services(_service);\n    }\n}",
  "sourcePath": "/Users/giddeonwyeth/PhpstormProjects/dao/daox-contracts/contracts/Votings/VotingLib.sol",
  "compiler": {
    "name": "solc",
    "version": "0.4.24+commit.e67f0147.Emscripten.clang"
  },
  "schemaVersion": "2.0.1",
  "updatedAt": "2018-07-19T15:51:04.706Z"
}