{
  "contractName": "Voting",
  "abi": [
    {
      "constant": true,
      "inputs": [],
      "name": "name",
      "outputs": [
        {
          "name": "",
          "type": "string"
        }
      ],
      "payable": false,
      "stateMutability": "view",
      "type": "function"
    },
    {
      "constant": true,
      "inputs": [],
      "name": "duration",
      "outputs": [
        {
          "name": "",
          "type": "uint256"
        }
      ],
      "payable": false,
      "stateMutability": "view",
      "type": "function"
    },
    {
      "constant": true,
      "inputs": [],
      "name": "quorum",
      "outputs": [
        {
          "name": "",
          "type": "uint256"
        }
      ],
      "payable": false,
      "stateMutability": "view",
      "type": "function"
    },
    {
      "constant": true,
      "inputs": [],
      "name": "minimalDuration",
      "outputs": [
        {
          "name": "",
          "type": "uint256"
        }
      ],
      "payable": false,
      "stateMutability": "view",
      "type": "function"
    },
    {
      "constant": true,
      "inputs": [
        {
          "name": "",
          "type": "uint256"
        }
      ],
      "name": "options",
      "outputs": [
        {
          "name": "votes",
          "type": "uint256"
        },
        {
          "name": "description",
          "type": "bytes32"
        }
      ],
      "payable": false,
      "stateMutability": "view",
      "type": "function"
    },
    {
      "constant": true,
      "inputs": [],
      "name": "result",
      "outputs": [
        {
          "name": "votes",
          "type": "uint256"
        },
        {
          "name": "description",
          "type": "bytes32"
        }
      ],
      "payable": false,
      "stateMutability": "view",
      "type": "function"
    },
    {
      "constant": true,
      "inputs": [],
      "name": "description",
      "outputs": [
        {
          "name": "",
          "type": "string"
        }
      ],
      "payable": false,
      "stateMutability": "view",
      "type": "function"
    },
    {
      "constant": true,
      "inputs": [],
      "name": "votesCount",
      "outputs": [
        {
          "name": "",
          "type": "uint256"
        }
      ],
      "payable": false,
      "stateMutability": "view",
      "type": "function"
    },
    {
      "constant": true,
      "inputs": [],
      "name": "created_at",
      "outputs": [
        {
          "name": "",
          "type": "uint256"
        }
      ],
      "payable": false,
      "stateMutability": "view",
      "type": "function"
    },
    {
      "constant": true,
      "inputs": [],
      "name": "votingType",
      "outputs": [
        {
          "name": "",
          "type": "string"
        }
      ],
      "payable": false,
      "stateMutability": "view",
      "type": "function"
    },
    {
      "constant": true,
      "inputs": [
        {
          "name": "",
          "type": "address"
        }
      ],
      "name": "voted",
      "outputs": [
        {
          "name": "",
          "type": "uint256"
        }
      ],
      "payable": false,
      "stateMutability": "view",
      "type": "function"
    },
    {
      "constant": true,
      "inputs": [],
      "name": "finished",
      "outputs": [
        {
          "name": "",
          "type": "bool"
        }
      ],
      "payable": false,
      "stateMutability": "view",
      "type": "function"
    },
    {
      "constant": false,
      "inputs": [
        {
          "name": "_dao",
          "type": "address"
        },
        {
          "name": "_name",
          "type": "bytes32"
        },
        {
          "name": "_description",
          "type": "bytes32"
        },
        {
          "name": "_duration",
          "type": "uint256"
        },
        {
          "name": "_quorum",
          "type": "uint256"
        }
      ],
      "name": "create",
      "outputs": [],
      "payable": false,
      "stateMutability": "nonpayable",
      "type": "function"
    },
    {
      "constant": false,
      "inputs": [
        {
          "name": "_optionID",
          "type": "uint256"
        }
      ],
      "name": "addVote",
      "outputs": [],
      "payable": false,
      "stateMutability": "nonpayable",
      "type": "function"
    },
    {
      "constant": false,
      "inputs": [],
      "name": "finish",
      "outputs": [],
      "payable": false,
      "stateMutability": "nonpayable",
      "type": "function"
    }
  ],
  "bytecode": "0x608060405242601e55601f805460ff1916905562093a8060225534801561002557600080fd5b506111d6806100356000396000f3006080604052600436106100c15763ffffffff60e060020a6000350416630383badc81146100c657806306fdde03146100e05780630fb5a6b41461016a5780631703a018146101915780632f572336146101a657806336e1c4f8146101bb578063409e2205146101e857806365372147146102195780637284e4161461022e5780638778b27d146102435780639c6f0d8514610258578063a9aa6a9b1461026d578063aec2ccae14610282578063bef4876b146102a3578063d56b2889146102cc575b600080fd5b3480156100d257600080fd5b506100de6004356102e1565b005b3480156100ec57600080fd5b506100f561064a565b6040805160208082528351818301528351919283929083019185019080838360005b8381101561012f578181015183820152602001610117565b50505050905090810190601f16801561015c5780820380516001836020036101000a031916815260200191505b509250505060405180910390f35b34801561017657600080fd5b5061017f6106d7565b60408051918252519081900360200190f35b34801561019d57600080fd5b5061017f6106dd565b3480156101b257600080fd5b5061017f6106e3565b3480156101c757600080fd5b506100de600160a060020a03600435166024356044356064356084356106e9565b3480156101f457600080fd5b5061020060043561098d565b6040805192835260208301919091528051918290030190f35b34801561022557600080fd5b506102006109ac565b34801561023a57600080fd5b506100f56109b5565b34801561024f57600080fd5b5061017f610a0d565b34801561026457600080fd5b5061017f610a13565b34801561027957600080fd5b506100f5610a19565b34801561028e57600080fd5b5061017f600160a060020a0360043516610a74565b3480156102af57600080fd5b506102b8610a86565b604080519115158252519081900360200190f35b3480156102d857600080fd5b506100de610a8f565b601f5460009060ff16156102f457600080fd5b60008054604080517f10be8d120000000000000000000000000000000000000000000000000000000081523360048201529051600160a060020a03909216926310be8d12926024808401936020939083900390910190829087803b15801561035b57600080fd5b505af115801561036f573d6000803e3d6000fd5b505050506040513d602081101561038557600080fd5b5051158015610423575060008054604080517f929066f50000000000000000000000000000000000000000000000000000000081523360048201529051600160a060020a039092169263929066f5926024808401936020939083900390910190829087803b1580156103f657600080fd5b505af115801561040a573d6000803e3d6000fd5b505050506040513d602081101561042057600080fd5b50515b801561043c575033600090815260196020526040902054155b151561044757600080fd5b81600381600b811061045557fe5b6002020160010154151561046857600080fd5b601e54601d5442031061047a57600080fd5b6000809054906101000a9004600160a060020a0316600160a060020a031663fc0c546a6040518163ffffffff1660e060020a028152600401602060405180830381600087803b1580156104cc57600080fd5b505af11580156104e0573d6000803e3d6000fd5b505050506040513d60208110156104f657600080fd5b5051604080517f70a082310000000000000000000000000000000000000000000000000000000081523360048201529051600160a060020a03909216916370a08231916024808201926020929091908290030181600087803b15801561055b57600080fd5b505af115801561056f573d6000803e3d6000fd5b505050506040513d602081101561058557600080fd5b5051915081600384600b811061059757fe5b600202018054909101905533600081815260196020526040808220869055601c8054860190558154601e54601d5483517f1a15b20600000000000000000000000000000000000000000000000000000000815260048101969096524291010360248501529051600160a060020a039190911692631a15b20692604480830193919282900301818387803b15801561062d57600080fd5b505af1158015610641573d6000803e3d6000fd5b50505050505050565b60018054604080516020600284861615610100026000190190941693909304601f810184900484028201840190925281815292918301828280156106cf5780601f106106a4576101008083540402835291602001916106cf565b820191906000526020600020905b8154815290600101906020018083116106b257829003601f168201915b505050505081565b601d5481565b60205481565b60225481565b8480600160a060020a031663ece84fd56040518163ffffffff1660e060020a028152600401602060405180830381600087803b15801561072857600080fd5b505af115801561073c573d6000803e3d6000fd5b505050506040513d602081101561075257600080fd5b5051801561084f575080600160a060020a031663906a26e06040518163ffffffff1660e060020a028152600401602060405180830381600087803b15801561079957600080fd5b505af11580156107ad573d6000803e3d6000fd5b505050506040513d60208110156107c357600080fd5b5051604080517f6681b9fd0000000000000000000000000000000000000000000000000000000081529051600160a060020a03841691636681b9fd9160048083019260209291908290030181600087803b15801561082057600080fd5b505af1158015610834573d6000803e3d6000fd5b505050506040513d602081101561084a57600080fd5b505110155b151561085a57600080fd5b826022548110158061090e5750604080517f4d6f64756c650000000000000000000000000000000000000000000000000000815290519081900360060181206021805491929091819083906002610100600183161502600019019091160480156108fb5780601f106108d95761010080835404028352918201916108fb565b820191906000526020600020905b8154815290600101906020018083116108e7575b5050915050604051809103902060001916145b151561091957600080fd5b6000805473ffffffffffffffffffffffffffffffffffffffff1916600160a060020a03891617905561094a86610e8b565b805161095e916001916020909101906110f8565b5061096885610e8b565b805161097c916002916020909101906110f8565b505050601d91909155602055505050565b600381600b811061099a57fe5b60020201805460019091015490915082565b601a54601b5482565b6002805460408051602060018416156101000260001901909316849004601f810184900484028201840190925281815292918301828280156106cf5780601f106106a4576101008083540402835291602001916106cf565b601c5481565b601e5481565b6021805460408051602060026001851615610100026000190190941693909304601f810184900484028201840190925281815292918301828280156106cf5780601f106106a4576101008083540402835291602001916106cf565b60196020526000908152604090205481565b601f5460ff1681565b601f5460ff1615610a9f57600080fd5b601e54601d5442031015610ab257600080fd5b601f805460ff19166001908117909155604080517f5769746864726177616c000000000000000000000000000000000000000000008152905190819003600a01812060218054919390929182918491600291811615610100026000190116048015610b545780601f10610b32576101008083540402835291820191610b54565b820191906000526020600020905b815481529060010190602001808311610b40575b50509150506040518091039020600019161415610b7857610b73611021565b610e89565b604080517f526567756c61720000000000000000000000000000000000000000000000000081529051908190036007018120602180549192909181908390600261010060018316150260001901909116048015610c0c5780601f10610bea576101008083540402835291820191610c0c565b820191906000526020600020905b815481529060010190602001808311610bf8575b50509150506040518091039020600019161415610c2b57610b73611036565b60205473__Common________________________________622c1a9e6003600160020201600001546000809054906101000a9004600160a060020a0316600160a060020a031663a88f893a6040518163ffffffff1660e060020a028152600401602060405180830381600087803b158015610ca557600080fd5b505af1158015610cb9573d6000803e3d6000fd5b505050506040513d6020811015610ccf57600080fd5b505160008054604080517ffc0c546a0000000000000000000000000000000000000000000000000000000081529051600160a060020a039092169263fc0c546a926004808401936020939083900390910190829087803b158015610d3257600080fd5b505af1158015610d46573d6000803e3d6000fd5b505050506040513d6020811015610d5c57600080fd5b5051604080517f18160ddd0000000000000000000000000000000000000000000000000000000081529051600160a060020a03909216916318160ddd916004808201926020929091908290030181600087803b158015610dbb57600080fd5b505af1158015610dcf573d6000803e3d6000fd5b505050506040513d6020811015610de557600080fd5b50516040805160e060020a63ffffffff87160281526004810194909452919003602483015260026044830152516064808301926020929190829003018186803b158015610e3157600080fd5b505af4158015610e45573d6000803e3d6000fd5b505050506040513d6020811015610e5b57600080fd5b505110610e7c57600360015b600202018054601a5560010154601b55610e89565b600754601a55600854601b555b565b6040805160208082528183019092526060918291600091829184918082016104008038833901905050935060009250600091505b6020821015610f7057858260208110610ed457fe5b1a60f860020a028483815181101515610ee957fe5b9060200101907effffffffffffffffffffffffffffffffffffffffffffffffffffffffffffff1916908160001a9053508382815181101515610f2757fe5b60209101015160f860020a90819004027fff000000000000000000000000000000000000000000000000000000000000001615610f65576001830192505b600190910190610ebf565b826040519080825280601f01601f191660200182016040528015610f9e578160200160208202803883390190505b509050600091505b82821015611018578382815181101515610fbc57fe5b90602001015160f860020a900460f860020a028183815181101515610fdd57fe5b9060200101907effffffffffffffffffffffffffffffffffffffffffffffffffffffffffffff1916908160001a905350600190910190610fa6565b95945050505050565b6007546005541115610e7c5760036001610e67565b61103e611176565b506040805180820190915260055481526006546020820152600060025b600b8110156110de57600381600b811061107157fe5b60020201548351141561108757600191506110d6565b600381600b811061109457fe5b6002020154835110156110d657600381600b81106110ae57fe5b6040805180820190915260029190910291909101805482526001015460208201529250600091505b60010161105b565b8115156110f3578251601a556020830151601b555b505050565b828054600181600116156101000203166002900490600052602060002090601f016020900481019282601f1061113957805160ff1916838001178555611166565b82800160010185558215611166579182015b8281111561116657825182559160200191906001019061114b565b5061117292915061118d565b5090565b604080518082019091526000808252602082015290565b6111a791905b808211156111725760008155600101611193565b905600a165627a7a72305820d0b6899d5afe09857a5d40164c540498b6550204dde177f38d714f39d606806b0029",
  "source": "pragma solidity ^0.4.11;\n\nimport \"./VotingLib.sol\";\nimport \"./VotingFields.sol\";\nimport \"../Common.sol\";\nimport \"../DAO/ICrowdsaleDAO.sol\";\n\ncontract Voting is VotingFields {\n\n    /*\n    * @dev Initiate storage variables for caller contract via `delegatecall`\n    * @param _dao Address of dao where voting is creating\n    * @param _name Voting name\n    * @param _description Voting description\n    * @param _duration Voting duration\n    * @param _quorum Minimal percentage of token holders who must to take part in voting\n    */\n    function create(address _dao, bytes32 _name, bytes32 _description, uint _duration, uint _quorum)\n    succeededCrowdsale(ICrowdsaleDAO(_dao))\n    correctDuration(_duration)\n    external\n    {\n        dao = ICrowdsaleDAO(_dao);\n        name = Common.toString(_name);\n        description = Common.toString(_description);\n        duration = _duration;\n        quorum = _quorum;\n    }\n\n    /*\n    * @dev Add vote with passed optionID for the caller voting via `delegatecall`\n    * @param _optionID ID of option\n    */\n    function addVote(uint _optionID) external notFinished canVote correctOption(_optionID) {\n        require(block.timestamp - duration < created_at);\n        uint tokensAmount = dao.token().balanceOf(msg.sender);\n        options[_optionID].votes += tokensAmount;\n        voted[msg.sender] = _optionID;\n        votesCount += tokensAmount;\n\n        dao.holdTokens(msg.sender, (duration + created_at) - now);\n    }\n\n    /*\n    * @dev Finish voting for the caller voting contract via `delegatecall`\n    * @param _optionID ID of option\n    */\n    function finish() external notFinished {\n        require(block.timestamp - duration >= created_at);\n        finished = true;\n\n\n        if (keccak256(votingType) == keccak256(\"Withdrawal\")) return finishNotRegular();\n        if (keccak256(votingType) == keccak256(\"Regular\")) return finishRegular();\n\n        //Other two cases of votings (`Module` and `Refund`) requires quorum\n        if (Common.percent(options[1].votes, dao.token().totalSupply() - dao.teamTokensAmount(), 2) >= quorum) {\n            result = options[1];\n            return;\n        }\n\n        result = options[2];\n    }\n\n    /*\n    * @dev Finish regular voting. Calls from `finish` function\n    */\n    function finishRegular() private {\n        VotingLib.Option memory _result = options[1];\n        bool equal = false;\n        for (uint i = 2; i < options.length; i++) {\n            if (_result.votes == options[i].votes) equal = true;\n            else if (_result.votes < options[i].votes) {\n                _result = options[i];\n                equal = false;\n            }\n        }\n        if (!equal) result = _result;\n    }\n\n    /*\n    * @dev Finish non-regular voting. Calls from `finish` function\n    */\n    function finishNotRegular() private {\n        if (options[1].votes > options[2].votes) result = options[1];\n        else result = options[2];\n    }\n\n    /*\n    * @dev Throws if caller is team member, not participant or has voted already\n    */\n    modifier canVote() {\n        require(!dao.teamMap(msg.sender) && dao.isParticipant(msg.sender) && voted[msg.sender] == 0);\n        _;\n    }\n\n    /*\n    * @dev Throws if voting is finished already\n    */\n    modifier notFinished() {\n        require(!finished);\n        _;\n    }\n\n    /*\n    * @dev Throws if crowdsale is not finished or if soft cap is not achieved\n    */\n    modifier succeededCrowdsale(ICrowdsaleDAO dao) {\n        require(dao.crowdsaleFinished() && dao.fundsRaised() >= dao.softCap());\n        _;\n    }\n\n    /*\n    * @dev Throws if description of provided option ID is empty\n    */\n    modifier correctOption(uint optionID) {\n        require(options[optionID].description != 0x0);\n        _;\n    }\n\n    /*\n    * @dev Throws if passed voting duration is not greater than minimal\n    */\n    modifier correctDuration(uint _duration) {\n        require(_duration >= minimalDuration || keccak256(votingType) == keccak256(\"Module\"));\n        _;\n    }\n}\n",
  "sourcePath": "/Users/giddeonwyeth/PhpstormProjects/dao/daox-contracts/contracts/Votings/Voting.sol",
  "compiler": {
    "name": "solc",
    "version": "0.4.24+commit.e67f0147.Emscripten.clang"
  },
  "schemaVersion": "2.0.1",
  "updatedAt": "2018-07-18T15:32:46.190Z"
}