{
  "contractName": "VotingDecisions",
  "abi": [
    {
      "constant": true,
      "inputs": [],
      "name": "lockup",
      "outputs": [
        {
          "name": "",
          "type": "uint256"
        }
      ],
      "payable": false,
      "stateMutability": "view",
      "type": "function"
    },
    {
      "constant": true,
      "inputs": [],
      "name": "name",
      "outputs": [
        {
          "name": "",
          "type": "string"
        }
      ],
      "payable": false,
      "stateMutability": "view",
      "type": "function"
    },
    {
      "constant": true,
      "inputs": [],
      "name": "tokensMintedByEther",
      "outputs": [
        {
          "name": "",
          "type": "uint256"
        }
      ],
      "payable": false,
      "stateMutability": "view",
      "type": "function"
    },
    {
      "constant": true,
      "inputs": [
        {
          "name": "",
          "type": "address"
        }
      ],
      "name": "teamMap",
      "outputs": [
        {
          "name": "",
          "type": "bool"
        }
      ],
      "payable": false,
      "stateMutability": "view",
      "type": "function"
    },
    {
      "constant": true,
      "inputs": [
        {
          "name": "",
          "type": "address"
        }
      ],
      "name": "depositedWei",
      "outputs": [
        {
          "name": "",
          "type": "uint256"
        }
      ],
      "payable": false,
      "stateMutability": "view",
      "type": "function"
    },
    {
      "constant": true,
      "inputs": [
        {
          "name": "",
          "type": "uint256"
        }
      ],
      "name": "team",
      "outputs": [
        {
          "name": "",
          "type": "address"
        }
      ],
      "payable": false,
      "stateMutability": "view",
      "type": "function"
    },
    {
      "constant": true,
      "inputs": [],
      "name": "commissionRaised",
      "outputs": [
        {
          "name": "",
          "type": "uint256"
        }
      ],
      "payable": false,
      "stateMutability": "view",
      "type": "function"
    },
    {
      "constant": true,
      "inputs": [],
      "name": "refundableSoftCap",
      "outputs": [
        {
          "name": "",
          "type": "bool"
        }
      ],
      "payable": false,
      "stateMutability": "view",
      "type": "function"
    },
    {
      "constant": true,
      "inputs": [],
      "name": "votingPrice",
      "outputs": [
        {
          "name": "",
          "type": "uint256"
        }
      ],
      "payable": false,
      "stateMutability": "view",
      "type": "function"
    },
    {
      "constant": true,
      "inputs": [
        {
          "name": "",
          "type": "uint256"
        }
      ],
      "name": "teamBonusesArr",
      "outputs": [
        {
          "name": "",
          "type": "uint256"
        }
      ],
      "payable": false,
      "stateMutability": "view",
      "type": "function"
    },
    {
      "constant": true,
      "inputs": [
        {
          "name": "",
          "type": "uint256"
        }
      ],
      "name": "teamServiceMember",
      "outputs": [
        {
          "name": "",
          "type": "bool"
        }
      ],
      "payable": false,
      "stateMutability": "view",
      "type": "function"
    },
    {
      "constant": true,
      "inputs": [],
      "name": "endTime",
      "outputs": [
        {
          "name": "",
          "type": "uint256"
        }
      ],
      "payable": false,
      "stateMutability": "view",
      "type": "function"
    },
    {
      "constant": true,
      "inputs": [],
      "name": "serviceContract",
      "outputs": [
        {
          "name": "",
          "type": "address"
        }
      ],
      "payable": false,
      "stateMutability": "view",
      "type": "function"
    },
    {
      "constant": true,
      "inputs": [
        {
          "name": "",
          "type": "address"
        }
      ],
      "name": "votings",
      "outputs": [
        {
          "name": "",
          "type": "address"
        }
      ],
      "payable": false,
      "stateMutability": "view",
      "type": "function"
    },
    {
      "constant": true,
      "inputs": [
        {
          "name": "",
          "type": "address"
        }
      ],
      "name": "whiteList",
      "outputs": [
        {
          "name": "",
          "type": "bool"
        }
      ],
      "payable": false,
      "stateMutability": "view",
      "type": "function"
    },
    {
      "constant": true,
      "inputs": [],
      "name": "canInitStateParameters",
      "outputs": [
        {
          "name": "",
          "type": "bool"
        }
      ],
      "payable": false,
      "stateMutability": "view",
      "type": "function"
    },
    {
      "constant": true,
      "inputs": [
        {
          "name": "",
          "type": "uint256"
        }
      ],
      "name": "whiteListArr",
      "outputs": [
        {
          "name": "",
          "type": "address"
        }
      ],
      "payable": false,
      "stateMutability": "view",
      "type": "function"
    },
    {
      "constant": true,
      "inputs": [],
      "name": "weiRaised",
      "outputs": [
        {
          "name": "",
          "type": "uint256"
        }
      ],
      "payable": false,
      "stateMutability": "view",
      "type": "function"
    },
    {
      "constant": true,
      "inputs": [],
      "name": "DXCRaised",
      "outputs": [
        {
          "name": "",
          "type": "uint256"
        }
      ],
      "payable": false,
      "stateMutability": "view",
      "type": "function"
    },
    {
      "constant": true,
      "inputs": [],
      "name": "version",
      "outputs": [
        {
          "name": "",
          "type": "bytes32"
        }
      ],
      "payable": false,
      "stateMutability": "view",
      "type": "function"
    },
    {
      "constant": true,
      "inputs": [
        {
          "name": "",
          "type": "uint256"
        }
      ],
      "name": "bonusDXCRates",
      "outputs": [
        {
          "name": "",
          "type": "uint256"
        }
      ],
      "payable": false,
      "stateMutability": "view",
      "type": "function"
    },
    {
      "constant": true,
      "inputs": [],
      "name": "canSetWhiteList",
      "outputs": [
        {
          "name": "",
          "type": "bool"
        }
      ],
      "payable": false,
      "stateMutability": "view",
      "type": "function"
    },
    {
      "constant": true,
      "inputs": [],
      "name": "initialCapital",
      "outputs": [
        {
          "name": "",
          "type": "uint256"
        }
      ],
      "payable": false,
      "stateMutability": "view",
      "type": "function"
    },
    {
      "constant": true,
      "inputs": [],
      "name": "serviceVotingFactory",
      "outputs": [
        {
          "name": "",
          "type": "address"
        }
      ],
      "payable": false,
      "stateMutability": "view",
      "type": "function"
    },
    {
      "constant": true,
      "inputs": [],
      "name": "tokensMintedByDXC",
      "outputs": [
        {
          "name": "",
          "type": "uint256"
        }
      ],
      "payable": false,
      "stateMutability": "view",
      "type": "function"
    },
    {
      "constant": true,
      "inputs": [],
      "name": "fundsRaised",
      "outputs": [
        {
          "name": "",
          "type": "uint256"
        }
      ],
      "payable": false,
      "stateMutability": "view",
      "type": "function"
    },
    {
      "constant": true,
      "inputs": [
        {
          "name": "",
          "type": "uint256"
        }
      ],
      "name": "teamHold",
      "outputs": [
        {
          "name": "",
          "type": "uint256"
        }
      ],
      "payable": false,
      "stateMutability": "view",
      "type": "function"
    },
    {
      "constant": true,
      "inputs": [
        {
          "name": "",
          "type": "address"
        }
      ],
      "name": "services",
      "outputs": [
        {
          "name": "",
          "type": "bool"
        }
      ],
      "payable": false,
      "stateMutability": "view",
      "type": "function"
    },
    {
      "constant": true,
      "inputs": [],
      "name": "description",
      "outputs": [
        {
          "name": "",
          "type": "string"
        }
      ],
      "payable": false,
      "stateMutability": "view",
      "type": "function"
    },
    {
      "constant": true,
      "inputs": [],
      "name": "startTime",
      "outputs": [
        {
          "name": "",
          "type": "uint256"
        }
      ],
      "payable": false,
      "stateMutability": "view",
      "type": "function"
    },
    {
      "constant": true,
      "inputs": [
        {
          "name": "",
          "type": "address"
        }
      ],
      "name": "depositedDXC",
      "outputs": [
        {
          "name": "",
          "type": "uint256"
        }
      ],
      "payable": false,
      "stateMutability": "view",
      "type": "function"
    },
    {
      "constant": true,
      "inputs": [],
      "name": "softCap",
      "outputs": [
        {
          "name": "",
          "type": "uint256"
        }
      ],
      "payable": false,
      "stateMutability": "view",
      "type": "function"
    },
    {
      "constant": true,
      "inputs": [],
      "name": "DXC",
      "outputs": [
        {
          "name": "",
          "type": "address"
        }
      ],
      "payable": false,
      "stateMutability": "view",
      "type": "function"
    },
    {
      "constant": true,
      "inputs": [],
      "name": "canInitCrowdsaleParameters",
      "outputs": [
        {
          "name": "",
          "type": "bool"
        }
      ],
      "payable": false,
      "stateMutability": "view",
      "type": "function"
    },
    {
      "constant": true,
      "inputs": [],
      "name": "created_at",
      "outputs": [
        {
          "name": "",
          "type": "uint256"
        }
      ],
      "payable": false,
      "stateMutability": "view",
      "type": "function"
    },
    {
      "constant": true,
      "inputs": [],
      "name": "DXCRate",
      "outputs": [
        {
          "name": "",
          "type": "uint256"
        }
      ],
      "payable": false,
      "stateMutability": "view",
      "type": "function"
    },
    {
      "constant": true,
      "inputs": [],
      "name": "lastWithdrawalTimestamp",
      "outputs": [
        {
          "name": "",
          "type": "uint256"
        }
      ],
      "payable": false,
      "stateMutability": "view",
      "type": "function"
    },
    {
      "constant": true,
      "inputs": [],
      "name": "teamTokensAmount",
      "outputs": [
        {
          "name": "",
          "type": "uint256"
        }
      ],
      "payable": false,
      "stateMutability": "view",
      "type": "function"
    },
    {
      "constant": true,
      "inputs": [],
      "name": "votingFactory",
      "outputs": [
        {
          "name": "",
          "type": "address"
        }
      ],
      "payable": false,
      "stateMutability": "view",
      "type": "function"
    },
    {
      "constant": true,
      "inputs": [],
      "name": "refundable",
      "outputs": [
        {
          "name": "",
          "type": "bool"
        }
      ],
      "payable": false,
      "stateMutability": "view",
      "type": "function"
    },
    {
      "constant": true,
      "inputs": [],
      "name": "canInitBonuses",
      "outputs": [
        {
          "name": "",
          "type": "bool"
        }
      ],
      "payable": false,
      "stateMutability": "view",
      "type": "function"
    },
    {
      "constant": true,
      "inputs": [],
      "name": "newDXCRate",
      "outputs": [
        {
          "name": "",
          "type": "uint256"
        }
      ],
      "payable": false,
      "stateMutability": "view",
      "type": "function"
    },
    {
      "constant": true,
      "inputs": [
        {
          "name": "",
          "type": "address"
        }
      ],
      "name": "initialCapitalIncr",
      "outputs": [
        {
          "name": "",
          "type": "uint256"
        }
      ],
      "payable": false,
      "stateMutability": "view",
      "type": "function"
    },
    {
      "constant": true,
      "inputs": [],
      "name": "etherRate",
      "outputs": [
        {
          "name": "",
          "type": "uint256"
        }
      ],
      "payable": false,
      "stateMutability": "view",
      "type": "function"
    },
    {
      "constant": true,
      "inputs": [
        {
          "name": "",
          "type": "uint256"
        }
      ],
      "name": "bonusEtherRates",
      "outputs": [
        {
          "name": "",
          "type": "uint256"
        }
      ],
      "payable": false,
      "stateMutability": "view",
      "type": "function"
    },
    {
      "constant": true,
      "inputs": [],
      "name": "commissionContract",
      "outputs": [
        {
          "name": "",
          "type": "address"
        }
      ],
      "payable": false,
      "stateMutability": "view",
      "type": "function"
    },
    {
      "constant": true,
      "inputs": [
        {
          "name": "",
          "type": "address"
        }
      ],
      "name": "teamBonuses",
      "outputs": [
        {
          "name": "",
          "type": "uint256"
        }
      ],
      "payable": false,
      "stateMutability": "view",
      "type": "function"
    },
    {
      "constant": true,
      "inputs": [],
      "name": "newEtherRate",
      "outputs": [
        {
          "name": "",
          "type": "uint256"
        }
      ],
      "payable": false,
      "stateMutability": "view",
      "type": "function"
    },
    {
      "constant": true,
      "inputs": [],
      "name": "proxyAPI",
      "outputs": [
        {
          "name": "",
          "type": "address"
        }
      ],
      "payable": false,
      "stateMutability": "view",
      "type": "function"
    },
    {
      "constant": true,
      "inputs": [],
      "name": "dxcPayments",
      "outputs": [
        {
          "name": "",
          "type": "bool"
        }
      ],
      "payable": false,
      "stateMutability": "view",
      "type": "function"
    },
    {
      "constant": true,
      "inputs": [
        {
          "name": "",
          "type": "uint256"
        }
      ],
      "name": "bonusPeriods",
      "outputs": [
        {
          "name": "",
          "type": "uint256"
        }
      ],
      "payable": false,
      "stateMutability": "view",
      "type": "function"
    },
    {
      "constant": true,
      "inputs": [],
      "name": "crowdsaleFinished",
      "outputs": [
        {
          "name": "",
          "type": "bool"
        }
      ],
      "payable": false,
      "stateMutability": "view",
      "type": "function"
    },
    {
      "constant": true,
      "inputs": [],
      "name": "hardCap",
      "outputs": [
        {
          "name": "",
          "type": "uint256"
        }
      ],
      "payable": false,
      "stateMutability": "view",
      "type": "function"
    },
    {
      "constant": true,
      "inputs": [],
      "name": "token",
      "outputs": [
        {
          "name": "",
          "type": "address"
        }
      ],
      "payable": false,
      "stateMutability": "view",
      "type": "function"
    },
    {
      "constant": false,
      "inputs": [
        {
          "name": "_address",
          "type": "address"
        },
        {
          "name": "_withdrawalSum",
          "type": "uint256"
        },
        {
          "name": "_dxc",
          "type": "bool"
        }
      ],
      "name": "withdrawal",
      "outputs": [],
      "payable": false,
      "stateMutability": "nonpayable",
      "type": "function"
    },
    {
      "constant": false,
      "inputs": [],
      "name": "makeRefundableByUser",
      "outputs": [],
      "payable": false,
      "stateMutability": "nonpayable",
      "type": "function"
    },
    {
      "constant": false,
      "inputs": [],
      "name": "makeRefundableByVotingDecision",
      "outputs": [],
      "payable": false,
      "stateMutability": "nonpayable",
      "type": "function"
    },
    {
      "constant": false,
      "inputs": [
        {
          "name": "_address",
          "type": "address"
        },
        {
          "name": "_duration",
          "type": "uint256"
        }
      ],
      "name": "holdTokens",
      "outputs": [],
      "payable": false,
      "stateMutability": "nonpayable",
      "type": "function"
    },
    {
      "constant": false,
      "inputs": [
        {
          "name": "_service",
          "type": "address"
        }
      ],
      "name": "connectService",
      "outputs": [],
      "payable": false,
      "stateMutability": "nonpayable",
      "type": "function"
    },
    {
      "constant": false,
      "inputs": [
        {
          "name": "_service",
          "type": "address"
        },
        {
          "name": "_method",
          "type": "bytes32"
        },
        {
          "name": "_args",
          "type": "bytes32[10]"
        }
      ],
      "name": "callService",
      "outputs": [],
      "payable": false,
      "stateMutability": "nonpayable",
      "type": "function"
    }
  ],
  "bytecode": "0x60806040526006805463ff0000001962ff00001961ff001960ff19938416600117811661010017919091166201000017919091166301000000179092556000600781905560088190556009819055600a819055600d8054909316909255600e829055600f82905542601c55601e80549091169055601f819055602b819055602c819055602d5534801561009157600080fd5b506117a1806100a16000396000f3006080604052600436106102b05763ffffffff60e060020a60003504166306490f4781146102b557806306fdde03146102dc5780630ce57c251461036657806310be8d121461037b57806312337993146103b0578063197ebd53146103d15780631a15b206146104055780631e782df51461042b578063289a03b0146104405780632948b4e9146104555780632eeacc5f1461046a57806330c5a0f2146104825780633197cbb61461049a578063364dab10146104af578063369ef722146104c4578063372c12b1146104e5578063395ad021146105065780633b541bdb1461051b5780634042b66f146105335780634f0653681461054857806354fd4d501461055d57806356428fe5146105725780635c602aee1461058a5780635f30b6451461059f578063601e538b146105b457806362a2b372146105c957806362c64639146105de5780636681b9fd146105f35780636922b214146106085780636d966d01146106205780637284e4161461064157806378e97925146106565780637d6d3b8c1461066b57806386114fcf1461068c578063906a26e0146106ad57806390836822146106c25780639b95a835146106d75780639c6f0d85146106ec5780639e58779e14610701578063a62c416914610716578063a88f893a1461072b578063bb24c54b14610740578063bf89662d14610755578063c0ef7a6d1461076a578063c18f18e81461077f578063c2bf7aef14610794578063cc9e4fd4146107bd578063d0f7a601146107de578063d411fffc146107f3578063da7801b314610819578063da8909e514610831578063db13c72514610846578063e2278f2f14610867578063e2a7937b1461087c578063e3bd043a14610891578063e9fdfb89146108a6578063ece84fd5146108be578063f00300a3146108d3578063fb86a404146108e8578063fc0c546a146108fd575b600080fd5b3480156102c157600080fd5b506102ca610912565b60408051918252519081900360200190f35b3480156102e857600080fd5b506102f1610918565b6040805160208082528351818301528351919283929083019185019080838360005b8381101561032b578181015183820152602001610313565b50505050905090810190601f1680156103585780820380516001836020036101000a031916815260200191505b509250505060405180910390f35b34801561037257600080fd5b506102ca6109a6565b34801561038757600080fd5b5061039c600160a060020a03600435166109ac565b604080519115158252519081900360200190f35b3480156103bc57600080fd5b506102ca600160a060020a03600435166109c1565b3480156103dd57600080fd5b506103e96004356109d3565b60408051600160a060020a039092168252519081900360200190f35b34801561041157600080fd5b50610429600160a060020a03600435166024356109fb565b005b34801561043757600080fd5b506102ca610aa9565b34801561044c57600080fd5b5061039c610aaf565b34801561046157600080fd5b506102ca610abd565b34801561047657600080fd5b506102ca600435610ac3565b34801561048e57600080fd5b5061039c600435610ae2565b3480156104a657600080fd5b506102ca610b14565b3480156104bb57600080fd5b506103e9610b1a565b3480156104d057600080fd5b506103e9600160a060020a0360043516610b29565b3480156104f157600080fd5b5061039c600160a060020a0360043516610b44565b34801561051257600080fd5b5061039c610b59565b34801561052757600080fd5b506103e9600435610b67565b34801561053f57600080fd5b506102ca610b75565b34801561055457600080fd5b506102ca610b7b565b34801561056957600080fd5b506102ca610b81565b34801561057e57600080fd5b506102ca600435610ba5565b34801561059657600080fd5b50610429610bb3565b3480156105ab57600080fd5b5061039c610bfd565b3480156105c057600080fd5b506102ca610c0d565b3480156105d557600080fd5b506103e9610c13565b3480156105ea57600080fd5b506102ca610c22565b3480156105ff57600080fd5b506102ca610c28565b34801561061457600080fd5b506102ca600435610c2e565b34801561062c57600080fd5b5061039c600160a060020a0360043516610c3c565b34801561064d57600080fd5b506102f1610c51565b34801561066257600080fd5b506102ca610cac565b34801561067757600080fd5b506102ca600160a060020a0360043516610cb2565b34801561069857600080fd5b50610429600160a060020a0360043516610cc4565b3480156106b957600080fd5b506102ca610f50565b3480156106ce57600080fd5b506103e9610f56565b3480156106e357600080fd5b5061039c610f65565b3480156106f857600080fd5b506102ca610f6e565b34801561070d57600080fd5b506102ca610f74565b34801561072257600080fd5b506102ca610f7a565b34801561073757600080fd5b506102ca610f80565b34801561074c57600080fd5b506103e9610f86565b34801561076157600080fd5b5061039c610f95565b34801561077657600080fd5b5061039c610f9e565b34801561078b57600080fd5b506102ca610fad565b3480156107a057600080fd5b50610429600160a060020a03600435166024356044351515610fb3565b3480156107c957600080fd5b506102ca600160a060020a03600435166110ce565b3480156107ea57600080fd5b506102ca6110e0565b3480156107ff57600080fd5b50610429600160a060020a036004351660243560446110e6565b34801561082557600080fd5b506102ca6004356113b8565b34801561083d57600080fd5b506103e96113c6565b34801561085257600080fd5b506102ca600160a060020a03600435166113d5565b34801561087357600080fd5b506102ca6113e7565b34801561088857600080fd5b506103e96113ed565b34801561089d57600080fd5b5061039c6113fc565b3480156108b257600080fd5b506102ca600435611405565b3480156108ca57600080fd5b5061039c611413565b3480156108df57600080fd5b5061042961141c565b3480156108f457600080fd5b506102ca611440565b34801561090957600080fd5b506103e9611446565b602b5481565b601a805460408051602060026001851615610100026000190190941693909304601f8101849004840282018401909252818152929183018282801561099e5780601f106109735761010080835404028352916020019161099e565b820191906000526020600020905b81548152906001019060200180831161098157829003601f168201915b505050505081565b60285481565b60136020526000908152604090205460ff1681565b600b6020526000908152604090205481565b60128054829081106109e157fe5b600091825260209091200154600160a060020a0316905081565b336000908152601d6020526040902054600160a060020a03161515610a1f57600080fd5b601654604080517f977a5ec5000000000000000000000000000000000000000000000000000000008152600160a060020a038581166004830152602482018590529151919092169163977a5ec591604480830192600092919082900301818387803b158015610a8d57600080fd5b505af1158015610aa1573d6000803e3d6000fd5b505050505050565b60075481565b600d54610100900460ff1681565b602d5481565b6011805482908110610ad157fe5b600091825260209091200154905081565b6015805482908110610af057fe5b9060005260206000209060209182820401919006915054906101000a900460ff1681565b60055481565b601054600160a060020a031681565b601d60205260009081526040902054600160a060020a031681565b60216020526000908152604090205460ff1681565b600654610100900460ff1681565b60208054829081106109e157fe5b60085481565b60095481565b7f312e302e3000000000000000000000000000000000000000000000000000000081565b6025805482908110610ad157fe5b601f54158015610bca57506276a700601c54014210155b80610be85750601f5415801590610be857506276a700601f54014210155b1515610bf357600080fd5b610bfb611455565b565b6006546301000000900460ff1681565b602c5481565b601854600160a060020a031681565b60295481565b600a5481565b6014805482908110610ad157fe5b60306020526000908152604090205460ff1681565b601b805460408051602060026001851615610100026000190190941693909304601f8101849004840282018401909252818152929183018282801561099e5780601f106109735761010080835404028352916020019161099e565b60045481565b600c6020526000908152604090205481565b336000908152601d6020526040902054600160a060020a03161515610ce857600080fd5b604080518082018252600781527f636f6e6e6563740000000000000000000000000000000000000000000000000060208201908152825160e260020a6318d85b1b02815292519283900360040183208251859460009385928291908083835b60208310610d665780518252601f199092019160209182019101610d47565b6001836020036101000a03801982511681845116808217855250505050505090500191505060405180910390206000191614610e0b5782600160a060020a031663921cac7e6040518163ffffffff1660e060020a028152600401602060405180830381600087803b158015610dda57600080fd5b505af1158015610dee573d6000803e3d6000fd5b505050506040513d6020811015610e0457600080fd5b5051610e76565b82600160a060020a03166344b198186040518163ffffffff1660e060020a028152600401602060405180830381600087803b158015610e4957600080fd5b505af1158015610e5d573d6000803e3d6000fd5b505050506040513d6020811015610e7357600080fd5b50515b602c54909150811115610eea57604080517f08c379a000000000000000000000000000000000000000000000000000000000815260206004820152601e60248201527f4e6f7420656e6f7567682066756e647320746f20757365206d6f64756c650000604482015290519081900360640190fd5b610f29846040805190810160405280600781526020017f636f6e6e65637400000000000000000000000000000000000000000000000000815250611574565b505050600160a060020a03166000908152603060205260409020805460ff19166001179055565b60025481565b602754600160a060020a031681565b60065460ff1681565b601c5481565b60015481565b601f5481565b60265481565b601754600160a060020a031681565b601e5460ff1681565b60065462010000900460ff1681565b600f5481565b601e5460ff16158015610fce5750600d54610100900460ff16155b1515610fd957600080fd5b336000908152601d6020526040902054600160a060020a03161515610ffd57600080fd5b42601f558061104257604051600160a060020a0384169083156108fc029084906000818181858888f1935050505015801561103c573d6000803e3d6000fd5b506110c9565b602754604080517fa9059cbb000000000000000000000000000000000000000000000000000000008152600160a060020a038681166004830152602482018690529151919092169163a9059cbb91604480830192600092919082900301818387803b1580156110b057600080fd5b505af11580156110c4573d6000803e3d6000fd5b505050505b505050565b602e6020526000908152604090205481565b60005481565b336000908152601d6020526040902054600160a060020a0316151561110a57600080fd5b604080518082018252600480825260e260020a6318d85b1b026020830181815284519182529351908190039091018120825187946000938592909182918083835b6020831061116a5780518252601f19909201916020918201910161114b565b6001836020036101000a0380198251168184511680821785525050505050509050019150506040518091039020600019161461120f5782600160a060020a031663921cac7e6040518163ffffffff1660e060020a028152600401602060405180830381600087803b1580156111de57600080fd5b505af11580156111f2573d6000803e3d6000fd5b505050506040513d602081101561120857600080fd5b505161127a565b82600160a060020a03166344b198186040518163ffffffff1660e060020a028152600401602060405180830381600087803b15801561124d57600080fd5b505af1158015611261573d6000803e3d6000fd5b505050506040513d602081101561127757600080fd5b50515b602c549091508111156112ee57604080517f08c379a000000000000000000000000000000000000000000000000000000000815260206004820152601e60248201527f4e6f7420656e6f7567682066756e647320746f20757365206d6f64756c650000604482015290519081900360640190fd5b6113178660408051908101604052806004815260200160e260020a6318d85b1b02815250611574565b602f546040517fd411fffc000000000000000000000000000000000000000000000000000000008152600160a060020a03888116600483019081526024830189905292169163d411fffc9189918991899190604401826101408082843782019150509350505050600060405180830381600087803b15801561139857600080fd5b505af11580156113ac573d6000803e3d6000fd5b50505050505050505050565b6024805482908110610ad157fe5b601954600160a060020a031681565b60226020526000908152604090205481565b600e5481565b602f54600160a060020a031681565b602a5460ff1681565b6023805482908110610ad157fe5b600d5460ff1681565b336000908152601d6020526040902054600160a060020a03161515610bf357600080fd5b60035481565b601654600160a060020a031681565b601e5460ff161580156114705750600d54610100900460ff16155b151561147b57600080fd5b601e805460ff1916600117905560285460005461149e90303102620186a061174a565b8115156114a757fe5b04600e5560295415156114bb57600061156f565b602954600154602c54602754604080517f70a082310000000000000000000000000000000000000000000000000000000081523060048201529051611564949392600160a060020a0316916370a082319160248083019260209291908290030181600087803b15801561152d57600080fd5b505af1158015611541573d6000803e3d6000fd5b505050506040513d602081101561155757600080fd5b50510302620186a061174a565b81151561156d57fe5b045b600f55565b6040805160e260020a6318d85b1b028152905190819003600401812082516000928491819060208401908083835b602083106115c15780518252601f1990920191602091820191016115a2565b6001836020036101000a038019825116818451168082178552505050505050905001915050604051809103902060001916146116665782600160a060020a031663921cac7e6040518163ffffffff1660e060020a028152600401602060405180830381600087803b15801561163557600080fd5b505af1158015611649573d6000803e3d6000fd5b505050506040513d602081101561165f57600080fd5b50516116d1565b82600160a060020a03166344b198186040518163ffffffff1660e060020a028152600401602060405180830381600087803b1580156116a457600080fd5b505af11580156116b8573d6000803e3d6000fd5b505050506040513d60208110156116ce57600080fd5b50515b602c80548290039055602754604080517f543e10b4000000000000000000000000000000000000000000000000000000008152600160a060020a03878116600483015260248201859052915193945091169163543e10b49160448082019260009290919082900301818387803b1580156110b057600080fd5b6000828202831580611766575082848281151561176357fe5b04145b151561176e57fe5b93925050505600a165627a7a72305820e642ef5f401243870e5af47765455386e5e4bb65a8e01caea12b5bf0d0fdfe500029",
  "source": "pragma solidity 0.4.24;\n\nimport '../../../node_modules/zeppelin-solidity/contracts/math/SafeMath.sol';\nimport \"../DAOLib.sol\";\nimport \"../../Token/TokenInterface.sol\";\nimport \"../CrowdsaleDAOFields.sol\";\nimport \"../API/IService.sol\";\n\ninterface IProxyAPI {\n    function callService(address _address, bytes32 method, bytes32[10] _bytes) external;\n}\n\ncontract VotingDecisions is CrowdsaleDAOFields {\n\n    /*\n    * @dev Transfers withdrawal sum in ether or DXC tokens to the whitelisted address. Calls from Withdrawal proposal\n    * @param _address Whitelisted address\n    * @param _withdrawalSum Amount of ether/DXC to be sent\n    * @param _dxc Should withdrawal be in DXC tokens\n    */\n    function withdrawal(address _address, uint _withdrawalSum, bool _dxc) external notInRefundableState onlyVoting {\n        lastWithdrawalTimestamp = block.timestamp;\n        _dxc ? DXC.transfer(_address, _withdrawalSum) : _address.transfer(_withdrawalSum);\n    }\n\n    /*\n    * @dev Change DAO's mode to `refundable`. Can be called by any tokenholder\n    */\n    function makeRefundableByUser() external {\n        require(lastWithdrawalTimestamp == 0 && block.timestamp >= created_at + withdrawalPeriod\n        || lastWithdrawalTimestamp != 0 && block.timestamp >= lastWithdrawalTimestamp + withdrawalPeriod);\n        makeRefundable();\n    }\n\n    /*\n    * @dev Change DAO's mode to `refundable`. Calls from Refund proposal\n    */\n    function makeRefundableByVotingDecision() external onlyVoting {\n        makeRefundable();\n    }\n\n    /*\n    * @dev Change DAO's mode to `refundable`. Calls from this contract `makeRefundableByUser` or `makeRefundableByVotingDecision` functions\n    */\n    function makeRefundable() private notInRefundableState {\n        refundable = true;\n        newEtherRate = SafeMath.mul(this.balance * etherRate, multiplier) / tokensMintedByEther;\n        newDXCRate = tokensMintedByDXC != 0 ? SafeMath.mul((DXC.balanceOf(this) - initialCapital) * DXCRate, multiplier) / tokensMintedByDXC : 0;\n    }\n\n    /*\n    * @dev Make tokens of passed address non-transferable for passed period\n    * @param _address Address of tokenholder\n    * @param _duration Hold's duration in seconds\n    */\n    function holdTokens(address _address, uint _duration) external onlyVoting {\n        token.hold(_address, _duration);\n    }\n\n    function connectService(address _service) external onlyVoting validInitialCapital(_service, \"connect\") {\n        payForService(_service, \"connect\");\n        services[_service] = true;\n    }\n\n    function callService(address _service, bytes32 _method, bytes32[10] _args) external onlyVoting validInitialCapital(_service, \"call\") {\n        payForService(_service, \"call\");\n        IProxyAPI(proxyAPI).callService(_service, _method, _args);\n    }\n\n    function payForService(address _service, string action) private {\n        uint price = keccak256(action) == keccak256(\"call\") ? IService(_service).priceToCall() : IService(_service).priceToConnect();\n        initialCapital -= price;\n        DXC.contributeTo(_service, price);\n    }\n\n    /*\n    * @dev Throws if called not by any voting contract\n    */\n    modifier onlyVoting() {\n        require(votings[msg.sender] != 0x0);\n        _;\n    }\n\n    /*\n    * @dev Throws if DAO is in refundable state\n    */\n    modifier notInRefundableState {\n        require(!refundable && !refundableSoftCap);\n        _;\n    }\n\n    modifier validInitialCapital(address _service, string action) {\n        uint price = keccak256(action) == keccak256(\"call\") ? IService(_service).priceToCall() : IService(_service).priceToConnect();\n        require(price <= initialCapital, \"Not enough funds to use module\");\n        _;\n    }\n}\n",
  "sourcePath": "/Users/giddeonwyeth/PhpstormProjects/dao/daox-contracts/contracts/DAO/Modules/VotingDecisions.sol",
  "compiler": {
    "name": "solc",
    "version": "0.4.24+commit.e67f0147.Emscripten.clang"
  },
  "schemaVersion": "2.0.1",
  "updatedAt": "2018-07-11T16:06:33.305Z"
}