{
  "contractName": "VotingDecisions",
  "abi": [
    {
      "constant": true,
      "inputs": [],
      "name": "lockup",
      "outputs": [
        {
          "name": "",
          "type": "uint256"
        }
      ],
      "payable": false,
      "stateMutability": "view",
      "type": "function"
    },
    {
      "constant": true,
      "inputs": [],
      "name": "name",
      "outputs": [
        {
          "name": "",
          "type": "string"
        }
      ],
      "payable": false,
      "stateMutability": "view",
      "type": "function"
    },
    {
      "constant": true,
      "inputs": [],
      "name": "tokensMintedByEther",
      "outputs": [
        {
          "name": "",
          "type": "uint256"
        }
      ],
      "payable": false,
      "stateMutability": "view",
      "type": "function"
    },
    {
      "constant": true,
      "inputs": [
        {
          "name": "",
          "type": "address"
        }
      ],
      "name": "teamMap",
      "outputs": [
        {
          "name": "",
          "type": "bool"
        }
      ],
      "payable": false,
      "stateMutability": "view",
      "type": "function"
    },
    {
      "constant": true,
      "inputs": [
        {
          "name": "",
          "type": "address"
        }
      ],
      "name": "depositedWei",
      "outputs": [
        {
          "name": "",
          "type": "uint256"
        }
      ],
      "payable": false,
      "stateMutability": "view",
      "type": "function"
    },
    {
      "constant": true,
      "inputs": [
        {
          "name": "",
          "type": "uint256"
        }
      ],
      "name": "team",
      "outputs": [
        {
          "name": "",
          "type": "address"
        }
      ],
      "payable": false,
      "stateMutability": "view",
      "type": "function"
    },
    {
      "constant": true,
      "inputs": [],
      "name": "commissionRaised",
      "outputs": [
        {
          "name": "",
          "type": "uint256"
        }
      ],
      "payable": false,
      "stateMutability": "view",
      "type": "function"
    },
    {
      "constant": true,
      "inputs": [],
      "name": "refundableSoftCap",
      "outputs": [
        {
          "name": "",
          "type": "bool"
        }
      ],
      "payable": false,
      "stateMutability": "view",
      "type": "function"
    },
    {
      "constant": true,
      "inputs": [],
      "name": "votingPrice",
      "outputs": [
        {
          "name": "",
          "type": "uint256"
        }
      ],
      "payable": false,
      "stateMutability": "view",
      "type": "function"
    },
    {
      "constant": true,
      "inputs": [
        {
          "name": "",
          "type": "uint256"
        }
      ],
      "name": "teamBonusesArr",
      "outputs": [
        {
          "name": "",
          "type": "uint256"
        }
      ],
      "payable": false,
      "stateMutability": "view",
      "type": "function"
    },
    {
      "constant": true,
      "inputs": [
        {
          "name": "",
          "type": "uint256"
        }
      ],
      "name": "teamServiceMember",
      "outputs": [
        {
          "name": "",
          "type": "bool"
        }
      ],
      "payable": false,
      "stateMutability": "view",
      "type": "function"
    },
    {
      "constant": true,
      "inputs": [],
      "name": "endTime",
      "outputs": [
        {
          "name": "",
          "type": "uint256"
        }
      ],
      "payable": false,
      "stateMutability": "view",
      "type": "function"
    },
    {
      "constant": true,
      "inputs": [],
      "name": "serviceContract",
      "outputs": [
        {
          "name": "",
          "type": "address"
        }
      ],
      "payable": false,
      "stateMutability": "view",
      "type": "function"
    },
    {
      "constant": true,
      "inputs": [
        {
          "name": "",
          "type": "address"
        }
      ],
      "name": "votings",
      "outputs": [
        {
          "name": "",
          "type": "address"
        }
      ],
      "payable": false,
      "stateMutability": "view",
      "type": "function"
    },
    {
      "constant": true,
      "inputs": [
        {
          "name": "",
          "type": "address"
        }
      ],
      "name": "whiteList",
      "outputs": [
        {
          "name": "",
          "type": "bool"
        }
      ],
      "payable": false,
      "stateMutability": "view",
      "type": "function"
    },
    {
      "constant": true,
      "inputs": [],
      "name": "canInitStateParameters",
      "outputs": [
        {
          "name": "",
          "type": "bool"
        }
      ],
      "payable": false,
      "stateMutability": "view",
      "type": "function"
    },
    {
      "constant": true,
      "inputs": [
        {
          "name": "",
          "type": "uint256"
        }
      ],
      "name": "whiteListArr",
      "outputs": [
        {
          "name": "",
          "type": "address"
        }
      ],
      "payable": false,
      "stateMutability": "view",
      "type": "function"
    },
    {
      "constant": true,
      "inputs": [],
      "name": "weiRaised",
      "outputs": [
        {
          "name": "",
          "type": "uint256"
        }
      ],
      "payable": false,
      "stateMutability": "view",
      "type": "function"
    },
    {
      "constant": true,
      "inputs": [],
      "name": "DXCRaised",
      "outputs": [
        {
          "name": "",
          "type": "uint256"
        }
      ],
      "payable": false,
      "stateMutability": "view",
      "type": "function"
    },
    {
      "constant": true,
      "inputs": [],
      "name": "version",
      "outputs": [
        {
          "name": "",
          "type": "bytes32"
        }
      ],
      "payable": false,
      "stateMutability": "view",
      "type": "function"
    },
    {
      "constant": true,
      "inputs": [
        {
          "name": "",
          "type": "uint256"
        }
      ],
      "name": "bonusDXCRates",
      "outputs": [
        {
          "name": "",
          "type": "uint256"
        }
      ],
      "payable": false,
      "stateMutability": "view",
      "type": "function"
    },
    {
      "constant": true,
      "inputs": [],
      "name": "canSetWhiteList",
      "outputs": [
        {
          "name": "",
          "type": "bool"
        }
      ],
      "payable": false,
      "stateMutability": "view",
      "type": "function"
    },
    {
      "constant": true,
      "inputs": [],
      "name": "initialCapital",
      "outputs": [
        {
          "name": "",
          "type": "uint256"
        }
      ],
      "payable": false,
      "stateMutability": "view",
      "type": "function"
    },
    {
      "constant": true,
      "inputs": [],
      "name": "serviceVotingFactory",
      "outputs": [
        {
          "name": "",
          "type": "address"
        }
      ],
      "payable": false,
      "stateMutability": "view",
      "type": "function"
    },
    {
      "constant": true,
      "inputs": [],
      "name": "tokensMintedByDXC",
      "outputs": [
        {
          "name": "",
          "type": "uint256"
        }
      ],
      "payable": false,
      "stateMutability": "view",
      "type": "function"
    },
    {
      "constant": true,
      "inputs": [],
      "name": "fundsRaised",
      "outputs": [
        {
          "name": "",
          "type": "uint256"
        }
      ],
      "payable": false,
      "stateMutability": "view",
      "type": "function"
    },
    {
      "constant": true,
      "inputs": [
        {
          "name": "",
          "type": "uint256"
        }
      ],
      "name": "teamHold",
      "outputs": [
        {
          "name": "",
          "type": "uint256"
        }
      ],
      "payable": false,
      "stateMutability": "view",
      "type": "function"
    },
    {
      "constant": true,
      "inputs": [
        {
          "name": "",
          "type": "address"
        }
      ],
      "name": "services",
      "outputs": [
        {
          "name": "",
          "type": "bool"
        }
      ],
      "payable": false,
      "stateMutability": "view",
      "type": "function"
    },
    {
      "constant": true,
      "inputs": [],
      "name": "description",
      "outputs": [
        {
          "name": "",
          "type": "string"
        }
      ],
      "payable": false,
      "stateMutability": "view",
      "type": "function"
    },
    {
      "constant": true,
      "inputs": [],
      "name": "startTime",
      "outputs": [
        {
          "name": "",
          "type": "uint256"
        }
      ],
      "payable": false,
      "stateMutability": "view",
      "type": "function"
    },
    {
      "constant": true,
      "inputs": [
        {
          "name": "",
          "type": "address"
        }
      ],
      "name": "depositedDXC",
      "outputs": [
        {
          "name": "",
          "type": "uint256"
        }
      ],
      "payable": false,
      "stateMutability": "view",
      "type": "function"
    },
    {
      "constant": true,
      "inputs": [],
      "name": "softCap",
      "outputs": [
        {
          "name": "",
          "type": "uint256"
        }
      ],
      "payable": false,
      "stateMutability": "view",
      "type": "function"
    },
    {
      "constant": true,
      "inputs": [],
      "name": "DXC",
      "outputs": [
        {
          "name": "",
          "type": "address"
        }
      ],
      "payable": false,
      "stateMutability": "view",
      "type": "function"
    },
    {
      "constant": true,
      "inputs": [],
      "name": "canInitCrowdsaleParameters",
      "outputs": [
        {
          "name": "",
          "type": "bool"
        }
      ],
      "payable": false,
      "stateMutability": "view",
      "type": "function"
    },
    {
      "constant": true,
      "inputs": [],
      "name": "created_at",
      "outputs": [
        {
          "name": "",
          "type": "uint256"
        }
      ],
      "payable": false,
      "stateMutability": "view",
      "type": "function"
    },
    {
      "constant": true,
      "inputs": [],
      "name": "DXCRate",
      "outputs": [
        {
          "name": "",
          "type": "uint256"
        }
      ],
      "payable": false,
      "stateMutability": "view",
      "type": "function"
    },
    {
      "constant": true,
      "inputs": [],
      "name": "lastWithdrawalTimestamp",
      "outputs": [
        {
          "name": "",
          "type": "uint256"
        }
      ],
      "payable": false,
      "stateMutability": "view",
      "type": "function"
    },
    {
      "constant": true,
      "inputs": [],
      "name": "teamTokensAmount",
      "outputs": [
        {
          "name": "",
          "type": "uint256"
        }
      ],
      "payable": false,
      "stateMutability": "view",
      "type": "function"
    },
    {
      "constant": true,
      "inputs": [],
      "name": "votingFactory",
      "outputs": [
        {
          "name": "",
          "type": "address"
        }
      ],
      "payable": false,
      "stateMutability": "view",
      "type": "function"
    },
    {
      "constant": true,
      "inputs": [],
      "name": "refundable",
      "outputs": [
        {
          "name": "",
          "type": "bool"
        }
      ],
      "payable": false,
      "stateMutability": "view",
      "type": "function"
    },
    {
      "constant": true,
      "inputs": [],
      "name": "canInitBonuses",
      "outputs": [
        {
          "name": "",
          "type": "bool"
        }
      ],
      "payable": false,
      "stateMutability": "view",
      "type": "function"
    },
    {
      "constant": true,
      "inputs": [],
      "name": "newDXCRate",
      "outputs": [
        {
          "name": "",
          "type": "uint256"
        }
      ],
      "payable": false,
      "stateMutability": "view",
      "type": "function"
    },
    {
      "constant": true,
      "inputs": [
        {
          "name": "",
          "type": "address"
        }
      ],
      "name": "initialCapitalIncr",
      "outputs": [
        {
          "name": "",
          "type": "uint256"
        }
      ],
      "payable": false,
      "stateMutability": "view",
      "type": "function"
    },
    {
      "constant": true,
      "inputs": [],
      "name": "etherRate",
      "outputs": [
        {
          "name": "",
          "type": "uint256"
        }
      ],
      "payable": false,
      "stateMutability": "view",
      "type": "function"
    },
    {
      "constant": true,
      "inputs": [
        {
          "name": "",
          "type": "uint256"
        }
      ],
      "name": "bonusEtherRates",
      "outputs": [
        {
          "name": "",
          "type": "uint256"
        }
      ],
      "payable": false,
      "stateMutability": "view",
      "type": "function"
    },
    {
      "constant": true,
      "inputs": [],
      "name": "commissionContract",
      "outputs": [
        {
          "name": "",
          "type": "address"
        }
      ],
      "payable": false,
      "stateMutability": "view",
      "type": "function"
    },
    {
      "constant": true,
      "inputs": [
        {
          "name": "",
          "type": "address"
        }
      ],
      "name": "teamBonuses",
      "outputs": [
        {
          "name": "",
          "type": "uint256"
        }
      ],
      "payable": false,
      "stateMutability": "view",
      "type": "function"
    },
    {
      "constant": true,
      "inputs": [],
      "name": "newEtherRate",
      "outputs": [
        {
          "name": "",
          "type": "uint256"
        }
      ],
      "payable": false,
      "stateMutability": "view",
      "type": "function"
    },
    {
      "constant": true,
      "inputs": [],
      "name": "proxyAPI",
      "outputs": [
        {
          "name": "",
          "type": "address"
        }
      ],
      "payable": false,
      "stateMutability": "view",
      "type": "function"
    },
    {
      "constant": true,
      "inputs": [],
      "name": "dxcPayments",
      "outputs": [
        {
          "name": "",
          "type": "bool"
        }
      ],
      "payable": false,
      "stateMutability": "view",
      "type": "function"
    },
    {
      "constant": true,
      "inputs": [
        {
          "name": "",
          "type": "uint256"
        }
      ],
      "name": "bonusPeriods",
      "outputs": [
        {
          "name": "",
          "type": "uint256"
        }
      ],
      "payable": false,
      "stateMutability": "view",
      "type": "function"
    },
    {
      "constant": true,
      "inputs": [],
      "name": "crowdsaleFinished",
      "outputs": [
        {
          "name": "",
          "type": "bool"
        }
      ],
      "payable": false,
      "stateMutability": "view",
      "type": "function"
    },
    {
      "constant": true,
      "inputs": [],
      "name": "hardCap",
      "outputs": [
        {
          "name": "",
          "type": "uint256"
        }
      ],
      "payable": false,
      "stateMutability": "view",
      "type": "function"
    },
    {
      "constant": true,
      "inputs": [],
      "name": "token",
      "outputs": [
        {
          "name": "",
          "type": "address"
        }
      ],
      "payable": false,
      "stateMutability": "view",
      "type": "function"
    },
    {
      "constant": false,
      "inputs": [
        {
          "name": "_address",
          "type": "address"
        },
        {
          "name": "_withdrawalSum",
          "type": "uint256"
        },
        {
          "name": "_dxc",
          "type": "bool"
        }
      ],
      "name": "withdrawal",
      "outputs": [],
      "payable": false,
      "stateMutability": "nonpayable",
      "type": "function"
    },
    {
      "constant": false,
      "inputs": [],
      "name": "makeRefundableByUser",
      "outputs": [],
      "payable": false,
      "stateMutability": "nonpayable",
      "type": "function"
    },
    {
      "constant": false,
      "inputs": [],
      "name": "makeRefundableByVotingDecision",
      "outputs": [],
      "payable": false,
      "stateMutability": "nonpayable",
      "type": "function"
    },
    {
      "constant": false,
      "inputs": [
        {
          "name": "_address",
          "type": "address"
        },
        {
          "name": "_duration",
          "type": "uint256"
        }
      ],
      "name": "holdTokens",
      "outputs": [],
      "payable": false,
      "stateMutability": "nonpayable",
      "type": "function"
    },
    {
      "constant": false,
      "inputs": [
        {
          "name": "_service",
          "type": "address"
        }
      ],
      "name": "connectService",
      "outputs": [],
      "payable": false,
      "stateMutability": "nonpayable",
      "type": "function"
    }
  ],
  "bytecode": "0x60806040526006805463ff0000001962ff00001961ff001960ff19938416600117811661010017919091166201000017919091166301000000179092556000600781905560088190556009819055600a819055600d8054909316909255600e829055600f82905542601c55601e80549091169055601f819055602b819055602c819055602d5534801561009157600080fd5b50611284806100a16000396000f3006080604052600436106102a55763ffffffff60e060020a60003504166306490f4781146102aa57806306fdde03146102d15780630ce57c251461035b57806310be8d121461037057806312337993146103a5578063197ebd53146103c65780631a15b206146103fa5780631e782df514610420578063289a03b0146104355780632948b4e91461044a5780632eeacc5f1461045f57806330c5a0f2146104775780633197cbb61461048f578063364dab10146104a4578063369ef722146104b9578063372c12b1146104da578063395ad021146104fb5780633b541bdb146105105780634042b66f146105285780634f0653681461053d57806354fd4d501461055257806356428fe5146105675780635c602aee1461057f5780635f30b64514610594578063601e538b146105a957806362a2b372146105be57806362c64639146105d35780636681b9fd146105e85780636922b214146105fd5780636d966d01146106155780637284e4161461063657806378e979251461064b5780637d6d3b8c1461066057806386114fcf14610681578063906a26e0146106a257806390836822146106b75780639b95a835146106cc5780639c6f0d85146106e15780639e58779e146106f6578063a62c41691461070b578063a88f893a14610720578063bb24c54b14610735578063bf89662d1461074a578063c0ef7a6d1461075f578063c18f18e814610774578063c2bf7aef14610789578063cc9e4fd4146107b2578063d0f7a601146107d3578063da7801b3146107e8578063da8909e514610800578063db13c72514610815578063e2278f2f14610836578063e2a7937b1461084b578063e3bd043a14610860578063e9fdfb8914610875578063ece84fd51461088d578063f00300a3146108a2578063fb86a404146108b7578063fc0c546a146108cc575b600080fd5b3480156102b657600080fd5b506102bf6108e1565b60408051918252519081900360200190f35b3480156102dd57600080fd5b506102e66108e7565b6040805160208082528351818301528351919283929083019185019080838360005b83811015610320578181015183820152602001610308565b50505050905090810190601f16801561034d5780820380516001836020036101000a031916815260200191505b509250505060405180910390f35b34801561036757600080fd5b506102bf610975565b34801561037c57600080fd5b50610391600160a060020a036004351661097b565b604080519115158252519081900360200190f35b3480156103b157600080fd5b506102bf600160a060020a0360043516610990565b3480156103d257600080fd5b506103de6004356109a2565b60408051600160a060020a039092168252519081900360200190f35b34801561040657600080fd5b5061041e600160a060020a03600435166024356109ca565b005b34801561042c57600080fd5b506102bf610a78565b34801561044157600080fd5b50610391610a7e565b34801561045657600080fd5b506102bf610a8c565b34801561046b57600080fd5b506102bf600435610a92565b34801561048357600080fd5b50610391600435610ab1565b34801561049b57600080fd5b506102bf610ae3565b3480156104b057600080fd5b506103de610ae9565b3480156104c557600080fd5b506103de600160a060020a0360043516610af8565b3480156104e657600080fd5b50610391600160a060020a0360043516610b13565b34801561050757600080fd5b50610391610b28565b34801561051c57600080fd5b506103de600435610b36565b34801561053457600080fd5b506102bf610b44565b34801561054957600080fd5b506102bf610b4a565b34801561055e57600080fd5b506102bf610b50565b34801561057357600080fd5b506102bf600435610b74565b34801561058b57600080fd5b5061041e610b82565b3480156105a057600080fd5b50610391610bcc565b3480156105b557600080fd5b506102bf610bdc565b3480156105ca57600080fd5b506103de610be2565b3480156105df57600080fd5b506102bf610bf1565b3480156105f457600080fd5b506102bf610bf7565b34801561060957600080fd5b506102bf600435610bfd565b34801561062157600080fd5b50610391600160a060020a0360043516610c0b565b34801561064257600080fd5b506102e6610c20565b34801561065757600080fd5b506102bf610c7b565b34801561066c57600080fd5b506102bf600160a060020a0360043516610c81565b34801561068d57600080fd5b5061041e600160a060020a0360043516610c93565b3480156106ae57600080fd5b506102bf610edb565b3480156106c357600080fd5b506103de610ee1565b3480156106d857600080fd5b50610391610ef0565b3480156106ed57600080fd5b506102bf610ef9565b34801561070257600080fd5b506102bf610eff565b34801561071757600080fd5b506102bf610f05565b34801561072c57600080fd5b506102bf610f0b565b34801561074157600080fd5b506103de610f11565b34801561075657600080fd5b50610391610f20565b34801561076b57600080fd5b50610391610f29565b34801561078057600080fd5b506102bf610f38565b34801561079557600080fd5b5061041e600160a060020a03600435166024356044351515610f3e565b3480156107be57600080fd5b506102bf600160a060020a0360043516611059565b3480156107df57600080fd5b506102bf61106b565b3480156107f457600080fd5b506102bf600435611071565b34801561080c57600080fd5b506103de61107f565b34801561082157600080fd5b506102bf600160a060020a036004351661108e565b34801561084257600080fd5b506102bf6110a0565b34801561085757600080fd5b506103de6110a6565b34801561086c57600080fd5b506103916110b5565b34801561088157600080fd5b506102bf6004356110be565b34801561089957600080fd5b506103916110cc565b3480156108ae57600080fd5b5061041e6110d5565b3480156108c357600080fd5b506102bf6110f9565b3480156108d857600080fd5b506103de6110ff565b602b5481565b601a805460408051602060026001851615610100026000190190941693909304601f8101849004840282018401909252818152929183018282801561096d5780601f106109425761010080835404028352916020019161096d565b820191906000526020600020905b81548152906001019060200180831161095057829003601f168201915b505050505081565b60285481565b60136020526000908152604090205460ff1681565b600b6020526000908152604090205481565b60128054829081106109b057fe5b600091825260209091200154600160a060020a0316905081565b336000908152601d6020526040902054600160a060020a031615156109ee57600080fd5b601654604080517f977a5ec5000000000000000000000000000000000000000000000000000000008152600160a060020a038581166004830152602482018590529151919092169163977a5ec591604480830192600092919082900301818387803b158015610a5c57600080fd5b505af1158015610a70573d6000803e3d6000fd5b505050505050565b60075481565b600d54610100900460ff1681565b602d5481565b6011805482908110610aa057fe5b600091825260209091200154905081565b6015805482908110610abf57fe5b9060005260206000209060209182820401919006915054906101000a900460ff1681565b60055481565b601054600160a060020a031681565b601d60205260009081526040902054600160a060020a031681565b60216020526000908152604090205460ff1681565b600654610100900460ff1681565b60208054829081106109b057fe5b60085481565b60095481565b7f312e302e3000000000000000000000000000000000000000000000000000000081565b6025805482908110610aa057fe5b601f54158015610b9957506276a700601c54014210155b80610bb75750601f5415801590610bb757506276a700601f54014210155b1515610bc257600080fd5b610bca61110e565b565b6006546301000000900460ff1681565b602c5481565b601854600160a060020a031681565b60295481565b600a5481565b6014805482908110610aa057fe5b60306020526000908152604090205460ff1681565b601b805460408051602060026001851615610100026000190190941693909304601f8101849004840282018401909252818152929183018282801561096d5780601f106109425761010080835404028352916020019161096d565b60045481565b600c6020526000908152604090205481565b336000908152601d6020526040812054600160a060020a03161515610cb757600080fd5b81602c5481600160a060020a031663a035b1fe6040518163ffffffff1660e060020a028152600401602060405180830381600087803b158015610cf957600080fd5b505af1158015610d0d573d6000803e3d6000fd5b505050506040513d6020811015610d2357600080fd5b50511115610db857604080517f08c379a000000000000000000000000000000000000000000000000000000000815260206004820152602260248201527f4e6f7420656e6f7567682066756e647320746f20636f6e6e656374206d6f647560448201527f6c65000000000000000000000000000000000000000000000000000000000000606482015290519081900360840190fd5b82600160a060020a031663a035b1fe6040518163ffffffff1660e060020a028152600401602060405180830381600087803b158015610df657600080fd5b505af1158015610e0a573d6000803e3d6000fd5b505050506040513d6020811015610e2057600080fd5b5051602c80548290039055602754604080517f543e10b4000000000000000000000000000000000000000000000000000000008152600160a060020a03878116600483015260248201859052915193955091169163543e10b49160448082019260009290919082900301818387803b158015610e9b57600080fd5b505af1158015610eaf573d6000803e3d6000fd5b505050600160a060020a039093166000908152603060205260409020805460ff19166001179055505050565b60025481565b602754600160a060020a031681565b60065460ff1681565b601c5481565b60015481565b601f5481565b60265481565b601754600160a060020a031681565b601e5460ff1681565b60065462010000900460ff1681565b600f5481565b601e5460ff16158015610f595750600d54610100900460ff16155b1515610f6457600080fd5b336000908152601d6020526040902054600160a060020a03161515610f8857600080fd5b42601f5580610fcd57604051600160a060020a0384169083156108fc029084906000818181858888f19350505050158015610fc7573d6000803e3d6000fd5b50611054565b602754604080517fa9059cbb000000000000000000000000000000000000000000000000000000008152600160a060020a038681166004830152602482018690529151919092169163a9059cbb91604480830192600092919082900301818387803b15801561103b57600080fd5b505af115801561104f573d6000803e3d6000fd5b505050505b505050565b602e6020526000908152604090205481565b60005481565b6024805482908110610aa057fe5b601954600160a060020a031681565b60226020526000908152604090205481565b600e5481565b602f54600160a060020a031681565b602a5460ff1681565b6023805482908110610aa057fe5b600d5460ff1681565b336000908152601d6020526040902054600160a060020a03161515610bc257600080fd5b60035481565b601654600160a060020a031681565b601e5460ff161580156111295750600d54610100900460ff16155b151561113457600080fd5b601e805460ff1916600117905560285460005461115790303102620186a061122d565b81151561116057fe5b04600e556029541515611174576000611228565b602954600154602c54602754604080517f70a08231000000000000000000000000000000000000000000000000000000008152306004820152905161121d949392600160a060020a0316916370a082319160248083019260209291908290030181600087803b1580156111e657600080fd5b505af11580156111fa573d6000803e3d6000fd5b505050506040513d602081101561121057600080fd5b50510302620186a061122d565b81151561122657fe5b045b600f55565b6000828202831580611249575082848281151561124657fe5b04145b151561125157fe5b93925050505600a165627a7a72305820da42367fe9677f3cee6739b351b2732c0c79aa12b2109c7305797b7202d182130029",
  "source": "pragma solidity 0.4.24;\n\nimport '../../../node_modules/zeppelin-solidity/contracts/math/SafeMath.sol';\nimport \"../DAOLib.sol\";\nimport \"../../Token/TokenInterface.sol\";\nimport \"../CrowdsaleDAOFields.sol\";\nimport \"../API/IService.sol\";\n\ncontract VotingDecisions is CrowdsaleDAOFields {\n\n    /*\n    * @dev Transfers withdrawal sum in ether or DXC tokens to the whitelisted address. Calls from Withdrawal proposal\n    * @param _address Whitelisted address\n    * @param _withdrawalSum Amount of ether/DXC to be sent\n    * @param _dxc Should withdrawal be in DXC tokens\n    */\n    function withdrawal(address _address, uint _withdrawalSum, bool _dxc) external notInRefundableState onlyVoting {\n        lastWithdrawalTimestamp = block.timestamp;\n        _dxc ? DXC.transfer(_address, _withdrawalSum) : _address.transfer(_withdrawalSum);\n    }\n\n    /*\n    * @dev Change DAO's mode to `refundable`. Can be called by any tokenholder\n    */\n    function makeRefundableByUser() external {\n        require(lastWithdrawalTimestamp == 0 && block.timestamp >= created_at + withdrawalPeriod\n        || lastWithdrawalTimestamp != 0 && block.timestamp >= lastWithdrawalTimestamp + withdrawalPeriod);\n        makeRefundable();\n    }\n\n    /*\n    * @dev Change DAO's mode to `refundable`. Calls from Refund proposal\n    */\n    function makeRefundableByVotingDecision() external onlyVoting {\n        makeRefundable();\n    }\n\n    /*\n    * @dev Change DAO's mode to `refundable`. Calls from this contract `makeRefundableByUser` or `makeRefundableByVotingDecision` functions\n    */\n    function makeRefundable() private notInRefundableState {\n        refundable = true;\n        newEtherRate = SafeMath.mul(this.balance * etherRate, multiplier) / tokensMintedByEther;\n        newDXCRate = tokensMintedByDXC != 0 ? SafeMath.mul((DXC.balanceOf(this) - initialCapital) * DXCRate, multiplier) / tokensMintedByDXC : 0;\n    }\n\n    /*\n    * @dev Make tokens of passed address non-transferable for passed period\n    * @param _address Address of tokenholder\n    * @param _duration Hold's duration in seconds\n    */\n    function holdTokens(address _address, uint _duration) external onlyVoting {\n        token.hold(_address, _duration);\n    }\n\n    function connectService(address _service) external onlyVoting validInitialCapital(_service) {\n        uint price = IService(_service).price();\n        initialCapital -= price;\n        DXC.contributeTo(_service, price);\n        services[_service] = true;\n    }\n\n    /*\n    * @dev Throws if called not by any voting contract\n    */\n    modifier onlyVoting() {\n        require(votings[msg.sender] != 0x0);\n        _;\n    }\n\n    /*\n    * @dev Throws if DAO is in refundable state\n    */\n    modifier notInRefundableState {\n        require(!refundable && !refundableSoftCap);\n        _;\n    }\n\n    modifier validInitialCapital(address _service) {\n        require(IService(_service).price() <= initialCapital, \"Not enough funds to connect module\");\n        _;\n    }\n}\n",
  "sourcePath": "/Users/giddeonwyeth/PhpstormProjects/dao/daox-contracts/contracts/DAO/Modules/VotingDecisions.sol",
  "compiler": {
    "name": "solc",
    "version": "0.4.24+commit.e67f0147.Emscripten.clang"
  },
  "schemaVersion": "2.0.1",
  "updatedAt": "2018-07-10T13:42:04.578Z"
}