{
  "contractName": "VotingFactory",
  "abi": [
    {
      "constant": true,
      "inputs": [],
      "name": "daoFactory",
      "outputs": [
        {
          "name": "",
          "type": "address"
        }
      ],
      "payable": false,
      "stateMutability": "view",
      "type": "function"
    },
    {
      "constant": false,
      "inputs": [
        {
          "name": "_dao",
          "type": "address"
        }
      ],
      "name": "setDaoFactory",
      "outputs": [],
      "payable": false,
      "stateMutability": "nonpayable",
      "type": "function"
    },
    {
      "inputs": [
        {
          "name": "_baseVoting",
          "type": "address"
        }
      ],
      "payable": false,
      "stateMutability": "nonpayable",
      "type": "constructor"
    },
    {
      "constant": false,
      "inputs": [
        {
          "name": "_creator",
          "type": "address"
        },
        {
          "name": "_name",
          "type": "string"
        },
        {
          "name": "_description",
          "type": "string"
        },
        {
          "name": "_duration",
          "type": "uint256"
        },
        {
          "name": "_options",
          "type": "bytes32[]"
        }
      ],
      "name": "createRegular",
      "outputs": [
        {
          "name": "",
          "type": "address"
        }
      ],
      "payable": false,
      "stateMutability": "nonpayable",
      "type": "function"
    },
    {
      "constant": false,
      "inputs": [
        {
          "name": "_creator",
          "type": "address"
        },
        {
          "name": "_name",
          "type": "string"
        },
        {
          "name": "_description",
          "type": "string"
        },
        {
          "name": "_duration",
          "type": "uint256"
        },
        {
          "name": "_sum",
          "type": "uint256"
        },
        {
          "name": "_withdrawalWallet",
          "type": "address"
        },
        {
          "name": "_dxc",
          "type": "bool"
        }
      ],
      "name": "createWithdrawal",
      "outputs": [
        {
          "name": "",
          "type": "address"
        }
      ],
      "payable": false,
      "stateMutability": "nonpayable",
      "type": "function"
    },
    {
      "constant": false,
      "inputs": [
        {
          "name": "_creator",
          "type": "address"
        },
        {
          "name": "_name",
          "type": "string"
        },
        {
          "name": "_description",
          "type": "string"
        },
        {
          "name": "_duration",
          "type": "uint256"
        }
      ],
      "name": "createRefund",
      "outputs": [
        {
          "name": "",
          "type": "address"
        }
      ],
      "payable": false,
      "stateMutability": "nonpayable",
      "type": "function"
    }
  ],
  "bytecode": "0x608060405234801561001057600080fd5b50604051602080612eda833981016040525160008054600160a060020a03909216600160a060020a0319909216919091179055612e88806100526000396000f300608060405260043610620000595763ffffffff60e060020a6000350416633247424581146200005e57806348f7f2a314620000ca578063b775592414620000e2578063dfc061f0146200012e578063eb9466941462000154575b600080fd5b3480156200006b57600080fd5b50620000ae60048035600160a060020a03908116916024803580820193908301359260443592830192013590606435906084359060a4351660c435151562000193565b60408051600160a060020a039092168252519081900360200190f35b348015620000d757600080fd5b50620000ae6200043a565b348015620000ef57600080fd5b50620000ae60048035600160a060020a031690602480358082019290810135916044358082019290810135916064359160843591820191013562000449565b3480156200013b57600080fd5b5062000152600160a060020a03600435166200083c565b005b3480156200016157600080fd5b50620000ae60048035600160a060020a0316906024803580820192908101359160443590810191013560643562000899565b604080517f10be8d12000000000000000000000000000000000000000000000000000000008152600160a060020a038b16600482015290516000918b9133916310be8d1291602480830192602092919082900301818887803b158015620001f957600080fd5b505af11580156200020e573d6000803e3d6000fd5b505050506040513d60208110156200022557600080fd5b505115156200023357600080fd5b600154604080517ff6a3d24e0000000000000000000000000000000000000000000000000000000081523360048201529051600160a060020a039092169163f6a3d24e916024808201926020929091908290030181600087803b1580156200029a57600080fd5b505af1158015620002af573d6000803e3d6000fd5b505050506040513d6020811015620002c657600080fd5b50511515620002d457600080fd5b604080517f372c12b1000000000000000000000000000000000000000000000000000000008152600160a060020a038616600482015290518591339163372c12b1916024808201926020929091908290030181600087803b1580156200033957600080fd5b505af11580156200034e573d6000803e3d6000fd5b505050506040513d60208110156200036557600080fd5b505115156200037357600080fd5b600054600160a060020a0316338c8c8c8c8c8c8c8c6200039262000c67565b600160a060020a03808c1682528a811660208301526080820186905260a08201859052831660c082015281151560e0820152610100604082018181529082018990526060820161012083018b8b808284379091018481038352898152602001905089898082843782019150509c50505050505050505050505050604051809103906000f08015801562000429573d6000803e3d6000fd5b509c9b505050505050505050505050565b600154600160a060020a031681565b600154604080517ff6a3d24e0000000000000000000000000000000000000000000000000000000081523360048201529051600092600160a060020a03169163f6a3d24e91602480830192602092919082900301818787803b158015620004af57600080fd5b505af1158015620004c4573d6000803e3d6000fd5b505050506040513d6020811015620004db57600080fd5b50511515620004e957600080fd5b604080517f929066f5000000000000000000000000000000000000000000000000000000008152600160a060020a038b16600482015290518a91339163929066f5916024808201926020929091908290030181600087803b1580156200054e57600080fd5b505af115801562000563573d6000803e3d6000fd5b505050506040513d60208110156200057a57600080fd5b50511515620005f9576040805160e560020a62461bcd02815260206004820152603060248201527f596f75206e65656420746f2062652061207061727469636970616e7420746f2060448201527f63616c6c2074686973206d6574686f6400000000000000000000000000000000606482015290519081900360840190fd5b33600160a060020a0316632948b4e96040518163ffffffff1660e060020a028152600401602060405180830381600087803b1580156200063857600080fd5b505af11580156200064d573d6000803e3d6000fd5b505050506040513d60208110156200066457600080fd5b5051604080517fcc9e4fd4000000000000000000000000000000000000000000000000000000008152600160a060020a03841660048201529051339163cc9e4fd49160248083019260209291908290030181600087803b158015620006c857600080fd5b505af1158015620006dd573d6000803e3d6000fd5b505050506040513d6020811015620006f457600080fd5b5051101562000773576040805160e560020a62461bcd02815260206004820152602e60248201527f596f7520646f6e2774206861766520656e6f7567682044584320746f2063616c60448201527f6c2074686973206d6574686f642e000000000000000000000000000000000000606482015290519081900360840190fd5b600054600160a060020a0316338a8a8a8a8a8a8a6200079162000c78565b600160a060020a03808b168252891660208201526080810184905260c0604082018181529082018890526060820160a0830160e084018b8b8082843790910185810384528981526020019050898980828437909101858103835286815260209081019150879087028082843782019150509c50505050505050505050505050604051809103906000f0801580156200082d573d6000803e3d6000fd5b509a9950505050505050505050565b600154600160a060020a03161580156200085e5750600160a060020a03811615155b15156200086a57600080fd5b6001805473ffffffffffffffffffffffffffffffffffffffff1916600160a060020a0392909216919091179055565b600154604080517ff6a3d24e0000000000000000000000000000000000000000000000000000000081523360048201529051600092600160a060020a03169163f6a3d24e91602480830192602092919082900301818787803b158015620008ff57600080fd5b505af115801562000914573d6000803e3d6000fd5b505050506040513d60208110156200092b57600080fd5b505115156200093957600080fd5b604080517f929066f5000000000000000000000000000000000000000000000000000000008152600160a060020a038916600482015290518891339163929066f5916024808201926020929091908290030181600087803b1580156200099e57600080fd5b505af1158015620009b3573d6000803e3d6000fd5b505050506040513d6020811015620009ca57600080fd5b5051151562000a49576040805160e560020a62461bcd02815260206004820152603060248201527f596f75206e65656420746f2062652061207061727469636970616e7420746f2060448201527f63616c6c2074686973206d6574686f6400000000000000000000000000000000606482015290519081900360840190fd5b33600160a060020a0316632948b4e96040518163ffffffff1660e060020a028152600401602060405180830381600087803b15801562000a8857600080fd5b505af115801562000a9d573d6000803e3d6000fd5b505050506040513d602081101562000ab457600080fd5b5051604080517fcc9e4fd4000000000000000000000000000000000000000000000000000000008152600160a060020a03841660048201529051339163cc9e4fd49160248083019260209291908290030181600087803b15801562000b1857600080fd5b505af115801562000b2d573d6000803e3d6000fd5b505050506040513d602081101562000b4457600080fd5b5051101562000bc3576040805160e560020a62461bcd02815260206004820152602e60248201527f596f7520646f6e2774206861766520656e6f7567682044584320746f2063616c60448201527f6c2074686973206d6574686f642e000000000000000000000000000000000000606482015290519081900360840190fd5b600054600160a060020a031633888888888862000bdf62000c89565b600160a060020a038089168252871660208201526080810182905260a0604082018181529082018690526060820160c083018888808284379091018481038352868152602001905086868082843782019150509950505050505050505050604051809103906000f08015801562000c5a573d6000803e3d6000fd5b5098975050505050505050565b604051610cc28062000c9b83390190565b604051610a5c806200195d83390190565b604051610aa480620023b9833901905600608060405242601e55601f805460ff1916905562093a8060225534801561002557600080fd5b50604051610cc2380380610cc283398101604090815281516020830151918301516060840151608085015160a086015160c087015160e0880151959794850195939094019391929091906000831180156101295750604080517f6244817a000000000000000000000000000000000000000000000000000000008152600160a060020a0389166004820152602481018590528215156044820152905173__VotingLib_____________________________91636244817a916064808301926020929190829003018186803b1580156100fc57600080fd5b505af4158015610110573d6000803e3d6000fd5b505050506040513d602081101561012657600080fd5b50515b151561013457600080fd5b60238054600160a060020a031916600160a060020a038a1617905560408051808201909152600a8082527f5769746864726177616c000000000000000000000000000000000000000000006020909201918252610193916021916103f1565b506023546040517f120dce48000000000000000000000000000000000000000000000000000000008152600160a060020a0391821660048201818152928a16602483015260848201879052600060a4830181905260c0604484019081528a5160c48501528a5173__VotingLib_____________________________9563120dce48958e948e948e948e949293606481019160e4909101906020890190808383895b8381101561024c578181015183820152602001610234565b50505050905090810190601f1680156102795780820380516001836020036101000a031916815260200191505b50838103825286518152865160209182019188019080838360005b838110156102ac578181015183820152602001610294565b50505050905090810190601f1680156102d95780820380516001836020036101000a031916815260200191505b509850505050505050505060006040518083038186803b1580156102fc57600080fd5b505af4158015610310573d6000803e3d6000fd5b50505060248490555060258054600160a060020a031916600160a060020a0384161760a060020a60ff021916740100000000000000000000000000000000000000008315150217905561036a640100000000610377810204565b505050505050505061048c565b60408051808201825260008082527f79657300000000000000000000000000000000000000000000000000000000006020928301819052600582905560065582518084019093528083527f6e6f00000000000000000000000000000000000000000000000000000000000092909101829052600755600855565b828054600181600116156101000203166002900490600052602060002090601f016020900481019282601f1061043257805160ff191683800117855561045f565b8280016001018555821561045f579182015b8281111561045f578251825591602001919060010190610444565b5061046b92915061046f565b5090565b61048991905b8082111561046b5760008155600101610475565b90565b6108278061049b6000396000f3006080604052600436106100fb5763ffffffff7c01000000000000000000000000000000000000000000000000000000006000350416630383badc811461010057806306fdde031461011a5780630fb5a6b4146101a45780631703a018146101cb5780632f572336146101e0578063409e2205146101f55780634a7d80b31461022657806365372147146102645780637284e41614610279578063790746ef1461028e5780638778b27d146102a35780639c6f0d85146102b8578063a9aa6a9b146102cd578063aec2ccae146102e2578063bef4876b14610310578063cc2ee19614610339578063d56b288914610389578063dbd085ac1461039e575b600080fd5b34801561010c57600080fd5b506101186004356103b3565b005b34801561012657600080fd5b5061012f610458565b6040805160208082528351818301528351919283929083019185019080838360005b83811015610169578181015183820152602001610151565b50505050905090810190601f1680156101965780820380516001836020036101000a031916815260200191505b509250505060405180910390f35b3480156101b057600080fd5b506101b96104e5565b60408051918252519081900360200190f35b3480156101d757600080fd5b506101b96104eb565b3480156101ec57600080fd5b506101b96104f1565b34801561020157600080fd5b5061020d6004356104f7565b6040805192835260208301919091528051918290030190f35b34801561023257600080fd5b5061023b610516565b6040805173ffffffffffffffffffffffffffffffffffffffff9092168252519081900360200190f35b34801561027057600080fd5b5061020d610532565b34801561028557600080fd5b5061012f61053b565b34801561029a57600080fd5b506101b9610593565b3480156102af57600080fd5b506101b9610599565b3480156102c457600080fd5b506101b961059f565b3480156102d957600080fd5b5061012f6105a5565b3480156102ee57600080fd5b506101b973ffffffffffffffffffffffffffffffffffffffff60043516610600565b34801561031c57600080fd5b50610325610612565b604080519115158252519081900360200190f35b34801561034557600080fd5b5061034e61061b565b6040518082600260200280838360005b8381101561037657818101518382015260200161035e565b5050505090500191505060405180910390f35b34801561039557600080fd5b5061011861063e565b3480156103aa57600080fd5b506103256107bf565b602354604080517f4adcade400000000000000000000000000000000000000000000000000000000815273ffffffffffffffffffffffffffffffffffffffff9092166004830152602482018390525173__VotingLib_____________________________91634adcade4916044808301926000929190829003018186803b15801561043d57600080fd5b505af4158015610451573d6000803e3d6000fd5b5050505050565b60018054604080516020600284861615610100026000190190941693909304601f810184900484028201840190925281815292918301828280156104dd5780601f106104b2576101008083540402835291602001916104dd565b820191906000526020600020905b8154815290600101906020018083116104c057829003601f168201915b505050505081565b601d5481565b60205481565b60225481565b600381600b811061050457fe5b60020201805460019091015490915082565b60255473ffffffffffffffffffffffffffffffffffffffff1681565b601a54601b5482565b6002805460408051602060018416156101000260001901909316849004601f810184900484028201840190925281815292918301828280156104dd5780601f106104b2576101008083540402835291602001916104dd565b60245481565b601c5481565b601e5481565b6021805460408051602060026001851615610100026000190190941693909304601f810184900484028201840190925281815292918301828280156104dd5780601f106104b2576101008083540402835291602001916104dd565b60196020526000908152604090205481565b601f5460ff1681565b6106236107e0565b50604080518082019091526005548152600754602082015290565b602354604080517f1901910b00000000000000000000000000000000000000000000000000000000815273ffffffffffffffffffffffffffffffffffffffff90921660048301525173__VotingLib_____________________________91631901910b916024808301926000929190829003018186803b1580156106c157600080fd5b505af41580156106d5573d6000803e3d6000fd5b5050601b547f7965730000000000000000000000000000000000000000000000000000000000141591506107bd9050576000805460255460248054604080517fc2bf7aef00000000000000000000000000000000000000000000000000000000815273ffffffffffffffffffffffffffffffffffffffff8086166004830152938101929092527401000000000000000000000000000000000000000090930460ff1615156044820152915192169263c2bf7aef9260648084019382900301818387803b1580156107a457600080fd5b505af11580156107b8573d6000803e3d6000fd5b505050505b565b60255474010000000000000000000000000000000000000000900460ff1681565b604080518082018252906002908290803883395091929150505600a165627a7a7230582058048ed389d0f615a23f25efba3394868e2e8af34acac9125f61b53cb0f2152d0029608060405242601e55601f805460ff1916905562093a8060225534801561002557600080fd5b50604051610a5c380380610a5c83398101604090815281516020830151918301516060840151608085015160a086015186018051949693840194929093019290916002118015906100785750600a815111155b151561008357600080fd5b60238054600160a060020a031916600160a060020a0388161790556040805180820190915260078082527f526567756c61720000000000000000000000000000000000000000000000000060209092019182526100e2916021916102f3565b506023546040517f120dce48000000000000000000000000000000000000000000000000000000008152600160a060020a0391821660048201818152928816602483015260848201859052600060a4830181905260c060448401908152885160c4850152885173__VotingLib_____________________________9563120dce48958c948c948c948c949293606481019160e4909101906020890190808383895b8381101561019b578181015183820152602001610183565b50505050905090810190601f1680156101c85780820380516001836020036101000a031916815260200191505b50838103825286518152865160209182019188019080838360005b838110156101fb5781810151838201526020016101e3565b50505050905090810190601f1680156102285780820380516001836020036101000a031916815260200191505b509850505050505050505060006040518083038186803b15801561024b57600080fd5b505af415801561025f573d6000803e3d6000fd5b5050505061027b81610286640100000000026401000000009004565b50505050505061038e565b60005b81518110156102ef5760408051908101604052806000815260200183838151811015156102b257fe5b602090810290910101519052600360018301600b81106102ce57fe5b82516002919091029190910190815560209091015160019182015501610289565b5050565b828054600181600116156101000203166002900490600052602060002090601f016020900481019282601f1061033457805160ff1916838001178555610361565b82800160010185558215610361579182015b82811115610361578251825591602001919060010190610346565b5061036d929150610371565b5090565b61038b91905b8082111561036d5760008155600101610377565b90565b6106bf8061039d6000396000f3006080604052600436106100da5763ffffffff7c01000000000000000000000000000000000000000000000000000000006000350416630383badc81146100df57806306fdde03146100f95780630fb5a6b4146101835780631703a018146101aa5780632f572336146101bf578063409e2205146101d457806365372147146102055780637284e4161461021a5780638778b27d1461022f5780639c6f0d8514610244578063a9aa6a9b14610259578063aec2ccae1461026e578063bef4876b1461029c578063cc2ee196146102c5578063d56b288914610313575b600080fd5b3480156100eb57600080fd5b506100f7600435610328565b005b34801561010557600080fd5b5061010e6103cd565b6040805160208082528351818301528351919283929083019185019080838360005b83811015610148578181015183820152602001610130565b50505050905090810190601f1680156101755780820380516001836020036101000a031916815260200191505b509250505060405180910390f35b34801561018f57600080fd5b5061019861045a565b60408051918252519081900360200190f35b3480156101b657600080fd5b50610198610460565b3480156101cb57600080fd5b50610198610466565b3480156101e057600080fd5b506101ec60043561046c565b6040805192835260208301919091528051918290030190f35b34801561021157600080fd5b506101ec61048b565b34801561022657600080fd5b5061010e610494565b34801561023b57600080fd5b506101986104ec565b34801561025057600080fd5b506101986104f2565b34801561026557600080fd5b5061010e6104f8565b34801561027a57600080fd5b5061019873ffffffffffffffffffffffffffffffffffffffff60043516610553565b3480156102a857600080fd5b506102b1610565565b604080519115158252519081900360200190f35b3480156102d157600080fd5b506102da61056e565b604051808261014080838360005b838110156103005781810151838201526020016102e8565b5050505090500191505060405180910390f35b34801561031f57600080fd5b506100f76105d6565b602354604080517f4adcade400000000000000000000000000000000000000000000000000000000815273ffffffffffffffffffffffffffffffffffffffff9092166004830152602482018390525173__VotingLib_____________________________91634adcade4916044808301926000929190829003018186803b1580156103b257600080fd5b505af41580156103c6573d6000803e3d6000fd5b5050505050565b60018054604080516020600284861615610100026000190190941693909304601f810184900484028201840190925281815292918301828280156104525780601f1061042757610100808354040283529160200191610452565b820191906000526020600020905b81548152906001019060200180831161043557829003601f168201915b505050505081565b601d5481565b60205481565b60225481565b600381600b811061047957fe5b60020201805460019091015490915082565b601a54601b5482565b6002805460408051602060018416156101000260001901909316849004601f810184900484028201840190925281815292918301828280156104525780601f1061042757610100808354040283529160200191610452565b601c5481565b601e5481565b6021805460408051602060026001851615610100026000190190941693909304601f810184900484028201840190925281815292918301828280156104525780601f1061042757610100808354040283529160200191610452565b60196020526000908152604090205481565b601f5460ff1681565b610576610673565b5060408051610140810182526005548152600754602082015260095491810191909152600b546060820152600d546080820152600f5460a082015260115460c082015260135460e082015260155461010082015260175461012082015290565b602354604080517f1901910b00000000000000000000000000000000000000000000000000000000815273ffffffffffffffffffffffffffffffffffffffff90921660048301525173__VotingLib_____________________________91631901910b916024808301926000929190829003018186803b15801561065957600080fd5b505af415801561066d573d6000803e3d6000fd5b50505050565b61014060405190810160405280600a9060208202803883395091929150505600a165627a7a7230582039dd833cc990d137e1ccced4008e124129c7a35dc6a596b3e042d2b8a277aef40029608060405242601e55601f805460ff1916905562093a8060225534801561002557600080fd5b50604051610aa4380380610aa48339810160408181528251602080850151838601516060870151608088015160238054600160a060020a031916600160a060020a03881617905586880190965260068088527f526566756e6400000000000000000000000000000000000000000000000000009490970193845293969195908201949390910192916100ba91602191906102d7565b506023546040517f120dce48000000000000000000000000000000000000000000000000000000008152600160a060020a0391821660048201818152928716602483015260848201849052605a60a4830181905260c060448401908152875160c4850152875173__VotingLib_____________________________9563120dce48958b948b948b948b949293606481019160e490910190602089019080838360005b8381101561017457818101518382015260200161015c565b50505050905090810190601f1680156101a15780820380516001836020036101000a031916815260200191505b50838103825286518152865160209182019188019080838360005b838110156101d45781810151838201526020016101bc565b50505050905090810190601f1680156102015780820380516001836020036101000a031916815260200191505b509850505050505050505060006040518083038186803b15801561022457600080fd5b505af4158015610238573d6000803e3d6000fd5b5050505061025361025d640100000000026401000000009004565b5050505050610372565b60408051808201825260008082527f79657300000000000000000000000000000000000000000000000000000000006020928301819052600582905560065582518084019093528083527f6e6f00000000000000000000000000000000000000000000000000000000000092909101829052600755600855565b828054600181600116156101000203166002900490600052602060002090601f016020900481019282601f1061031857805160ff1916838001178555610345565b82800160010185558215610345579182015b8281111561034557825182559160200191906001019061032a565b50610351929150610355565b5090565b61036f91905b80821115610351576000815560010161035b565b90565b610723806103816000396000f3006080604052600436106100da5763ffffffff7c01000000000000000000000000000000000000000000000000000000006000350416630383badc81146100df57806306fdde03146100f95780630fb5a6b4146101835780631703a018146101aa5780632f572336146101bf578063409e2205146101d457806365372147146102055780637284e4161461021a5780638778b27d1461022f5780639c6f0d8514610244578063a9aa6a9b14610259578063aec2ccae1461026e578063bef4876b1461029c578063cc2ee196146102c5578063d56b288914610315575b600080fd5b3480156100eb57600080fd5b506100f760043561032a565b005b34801561010557600080fd5b5061010e6103cf565b6040805160208082528351818301528351919283929083019185019080838360005b83811015610148578181015183820152602001610130565b50505050905090810190601f1680156101755780820380516001836020036101000a031916815260200191505b509250505060405180910390f35b34801561018f57600080fd5b5061019861045c565b60408051918252519081900360200190f35b3480156101b657600080fd5b50610198610462565b3480156101cb57600080fd5b50610198610468565b3480156101e057600080fd5b506101ec60043561046e565b6040805192835260208301919091528051918290030190f35b34801561021157600080fd5b506101ec61048d565b34801561022657600080fd5b5061010e610496565b34801561023b57600080fd5b506101986104ee565b34801561025057600080fd5b506101986104f4565b34801561026557600080fd5b5061010e6104fa565b34801561027a57600080fd5b5061019873ffffffffffffffffffffffffffffffffffffffff60043516610555565b3480156102a857600080fd5b506102b1610567565b604080519115158252519081900360200190f35b3480156102d157600080fd5b506102da610570565b6040518082600260200280838360005b838110156103025781810151838201526020016102ea565b5050505090500191505060405180910390f35b34801561032157600080fd5b506100f7610593565b602354604080517f4adcade400000000000000000000000000000000000000000000000000000000815273ffffffffffffffffffffffffffffffffffffffff9092166004830152602482018390525173__VotingLib_____________________________91634adcade4916044808301926000929190829003018186803b1580156103b457600080fd5b505af41580156103c8573d6000803e3d6000fd5b5050505050565b60018054604080516020600284861615610100026000190190941693909304601f810184900484028201840190925281815292918301828280156104545780601f1061042957610100808354040283529160200191610454565b820191906000526020600020905b81548152906001019060200180831161043757829003601f168201915b505050505081565b601d5481565b60205481565b60225481565b600381600b811061047b57fe5b60020201805460019091015490915082565b601a54601b5482565b6002805460408051602060018416156101000260001901909316849004601f810184900484028201840190925281815292918301828280156104545780601f1061042957610100808354040283529160200191610454565b601c5481565b601e5481565b6021805460408051602060026001851615610100026000190190941693909304601f810184900484028201840190925281815292918301828280156104545780601f1061042957610100808354040283529160200191610454565b60196020526000908152604090205481565b601f5460ff1681565b6105786106dc565b50604080518082019091526005548152600754602082015290565b602354604080517f1901910b00000000000000000000000000000000000000000000000000000000815273ffffffffffffffffffffffffffffffffffffffff90921660048301525173__VotingLib_____________________________91631901910b916024808301926000929190829003018186803b15801561061657600080fd5b505af415801561062a573d6000803e3d6000fd5b5050601b547f7965730000000000000000000000000000000000000000000000000000000000141591506106da90505760008054604080517ff00300a3000000000000000000000000000000000000000000000000000000008152905173ffffffffffffffffffffffffffffffffffffffff9092169263f00300a39260048084019382900301818387803b1580156106c157600080fd5b505af11580156106d5573d6000803e3d6000fd5b505050505b565b604080518082018252906002908290803883395091929150505600a165627a7a72305820451a0d178ad81063efcbd06f9185400c7386a1b049c347fdbb27c595504561340029a165627a7a723058207733ea608a4c8978848e7be074a8b78d682e8e194fa440a90e3ed81c92cd7c4f0029",
  "source": "pragma solidity 0.4.24;\n\nimport \"./VotingFactoryInterface.sol\";\nimport \"./Regular.sol\";\nimport \"./Withdrawal.sol\";\nimport \"./Refund.sol\";\nimport \"../BaseVotingFactory.sol\";\n\ncontract VotingFactory is VotingFactoryInterface, BaseVotingFactory {\n\n    constructor(address _baseVoting) BaseVotingFactory(_baseVoting) {}\n\n    /*\n    * @dev Create regular proposal with passed parameters. Calls from DAO contract\n    * @param _creator Address of caller of DAO's respectively function\n    * @param _name Voting's name\n    * @param _description Voting's description\n    * @param _duration Voting's duration\n    * @param _options Voting's options\n    */\n    function createRegular(address _creator, string _name, string _description, uint _duration, bytes32[] _options)\n        external\n        onlyDAO\n        onlyParticipantWithEnoughDXC(_creator)\n        returns (address)\n    {\n        return new Regular(baseVoting, msg.sender, _name, _description, _duration, _options);\n    }\n\n    /*\n    * @dev Create withdrawal proposal with passed parameters. Calls from DAO contract\n    * @param _creator Address of caller of DAO's respectively function\n    * @param _name Voting's name\n    * @param _description Voting's description\n    * @param _duration Voting's duration\n    * @param _sum Sum to withdraw from DAO\n    * @param _withdrawalWallet Address to send withdrawal sum\n    * @param _dxc Should withdrawal sum be interpret as amount of DXC tokens\n    */\n    function createWithdrawal(address _creator, string _name, string _description, uint _duration, uint _sum, address _withdrawalWallet, bool _dxc)\n        external\n        onlyTeamMember(_creator)\n        onlyDAO\n        onlyWhiteList(_withdrawalWallet)\n        returns (address)\n    {\n        return new Withdrawal(baseVoting, msg.sender, _name, _description, _duration, _sum, _withdrawalWallet, _dxc);\n    }\n\n    /*\n    * @dev Create refund proposal with passed parameters. Calls from DAO contract\n    * @param _creator Address of caller of DAO's respectively function\n    * @param _name Voting's name\n    * @param _description Voting's description\n    * @param _duration Voting's duration\n    */\n    function createRefund(address _creator, string _name, string _description, uint _duration) external onlyDAO onlyParticipantWithEnoughDXC(_creator) returns (address) {\n        return new Refund(baseVoting, msg.sender, _name, _description, _duration);\n    }\n\n    /*\n    * @dev Throws if creator is not team member of passed DAO\n    */\n    modifier onlyTeamMember(address creator) {\n        require(IDAO(msg.sender).teamMap(creator));\n        _;\n    }\n\n    /*\n    * @dev Throws if creator is not member of white list in specified DAO\n    */\n    modifier onlyWhiteList(address creator) {\n        require(IDAO(msg.sender).whiteList(creator));\n        _;\n    }\n}\n",
  "sourcePath": "/Users/giddeonwyeth/PhpstormProjects/dao/daox-contracts/contracts/Votings/Common/VotingFactory.sol",
  "compiler": {
    "name": "solc",
    "version": "0.4.24+commit.e67f0147.Emscripten.clang"
  },
  "schemaVersion": "2.0.1",
  "updatedAt": "2018-07-11T16:06:33.316Z"
}