{
  "contractName": "VotingLib",
  "abi": [
    {
      "constant": false,
      "inputs": [
        {
          "name": "_v",
          "type": "address"
        },
        {
          "name": "_dao",
          "type": "address"
        },
        {
          "name": "_name",
          "type": "string"
        },
        {
          "name": "_description",
          "type": "string"
        },
        {
          "name": "_duration",
          "type": "uint256"
        },
        {
          "name": "_quorum",
          "type": "uint256"
        }
      ],
      "name": "delegatecallCreate",
      "outputs": [],
      "payable": false,
      "stateMutability": "nonpayable",
      "type": "function"
    },
    {
      "constant": false,
      "inputs": [
        {
          "name": "_v",
          "type": "address"
        },
        {
          "name": "optionID",
          "type": "uint256"
        }
      ],
      "name": "delegatecallAddVote",
      "outputs": [],
      "payable": false,
      "stateMutability": "nonpayable",
      "type": "function"
    },
    {
      "constant": false,
      "inputs": [
        {
          "name": "_v",
          "type": "address"
        }
      ],
      "name": "delegatecallFinish",
      "outputs": [],
      "payable": false,
      "stateMutability": "nonpayable",
      "type": "function"
    },
    {
      "constant": true,
      "inputs": [
        {
          "name": "_dao",
          "type": "address"
        },
        {
          "name": "_sum",
          "type": "uint256"
        },
        {
          "name": "_dxc",
          "type": "bool"
        }
      ],
      "name": "isValidWithdrawal",
      "outputs": [
        {
          "name": "",
          "type": "bool"
        }
      ],
      "payable": false,
      "stateMutability": "view",
      "type": "function"
    }
  ],
  "bytecode": "0x61068a610030600b82828239805160001a6073146000811461002057610022565bfe5b5030600052607381538281f300730000000000000000000000000000000000000000301460806040526004361061005f5763ffffffff60e060020a600035041663120dce4881146100645780631901910b1461011c5780634adcade41461013d5780636244817a14610161575b600080fd5b81801561007057600080fd5b50604080516020600460443581810135601f810184900484028501840190955284845261011a948235600160a060020a039081169560248035909216953695946064949293019190819084018382808284375050604080516020601f89358b018035918201839004830284018301909452808352979a9998810197919650918201945092508291508401838280828437509497505084359550505060209092013591506101919050565b005b81801561012857600080fd5b5061011a600160a060020a036004351661043c565b81801561014957600080fd5b5061011a600160a060020a03600435166024356104b6565b61017d600160a060020a0360043516602435604435151561053c565b604080519115158252519081900360200190f35b85600160a060020a031660405180807f63726561746528616464726573732c627974657333322c627974657333322c7581526020017f696e743235362c75696e74323536290000000000000000000000000000000000815250602f019050604051809103902060e060020a90048673__Common________________________________63cfb51928886040518263ffffffff1660e060020a0281526004018080602001828103825283818151815260200191508051906020019080838360005b83811015610269578181015183820152602001610251565b50505050905090810190601f1680156102965780820380516001836020036101000a031916815260200191505b509250505060206040518083038186803b1580156102b357600080fd5b505af41580156102c7573d6000803e3d6000fd5b505050506040513d60208110156102dd57600080fd5b50516040517fcfb5192800000000000000000000000000000000000000000000000000000000815260206004820181815289516024840152895173__Common________________________________9363cfb51928938c939283926044019185019080838360005b8381101561035d578181015183820152602001610345565b50505050905090810190601f16801561038a5780820380516001836020036101000a031916815260200191505b509250505060206040518083038186803b1580156103a757600080fd5b505af41580156103bb573d6000803e3d6000fd5b505050506040513d60208110156103d157600080fd5b50516040805160e060020a63ffffffff8716028152600160a060020a0390941660048501526024840192909252604483015260648201869052608482018590525160a48083019260009291908290030181865af492505050151561043457600080fd5b505050505050565b80600160a060020a031660405180807f66696e69736828290000000000000000000000000000000000000000000000008152506008019050604051809103902060e060020a90046040518163ffffffff1660e060020a028152600401600060405180830381865af49250505015156104b357600080fd5b50565b81600160a060020a031660405180807f616464566f74652875696e7432353629000000000000000000000000000000008152506010019050604051809103902060e060020a9004826040518263ffffffff1660e060020a02815260040180828152602001915050600060405180830381865af492505050151561053857600080fd5b5050565b60008115610647578284600160a060020a031663908368226040518163ffffffff1660e060020a028152600401602060405180830381600087803b15801561058357600080fd5b505af1158015610597573d6000803e3d6000fd5b505050506040513d60208110156105ad57600080fd5b5051604080517f70a08231000000000000000000000000000000000000000000000000000000008152600160a060020a038881166004830152915191909216916370a082319160248083019260209291908290030181600087803b15801561061457600080fd5b505af1158015610628573d6000803e3d6000fd5b505050506040513d602081101561063e57600080fd5b50511015610656565b8284600160a060020a03163110155b9493505050505600a165627a7a72305820d65c48b815f81b9a4965298a2b869d6be5b2082df1cd1c97bf9910fff3f0b9be0029",
  "source": "pragma solidity ^0.4.11;\n\nimport \"../DAO/ICrowdsaleDAO.sol\";\nimport \"../Common.sol\";\n\nlibrary VotingLib {\n    struct Option {\n        uint votes;\n        bytes32 description;\n    }\n\n    function delegatecallCreate(address _v, address _dao, string _name, string _description, uint _duration, uint _quorum) {\n        require(_v.delegatecall(bytes4(keccak256(\"create(address,bytes32,bytes32,uint256,uint256)\")),\n            _dao,\n            Common.stringToBytes32(_name),\n            Common.stringToBytes32(_description),\n            _duration,\n            _quorum)\n        );\n    }\n\n    function delegatecallAddVote(address _v, uint optionID) {\n        require(_v.delegatecall(bytes4(keccak256(\"addVote(uint256)\")), optionID));\n    }\n\n    function delegatecallFinish(address _v) {\n        require(_v.delegatecall(bytes4(keccak256(\"finish()\"))));\n    }\n\n    function isValidWithdrawal(address _dao, uint _sum, bool _dxc) constant returns(bool) {\n        return !_dxc ? _dao.balance >= _sum  : ICrowdsaleDAO(_dao).DXC().balanceOf(_dao) >= _sum;\n    }\n}",
  "sourcePath": "/Users/kirill/projects/daox-contracts/contracts/Votings/VotingLib.sol",
  "compiler": {
    "name": "solc",
    "version": "0.4.23+commit.124ca40d.Emscripten.clang"
  },
  "schemaVersion": "2.0.0",
  "updatedAt": "2018-06-04T17:08:58.634Z"
}