{
  "contractName": "Withdrawal",
  "abi": [
    {
      "constant": false,
      "inputs": [
        {
          "name": "_optionID",
          "type": "uint256"
        }
      ],
      "name": "addVote",
      "outputs": [],
      "payable": false,
      "stateMutability": "nonpayable",
      "type": "function"
    },
    {
      "constant": true,
      "inputs": [],
      "name": "name",
      "outputs": [
        {
          "name": "",
          "type": "string"
        }
      ],
      "payable": false,
      "stateMutability": "view",
      "type": "function"
    },
    {
      "constant": true,
      "inputs": [],
      "name": "duration",
      "outputs": [
        {
          "name": "",
          "type": "uint256"
        }
      ],
      "payable": false,
      "stateMutability": "view",
      "type": "function"
    },
    {
      "constant": true,
      "inputs": [],
      "name": "quorum",
      "outputs": [
        {
          "name": "",
          "type": "uint256"
        }
      ],
      "payable": false,
      "stateMutability": "view",
      "type": "function"
    },
    {
      "constant": true,
      "inputs": [],
      "name": "minimalDuration",
      "outputs": [
        {
          "name": "",
          "type": "uint256"
        }
      ],
      "payable": false,
      "stateMutability": "view",
      "type": "function"
    },
    {
      "constant": true,
      "inputs": [
        {
          "name": "",
          "type": "uint256"
        }
      ],
      "name": "options",
      "outputs": [
        {
          "name": "votes",
          "type": "uint256"
        },
        {
          "name": "description",
          "type": "bytes32"
        }
      ],
      "payable": false,
      "stateMutability": "view",
      "type": "function"
    },
    {
      "constant": true,
      "inputs": [],
      "name": "withdrawalWallet",
      "outputs": [
        {
          "name": "",
          "type": "address"
        }
      ],
      "payable": false,
      "stateMutability": "view",
      "type": "function"
    },
    {
      "constant": true,
      "inputs": [],
      "name": "result",
      "outputs": [
        {
          "name": "votes",
          "type": "uint256"
        },
        {
          "name": "description",
          "type": "bytes32"
        }
      ],
      "payable": false,
      "stateMutability": "view",
      "type": "function"
    },
    {
      "constant": true,
      "inputs": [],
      "name": "description",
      "outputs": [
        {
          "name": "",
          "type": "string"
        }
      ],
      "payable": false,
      "stateMutability": "view",
      "type": "function"
    },
    {
      "constant": true,
      "inputs": [],
      "name": "withdrawalSum",
      "outputs": [
        {
          "name": "",
          "type": "uint256"
        }
      ],
      "payable": false,
      "stateMutability": "view",
      "type": "function"
    },
    {
      "constant": true,
      "inputs": [],
      "name": "votesCount",
      "outputs": [
        {
          "name": "",
          "type": "uint256"
        }
      ],
      "payable": false,
      "stateMutability": "view",
      "type": "function"
    },
    {
      "constant": true,
      "inputs": [],
      "name": "created_at",
      "outputs": [
        {
          "name": "",
          "type": "uint256"
        }
      ],
      "payable": false,
      "stateMutability": "view",
      "type": "function"
    },
    {
      "constant": true,
      "inputs": [],
      "name": "votingType",
      "outputs": [
        {
          "name": "",
          "type": "string"
        }
      ],
      "payable": false,
      "stateMutability": "view",
      "type": "function"
    },
    {
      "constant": true,
      "inputs": [
        {
          "name": "",
          "type": "address"
        }
      ],
      "name": "voted",
      "outputs": [
        {
          "name": "",
          "type": "uint256"
        }
      ],
      "payable": false,
      "stateMutability": "view",
      "type": "function"
    },
    {
      "constant": true,
      "inputs": [],
      "name": "finished",
      "outputs": [
        {
          "name": "",
          "type": "bool"
        }
      ],
      "payable": false,
      "stateMutability": "view",
      "type": "function"
    },
    {
      "constant": true,
      "inputs": [],
      "name": "getOptions",
      "outputs": [
        {
          "name": "",
          "type": "uint256[2]"
        }
      ],
      "payable": false,
      "stateMutability": "view",
      "type": "function"
    },
    {
      "constant": true,
      "inputs": [],
      "name": "dxc",
      "outputs": [
        {
          "name": "",
          "type": "bool"
        }
      ],
      "payable": false,
      "stateMutability": "view",
      "type": "function"
    },
    {
      "inputs": [
        {
          "name": "_baseVoting",
          "type": "address"
        },
        {
          "name": "_dao",
          "type": "address"
        },
        {
          "name": "_name",
          "type": "string"
        },
        {
          "name": "_description",
          "type": "string"
        },
        {
          "name": "_duration",
          "type": "uint256"
        },
        {
          "name": "_sum",
          "type": "uint256"
        },
        {
          "name": "_withdrawalWallet",
          "type": "address"
        },
        {
          "name": "_dxc",
          "type": "bool"
        }
      ],
      "payable": false,
      "stateMutability": "nonpayable",
      "type": "constructor"
    },
    {
      "constant": false,
      "inputs": [],
      "name": "finish",
      "outputs": [],
      "payable": false,
      "stateMutability": "nonpayable",
      "type": "function"
    }
  ],
  "bytecode": "0x608060405242601e55601f805460ff1916905562093a8060225534801561002557600080fd5b50604051610cc2380380610cc283398101604090815281516020830151918301516060840151608085015160a086015160c087015160e0880151959794850195939094019391929091906000831180156101295750604080517f6244817a000000000000000000000000000000000000000000000000000000008152600160a060020a0389166004820152602481018590528215156044820152905173__VotingLib_____________________________91636244817a916064808301926020929190829003018186803b1580156100fc57600080fd5b505af4158015610110573d6000803e3d6000fd5b505050506040513d602081101561012657600080fd5b50515b151561013457600080fd5b60238054600160a060020a031916600160a060020a038a1617905560408051808201909152600a8082527f5769746864726177616c000000000000000000000000000000000000000000006020909201918252610193916021916103f1565b506023546040517f120dce48000000000000000000000000000000000000000000000000000000008152600160a060020a0391821660048201818152928a16602483015260848201879052600060a4830181905260c0604484019081528a5160c48501528a5173__VotingLib_____________________________9563120dce48958e948e948e948e949293606481019160e4909101906020890190808383895b8381101561024c578181015183820152602001610234565b50505050905090810190601f1680156102795780820380516001836020036101000a031916815260200191505b50838103825286518152865160209182019188019080838360005b838110156102ac578181015183820152602001610294565b50505050905090810190601f1680156102d95780820380516001836020036101000a031916815260200191505b509850505050505050505060006040518083038186803b1580156102fc57600080fd5b505af4158015610310573d6000803e3d6000fd5b50505060248490555060258054600160a060020a031916600160a060020a0384161760a060020a60ff021916740100000000000000000000000000000000000000008315150217905561036a640100000000610377810204565b505050505050505061048c565b60408051808201825260008082527f79657300000000000000000000000000000000000000000000000000000000006020928301819052600582905560065582518084019093528083527f6e6f00000000000000000000000000000000000000000000000000000000000092909101829052600755600855565b828054600181600116156101000203166002900490600052602060002090601f016020900481019282601f1061043257805160ff191683800117855561045f565b8280016001018555821561045f579182015b8281111561045f578251825591602001919060010190610444565b5061046b92915061046f565b5090565b61048991905b8082111561046b5760008155600101610475565b90565b6108278061049b6000396000f3006080604052600436106100fb5763ffffffff7c01000000000000000000000000000000000000000000000000000000006000350416630383badc811461010057806306fdde031461011a5780630fb5a6b4146101a45780631703a018146101cb5780632f572336146101e0578063409e2205146101f55780634a7d80b31461022657806365372147146102645780637284e41614610279578063790746ef1461028e5780638778b27d146102a35780639c6f0d85146102b8578063a9aa6a9b146102cd578063aec2ccae146102e2578063bef4876b14610310578063cc2ee19614610339578063d56b288914610389578063dbd085ac1461039e575b600080fd5b34801561010c57600080fd5b506101186004356103b3565b005b34801561012657600080fd5b5061012f610458565b6040805160208082528351818301528351919283929083019185019080838360005b83811015610169578181015183820152602001610151565b50505050905090810190601f1680156101965780820380516001836020036101000a031916815260200191505b509250505060405180910390f35b3480156101b057600080fd5b506101b96104e5565b60408051918252519081900360200190f35b3480156101d757600080fd5b506101b96104eb565b3480156101ec57600080fd5b506101b96104f1565b34801561020157600080fd5b5061020d6004356104f7565b6040805192835260208301919091528051918290030190f35b34801561023257600080fd5b5061023b610516565b6040805173ffffffffffffffffffffffffffffffffffffffff9092168252519081900360200190f35b34801561027057600080fd5b5061020d610532565b34801561028557600080fd5b5061012f61053b565b34801561029a57600080fd5b506101b9610593565b3480156102af57600080fd5b506101b9610599565b3480156102c457600080fd5b506101b961059f565b3480156102d957600080fd5b5061012f6105a5565b3480156102ee57600080fd5b506101b973ffffffffffffffffffffffffffffffffffffffff60043516610600565b34801561031c57600080fd5b50610325610612565b604080519115158252519081900360200190f35b34801561034557600080fd5b5061034e61061b565b6040518082600260200280838360005b8381101561037657818101518382015260200161035e565b5050505090500191505060405180910390f35b34801561039557600080fd5b5061011861063e565b3480156103aa57600080fd5b506103256107bf565b602354604080517f4adcade400000000000000000000000000000000000000000000000000000000815273ffffffffffffffffffffffffffffffffffffffff9092166004830152602482018390525173__VotingLib_____________________________91634adcade4916044808301926000929190829003018186803b15801561043d57600080fd5b505af4158015610451573d6000803e3d6000fd5b5050505050565b60018054604080516020600284861615610100026000190190941693909304601f810184900484028201840190925281815292918301828280156104dd5780601f106104b2576101008083540402835291602001916104dd565b820191906000526020600020905b8154815290600101906020018083116104c057829003601f168201915b505050505081565b601d5481565b60205481565b60225481565b600381600b811061050457fe5b60020201805460019091015490915082565b60255473ffffffffffffffffffffffffffffffffffffffff1681565b601a54601b5482565b6002805460408051602060018416156101000260001901909316849004601f810184900484028201840190925281815292918301828280156104dd5780601f106104b2576101008083540402835291602001916104dd565b60245481565b601c5481565b601e5481565b6021805460408051602060026001851615610100026000190190941693909304601f810184900484028201840190925281815292918301828280156104dd5780601f106104b2576101008083540402835291602001916104dd565b60196020526000908152604090205481565b601f5460ff1681565b6106236107e0565b50604080518082019091526005548152600754602082015290565b602354604080517f1901910b00000000000000000000000000000000000000000000000000000000815273ffffffffffffffffffffffffffffffffffffffff90921660048301525173__VotingLib_____________________________91631901910b916024808301926000929190829003018186803b1580156106c157600080fd5b505af41580156106d5573d6000803e3d6000fd5b5050601b547f7965730000000000000000000000000000000000000000000000000000000000141591506107bd9050576000805460255460248054604080517fc2bf7aef00000000000000000000000000000000000000000000000000000000815273ffffffffffffffffffffffffffffffffffffffff8086166004830152938101929092527401000000000000000000000000000000000000000090930460ff1615156044820152915192169263c2bf7aef9260648084019382900301818387803b1580156107a457600080fd5b505af11580156107b8573d6000803e3d6000fd5b505050505b565b60255474010000000000000000000000000000000000000000900460ff1681565b604080518082018252906002908290803883395091929150505600a165627a7a72305820257e7534675657b8ea101a9b23508c3d9b808745eb0f9a74bdbe2d0e9a761e140029",
  "source": "pragma solidity ^0.4.11;\n\nimport \"./VotingLib.sol\";\nimport \"../Common.sol\";\nimport \"./BaseProposal.sol\";\n\ncontract Withdrawal is BaseProposal {\n    uint public withdrawalSum;\n    address public withdrawalWallet;\n    bool public dxc;\n\n    function Withdrawal(address _baseVoting, address _dao, string _name, string _description, uint _duration, uint _sum, address _withdrawalWallet, bool _dxc) {\n        require(_sum > 0 && VotingLib.isValidWithdrawal(_dao, _sum, _dxc));\n        baseVoting = _baseVoting;\n        votingType = \"Withdrawal\";\n        VotingLib.delegatecallCreate(baseVoting, _dao, _name, _description, _duration, 0);\n        withdrawalSum = _sum;\n        withdrawalWallet = _withdrawalWallet;\n        dxc = _dxc;\n        createOptions();\n    }\n\n    /*\n    * @dev Delegates request of finishing to the Voting base contract\n    */\n    function finish() public {\n        VotingLib.delegatecallFinish(baseVoting);\n        if(result.description == \"yes\") dao.withdrawal(withdrawalWallet, withdrawalSum, dxc);\n    }\n}\n",
  "sourcePath": "/Users/kirill/projects/daox-contracts/contracts/Votings/Withdrawal.sol",
  "compiler": {
    "name": "solc",
    "version": "0.4.23+commit.124ca40d.Emscripten.clang"
  },
  "schemaVersion": "2.0.0",
  "updatedAt": "2018-06-04T17:08:56.614Z"
}