{
  "contractName": "Withdrawal",
  "abi": [
    {
      "constant": true,
      "inputs": [],
      "name": "name",
      "outputs": [
        {
          "name": "",
          "type": "string"
        }
      ],
      "payable": false,
      "stateMutability": "view",
      "type": "function"
    },
    {
      "constant": true,
      "inputs": [],
      "name": "duration",
      "outputs": [
        {
          "name": "",
          "type": "uint256"
        }
      ],
      "payable": false,
      "stateMutability": "view",
      "type": "function"
    },
    {
      "constant": true,
      "inputs": [],
      "name": "quorum",
      "outputs": [
        {
          "name": "",
          "type": "uint256"
        }
      ],
      "payable": false,
      "stateMutability": "view",
      "type": "function"
    },
    {
      "constant": true,
      "inputs": [],
      "name": "minimalDuration",
      "outputs": [
        {
          "name": "",
          "type": "uint256"
        }
      ],
      "payable": false,
      "stateMutability": "view",
      "type": "function"
    },
    {
      "constant": true,
      "inputs": [
        {
          "name": "",
          "type": "uint256"
        }
      ],
      "name": "options",
      "outputs": [
        {
          "name": "votes",
          "type": "uint256"
        },
        {
          "name": "description",
          "type": "bytes32"
        }
      ],
      "payable": false,
      "stateMutability": "view",
      "type": "function"
    },
    {
      "constant": true,
      "inputs": [],
      "name": "withdrawalWallet",
      "outputs": [
        {
          "name": "",
          "type": "address"
        }
      ],
      "payable": false,
      "stateMutability": "view",
      "type": "function"
    },
    {
      "constant": true,
      "inputs": [],
      "name": "result",
      "outputs": [
        {
          "name": "votes",
          "type": "uint256"
        },
        {
          "name": "description",
          "type": "bytes32"
        }
      ],
      "payable": false,
      "stateMutability": "view",
      "type": "function"
    },
    {
      "constant": true,
      "inputs": [],
      "name": "description",
      "outputs": [
        {
          "name": "",
          "type": "string"
        }
      ],
      "payable": false,
      "stateMutability": "view",
      "type": "function"
    },
    {
      "constant": true,
      "inputs": [],
      "name": "withdrawalSum",
      "outputs": [
        {
          "name": "",
          "type": "uint256"
        }
      ],
      "payable": false,
      "stateMutability": "view",
      "type": "function"
    },
    {
      "constant": true,
      "inputs": [],
      "name": "votesCount",
      "outputs": [
        {
          "name": "",
          "type": "uint256"
        }
      ],
      "payable": false,
      "stateMutability": "view",
      "type": "function"
    },
    {
      "constant": true,
      "inputs": [],
      "name": "created_at",
      "outputs": [
        {
          "name": "",
          "type": "uint256"
        }
      ],
      "payable": false,
      "stateMutability": "view",
      "type": "function"
    },
    {
      "constant": true,
      "inputs": [],
      "name": "votingType",
      "outputs": [
        {
          "name": "",
          "type": "string"
        }
      ],
      "payable": false,
      "stateMutability": "view",
      "type": "function"
    },
    {
      "constant": true,
      "inputs": [
        {
          "name": "",
          "type": "address"
        }
      ],
      "name": "voted",
      "outputs": [
        {
          "name": "",
          "type": "uint256"
        }
      ],
      "payable": false,
      "stateMutability": "view",
      "type": "function"
    },
    {
      "constant": true,
      "inputs": [],
      "name": "finished",
      "outputs": [
        {
          "name": "",
          "type": "bool"
        }
      ],
      "payable": false,
      "stateMutability": "view",
      "type": "function"
    },
    {
      "constant": true,
      "inputs": [],
      "name": "dxc",
      "outputs": [
        {
          "name": "",
          "type": "bool"
        }
      ],
      "payable": false,
      "stateMutability": "view",
      "type": "function"
    },
    {
      "inputs": [
        {
          "name": "_baseVoting",
          "type": "address"
        },
        {
          "name": "_dao",
          "type": "address"
        },
        {
          "name": "_name",
          "type": "string"
        },
        {
          "name": "_description",
          "type": "string"
        },
        {
          "name": "_duration",
          "type": "uint256"
        },
        {
          "name": "_sum",
          "type": "uint256"
        },
        {
          "name": "_withdrawalWallet",
          "type": "address"
        },
        {
          "name": "_dxc",
          "type": "bool"
        }
      ],
      "payable": false,
      "stateMutability": "nonpayable",
      "type": "constructor"
    },
    {
      "constant": true,
      "inputs": [],
      "name": "getOptions",
      "outputs": [
        {
          "name": "",
          "type": "uint256[2]"
        }
      ],
      "payable": false,
      "stateMutability": "view",
      "type": "function"
    },
    {
      "constant": false,
      "inputs": [
        {
          "name": "optionID",
          "type": "uint256"
        }
      ],
      "name": "addVote",
      "outputs": [],
      "payable": false,
      "stateMutability": "nonpayable",
      "type": "function"
    },
    {
      "constant": false,
      "inputs": [],
      "name": "finish",
      "outputs": [],
      "payable": false,
      "stateMutability": "nonpayable",
      "type": "function"
    }
  ],
  "bytecode": "0x606060405242601e55601f805460ff1916905562093a80602255341561002457600080fd5b604051610cdb380380610cdb833981016040528080519190602001805191906020018051820191906020018051820191906020018051919060200180519190602001805191906020018051915050600083118015610116575073__VotingLib_____________________________636244817a8885846040517c010000000000000000000000000000000000000000000000000000000063ffffffff8616028152600160a060020a03909316600484015260248301919091521515604482015260640160206040518083038186803b15156100fe57600080fd5b5af4151561010b57600080fd5b505050604051805190505b151561012157600080fd5b60238054600160a060020a031916600160a060020a038a1617905560408051908101604052600a81527f5769746864726177616c0000000000000000000000000000000000000000000060208201526021908051610183929160200190610411565b5060235473__VotingLib_____________________________9063120dce4890600160a060020a03168989898960006040518763ffffffff167c01000000000000000000000000000000000000000000000000000000000281526004018087600160a060020a0316600160a060020a0316815260200186600160a060020a0316600160a060020a031681526020018060200180602001858152602001848152602001838103835287818151815260200191508051906020019080838360005b8381101561025a578082015183820152602001610242565b50505050905090810190601f1680156102875780820380516001836020036101000a031916815260200191505b50838103825286818151815260200191508051906020019080838360005b838110156102bd5780820151838201526020016102a5565b50505050905090810190601f1680156102ea5780820380516001836020036101000a031916815260200191505b509850505050505050505060006040518083038186803b151561030c57600080fd5b5af4151561031957600080fd5b505050602483905560258054600160a060020a031916600160a060020a0384161760a060020a60ff021916740100000000000000000000000000000000000000008315150217905561037664010000000061038381026107661704565b50505050505050506104ac565b60408051908101604052600081527f7965730000000000000000000000000000000000000000000000000000000000602082015260058151815560208201516001909101555060408051908101604052600081527f6e6f0000000000000000000000000000000000000000000000000000000000006020820152600781518155602082015160019091015550565b828054600181600116156101000203166002900490600052602060002090601f016020900481019282601f1061045257805160ff191683800117855561047f565b8280016001018555821561047f579182015b8281111561047f578251825591602001919060010190610464565b5061048b92915061048f565b5090565b6104a991905b8082111561048b5760008155600101610495565b90565b610820806104bb6000396000f3006060604052600436106100e25763ffffffff60e060020a6000350416630383badc81146100e757806306fdde03146100ff5780630fb5a6b4146101895780631703a018146101ae5780632f572336146101c1578063409e2205146101d45780634a7d80b31461020257806365372147146102315780637284e41614610244578063790746ef146102575780638778b27d1461026a5780639c6f0d851461027d578063a9aa6a9b14610290578063aec2ccae146102a3578063bef4876b146102c2578063cc2ee196146102e9578063d56b288914610334578063dbd085ac14610347575b600080fd5b34156100f257600080fd5b6100fd60043561035a565b005b341561010a57600080fd5b6101126103d7565b60405160208082528190810183818151815260200191508051906020019080838360005b8381101561014e578082015183820152602001610136565b50505050905090810190601f16801561017b5780820380516001836020036101000a031916815260200191505b509250505060405180910390f35b341561019457600080fd5b61019c610475565b60405190815260200160405180910390f35b34156101b957600080fd5b61019c61047b565b34156101cc57600080fd5b61019c610481565b34156101df57600080fd5b6101ea600435610487565b60405191825260208201526040908101905180910390f35b341561020d57600080fd5b6102156104a6565b604051600160a060020a03909116815260200160405180910390f35b341561023c57600080fd5b6101ea6104b5565b341561024f57600080fd5b6101126104be565b341561026257600080fd5b61019c610529565b341561027557600080fd5b61019c61052f565b341561028857600080fd5b61019c610535565b341561029b57600080fd5b61011261053b565b34156102ae57600080fd5b61019c600160a060020a03600435166105a6565b34156102cd57600080fd5b6102d56105b8565b604051901515815260200160405180910390f35b34156102f457600080fd5b6102fc6105c1565b6040518082604080838360005b83811015610321578082015183820152602001610309565b5050505090500191505060405180910390f35b341561033f57600080fd5b6100fd6105e5565b341561035257600080fd5b6102d561071f565b60235473__VotingLib_____________________________90634adcade490600160a060020a03168360405160e060020a63ffffffff8516028152600160a060020a039092166004830152602482015260440160006040518083038186803b15156103c457600080fd5b5af415156103d157600080fd5b50505050565b60018054600181600116156101000203166002900480601f01602080910402602001604051908101604052809291908181526020018280546001816001161561010002031660029004801561046d5780601f106104425761010080835404028352916020019161046d565b820191906000526020600020905b81548152906001019060200180831161045057829003601f168201915b505050505081565b601d5481565b60205481565b60225481565b600381600b811061049457fe5b60020201805460019091015490915082565b602554600160a060020a031681565b601a54601b5482565b60028054600181600116156101000203166002900480601f01602080910402602001604051908101604052809291908181526020018280546001816001161561010002031660029004801561046d5780601f106104425761010080835404028352916020019161046d565b60245481565b601c5481565b601e5481565b60218054600181600116156101000203166002900480601f01602080910402602001604051908101604052809291908181526020018280546001816001161561010002031660029004801561046d5780601f106104425761010080835404028352916020019161046d565b60196020526000908152604090205481565b601f5460ff1681565b6105c9610740565b6040805190810160405260055481526007546020820152919050565b60235473__VotingLib_____________________________90631901910b90600160a060020a031660405160e060020a63ffffffff8416028152600160a060020a03909116600482015260240160006040518083038186803b151561064957600080fd5b5af4151561065657600080fd5b5050601b547f79657300000000000000000000000000000000000000000000000000000000001415905061071d57600054602554602454600160a060020a039283169263c2bf7aef92908116919074010000000000000000000000000000000000000000900460ff1660405160e060020a63ffffffff8616028152600160a060020a039093166004840152602483019190915215156044820152606401600060405180830381600087803b151561070c57600080fd5b5af1151561071957600080fd5b5050505b565b60255474010000000000000000000000000000000000000000900460ff1681565b604080519081016040526002815b600081526020019060019003908161074e5790505090565b60408051908101604052600081527f7965730000000000000000000000000000000000000000000000000000000000602082015260058151815560208201516001909101555060408051908101604052600081527f6e6f00000000000000000000000000000000000000000000000000000000000060208201526007815181556020820151600190910155505600a165627a7a723058207bb7d8c6cdadf5caad036b6b675f0ca92734f522bbafd9a5b757ee46bd4c1cc80029",
  "source": "pragma solidity ^0.4.11;\n\nimport \"./VotingLib.sol\";\nimport \"./VotingFields.sol\";\nimport \"../Common.sol\";\n\ncontract Withdrawal is VotingFields {\n    address baseVoting;\n    uint public withdrawalSum;\n    address public withdrawalWallet;\n    bool public dxc;\n\n    function Withdrawal(address _baseVoting, address _dao, string _name, string _description, uint _duration, uint _sum, address _withdrawalWallet, bool _dxc) {\n        require(_sum > 0 && VotingLib.isValidWithdrawal(_dao, _sum, _dxc));\n        baseVoting = _baseVoting;\n        votingType = \"Withdrawal\";\n        VotingLib.delegatecallCreate(baseVoting, _dao, _name, _description, _duration, 0);\n        withdrawalSum = _sum;\n        withdrawalWallet = _withdrawalWallet;\n        dxc = _dxc;\n        createOptions();\n    }\n\n    function getOptions() external constant returns(uint[2]) {\n        return [options[1].votes, options[2].votes];\n    }\n\n    function addVote(uint optionID) public {\n        VotingLib.delegatecallAddVote(baseVoting, optionID);\n    }\n\n    function finish() public {\n        VotingLib.delegatecallFinish(baseVoting);\n        if(result.description == \"yes\") dao.withdrawal(withdrawalWallet, withdrawalSum, dxc);\n    }\n\n    function createOptions() private {\n        options[1] = VotingLib.Option(0, \"yes\");\n        options[2] = VotingLib.Option(0, \"no\");\n    }\n}\n",
  "sourcePath": "/Users/kirill/projects/daox-contracts/contracts/Votings/Withdrawal.sol",
  "compiler": {
    "name": "solc",
    "version": "0.4.21+commit.dfe3193c.Emscripten.clang"
  },
  "schemaVersion": "2.0.0",
  "updatedAt": "2018-04-15T16:16:21.771Z"
}